{
  "_format": "hh-sol-artifact-1",
  "contractName": "Lecture",
  "sourceName": "ethereum/contracts/Lecture.sol",
  "abi": [
    {
      "inputs": [
        {
          "internalType": "address[]",
          "name": "_arrayUsers",
          "type": "address[]"
        },
        {
          "internalType": "string",
          "name": "_ipfsLink",
          "type": "string"
        },
        {
          "internalType": "address",
          "name": "_owner",
          "type": "address"
        }
      ],
      "stateMutability": "nonpayable",
      "type": "constructor"
    },
    {
      "anonymous": false,
      "inputs": [
        {
          "indexed": true,
          "internalType": "address",
          "name": "account",
          "type": "address"
        },
        {
          "indexed": true,
          "internalType": "address",
          "name": "operator",
          "type": "address"
        },
        {
          "indexed": false,
          "internalType": "bool",
          "name": "approved",
          "type": "bool"
        }
      ],
      "name": "ApprovalForAll",
      "type": "event"
    },
    {
      "anonymous": false,
      "inputs": [
        {
          "indexed": true,
          "internalType": "address",
          "name": "operator",
          "type": "address"
        },
        {
          "indexed": true,
          "internalType": "address",
          "name": "from",
          "type": "address"
        },
        {
          "indexed": true,
          "internalType": "address",
          "name": "to",
          "type": "address"
        },
        {
          "indexed": false,
          "internalType": "uint256[]",
          "name": "ids",
          "type": "uint256[]"
        },
        {
          "indexed": false,
          "internalType": "uint256[]",
          "name": "values",
          "type": "uint256[]"
        }
      ],
      "name": "TransferBatch",
      "type": "event"
    },
    {
      "anonymous": false,
      "inputs": [
        {
          "indexed": true,
          "internalType": "address",
          "name": "operator",
          "type": "address"
        },
        {
          "indexed": true,
          "internalType": "address",
          "name": "from",
          "type": "address"
        },
        {
          "indexed": true,
          "internalType": "address",
          "name": "to",
          "type": "address"
        },
        {
          "indexed": false,
          "internalType": "uint256",
          "name": "id",
          "type": "uint256"
        },
        {
          "indexed": false,
          "internalType": "uint256",
          "name": "value",
          "type": "uint256"
        }
      ],
      "name": "TransferSingle",
      "type": "event"
    },
    {
      "anonymous": false,
      "inputs": [
        {
          "indexed": false,
          "internalType": "string",
          "name": "value",
          "type": "string"
        },
        {
          "indexed": true,
          "internalType": "uint256",
          "name": "id",
          "type": "uint256"
        }
      ],
      "name": "URI",
      "type": "event"
    },
    {
      "inputs": [
        {
          "internalType": "address",
          "name": "account",
          "type": "address"
        },
        {
          "internalType": "uint256",
          "name": "id",
          "type": "uint256"
        }
      ],
      "name": "balanceOf",
      "outputs": [
        {
          "internalType": "uint256",
          "name": "",
          "type": "uint256"
        }
      ],
      "stateMutability": "view",
      "type": "function"
    },
    {
      "inputs": [
        {
          "internalType": "address[]",
          "name": "accounts",
          "type": "address[]"
        },
        {
          "internalType": "uint256[]",
          "name": "ids",
          "type": "uint256[]"
        }
      ],
      "name": "balanceOfBatch",
      "outputs": [
        {
          "internalType": "uint256[]",
          "name": "",
          "type": "uint256[]"
        }
      ],
      "stateMutability": "view",
      "type": "function"
    },
    {
      "inputs": [
        {
          "internalType": "address",
          "name": "_address",
          "type": "address"
        }
      ],
      "name": "burnNFT",
      "outputs": [],
      "stateMutability": "nonpayable",
      "type": "function"
    },
    {
      "inputs": [
        {
          "internalType": "address",
          "name": "account",
          "type": "address"
        },
        {
          "internalType": "address",
          "name": "operator",
          "type": "address"
        }
      ],
      "name": "isApprovedForAll",
      "outputs": [
        {
          "internalType": "bool",
          "name": "",
          "type": "bool"
        }
      ],
      "stateMutability": "view",
      "type": "function"
    },
    {
      "inputs": [],
      "name": "owner",
      "outputs": [
        {
          "internalType": "address",
          "name": "",
          "type": "address"
        }
      ],
      "stateMutability": "view",
      "type": "function"
    },
    {
      "inputs": [
        {
          "internalType": "uint256",
          "name": "",
          "type": "uint256"
        }
      ],
      "name": "people",
      "outputs": [
        {
          "internalType": "address",
          "name": "",
          "type": "address"
        }
      ],
      "stateMutability": "view",
      "type": "function"
    },
    {
      "inputs": [
        {
          "internalType": "address",
          "name": "from",
          "type": "address"
        },
        {
          "internalType": "address",
          "name": "to",
          "type": "address"
        },
        {
          "internalType": "uint256[]",
          "name": "ids",
          "type": "uint256[]"
        },
        {
          "internalType": "uint256[]",
          "name": "amounts",
          "type": "uint256[]"
        },
        {
          "internalType": "bytes",
          "name": "data",
          "type": "bytes"
        }
      ],
      "name": "safeBatchTransferFrom",
      "outputs": [],
      "stateMutability": "nonpayable",
      "type": "function"
    },
    {
      "inputs": [
        {
          "internalType": "address",
          "name": "from",
          "type": "address"
        },
        {
          "internalType": "address",
          "name": "to",
          "type": "address"
        },
        {
          "internalType": "uint256",
          "name": "id",
          "type": "uint256"
        },
        {
          "internalType": "uint256",
          "name": "amount",
          "type": "uint256"
        },
        {
          "internalType": "bytes",
          "name": "data",
          "type": "bytes"
        }
      ],
      "name": "safeTransferFrom",
      "outputs": [],
      "stateMutability": "nonpayable",
      "type": "function"
    },
    {
      "inputs": [
        {
          "internalType": "address",
          "name": "operator",
          "type": "address"
        },
        {
          "internalType": "bool",
          "name": "approved",
          "type": "bool"
        }
      ],
      "name": "setApprovalForAll",
      "outputs": [],
      "stateMutability": "nonpayable",
      "type": "function"
    },
    {
      "inputs": [
        {
          "internalType": "bytes4",
          "name": "interfaceId",
          "type": "bytes4"
        }
      ],
      "name": "supportsInterface",
      "outputs": [
        {
          "internalType": "bool",
          "name": "",
          "type": "bool"
        }
      ],
      "stateMutability": "view",
      "type": "function"
    },
    {
      "inputs": [
        {
          "internalType": "uint256",
          "name": "",
          "type": "uint256"
        }
      ],
      "name": "uri",
      "outputs": [
        {
          "internalType": "string",
          "name": "",
          "type": "string"
        }
      ],
      "stateMutability": "view",
      "type": "function"
    }
  ],
  "bytecode": "0x60806040523480156200001157600080fd5b5060405162003dab38038062003dab83398181016040528101906200003791906200094e565b8162000049816200011260201b60201c565b5080600360006101000a81548173ffffffffffffffffffffffffffffffffffffffff021916908373ffffffffffffffffffffffffffffffffffffffff1602179055508260049080519060200190620000a3929190620005c3565b5060005b83518110156200010857620000f2848281518110620000cb57620000ca620009e8565b5b6020026020010151600180604051806020016040528060008152506200012760201b60201c565b8080620000ff9062000a50565b915050620000a7565b50505050620012cc565b806002908162000123919062000cde565b5050565b600073ffffffffffffffffffffffffffffffffffffffff168473ffffffffffffffffffffffffffffffffffffffff160362000199576040517f08c379a0000000000000000000000000000000000000000000000000000000008152600401620001909062000e4c565b60405180910390fd5b6000620001ab6200030e60201b60201c565b90506000620001c0856200031660201b60201c565b90506000620001d5856200031660201b60201c565b9050620001ee836000898585896200039760201b60201c565b8460008088815260200190815260200160002060008973ffffffffffffffffffffffffffffffffffffffff1673ffffffffffffffffffffffffffffffffffffffff16815260200190815260200160002060008282546200024f919062000e6e565b925050819055508673ffffffffffffffffffffffffffffffffffffffff16600073ffffffffffffffffffffffffffffffffffffffff168473ffffffffffffffffffffffffffffffffffffffff167fc3d58168c5ae7397731d063d5bbf3d657854427343f4c083240f7aacaa2d0f628989604051620002cf92919062000edc565b60405180910390a4620002ee836000898585896200039f60201b60201c565b6200030583600089898989620003a760201b60201c565b50505050505050565b600033905090565b60606000600167ffffffffffffffff8111156200033857620003376200069b565b5b604051908082528060200260200182016040528015620003675781602001602082028036833780820191505090505b5090508281600081518110620003825762000381620009e8565b5b60200260200101818152505080915050919050565b505050505050565b505050505050565b620003d38473ffffffffffffffffffffffffffffffffffffffff16620005a060201b620008a21760201c565b1562000598578373ffffffffffffffffffffffffffffffffffffffff1663f23a6e6187878686866040518663ffffffff1660e01b81526004016200041c95949392919062000f77565b6020604051808303816000875af19250505080156200045b57506040513d601f19601f8201168201806040525081019062000458919062001038565b60015b6200050c576200046a62001077565b806308c379a003620004cd5750620004816200109c565b806200048e5750620004cf565b806040517f08c379a0000000000000000000000000000000000000000000000000000000008152600401620004c4919062001178565b60405180910390fd5b505b6040517f08c379a0000000000000000000000000000000000000000000000000000000008152600401620005039062001212565b60405180910390fd5b63f23a6e6160e01b7bffffffffffffffffffffffffffffffffffffffffffffffffffffffff1916817bffffffffffffffffffffffffffffffffffffffffffffffffffffffff19161462000596576040517f08c379a00000000000000000000000000000000000000000000000000000000081526004016200058d90620012aa565b60405180910390fd5b505b505050505050565b6000808273ffffffffffffffffffffffffffffffffffffffff163b119050919050565b8280548282559060005260206000209081019282156200063f579160200282015b828111156200063e5782518260006101000a81548173ffffffffffffffffffffffffffffffffffffffff021916908373ffffffffffffffffffffffffffffffffffffffff16021790555091602001919060010190620005e4565b5b5090506200064e919062000652565b5090565b5b808211156200066d57600081600090555060010162000653565b5090565b6000604051905090565b600080fd5b600080fd5b600080fd5b6000601f19601f8301169050919050565b7f4e487b7100000000000000000000000000000000000000000000000000000000600052604160045260246000fd5b620006d5826200068a565b810181811067ffffffffffffffff82111715620006f757620006f66200069b565b5b80604052505050565b60006200070c62000671565b90506200071a8282620006ca565b919050565b600067ffffffffffffffff8211156200073d576200073c6200069b565b5b602082029050602081019050919050565b600080fd5b600073ffffffffffffffffffffffffffffffffffffffff82169050919050565b6000620007808262000753565b9050919050565b620007928162000773565b81146200079e57600080fd5b50565b600081519050620007b28162000787565b92915050565b6000620007cf620007c9846200071f565b62000700565b90508083825260208201905060208402830185811115620007f557620007f46200074e565b5b835b818110156200082257806200080d8882620007a1565b845260208401935050602081019050620007f7565b5050509392505050565b600082601f83011262000844576200084362000685565b5b815162000856848260208601620007b8565b91505092915050565b600080fd5b600067ffffffffffffffff8211156200088257620008816200069b565b5b6200088d826200068a565b9050602081019050919050565b60005b83811015620008ba5780820151818401526020810190506200089d565b83811115620008ca576000848401525b50505050565b6000620008e7620008e18462000864565b62000700565b9050828152602081018484840111156200090657620009056200085f565b5b620009138482856200089a565b509392505050565b600082601f83011262000933576200093262000685565b5b815162000945848260208601620008d0565b91505092915050565b6000806000606084860312156200096a57620009696200067b565b5b600084015167ffffffffffffffff8111156200098b576200098a62000680565b5b62000999868287016200082c565b935050602084015167ffffffffffffffff811115620009bd57620009bc62000680565b5b620009cb868287016200091b565b9250506040620009de86828701620007a1565b9150509250925092565b7f4e487b7100000000000000000000000000000000000000000000000000000000600052603260045260246000fd5b7f4e487b7100000000000000000000000000000000000000000000000000000000600052601160045260246000fd5b6000819050919050565b600062000a5d8262000a46565b91507fffffffffffffffffffffffffffffffffffffffffffffffffffffffffffffffff820362000a925762000a9162000a17565b5b600182019050919050565b600081519050919050565b7f4e487b7100000000000000000000000000000000000000000000000000000000600052602260045260246000fd5b6000600282049050600182168062000af057607f821691505b60208210810362000b065762000b0562000aa8565b5b50919050565b60008190508160005260206000209050919050565b60006020601f8301049050919050565b600082821b905092915050565b60006008830262000b707fffffffffffffffffffffffffffffffffffffffffffffffffffffffffffffffff8262000b31565b62000b7c868362000b31565b95508019841693508086168417925050509392505050565b6000819050919050565b600062000bbf62000bb962000bb38462000a46565b62000b94565b62000a46565b9050919050565b6000819050919050565b62000bdb8362000b9e565b62000bf362000bea8262000bc6565b84845462000b3e565b825550505050565b600090565b62000c0a62000bfb565b62000c1781848462000bd0565b505050565b5b8181101562000c3f5762000c3360008262000c00565b60018101905062000c1d565b5050565b601f82111562000c8e5762000c588162000b0c565b62000c638462000b21565b8101602085101562000c73578190505b62000c8b62000c828562000b21565b83018262000c1c565b50505b505050565b600082821c905092915050565b600062000cb36000198460080262000c93565b1980831691505092915050565b600062000cce838362000ca0565b9150826002028217905092915050565b62000ce98262000a9d565b67ffffffffffffffff81111562000d055762000d046200069b565b5b62000d11825462000ad7565b62000d1e82828562000c43565b600060209050601f83116001811462000d56576000841562000d41578287015190505b62000d4d858262000cc0565b86555062000dbd565b601f19841662000d668662000b0c565b60005b8281101562000d905784890151825560018201915060208501945060208101905062000d69565b8683101562000db0578489015162000dac601f89168262000ca0565b8355505b6001600288020188555050505b505050505050565b600082825260208201905092915050565b7f455243313135353a206d696e7420746f20746865207a65726f2061646472657360008201527f7300000000000000000000000000000000000000000000000000000000000000602082015250565b600062000e3460218362000dc5565b915062000e418262000dd6565b604082019050919050565b6000602082019050818103600083015262000e678162000e25565b9050919050565b600062000e7b8262000a46565b915062000e888362000a46565b9250827fffffffffffffffffffffffffffffffffffffffffffffffffffffffffffffffff0382111562000ec05762000ebf62000a17565b5b828201905092915050565b62000ed68162000a46565b82525050565b600060408201905062000ef3600083018562000ecb565b62000f02602083018462000ecb565b9392505050565b62000f148162000773565b82525050565b600081519050919050565b600082825260208201905092915050565b600062000f438262000f1a565b62000f4f818562000f25565b935062000f618185602086016200089a565b62000f6c816200068a565b840191505092915050565b600060a08201905062000f8e600083018862000f09565b62000f9d602083018762000f09565b62000fac604083018662000ecb565b62000fbb606083018562000ecb565b818103608083015262000fcf818462000f36565b90509695505050505050565b60007fffffffff0000000000000000000000000000000000000000000000000000000082169050919050565b620010128162000fdb565b81146200101e57600080fd5b50565b600081519050620010328162001007565b92915050565b6000602082840312156200105157620010506200067b565b5b6000620010618482850162001021565b91505092915050565b60008160e01c9050919050565b600060033d1115620010995760046000803e620010966000516200106a565b90505b90565b600060443d106200113457620010b162000671565b60043d036004823e80513d602482011167ffffffffffffffff82111715620010db57505062001134565b808201805167ffffffffffffffff811115620010fb575050505062001134565b80602083010160043d0385018111156200111a57505050505062001134565b6200112b82602001850186620006ca565b82955050505050505b90565b6000620011448262000a9d565b62001150818562000dc5565b9350620011628185602086016200089a565b6200116d816200068a565b840191505092915050565b6000602082019050818103600083015262001194818462001137565b905092915050565b7f455243313135353a207472616e7366657220746f206e6f6e204552433131353560008201527f526563656976657220696d706c656d656e746572000000000000000000000000602082015250565b6000620011fa60348362000dc5565b915062001207826200119c565b604082019050919050565b600060208201905081810360008301526200122d81620011eb565b9050919050565b7f455243313135353a204552433131353552656365697665722072656a6563746560008201527f6420746f6b656e73000000000000000000000000000000000000000000000000602082015250565b60006200129260288362000dc5565b91506200129f8262001234565b604082019050919050565b60006020820190508181036000830152620012c58162001283565b9050919050565b612acf80620012dc6000396000f3fe608060405234801561001057600080fd5b50600436106100a85760003560e01c80638da5cb5b116100715780638da5cb5b146101895780639e7a13ad146101a7578063a22cb465146101d7578063e985e9c5146101f3578063f242432a14610223578063f83efec81461023f576100a8565b8062fdd58e146100ad57806301ffc9a7146100dd5780630e89341c1461010d5780632eb2c2d61461013d5780634e1273f414610159575b600080fd5b6100c760048036038101906100c29190611785565b61025b565b6040516100d491906117d4565b60405180910390f35b6100f760048036038101906100f29190611847565b610323565b604051610104919061188f565b60405180910390f35b610127600480360381019061012291906118aa565b610405565b6040516101349190611970565b60405180910390f35b61015760048036038101906101529190611b8f565b610499565b005b610173600480360381019061016e9190611d21565b61053a565b6040516101809190611e57565b60405180910390f35b610191610653565b60405161019e9190611e88565b60405180910390f35b6101c160048036038101906101bc91906118aa565b610679565b6040516101ce9190611e88565b60405180910390f35b6101f160048036038101906101ec9190611ecf565b6106b8565b005b61020d60048036038101906102089190611f0f565b6106ce565b60405161021a919061188f565b60405180910390f35b61023d60048036038101906102389190611f4f565b610762565b005b61025960048036038101906102549190611fe6565b610803565b005b60008073ffffffffffffffffffffffffffffffffffffffff168373ffffffffffffffffffffffffffffffffffffffff16036102cb576040517f08c379a00000000000000000000000000000000000000000000000000000000081526004016102c290612085565b60405180910390fd5b60008083815260200190815260200160002060008473ffffffffffffffffffffffffffffffffffffffff1673ffffffffffffffffffffffffffffffffffffffff16815260200190815260200160002054905092915050565b60007fd9b67a26000000000000000000000000000000000000000000000000000000007bffffffffffffffffffffffffffffffffffffffffffffffffffffffff1916827bffffffffffffffffffffffffffffffffffffffffffffffffffffffff191614806103ee57507f0e89341c000000000000000000000000000000000000000000000000000000007bffffffffffffffffffffffffffffffffffffffffffffffffffffffff1916827bffffffffffffffffffffffffffffffffffffffffffffffffffffffff1916145b806103fe57506103fd826108c5565b5b9050919050565b606060028054610414906120d4565b80601f0160208091040260200160405190810160405280929190818152602001828054610440906120d4565b801561048d5780601f106104625761010080835404028352916020019161048d565b820191906000526020600020905b81548152906001019060200180831161047057829003601f168201915b50505050509050919050565b6104a161092f565b73ffffffffffffffffffffffffffffffffffffffff168573ffffffffffffffffffffffffffffffffffffffff1614806104e757506104e6856104e161092f565b6106ce565b5b610526576040517f08c379a000000000000000000000000000000000000000000000000000000000815260040161051d90612177565b60405180910390fd5b6105338585858585610937565b5050505050565b60608151835114610580576040517f08c379a000000000000000000000000000000000000000000000000000000000815260040161057790612209565b60405180910390fd5b6000835167ffffffffffffffff81111561059d5761059c611997565b5b6040519080825280602002602001820160405280156105cb5781602001602082028036833780820191505090505b50905060005b8451811015610648576106188582815181106105f0576105ef612229565b5b602002602001015185838151811061060b5761060a612229565b5b602002602001015161025b565b82828151811061062b5761062a612229565b5b6020026020010181815250508061064190612287565b90506105d1565b508091505092915050565b600360009054906101000a900473ffffffffffffffffffffffffffffffffffffffff1681565b6004818154811061068957600080fd5b906000526020600020016000915054906101000a900473ffffffffffffffffffffffffffffffffffffffff1681565b6106ca6106c361092f565b8383610c58565b5050565b6000600160008473ffffffffffffffffffffffffffffffffffffffff1673ffffffffffffffffffffffffffffffffffffffff16815260200190815260200160002060008373ffffffffffffffffffffffffffffffffffffffff1673ffffffffffffffffffffffffffffffffffffffff16815260200190815260200160002060009054906101000a900460ff16905092915050565b61076a61092f565b73ffffffffffffffffffffffffffffffffffffffff168573ffffffffffffffffffffffffffffffffffffffff1614806107b057506107af856107aa61092f565b6106ce565b5b6107ef576040517f08c379a00000000000000000000000000000000000000000000000000000000081526004016107e690612177565b60405180910390fd5b6107fc8585858585610dc4565b5050505050565b3373ffffffffffffffffffffffffffffffffffffffff16600360009054906101000a900473ffffffffffffffffffffffffffffffffffffffff1673ffffffffffffffffffffffffffffffffffffffff1614610893576040517f08c379a000000000000000000000000000000000000000000000000000000000815260040161088a9061231b565b60405180910390fd5b61089f8160018061105f565b50565b6000808273ffffffffffffffffffffffffffffffffffffffff163b119050919050565b60007f01ffc9a7000000000000000000000000000000000000000000000000000000007bffffffffffffffffffffffffffffffffffffffffffffffffffffffff1916827bffffffffffffffffffffffffffffffffffffffffffffffffffffffff1916149050919050565b600033905090565b815183511461097b576040517f08c379a0000000000000000000000000000000000000000000000000000000008152600401610972906123ad565b60405180910390fd5b600073ffffffffffffffffffffffffffffffffffffffff168473ffffffffffffffffffffffffffffffffffffffff16036109ea576040517f08c379a00000000000000000000000000000000000000000000000000000000081526004016109e19061243f565b60405180910390fd5b60006109f461092f565b9050610a048187878787876112a5565b60005b8451811015610bb5576000858281518110610a2557610a24612229565b5b602002602001015190506000858381518110610a4457610a43612229565b5b60200260200101519050600080600084815260200190815260200160002060008b73ffffffffffffffffffffffffffffffffffffffff1673ffffffffffffffffffffffffffffffffffffffff16815260200190815260200160002054905081811015610ae5576040517f08c379a0000000000000000000000000000000000000000000000000000000008152600401610adc906124d1565b60405180910390fd5b81810360008085815260200190815260200160002060008c73ffffffffffffffffffffffffffffffffffffffff1673ffffffffffffffffffffffffffffffffffffffff168152602001908152602001600020819055508160008085815260200190815260200160002060008b73ffffffffffffffffffffffffffffffffffffffff1673ffffffffffffffffffffffffffffffffffffffff1681526020019081526020016000206000828254610b9a91906124f1565b9250508190555050505080610bae90612287565b9050610a07565b508473ffffffffffffffffffffffffffffffffffffffff168673ffffffffffffffffffffffffffffffffffffffff168273ffffffffffffffffffffffffffffffffffffffff167f4a39dc06d4c0dbc64b70af90fd698a233a518aa5d07e595d983b8c0526c8f7fb8787604051610c2c929190612547565b60405180910390a4610c428187878787876112ad565b610c508187878787876112b5565b505050505050565b8173ffffffffffffffffffffffffffffffffffffffff168373ffffffffffffffffffffffffffffffffffffffff1603610cc6576040517f08c379a0000000000000000000000000000000000000000000000000000000008152600401610cbd906125f0565b60405180910390fd5b80600160008573ffffffffffffffffffffffffffffffffffffffff1673ffffffffffffffffffffffffffffffffffffffff16815260200190815260200160002060008473ffffffffffffffffffffffffffffffffffffffff1673ffffffffffffffffffffffffffffffffffffffff16815260200190815260200160002060006101000a81548160ff0219169083151502179055508173ffffffffffffffffffffffffffffffffffffffff168373ffffffffffffffffffffffffffffffffffffffff167f17307eab39ab6107e8899845ad3d59bd9653f200f220920489ca2b5937696c3183604051610db7919061188f565b60405180910390a3505050565b600073ffffffffffffffffffffffffffffffffffffffff168473ffffffffffffffffffffffffffffffffffffffff1603610e33576040517f08c379a0000000000000000000000000000000000000000000000000000000008152600401610e2a9061243f565b60405180910390fd5b6000610e3d61092f565b90506000610e4a8561148c565b90506000610e578561148c565b9050610e678389898585896112a5565b600080600088815260200190815260200160002060008a73ffffffffffffffffffffffffffffffffffffffff1673ffffffffffffffffffffffffffffffffffffffff16815260200190815260200160002054905085811015610efe576040517f08c379a0000000000000000000000000000000000000000000000000000000008152600401610ef5906124d1565b60405180910390fd5b85810360008089815260200190815260200160002060008b73ffffffffffffffffffffffffffffffffffffffff1673ffffffffffffffffffffffffffffffffffffffff168152602001908152602001600020819055508560008089815260200190815260200160002060008a73ffffffffffffffffffffffffffffffffffffffff1673ffffffffffffffffffffffffffffffffffffffff1681526020019081526020016000206000828254610fb391906124f1565b925050819055508773ffffffffffffffffffffffffffffffffffffffff168973ffffffffffffffffffffffffffffffffffffffff168573ffffffffffffffffffffffffffffffffffffffff167fc3d58168c5ae7397731d063d5bbf3d657854427343f4c083240f7aacaa2d0f628a8a604051611030929190612610565b60405180910390a4611046848a8a86868a6112ad565b611054848a8a8a8a8a611506565b505050505050505050565b600073ffffffffffffffffffffffffffffffffffffffff168373ffffffffffffffffffffffffffffffffffffffff16036110ce576040517f08c379a00000000000000000000000000000000000000000000000000000000081526004016110c5906126ab565b60405180910390fd5b60006110d861092f565b905060006110e58461148c565b905060006110f28461148c565b9050611112838760008585604051806020016040528060008152506112a5565b600080600087815260200190815260200160002060008873ffffffffffffffffffffffffffffffffffffffff1673ffffffffffffffffffffffffffffffffffffffff168152602001908152602001600020549050848110156111a9576040517f08c379a00000000000000000000000000000000000000000000000000000000081526004016111a09061273d565b60405180910390fd5b84810360008088815260200190815260200160002060008973ffffffffffffffffffffffffffffffffffffffff1673ffffffffffffffffffffffffffffffffffffffff16815260200190815260200160002081905550600073ffffffffffffffffffffffffffffffffffffffff168773ffffffffffffffffffffffffffffffffffffffff168573ffffffffffffffffffffffffffffffffffffffff167fc3d58168c5ae7397731d063d5bbf3d657854427343f4c083240f7aacaa2d0f628989604051611276929190612610565b60405180910390a461129c848860008686604051806020016040528060008152506112ad565b50505050505050565b505050505050565b505050505050565b6112d48473ffffffffffffffffffffffffffffffffffffffff166108a2565b15611484578373ffffffffffffffffffffffffffffffffffffffff1663bc197c8187878686866040518663ffffffff1660e01b815260040161131a9594939291906127b2565b6020604051808303816000875af192505050801561135657506040513d601f19601f82011682018060405250810190611353919061282f565b60015b6113fb57611362612869565b806308c379a0036113be575061137661288b565b8061138157506113c0565b806040517f08c379a00000000000000000000000000000000000000000000000000000000081526004016113b59190611970565b60405180910390fd5b505b6040517f08c379a00000000000000000000000000000000000000000000000000000000081526004016113f29061298d565b60405180910390fd5b63bc197c8160e01b7bffffffffffffffffffffffffffffffffffffffffffffffffffffffff1916817bffffffffffffffffffffffffffffffffffffffffffffffffffffffff191614611482576040517f08c379a000000000000000000000000000000000000000000000000000000000815260040161147990612a1f565b60405180910390fd5b505b505050505050565b60606000600167ffffffffffffffff8111156114ab576114aa611997565b5b6040519080825280602002602001820160405280156114d95781602001602082028036833780820191505090505b50905082816000815181106114f1576114f0612229565b5b60200260200101818152505080915050919050565b6115258473ffffffffffffffffffffffffffffffffffffffff166108a2565b156116d5578373ffffffffffffffffffffffffffffffffffffffff1663f23a6e6187878686866040518663ffffffff1660e01b815260040161156b959493929190612a3f565b6020604051808303816000875af19250505080156115a757506040513d601f19601f820116820180604052508101906115a4919061282f565b60015b61164c576115b3612869565b806308c379a00361160f57506115c761288b565b806115d25750611611565b806040517f08c379a00000000000000000000000000000000000000000000000000000000081526004016116069190611970565b60405180910390fd5b505b6040517f08c379a00000000000000000000000000000000000000000000000000000000081526004016116439061298d565b60405180910390fd5b63f23a6e6160e01b7bffffffffffffffffffffffffffffffffffffffffffffffffffffffff1916817bffffffffffffffffffffffffffffffffffffffffffffffffffffffff1916146116d3576040517f08c379a00000000000000000000000000000000000000000000000000000000081526004016116ca90612a1f565b60405180910390fd5b505b505050505050565b6000604051905090565b600080fd5b600080fd5b600073ffffffffffffffffffffffffffffffffffffffff82169050919050565b600061171c826116f1565b9050919050565b61172c81611711565b811461173757600080fd5b50565b60008135905061174981611723565b92915050565b6000819050919050565b6117628161174f565b811461176d57600080fd5b50565b60008135905061177f81611759565b92915050565b6000806040838503121561179c5761179b6116e7565b5b60006117aa8582860161173a565b92505060206117bb85828601611770565b9150509250929050565b6117ce8161174f565b82525050565b60006020820190506117e960008301846117c5565b92915050565b60007fffffffff0000000000000000000000000000000000000000000000000000000082169050919050565b611824816117ef565b811461182f57600080fd5b50565b6000813590506118418161181b565b92915050565b60006020828403121561185d5761185c6116e7565b5b600061186b84828501611832565b91505092915050565b60008115159050919050565b61188981611874565b82525050565b60006020820190506118a46000830184611880565b92915050565b6000602082840312156118c0576118bf6116e7565b5b60006118ce84828501611770565b91505092915050565b600081519050919050565b600082825260208201905092915050565b60005b838110156119115780820151818401526020810190506118f6565b83811115611920576000848401525b50505050565b6000601f19601f8301169050919050565b6000611942826118d7565b61194c81856118e2565b935061195c8185602086016118f3565b61196581611926565b840191505092915050565b6000602082019050818103600083015261198a8184611937565b905092915050565b600080fd5b7f4e487b7100000000000000000000000000000000000000000000000000000000600052604160045260246000fd5b6119cf82611926565b810181811067ffffffffffffffff821117156119ee576119ed611997565b5b80604052505050565b6000611a016116dd565b9050611a0d82826119c6565b919050565b600067ffffffffffffffff821115611a2d57611a2c611997565b5b602082029050602081019050919050565b600080fd5b6000611a56611a5184611a12565b6119f7565b90508083825260208201905060208402830185811115611a7957611a78611a3e565b5b835b81811015611aa25780611a8e8882611770565b845260208401935050602081019050611a7b565b5050509392505050565b600082601f830112611ac157611ac0611992565b5b8135611ad1848260208601611a43565b91505092915050565b600080fd5b600067ffffffffffffffff821115611afa57611af9611997565b5b611b0382611926565b9050602081019050919050565b82818337600083830152505050565b6000611b32611b2d84611adf565b6119f7565b905082815260208101848484011115611b4e57611b4d611ada565b5b611b59848285611b10565b509392505050565b600082601f830112611b7657611b75611992565b5b8135611b86848260208601611b1f565b91505092915050565b600080600080600060a08688031215611bab57611baa6116e7565b5b6000611bb98882890161173a565b9550506020611bca8882890161173a565b945050604086013567ffffffffffffffff811115611beb57611bea6116ec565b5b611bf788828901611aac565b935050606086013567ffffffffffffffff811115611c1857611c176116ec565b5b611c2488828901611aac565b925050608086013567ffffffffffffffff811115611c4557611c446116ec565b5b611c5188828901611b61565b9150509295509295909350565b600067ffffffffffffffff821115611c7957611c78611997565b5b602082029050602081019050919050565b6000611c9d611c9884611c5e565b6119f7565b90508083825260208201905060208402830185811115611cc057611cbf611a3e565b5b835b81811015611ce95780611cd5888261173a565b845260208401935050602081019050611cc2565b5050509392505050565b600082601f830112611d0857611d07611992565b5b8135611d18848260208601611c8a565b91505092915050565b60008060408385031215611d3857611d376116e7565b5b600083013567ffffffffffffffff811115611d5657611d556116ec565b5b611d6285828601611cf3565b925050602083013567ffffffffffffffff811115611d8357611d826116ec565b5b611d8f85828601611aac565b9150509250929050565b600081519050919050565b600082825260208201905092915050565b6000819050602082019050919050565b611dce8161174f565b82525050565b6000611de08383611dc5565b60208301905092915050565b6000602082019050919050565b6000611e0482611d99565b611e0e8185611da4565b9350611e1983611db5565b8060005b83811015611e4a578151611e318882611dd4565b9750611e3c83611dec565b925050600181019050611e1d565b5085935050505092915050565b60006020820190508181036000830152611e718184611df9565b905092915050565b611e8281611711565b82525050565b6000602082019050611e9d6000830184611e79565b92915050565b611eac81611874565b8114611eb757600080fd5b50565b600081359050611ec981611ea3565b92915050565b60008060408385031215611ee657611ee56116e7565b5b6000611ef48582860161173a565b9250506020611f0585828601611eba565b9150509250929050565b60008060408385031215611f2657611f256116e7565b5b6000611f348582860161173a565b9250506020611f458582860161173a565b9150509250929050565b600080600080600060a08688031215611f6b57611f6a6116e7565b5b6000611f798882890161173a565b9550506020611f8a8882890161173a565b9450506040611f9b88828901611770565b9350506060611fac88828901611770565b925050608086013567ffffffffffffffff811115611fcd57611fcc6116ec565b5b611fd988828901611b61565b9150509295509295909350565b600060208284031215611ffc57611ffb6116e7565b5b600061200a8482850161173a565b91505092915050565b7f455243313135353a2061646472657373207a65726f206973206e6f742061207660008201527f616c6964206f776e657200000000000000000000000000000000000000000000602082015250565b600061206f602a836118e2565b915061207a82612013565b604082019050919050565b6000602082019050818103600083015261209e81612062565b9050919050565b7f4e487b7100000000000000000000000000000000000000000000000000000000600052602260045260246000fd5b600060028204905060018216806120ec57607f821691505b6020821081036120ff576120fe6120a5565b5b50919050565b7f455243313135353a2063616c6c6572206973206e6f7420746f6b656e206f776e60008201527f6572206e6f7220617070726f7665640000000000000000000000000000000000602082015250565b6000612161602f836118e2565b915061216c82612105565b604082019050919050565b6000602082019050818103600083015261219081612154565b9050919050565b7f455243313135353a206163636f756e747320616e6420696473206c656e67746860008201527f206d69736d617463680000000000000000000000000000000000000000000000602082015250565b60006121f36029836118e2565b91506121fe82612197565b604082019050919050565b60006020820190508181036000830152612222816121e6565b9050919050565b7f4e487b7100000000000000000000000000000000000000000000000000000000600052603260045260246000fd5b7f4e487b7100000000000000000000000000000000000000000000000000000000600052601160045260246000fd5b60006122928261174f565b91507fffffffffffffffffffffffffffffffffffffffffffffffffffffffffffffffff82036122c4576122c3612258565b5b600182019050919050565b7f4e6f74206f776e65720000000000000000000000000000000000000000000000600082015250565b60006123056009836118e2565b9150612310826122cf565b602082019050919050565b60006020820190508181036000830152612334816122f8565b9050919050565b7f455243313135353a2069647320616e6420616d6f756e7473206c656e6774682060008201527f6d69736d61746368000000000000000000000000000000000000000000000000602082015250565b60006123976028836118e2565b91506123a28261233b565b604082019050919050565b600060208201905081810360008301526123c68161238a565b9050919050565b7f455243313135353a207472616e7366657220746f20746865207a65726f20616460008201527f6472657373000000000000000000000000000000000000000000000000000000602082015250565b60006124296025836118e2565b9150612434826123cd565b604082019050919050565b600060208201905081810360008301526124588161241c565b9050919050565b7f455243313135353a20696e73756666696369656e742062616c616e636520666f60008201527f72207472616e7366657200000000000000000000000000000000000000000000602082015250565b60006124bb602a836118e2565b91506124c68261245f565b604082019050919050565b600060208201905081810360008301526124ea816124ae565b9050919050565b60006124fc8261174f565b91506125078361174f565b9250827fffffffffffffffffffffffffffffffffffffffffffffffffffffffffffffffff0382111561253c5761253b612258565b5b828201905092915050565b600060408201905081810360008301526125618185611df9565b905081810360208301526125758184611df9565b90509392505050565b7f455243313135353a2073657474696e6720617070726f76616c2073746174757360008201527f20666f722073656c660000000000000000000000000000000000000000000000602082015250565b60006125da6029836118e2565b91506125e58261257e565b604082019050919050565b60006020820190508181036000830152612609816125cd565b9050919050565b600060408201905061262560008301856117c5565b61263260208301846117c5565b9392505050565b7f455243313135353a206275726e2066726f6d20746865207a65726f206164647260008201527f6573730000000000000000000000000000000000000000000000000000000000602082015250565b60006126956023836118e2565b91506126a082612639565b604082019050919050565b600060208201905081810360008301526126c481612688565b9050919050565b7f455243313135353a206275726e20616d6f756e7420657863656564732062616c60008201527f616e636500000000000000000000000000000000000000000000000000000000602082015250565b60006127276024836118e2565b9150612732826126cb565b604082019050919050565b600060208201905081810360008301526127568161271a565b9050919050565b600081519050919050565b600082825260208201905092915050565b60006127848261275d565b61278e8185612768565b935061279e8185602086016118f3565b6127a781611926565b840191505092915050565b600060a0820190506127c76000830188611e79565b6127d46020830187611e79565b81810360408301526127e68186611df9565b905081810360608301526127fa8185611df9565b9050818103608083015261280e8184612779565b90509695505050505050565b6000815190506128298161181b565b92915050565b600060208284031215612845576128446116e7565b5b60006128538482850161281a565b91505092915050565b60008160e01c9050919050565b600060033d11156128885760046000803e61288560005161285c565b90505b90565b600060443d106129185761289d6116dd565b60043d036004823e80513d602482011167ffffffffffffffff821117156128c5575050612918565b808201805167ffffffffffffffff8111156128e35750505050612918565b80602083010160043d038501811115612900575050505050612918565b61290f826020018501866119c6565b82955050505050505b90565b7f455243313135353a207472616e7366657220746f206e6f6e204552433131353560008201527f526563656976657220696d706c656d656e746572000000000000000000000000602082015250565b60006129776034836118e2565b91506129828261291b565b604082019050919050565b600060208201905081810360008301526129a68161296a565b9050919050565b7f455243313135353a204552433131353552656365697665722072656a6563746560008201527f6420746f6b656e73000000000000000000000000000000000000000000000000602082015250565b6000612a096028836118e2565b9150612a14826129ad565b604082019050919050565b60006020820190508181036000830152612a38816129fc565b9050919050565b600060a082019050612a546000830188611e79565b612a616020830187611e79565b612a6e60408301866117c5565b612a7b60608301856117c5565b8181036080830152612a8d8184612779565b9050969550505050505056fea26469706673582212207af473891920f52fe05289a2c2a192dc836de8fbb282c5cbc03a3610c28ea9d864736f6c634300080f0033",
  "linkReferences": {},
  "deployedLinkReferences": {}
}