{
  "_format": "hh-sol-artifact-1",
  "contractName": "Lecture",
  "sourceName": "ethereum/contracts/Lecture.sol",
  "abi": [
    {
      "inputs": [
        {
          "internalType": "address[]",
          "name": "_arrayUsers",
          "type": "address[]"
        },
        {
          "internalType": "string",
          "name": "_ipfsLink",
          "type": "string"
        },
        {
          "internalType": "address",
          "name": "_owner",
          "type": "address"
        }
      ],
      "stateMutability": "nonpayable",
      "type": "constructor"
    },
    {
      "anonymous": false,
      "inputs": [
        {
          "indexed": true,
          "internalType": "address",
          "name": "account",
          "type": "address"
        },
        {
          "indexed": true,
          "internalType": "address",
          "name": "operator",
          "type": "address"
        },
        {
          "indexed": false,
          "internalType": "bool",
          "name": "approved",
          "type": "bool"
        }
      ],
      "name": "ApprovalForAll",
      "type": "event"
    },
    {
      "anonymous": false,
      "inputs": [
        {
          "indexed": true,
          "internalType": "address",
          "name": "operator",
          "type": "address"
        },
        {
          "indexed": true,
          "internalType": "address",
          "name": "from",
          "type": "address"
        },
        {
          "indexed": true,
          "internalType": "address",
          "name": "to",
          "type": "address"
        },
        {
          "indexed": false,
          "internalType": "uint256[]",
          "name": "ids",
          "type": "uint256[]"
        },
        {
          "indexed": false,
          "internalType": "uint256[]",
          "name": "values",
          "type": "uint256[]"
        }
      ],
      "name": "TransferBatch",
      "type": "event"
    },
    {
      "anonymous": false,
      "inputs": [
        {
          "indexed": true,
          "internalType": "address",
          "name": "operator",
          "type": "address"
        },
        {
          "indexed": true,
          "internalType": "address",
          "name": "from",
          "type": "address"
        },
        {
          "indexed": true,
          "internalType": "address",
          "name": "to",
          "type": "address"
        },
        {
          "indexed": false,
          "internalType": "uint256",
          "name": "id",
          "type": "uint256"
        },
        {
          "indexed": false,
          "internalType": "uint256",
          "name": "value",
          "type": "uint256"
        }
      ],
      "name": "TransferSingle",
      "type": "event"
    },
    {
      "anonymous": false,
      "inputs": [
        {
          "indexed": false,
          "internalType": "string",
          "name": "value",
          "type": "string"
        },
        {
          "indexed": true,
          "internalType": "uint256",
          "name": "id",
          "type": "uint256"
        }
      ],
      "name": "URI",
      "type": "event"
    },
    {
      "inputs": [
        {
          "internalType": "address",
          "name": "account",
          "type": "address"
        },
        {
          "internalType": "uint256",
          "name": "id",
          "type": "uint256"
        }
      ],
      "name": "balanceOf",
      "outputs": [
        {
          "internalType": "uint256",
          "name": "",
          "type": "uint256"
        }
      ],
      "stateMutability": "view",
      "type": "function"
    },
    {
      "inputs": [
        {
          "internalType": "address[]",
          "name": "accounts",
          "type": "address[]"
        },
        {
          "internalType": "uint256[]",
          "name": "ids",
          "type": "uint256[]"
        }
      ],
      "name": "balanceOfBatch",
      "outputs": [
        {
          "internalType": "uint256[]",
          "name": "",
          "type": "uint256[]"
        }
      ],
      "stateMutability": "view",
      "type": "function"
    },
    {
      "inputs": [
        {
          "internalType": "address",
          "name": "_address",
          "type": "address"
        }
      ],
      "name": "burnNFT",
      "outputs": [],
      "stateMutability": "nonpayable",
      "type": "function"
    },
    {
      "inputs": [
        {
          "internalType": "address",
          "name": "account",
          "type": "address"
        },
        {
          "internalType": "address",
          "name": "operator",
          "type": "address"
        }
      ],
      "name": "isApprovedForAll",
      "outputs": [
        {
          "internalType": "bool",
          "name": "",
          "type": "bool"
        }
      ],
      "stateMutability": "view",
      "type": "function"
    },
    {
      "inputs": [
        {
          "internalType": "uint256",
          "name": "",
          "type": "uint256"
        }
      ],
      "name": "people",
      "outputs": [
        {
          "internalType": "address",
          "name": "",
          "type": "address"
        }
      ],
      "stateMutability": "view",
      "type": "function"
    },
    {
      "inputs": [
        {
          "internalType": "address",
          "name": "from",
          "type": "address"
        },
        {
          "internalType": "address",
          "name": "to",
          "type": "address"
        },
        {
          "internalType": "uint256[]",
          "name": "ids",
          "type": "uint256[]"
        },
        {
          "internalType": "uint256[]",
          "name": "amounts",
          "type": "uint256[]"
        },
        {
          "internalType": "bytes",
          "name": "data",
          "type": "bytes"
        }
      ],
      "name": "safeBatchTransferFrom",
      "outputs": [],
      "stateMutability": "nonpayable",
      "type": "function"
    },
    {
      "inputs": [
        {
          "internalType": "address",
          "name": "from",
          "type": "address"
        },
        {
          "internalType": "address",
          "name": "to",
          "type": "address"
        },
        {
          "internalType": "uint256",
          "name": "id",
          "type": "uint256"
        },
        {
          "internalType": "uint256",
          "name": "amount",
          "type": "uint256"
        },
        {
          "internalType": "bytes",
          "name": "data",
          "type": "bytes"
        }
      ],
      "name": "safeTransferFrom",
      "outputs": [],
      "stateMutability": "nonpayable",
      "type": "function"
    },
    {
      "inputs": [
        {
          "internalType": "address",
          "name": "operator",
          "type": "address"
        },
        {
          "internalType": "bool",
          "name": "approved",
          "type": "bool"
        }
      ],
      "name": "setApprovalForAll",
      "outputs": [],
      "stateMutability": "nonpayable",
      "type": "function"
    },
    {
      "inputs": [
        {
          "internalType": "bytes4",
          "name": "interfaceId",
          "type": "bytes4"
        }
      ],
      "name": "supportsInterface",
      "outputs": [
        {
          "internalType": "bool",
          "name": "",
          "type": "bool"
        }
      ],
      "stateMutability": "view",
      "type": "function"
    },
    {
      "inputs": [
        {
          "internalType": "uint256",
          "name": "",
          "type": "uint256"
        }
      ],
      "name": "uri",
      "outputs": [
        {
          "internalType": "string",
          "name": "",
          "type": "string"
        }
      ],
      "stateMutability": "view",
      "type": "function"
    }
  ],
  "bytecode": "0x60806040523480156200001157600080fd5b5060405162003d5c38038062003d5c83398181016040528101906200003791906200094e565b8162000049816200011260201b60201c565b5080600360006101000a81548173ffffffffffffffffffffffffffffffffffffffff021916908373ffffffffffffffffffffffffffffffffffffffff1602179055508260049080519060200190620000a3929190620005c3565b5060005b83518110156200010857620000f2848281518110620000cb57620000ca620009e8565b5b6020026020010151600180604051806020016040528060008152506200012760201b60201c565b8080620000ff9062000a50565b915050620000a7565b50505050620012cc565b806002908162000123919062000cde565b5050565b600073ffffffffffffffffffffffffffffffffffffffff168473ffffffffffffffffffffffffffffffffffffffff160362000199576040517f08c379a0000000000000000000000000000000000000000000000000000000008152600401620001909062000e4c565b60405180910390fd5b6000620001ab6200030e60201b60201c565b90506000620001c0856200031660201b60201c565b90506000620001d5856200031660201b60201c565b9050620001ee836000898585896200039760201b60201c565b8460008088815260200190815260200160002060008973ffffffffffffffffffffffffffffffffffffffff1673ffffffffffffffffffffffffffffffffffffffff16815260200190815260200160002060008282546200024f919062000e6e565b925050819055508673ffffffffffffffffffffffffffffffffffffffff16600073ffffffffffffffffffffffffffffffffffffffff168473ffffffffffffffffffffffffffffffffffffffff167fc3d58168c5ae7397731d063d5bbf3d657854427343f4c083240f7aacaa2d0f628989604051620002cf92919062000edc565b60405180910390a4620002ee836000898585896200039f60201b60201c565b6200030583600089898989620003a760201b60201c565b50505050505050565b600033905090565b60606000600167ffffffffffffffff8111156200033857620003376200069b565b5b604051908082528060200260200182016040528015620003675781602001602082028036833780820191505090505b5090508281600081518110620003825762000381620009e8565b5b60200260200101818152505080915050919050565b505050505050565b505050505050565b620003d38473ffffffffffffffffffffffffffffffffffffffff16620005a060201b620008531760201c565b1562000598578373ffffffffffffffffffffffffffffffffffffffff1663f23a6e6187878686866040518663ffffffff1660e01b81526004016200041c95949392919062000f77565b6020604051808303816000875af19250505080156200045b57506040513d601f19601f8201168201806040525081019062000458919062001038565b60015b6200050c576200046a62001077565b806308c379a003620004cd5750620004816200109c565b806200048e5750620004cf565b806040517f08c379a0000000000000000000000000000000000000000000000000000000008152600401620004c4919062001178565b60405180910390fd5b505b6040517f08c379a0000000000000000000000000000000000000000000000000000000008152600401620005039062001212565b60405180910390fd5b63f23a6e6160e01b7bffffffffffffffffffffffffffffffffffffffffffffffffffffffff1916817bffffffffffffffffffffffffffffffffffffffffffffffffffffffff19161462000596576040517f08c379a00000000000000000000000000000000000000000000000000000000081526004016200058d90620012aa565b60405180910390fd5b505b505050505050565b6000808273ffffffffffffffffffffffffffffffffffffffff163b119050919050565b8280548282559060005260206000209081019282156200063f579160200282015b828111156200063e5782518260006101000a81548173ffffffffffffffffffffffffffffffffffffffff021916908373ffffffffffffffffffffffffffffffffffffffff16021790555091602001919060010190620005e4565b5b5090506200064e919062000652565b5090565b5b808211156200066d57600081600090555060010162000653565b5090565b6000604051905090565b600080fd5b600080fd5b600080fd5b6000601f19601f8301169050919050565b7f4e487b7100000000000000000000000000000000000000000000000000000000600052604160045260246000fd5b620006d5826200068a565b810181811067ffffffffffffffff82111715620006f757620006f66200069b565b5b80604052505050565b60006200070c62000671565b90506200071a8282620006ca565b919050565b600067ffffffffffffffff8211156200073d576200073c6200069b565b5b602082029050602081019050919050565b600080fd5b600073ffffffffffffffffffffffffffffffffffffffff82169050919050565b6000620007808262000753565b9050919050565b620007928162000773565b81146200079e57600080fd5b50565b600081519050620007b28162000787565b92915050565b6000620007cf620007c9846200071f565b62000700565b90508083825260208201905060208402830185811115620007f557620007f46200074e565b5b835b818110156200082257806200080d8882620007a1565b845260208401935050602081019050620007f7565b5050509392505050565b600082601f83011262000844576200084362000685565b5b815162000856848260208601620007b8565b91505092915050565b600080fd5b600067ffffffffffffffff8211156200088257620008816200069b565b5b6200088d826200068a565b9050602081019050919050565b60005b83811015620008ba5780820151818401526020810190506200089d565b83811115620008ca576000848401525b50505050565b6000620008e7620008e18462000864565b62000700565b9050828152602081018484840111156200090657620009056200085f565b5b620009138482856200089a565b509392505050565b600082601f83011262000933576200093262000685565b5b815162000945848260208601620008d0565b91505092915050565b6000806000606084860312156200096a57620009696200067b565b5b600084015167ffffffffffffffff8111156200098b576200098a62000680565b5b62000999868287016200082c565b935050602084015167ffffffffffffffff811115620009bd57620009bc62000680565b5b620009cb868287016200091b565b9250506040620009de86828701620007a1565b9150509250925092565b7f4e487b7100000000000000000000000000000000000000000000000000000000600052603260045260246000fd5b7f4e487b7100000000000000000000000000000000000000000000000000000000600052601160045260246000fd5b6000819050919050565b600062000a5d8262000a46565b91507fffffffffffffffffffffffffffffffffffffffffffffffffffffffffffffffff820362000a925762000a9162000a17565b5b600182019050919050565b600081519050919050565b7f4e487b7100000000000000000000000000000000000000000000000000000000600052602260045260246000fd5b6000600282049050600182168062000af057607f821691505b60208210810362000b065762000b0562000aa8565b5b50919050565b60008190508160005260206000209050919050565b60006020601f8301049050919050565b600082821b905092915050565b60006008830262000b707fffffffffffffffffffffffffffffffffffffffffffffffffffffffffffffffff8262000b31565b62000b7c868362000b31565b95508019841693508086168417925050509392505050565b6000819050919050565b600062000bbf62000bb962000bb38462000a46565b62000b94565b62000a46565b9050919050565b6000819050919050565b62000bdb8362000b9e565b62000bf362000bea8262000bc6565b84845462000b3e565b825550505050565b600090565b62000c0a62000bfb565b62000c1781848462000bd0565b505050565b5b8181101562000c3f5762000c3360008262000c00565b60018101905062000c1d565b5050565b601f82111562000c8e5762000c588162000b0c565b62000c638462000b21565b8101602085101562000c73578190505b62000c8b62000c828562000b21565b83018262000c1c565b50505b505050565b600082821c905092915050565b600062000cb36000198460080262000c93565b1980831691505092915050565b600062000cce838362000ca0565b9150826002028217905092915050565b62000ce98262000a9d565b67ffffffffffffffff81111562000d055762000d046200069b565b5b62000d11825462000ad7565b62000d1e82828562000c43565b600060209050601f83116001811462000d56576000841562000d41578287015190505b62000d4d858262000cc0565b86555062000dbd565b601f19841662000d668662000b0c565b60005b8281101562000d905784890151825560018201915060208501945060208101905062000d69565b8683101562000db0578489015162000dac601f89168262000ca0565b8355505b6001600288020188555050505b505050505050565b600082825260208201905092915050565b7f455243313135353a206d696e7420746f20746865207a65726f2061646472657360008201527f7300000000000000000000000000000000000000000000000000000000000000602082015250565b600062000e3460218362000dc5565b915062000e418262000dd6565b604082019050919050565b6000602082019050818103600083015262000e678162000e25565b9050919050565b600062000e7b8262000a46565b915062000e888362000a46565b9250827fffffffffffffffffffffffffffffffffffffffffffffffffffffffffffffffff0382111562000ec05762000ebf62000a17565b5b828201905092915050565b62000ed68162000a46565b82525050565b600060408201905062000ef3600083018562000ecb565b62000f02602083018462000ecb565b9392505050565b62000f148162000773565b82525050565b600081519050919050565b600082825260208201905092915050565b600062000f438262000f1a565b62000f4f818562000f25565b935062000f618185602086016200089a565b62000f6c816200068a565b840191505092915050565b600060a08201905062000f8e600083018862000f09565b62000f9d602083018762000f09565b62000fac604083018662000ecb565b62000fbb606083018562000ecb565b818103608083015262000fcf818462000f36565b90509695505050505050565b60007fffffffff0000000000000000000000000000000000000000000000000000000082169050919050565b620010128162000fdb565b81146200101e57600080fd5b50565b600081519050620010328162001007565b92915050565b6000602082840312156200105157620010506200067b565b5b6000620010618482850162001021565b91505092915050565b60008160e01c9050919050565b600060033d1115620010995760046000803e620010966000516200106a565b90505b90565b600060443d106200113457620010b162000671565b60043d036004823e80513d602482011167ffffffffffffffff82111715620010db57505062001134565b808201805167ffffffffffffffff811115620010fb575050505062001134565b80602083010160043d0385018111156200111a57505050505062001134565b6200112b82602001850186620006ca565b82955050505050505b90565b6000620011448262000a9d565b62001150818562000dc5565b9350620011628185602086016200089a565b6200116d816200068a565b840191505092915050565b6000602082019050818103600083015262001194818462001137565b905092915050565b7f455243313135353a207472616e7366657220746f206e6f6e204552433131353560008201527f526563656976657220696d706c656d656e746572000000000000000000000000602082015250565b6000620011fa60348362000dc5565b915062001207826200119c565b604082019050919050565b600060208201905081810360008301526200122d81620011eb565b9050919050565b7f455243313135353a204552433131353552656365697665722072656a6563746560008201527f6420746f6b656e73000000000000000000000000000000000000000000000000602082015250565b60006200129260288362000dc5565b91506200129f8262001234565b604082019050919050565b60006020820190508181036000830152620012c58162001283565b9050919050565b612a8080620012dc6000396000f3fe608060405234801561001057600080fd5b506004361061009d5760003560e01c80639e7a13ad116100665780639e7a13ad1461017e578063a22cb465146101ae578063e985e9c5146101ca578063f242432a146101fa578063f83efec8146102165761009d565b8062fdd58e146100a257806301ffc9a7146100d25780630e89341c146101025780632eb2c2d6146101325780634e1273f41461014e575b600080fd5b6100bc60048036038101906100b79190611736565b610232565b6040516100c99190611785565b60405180910390f35b6100ec60048036038101906100e791906117f8565b6102fa565b6040516100f99190611840565b60405180910390f35b61011c6004803603810190610117919061185b565b6103dc565b6040516101299190611921565b60405180910390f35b61014c60048036038101906101479190611b40565b610470565b005b61016860048036038101906101639190611cd2565b610511565b6040516101759190611e08565b60405180910390f35b6101986004803603810190610193919061185b565b61062a565b6040516101a59190611e39565b60405180910390f35b6101c860048036038101906101c39190611e80565b610669565b005b6101e460048036038101906101df9190611ec0565b61067f565b6040516101f19190611840565b60405180910390f35b610214600480360381019061020f9190611f00565b610713565b005b610230600480360381019061022b9190611f97565b6107b4565b005b60008073ffffffffffffffffffffffffffffffffffffffff168373ffffffffffffffffffffffffffffffffffffffff16036102a2576040517f08c379a000000000000000000000000000000000000000000000000000000000815260040161029990612036565b60405180910390fd5b60008083815260200190815260200160002060008473ffffffffffffffffffffffffffffffffffffffff1673ffffffffffffffffffffffffffffffffffffffff16815260200190815260200160002054905092915050565b60007fd9b67a26000000000000000000000000000000000000000000000000000000007bffffffffffffffffffffffffffffffffffffffffffffffffffffffff1916827bffffffffffffffffffffffffffffffffffffffffffffffffffffffff191614806103c557507f0e89341c000000000000000000000000000000000000000000000000000000007bffffffffffffffffffffffffffffffffffffffffffffffffffffffff1916827bffffffffffffffffffffffffffffffffffffffffffffffffffffffff1916145b806103d557506103d482610876565b5b9050919050565b6060600280546103eb90612085565b80601f016020809104026020016040519081016040528092919081815260200182805461041790612085565b80156104645780601f1061043957610100808354040283529160200191610464565b820191906000526020600020905b81548152906001019060200180831161044757829003601f168201915b50505050509050919050565b6104786108e0565b73ffffffffffffffffffffffffffffffffffffffff168573ffffffffffffffffffffffffffffffffffffffff1614806104be57506104bd856104b86108e0565b61067f565b5b6104fd576040517f08c379a00000000000000000000000000000000000000000000000000000000081526004016104f490612128565b60405180910390fd5b61050a85858585856108e8565b5050505050565b60608151835114610557576040517f08c379a000000000000000000000000000000000000000000000000000000000815260040161054e906121ba565b60405180910390fd5b6000835167ffffffffffffffff81111561057457610573611948565b5b6040519080825280602002602001820160405280156105a25781602001602082028036833780820191505090505b50905060005b845181101561061f576105ef8582815181106105c7576105c66121da565b5b60200260200101518583815181106105e2576105e16121da565b5b6020026020010151610232565b828281518110610602576106016121da565b5b6020026020010181815250508061061890612238565b90506105a8565b508091505092915050565b6004818154811061063a57600080fd5b906000526020600020016000915054906101000a900473ffffffffffffffffffffffffffffffffffffffff1681565b61067b6106746108e0565b8383610c09565b5050565b6000600160008473ffffffffffffffffffffffffffffffffffffffff1673ffffffffffffffffffffffffffffffffffffffff16815260200190815260200160002060008373ffffffffffffffffffffffffffffffffffffffff1673ffffffffffffffffffffffffffffffffffffffff16815260200190815260200160002060009054906101000a900460ff16905092915050565b61071b6108e0565b73ffffffffffffffffffffffffffffffffffffffff168573ffffffffffffffffffffffffffffffffffffffff16148061076157506107608561075b6108e0565b61067f565b5b6107a0576040517f08c379a000000000000000000000000000000000000000000000000000000000815260040161079790612128565b60405180910390fd5b6107ad8585858585610d75565b5050505050565b600360009054906101000a900473ffffffffffffffffffffffffffffffffffffffff1673ffffffffffffffffffffffffffffffffffffffff163373ffffffffffffffffffffffffffffffffffffffff1614610844576040517f08c379a000000000000000000000000000000000000000000000000000000000815260040161083b906122cc565b60405180910390fd5b61085081600180611010565b50565b6000808273ffffffffffffffffffffffffffffffffffffffff163b119050919050565b60007f01ffc9a7000000000000000000000000000000000000000000000000000000007bffffffffffffffffffffffffffffffffffffffffffffffffffffffff1916827bffffffffffffffffffffffffffffffffffffffffffffffffffffffff1916149050919050565b600033905090565b815183511461092c576040517f08c379a00000000000000000000000000000000000000000000000000000000081526004016109239061235e565b60405180910390fd5b600073ffffffffffffffffffffffffffffffffffffffff168473ffffffffffffffffffffffffffffffffffffffff160361099b576040517f08c379a0000000000000000000000000000000000000000000000000000000008152600401610992906123f0565b60405180910390fd5b60006109a56108e0565b90506109b5818787878787611256565b60005b8451811015610b665760008582815181106109d6576109d56121da565b5b6020026020010151905060008583815181106109f5576109f46121da565b5b60200260200101519050600080600084815260200190815260200160002060008b73ffffffffffffffffffffffffffffffffffffffff1673ffffffffffffffffffffffffffffffffffffffff16815260200190815260200160002054905081811015610a96576040517f08c379a0000000000000000000000000000000000000000000000000000000008152600401610a8d90612482565b60405180910390fd5b81810360008085815260200190815260200160002060008c73ffffffffffffffffffffffffffffffffffffffff1673ffffffffffffffffffffffffffffffffffffffff168152602001908152602001600020819055508160008085815260200190815260200160002060008b73ffffffffffffffffffffffffffffffffffffffff1673ffffffffffffffffffffffffffffffffffffffff1681526020019081526020016000206000828254610b4b91906124a2565b9250508190555050505080610b5f90612238565b90506109b8565b508473ffffffffffffffffffffffffffffffffffffffff168673ffffffffffffffffffffffffffffffffffffffff168273ffffffffffffffffffffffffffffffffffffffff167f4a39dc06d4c0dbc64b70af90fd698a233a518aa5d07e595d983b8c0526c8f7fb8787604051610bdd9291906124f8565b60405180910390a4610bf381878787878761125e565b610c01818787878787611266565b505050505050565b8173ffffffffffffffffffffffffffffffffffffffff168373ffffffffffffffffffffffffffffffffffffffff1603610c77576040517f08c379a0000000000000000000000000000000000000000000000000000000008152600401610c6e906125a1565b60405180910390fd5b80600160008573ffffffffffffffffffffffffffffffffffffffff1673ffffffffffffffffffffffffffffffffffffffff16815260200190815260200160002060008473ffffffffffffffffffffffffffffffffffffffff1673ffffffffffffffffffffffffffffffffffffffff16815260200190815260200160002060006101000a81548160ff0219169083151502179055508173ffffffffffffffffffffffffffffffffffffffff168373ffffffffffffffffffffffffffffffffffffffff167f17307eab39ab6107e8899845ad3d59bd9653f200f220920489ca2b5937696c3183604051610d689190611840565b60405180910390a3505050565b600073ffffffffffffffffffffffffffffffffffffffff168473ffffffffffffffffffffffffffffffffffffffff1603610de4576040517f08c379a0000000000000000000000000000000000000000000000000000000008152600401610ddb906123f0565b60405180910390fd5b6000610dee6108e0565b90506000610dfb8561143d565b90506000610e088561143d565b9050610e18838989858589611256565b600080600088815260200190815260200160002060008a73ffffffffffffffffffffffffffffffffffffffff1673ffffffffffffffffffffffffffffffffffffffff16815260200190815260200160002054905085811015610eaf576040517f08c379a0000000000000000000000000000000000000000000000000000000008152600401610ea690612482565b60405180910390fd5b85810360008089815260200190815260200160002060008b73ffffffffffffffffffffffffffffffffffffffff1673ffffffffffffffffffffffffffffffffffffffff168152602001908152602001600020819055508560008089815260200190815260200160002060008a73ffffffffffffffffffffffffffffffffffffffff1673ffffffffffffffffffffffffffffffffffffffff1681526020019081526020016000206000828254610f6491906124a2565b925050819055508773ffffffffffffffffffffffffffffffffffffffff168973ffffffffffffffffffffffffffffffffffffffff168573ffffffffffffffffffffffffffffffffffffffff167fc3d58168c5ae7397731d063d5bbf3d657854427343f4c083240f7aacaa2d0f628a8a604051610fe19291906125c1565b60405180910390a4610ff7848a8a86868a61125e565b611005848a8a8a8a8a6114b7565b505050505050505050565b600073ffffffffffffffffffffffffffffffffffffffff168373ffffffffffffffffffffffffffffffffffffffff160361107f576040517f08c379a00000000000000000000000000000000000000000000000000000000081526004016110769061265c565b60405180910390fd5b60006110896108e0565b905060006110968461143d565b905060006110a38461143d565b90506110c383876000858560405180602001604052806000815250611256565b600080600087815260200190815260200160002060008873ffffffffffffffffffffffffffffffffffffffff1673ffffffffffffffffffffffffffffffffffffffff1681526020019081526020016000205490508481101561115a576040517f08c379a0000000000000000000000000000000000000000000000000000000008152600401611151906126ee565b60405180910390fd5b84810360008088815260200190815260200160002060008973ffffffffffffffffffffffffffffffffffffffff1673ffffffffffffffffffffffffffffffffffffffff16815260200190815260200160002081905550600073ffffffffffffffffffffffffffffffffffffffff168773ffffffffffffffffffffffffffffffffffffffff168573ffffffffffffffffffffffffffffffffffffffff167fc3d58168c5ae7397731d063d5bbf3d657854427343f4c083240f7aacaa2d0f6289896040516112279291906125c1565b60405180910390a461124d8488600086866040518060200160405280600081525061125e565b50505050505050565b505050505050565b505050505050565b6112858473ffffffffffffffffffffffffffffffffffffffff16610853565b15611435578373ffffffffffffffffffffffffffffffffffffffff1663bc197c8187878686866040518663ffffffff1660e01b81526004016112cb959493929190612763565b6020604051808303816000875af192505050801561130757506040513d601f19601f8201168201806040525081019061130491906127e0565b60015b6113ac5761131361281a565b806308c379a00361136f575061132761283c565b806113325750611371565b806040517f08c379a00000000000000000000000000000000000000000000000000000000081526004016113669190611921565b60405180910390fd5b505b6040517f08c379a00000000000000000000000000000000000000000000000000000000081526004016113a39061293e565b60405180910390fd5b63bc197c8160e01b7bffffffffffffffffffffffffffffffffffffffffffffffffffffffff1916817bffffffffffffffffffffffffffffffffffffffffffffffffffffffff191614611433576040517f08c379a000000000000000000000000000000000000000000000000000000000815260040161142a906129d0565b60405180910390fd5b505b505050505050565b60606000600167ffffffffffffffff81111561145c5761145b611948565b5b60405190808252806020026020018201604052801561148a5781602001602082028036833780820191505090505b50905082816000815181106114a2576114a16121da565b5b60200260200101818152505080915050919050565b6114d68473ffffffffffffffffffffffffffffffffffffffff16610853565b15611686578373ffffffffffffffffffffffffffffffffffffffff1663f23a6e6187878686866040518663ffffffff1660e01b815260040161151c9594939291906129f0565b6020604051808303816000875af192505050801561155857506040513d601f19601f8201168201806040525081019061155591906127e0565b60015b6115fd5761156461281a565b806308c379a0036115c0575061157861283c565b8061158357506115c2565b806040517f08c379a00000000000000000000000000000000000000000000000000000000081526004016115b79190611921565b60405180910390fd5b505b6040517f08c379a00000000000000000000000000000000000000000000000000000000081526004016115f49061293e565b60405180910390fd5b63f23a6e6160e01b7bffffffffffffffffffffffffffffffffffffffffffffffffffffffff1916817bffffffffffffffffffffffffffffffffffffffffffffffffffffffff191614611684576040517f08c379a000000000000000000000000000000000000000000000000000000000815260040161167b906129d0565b60405180910390fd5b505b505050505050565b6000604051905090565b600080fd5b600080fd5b600073ffffffffffffffffffffffffffffffffffffffff82169050919050565b60006116cd826116a2565b9050919050565b6116dd816116c2565b81146116e857600080fd5b50565b6000813590506116fa816116d4565b92915050565b6000819050919050565b61171381611700565b811461171e57600080fd5b50565b6000813590506117308161170a565b92915050565b6000806040838503121561174d5761174c611698565b5b600061175b858286016116eb565b925050602061176c85828601611721565b9150509250929050565b61177f81611700565b82525050565b600060208201905061179a6000830184611776565b92915050565b60007fffffffff0000000000000000000000000000000000000000000000000000000082169050919050565b6117d5816117a0565b81146117e057600080fd5b50565b6000813590506117f2816117cc565b92915050565b60006020828403121561180e5761180d611698565b5b600061181c848285016117e3565b91505092915050565b60008115159050919050565b61183a81611825565b82525050565b60006020820190506118556000830184611831565b92915050565b60006020828403121561187157611870611698565b5b600061187f84828501611721565b91505092915050565b600081519050919050565b600082825260208201905092915050565b60005b838110156118c25780820151818401526020810190506118a7565b838111156118d1576000848401525b50505050565b6000601f19601f8301169050919050565b60006118f382611888565b6118fd8185611893565b935061190d8185602086016118a4565b611916816118d7565b840191505092915050565b6000602082019050818103600083015261193b81846118e8565b905092915050565b600080fd5b7f4e487b7100000000000000000000000000000000000000000000000000000000600052604160045260246000fd5b611980826118d7565b810181811067ffffffffffffffff8211171561199f5761199e611948565b5b80604052505050565b60006119b261168e565b90506119be8282611977565b919050565b600067ffffffffffffffff8211156119de576119dd611948565b5b602082029050602081019050919050565b600080fd5b6000611a07611a02846119c3565b6119a8565b90508083825260208201905060208402830185811115611a2a57611a296119ef565b5b835b81811015611a535780611a3f8882611721565b845260208401935050602081019050611a2c565b5050509392505050565b600082601f830112611a7257611a71611943565b5b8135611a828482602086016119f4565b91505092915050565b600080fd5b600067ffffffffffffffff821115611aab57611aaa611948565b5b611ab4826118d7565b9050602081019050919050565b82818337600083830152505050565b6000611ae3611ade84611a90565b6119a8565b905082815260208101848484011115611aff57611afe611a8b565b5b611b0a848285611ac1565b509392505050565b600082601f830112611b2757611b26611943565b5b8135611b37848260208601611ad0565b91505092915050565b600080600080600060a08688031215611b5c57611b5b611698565b5b6000611b6a888289016116eb565b9550506020611b7b888289016116eb565b945050604086013567ffffffffffffffff811115611b9c57611b9b61169d565b5b611ba888828901611a5d565b935050606086013567ffffffffffffffff811115611bc957611bc861169d565b5b611bd588828901611a5d565b925050608086013567ffffffffffffffff811115611bf657611bf561169d565b5b611c0288828901611b12565b9150509295509295909350565b600067ffffffffffffffff821115611c2a57611c29611948565b5b602082029050602081019050919050565b6000611c4e611c4984611c0f565b6119a8565b90508083825260208201905060208402830185811115611c7157611c706119ef565b5b835b81811015611c9a5780611c8688826116eb565b845260208401935050602081019050611c73565b5050509392505050565b600082601f830112611cb957611cb8611943565b5b8135611cc9848260208601611c3b565b91505092915050565b60008060408385031215611ce957611ce8611698565b5b600083013567ffffffffffffffff811115611d0757611d0661169d565b5b611d1385828601611ca4565b925050602083013567ffffffffffffffff811115611d3457611d3361169d565b5b611d4085828601611a5d565b9150509250929050565b600081519050919050565b600082825260208201905092915050565b6000819050602082019050919050565b611d7f81611700565b82525050565b6000611d918383611d76565b60208301905092915050565b6000602082019050919050565b6000611db582611d4a565b611dbf8185611d55565b9350611dca83611d66565b8060005b83811015611dfb578151611de28882611d85565b9750611ded83611d9d565b925050600181019050611dce565b5085935050505092915050565b60006020820190508181036000830152611e228184611daa565b905092915050565b611e33816116c2565b82525050565b6000602082019050611e4e6000830184611e2a565b92915050565b611e5d81611825565b8114611e6857600080fd5b50565b600081359050611e7a81611e54565b92915050565b60008060408385031215611e9757611e96611698565b5b6000611ea5858286016116eb565b9250506020611eb685828601611e6b565b9150509250929050565b60008060408385031215611ed757611ed6611698565b5b6000611ee5858286016116eb565b9250506020611ef6858286016116eb565b9150509250929050565b600080600080600060a08688031215611f1c57611f1b611698565b5b6000611f2a888289016116eb565b9550506020611f3b888289016116eb565b9450506040611f4c88828901611721565b9350506060611f5d88828901611721565b925050608086013567ffffffffffffffff811115611f7e57611f7d61169d565b5b611f8a88828901611b12565b9150509295509295909350565b600060208284031215611fad57611fac611698565b5b6000611fbb848285016116eb565b91505092915050565b7f455243313135353a2061646472657373207a65726f206973206e6f742061207660008201527f616c6964206f776e657200000000000000000000000000000000000000000000602082015250565b6000612020602a83611893565b915061202b82611fc4565b604082019050919050565b6000602082019050818103600083015261204f81612013565b9050919050565b7f4e487b7100000000000000000000000000000000000000000000000000000000600052602260045260246000fd5b6000600282049050600182168061209d57607f821691505b6020821081036120b0576120af612056565b5b50919050565b7f455243313135353a2063616c6c6572206973206e6f7420746f6b656e206f776e60008201527f6572206e6f7220617070726f7665640000000000000000000000000000000000602082015250565b6000612112602f83611893565b915061211d826120b6565b604082019050919050565b6000602082019050818103600083015261214181612105565b9050919050565b7f455243313135353a206163636f756e747320616e6420696473206c656e67746860008201527f206d69736d617463680000000000000000000000000000000000000000000000602082015250565b60006121a4602983611893565b91506121af82612148565b604082019050919050565b600060208201905081810360008301526121d381612197565b9050919050565b7f4e487b7100000000000000000000000000000000000000000000000000000000600052603260045260246000fd5b7f4e487b7100000000000000000000000000000000000000000000000000000000600052601160045260246000fd5b600061224382611700565b91507fffffffffffffffffffffffffffffffffffffffffffffffffffffffffffffffff820361227557612274612209565b5b600182019050919050565b7f6e6f74206f776e65720000000000000000000000000000000000000000000000600082015250565b60006122b6600983611893565b91506122c182612280565b602082019050919050565b600060208201905081810360008301526122e5816122a9565b9050919050565b7f455243313135353a2069647320616e6420616d6f756e7473206c656e6774682060008201527f6d69736d61746368000000000000000000000000000000000000000000000000602082015250565b6000612348602883611893565b9150612353826122ec565b604082019050919050565b600060208201905081810360008301526123778161233b565b9050919050565b7f455243313135353a207472616e7366657220746f20746865207a65726f20616460008201527f6472657373000000000000000000000000000000000000000000000000000000602082015250565b60006123da602583611893565b91506123e58261237e565b604082019050919050565b60006020820190508181036000830152612409816123cd565b9050919050565b7f455243313135353a20696e73756666696369656e742062616c616e636520666f60008201527f72207472616e7366657200000000000000000000000000000000000000000000602082015250565b600061246c602a83611893565b915061247782612410565b604082019050919050565b6000602082019050818103600083015261249b8161245f565b9050919050565b60006124ad82611700565b91506124b883611700565b9250827fffffffffffffffffffffffffffffffffffffffffffffffffffffffffffffffff038211156124ed576124ec612209565b5b828201905092915050565b600060408201905081810360008301526125128185611daa565b905081810360208301526125268184611daa565b90509392505050565b7f455243313135353a2073657474696e6720617070726f76616c2073746174757360008201527f20666f722073656c660000000000000000000000000000000000000000000000602082015250565b600061258b602983611893565b91506125968261252f565b604082019050919050565b600060208201905081810360008301526125ba8161257e565b9050919050565b60006040820190506125d66000830185611776565b6125e36020830184611776565b9392505050565b7f455243313135353a206275726e2066726f6d20746865207a65726f206164647260008201527f6573730000000000000000000000000000000000000000000000000000000000602082015250565b6000612646602383611893565b9150612651826125ea565b604082019050919050565b6000602082019050818103600083015261267581612639565b9050919050565b7f455243313135353a206275726e20616d6f756e7420657863656564732062616c60008201527f616e636500000000000000000000000000000000000000000000000000000000602082015250565b60006126d8602483611893565b91506126e38261267c565b604082019050919050565b60006020820190508181036000830152612707816126cb565b9050919050565b600081519050919050565b600082825260208201905092915050565b60006127358261270e565b61273f8185612719565b935061274f8185602086016118a4565b612758816118d7565b840191505092915050565b600060a0820190506127786000830188611e2a565b6127856020830187611e2a565b81810360408301526127978186611daa565b905081810360608301526127ab8185611daa565b905081810360808301526127bf818461272a565b90509695505050505050565b6000815190506127da816117cc565b92915050565b6000602082840312156127f6576127f5611698565b5b6000612804848285016127cb565b91505092915050565b60008160e01c9050919050565b600060033d11156128395760046000803e61283660005161280d565b90505b90565b600060443d106128c95761284e61168e565b60043d036004823e80513d602482011167ffffffffffffffff821117156128765750506128c9565b808201805167ffffffffffffffff81111561289457505050506128c9565b80602083010160043d0385018111156128b15750505050506128c9565b6128c082602001850186611977565b82955050505050505b90565b7f455243313135353a207472616e7366657220746f206e6f6e204552433131353560008201527f526563656976657220696d706c656d656e746572000000000000000000000000602082015250565b6000612928603483611893565b9150612933826128cc565b604082019050919050565b600060208201905081810360008301526129578161291b565b9050919050565b7f455243313135353a204552433131353552656365697665722072656a6563746560008201527f6420746f6b656e73000000000000000000000000000000000000000000000000602082015250565b60006129ba602883611893565b91506129c58261295e565b604082019050919050565b600060208201905081810360008301526129e9816129ad565b9050919050565b600060a082019050612a056000830188611e2a565b612a126020830187611e2a565b612a1f6040830186611776565b612a2c6060830185611776565b8181036080830152612a3e818461272a565b9050969550505050505056fea26469706673582212207c8648f6fb50a96ea3b779f16e11c56ed9c934f0c7b627503da7d9356c47c3a964736f6c634300080f0033",
  "linkReferences": {},
  "deployedLinkReferences": {}
}