{
  "_format": "hh-sol-artifact-1",
  "contractName": "Lecture",
  "sourceName": "ethereum/contracts/Lecture.sol",
  "abi": [
    {
      "inputs": [
        {
          "internalType": "address[]",
          "name": "_arrayUsers",
          "type": "address[]"
        },
        {
          "internalType": "string",
          "name": "_ipfsLink",
          "type": "string"
        }
      ],
      "stateMutability": "nonpayable",
      "type": "constructor"
    },
    {
      "anonymous": false,
      "inputs": [
        {
          "indexed": true,
          "internalType": "address",
          "name": "account",
          "type": "address"
        },
        {
          "indexed": true,
          "internalType": "address",
          "name": "operator",
          "type": "address"
        },
        {
          "indexed": false,
          "internalType": "bool",
          "name": "approved",
          "type": "bool"
        }
      ],
      "name": "ApprovalForAll",
      "type": "event"
    },
    {
      "anonymous": false,
      "inputs": [
        {
          "indexed": true,
          "internalType": "address",
          "name": "operator",
          "type": "address"
        },
        {
          "indexed": true,
          "internalType": "address",
          "name": "from",
          "type": "address"
        },
        {
          "indexed": true,
          "internalType": "address",
          "name": "to",
          "type": "address"
        },
        {
          "indexed": false,
          "internalType": "uint256[]",
          "name": "ids",
          "type": "uint256[]"
        },
        {
          "indexed": false,
          "internalType": "uint256[]",
          "name": "values",
          "type": "uint256[]"
        }
      ],
      "name": "TransferBatch",
      "type": "event"
    },
    {
      "anonymous": false,
      "inputs": [
        {
          "indexed": true,
          "internalType": "address",
          "name": "operator",
          "type": "address"
        },
        {
          "indexed": true,
          "internalType": "address",
          "name": "from",
          "type": "address"
        },
        {
          "indexed": true,
          "internalType": "address",
          "name": "to",
          "type": "address"
        },
        {
          "indexed": false,
          "internalType": "uint256",
          "name": "id",
          "type": "uint256"
        },
        {
          "indexed": false,
          "internalType": "uint256",
          "name": "value",
          "type": "uint256"
        }
      ],
      "name": "TransferSingle",
      "type": "event"
    },
    {
      "anonymous": false,
      "inputs": [
        {
          "indexed": false,
          "internalType": "string",
          "name": "value",
          "type": "string"
        },
        {
          "indexed": true,
          "internalType": "uint256",
          "name": "id",
          "type": "uint256"
        }
      ],
      "name": "URI",
      "type": "event"
    },
    {
      "inputs": [
        {
          "internalType": "address",
          "name": "account",
          "type": "address"
        },
        {
          "internalType": "uint256",
          "name": "id",
          "type": "uint256"
        }
      ],
      "name": "balanceOf",
      "outputs": [
        {
          "internalType": "uint256",
          "name": "",
          "type": "uint256"
        }
      ],
      "stateMutability": "view",
      "type": "function"
    },
    {
      "inputs": [
        {
          "internalType": "address[]",
          "name": "accounts",
          "type": "address[]"
        },
        {
          "internalType": "uint256[]",
          "name": "ids",
          "type": "uint256[]"
        }
      ],
      "name": "balanceOfBatch",
      "outputs": [
        {
          "internalType": "uint256[]",
          "name": "",
          "type": "uint256[]"
        }
      ],
      "stateMutability": "view",
      "type": "function"
    },
    {
      "inputs": [
        {
          "internalType": "address",
          "name": "_address",
          "type": "address"
        }
      ],
      "name": "burnNFT",
      "outputs": [],
      "stateMutability": "nonpayable",
      "type": "function"
    },
    {
      "inputs": [
        {
          "internalType": "address",
          "name": "account",
          "type": "address"
        },
        {
          "internalType": "address",
          "name": "operator",
          "type": "address"
        }
      ],
      "name": "isApprovedForAll",
      "outputs": [
        {
          "internalType": "bool",
          "name": "",
          "type": "bool"
        }
      ],
      "stateMutability": "view",
      "type": "function"
    },
    {
      "inputs": [
        {
          "internalType": "uint256",
          "name": "",
          "type": "uint256"
        }
      ],
      "name": "people",
      "outputs": [
        {
          "internalType": "address",
          "name": "",
          "type": "address"
        }
      ],
      "stateMutability": "view",
      "type": "function"
    },
    {
      "inputs": [
        {
          "internalType": "address",
          "name": "from",
          "type": "address"
        },
        {
          "internalType": "address",
          "name": "to",
          "type": "address"
        },
        {
          "internalType": "uint256[]",
          "name": "ids",
          "type": "uint256[]"
        },
        {
          "internalType": "uint256[]",
          "name": "amounts",
          "type": "uint256[]"
        },
        {
          "internalType": "bytes",
          "name": "data",
          "type": "bytes"
        }
      ],
      "name": "safeBatchTransferFrom",
      "outputs": [],
      "stateMutability": "nonpayable",
      "type": "function"
    },
    {
      "inputs": [
        {
          "internalType": "address",
          "name": "from",
          "type": "address"
        },
        {
          "internalType": "address",
          "name": "to",
          "type": "address"
        },
        {
          "internalType": "uint256",
          "name": "id",
          "type": "uint256"
        },
        {
          "internalType": "uint256",
          "name": "amount",
          "type": "uint256"
        },
        {
          "internalType": "bytes",
          "name": "data",
          "type": "bytes"
        }
      ],
      "name": "safeTransferFrom",
      "outputs": [],
      "stateMutability": "nonpayable",
      "type": "function"
    },
    {
      "inputs": [
        {
          "internalType": "address",
          "name": "operator",
          "type": "address"
        },
        {
          "internalType": "bool",
          "name": "approved",
          "type": "bool"
        }
      ],
      "name": "setApprovalForAll",
      "outputs": [],
      "stateMutability": "nonpayable",
      "type": "function"
    },
    {
      "inputs": [
        {
          "internalType": "bytes4",
          "name": "interfaceId",
          "type": "bytes4"
        }
      ],
      "name": "supportsInterface",
      "outputs": [
        {
          "internalType": "bool",
          "name": "",
          "type": "bool"
        }
      ],
      "stateMutability": "view",
      "type": "function"
    },
    {
      "inputs": [
        {
          "internalType": "uint256",
          "name": "",
          "type": "uint256"
        }
      ],
      "name": "uri",
      "outputs": [
        {
          "internalType": "string",
          "name": "",
          "type": "string"
        }
      ],
      "stateMutability": "view",
      "type": "function"
    }
  ],
  "bytecode": "0x60806040523480156200001157600080fd5b5060405162003ca338038062003ca383398181016040528101906200003791906200094c565b8062000049816200011060201b60201c565b5033600360006101000a81548173ffffffffffffffffffffffffffffffffffffffff021916908373ffffffffffffffffffffffffffffffffffffffff1602179055508160049080519060200190620000a3929190620005c1565b5060005b825181106200010757620000f1838281518110620000ca57620000c9620009d1565b5b6020026020010151600180604051806020016040528060008152506200012560201b60201c565b8080620000fe9062000a39565b915050620000a7565b505050620012b5565b806002908162000121919062000cc7565b5050565b600073ffffffffffffffffffffffffffffffffffffffff168473ffffffffffffffffffffffffffffffffffffffff160362000197576040517f08c379a00000000000000000000000000000000000000000000000000000000081526004016200018e9062000e35565b60405180910390fd5b6000620001a96200030c60201b60201c565b90506000620001be856200031460201b60201c565b90506000620001d3856200031460201b60201c565b9050620001ec836000898585896200039560201b60201c565b8460008088815260200190815260200160002060008973ffffffffffffffffffffffffffffffffffffffff1673ffffffffffffffffffffffffffffffffffffffff16815260200190815260200160002060008282546200024d919062000e57565b925050819055508673ffffffffffffffffffffffffffffffffffffffff16600073ffffffffffffffffffffffffffffffffffffffff168473ffffffffffffffffffffffffffffffffffffffff167fc3d58168c5ae7397731d063d5bbf3d657854427343f4c083240f7aacaa2d0f628989604051620002cd92919062000ec5565b60405180910390a4620002ec836000898585896200039d60201b60201c565b6200030383600089898989620003a560201b60201c565b50505050505050565b600033905090565b60606000600167ffffffffffffffff81111562000336576200033562000699565b5b604051908082528060200260200182016040528015620003655781602001602082028036833780820191505090505b509050828160008151811062000380576200037f620009d1565b5b60200260200101818152505080915050919050565b505050505050565b505050505050565b620003d18473ffffffffffffffffffffffffffffffffffffffff166200059e60201b6200081d1760201c565b1562000596578373ffffffffffffffffffffffffffffffffffffffff1663f23a6e6187878686866040518663ffffffff1660e01b81526004016200041a95949392919062000f60565b6020604051808303816000875af19250505080156200045957506040513d601f19601f8201168201806040525081019062000456919062001021565b60015b6200050a576200046862001060565b806308c379a003620004cb57506200047f62001085565b806200048c5750620004cd565b806040517f08c379a0000000000000000000000000000000000000000000000000000000008152600401620004c2919062001161565b60405180910390fd5b505b6040517f08c379a00000000000000000000000000000000000000000000000000000000081526004016200050190620011fb565b60405180910390fd5b63f23a6e6160e01b7bffffffffffffffffffffffffffffffffffffffffffffffffffffffff1916817bffffffffffffffffffffffffffffffffffffffffffffffffffffffff19161462000594576040517f08c379a00000000000000000000000000000000000000000000000000000000081526004016200058b9062001293565b60405180910390fd5b505b505050505050565b6000808273ffffffffffffffffffffffffffffffffffffffff163b119050919050565b8280548282559060005260206000209081019282156200063d579160200282015b828111156200063c5782518260006101000a81548173ffffffffffffffffffffffffffffffffffffffff021916908373ffffffffffffffffffffffffffffffffffffffff16021790555091602001919060010190620005e2565b5b5090506200064c919062000650565b5090565b5b808211156200066b57600081600090555060010162000651565b5090565b6000604051905090565b600080fd5b600080fd5b600080fd5b6000601f19601f8301169050919050565b7f4e487b7100000000000000000000000000000000000000000000000000000000600052604160045260246000fd5b620006d38262000688565b810181811067ffffffffffffffff82111715620006f557620006f462000699565b5b80604052505050565b60006200070a6200066f565b9050620007188282620006c8565b919050565b600067ffffffffffffffff8211156200073b576200073a62000699565b5b602082029050602081019050919050565b600080fd5b600073ffffffffffffffffffffffffffffffffffffffff82169050919050565b60006200077e8262000751565b9050919050565b620007908162000771565b81146200079c57600080fd5b50565b600081519050620007b08162000785565b92915050565b6000620007cd620007c7846200071d565b620006fe565b90508083825260208201905060208402830185811115620007f357620007f26200074c565b5b835b818110156200082057806200080b88826200079f565b845260208401935050602081019050620007f5565b5050509392505050565b600082601f83011262000842576200084162000683565b5b815162000854848260208601620007b6565b91505092915050565b600080fd5b600067ffffffffffffffff82111562000880576200087f62000699565b5b6200088b8262000688565b9050602081019050919050565b60005b83811015620008b85780820151818401526020810190506200089b565b83811115620008c8576000848401525b50505050565b6000620008e5620008df8462000862565b620006fe565b9050828152602081018484840111156200090457620009036200085d565b5b6200091184828562000898565b509392505050565b600082601f83011262000931576200093062000683565b5b815162000943848260208601620008ce565b91505092915050565b6000806040838503121562000966576200096562000679565b5b600083015167ffffffffffffffff8111156200098757620009866200067e565b5b62000995858286016200082a565b925050602083015167ffffffffffffffff811115620009b957620009b86200067e565b5b620009c78582860162000919565b9150509250929050565b7f4e487b7100000000000000000000000000000000000000000000000000000000600052603260045260246000fd5b7f4e487b7100000000000000000000000000000000000000000000000000000000600052601160045260246000fd5b6000819050919050565b600062000a468262000a2f565b91507fffffffffffffffffffffffffffffffffffffffffffffffffffffffffffffffff820362000a7b5762000a7a62000a00565b5b600182019050919050565b600081519050919050565b7f4e487b7100000000000000000000000000000000000000000000000000000000600052602260045260246000fd5b6000600282049050600182168062000ad957607f821691505b60208210810362000aef5762000aee62000a91565b5b50919050565b60008190508160005260206000209050919050565b60006020601f8301049050919050565b600082821b905092915050565b60006008830262000b597fffffffffffffffffffffffffffffffffffffffffffffffffffffffffffffffff8262000b1a565b62000b65868362000b1a565b95508019841693508086168417925050509392505050565b6000819050919050565b600062000ba862000ba262000b9c8462000a2f565b62000b7d565b62000a2f565b9050919050565b6000819050919050565b62000bc48362000b87565b62000bdc62000bd38262000baf565b84845462000b27565b825550505050565b600090565b62000bf362000be4565b62000c0081848462000bb9565b505050565b5b8181101562000c285762000c1c60008262000be9565b60018101905062000c06565b5050565b601f82111562000c775762000c418162000af5565b62000c4c8462000b0a565b8101602085101562000c5c578190505b62000c7462000c6b8562000b0a565b83018262000c05565b50505b505050565b600082821c905092915050565b600062000c9c6000198460080262000c7c565b1980831691505092915050565b600062000cb7838362000c89565b9150826002028217905092915050565b62000cd28262000a86565b67ffffffffffffffff81111562000cee5762000ced62000699565b5b62000cfa825462000ac0565b62000d0782828562000c2c565b600060209050601f83116001811462000d3f576000841562000d2a578287015190505b62000d36858262000ca9565b86555062000da6565b601f19841662000d4f8662000af5565b60005b8281101562000d795784890151825560018201915060208501945060208101905062000d52565b8683101562000d99578489015162000d95601f89168262000c89565b8355505b6001600288020188555050505b505050505050565b600082825260208201905092915050565b7f455243313135353a206d696e7420746f20746865207a65726f2061646472657360008201527f7300000000000000000000000000000000000000000000000000000000000000602082015250565b600062000e1d60218362000dae565b915062000e2a8262000dbf565b604082019050919050565b6000602082019050818103600083015262000e508162000e0e565b9050919050565b600062000e648262000a2f565b915062000e718362000a2f565b9250827fffffffffffffffffffffffffffffffffffffffffffffffffffffffffffffffff0382111562000ea95762000ea862000a00565b5b828201905092915050565b62000ebf8162000a2f565b82525050565b600060408201905062000edc600083018562000eb4565b62000eeb602083018462000eb4565b9392505050565b62000efd8162000771565b82525050565b600081519050919050565b600082825260208201905092915050565b600062000f2c8262000f03565b62000f38818562000f0e565b935062000f4a81856020860162000898565b62000f558162000688565b840191505092915050565b600060a08201905062000f77600083018862000ef2565b62000f86602083018762000ef2565b62000f95604083018662000eb4565b62000fa4606083018562000eb4565b818103608083015262000fb8818462000f1f565b90509695505050505050565b60007fffffffff0000000000000000000000000000000000000000000000000000000082169050919050565b62000ffb8162000fc4565b81146200100757600080fd5b50565b6000815190506200101b8162000ff0565b92915050565b6000602082840312156200103a576200103962000679565b5b60006200104a848285016200100a565b91505092915050565b60008160e01c9050919050565b600060033d1115620010825760046000803e6200107f60005162001053565b90505b90565b600060443d106200111d576200109a6200066f565b60043d036004823e80513d602482011167ffffffffffffffff82111715620010c45750506200111d565b808201805167ffffffffffffffff811115620010e457505050506200111d565b80602083010160043d038501811115620011035750505050506200111d565b6200111482602001850186620006c8565b82955050505050505b90565b60006200112d8262000a86565b62001139818562000dae565b93506200114b81856020860162000898565b620011568162000688565b840191505092915050565b600060208201905081810360008301526200117d818462001120565b905092915050565b7f455243313135353a207472616e7366657220746f206e6f6e204552433131353560008201527f526563656976657220696d706c656d656e746572000000000000000000000000602082015250565b6000620011e360348362000dae565b9150620011f08262001185565b604082019050919050565b600060208201905081810360008301526200121681620011d4565b9050919050565b7f455243313135353a204552433131353552656365697665722072656a6563746560008201527f6420746f6b656e73000000000000000000000000000000000000000000000000602082015250565b60006200127b60288362000dae565b915062001288826200121d565b604082019050919050565b60006020820190508181036000830152620012ae816200126c565b9050919050565b6129de80620012c56000396000f3fe608060405234801561001057600080fd5b506004361061009d5760003560e01c80639e7a13ad116100665780639e7a13ad1461017e578063a22cb465146101ae578063e985e9c5146101ca578063f242432a146101fa578063f83efec8146102165761009d565b8062fdd58e146100a257806301ffc9a7146100d25780630e89341c146101025780632eb2c2d6146101325780634e1273f41461014e575b600080fd5b6100bc60048036038101906100b79190611700565b610232565b6040516100c9919061174f565b60405180910390f35b6100ec60048036038101906100e791906117c2565b6102fa565b6040516100f9919061180a565b60405180910390f35b61011c60048036038101906101179190611825565b6103dc565b60405161012991906118eb565b60405180910390f35b61014c60048036038101906101479190611b0a565b610470565b005b61016860048036038101906101639190611c9c565b610511565b6040516101759190611dd2565b60405180910390f35b61019860048036038101906101939190611825565b61062a565b6040516101a59190611e03565b60405180910390f35b6101c860048036038101906101c39190611e4a565b610669565b005b6101e460048036038101906101df9190611e8a565b61067f565b6040516101f1919061180a565b60405180910390f35b610214600480360381019061020f9190611eca565b610713565b005b610230600480360381019061022b9190611f61565b6107b4565b005b60008073ffffffffffffffffffffffffffffffffffffffff168373ffffffffffffffffffffffffffffffffffffffff16036102a2576040517f08c379a000000000000000000000000000000000000000000000000000000000815260040161029990612000565b60405180910390fd5b60008083815260200190815260200160002060008473ffffffffffffffffffffffffffffffffffffffff1673ffffffffffffffffffffffffffffffffffffffff16815260200190815260200160002054905092915050565b60007fd9b67a26000000000000000000000000000000000000000000000000000000007bffffffffffffffffffffffffffffffffffffffffffffffffffffffff1916827bffffffffffffffffffffffffffffffffffffffffffffffffffffffff191614806103c557507f0e89341c000000000000000000000000000000000000000000000000000000007bffffffffffffffffffffffffffffffffffffffffffffffffffffffff1916827bffffffffffffffffffffffffffffffffffffffffffffffffffffffff1916145b806103d557506103d482610840565b5b9050919050565b6060600280546103eb9061204f565b80601f01602080910402602001604051908101604052809291908181526020018280546104179061204f565b80156104645780601f1061043957610100808354040283529160200191610464565b820191906000526020600020905b81548152906001019060200180831161044757829003601f168201915b50505050509050919050565b6104786108aa565b73ffffffffffffffffffffffffffffffffffffffff168573ffffffffffffffffffffffffffffffffffffffff1614806104be57506104bd856104b86108aa565b61067f565b5b6104fd576040517f08c379a00000000000000000000000000000000000000000000000000000000081526004016104f4906120f2565b60405180910390fd5b61050a85858585856108b2565b5050505050565b60608151835114610557576040517f08c379a000000000000000000000000000000000000000000000000000000000815260040161054e90612184565b60405180910390fd5b6000835167ffffffffffffffff81111561057457610573611912565b5b6040519080825280602002602001820160405280156105a25781602001602082028036833780820191505090505b50905060005b845181101561061f576105ef8582815181106105c7576105c66121a4565b5b60200260200101518583815181106105e2576105e16121a4565b5b6020026020010151610232565b828281518110610602576106016121a4565b5b6020026020010181815250508061061890612202565b90506105a8565b508091505092915050565b6004818154811061063a57600080fd5b906000526020600020016000915054906101000a900473ffffffffffffffffffffffffffffffffffffffff1681565b61067b6106746108aa565b8383610bd3565b5050565b6000600160008473ffffffffffffffffffffffffffffffffffffffff1673ffffffffffffffffffffffffffffffffffffffff16815260200190815260200160002060008373ffffffffffffffffffffffffffffffffffffffff1673ffffffffffffffffffffffffffffffffffffffff16815260200190815260200160002060009054906101000a900460ff16905092915050565b61071b6108aa565b73ffffffffffffffffffffffffffffffffffffffff168573ffffffffffffffffffffffffffffffffffffffff16148061076157506107608561075b6108aa565b61067f565b5b6107a0576040517f08c379a0000000000000000000000000000000000000000000000000000000008152600401610797906120f2565b60405180910390fd5b6107ad8585858585610d3f565b5050505050565b600360009054906101000a900473ffffffffffffffffffffffffffffffffffffffff1673ffffffffffffffffffffffffffffffffffffffff163373ffffffffffffffffffffffffffffffffffffffff161461080e57600080fd5b61081a81600180610fda565b50565b6000808273ffffffffffffffffffffffffffffffffffffffff163b119050919050565b60007f01ffc9a7000000000000000000000000000000000000000000000000000000007bffffffffffffffffffffffffffffffffffffffffffffffffffffffff1916827bffffffffffffffffffffffffffffffffffffffffffffffffffffffff1916149050919050565b600033905090565b81518351146108f6576040517f08c379a00000000000000000000000000000000000000000000000000000000081526004016108ed906122bc565b60405180910390fd5b600073ffffffffffffffffffffffffffffffffffffffff168473ffffffffffffffffffffffffffffffffffffffff1603610965576040517f08c379a000000000000000000000000000000000000000000000000000000000815260040161095c9061234e565b60405180910390fd5b600061096f6108aa565b905061097f818787878787611220565b60005b8451811015610b305760008582815181106109a05761099f6121a4565b5b6020026020010151905060008583815181106109bf576109be6121a4565b5b60200260200101519050600080600084815260200190815260200160002060008b73ffffffffffffffffffffffffffffffffffffffff1673ffffffffffffffffffffffffffffffffffffffff16815260200190815260200160002054905081811015610a60576040517f08c379a0000000000000000000000000000000000000000000000000000000008152600401610a57906123e0565b60405180910390fd5b81810360008085815260200190815260200160002060008c73ffffffffffffffffffffffffffffffffffffffff1673ffffffffffffffffffffffffffffffffffffffff168152602001908152602001600020819055508160008085815260200190815260200160002060008b73ffffffffffffffffffffffffffffffffffffffff1673ffffffffffffffffffffffffffffffffffffffff1681526020019081526020016000206000828254610b159190612400565b9250508190555050505080610b2990612202565b9050610982565b508473ffffffffffffffffffffffffffffffffffffffff168673ffffffffffffffffffffffffffffffffffffffff168273ffffffffffffffffffffffffffffffffffffffff167f4a39dc06d4c0dbc64b70af90fd698a233a518aa5d07e595d983b8c0526c8f7fb8787604051610ba7929190612456565b60405180910390a4610bbd818787878787611228565b610bcb818787878787611230565b505050505050565b8173ffffffffffffffffffffffffffffffffffffffff168373ffffffffffffffffffffffffffffffffffffffff1603610c41576040517f08c379a0000000000000000000000000000000000000000000000000000000008152600401610c38906124ff565b60405180910390fd5b80600160008573ffffffffffffffffffffffffffffffffffffffff1673ffffffffffffffffffffffffffffffffffffffff16815260200190815260200160002060008473ffffffffffffffffffffffffffffffffffffffff1673ffffffffffffffffffffffffffffffffffffffff16815260200190815260200160002060006101000a81548160ff0219169083151502179055508173ffffffffffffffffffffffffffffffffffffffff168373ffffffffffffffffffffffffffffffffffffffff167f17307eab39ab6107e8899845ad3d59bd9653f200f220920489ca2b5937696c3183604051610d32919061180a565b60405180910390a3505050565b600073ffffffffffffffffffffffffffffffffffffffff168473ffffffffffffffffffffffffffffffffffffffff1603610dae576040517f08c379a0000000000000000000000000000000000000000000000000000000008152600401610da59061234e565b60405180910390fd5b6000610db86108aa565b90506000610dc585611407565b90506000610dd285611407565b9050610de2838989858589611220565b600080600088815260200190815260200160002060008a73ffffffffffffffffffffffffffffffffffffffff1673ffffffffffffffffffffffffffffffffffffffff16815260200190815260200160002054905085811015610e79576040517f08c379a0000000000000000000000000000000000000000000000000000000008152600401610e70906123e0565b60405180910390fd5b85810360008089815260200190815260200160002060008b73ffffffffffffffffffffffffffffffffffffffff1673ffffffffffffffffffffffffffffffffffffffff168152602001908152602001600020819055508560008089815260200190815260200160002060008a73ffffffffffffffffffffffffffffffffffffffff1673ffffffffffffffffffffffffffffffffffffffff1681526020019081526020016000206000828254610f2e9190612400565b925050819055508773ffffffffffffffffffffffffffffffffffffffff168973ffffffffffffffffffffffffffffffffffffffff168573ffffffffffffffffffffffffffffffffffffffff167fc3d58168c5ae7397731d063d5bbf3d657854427343f4c083240f7aacaa2d0f628a8a604051610fab92919061251f565b60405180910390a4610fc1848a8a86868a611228565b610fcf848a8a8a8a8a611481565b505050505050505050565b600073ffffffffffffffffffffffffffffffffffffffff168373ffffffffffffffffffffffffffffffffffffffff1603611049576040517f08c379a0000000000000000000000000000000000000000000000000000000008152600401611040906125ba565b60405180910390fd5b60006110536108aa565b9050600061106084611407565b9050600061106d84611407565b905061108d83876000858560405180602001604052806000815250611220565b600080600087815260200190815260200160002060008873ffffffffffffffffffffffffffffffffffffffff1673ffffffffffffffffffffffffffffffffffffffff16815260200190815260200160002054905084811015611124576040517f08c379a000000000000000000000000000000000000000000000000000000000815260040161111b9061264c565b60405180910390fd5b84810360008088815260200190815260200160002060008973ffffffffffffffffffffffffffffffffffffffff1673ffffffffffffffffffffffffffffffffffffffff16815260200190815260200160002081905550600073ffffffffffffffffffffffffffffffffffffffff168773ffffffffffffffffffffffffffffffffffffffff168573ffffffffffffffffffffffffffffffffffffffff167fc3d58168c5ae7397731d063d5bbf3d657854427343f4c083240f7aacaa2d0f6289896040516111f192919061251f565b60405180910390a461121784886000868660405180602001604052806000815250611228565b50505050505050565b505050505050565b505050505050565b61124f8473ffffffffffffffffffffffffffffffffffffffff1661081d565b156113ff578373ffffffffffffffffffffffffffffffffffffffff1663bc197c8187878686866040518663ffffffff1660e01b81526004016112959594939291906126c1565b6020604051808303816000875af19250505080156112d157506040513d601f19601f820116820180604052508101906112ce919061273e565b60015b611376576112dd612778565b806308c379a00361133957506112f161279a565b806112fc575061133b565b806040517f08c379a000000000000000000000000000000000000000000000000000000000815260040161133091906118eb565b60405180910390fd5b505b6040517f08c379a000000000000000000000000000000000000000000000000000000000815260040161136d9061289c565b60405180910390fd5b63bc197c8160e01b7bffffffffffffffffffffffffffffffffffffffffffffffffffffffff1916817bffffffffffffffffffffffffffffffffffffffffffffffffffffffff1916146113fd576040517f08c379a00000000000000000000000000000000000000000000000000000000081526004016113f49061292e565b60405180910390fd5b505b505050505050565b60606000600167ffffffffffffffff81111561142657611425611912565b5b6040519080825280602002602001820160405280156114545781602001602082028036833780820191505090505b509050828160008151811061146c5761146b6121a4565b5b60200260200101818152505080915050919050565b6114a08473ffffffffffffffffffffffffffffffffffffffff1661081d565b15611650578373ffffffffffffffffffffffffffffffffffffffff1663f23a6e6187878686866040518663ffffffff1660e01b81526004016114e695949392919061294e565b6020604051808303816000875af192505050801561152257506040513d601f19601f8201168201806040525081019061151f919061273e565b60015b6115c75761152e612778565b806308c379a00361158a575061154261279a565b8061154d575061158c565b806040517f08c379a000000000000000000000000000000000000000000000000000000000815260040161158191906118eb565b60405180910390fd5b505b6040517f08c379a00000000000000000000000000000000000000000000000000000000081526004016115be9061289c565b60405180910390fd5b63f23a6e6160e01b7bffffffffffffffffffffffffffffffffffffffffffffffffffffffff1916817bffffffffffffffffffffffffffffffffffffffffffffffffffffffff19161461164e576040517f08c379a00000000000000000000000000000000000000000000000000000000081526004016116459061292e565b60405180910390fd5b505b505050505050565b6000604051905090565b600080fd5b600080fd5b600073ffffffffffffffffffffffffffffffffffffffff82169050919050565b60006116978261166c565b9050919050565b6116a78161168c565b81146116b257600080fd5b50565b6000813590506116c48161169e565b92915050565b6000819050919050565b6116dd816116ca565b81146116e857600080fd5b50565b6000813590506116fa816116d4565b92915050565b6000806040838503121561171757611716611662565b5b6000611725858286016116b5565b9250506020611736858286016116eb565b9150509250929050565b611749816116ca565b82525050565b60006020820190506117646000830184611740565b92915050565b60007fffffffff0000000000000000000000000000000000000000000000000000000082169050919050565b61179f8161176a565b81146117aa57600080fd5b50565b6000813590506117bc81611796565b92915050565b6000602082840312156117d8576117d7611662565b5b60006117e6848285016117ad565b91505092915050565b60008115159050919050565b611804816117ef565b82525050565b600060208201905061181f60008301846117fb565b92915050565b60006020828403121561183b5761183a611662565b5b6000611849848285016116eb565b91505092915050565b600081519050919050565b600082825260208201905092915050565b60005b8381101561188c578082015181840152602081019050611871565b8381111561189b576000848401525b50505050565b6000601f19601f8301169050919050565b60006118bd82611852565b6118c7818561185d565b93506118d781856020860161186e565b6118e0816118a1565b840191505092915050565b6000602082019050818103600083015261190581846118b2565b905092915050565b600080fd5b7f4e487b7100000000000000000000000000000000000000000000000000000000600052604160045260246000fd5b61194a826118a1565b810181811067ffffffffffffffff8211171561196957611968611912565b5b80604052505050565b600061197c611658565b90506119888282611941565b919050565b600067ffffffffffffffff8211156119a8576119a7611912565b5b602082029050602081019050919050565b600080fd5b60006119d16119cc8461198d565b611972565b905080838252602082019050602084028301858111156119f4576119f36119b9565b5b835b81811015611a1d5780611a0988826116eb565b8452602084019350506020810190506119f6565b5050509392505050565b600082601f830112611a3c57611a3b61190d565b5b8135611a4c8482602086016119be565b91505092915050565b600080fd5b600067ffffffffffffffff821115611a7557611a74611912565b5b611a7e826118a1565b9050602081019050919050565b82818337600083830152505050565b6000611aad611aa884611a5a565b611972565b905082815260208101848484011115611ac957611ac8611a55565b5b611ad4848285611a8b565b509392505050565b600082601f830112611af157611af061190d565b5b8135611b01848260208601611a9a565b91505092915050565b600080600080600060a08688031215611b2657611b25611662565b5b6000611b34888289016116b5565b9550506020611b45888289016116b5565b945050604086013567ffffffffffffffff811115611b6657611b65611667565b5b611b7288828901611a27565b935050606086013567ffffffffffffffff811115611b9357611b92611667565b5b611b9f88828901611a27565b925050608086013567ffffffffffffffff811115611bc057611bbf611667565b5b611bcc88828901611adc565b9150509295509295909350565b600067ffffffffffffffff821115611bf457611bf3611912565b5b602082029050602081019050919050565b6000611c18611c1384611bd9565b611972565b90508083825260208201905060208402830185811115611c3b57611c3a6119b9565b5b835b81811015611c645780611c5088826116b5565b845260208401935050602081019050611c3d565b5050509392505050565b600082601f830112611c8357611c8261190d565b5b8135611c93848260208601611c05565b91505092915050565b60008060408385031215611cb357611cb2611662565b5b600083013567ffffffffffffffff811115611cd157611cd0611667565b5b611cdd85828601611c6e565b925050602083013567ffffffffffffffff811115611cfe57611cfd611667565b5b611d0a85828601611a27565b9150509250929050565b600081519050919050565b600082825260208201905092915050565b6000819050602082019050919050565b611d49816116ca565b82525050565b6000611d5b8383611d40565b60208301905092915050565b6000602082019050919050565b6000611d7f82611d14565b611d898185611d1f565b9350611d9483611d30565b8060005b83811015611dc5578151611dac8882611d4f565b9750611db783611d67565b925050600181019050611d98565b5085935050505092915050565b60006020820190508181036000830152611dec8184611d74565b905092915050565b611dfd8161168c565b82525050565b6000602082019050611e186000830184611df4565b92915050565b611e27816117ef565b8114611e3257600080fd5b50565b600081359050611e4481611e1e565b92915050565b60008060408385031215611e6157611e60611662565b5b6000611e6f858286016116b5565b9250506020611e8085828601611e35565b9150509250929050565b60008060408385031215611ea157611ea0611662565b5b6000611eaf858286016116b5565b9250506020611ec0858286016116b5565b9150509250929050565b600080600080600060a08688031215611ee657611ee5611662565b5b6000611ef4888289016116b5565b9550506020611f05888289016116b5565b9450506040611f16888289016116eb565b9350506060611f27888289016116eb565b925050608086013567ffffffffffffffff811115611f4857611f47611667565b5b611f5488828901611adc565b9150509295509295909350565b600060208284031215611f7757611f76611662565b5b6000611f85848285016116b5565b91505092915050565b7f455243313135353a2061646472657373207a65726f206973206e6f742061207660008201527f616c6964206f776e657200000000000000000000000000000000000000000000602082015250565b6000611fea602a8361185d565b9150611ff582611f8e565b604082019050919050565b6000602082019050818103600083015261201981611fdd565b9050919050565b7f4e487b7100000000000000000000000000000000000000000000000000000000600052602260045260246000fd5b6000600282049050600182168061206757607f821691505b60208210810361207a57612079612020565b5b50919050565b7f455243313135353a2063616c6c6572206973206e6f7420746f6b656e206f776e60008201527f6572206e6f7220617070726f7665640000000000000000000000000000000000602082015250565b60006120dc602f8361185d565b91506120e782612080565b604082019050919050565b6000602082019050818103600083015261210b816120cf565b9050919050565b7f455243313135353a206163636f756e747320616e6420696473206c656e67746860008201527f206d69736d617463680000000000000000000000000000000000000000000000602082015250565b600061216e60298361185d565b915061217982612112565b604082019050919050565b6000602082019050818103600083015261219d81612161565b9050919050565b7f4e487b7100000000000000000000000000000000000000000000000000000000600052603260045260246000fd5b7f4e487b7100000000000000000000000000000000000000000000000000000000600052601160045260246000fd5b600061220d826116ca565b91507fffffffffffffffffffffffffffffffffffffffffffffffffffffffffffffffff820361223f5761223e6121d3565b5b600182019050919050565b7f455243313135353a2069647320616e6420616d6f756e7473206c656e6774682060008201527f6d69736d61746368000000000000000000000000000000000000000000000000602082015250565b60006122a660288361185d565b91506122b18261224a565b604082019050919050565b600060208201905081810360008301526122d581612299565b9050919050565b7f455243313135353a207472616e7366657220746f20746865207a65726f20616460008201527f6472657373000000000000000000000000000000000000000000000000000000602082015250565b600061233860258361185d565b9150612343826122dc565b604082019050919050565b600060208201905081810360008301526123678161232b565b9050919050565b7f455243313135353a20696e73756666696369656e742062616c616e636520666f60008201527f72207472616e7366657200000000000000000000000000000000000000000000602082015250565b60006123ca602a8361185d565b91506123d58261236e565b604082019050919050565b600060208201905081810360008301526123f9816123bd565b9050919050565b600061240b826116ca565b9150612416836116ca565b9250827fffffffffffffffffffffffffffffffffffffffffffffffffffffffffffffffff0382111561244b5761244a6121d3565b5b828201905092915050565b600060408201905081810360008301526124708185611d74565b905081810360208301526124848184611d74565b90509392505050565b7f455243313135353a2073657474696e6720617070726f76616c2073746174757360008201527f20666f722073656c660000000000000000000000000000000000000000000000602082015250565b60006124e960298361185d565b91506124f48261248d565b604082019050919050565b60006020820190508181036000830152612518816124dc565b9050919050565b60006040820190506125346000830185611740565b6125416020830184611740565b9392505050565b7f455243313135353a206275726e2066726f6d20746865207a65726f206164647260008201527f6573730000000000000000000000000000000000000000000000000000000000602082015250565b60006125a460238361185d565b91506125af82612548565b604082019050919050565b600060208201905081810360008301526125d381612597565b9050919050565b7f455243313135353a206275726e20616d6f756e7420657863656564732062616c60008201527f616e636500000000000000000000000000000000000000000000000000000000602082015250565b600061263660248361185d565b9150612641826125da565b604082019050919050565b6000602082019050818103600083015261266581612629565b9050919050565b600081519050919050565b600082825260208201905092915050565b60006126938261266c565b61269d8185612677565b93506126ad81856020860161186e565b6126b6816118a1565b840191505092915050565b600060a0820190506126d66000830188611df4565b6126e36020830187611df4565b81810360408301526126f58186611d74565b905081810360608301526127098185611d74565b9050818103608083015261271d8184612688565b90509695505050505050565b60008151905061273881611796565b92915050565b60006020828403121561275457612753611662565b5b600061276284828501612729565b91505092915050565b60008160e01c9050919050565b600060033d11156127975760046000803e61279460005161276b565b90505b90565b600060443d10612827576127ac611658565b60043d036004823e80513d602482011167ffffffffffffffff821117156127d4575050612827565b808201805167ffffffffffffffff8111156127f25750505050612827565b80602083010160043d03850181111561280f575050505050612827565b61281e82602001850186611941565b82955050505050505b90565b7f455243313135353a207472616e7366657220746f206e6f6e204552433131353560008201527f526563656976657220696d706c656d656e746572000000000000000000000000602082015250565b600061288660348361185d565b91506128918261282a565b604082019050919050565b600060208201905081810360008301526128b581612879565b9050919050565b7f455243313135353a204552433131353552656365697665722072656a6563746560008201527f6420746f6b656e73000000000000000000000000000000000000000000000000602082015250565b600061291860288361185d565b9150612923826128bc565b604082019050919050565b600060208201905081810360008301526129478161290b565b9050919050565b600060a0820190506129636000830188611df4565b6129706020830187611df4565b61297d6040830186611740565b61298a6060830185611740565b818103608083015261299c8184612688565b9050969550505050505056fea26469706673582212205a88630b673f4ada4a8b8d915e744feae466861c197f4645a050781862387e7864736f6c634300080f0033",
  "linkReferences": {},
  "deployedLinkReferences": {}
}