{
  "_format": "hh-sol-artifact-1",
  "contractName": "InteliFactory",
  "sourceName": "ethereum/contracts/InteliFactory.sol",
  "abi": [
    {
      "inputs": [],
      "stateMutability": "nonpayable",
      "type": "constructor"
    },
    {
      "inputs": [
        {
          "internalType": "string",
          "name": "_id",
          "type": "string"
        }
      ],
      "name": "createStudent",
      "outputs": [],
      "stateMutability": "nonpayable",
      "type": "function"
    },
    {
      "inputs": [],
      "name": "getBalance",
      "outputs": [
        {
          "internalType": "uint256",
          "name": "",
          "type": "uint256"
        }
      ],
      "stateMutability": "view",
      "type": "function"
    },
    {
      "inputs": [
        {
          "internalType": "address",
          "name": "_id",
          "type": "address"
        }
      ],
      "name": "getStudent",
      "outputs": [
        {
          "internalType": "string",
          "name": "",
          "type": "string"
        }
      ],
      "stateMutability": "view",
      "type": "function"
    },
    {
      "inputs": [
        {
          "internalType": "string",
          "name": "_ra",
          "type": "string"
        }
      ],
      "name": "getWallet",
      "outputs": [
        {
          "internalType": "address",
          "name": "",
          "type": "address"
        }
      ],
      "stateMutability": "view",
      "type": "function"
    },
    {
      "inputs": [],
      "name": "owner",
      "outputs": [
        {
          "internalType": "address",
          "name": "",
          "type": "address"
        }
      ],
      "stateMutability": "view",
      "type": "function"
    },
    {
      "inputs": [
        {
          "internalType": "string",
          "name": "_ra",
          "type": "string"
        }
      ],
      "name": "removeStudent",
      "outputs": [],
      "stateMutability": "nonpayable",
      "type": "function"
    },
    {
      "inputs": [
        {
          "internalType": "address payable",
          "name": "_id",
          "type": "address"
        },
        {
          "internalType": "uint256",
          "name": "_amount",
          "type": "uint256"
        }
      ],
      "name": "transferMoney",
      "outputs": [],
      "stateMutability": "payable",
      "type": "function"
    }
  ],
  "bytecode": "0x608060405234801561001057600080fd5b50336000806101000a81548173ffffffffffffffffffffffffffffffffffffffff021916908373ffffffffffffffffffffffffffffffffffffffff1602179055506125d3806100606000396000f3fe6080604052600436106200005c5760003560e01c806312065fe014620000615780636b7b44d71462000091578063a4e2df6614620000d5578063edd6cfb11462000119578063f80bc6641462000147578063fee666ad1462000175575b600080fd5b3480156200006e57600080fd5b506200007962000195565b60405162000088919062000886565b60405180910390f35b3480156200009e57600080fd5b50620000bd6004803603810190620000b791906200091c565b620001f6565b604051620000cc9190620009f2565b60405180910390f35b348015620000e257600080fd5b50620001016004803603810190620000fb919062000b67565b62000328565b60405162000110919062000bc9565b60405180910390f35b3480156200012657600080fd5b506200014560048036038101906200013f919062000b67565b620003cb565b005b3480156200015457600080fd5b506200017360048036038101906200016d919062000b67565b62000571565b005b6200019360048036038101906200018d919062000c5c565b62000753565b005b60003373ffffffffffffffffffffffffffffffffffffffff1660008054906101000a900473ffffffffffffffffffffffffffffffffffffffff1673ffffffffffffffffffffffffffffffffffffffff1614620001f057600080fd5b47905090565b60603373ffffffffffffffffffffffffffffffffffffffff1660008054906101000a900473ffffffffffffffffffffffffffffffffffffffff1673ffffffffffffffffffffffffffffffffffffffff16146200025157600080fd5b600260008373ffffffffffffffffffffffffffffffffffffffff1673ffffffffffffffffffffffffffffffffffffffff16815260200190815260200160002080546200029d9062000cd2565b80601f0160208091040260200160405190810160405280929190818152602001828054620002cb9062000cd2565b80156200031c5780601f10620002f0576101008083540402835291602001916200031c565b820191906000526020600020905b815481529060010190602001808311620002fe57829003601f168201915b50505050509050919050565b60003373ffffffffffffffffffffffffffffffffffffffff1660008054906101000a900473ffffffffffffffffffffffffffffffffffffffff1673ffffffffffffffffffffffffffffffffffffffff16146200038357600080fd5b60018260405162000395919062000d49565b908152602001604051809103902060009054906101000a900473ffffffffffffffffffffffffffffffffffffffff169050919050565b3373ffffffffffffffffffffffffffffffffffffffff1660008054906101000a900473ffffffffffffffffffffffffffffffffffffffff1673ffffffffffffffffffffffffffffffffffffffff16148015620004945750600073ffffffffffffffffffffffffffffffffffffffff166001826040516200044c919062000d49565b908152602001604051809103902060009054906101000a900473ffffffffffffffffffffffffffffffffffffffff1673ffffffffffffffffffffffffffffffffffffffff1614155b6200049e57600080fd5b60026000600183604051620004b4919062000d49565b908152602001604051809103902060009054906101000a900473ffffffffffffffffffffffffffffffffffffffff1673ffffffffffffffffffffffffffffffffffffffff1673ffffffffffffffffffffffffffffffffffffffff16815260200190815260200160002060006200052b9190620007f8565b6001816040516200053d919062000d49565b908152602001604051809103902060006101000a81549073ffffffffffffffffffffffffffffffffffffffff021916905550565b3373ffffffffffffffffffffffffffffffffffffffff1660008054906101000a900473ffffffffffffffffffffffffffffffffffffffff1673ffffffffffffffffffffffffffffffffffffffff16148015620006395750600073ffffffffffffffffffffffffffffffffffffffff16600182604051620005f2919062000d49565b908152602001604051809103902060009054906101000a900473ffffffffffffffffffffffffffffffffffffffff1673ffffffffffffffffffffffffffffffffffffffff16145b6200064357600080fd5b60008060009054906101000a900473ffffffffffffffffffffffffffffffffffffffff1660405162000675906200083e565b62000681919062000bc9565b604051809103906000f0801580156200069e573d6000803e3d6000fd5b50905080600183604051620006b4919062000d49565b908152602001604051809103902060006101000a81548173ffffffffffffffffffffffffffffffffffffffff021916908373ffffffffffffffffffffffffffffffffffffffff16021790555081600260008373ffffffffffffffffffffffffffffffffffffffff1673ffffffffffffffffffffffffffffffffffffffff16815260200190815260200160002090816200074e919062000f34565b505050565b3373ffffffffffffffffffffffffffffffffffffffff1660008054906101000a900473ffffffffffffffffffffffffffffffffffffffff1673ffffffffffffffffffffffffffffffffffffffff1614620007ac57600080fd5b8173ffffffffffffffffffffffffffffffffffffffff166108fc829081150290604051600060405180830381858888f19350505050158015620007f3573d6000803e3d6000fd5b505050565b508054620008069062000cd2565b6000825580601f106200081a57506200083b565b601f0160209004906000526020600020908101906200083a91906200084c565b5b50565b611582806200101c83390190565b5b80821115620008675760008160009055506001016200084d565b5090565b6000819050919050565b62000880816200086b565b82525050565b60006020820190506200089d600083018462000875565b92915050565b6000604051905090565b600080fd5b600080fd5b600073ffffffffffffffffffffffffffffffffffffffff82169050919050565b6000620008e482620008b7565b9050919050565b620008f681620008d7565b81146200090257600080fd5b50565b6000813590506200091681620008eb565b92915050565b600060208284031215620009355762000934620008ad565b5b6000620009458482850162000905565b91505092915050565b600081519050919050565b600082825260208201905092915050565b60005b838110156200098a5780820151818401526020810190506200096d565b838111156200099a576000848401525b50505050565b6000601f19601f8301169050919050565b6000620009be826200094e565b620009ca818562000959565b9350620009dc8185602086016200096a565b620009e781620009a0565b840191505092915050565b6000602082019050818103600083015262000a0e8184620009b1565b905092915050565b600080fd5b600080fd5b7f4e487b7100000000000000000000000000000000000000000000000000000000600052604160045260246000fd5b62000a5a82620009a0565b810181811067ffffffffffffffff8211171562000a7c5762000a7b62000a20565b5b80604052505050565b600062000a91620008a3565b905062000a9f828262000a4f565b919050565b600067ffffffffffffffff82111562000ac25762000ac162000a20565b5b62000acd82620009a0565b9050602081019050919050565b82818337600083830152505050565b600062000b0062000afa8462000aa4565b62000a85565b90508281526020810184848401111562000b1f5762000b1e62000a1b565b5b62000b2c84828562000ada565b509392505050565b600082601f83011262000b4c5762000b4b62000a16565b5b813562000b5e84826020860162000ae9565b91505092915050565b60006020828403121562000b805762000b7f620008ad565b5b600082013567ffffffffffffffff81111562000ba15762000ba0620008b2565b5b62000baf8482850162000b34565b91505092915050565b62000bc381620008d7565b82525050565b600060208201905062000be0600083018462000bb8565b92915050565b600062000bf382620008b7565b9050919050565b62000c058162000be6565b811462000c1157600080fd5b50565b60008135905062000c258162000bfa565b92915050565b62000c36816200086b565b811462000c4257600080fd5b50565b60008135905062000c568162000c2b565b92915050565b6000806040838503121562000c765762000c75620008ad565b5b600062000c868582860162000c14565b925050602062000c998582860162000c45565b9150509250929050565b7f4e487b7100000000000000000000000000000000000000000000000000000000600052602260045260246000fd5b6000600282049050600182168062000ceb57607f821691505b60208210810362000d015762000d0062000ca3565b5b50919050565b600081905092915050565b600062000d1f826200094e565b62000d2b818562000d07565b935062000d3d8185602086016200096a565b80840191505092915050565b600062000d57828462000d12565b915081905092915050565b60008190508160005260206000209050919050565b60006020601f8301049050919050565b600082821b905092915050565b60006008830262000dc67fffffffffffffffffffffffffffffffffffffffffffffffffffffffffffffffff8262000d87565b62000dd2868362000d87565b95508019841693508086168417925050509392505050565b6000819050919050565b600062000e1562000e0f62000e09846200086b565b62000dea565b6200086b565b9050919050565b6000819050919050565b62000e318362000df4565b62000e4962000e408262000e1c565b84845462000d94565b825550505050565b600090565b62000e6062000e51565b62000e6d81848462000e26565b505050565b5b8181101562000e955762000e8960008262000e56565b60018101905062000e73565b5050565b601f82111562000ee45762000eae8162000d62565b62000eb98462000d77565b8101602085101562000ec9578190505b62000ee162000ed88562000d77565b83018262000e72565b50505b505050565b600082821c905092915050565b600062000f096000198460080262000ee9565b1980831691505092915050565b600062000f24838362000ef6565b9150826002028217905092915050565b62000f3f826200094e565b67ffffffffffffffff81111562000f5b5762000f5a62000a20565b5b62000f67825462000cd2565b62000f7482828562000e99565b600060209050601f83116001811462000fac576000841562000f97578287015190505b62000fa3858262000f16565b86555062001013565b601f19841662000fbc8662000d62565b60005b8281101562000fe65784890151825560018201915060208501945060208101905062000fbf565b8683101562001006578489015162001002601f89168262000ef6565b8355505b6001600288020188555050505b50505050505056fe60806040523480156200001157600080fd5b5060405162001582380380620015828339818101604052810190620000379190620000e8565b806000806101000a81548173ffffffffffffffffffffffffffffffffffffffff021916908373ffffffffffffffffffffffffffffffffffffffff160217905550506200011a565b600080fd5b600073ffffffffffffffffffffffffffffffffffffffff82169050919050565b6000620000b08262000083565b9050919050565b620000c281620000a3565b8114620000ce57600080fd5b50565b600081519050620000e281620000b7565b92915050565b6000602082840312156200010157620001006200007e565b5b60006200011184828501620000d1565b91505092915050565b611458806200012a6000396000f3fe6080604052600436106100c05760003560e01c80633e3aa2c61161007f578063db43775a11610059578063db43775a1461028a578063e0ca4301146102b3578063f23a6e61146102f0578063fee666ad1461032d576100c0565b80633e3aa2c61461020d578063bc197c8114610236578063bdeb5fc414610273576100c0565b8062b91f1a146100c5578062cb39931461010257806301ffc9a71461012b57806312065fe0146101685780631961b32f1461019357806330683f52146101d0575b600080fd5b3480156100d157600080fd5b506100ec60048036038101906100e79190610bb6565b610349565b6040516100f99190610cef565b60405180910390f35b34801561010e57600080fd5b5061012960048036038101906101249190610d47565b61044d565b005b34801561013757600080fd5b50610152600480360381019061014d9190610dfb565b6104ee565b60405161015f9190610e43565b60405180910390f35b34801561017457600080fd5b5061017d610568565b60405161018a9190610e6d565b60405180910390f35b34801561019f57600080fd5b506101ba60048036038101906101b59190610bb6565b610570565b6040516101c79190610f46565b60405180910390f35b3480156101dc57600080fd5b506101f760048036038101906101f29190610d47565b61063e565b6040516102049190610f77565b60405180910390f35b34801561021957600080fd5b50610234600480360381019061022f9190610d47565b6106a2565b005b34801561024257600080fd5b5061025d60048036038101906102589190611127565b610743565b60405161026a9190611205565b60405180910390f35b34801561027f57600080fd5b50610288610758565b005b34801561029657600080fd5b506102b160048036038101906102ac9190611220565b6107e9565b005b3480156102bf57600080fd5b506102da60048036038101906102d59190610bb6565b6108c4565b6040516102e79190610f46565b60405180910390f35b3480156102fc57600080fd5b506103176004803603810190610312919061127c565b610992565b6040516103249190611205565b60405180910390f35b61034760048036038101906103429190611351565b6109a7565b005b606060008054906101000a900473ffffffffffffffffffffffffffffffffffffffff1673ffffffffffffffffffffffffffffffffffffffff163373ffffffffffffffffffffffffffffffffffffffff16146103a357600080fd5b6003826040516103b3919061140b565b908152602001604051809103902080548060200260200160405190810160405280929190818152602001828054801561044157602002820191906000526020600020905b8160009054906101000a900473ffffffffffffffffffffffffffffffffffffffff1673ffffffffffffffffffffffffffffffffffffffff16815260200190600101908083116103f7575b50505050509050919050565b60008054906101000a900473ffffffffffffffffffffffffffffffffffffffff1673ffffffffffffffffffffffffffffffffffffffff163373ffffffffffffffffffffffffffffffffffffffff16146104a557600080fd5b6002826040516104b5919061140b565b90815260200160405180910390208190806001815401808255809150506001900390600052602060002001600090919091909150555050565b60007f4e2312e0000000000000000000000000000000000000000000000000000000007bffffffffffffffffffffffffffffffffffffffffffffffffffffffff1916827bffffffffffffffffffffffffffffffffffffffffffffffffffffffff191614806105615750610560826109f2565b5b9050919050565b600047905090565b606060008054906101000a900473ffffffffffffffffffffffffffffffffffffffff1673ffffffffffffffffffffffffffffffffffffffff163373ffffffffffffffffffffffffffffffffffffffff16146105ca57600080fd5b6001826040516105da919061140b565b908152602001604051809103902080548060200260200160405190810160405280929190818152602001828054801561063257602002820191906000526020600020905b81548152602001906001019080831161061e575b50505050509050919050565b600382805160208101820180518482526020830160208501208183528095505050505050818154811061067057600080fd5b906000526020600020016000915091509054906101000a900473ffffffffffffffffffffffffffffffffffffffff1681565b60008054906101000a900473ffffffffffffffffffffffffffffffffffffffff1673ffffffffffffffffffffffffffffffffffffffff163373ffffffffffffffffffffffffffffffffffffffff16146106fa57600080fd5b60018260405161070a919061140b565b90815260200160405180910390208190806001815401808255809150506001900390600052602060002001600090919091909150555050565b600063bc197c8160e01b905095945050505050565b60008054906101000a900473ffffffffffffffffffffffffffffffffffffffff1673ffffffffffffffffffffffffffffffffffffffff163373ffffffffffffffffffffffffffffffffffffffff16146107b057600080fd5b60008054906101000a900473ffffffffffffffffffffffffffffffffffffffff1673ffffffffffffffffffffffffffffffffffffffff16ff5b60008054906101000a900473ffffffffffffffffffffffffffffffffffffffff1673ffffffffffffffffffffffffffffffffffffffff163373ffffffffffffffffffffffffffffffffffffffff161461084157600080fd5b600382604051610851919061140b565b9081526020016040518091039020819080600181540180825580915050600190039060005260206000200160009091909190916101000a81548173ffffffffffffffffffffffffffffffffffffffff021916908373ffffffffffffffffffffffffffffffffffffffff1602179055505050565b606060008054906101000a900473ffffffffffffffffffffffffffffffffffffffff1673ffffffffffffffffffffffffffffffffffffffff163373ffffffffffffffffffffffffffffffffffffffff161461091e57600080fd5b60028260405161092e919061140b565b908152602001604051809103902080548060200260200160405190810160405280929190818152602001828054801561098657602002820191906000526020600020905b815481526020019060010190808311610972575b50505050509050919050565b600063f23a6e6160e01b905095945050505050565b8173ffffffffffffffffffffffffffffffffffffffff166108fc829081150290604051600060405180830381858888f193505050501580156109ed573d6000803e3d6000fd5b505050565b60007f01ffc9a7000000000000000000000000000000000000000000000000000000007bffffffffffffffffffffffffffffffffffffffffffffffffffffffff1916827bffffffffffffffffffffffffffffffffffffffffffffffffffffffff1916149050919050565b6000604051905090565b600080fd5b600080fd5b600080fd5b600080fd5b6000601f19601f8301169050919050565b7f4e487b7100000000000000000000000000000000000000000000000000000000600052604160045260246000fd5b610ac382610a7a565b810181811067ffffffffffffffff82111715610ae257610ae1610a8b565b5b80604052505050565b6000610af5610a5c565b9050610b018282610aba565b919050565b600067ffffffffffffffff821115610b2157610b20610a8b565b5b610b2a82610a7a565b9050602081019050919050565b82818337600083830152505050565b6000610b59610b5484610b06565b610aeb565b905082815260208101848484011115610b7557610b74610a75565b5b610b80848285610b37565b509392505050565b600082601f830112610b9d57610b9c610a70565b5b8135610bad848260208601610b46565b91505092915050565b600060208284031215610bcc57610bcb610a66565b5b600082013567ffffffffffffffff811115610bea57610be9610a6b565b5b610bf684828501610b88565b91505092915050565b600081519050919050565b600082825260208201905092915050565b6000819050602082019050919050565b600073ffffffffffffffffffffffffffffffffffffffff82169050919050565b6000610c5682610c2b565b9050919050565b610c6681610c4b565b82525050565b6000610c788383610c5d565b60208301905092915050565b6000602082019050919050565b6000610c9c82610bff565b610ca68185610c0a565b9350610cb183610c1b565b8060005b83811015610ce2578151610cc98882610c6c565b9750610cd483610c84565b925050600181019050610cb5565b5085935050505092915050565b60006020820190508181036000830152610d098184610c91565b905092915050565b6000819050919050565b610d2481610d11565b8114610d2f57600080fd5b50565b600081359050610d4181610d1b565b92915050565b60008060408385031215610d5e57610d5d610a66565b5b600083013567ffffffffffffffff811115610d7c57610d7b610a6b565b5b610d8885828601610b88565b9250506020610d9985828601610d32565b9150509250929050565b60007fffffffff0000000000000000000000000000000000000000000000000000000082169050919050565b610dd881610da3565b8114610de357600080fd5b50565b600081359050610df581610dcf565b92915050565b600060208284031215610e1157610e10610a66565b5b6000610e1f84828501610de6565b91505092915050565b60008115159050919050565b610e3d81610e28565b82525050565b6000602082019050610e586000830184610e34565b92915050565b610e6781610d11565b82525050565b6000602082019050610e826000830184610e5e565b92915050565b600081519050919050565b600082825260208201905092915050565b6000819050602082019050919050565b610ebd81610d11565b82525050565b6000610ecf8383610eb4565b60208301905092915050565b6000602082019050919050565b6000610ef382610e88565b610efd8185610e93565b9350610f0883610ea4565b8060005b83811015610f39578151610f208882610ec3565b9750610f2b83610edb565b925050600181019050610f0c565b5085935050505092915050565b60006020820190508181036000830152610f608184610ee8565b905092915050565b610f7181610c4b565b82525050565b6000602082019050610f8c6000830184610f68565b92915050565b610f9b81610c4b565b8114610fa657600080fd5b50565b600081359050610fb881610f92565b92915050565b600067ffffffffffffffff821115610fd957610fd8610a8b565b5b602082029050602081019050919050565b600080fd5b6000611002610ffd84610fbe565b610aeb565b9050808382526020820190506020840283018581111561102557611024610fea565b5b835b8181101561104e578061103a8882610d32565b845260208401935050602081019050611027565b5050509392505050565b600082601f83011261106d5761106c610a70565b5b813561107d848260208601610fef565b91505092915050565b600067ffffffffffffffff8211156110a1576110a0610a8b565b5b6110aa82610a7a565b9050602081019050919050565b60006110ca6110c584611086565b610aeb565b9050828152602081018484840111156110e6576110e5610a75565b5b6110f1848285610b37565b509392505050565b600082601f83011261110e5761110d610a70565b5b813561111e8482602086016110b7565b91505092915050565b600080600080600060a0868803121561114357611142610a66565b5b600061115188828901610fa9565b955050602061116288828901610fa9565b945050604086013567ffffffffffffffff81111561118357611182610a6b565b5b61118f88828901611058565b935050606086013567ffffffffffffffff8111156111b0576111af610a6b565b5b6111bc88828901611058565b925050608086013567ffffffffffffffff8111156111dd576111dc610a6b565b5b6111e9888289016110f9565b9150509295509295909350565b6111ff81610da3565b82525050565b600060208201905061121a60008301846111f6565b92915050565b6000806040838503121561123757611236610a66565b5b600083013567ffffffffffffffff81111561125557611254610a6b565b5b61126185828601610b88565b925050602061127285828601610fa9565b9150509250929050565b600080600080600060a0868803121561129857611297610a66565b5b60006112a688828901610fa9565b95505060206112b788828901610fa9565b94505060406112c888828901610d32565b93505060606112d988828901610d32565b925050608086013567ffffffffffffffff8111156112fa576112f9610a6b565b5b611306888289016110f9565b9150509295509295909350565b600061131e82610c2b565b9050919050565b61132e81611313565b811461133957600080fd5b50565b60008135905061134b81611325565b92915050565b6000806040838503121561136857611367610a66565b5b60006113768582860161133c565b925050602061138785828601610d32565b9150509250929050565b600081519050919050565b600081905092915050565b60005b838110156113c55780820151818401526020810190506113aa565b838111156113d4576000848401525b50505050565b60006113e582611391565b6113ef818561139c565b93506113ff8185602086016113a7565b80840191505092915050565b600061141782846113da565b91508190509291505056fea26469706673582212206e7970e8de5e2256125222719c2ee3a0a753c38b4cb64c2d698cc452a7f9520a64736f6c634300080f0033a26469706673582212207011df9295dcf9ab383db5c4e2059824a5767317606e99204ea93118fa8b210d64736f6c634300080f0033",
  "linkReferences": {},
  "deployedLinkReferences": {}
}