{
  "_format": "hh-sol-artifact-1",
  "contractName": "InteliFactory",
  "sourceName": "ethereum/contracts/InteliFactory.sol",
  "abi": [
    {
      "inputs": [],
      "stateMutability": "nonpayable",
      "type": "constructor"
    },
    {
      "inputs": [
        {
          "internalType": "string",
          "name": "_id",
          "type": "string"
        }
      ],
      "name": "createStudent",
      "outputs": [],
      "stateMutability": "nonpayable",
      "type": "function"
    },
    {
      "inputs": [],
      "name": "getArrStudent",
      "outputs": [
        {
          "internalType": "address[]",
          "name": "",
          "type": "address[]"
        }
      ],
      "stateMutability": "view",
      "type": "function"
    },
    {
      "inputs": [
        {
          "internalType": "address",
          "name": "_id",
          "type": "address"
        }
      ],
      "name": "getStudent",
      "outputs": [
        {
          "internalType": "string",
          "name": "",
          "type": "string"
        }
      ],
      "stateMutability": "view",
      "type": "function"
    },
    {
      "inputs": [
        {
          "internalType": "string",
          "name": "_id",
          "type": "string"
        }
      ],
      "name": "getWallet",
      "outputs": [
        {
          "internalType": "address",
          "name": "",
          "type": "address"
        }
      ],
      "stateMutability": "view",
      "type": "function"
    },
    {
      "inputs": [],
      "name": "owner",
      "outputs": [
        {
          "internalType": "address",
          "name": "",
          "type": "address"
        }
      ],
      "stateMutability": "view",
      "type": "function"
    },
    {
      "inputs": [
        {
          "internalType": "string",
          "name": "_id",
          "type": "string"
        }
      ],
      "name": "removeStudent",
      "outputs": [],
      "stateMutability": "nonpayable",
      "type": "function"
    }
  ],
  "bytecode": "0x608060405234801561001057600080fd5b50336000806101000a81548173ffffffffffffffffffffffffffffffffffffffff021916908373ffffffffffffffffffffffffffffffffffffffff160217905550612c72806100606000396000f3fe60806040523480156200001157600080fd5b50600436106200006a5760003560e01c8063082b48ac146200006f5780636b7b44d714620000915780638da5cb5b14620000c7578063a4e2df6614620000e9578063edd6cfb1146200011f578063f80bc664146200013f575b600080fd5b620000796200015f565b60405162000088919062000c4b565b60405180910390f35b620000af6004803603810190620000a9919062000cb4565b62000280565b604051620000be919062000d8a565b60405180910390f35b620000d1620003ea565b604051620000e0919062000dbf565b60405180910390f35b62000107600480360381019062000101919062000f2d565b6200040e565b60405162000116919062000dbf565b60405180910390f35b6200013d600480360381019062000137919062000f2d565b620004e9565b005b6200015d600480360381019062000157919062000f2d565b62000820565b005b60603373ffffffffffffffffffffffffffffffffffffffff1660008054906101000a900473ffffffffffffffffffffffffffffffffffffffff1673ffffffffffffffffffffffffffffffffffffffff1614620001f2576040517f08c379a0000000000000000000000000000000000000000000000000000000008152600401620001e99062000fce565b60405180910390fd5b60038054806020026020016040519081016040528092919081815260200182805480156200027657602002820191906000526020600020905b8160009054906101000a900473ffffffffffffffffffffffffffffffffffffffff1673ffffffffffffffffffffffffffffffffffffffff16815260200190600101908083116200022b575b5050505050905090565b60603373ffffffffffffffffffffffffffffffffffffffff1660008054906101000a900473ffffffffffffffffffffffffffffffffffffffff1673ffffffffffffffffffffffffffffffffffffffff161462000313576040517f08c379a00000000000000000000000000000000000000000000000000000000081526004016200030a9062000fce565b60405180910390fd5b600260008373ffffffffffffffffffffffffffffffffffffffff1673ffffffffffffffffffffffffffffffffffffffff16815260200190815260200160002080546200035f906200101f565b80601f01602080910402602001604051908101604052809291908181526020018280546200038d906200101f565b8015620003de5780601f10620003b257610100808354040283529160200191620003de565b820191906000526020600020905b815481529060010190602001808311620003c057829003601f168201915b50505050509050919050565b60008054906101000a900473ffffffffffffffffffffffffffffffffffffffff1681565b60003373ffffffffffffffffffffffffffffffffffffffff1660008054906101000a900473ffffffffffffffffffffffffffffffffffffffff1673ffffffffffffffffffffffffffffffffffffffff1614620004a1576040517f08c379a0000000000000000000000000000000000000000000000000000000008152600401620004989062000fce565b60405180910390fd5b600182604051620004b3919062001096565b908152602001604051809103902060009054906101000a900473ffffffffffffffffffffffffffffffffffffffff169050919050565b3373ffffffffffffffffffffffffffffffffffffffff1660008054906101000a900473ffffffffffffffffffffffffffffffffffffffff1673ffffffffffffffffffffffffffffffffffffffff16146200057a576040517f08c379a0000000000000000000000000000000000000000000000000000000008152600401620005719062000fce565b60405180910390fd5b600073ffffffffffffffffffffffffffffffffffffffff16600182604051620005a4919062001096565b908152602001604051809103902060009054906101000a900473ffffffffffffffffffffffffffffffffffffffff1673ffffffffffffffffffffffffffffffffffffffff16036200062c576040517f08c379a00000000000000000000000000000000000000000000000000000000081526004016200062390620010ff565b60405180910390fd5b60005b60038054905081106200074c576001826040516200064e919062001096565b908152602001604051809103902060009054906101000a900473ffffffffffffffffffffffffffffffffffffffff1673ffffffffffffffffffffffffffffffffffffffff1660038281548110620006aa57620006a962001121565b5b9060005260206000200160009054906101000a900473ffffffffffffffffffffffffffffffffffffffff1673ffffffffffffffffffffffffffffffffffffffff160362000736576003818154811062000708576200070762001121565b5b9060005260206000200160006101000a81549073ffffffffffffffffffffffffffffffffffffffff02191690555b8080620007439062001189565b9150506200062f565b506002600060018360405162000763919062001096565b908152602001604051809103902060009054906101000a900473ffffffffffffffffffffffffffffffffffffffff1673ffffffffffffffffffffffffffffffffffffffff1673ffffffffffffffffffffffffffffffffffffffff1681526020019081526020016000206000620007da919062000ad6565b600181604051620007ec919062001096565b908152602001604051809103902060006101000a81549073ffffffffffffffffffffffffffffffffffffffff021916905550565b3373ffffffffffffffffffffffffffffffffffffffff1660008054906101000a900473ffffffffffffffffffffffffffffffffffffffff1673ffffffffffffffffffffffffffffffffffffffff1614620008b1576040517f08c379a0000000000000000000000000000000000000000000000000000000008152600401620008a89062000fce565b60405180910390fd5b600073ffffffffffffffffffffffffffffffffffffffff16600182604051620008db919062001096565b908152602001604051809103902060009054906101000a900473ffffffffffffffffffffffffffffffffffffffff1673ffffffffffffffffffffffffffffffffffffffff161462000963576040517f08c379a00000000000000000000000000000000000000000000000000000000081526004016200095a9062001226565b60405180910390fd5b60008060009054906101000a900473ffffffffffffffffffffffffffffffffffffffff16604051620009959062000b1c565b620009a1919062000dbf565b604051809103906000f080158015620009be573d6000803e3d6000fd5b50905080600183604051620009d4919062001096565b908152602001604051809103902060006101000a81548173ffffffffffffffffffffffffffffffffffffffff021916908373ffffffffffffffffffffffffffffffffffffffff16021790555081600260008373ffffffffffffffffffffffffffffffffffffffff1673ffffffffffffffffffffffffffffffffffffffff168152602001908152602001600020908162000a6e91906200141a565b506003819080600181540180825580915050600190039060005260206000200160009091909190916101000a81548173ffffffffffffffffffffffffffffffffffffffff021916908373ffffffffffffffffffffffffffffffffffffffff1602179055505050565b50805462000ae4906200101f565b6000825580601f1062000af8575062000b19565b601f01602090049060005260206000209081019062000b18919062000b2a565b5b50565b61173b806200150283390190565b5b8082111562000b4557600081600090555060010162000b2b565b5090565b600081519050919050565b600082825260208201905092915050565b6000819050602082019050919050565b600073ffffffffffffffffffffffffffffffffffffffff82169050919050565b600062000ba28262000b75565b9050919050565b62000bb48162000b95565b82525050565b600062000bc8838362000ba9565b60208301905092915050565b6000602082019050919050565b600062000bee8262000b49565b62000bfa818562000b54565b935062000c078362000b65565b8060005b8381101562000c3e57815162000c22888262000bba565b975062000c2f8362000bd4565b92505060018101905062000c0b565b5085935050505092915050565b6000602082019050818103600083015262000c67818462000be1565b905092915050565b6000604051905090565b600080fd5b600080fd5b62000c8e8162000b95565b811462000c9a57600080fd5b50565b60008135905062000cae8162000c83565b92915050565b60006020828403121562000ccd5762000ccc62000c79565b5b600062000cdd8482850162000c9d565b91505092915050565b600081519050919050565b600082825260208201905092915050565b60005b8381101562000d2257808201518184015260208101905062000d05565b8381111562000d32576000848401525b50505050565b6000601f19601f8301169050919050565b600062000d568262000ce6565b62000d62818562000cf1565b935062000d7481856020860162000d02565b62000d7f8162000d38565b840191505092915050565b6000602082019050818103600083015262000da6818462000d49565b905092915050565b62000db98162000b95565b82525050565b600060208201905062000dd6600083018462000dae565b92915050565b600080fd5b600080fd5b7f4e487b7100000000000000000000000000000000000000000000000000000000600052604160045260246000fd5b62000e208262000d38565b810181811067ffffffffffffffff8211171562000e425762000e4162000de6565b5b80604052505050565b600062000e5762000c6f565b905062000e65828262000e15565b919050565b600067ffffffffffffffff82111562000e885762000e8762000de6565b5b62000e938262000d38565b9050602081019050919050565b82818337600083830152505050565b600062000ec662000ec08462000e6a565b62000e4b565b90508281526020810184848401111562000ee55762000ee462000de1565b5b62000ef284828562000ea0565b509392505050565b600082601f83011262000f125762000f1162000ddc565b5b813562000f2484826020860162000eaf565b91505092915050565b60006020828403121562000f465762000f4562000c79565b5b600082013567ffffffffffffffff81111562000f675762000f6662000c7e565b5b62000f758482850162000efa565b91505092915050565b7f4e6f74206f776e65720000000000000000000000000000000000000000000000600082015250565b600062000fb660098362000cf1565b915062000fc38262000f7e565b602082019050919050565b6000602082019050818103600083015262000fe98162000fa7565b9050919050565b7f4e487b7100000000000000000000000000000000000000000000000000000000600052602260045260246000fd5b600060028204905060018216806200103857607f821691505b6020821081036200104e576200104d62000ff0565b5b50919050565b600081905092915050565b60006200106c8262000ce6565b62001078818562001054565b93506200108a81856020860162000d02565b80840191505092915050565b6000620010a482846200105f565b915081905092915050565b7f53747564656e7420646f6573206e6f7420657869737400000000000000000000600082015250565b6000620010e760168362000cf1565b9150620010f482620010af565b602082019050919050565b600060208201905081810360008301526200111a81620010d8565b9050919050565b7f4e487b7100000000000000000000000000000000000000000000000000000000600052603260045260246000fd5b7f4e487b7100000000000000000000000000000000000000000000000000000000600052601160045260246000fd5b6000819050919050565b600062001196826200117f565b91507fffffffffffffffffffffffffffffffffffffffffffffffffffffffffffffffff8203620011cb57620011ca62001150565b5b600182019050919050565b7f53747564656e7420616c72656164792065786973747300000000000000000000600082015250565b60006200120e60168362000cf1565b91506200121b82620011d6565b602082019050919050565b600060208201905081810360008301526200124181620011ff565b9050919050565b60008190508160005260206000209050919050565b60006020601f8301049050919050565b600082821b905092915050565b600060088302620012ac7fffffffffffffffffffffffffffffffffffffffffffffffffffffffffffffffff826200126d565b620012b886836200126d565b95508019841693508086168417925050509392505050565b6000819050919050565b6000620012fb620012f5620012ef846200117f565b620012d0565b6200117f565b9050919050565b6000819050919050565b6200131783620012da565b6200132f620013268262001302565b8484546200127a565b825550505050565b600090565b6200134662001337565b620013538184846200130c565b505050565b5b818110156200137b576200136f6000826200133c565b60018101905062001359565b5050565b601f821115620013ca57620013948162001248565b6200139f846200125d565b81016020851015620013af578190505b620013c7620013be856200125d565b83018262001358565b50505b505050565b600082821c905092915050565b6000620013ef60001984600802620013cf565b1980831691505092915050565b60006200140a8383620013dc565b9150826002028217905092915050565b620014258262000ce6565b67ffffffffffffffff81111562001441576200144062000de6565b5b6200144d82546200101f565b6200145a8282856200137f565b600060209050601f8311600181146200149257600084156200147d578287015190505b620014898582620013fc565b865550620014f9565b601f198416620014a28662001248565b60005b82811015620014cc57848901518255600182019150602085019450602081019050620014a5565b86831015620014ec5784890151620014e8601f891682620013dc565b8355505b6001600288020188555050505b50505050505056fe60806040523480156200001157600080fd5b506040516200173b3803806200173b8339818101604052810190620000379190620000e8565b806000806101000a81548173ffffffffffffffffffffffffffffffffffffffff021916908373ffffffffffffffffffffffffffffffffffffffff160217905550506200011a565b600080fd5b600073ffffffffffffffffffffffffffffffffffffffff82169050919050565b6000620000b08262000083565b9050919050565b620000c281620000a3565b8114620000ce57600080fd5b50565b600081519050620000e281620000b7565b92915050565b6000602082840312156200010157620001006200007e565b5b60006200011184828501620000d1565b91505092915050565b611611806200012a6000396000f3fe608060405234801561001057600080fd5b50600436106100b35760003560e01c8063bc197c8111610071578063bc197c81146101b2578063bdeb5fc4146101e2578063bf3c80c5146101ec578063db43775a14610208578063e0ca430114610224578063f23a6e6114610254576100b3565b8062b91f1a146100b857806301ffc9a7146100e85780631961b32f1461011857806330683f52146101485780638da5cb5b14610178578063a10d0b0914610196575b600080fd5b6100d260048036038101906100cd9190610cfe565b610284565b6040516100df9190610e37565b60405180910390f35b61010260048036038101906100fd9190610eb1565b6103be565b60405161010f9190610ef9565b60405180910390f35b610132600480360381019061012d9190610cfe565b610438565b60405161013f9190610fe6565b60405180910390f35b610162600480360381019061015d919061103e565b610570565b60405161016f91906110a9565b60405180910390f35b6101806105d4565b60405161018d91906110a9565b60405180910390f35b6101b060048036038101906101ab91906110f0565b6105f8565b005b6101cc60048036038101906101c791906112e1565b6106fc565b6040516101d991906113bf565b60405180910390f35b6101ea610711565b005b610206600480360381019061020191906110f0565b6107d8565b005b610222600480360381019061021d91906113da565b6108dc565b005b61023e60048036038101906102399190610cfe565b6109ed565b60405161024b9190610fe6565b60405180910390f35b61026e60048036038101906102699190611436565b610b25565b60405161027b91906113bf565b60405180910390f35b60603373ffffffffffffffffffffffffffffffffffffffff1660008054906101000a900473ffffffffffffffffffffffffffffffffffffffff1673ffffffffffffffffffffffffffffffffffffffff1614610314576040517f08c379a000000000000000000000000000000000000000000000000000000000815260040161030b9061152a565b60405180910390fd5b60038260405161032491906115c4565b90815260200160405180910390208054806020026020016040519081016040528092919081815260200182805480156103b257602002820191906000526020600020905b8160009054906101000a900473ffffffffffffffffffffffffffffffffffffffff1673ffffffffffffffffffffffffffffffffffffffff1681526020019060010190808311610368575b50505050509050919050565b60007f4e2312e0000000000000000000000000000000000000000000000000000000007bffffffffffffffffffffffffffffffffffffffffffffffffffffffff1916827bffffffffffffffffffffffffffffffffffffffffffffffffffffffff19161480610431575061043082610b3a565b5b9050919050565b60603373ffffffffffffffffffffffffffffffffffffffff1660008054906101000a900473ffffffffffffffffffffffffffffffffffffffff1673ffffffffffffffffffffffffffffffffffffffff16146104c8576040517f08c379a00000000000000000000000000000000000000000000000000000000081526004016104bf9061152a565b60405180910390fd5b6001826040516104d891906115c4565b908152602001604051809103902080548060200260200160405190810160405280929190818152602001828054801561056457602002820191906000526020600020906000905b82829054906101000a900467ffffffffffffffff1667ffffffffffffffff168152602001906008019060208260070104928301926001038202915080841161051f5790505b50505050509050919050565b60038280516020810182018051848252602083016020850120818352809550505050505081815481106105a257600080fd5b906000526020600020016000915091509054906101000a900473ffffffffffffffffffffffffffffffffffffffff1681565b60008054906101000a900473ffffffffffffffffffffffffffffffffffffffff1681565b3373ffffffffffffffffffffffffffffffffffffffff1660008054906101000a900473ffffffffffffffffffffffffffffffffffffffff1673ffffffffffffffffffffffffffffffffffffffff1614610686576040517f08c379a000000000000000000000000000000000000000000000000000000000815260040161067d9061152a565b60405180910390fd5b60028260405161069691906115c4565b90815260200160405180910390208190806001815401808255809150506001900390600052602060002090600491828204019190066008029091909190916101000a81548167ffffffffffffffff021916908367ffffffffffffffff1602179055505050565b600063bc197c8160e01b905095945050505050565b3373ffffffffffffffffffffffffffffffffffffffff1660008054906101000a900473ffffffffffffffffffffffffffffffffffffffff1673ffffffffffffffffffffffffffffffffffffffff161461079f576040517f08c379a00000000000000000000000000000000000000000000000000000000081526004016107969061152a565b60405180910390fd5b60008054906101000a900473ffffffffffffffffffffffffffffffffffffffff1673ffffffffffffffffffffffffffffffffffffffff16ff5b3373ffffffffffffffffffffffffffffffffffffffff1660008054906101000a900473ffffffffffffffffffffffffffffffffffffffff1673ffffffffffffffffffffffffffffffffffffffff1614610866576040517f08c379a000000000000000000000000000000000000000000000000000000000815260040161085d9061152a565b60405180910390fd5b60018260405161087691906115c4565b90815260200160405180910390208190806001815401808255809150506001900390600052602060002090600491828204019190066008029091909190916101000a81548167ffffffffffffffff021916908367ffffffffffffffff1602179055505050565b3373ffffffffffffffffffffffffffffffffffffffff1660008054906101000a900473ffffffffffffffffffffffffffffffffffffffff1673ffffffffffffffffffffffffffffffffffffffff161461096a576040517f08c379a00000000000000000000000000000000000000000000000000000000081526004016109619061152a565b60405180910390fd5b60038260405161097a91906115c4565b9081526020016040518091039020819080600181540180825580915050600190039060005260206000200160009091909190916101000a81548173ffffffffffffffffffffffffffffffffffffffff021916908373ffffffffffffffffffffffffffffffffffffffff1602179055505050565b60603373ffffffffffffffffffffffffffffffffffffffff1660008054906101000a900473ffffffffffffffffffffffffffffffffffffffff1673ffffffffffffffffffffffffffffffffffffffff1614610a7d576040517f08c379a0000000000000000000000000000000000000000000000000000000008152600401610a749061152a565b60405180910390fd5b600282604051610a8d91906115c4565b9081526020016040518091039020805480602002602001604051908101604052809291908181526020018280548015610b1957602002820191906000526020600020906000905b82829054906101000a900467ffffffffffffffff1667ffffffffffffffff1681526020019060080190602082600701049283019260010382029150808411610ad45790505b50505050509050919050565b600063f23a6e6160e01b905095945050505050565b60007f01ffc9a7000000000000000000000000000000000000000000000000000000007bffffffffffffffffffffffffffffffffffffffffffffffffffffffff1916827bffffffffffffffffffffffffffffffffffffffffffffffffffffffff1916149050919050565b6000604051905090565b600080fd5b600080fd5b600080fd5b600080fd5b6000601f19601f8301169050919050565b7f4e487b7100000000000000000000000000000000000000000000000000000000600052604160045260246000fd5b610c0b82610bc2565b810181811067ffffffffffffffff82111715610c2a57610c29610bd3565b5b80604052505050565b6000610c3d610ba4565b9050610c498282610c02565b919050565b600067ffffffffffffffff821115610c6957610c68610bd3565b5b610c7282610bc2565b9050602081019050919050565b82818337600083830152505050565b6000610ca1610c9c84610c4e565b610c33565b905082815260208101848484011115610cbd57610cbc610bbd565b5b610cc8848285610c7f565b509392505050565b600082601f830112610ce557610ce4610bb8565b5b8135610cf5848260208601610c8e565b91505092915050565b600060208284031215610d1457610d13610bae565b5b600082013567ffffffffffffffff811115610d3257610d31610bb3565b5b610d3e84828501610cd0565b91505092915050565b600081519050919050565b600082825260208201905092915050565b6000819050602082019050919050565b600073ffffffffffffffffffffffffffffffffffffffff82169050919050565b6000610d9e82610d73565b9050919050565b610dae81610d93565b82525050565b6000610dc08383610da5565b60208301905092915050565b6000602082019050919050565b6000610de482610d47565b610dee8185610d52565b9350610df983610d63565b8060005b83811015610e2a578151610e118882610db4565b9750610e1c83610dcc565b925050600181019050610dfd565b5085935050505092915050565b60006020820190508181036000830152610e518184610dd9565b905092915050565b60007fffffffff0000000000000000000000000000000000000000000000000000000082169050919050565b610e8e81610e59565b8114610e9957600080fd5b50565b600081359050610eab81610e85565b92915050565b600060208284031215610ec757610ec6610bae565b5b6000610ed584828501610e9c565b91505092915050565b60008115159050919050565b610ef381610ede565b82525050565b6000602082019050610f0e6000830184610eea565b92915050565b600081519050919050565b600082825260208201905092915050565b6000819050602082019050919050565b600067ffffffffffffffff82169050919050565b610f5d81610f40565b82525050565b6000610f6f8383610f54565b60208301905092915050565b6000602082019050919050565b6000610f9382610f14565b610f9d8185610f1f565b9350610fa883610f30565b8060005b83811015610fd9578151610fc08882610f63565b9750610fcb83610f7b565b925050600181019050610fac565b5085935050505092915050565b600060208201905081810360008301526110008184610f88565b905092915050565b6000819050919050565b61101b81611008565b811461102657600080fd5b50565b60008135905061103881611012565b92915050565b6000806040838503121561105557611054610bae565b5b600083013567ffffffffffffffff81111561107357611072610bb3565b5b61107f85828601610cd0565b925050602061109085828601611029565b9150509250929050565b6110a381610d93565b82525050565b60006020820190506110be600083018461109a565b92915050565b6110cd81610f40565b81146110d857600080fd5b50565b6000813590506110ea816110c4565b92915050565b6000806040838503121561110757611106610bae565b5b600083013567ffffffffffffffff81111561112557611124610bb3565b5b61113185828601610cd0565b9250506020611142858286016110db565b9150509250929050565b61115581610d93565b811461116057600080fd5b50565b6000813590506111728161114c565b92915050565b600067ffffffffffffffff82111561119357611192610bd3565b5b602082029050602081019050919050565b600080fd5b60006111bc6111b784611178565b610c33565b905080838252602082019050602084028301858111156111df576111de6111a4565b5b835b8181101561120857806111f48882611029565b8452602084019350506020810190506111e1565b5050509392505050565b600082601f83011261122757611226610bb8565b5b81356112378482602086016111a9565b91505092915050565b600067ffffffffffffffff82111561125b5761125a610bd3565b5b61126482610bc2565b9050602081019050919050565b600061128461127f84611240565b610c33565b9050828152602081018484840111156112a05761129f610bbd565b5b6112ab848285610c7f565b509392505050565b600082601f8301126112c8576112c7610bb8565b5b81356112d8848260208601611271565b91505092915050565b600080600080600060a086880312156112fd576112fc610bae565b5b600061130b88828901611163565b955050602061131c88828901611163565b945050604086013567ffffffffffffffff81111561133d5761133c610bb3565b5b61134988828901611212565b935050606086013567ffffffffffffffff81111561136a57611369610bb3565b5b61137688828901611212565b925050608086013567ffffffffffffffff81111561139757611396610bb3565b5b6113a3888289016112b3565b9150509295509295909350565b6113b981610e59565b82525050565b60006020820190506113d460008301846113b0565b92915050565b600080604083850312156113f1576113f0610bae565b5b600083013567ffffffffffffffff81111561140f5761140e610bb3565b5b61141b85828601610cd0565b925050602061142c85828601611163565b9150509250929050565b600080600080600060a0868803121561145257611451610bae565b5b600061146088828901611163565b955050602061147188828901611163565b945050604061148288828901611029565b935050606061149388828901611029565b925050608086013567ffffffffffffffff8111156114b4576114b3610bb3565b5b6114c0888289016112b3565b9150509295509295909350565b600082825260208201905092915050565b7f4e6f74206f776e65720000000000000000000000000000000000000000000000600082015250565b60006115146009836114cd565b915061151f826114de565b602082019050919050565b6000602082019050818103600083015261154381611507565b9050919050565b600081519050919050565b600081905092915050565b60005b8381101561157e578082015181840152602081019050611563565b8381111561158d576000848401525b50505050565b600061159e8261154a565b6115a88185611555565b93506115b8818560208601611560565b80840191505092915050565b60006115d08284611593565b91508190509291505056fea264697066735822122008cd3ef0a942bc367ff3c8a61cc107825103499feb9b8ace5748eba7cf25c3f464736f6c634300080f0033a264697066735822122039df6070f2454ff724e7d483d3cf72ca378cba720cae371727f8cbd99cb495e464736f6c634300080f0033",
  "linkReferences": {},
  "deployedLinkReferences": {}
}