{
  "_format": "hh-sol-artifact-1",
  "contractName": "InteliFactory",
  "sourceName": "ethereum/contracts/InteliFactory.sol",
  "abi": [
    {
      "inputs": [],
      "stateMutability": "nonpayable",
      "type": "constructor"
    },
    {
      "inputs": [
        {
          "internalType": "string",
          "name": "_id",
          "type": "string"
        }
      ],
      "name": "createStudent",
      "outputs": [],
      "stateMutability": "nonpayable",
      "type": "function"
    },
    {
      "inputs": [],
      "name": "getArrStudent",
      "outputs": [
        {
          "internalType": "address[]",
          "name": "",
          "type": "address[]"
        }
      ],
      "stateMutability": "view",
      "type": "function"
    },
    {
      "inputs": [
        {
          "internalType": "address",
          "name": "_id",
          "type": "address"
        }
      ],
      "name": "getStudent",
      "outputs": [
        {
          "internalType": "string",
          "name": "",
          "type": "string"
        }
      ],
      "stateMutability": "view",
      "type": "function"
    },
    {
      "inputs": [
        {
          "internalType": "string",
          "name": "_id",
          "type": "string"
        }
      ],
      "name": "getWallet",
      "outputs": [
        {
          "internalType": "address",
          "name": "",
          "type": "address"
        }
      ],
      "stateMutability": "view",
      "type": "function"
    },
    {
      "inputs": [],
      "name": "owner",
      "outputs": [
        {
          "internalType": "address",
          "name": "",
          "type": "address"
        }
      ],
      "stateMutability": "view",
      "type": "function"
    },
    {
      "inputs": [
        {
          "internalType": "string",
          "name": "_id",
          "type": "string"
        }
      ],
      "name": "removeStudent",
      "outputs": [],
      "stateMutability": "nonpayable",
      "type": "function"
    }
  ],
  "bytecode": "0x608060405234801561001057600080fd5b50336000806101000a81548173ffffffffffffffffffffffffffffffffffffffff021916908373ffffffffffffffffffffffffffffffffffffffff160217905550612fdc806100606000396000f3fe60806040523480156200001157600080fd5b50600436106200006a5760003560e01c8063082b48ac146200006f5780636b7b44d714620000915780638da5cb5b14620000c7578063a4e2df6614620000e9578063edd6cfb1146200011f578063f80bc664146200013f575b600080fd5b620000796200015f565b60405162000088919062000c4b565b60405180910390f35b620000af6004803603810190620000a9919062000cb4565b62000280565b604051620000be919062000d8a565b60405180910390f35b620000d1620003ea565b604051620000e0919062000dbf565b60405180910390f35b62000107600480360381019062000101919062000f2d565b6200040e565b60405162000116919062000dbf565b60405180910390f35b6200013d600480360381019062000137919062000f2d565b620004e9565b005b6200015d600480360381019062000157919062000f2d565b62000820565b005b60603373ffffffffffffffffffffffffffffffffffffffff1660008054906101000a900473ffffffffffffffffffffffffffffffffffffffff1673ffffffffffffffffffffffffffffffffffffffff1614620001f2576040517f08c379a0000000000000000000000000000000000000000000000000000000008152600401620001e99062000fce565b60405180910390fd5b60038054806020026020016040519081016040528092919081815260200182805480156200027657602002820191906000526020600020905b8160009054906101000a900473ffffffffffffffffffffffffffffffffffffffff1673ffffffffffffffffffffffffffffffffffffffff16815260200190600101908083116200022b575b5050505050905090565b60603373ffffffffffffffffffffffffffffffffffffffff1660008054906101000a900473ffffffffffffffffffffffffffffffffffffffff1673ffffffffffffffffffffffffffffffffffffffff161462000313576040517f08c379a00000000000000000000000000000000000000000000000000000000081526004016200030a9062000fce565b60405180910390fd5b600260008373ffffffffffffffffffffffffffffffffffffffff1673ffffffffffffffffffffffffffffffffffffffff16815260200190815260200160002080546200035f906200101f565b80601f01602080910402602001604051908101604052809291908181526020018280546200038d906200101f565b8015620003de5780601f10620003b257610100808354040283529160200191620003de565b820191906000526020600020905b815481529060010190602001808311620003c057829003601f168201915b50505050509050919050565b60008054906101000a900473ffffffffffffffffffffffffffffffffffffffff1681565b60003373ffffffffffffffffffffffffffffffffffffffff1660008054906101000a900473ffffffffffffffffffffffffffffffffffffffff1673ffffffffffffffffffffffffffffffffffffffff1614620004a1576040517f08c379a0000000000000000000000000000000000000000000000000000000008152600401620004989062000fce565b60405180910390fd5b600182604051620004b3919062001096565b908152602001604051809103902060009054906101000a900473ffffffffffffffffffffffffffffffffffffffff169050919050565b3373ffffffffffffffffffffffffffffffffffffffff1660008054906101000a900473ffffffffffffffffffffffffffffffffffffffff1673ffffffffffffffffffffffffffffffffffffffff16146200057a576040517f08c379a0000000000000000000000000000000000000000000000000000000008152600401620005719062000fce565b60405180910390fd5b600073ffffffffffffffffffffffffffffffffffffffff16600182604051620005a4919062001096565b908152602001604051809103902060009054906101000a900473ffffffffffffffffffffffffffffffffffffffff1673ffffffffffffffffffffffffffffffffffffffff16036200062c576040517f08c379a00000000000000000000000000000000000000000000000000000000081526004016200062390620010ff565b60405180910390fd5b60005b60038054905081106200074c576001826040516200064e919062001096565b908152602001604051809103902060009054906101000a900473ffffffffffffffffffffffffffffffffffffffff1673ffffffffffffffffffffffffffffffffffffffff1660038281548110620006aa57620006a962001121565b5b9060005260206000200160009054906101000a900473ffffffffffffffffffffffffffffffffffffffff1673ffffffffffffffffffffffffffffffffffffffff160362000736576003818154811062000708576200070762001121565b5b9060005260206000200160006101000a81549073ffffffffffffffffffffffffffffffffffffffff02191690555b8080620007439062001189565b9150506200062f565b506002600060018360405162000763919062001096565b908152602001604051809103902060009054906101000a900473ffffffffffffffffffffffffffffffffffffffff1673ffffffffffffffffffffffffffffffffffffffff1673ffffffffffffffffffffffffffffffffffffffff1681526020019081526020016000206000620007da919062000ad6565b600181604051620007ec919062001096565b908152602001604051809103902060006101000a81549073ffffffffffffffffffffffffffffffffffffffff021916905550565b3373ffffffffffffffffffffffffffffffffffffffff1660008054906101000a900473ffffffffffffffffffffffffffffffffffffffff1673ffffffffffffffffffffffffffffffffffffffff1614620008b1576040517f08c379a0000000000000000000000000000000000000000000000000000000008152600401620008a89062000fce565b60405180910390fd5b600073ffffffffffffffffffffffffffffffffffffffff16600182604051620008db919062001096565b908152602001604051809103902060009054906101000a900473ffffffffffffffffffffffffffffffffffffffff1673ffffffffffffffffffffffffffffffffffffffff161462000963576040517f08c379a00000000000000000000000000000000000000000000000000000000081526004016200095a9062001226565b60405180910390fd5b60008060009054906101000a900473ffffffffffffffffffffffffffffffffffffffff16604051620009959062000b1c565b620009a1919062000dbf565b604051809103906000f080158015620009be573d6000803e3d6000fd5b50905080600183604051620009d4919062001096565b908152602001604051809103902060006101000a81548173ffffffffffffffffffffffffffffffffffffffff021916908373ffffffffffffffffffffffffffffffffffffffff16021790555081600260008373ffffffffffffffffffffffffffffffffffffffff1673ffffffffffffffffffffffffffffffffffffffff168152602001908152602001600020908162000a6e91906200141a565b506003819080600181540180825580915050600190039060005260206000200160009091909190916101000a81548173ffffffffffffffffffffffffffffffffffffffff021916908373ffffffffffffffffffffffffffffffffffffffff1602179055505050565b50805462000ae4906200101f565b6000825580601f1062000af8575062000b19565b601f01602090049060005260206000209081019062000b18919062000b2a565b5b50565b611aa5806200150283390190565b5b8082111562000b4557600081600090555060010162000b2b565b5090565b600081519050919050565b600082825260208201905092915050565b6000819050602082019050919050565b600073ffffffffffffffffffffffffffffffffffffffff82169050919050565b600062000ba28262000b75565b9050919050565b62000bb48162000b95565b82525050565b600062000bc8838362000ba9565b60208301905092915050565b6000602082019050919050565b600062000bee8262000b49565b62000bfa818562000b54565b935062000c078362000b65565b8060005b8381101562000c3e57815162000c22888262000bba565b975062000c2f8362000bd4565b92505060018101905062000c0b565b5085935050505092915050565b6000602082019050818103600083015262000c67818462000be1565b905092915050565b6000604051905090565b600080fd5b600080fd5b62000c8e8162000b95565b811462000c9a57600080fd5b50565b60008135905062000cae8162000c83565b92915050565b60006020828403121562000ccd5762000ccc62000c79565b5b600062000cdd8482850162000c9d565b91505092915050565b600081519050919050565b600082825260208201905092915050565b60005b8381101562000d2257808201518184015260208101905062000d05565b8381111562000d32576000848401525b50505050565b6000601f19601f8301169050919050565b600062000d568262000ce6565b62000d62818562000cf1565b935062000d7481856020860162000d02565b62000d7f8162000d38565b840191505092915050565b6000602082019050818103600083015262000da6818462000d49565b905092915050565b62000db98162000b95565b82525050565b600060208201905062000dd6600083018462000dae565b92915050565b600080fd5b600080fd5b7f4e487b7100000000000000000000000000000000000000000000000000000000600052604160045260246000fd5b62000e208262000d38565b810181811067ffffffffffffffff8211171562000e425762000e4162000de6565b5b80604052505050565b600062000e5762000c6f565b905062000e65828262000e15565b919050565b600067ffffffffffffffff82111562000e885762000e8762000de6565b5b62000e938262000d38565b9050602081019050919050565b82818337600083830152505050565b600062000ec662000ec08462000e6a565b62000e4b565b90508281526020810184848401111562000ee55762000ee462000de1565b5b62000ef284828562000ea0565b509392505050565b600082601f83011262000f125762000f1162000ddc565b5b813562000f2484826020860162000eaf565b91505092915050565b60006020828403121562000f465762000f4562000c79565b5b600082013567ffffffffffffffff81111562000f675762000f6662000c7e565b5b62000f758482850162000efa565b91505092915050565b7f4e6f74206f776e65720000000000000000000000000000000000000000000000600082015250565b600062000fb660098362000cf1565b915062000fc38262000f7e565b602082019050919050565b6000602082019050818103600083015262000fe98162000fa7565b9050919050565b7f4e487b7100000000000000000000000000000000000000000000000000000000600052602260045260246000fd5b600060028204905060018216806200103857607f821691505b6020821081036200104e576200104d62000ff0565b5b50919050565b600081905092915050565b60006200106c8262000ce6565b62001078818562001054565b93506200108a81856020860162000d02565b80840191505092915050565b6000620010a482846200105f565b915081905092915050565b7f53747564656e7420646f6573206e6f7420657869737400000000000000000000600082015250565b6000620010e760168362000cf1565b9150620010f482620010af565b602082019050919050565b600060208201905081810360008301526200111a81620010d8565b9050919050565b7f4e487b7100000000000000000000000000000000000000000000000000000000600052603260045260246000fd5b7f4e487b7100000000000000000000000000000000000000000000000000000000600052601160045260246000fd5b6000819050919050565b600062001196826200117f565b91507fffffffffffffffffffffffffffffffffffffffffffffffffffffffffffffffff8203620011cb57620011ca62001150565b5b600182019050919050565b7f53747564656e7420616c72656164792065786973747300000000000000000000600082015250565b60006200120e60168362000cf1565b91506200121b82620011d6565b602082019050919050565b600060208201905081810360008301526200124181620011ff565b9050919050565b60008190508160005260206000209050919050565b60006020601f8301049050919050565b600082821b905092915050565b600060088302620012ac7fffffffffffffffffffffffffffffffffffffffffffffffffffffffffffffffff826200126d565b620012b886836200126d565b95508019841693508086168417925050509392505050565b6000819050919050565b6000620012fb620012f5620012ef846200117f565b620012d0565b6200117f565b9050919050565b6000819050919050565b6200131783620012da565b6200132f620013268262001302565b8484546200127a565b825550505050565b600090565b6200134662001337565b620013538184846200130c565b505050565b5b818110156200137b576200136f6000826200133c565b60018101905062001359565b5050565b601f821115620013ca57620013948162001248565b6200139f846200125d565b81016020851015620013af578190505b620013c7620013be856200125d565b83018262001358565b50505b505050565b600082821c905092915050565b6000620013ef60001984600802620013cf565b1980831691505092915050565b60006200140a8383620013dc565b9150826002028217905092915050565b620014258262000ce6565b67ffffffffffffffff81111562001441576200144062000de6565b5b6200144d82546200101f565b6200145a8282856200137f565b600060209050601f8311600181146200149257600084156200147d578287015190505b620014898582620013fc565b865550620014f9565b601f198416620014a28662001248565b60005b82811015620014cc57848901518255600182019150602085019450602081019050620014a5565b86831015620014ec5784890151620014e8601f891682620013dc565b8355505b6001600288020188555050505b50505050505056fe60806040523480156200001157600080fd5b5060405162001aa538038062001aa58339818101604052810190620000379190620000e8565b806000806101000a81548173ffffffffffffffffffffffffffffffffffffffff021916908373ffffffffffffffffffffffffffffffffffffffff160217905550506200011a565b600080fd5b600073ffffffffffffffffffffffffffffffffffffffff82169050919050565b6000620000b08262000083565b9050919050565b620000c281620000a3565b8114620000ce57600080fd5b50565b600081519050620000e281620000b7565b92915050565b6000602082840312156200010157620001006200007e565b5b60006200011184828501620000d1565b91505092915050565b61197b806200012a6000396000f3fe608060405234801561001057600080fd5b50600436106100a85760003560e01c8063bc197c8111610071578063bc197c811461018a578063bdeb5fc4146101ba578063bf3c80c5146101c4578063c9629404146101e0578063e0ca4301146101fc578063f23a6e611461022c576100a8565b8062b91f1a146100ad57806301ffc9a7146100dd5780631961b32f1461010d57806330683f521461013d578063a10d0b091461016e575b600080fd5b6100c760048036038101906100c29190610cdf565b61025c565b6040516100d49190610ef0565b60405180910390f35b6100f760048036038101906100f29190610f6a565b610419565b6040516101049190610fb2565b60405180910390f35b61012760048036038101906101229190610cdf565b610493565b604051610134919061109f565b60405180910390f35b610157600480360381019061015291906110f7565b610595565b6040516101659291906111ac565b60405180910390f35b61018860048036038101906101839190611208565b610694565b005b6101a4600480360381019061019f91906113f9565b610762565b6040516101b191906114d7565b60405180910390f35b6101c2610777565b005b6101de60048036038101906101d99190611208565b610808565b005b6101fa60048036038101906101f591906114f2565b6108d6565b005b61021660048036038101906102119190610cdf565b610a04565b604051610223919061109f565b60405180910390f35b6102466004803603810190610241919061157d565b610b06565b60405161025391906114d7565b60405180910390f35b606060008054906101000a900473ffffffffffffffffffffffffffffffffffffffff1673ffffffffffffffffffffffffffffffffffffffff163373ffffffffffffffffffffffffffffffffffffffff16146102b657600080fd5b6003826040516102c69190611650565b9081526020016040518091039020805480602002602001604051908101604052809291908181526020016000905b8282101561040e578382906000526020600020906002020160405180604001604052908160008201805461032790611696565b80601f016020809104026020016040519081016040528092919081815260200182805461035390611696565b80156103a05780601f10610375576101008083540402835291602001916103a0565b820191906000526020600020905b81548152906001019060200180831161038357829003601f168201915b505050505081526020016001820160009054906101000a900473ffffffffffffffffffffffffffffffffffffffff1673ffffffffffffffffffffffffffffffffffffffff1673ffffffffffffffffffffffffffffffffffffffff1681525050815260200190600101906102f4565b505050509050919050565b60007f4e2312e0000000000000000000000000000000000000000000000000000000007bffffffffffffffffffffffffffffffffffffffffffffffffffffffff1916827bffffffffffffffffffffffffffffffffffffffffffffffffffffffff1916148061048c575061048b82610b1b565b5b9050919050565b606060008054906101000a900473ffffffffffffffffffffffffffffffffffffffff1673ffffffffffffffffffffffffffffffffffffffff163373ffffffffffffffffffffffffffffffffffffffff16146104ed57600080fd5b6001826040516104fd9190611650565b908152602001604051809103902080548060200260200160405190810160405280929190818152602001828054801561058957602002820191906000526020600020906000905b82829054906101000a900467ffffffffffffffff1667ffffffffffffffff16815260200190600801906020826007010492830192600103820291508084116105445790505b50505050509050919050565b60038280516020810182018051848252602083016020850120818352809550505050505081815481106105c757600080fd5b9060005260206000209060020201600091509150508060000180546105eb90611696565b80601f016020809104026020016040519081016040528092919081815260200182805461061790611696565b80156106645780601f1061063957610100808354040283529160200191610664565b820191906000526020600020905b81548152906001019060200180831161064757829003601f168201915b5050505050908060010160009054906101000a900473ffffffffffffffffffffffffffffffffffffffff16905082565b60008054906101000a900473ffffffffffffffffffffffffffffffffffffffff1673ffffffffffffffffffffffffffffffffffffffff163373ffffffffffffffffffffffffffffffffffffffff16146106ec57600080fd5b6002826040516106fc9190611650565b90815260200160405180910390208190806001815401808255809150506001900390600052602060002090600491828204019190066008029091909190916101000a81548167ffffffffffffffff021916908367ffffffffffffffff1602179055505050565b600063bc197c8160e01b905095945050505050565b60008054906101000a900473ffffffffffffffffffffffffffffffffffffffff1673ffffffffffffffffffffffffffffffffffffffff163373ffffffffffffffffffffffffffffffffffffffff16146107cf57600080fd5b60008054906101000a900473ffffffffffffffffffffffffffffffffffffffff1673ffffffffffffffffffffffffffffffffffffffff16ff5b60008054906101000a900473ffffffffffffffffffffffffffffffffffffffff1673ffffffffffffffffffffffffffffffffffffffff163373ffffffffffffffffffffffffffffffffffffffff161461086057600080fd5b6001826040516108709190611650565b90815260200160405180910390208190806001815401808255809150506001900390600052602060002090600491828204019190066008029091909190916101000a81548167ffffffffffffffff021916908367ffffffffffffffff1602179055505050565b60008054906101000a900473ffffffffffffffffffffffffffffffffffffffff1673ffffffffffffffffffffffffffffffffffffffff163373ffffffffffffffffffffffffffffffffffffffff161461092e57600080fd5b60038360405161093e9190611650565b908152602001604051809103902060405180604001604052808481526020018373ffffffffffffffffffffffffffffffffffffffff16815250908060018154018082558091505060019003906000526020600020906002020160009091909190915060008201518160000190816109b59190611873565b5060208201518160010160006101000a81548173ffffffffffffffffffffffffffffffffffffffff021916908373ffffffffffffffffffffffffffffffffffffffff1602179055505050505050565b606060008054906101000a900473ffffffffffffffffffffffffffffffffffffffff1673ffffffffffffffffffffffffffffffffffffffff163373ffffffffffffffffffffffffffffffffffffffff1614610a5e57600080fd5b600282604051610a6e9190611650565b9081526020016040518091039020805480602002602001604051908101604052809291908181526020018280548015610afa57602002820191906000526020600020906000905b82829054906101000a900467ffffffffffffffff1667ffffffffffffffff1681526020019060080190602082600701049283019260010382029150808411610ab55790505b50505050509050919050565b600063f23a6e6160e01b905095945050505050565b60007f01ffc9a7000000000000000000000000000000000000000000000000000000007bffffffffffffffffffffffffffffffffffffffffffffffffffffffff1916827bffffffffffffffffffffffffffffffffffffffffffffffffffffffff1916149050919050565b6000604051905090565b600080fd5b600080fd5b600080fd5b600080fd5b6000601f19601f8301169050919050565b7f4e487b7100000000000000000000000000000000000000000000000000000000600052604160045260246000fd5b610bec82610ba3565b810181811067ffffffffffffffff82111715610c0b57610c0a610bb4565b5b80604052505050565b6000610c1e610b85565b9050610c2a8282610be3565b919050565b600067ffffffffffffffff821115610c4a57610c49610bb4565b5b610c5382610ba3565b9050602081019050919050565b82818337600083830152505050565b6000610c82610c7d84610c2f565b610c14565b905082815260208101848484011115610c9e57610c9d610b9e565b5b610ca9848285610c60565b509392505050565b600082601f830112610cc657610cc5610b99565b5b8135610cd6848260208601610c6f565b91505092915050565b600060208284031215610cf557610cf4610b8f565b5b600082013567ffffffffffffffff811115610d1357610d12610b94565b5b610d1f84828501610cb1565b91505092915050565b600081519050919050565b600082825260208201905092915050565b6000819050602082019050919050565b600081519050919050565b600082825260208201905092915050565b60005b83811015610d8e578082015181840152602081019050610d73565b83811115610d9d576000848401525b50505050565b6000610dae82610d54565b610db88185610d5f565b9350610dc8818560208601610d70565b610dd181610ba3565b840191505092915050565b600073ffffffffffffffffffffffffffffffffffffffff82169050919050565b6000610e0782610ddc565b9050919050565b610e1781610dfc565b82525050565b60006040830160008301518482036000860152610e3a8282610da3565b9150506020830151610e4f6020860182610e0e565b508091505092915050565b6000610e668383610e1d565b905092915050565b6000602082019050919050565b6000610e8682610d28565b610e908185610d33565b935083602082028501610ea285610d44565b8060005b85811015610ede5784840389528151610ebf8582610e5a565b9450610eca83610e6e565b925060208a01995050600181019050610ea6565b50829750879550505050505092915050565b60006020820190508181036000830152610f0a8184610e7b565b905092915050565b60007fffffffff0000000000000000000000000000000000000000000000000000000082169050919050565b610f4781610f12565b8114610f5257600080fd5b50565b600081359050610f6481610f3e565b92915050565b600060208284031215610f8057610f7f610b8f565b5b6000610f8e84828501610f55565b91505092915050565b60008115159050919050565b610fac81610f97565b82525050565b6000602082019050610fc76000830184610fa3565b92915050565b600081519050919050565b600082825260208201905092915050565b6000819050602082019050919050565b600067ffffffffffffffff82169050919050565b61101681610ff9565b82525050565b6000611028838361100d565b60208301905092915050565b6000602082019050919050565b600061104c82610fcd565b6110568185610fd8565b935061106183610fe9565b8060005b83811015611092578151611079888261101c565b975061108483611034565b925050600181019050611065565b5085935050505092915050565b600060208201905081810360008301526110b98184611041565b905092915050565b6000819050919050565b6110d4816110c1565b81146110df57600080fd5b50565b6000813590506110f1816110cb565b92915050565b6000806040838503121561110e5761110d610b8f565b5b600083013567ffffffffffffffff81111561112c5761112b610b94565b5b61113885828601610cb1565b9250506020611149858286016110e2565b9150509250929050565b600082825260208201905092915050565b600061116f82610d54565b6111798185611153565b9350611189818560208601610d70565b61119281610ba3565b840191505092915050565b6111a681610dfc565b82525050565b600060408201905081810360008301526111c68185611164565b90506111d5602083018461119d565b9392505050565b6111e581610ff9565b81146111f057600080fd5b50565b600081359050611202816111dc565b92915050565b6000806040838503121561121f5761121e610b8f565b5b600083013567ffffffffffffffff81111561123d5761123c610b94565b5b61124985828601610cb1565b925050602061125a858286016111f3565b9150509250929050565b61126d81610dfc565b811461127857600080fd5b50565b60008135905061128a81611264565b92915050565b600067ffffffffffffffff8211156112ab576112aa610bb4565b5b602082029050602081019050919050565b600080fd5b60006112d46112cf84611290565b610c14565b905080838252602082019050602084028301858111156112f7576112f66112bc565b5b835b81811015611320578061130c88826110e2565b8452602084019350506020810190506112f9565b5050509392505050565b600082601f83011261133f5761133e610b99565b5b813561134f8482602086016112c1565b91505092915050565b600067ffffffffffffffff82111561137357611372610bb4565b5b61137c82610ba3565b9050602081019050919050565b600061139c61139784611358565b610c14565b9050828152602081018484840111156113b8576113b7610b9e565b5b6113c3848285610c60565b509392505050565b600082601f8301126113e0576113df610b99565b5b81356113f0848260208601611389565b91505092915050565b600080600080600060a0868803121561141557611414610b8f565b5b60006114238882890161127b565b95505060206114348882890161127b565b945050604086013567ffffffffffffffff81111561145557611454610b94565b5b6114618882890161132a565b935050606086013567ffffffffffffffff81111561148257611481610b94565b5b61148e8882890161132a565b925050608086013567ffffffffffffffff8111156114af576114ae610b94565b5b6114bb888289016113cb565b9150509295509295909350565b6114d181610f12565b82525050565b60006020820190506114ec60008301846114c8565b92915050565b60008060006060848603121561150b5761150a610b8f565b5b600084013567ffffffffffffffff81111561152957611528610b94565b5b61153586828701610cb1565b935050602084013567ffffffffffffffff81111561155657611555610b94565b5b61156286828701610cb1565b92505060406115738682870161127b565b9150509250925092565b600080600080600060a0868803121561159957611598610b8f565b5b60006115a78882890161127b565b95505060206115b88882890161127b565b94505060406115c9888289016110e2565b93505060606115da888289016110e2565b925050608086013567ffffffffffffffff8111156115fb576115fa610b94565b5b611607888289016113cb565b9150509295509295909350565b600081905092915050565b600061162a82610d54565b6116348185611614565b9350611644818560208601610d70565b80840191505092915050565b600061165c828461161f565b915081905092915050565b7f4e487b7100000000000000000000000000000000000000000000000000000000600052602260045260246000fd5b600060028204905060018216806116ae57607f821691505b6020821081036116c1576116c0611667565b5b50919050565b60008190508160005260206000209050919050565b60006020601f8301049050919050565b600082821b905092915050565b6000600883026117297fffffffffffffffffffffffffffffffffffffffffffffffffffffffffffffffff826116ec565b61173386836116ec565b95508019841693508086168417925050509392505050565b6000819050919050565b600061177061176b611766846110c1565b61174b565b6110c1565b9050919050565b6000819050919050565b61178a83611755565b61179e61179682611777565b8484546116f9565b825550505050565b600090565b6117b36117a6565b6117be818484611781565b505050565b5b818110156117e2576117d76000826117ab565b6001810190506117c4565b5050565b601f821115611827576117f8816116c7565b611801846116dc565b81016020851015611810578190505b61182461181c856116dc565b8301826117c3565b50505b505050565b600082821c905092915050565b600061184a6000198460080261182c565b1980831691505092915050565b60006118638383611839565b9150826002028217905092915050565b61187c82610d54565b67ffffffffffffffff81111561189557611894610bb4565b5b61189f8254611696565b6118aa8282856117e6565b600060209050601f8311600181146118dd57600084156118cb578287015190505b6118d58582611857565b86555061193d565b601f1984166118eb866116c7565b60005b82811015611913578489015182556001820191506020850194506020810190506118ee565b86831015611930578489015161192c601f891682611839565b8355505b6001600288020188555050505b50505050505056fea2646970667358221220c3963f9ccd0c4bba300667c5de85bc6b2e95ac47d0142a97e2a7838176ad9d7364736f6c634300080f0033a2646970667358221220c93c79a6e65ede8a0dcf9299c2f12991b050828bb23af6f90cbf5524fed4b30464736f6c634300080f0033",
  "linkReferences": {},
  "deployedLinkReferences": {}
}