{
  "_format": "hh-sol-artifact-1",
  "contractName": "InteliFactory",
  "sourceName": "ethereum/contracts/InteliFactory.sol",
  "abi": [
    {
      "inputs": [],
      "stateMutability": "nonpayable",
      "type": "constructor"
    },
    {
      "inputs": [
        {
          "internalType": "string",
          "name": "_id",
          "type": "string"
        }
      ],
      "name": "createStudent",
      "outputs": [],
      "stateMutability": "nonpayable",
      "type": "function"
    },
    {
      "inputs": [
        {
          "internalType": "address",
          "name": "_id",
          "type": "address"
        }
      ],
      "name": "getStudent",
      "outputs": [
        {
          "internalType": "string",
          "name": "",
          "type": "string"
        }
      ],
      "stateMutability": "view",
      "type": "function"
    },
    {
      "inputs": [
        {
          "internalType": "string",
          "name": "_id",
          "type": "string"
        }
      ],
      "name": "getWallet",
      "outputs": [
        {
          "internalType": "address",
          "name": "",
          "type": "address"
        }
      ],
      "stateMutability": "view",
      "type": "function"
    },
    {
      "inputs": [
        {
          "internalType": "string",
          "name": "_id",
          "type": "string"
        }
      ],
      "name": "removeStudent",
      "outputs": [],
      "stateMutability": "nonpayable",
      "type": "function"
    }
  ],
  "bytecode": "0x608060405234801561001057600080fd5b50336000806101000a81548173ffffffffffffffffffffffffffffffffffffffff021916908373ffffffffffffffffffffffffffffffffffffffff1602179055506127a6806100606000396000f3fe608060405234801561001057600080fd5b506004361061004c5760003560e01c80636b7b44d714610051578063a4e2df6614610081578063edd6cfb1146100b1578063f80bc664146100cd575b600080fd5b61006b60048036038101906100669190610700565b6100e9565b60405161007891906107c6565b60405180910390f35b61009b6004803603810190610096919061091d565b610212565b6040516100a89190610975565b60405180910390f35b6100cb60048036038101906100c6919061091d565b6102b2565b005b6100e760048036038101906100e2919061091d565b61044e565b005b60603373ffffffffffffffffffffffffffffffffffffffff1660008054906101000a900473ffffffffffffffffffffffffffffffffffffffff1673ffffffffffffffffffffffffffffffffffffffff161461014357600080fd5b600260008373ffffffffffffffffffffffffffffffffffffffff1673ffffffffffffffffffffffffffffffffffffffff168152602001908152602001600020805461018d906109bf565b80601f01602080910402602001604051908101604052809291908181526020018280546101b9906109bf565b80156102065780601f106101db57610100808354040283529160200191610206565b820191906000526020600020905b8154815290600101906020018083116101e957829003601f168201915b50505050509050919050565b60003373ffffffffffffffffffffffffffffffffffffffff1660008054906101000a900473ffffffffffffffffffffffffffffffffffffffff1673ffffffffffffffffffffffffffffffffffffffff161461026c57600080fd5b60018260405161027c9190610a2c565b908152602001604051809103902060009054906101000a900473ffffffffffffffffffffffffffffffffffffffff169050919050565b3373ffffffffffffffffffffffffffffffffffffffff1660008054906101000a900473ffffffffffffffffffffffffffffffffffffffff1673ffffffffffffffffffffffffffffffffffffffff161480156103785750600073ffffffffffffffffffffffffffffffffffffffff166001826040516103309190610a2c565b908152602001604051809103902060009054906101000a900473ffffffffffffffffffffffffffffffffffffffff1673ffffffffffffffffffffffffffffffffffffffff1614155b61038157600080fd5b600260006001836040516103959190610a2c565b908152602001604051809103902060009054906101000a900473ffffffffffffffffffffffffffffffffffffffff1673ffffffffffffffffffffffffffffffffffffffff1673ffffffffffffffffffffffffffffffffffffffff168152602001908152602001600020600061040a9190610623565b60018160405161041a9190610a2c565b908152602001604051809103902060006101000a81549073ffffffffffffffffffffffffffffffffffffffff021916905550565b3373ffffffffffffffffffffffffffffffffffffffff1660008054906101000a900473ffffffffffffffffffffffffffffffffffffffff1673ffffffffffffffffffffffffffffffffffffffff161480156105135750600073ffffffffffffffffffffffffffffffffffffffff166001826040516104cc9190610a2c565b908152602001604051809103902060009054906101000a900473ffffffffffffffffffffffffffffffffffffffff1673ffffffffffffffffffffffffffffffffffffffff16145b61051c57600080fd5b60008060009054906101000a900473ffffffffffffffffffffffffffffffffffffffff1660405161054c90610663565b6105569190610975565b604051809103906000f080158015610572573d6000803e3d6000fd5b509050806001836040516105869190610a2c565b908152602001604051809103902060006101000a81548173ffffffffffffffffffffffffffffffffffffffff021916908373ffffffffffffffffffffffffffffffffffffffff16021790555081600260008373ffffffffffffffffffffffffffffffffffffffff1673ffffffffffffffffffffffffffffffffffffffff168152602001908152602001600020908161061e9190610bf9565b505050565b50805461062f906109bf565b6000825580601f106106415750610660565b601f01602090049060005260206000209081019061065f9190610671565b5b50565b611aa58062000ccc83390190565b5b8082111561068a576000816000905550600101610672565b5090565b6000604051905090565b600080fd5b600080fd5b600073ffffffffffffffffffffffffffffffffffffffff82169050919050565b60006106cd826106a2565b9050919050565b6106dd816106c2565b81146106e857600080fd5b50565b6000813590506106fa816106d4565b92915050565b60006020828403121561071657610715610698565b5b6000610724848285016106eb565b91505092915050565b600081519050919050565b600082825260208201905092915050565b60005b8381101561076757808201518184015260208101905061074c565b83811115610776576000848401525b50505050565b6000601f19601f8301169050919050565b60006107988261072d565b6107a28185610738565b93506107b2818560208601610749565b6107bb8161077c565b840191505092915050565b600060208201905081810360008301526107e0818461078d565b905092915050565b600080fd5b600080fd5b7f4e487b7100000000000000000000000000000000000000000000000000000000600052604160045260246000fd5b61082a8261077c565b810181811067ffffffffffffffff82111715610849576108486107f2565b5b80604052505050565b600061085c61068e565b90506108688282610821565b919050565b600067ffffffffffffffff821115610888576108876107f2565b5b6108918261077c565b9050602081019050919050565b82818337600083830152505050565b60006108c06108bb8461086d565b610852565b9050828152602081018484840111156108dc576108db6107ed565b5b6108e784828561089e565b509392505050565b600082601f830112610904576109036107e8565b5b81356109148482602086016108ad565b91505092915050565b60006020828403121561093357610932610698565b5b600082013567ffffffffffffffff8111156109515761095061069d565b5b61095d848285016108ef565b91505092915050565b61096f816106c2565b82525050565b600060208201905061098a6000830184610966565b92915050565b7f4e487b7100000000000000000000000000000000000000000000000000000000600052602260045260246000fd5b600060028204905060018216806109d757607f821691505b6020821081036109ea576109e9610990565b5b50919050565b600081905092915050565b6000610a068261072d565b610a1081856109f0565b9350610a20818560208601610749565b80840191505092915050565b6000610a3882846109fb565b915081905092915050565b60008190508160005260206000209050919050565b60006020601f8301049050919050565b600082821b905092915050565b600060088302610aa57fffffffffffffffffffffffffffffffffffffffffffffffffffffffffffffffff82610a68565b610aaf8683610a68565b95508019841693508086168417925050509392505050565b6000819050919050565b6000819050919050565b6000610af6610af1610aec84610ac7565b610ad1565b610ac7565b9050919050565b6000819050919050565b610b1083610adb565b610b24610b1c82610afd565b848454610a75565b825550505050565b600090565b610b39610b2c565b610b44818484610b07565b505050565b5b81811015610b6857610b5d600082610b31565b600181019050610b4a565b5050565b601f821115610bad57610b7e81610a43565b610b8784610a58565b81016020851015610b96578190505b610baa610ba285610a58565b830182610b49565b50505b505050565b600082821c905092915050565b6000610bd060001984600802610bb2565b1980831691505092915050565b6000610be98383610bbf565b9150826002028217905092915050565b610c028261072d565b67ffffffffffffffff811115610c1b57610c1a6107f2565b5b610c2582546109bf565b610c30828285610b6c565b600060209050601f831160018114610c635760008415610c51578287015190505b610c5b8582610bdd565b865550610cc3565b601f198416610c7186610a43565b60005b82811015610c9957848901518255600182019150602085019450602081019050610c74565b86831015610cb65784890151610cb2601f891682610bbf565b8355505b6001600288020188555050505b50505050505056fe60806040523480156200001157600080fd5b5060405162001aa538038062001aa58339818101604052810190620000379190620000e8565b806000806101000a81548173ffffffffffffffffffffffffffffffffffffffff021916908373ffffffffffffffffffffffffffffffffffffffff160217905550506200011a565b600080fd5b600073ffffffffffffffffffffffffffffffffffffffff82169050919050565b6000620000b08262000083565b9050919050565b620000c281620000a3565b8114620000ce57600080fd5b50565b600081519050620000e281620000b7565b92915050565b6000602082840312156200010157620001006200007e565b5b60006200011184828501620000d1565b91505092915050565b61197b806200012a6000396000f3fe608060405234801561001057600080fd5b50600436106100a85760003560e01c8063bc197c8111610071578063bc197c811461018a578063bdeb5fc4146101ba578063bf3c80c5146101c4578063c9629404146101e0578063e0ca4301146101fc578063f23a6e611461022c576100a8565b8062b91f1a146100ad57806301ffc9a7146100dd5780631961b32f1461010d57806330683f521461013d578063a10d0b091461016e575b600080fd5b6100c760048036038101906100c29190610cdf565b61025c565b6040516100d49190610ef0565b60405180910390f35b6100f760048036038101906100f29190610f6a565b610419565b6040516101049190610fb2565b60405180910390f35b61012760048036038101906101229190610cdf565b610493565b604051610134919061109f565b60405180910390f35b610157600480360381019061015291906110f7565b610595565b6040516101659291906111ac565b60405180910390f35b61018860048036038101906101839190611208565b610694565b005b6101a4600480360381019061019f91906113f9565b610762565b6040516101b191906114d7565b60405180910390f35b6101c2610777565b005b6101de60048036038101906101d99190611208565b610808565b005b6101fa60048036038101906101f591906114f2565b6108d6565b005b61021660048036038101906102119190610cdf565b610a04565b604051610223919061109f565b60405180910390f35b6102466004803603810190610241919061157d565b610b06565b60405161025391906114d7565b60405180910390f35b606060008054906101000a900473ffffffffffffffffffffffffffffffffffffffff1673ffffffffffffffffffffffffffffffffffffffff163373ffffffffffffffffffffffffffffffffffffffff16146102b657600080fd5b6003826040516102c69190611650565b9081526020016040518091039020805480602002602001604051908101604052809291908181526020016000905b8282101561040e578382906000526020600020906002020160405180604001604052908160008201805461032790611696565b80601f016020809104026020016040519081016040528092919081815260200182805461035390611696565b80156103a05780601f10610375576101008083540402835291602001916103a0565b820191906000526020600020905b81548152906001019060200180831161038357829003601f168201915b505050505081526020016001820160009054906101000a900473ffffffffffffffffffffffffffffffffffffffff1673ffffffffffffffffffffffffffffffffffffffff1673ffffffffffffffffffffffffffffffffffffffff1681525050815260200190600101906102f4565b505050509050919050565b60007f4e2312e0000000000000000000000000000000000000000000000000000000007bffffffffffffffffffffffffffffffffffffffffffffffffffffffff1916827bffffffffffffffffffffffffffffffffffffffffffffffffffffffff1916148061048c575061048b82610b1b565b5b9050919050565b606060008054906101000a900473ffffffffffffffffffffffffffffffffffffffff1673ffffffffffffffffffffffffffffffffffffffff163373ffffffffffffffffffffffffffffffffffffffff16146104ed57600080fd5b6001826040516104fd9190611650565b908152602001604051809103902080548060200260200160405190810160405280929190818152602001828054801561058957602002820191906000526020600020906000905b82829054906101000a900467ffffffffffffffff1667ffffffffffffffff16815260200190600801906020826007010492830192600103820291508084116105445790505b50505050509050919050565b60038280516020810182018051848252602083016020850120818352809550505050505081815481106105c757600080fd5b9060005260206000209060020201600091509150508060000180546105eb90611696565b80601f016020809104026020016040519081016040528092919081815260200182805461061790611696565b80156106645780601f1061063957610100808354040283529160200191610664565b820191906000526020600020905b81548152906001019060200180831161064757829003601f168201915b5050505050908060010160009054906101000a900473ffffffffffffffffffffffffffffffffffffffff16905082565b60008054906101000a900473ffffffffffffffffffffffffffffffffffffffff1673ffffffffffffffffffffffffffffffffffffffff163373ffffffffffffffffffffffffffffffffffffffff16146106ec57600080fd5b6002826040516106fc9190611650565b90815260200160405180910390208190806001815401808255809150506001900390600052602060002090600491828204019190066008029091909190916101000a81548167ffffffffffffffff021916908367ffffffffffffffff1602179055505050565b600063bc197c8160e01b905095945050505050565b60008054906101000a900473ffffffffffffffffffffffffffffffffffffffff1673ffffffffffffffffffffffffffffffffffffffff163373ffffffffffffffffffffffffffffffffffffffff16146107cf57600080fd5b60008054906101000a900473ffffffffffffffffffffffffffffffffffffffff1673ffffffffffffffffffffffffffffffffffffffff16ff5b60008054906101000a900473ffffffffffffffffffffffffffffffffffffffff1673ffffffffffffffffffffffffffffffffffffffff163373ffffffffffffffffffffffffffffffffffffffff161461086057600080fd5b6001826040516108709190611650565b90815260200160405180910390208190806001815401808255809150506001900390600052602060002090600491828204019190066008029091909190916101000a81548167ffffffffffffffff021916908367ffffffffffffffff1602179055505050565b60008054906101000a900473ffffffffffffffffffffffffffffffffffffffff1673ffffffffffffffffffffffffffffffffffffffff163373ffffffffffffffffffffffffffffffffffffffff161461092e57600080fd5b60038360405161093e9190611650565b908152602001604051809103902060405180604001604052808481526020018373ffffffffffffffffffffffffffffffffffffffff16815250908060018154018082558091505060019003906000526020600020906002020160009091909190915060008201518160000190816109b59190611873565b5060208201518160010160006101000a81548173ffffffffffffffffffffffffffffffffffffffff021916908373ffffffffffffffffffffffffffffffffffffffff1602179055505050505050565b606060008054906101000a900473ffffffffffffffffffffffffffffffffffffffff1673ffffffffffffffffffffffffffffffffffffffff163373ffffffffffffffffffffffffffffffffffffffff1614610a5e57600080fd5b600282604051610a6e9190611650565b9081526020016040518091039020805480602002602001604051908101604052809291908181526020018280548015610afa57602002820191906000526020600020906000905b82829054906101000a900467ffffffffffffffff1667ffffffffffffffff1681526020019060080190602082600701049283019260010382029150808411610ab55790505b50505050509050919050565b600063f23a6e6160e01b905095945050505050565b60007f01ffc9a7000000000000000000000000000000000000000000000000000000007bffffffffffffffffffffffffffffffffffffffffffffffffffffffff1916827bffffffffffffffffffffffffffffffffffffffffffffffffffffffff1916149050919050565b6000604051905090565b600080fd5b600080fd5b600080fd5b600080fd5b6000601f19601f8301169050919050565b7f4e487b7100000000000000000000000000000000000000000000000000000000600052604160045260246000fd5b610bec82610ba3565b810181811067ffffffffffffffff82111715610c0b57610c0a610bb4565b5b80604052505050565b6000610c1e610b85565b9050610c2a8282610be3565b919050565b600067ffffffffffffffff821115610c4a57610c49610bb4565b5b610c5382610ba3565b9050602081019050919050565b82818337600083830152505050565b6000610c82610c7d84610c2f565b610c14565b905082815260208101848484011115610c9e57610c9d610b9e565b5b610ca9848285610c60565b509392505050565b600082601f830112610cc657610cc5610b99565b5b8135610cd6848260208601610c6f565b91505092915050565b600060208284031215610cf557610cf4610b8f565b5b600082013567ffffffffffffffff811115610d1357610d12610b94565b5b610d1f84828501610cb1565b91505092915050565b600081519050919050565b600082825260208201905092915050565b6000819050602082019050919050565b600081519050919050565b600082825260208201905092915050565b60005b83811015610d8e578082015181840152602081019050610d73565b83811115610d9d576000848401525b50505050565b6000610dae82610d54565b610db88185610d5f565b9350610dc8818560208601610d70565b610dd181610ba3565b840191505092915050565b600073ffffffffffffffffffffffffffffffffffffffff82169050919050565b6000610e0782610ddc565b9050919050565b610e1781610dfc565b82525050565b60006040830160008301518482036000860152610e3a8282610da3565b9150506020830151610e4f6020860182610e0e565b508091505092915050565b6000610e668383610e1d565b905092915050565b6000602082019050919050565b6000610e8682610d28565b610e908185610d33565b935083602082028501610ea285610d44565b8060005b85811015610ede5784840389528151610ebf8582610e5a565b9450610eca83610e6e565b925060208a01995050600181019050610ea6565b50829750879550505050505092915050565b60006020820190508181036000830152610f0a8184610e7b565b905092915050565b60007fffffffff0000000000000000000000000000000000000000000000000000000082169050919050565b610f4781610f12565b8114610f5257600080fd5b50565b600081359050610f6481610f3e565b92915050565b600060208284031215610f8057610f7f610b8f565b5b6000610f8e84828501610f55565b91505092915050565b60008115159050919050565b610fac81610f97565b82525050565b6000602082019050610fc76000830184610fa3565b92915050565b600081519050919050565b600082825260208201905092915050565b6000819050602082019050919050565b600067ffffffffffffffff82169050919050565b61101681610ff9565b82525050565b6000611028838361100d565b60208301905092915050565b6000602082019050919050565b600061104c82610fcd565b6110568185610fd8565b935061106183610fe9565b8060005b83811015611092578151611079888261101c565b975061108483611034565b925050600181019050611065565b5085935050505092915050565b600060208201905081810360008301526110b98184611041565b905092915050565b6000819050919050565b6110d4816110c1565b81146110df57600080fd5b50565b6000813590506110f1816110cb565b92915050565b6000806040838503121561110e5761110d610b8f565b5b600083013567ffffffffffffffff81111561112c5761112b610b94565b5b61113885828601610cb1565b9250506020611149858286016110e2565b9150509250929050565b600082825260208201905092915050565b600061116f82610d54565b6111798185611153565b9350611189818560208601610d70565b61119281610ba3565b840191505092915050565b6111a681610dfc565b82525050565b600060408201905081810360008301526111c68185611164565b90506111d5602083018461119d565b9392505050565b6111e581610ff9565b81146111f057600080fd5b50565b600081359050611202816111dc565b92915050565b6000806040838503121561121f5761121e610b8f565b5b600083013567ffffffffffffffff81111561123d5761123c610b94565b5b61124985828601610cb1565b925050602061125a858286016111f3565b9150509250929050565b61126d81610dfc565b811461127857600080fd5b50565b60008135905061128a81611264565b92915050565b600067ffffffffffffffff8211156112ab576112aa610bb4565b5b602082029050602081019050919050565b600080fd5b60006112d46112cf84611290565b610c14565b905080838252602082019050602084028301858111156112f7576112f66112bc565b5b835b81811015611320578061130c88826110e2565b8452602084019350506020810190506112f9565b5050509392505050565b600082601f83011261133f5761133e610b99565b5b813561134f8482602086016112c1565b91505092915050565b600067ffffffffffffffff82111561137357611372610bb4565b5b61137c82610ba3565b9050602081019050919050565b600061139c61139784611358565b610c14565b9050828152602081018484840111156113b8576113b7610b9e565b5b6113c3848285610c60565b509392505050565b600082601f8301126113e0576113df610b99565b5b81356113f0848260208601611389565b91505092915050565b600080600080600060a0868803121561141557611414610b8f565b5b60006114238882890161127b565b95505060206114348882890161127b565b945050604086013567ffffffffffffffff81111561145557611454610b94565b5b6114618882890161132a565b935050606086013567ffffffffffffffff81111561148257611481610b94565b5b61148e8882890161132a565b925050608086013567ffffffffffffffff8111156114af576114ae610b94565b5b6114bb888289016113cb565b9150509295509295909350565b6114d181610f12565b82525050565b60006020820190506114ec60008301846114c8565b92915050565b60008060006060848603121561150b5761150a610b8f565b5b600084013567ffffffffffffffff81111561152957611528610b94565b5b61153586828701610cb1565b935050602084013567ffffffffffffffff81111561155657611555610b94565b5b61156286828701610cb1565b92505060406115738682870161127b565b9150509250925092565b600080600080600060a0868803121561159957611598610b8f565b5b60006115a78882890161127b565b95505060206115b88882890161127b565b94505060406115c9888289016110e2565b93505060606115da888289016110e2565b925050608086013567ffffffffffffffff8111156115fb576115fa610b94565b5b611607888289016113cb565b9150509295509295909350565b600081905092915050565b600061162a82610d54565b6116348185611614565b9350611644818560208601610d70565b80840191505092915050565b600061165c828461161f565b915081905092915050565b7f4e487b7100000000000000000000000000000000000000000000000000000000600052602260045260246000fd5b600060028204905060018216806116ae57607f821691505b6020821081036116c1576116c0611667565b5b50919050565b60008190508160005260206000209050919050565b60006020601f8301049050919050565b600082821b905092915050565b6000600883026117297fffffffffffffffffffffffffffffffffffffffffffffffffffffffffffffffff826116ec565b61173386836116ec565b95508019841693508086168417925050509392505050565b6000819050919050565b600061177061176b611766846110c1565b61174b565b6110c1565b9050919050565b6000819050919050565b61178a83611755565b61179e61179682611777565b8484546116f9565b825550505050565b600090565b6117b36117a6565b6117be818484611781565b505050565b5b818110156117e2576117d76000826117ab565b6001810190506117c4565b5050565b601f821115611827576117f8816116c7565b611801846116dc565b81016020851015611810578190505b61182461181c856116dc565b8301826117c3565b50505b505050565b600082821c905092915050565b600061184a6000198460080261182c565b1980831691505092915050565b60006118638383611839565b9150826002028217905092915050565b61187c82610d54565b67ffffffffffffffff81111561189557611894610bb4565b5b61189f8254611696565b6118aa8282856117e6565b600060209050601f8311600181146118dd57600084156118cb578287015190505b6118d58582611857565b86555061193d565b601f1984166118eb866116c7565b60005b82811015611913578489015182556001820191506020850194506020810190506118ee565b86831015611930578489015161192c601f891682611839565b8355505b6001600288020188555050505b50505050505056fea26469706673582212204499885c03658ad31f212bc3fdbd23c0d454a8ddf629dd488751848da37007f564736f6c634300080f0033a264697066735822122075253d183f4b14f17244650107badac89429e9ef065cee35ae2a06f418c2e70464736f6c634300080f0033",
  "linkReferences": {},
  "deployedLinkReferences": {}
}