{
  "_format": "hh-sol-artifact-1",
  "contractName": "AccessCampus",
  "sourceName": "ethereum/contracts/AccessCampus.sol",
  "abi": [
    {
      "inputs": [],
      "stateMutability": "nonpayable",
      "type": "constructor"
    },
    {
      "inputs": [
        {
          "internalType": "string",
          "name": "_date",
          "type": "string"
        }
      ],
      "name": "getCheckIns",
      "outputs": [
        {
          "components": [
            {
              "internalType": "address",
              "name": "userAddress",
              "type": "address"
            },
            {
              "internalType": "uint256",
              "name": "time",
              "type": "uint256"
            }
          ],
          "internalType": "struct AccessCampus.Access[]",
          "name": "",
          "type": "tuple[]"
        }
      ],
      "stateMutability": "view",
      "type": "function"
    },
    {
      "inputs": [
        {
          "internalType": "string",
          "name": "_date",
          "type": "string"
        }
      ],
      "name": "getCheckOuts",
      "outputs": [
        {
          "components": [
            {
              "internalType": "address",
              "name": "userAddress",
              "type": "address"
            },
            {
              "internalType": "uint256",
              "name": "time",
              "type": "uint256"
            }
          ],
          "internalType": "struct AccessCampus.Access[]",
          "name": "",
          "type": "tuple[]"
        }
      ],
      "stateMutability": "view",
      "type": "function"
    },
    {
      "inputs": [
        {
          "internalType": "address",
          "name": "_userAddress",
          "type": "address"
        },
        {
          "internalType": "uint256",
          "name": "_time",
          "type": "uint256"
        },
        {
          "internalType": "string",
          "name": "_date",
          "type": "string"
        }
      ],
      "name": "registerCheckIn",
      "outputs": [],
      "stateMutability": "nonpayable",
      "type": "function"
    },
    {
      "inputs": [
        {
          "internalType": "address",
          "name": "_userAddress",
          "type": "address"
        },
        {
          "internalType": "uint256",
          "name": "_time",
          "type": "uint256"
        },
        {
          "internalType": "string",
          "name": "_date",
          "type": "string"
        }
      ],
      "name": "registerCheckOut",
      "outputs": [],
      "stateMutability": "nonpayable",
      "type": "function"
    }
  ],
  "bytecode": "0x608060405234801561001057600080fd5b50336000806101000a81548173ffffffffffffffffffffffffffffffffffffffff021916908373ffffffffffffffffffffffffffffffffffffffff160217905550610a2e806100606000396000f3fe608060405234801561001057600080fd5b506004361061004c5760003560e01c806331cb760e146100515780636d0e620c14610081578063785b40981461009d578063c6ea3ab0146100cd575b600080fd5b61006b600480360381019061006691906106fd565b6100e9565b604051610078919061087e565b60405180910390f35b61009b600480360381019061009691906108f8565b61021e565b005b6100b760048036038101906100b291906106fd565b610346565b6040516100c4919061087e565b60405180910390f35b6100e760048036038101906100e291906108f8565b61047b565b005b606060008054906101000a900473ffffffffffffffffffffffffffffffffffffffff1673ffffffffffffffffffffffffffffffffffffffff163373ffffffffffffffffffffffffffffffffffffffff161461014357600080fd5b60028260405161015391906109e1565b9081526020016040518091039020805480602002602001604051908101604052809291908181526020016000905b8282101561021357838290600052602060002090600202016040518060400160405290816000820160009054906101000a900473ffffffffffffffffffffffffffffffffffffffff1673ffffffffffffffffffffffffffffffffffffffff1673ffffffffffffffffffffffffffffffffffffffff16815260200160018201548152505081526020019060010190610181565b505050509050919050565b60008054906101000a900473ffffffffffffffffffffffffffffffffffffffff1673ffffffffffffffffffffffffffffffffffffffff163373ffffffffffffffffffffffffffffffffffffffff161461027657600080fd5b600060405180604001604052808573ffffffffffffffffffffffffffffffffffffffff1681526020018481525090506001826040516102b591906109e1565b908152602001604051809103902081908060018154018082558091505060019003906000526020600020906002020160009091909190915060008201518160000160006101000a81548173ffffffffffffffffffffffffffffffffffffffff021916908373ffffffffffffffffffffffffffffffffffffffff16021790555060208201518160010155505050505050565b606060008054906101000a900473ffffffffffffffffffffffffffffffffffffffff1673ffffffffffffffffffffffffffffffffffffffff163373ffffffffffffffffffffffffffffffffffffffff16146103a057600080fd5b6001826040516103b091906109e1565b9081526020016040518091039020805480602002602001604051908101604052809291908181526020016000905b8282101561047057838290600052602060002090600202016040518060400160405290816000820160009054906101000a900473ffffffffffffffffffffffffffffffffffffffff1673ffffffffffffffffffffffffffffffffffffffff1673ffffffffffffffffffffffffffffffffffffffff168152602001600182015481525050815260200190600101906103de565b505050509050919050565b60008054906101000a900473ffffffffffffffffffffffffffffffffffffffff1673ffffffffffffffffffffffffffffffffffffffff163373ffffffffffffffffffffffffffffffffffffffff16146104d357600080fd5b600060405180604001604052808573ffffffffffffffffffffffffffffffffffffffff16815260200184815250905060028260405161051291906109e1565b908152602001604051809103902081908060018154018082558091505060019003906000526020600020906002020160009091909190915060008201518160000160006101000a81548173ffffffffffffffffffffffffffffffffffffffff021916908373ffffffffffffffffffffffffffffffffffffffff16021790555060208201518160010155505050505050565b6000604051905090565b600080fd5b600080fd5b600080fd5b600080fd5b6000601f19601f8301169050919050565b7f4e487b7100000000000000000000000000000000000000000000000000000000600052604160045260246000fd5b61060a826105c1565b810181811067ffffffffffffffff82111715610629576106286105d2565b5b80604052505050565b600061063c6105a3565b90506106488282610601565b919050565b600067ffffffffffffffff821115610668576106676105d2565b5b610671826105c1565b9050602081019050919050565b82818337600083830152505050565b60006106a061069b8461064d565b610632565b9050828152602081018484840111156106bc576106bb6105bc565b5b6106c784828561067e565b509392505050565b600082601f8301126106e4576106e36105b7565b5b81356106f484826020860161068d565b91505092915050565b600060208284031215610713576107126105ad565b5b600082013567ffffffffffffffff811115610731576107306105b2565b5b61073d848285016106cf565b91505092915050565b600081519050919050565b600082825260208201905092915050565b6000819050602082019050919050565b600073ffffffffffffffffffffffffffffffffffffffff82169050919050565b600061079d82610772565b9050919050565b6107ad81610792565b82525050565b6000819050919050565b6107c6816107b3565b82525050565b6040820160008201516107e260008501826107a4565b5060208201516107f560208501826107bd565b50505050565b600061080783836107cc565b60408301905092915050565b6000602082019050919050565b600061082b82610746565b6108358185610751565b935061084083610762565b8060005b8381101561087157815161085888826107fb565b975061086383610813565b925050600181019050610844565b5085935050505092915050565b600060208201905081810360008301526108988184610820565b905092915050565b6108a981610792565b81146108b457600080fd5b50565b6000813590506108c6816108a0565b92915050565b6108d5816107b3565b81146108e057600080fd5b50565b6000813590506108f2816108cc565b92915050565b600080600060608486031215610911576109106105ad565b5b600061091f868287016108b7565b9350506020610930868287016108e3565b925050604084013567ffffffffffffffff811115610951576109506105b2565b5b61095d868287016106cf565b9150509250925092565b600081519050919050565b600081905092915050565b60005b8381101561099b578082015181840152602081019050610980565b838111156109aa576000848401525b50505050565b60006109bb82610967565b6109c58185610972565b93506109d581856020860161097d565b80840191505092915050565b60006109ed82846109b0565b91508190509291505056fea2646970667358221220ecef596ed06488ef4ab082fd90d602b5e0c504416da638bdc5130b814e684fb164736f6c634300080f0033",
  "linkReferences": {},
  "deployedLinkReferences": {}
}