{
  "_format": "hh-sol-artifact-1",
  "contractName": "AccessCampus",
  "sourceName": "ethereum/contracts/AccessCampus.sol",
  "abi": [
    {
      "inputs": [],
      "stateMutability": "nonpayable",
      "type": "constructor"
    },
    {
      "anonymous": false,
      "inputs": [
        {
          "components": [
            {
              "internalType": "address",
              "name": "userAddress",
              "type": "address"
            },
            {
              "internalType": "uint256",
              "name": "time",
              "type": "uint256"
            }
          ],
          "indexed": false,
          "internalType": "struct AccessCampus.Access[]",
          "name": "",
          "type": "tuple[]"
        }
      ],
      "name": "getCheck",
      "type": "event"
    },
    {
      "inputs": [
        {
          "internalType": "string",
          "name": "_date",
          "type": "string"
        }
      ],
      "name": "getCheckIns",
      "outputs": [
        {
          "components": [
            {
              "internalType": "address",
              "name": "userAddress",
              "type": "address"
            },
            {
              "internalType": "uint256",
              "name": "time",
              "type": "uint256"
            }
          ],
          "internalType": "struct AccessCampus.Access[]",
          "name": "",
          "type": "tuple[]"
        }
      ],
      "stateMutability": "nonpayable",
      "type": "function"
    },
    {
      "inputs": [
        {
          "internalType": "string",
          "name": "_date",
          "type": "string"
        }
      ],
      "name": "getCheckOuts",
      "outputs": [
        {
          "components": [
            {
              "internalType": "address",
              "name": "userAddress",
              "type": "address"
            },
            {
              "internalType": "uint256",
              "name": "time",
              "type": "uint256"
            }
          ],
          "internalType": "struct AccessCampus.Access[]",
          "name": "",
          "type": "tuple[]"
        }
      ],
      "stateMutability": "nonpayable",
      "type": "function"
    },
    {
      "inputs": [],
      "name": "owner",
      "outputs": [
        {
          "internalType": "address",
          "name": "",
          "type": "address"
        }
      ],
      "stateMutability": "view",
      "type": "function"
    },
    {
      "inputs": [
        {
          "internalType": "address",
          "name": "_userAddress",
          "type": "address"
        },
        {
          "internalType": "uint256",
          "name": "_time",
          "type": "uint256"
        },
        {
          "internalType": "string",
          "name": "_date",
          "type": "string"
        }
      ],
      "name": "registerCheckIn",
      "outputs": [],
      "stateMutability": "nonpayable",
      "type": "function"
    },
    {
      "inputs": [
        {
          "internalType": "address",
          "name": "_userAddress",
          "type": "address"
        },
        {
          "internalType": "uint256",
          "name": "_time",
          "type": "uint256"
        },
        {
          "internalType": "string",
          "name": "_date",
          "type": "string"
        }
      ],
      "name": "registerCheckOut",
      "outputs": [],
      "stateMutability": "nonpayable",
      "type": "function"
    }
  ],
  "bytecode": "0x608060405234801561001057600080fd5b50336000806101000a81548173ffffffffffffffffffffffffffffffffffffffff021916908373ffffffffffffffffffffffffffffffffffffffff160217905550610e18806100606000396000f3fe608060405234801561001057600080fd5b50600436106100575760003560e01c806331cb760e1461005c5780636d0e620c1461008c578063785b4098146100a85780638da5cb5b146100d8578063c6ea3ab0146100f6575b600080fd5b610076600480360381019061007191906108ca565b610112565b6040516100839190610a4b565b60405180910390f35b6100a660048036038101906100a19190610ac5565b6102d1565b005b6100c260048036038101906100bd91906108ca565b61042f565b6040516100cf9190610a4b565b60405180910390f35b6100e06105ee565b6040516100ed9190610b43565b60405180910390f35b610110600480360381019061010b9190610ac5565b610612565b005b606060008054906101000a900473ffffffffffffffffffffffffffffffffffffffff1673ffffffffffffffffffffffffffffffffffffffff163373ffffffffffffffffffffffffffffffffffffffff16146101a2576040517f08c379a000000000000000000000000000000000000000000000000000000000815260040161019990610bbb565b60405180910390fd5b7fc103d764d9a5efeb76c5acf55b1640605b7003823f8967f84b29bc28193870d66002836040516101d39190610c55565b90815260200160405180910390206040516101ee9190610dc0565b60405180910390a16002826040516102069190610c55565b9081526020016040518091039020805480602002602001604051908101604052809291908181526020016000905b828210156102c657838290600052602060002090600202016040518060400160405290816000820160009054906101000a900473ffffffffffffffffffffffffffffffffffffffff1673ffffffffffffffffffffffffffffffffffffffff1673ffffffffffffffffffffffffffffffffffffffff16815260200160018201548152505081526020019060010190610234565b505050509050919050565b60008054906101000a900473ffffffffffffffffffffffffffffffffffffffff1673ffffffffffffffffffffffffffffffffffffffff163373ffffffffffffffffffffffffffffffffffffffff161461035f576040517f08c379a000000000000000000000000000000000000000000000000000000000815260040161035690610bbb565b60405180910390fd5b600060405180604001604052808573ffffffffffffffffffffffffffffffffffffffff16815260200184815250905060018260405161039e9190610c55565b908152602001604051809103902081908060018154018082558091505060019003906000526020600020906002020160009091909190915060008201518160000160006101000a81548173ffffffffffffffffffffffffffffffffffffffff021916908373ffffffffffffffffffffffffffffffffffffffff16021790555060208201518160010155505050505050565b606060008054906101000a900473ffffffffffffffffffffffffffffffffffffffff1673ffffffffffffffffffffffffffffffffffffffff163373ffffffffffffffffffffffffffffffffffffffff16146104bf576040517f08c379a00000000000000000000000000000000000000000000000000000000081526004016104b690610bbb565b60405180910390fd5b7fc103d764d9a5efeb76c5acf55b1640605b7003823f8967f84b29bc28193870d66001836040516104f09190610c55565b908152602001604051809103902060405161050b9190610dc0565b60405180910390a16001826040516105239190610c55565b9081526020016040518091039020805480602002602001604051908101604052809291908181526020016000905b828210156105e357838290600052602060002090600202016040518060400160405290816000820160009054906101000a900473ffffffffffffffffffffffffffffffffffffffff1673ffffffffffffffffffffffffffffffffffffffff1673ffffffffffffffffffffffffffffffffffffffff16815260200160018201548152505081526020019060010190610551565b505050509050919050565b60008054906101000a900473ffffffffffffffffffffffffffffffffffffffff1681565b60008054906101000a900473ffffffffffffffffffffffffffffffffffffffff1673ffffffffffffffffffffffffffffffffffffffff163373ffffffffffffffffffffffffffffffffffffffff16146106a0576040517f08c379a000000000000000000000000000000000000000000000000000000000815260040161069790610bbb565b60405180910390fd5b600060405180604001604052808573ffffffffffffffffffffffffffffffffffffffff1681526020018481525090506002826040516106df9190610c55565b908152602001604051809103902081908060018154018082558091505060019003906000526020600020906002020160009091909190915060008201518160000160006101000a81548173ffffffffffffffffffffffffffffffffffffffff021916908373ffffffffffffffffffffffffffffffffffffffff16021790555060208201518160010155505050505050565b6000604051905090565b600080fd5b600080fd5b600080fd5b600080fd5b6000601f19601f8301169050919050565b7f4e487b7100000000000000000000000000000000000000000000000000000000600052604160045260246000fd5b6107d78261078e565b810181811067ffffffffffffffff821117156107f6576107f561079f565b5b80604052505050565b6000610809610770565b905061081582826107ce565b919050565b600067ffffffffffffffff8211156108355761083461079f565b5b61083e8261078e565b9050602081019050919050565b82818337600083830152505050565b600061086d6108688461081a565b6107ff565b90508281526020810184848401111561088957610888610789565b5b61089484828561084b565b509392505050565b600082601f8301126108b1576108b0610784565b5b81356108c184826020860161085a565b91505092915050565b6000602082840312156108e0576108df61077a565b5b600082013567ffffffffffffffff8111156108fe576108fd61077f565b5b61090a8482850161089c565b91505092915050565b600081519050919050565b600082825260208201905092915050565b6000819050602082019050919050565b600073ffffffffffffffffffffffffffffffffffffffff82169050919050565b600061096a8261093f565b9050919050565b61097a8161095f565b82525050565b6000819050919050565b61099381610980565b82525050565b6040820160008201516109af6000850182610971565b5060208201516109c2602085018261098a565b50505050565b60006109d48383610999565b60408301905092915050565b6000602082019050919050565b60006109f882610913565b610a02818561091e565b9350610a0d8361092f565b8060005b83811015610a3e578151610a2588826109c8565b9750610a30836109e0565b925050600181019050610a11565b5085935050505092915050565b60006020820190508181036000830152610a6581846109ed565b905092915050565b610a768161095f565b8114610a8157600080fd5b50565b600081359050610a9381610a6d565b92915050565b610aa281610980565b8114610aad57600080fd5b50565b600081359050610abf81610a99565b92915050565b600080600060608486031215610ade57610add61077a565b5b6000610aec86828701610a84565b9350506020610afd86828701610ab0565b925050604084013567ffffffffffffffff811115610b1e57610b1d61077f565b5b610b2a8682870161089c565b9150509250925092565b610b3d8161095f565b82525050565b6000602082019050610b586000830184610b34565b92915050565b600082825260208201905092915050565b7f6e6f74206f776e65720000000000000000000000000000000000000000000000600082015250565b6000610ba5600983610b5e565b9150610bb082610b6f565b602082019050919050565b60006020820190508181036000830152610bd481610b98565b9050919050565b600081519050919050565b600081905092915050565b60005b83811015610c0f578082015181840152602081019050610bf4565b83811115610c1e576000848401525b50505050565b6000610c2f82610bdb565b610c398185610be6565b9350610c49818560208601610bf1565b80840191505092915050565b6000610c618284610c24565b915081905092915050565b600081549050919050565b60008190508160005260206000209050919050565b60008160001c9050919050565b600073ffffffffffffffffffffffffffffffffffffffff82169050919050565b6000610ccc610cc783610c8c565b610c99565b9050919050565b6000819050919050565b6000610cf0610ceb83610c8c565b610cd3565b9050919050565b604082016000808301549050610d0c81610cb9565b610d196000860182610971565b5060018301549050610d2a81610cdd565b610d37602086018261098a565b5050505050565b6000610d4a8383610cf7565b60408301905092915050565b6000600282019050919050565b6000610d6e82610c6c565b610d78818561091e565b9350610d8383610c77565b8060005b83811015610db35781610d9a8882610d3e565b9750610da583610d56565b925050600181019050610d87565b5085935050505092915050565b60006020820190508181036000830152610dda8184610d63565b90509291505056fea2646970667358221220269f717df6f2f8774071f2ecc527912922d71d9859d020882b8ef15c7f2e298264736f6c634300080f0033",
  "linkReferences": {},
  "deployedLinkReferences": {}
}