{"abi":[{"inputs":[{"internalType":"address","name":"_userAddress","type":"address"},{"internalType":"uint256","name":"_time","type":"uint256"},{"internalType":"string","name":"_date","type":"string"}],"name":"createCheckIn","outputs":[],"stateMutability":"nonpayable","type":"function"},{"inputs":[{"internalType":"address","name":"_userAddress","type":"address"},{"internalType":"uint256","name":"_time","type":"uint256"},{"internalType":"string","name":"_date","type":"string"}],"name":"createCheckOut","outputs":[],"stateMutability":"nonpayable","type":"function"},{"inputs":[{"internalType":"string","name":"_date","type":"string"}],"name":"getCheckIns","outputs":[{"components":[{"internalType":"address","name":"userAddress","type":"address"},{"internalType":"uint256","name":"time","type":"uint256"}],"internalType":"struct AccessCampus.Access[]","name":"","type":"tuple[]"}],"stateMutability":"view","type":"function"},{"inputs":[{"internalType":"string","name":"_date","type":"string"}],"name":"getCheckOuts","outputs":[{"components":[{"internalType":"address","name":"userAddress","type":"address"},{"internalType":"uint256","name":"time","type":"uint256"}],"internalType":"struct AccessCampus.Access[]","name":"","type":"tuple[]"}],"stateMutability":"view","type":"function"}],"devdoc":{"kind":"dev","methods":{},"version":1},"evm":{"assembly":"    /* \"intelifactory.sol\":3173:4312  contract AccessCampus {... */\n  mstore(0x40, 0x80)\n  callvalue\n  dup1\n  iszero\n  tag_1\n  jumpi\n  0x00\n  dup1\n  revert\ntag_1:\n  pop\n  dataSize(sub_0)\n  dup1\n  dataOffset(sub_0)\n  0x00\n  codecopy\n  0x00\n  return\nstop\n\nsub_0: assembly {\n        /* \"intelifactory.sol\":3173:4312  contract AccessCampus {... */\n      mstore(0x40, 0x80)\n      callvalue\n      dup1\n      iszero\n      tag_1\n      jumpi\n      0x00\n      dup1\n      revert\n    tag_1:\n      pop\n      jumpi(tag_2, lt(calldatasize, 0x04))\n      shr(0xe0, calldataload(0x00))\n      dup1\n      0x31cb760e\n      eq\n      tag_3\n      jumpi\n      dup1\n      0x785b4098\n      eq\n      tag_4\n      jumpi\n      dup1\n      0x81aee6b3\n      eq\n      tag_5\n      jumpi\n      dup1\n      0xf2f1be0a\n      eq\n      tag_6\n      jumpi\n    tag_2:\n      0x00\n      dup1\n      revert\n        /* \"intelifactory.sol\":4154:4309  function getCheckOuts(string memory _date)... */\n    tag_3:\n      tag_7\n      0x04\n      dup1\n      calldatasize\n      sub\n      dup2\n      add\n      swap1\n      tag_8\n      swap2\n      swap1\n      tag_9\n      jump\t// in\n    tag_8:\n      tag_10\n      jump\t// in\n    tag_7:\n      mload(0x40)\n      tag_11\n      swap2\n      swap1\n      tag_12\n      jump\t// in\n    tag_11:\n      mload(0x40)\n      dup1\n      swap2\n      sub\n      swap1\n      return\n        /* \"intelifactory.sol\":3993:4146  function getCheckIns(string memory _date)... */\n    tag_4:\n      tag_13\n      0x04\n      dup1\n      calldatasize\n      sub\n      dup2\n      add\n      swap1\n      tag_14\n      swap2\n      swap1\n      tag_9\n      jump\t// in\n    tag_14:\n      tag_15\n      jump\t// in\n    tag_13:\n      mload(0x40)\n      tag_16\n      swap2\n      swap1\n      tag_12\n      jump\t// in\n    tag_16:\n      mload(0x40)\n      dup1\n      swap2\n      sub\n      swap1\n      return\n        /* \"intelifactory.sol\":3393:3683  function createCheckIn(... */\n    tag_5:\n      tag_17\n      0x04\n      dup1\n      calldatasize\n      sub\n      dup2\n      add\n      swap1\n      tag_18\n      swap2\n      swap1\n      tag_19\n      jump\t// in\n    tag_18:\n      tag_20\n      jump\t// in\n    tag_17:\n      stop\n        /* \"intelifactory.sol\":3691:3985  function createCheckOut(... */\n    tag_6:\n      tag_21\n      0x04\n      dup1\n      calldatasize\n      sub\n      dup2\n      add\n      swap1\n      tag_22\n      swap2\n      swap1\n      tag_19\n      jump\t// in\n    tag_22:\n      tag_23\n      jump\t// in\n    tag_21:\n      stop\n        /* \"intelifactory.sol\":4154:4309  function getCheckOuts(string memory _date)... */\n    tag_10:\n        /* \"intelifactory.sol\":4245:4260  Access[] memory */\n      0x60\n        /* \"intelifactory.sol\":4285:4294  checkOuts */\n      0x01\n        /* \"intelifactory.sol\":4295:4300  _date */\n      dup3\n        /* \"intelifactory.sol\":4285:4301  checkOuts[_date] */\n      mload(0x40)\n      tag_25\n      swap2\n      swap1\n      tag_26\n      jump\t// in\n    tag_25:\n      swap1\n      dup2\n      mstore\n      0x20\n      add\n      mload(0x40)\n      dup1\n      swap2\n      sub\n      swap1\n      keccak256\n        /* \"intelifactory.sol\":4278:4301  return checkOuts[_date] */\n      dup1\n      sload\n      dup1\n      0x20\n      mul\n      0x20\n      add\n      mload(0x40)\n      swap1\n      dup2\n      add\n      0x40\n      mstore\n      dup1\n      swap3\n      swap2\n      swap1\n      dup2\n      dup2\n      mstore\n      0x20\n      add\n      0x00\n      swap1\n    tag_27:\n      dup3\n      dup3\n      lt\n      iszero\n      tag_28\n      jumpi\n      dup4\n      dup3\n      swap1\n      0x00\n      mstore\n      keccak256(0x00, 0x20)\n      swap1\n      0x02\n      mul\n      add\n      mload(0x40)\n      dup1\n      0x40\n      add\n      0x40\n      mstore\n      swap1\n      dup2\n      0x00\n      dup3\n      add\n      0x00\n      swap1\n      sload\n      swap1\n      0x0100\n      exp\n      swap1\n      div\n      0xffffffffffffffffffffffffffffffffffffffff\n      and\n      0xffffffffffffffffffffffffffffffffffffffff\n      and\n      0xffffffffffffffffffffffffffffffffffffffff\n      and\n      dup2\n      mstore\n      0x20\n      add\n      0x01\n      dup3\n      add\n      sload\n      dup2\n      mstore\n      pop\n      pop\n      dup2\n      mstore\n      0x20\n      add\n      swap1\n      0x01\n      add\n      swap1\n      jump(tag_27)\n    tag_28:\n      pop\n      pop\n      pop\n      pop\n      swap1\n      pop\n        /* \"intelifactory.sol\":4154:4309  function getCheckOuts(string memory _date)... */\n      swap2\n      swap1\n      pop\n      jump\t// out\n        /* \"intelifactory.sol\":3993:4146  function getCheckIns(string memory _date)... */\n    tag_15:\n        /* \"intelifactory.sol\":4083:4098  Access[] memory */\n      0x60\n        /* \"intelifactory.sol\":4123:4131  checkIns */\n      0x00\n        /* \"intelifactory.sol\":4132:4137  _date */\n      dup3\n        /* \"intelifactory.sol\":4123:4138  checkIns[_date] */\n      mload(0x40)\n      tag_31\n      swap2\n      swap1\n      tag_26\n      jump\t// in\n    tag_31:\n      swap1\n      dup2\n      mstore\n      0x20\n      add\n      mload(0x40)\n      dup1\n      swap2\n      sub\n      swap1\n      keccak256\n        /* \"intelifactory.sol\":4116:4138  return checkIns[_date] */\n      dup1\n      sload\n      dup1\n      0x20\n      mul\n      0x20\n      add\n      mload(0x40)\n      swap1\n      dup2\n      add\n      0x40\n      mstore\n      dup1\n      swap3\n      swap2\n      swap1\n      dup2\n      dup2\n      mstore\n      0x20\n      add\n      0x00\n      swap1\n    tag_32:\n      dup3\n      dup3\n      lt\n      iszero\n      tag_33\n      jumpi\n      dup4\n      dup3\n      swap1\n      0x00\n      mstore\n      keccak256(0x00, 0x20)\n      swap1\n      0x02\n      mul\n      add\n      mload(0x40)\n      dup1\n      0x40\n      add\n      0x40\n      mstore\n      swap1\n      dup2\n      0x00\n      dup3\n      add\n      0x00\n      swap1\n      sload\n      swap1\n      0x0100\n      exp\n      swap1\n      div\n      0xffffffffffffffffffffffffffffffffffffffff\n      and\n      0xffffffffffffffffffffffffffffffffffffffff\n      and\n      0xffffffffffffffffffffffffffffffffffffffff\n      and\n      dup2\n      mstore\n      0x20\n      add\n      0x01\n      dup3\n      add\n      sload\n      dup2\n      mstore\n      pop\n      pop\n      dup2\n      mstore\n      0x20\n      add\n      swap1\n      0x01\n      add\n      swap1\n      jump(tag_32)\n    tag_33:\n      pop\n      pop\n      pop\n      pop\n      swap1\n      pop\n        /* \"intelifactory.sol\":3993:4146  function getCheckIns(string memory _date)... */\n      swap2\n      swap1\n      pop\n      jump\t// out\n        /* \"intelifactory.sol\":3393:3683  function createCheckIn(... */\n    tag_20:\n        /* \"intelifactory.sol\":3526:3547  Access memory checkIn */\n      0x00\n        /* \"intelifactory.sol\":3550:3635  Access({... */\n      mload(0x40)\n      dup1\n      0x40\n      add\n      0x40\n      mstore\n      dup1\n        /* \"intelifactory.sol\":3585:3597  _userAddress */\n      dup6\n        /* \"intelifactory.sol\":3550:3635  Access({... */\n      0xffffffffffffffffffffffffffffffffffffffff\n      and\n      dup2\n      mstore\n      0x20\n      add\n        /* \"intelifactory.sol\":3618:3623  _time */\n      dup5\n        /* \"intelifactory.sol\":3550:3635  Access({... */\n      dup2\n      mstore\n      pop\n        /* \"intelifactory.sol\":3526:3635  Access memory checkIn = Access({... */\n      swap1\n      pop\n        /* \"intelifactory.sol\":3646:3654  checkIns */\n      0x00\n        /* \"intelifactory.sol\":3655:3660  _date */\n      dup3\n        /* \"intelifactory.sol\":3646:3661  checkIns[_date] */\n      mload(0x40)\n      tag_36\n      swap2\n      swap1\n      tag_26\n      jump\t// in\n    tag_36:\n      swap1\n      dup2\n      mstore\n      0x20\n      add\n      mload(0x40)\n      dup1\n      swap2\n      sub\n      swap1\n      keccak256\n        /* \"intelifactory.sol\":3667:3674  checkIn */\n      dup2\n        /* \"intelifactory.sol\":3646:3675  checkIns[_date].push(checkIn) */\n      swap1\n      dup1\n      0x01\n      dup2\n      sload\n      add\n      dup1\n      dup3\n      sstore\n      dup1\n      swap2\n      pop\n      pop\n      0x01\n      swap1\n      sub\n      swap1\n      0x00\n      mstore\n      keccak256(0x00, 0x20)\n      swap1\n      0x02\n      mul\n      add\n      0x00\n      swap1\n      swap2\n      swap1\n      swap2\n      swap1\n      swap2\n      pop\n      0x00\n      dup3\n      add\n      mload\n      dup2\n      0x00\n      add\n      exp(0x0100, 0x00)\n      dup2\n      sload\n      dup2\n      0xffffffffffffffffffffffffffffffffffffffff\n      mul\n      not\n      and\n      swap1\n      dup4\n      0xffffffffffffffffffffffffffffffffffffffff\n      and\n      mul\n      or\n      swap1\n      sstore\n      pop\n      0x20\n      dup3\n      add\n      mload\n      dup2\n      0x01\n      add\n      sstore\n      pop\n      pop\n        /* \"intelifactory.sol\":3515:3683  {... */\n      pop\n        /* \"intelifactory.sol\":3393:3683  function createCheckIn(... */\n      pop\n      pop\n      pop\n      jump\t// out\n        /* \"intelifactory.sol\":3691:3985  function createCheckOut(... */\n    tag_23:\n        /* \"intelifactory.sol\":3825:3847  Access memory checkOut */\n      0x00\n        /* \"intelifactory.sol\":3850:3935  Access({... */\n      mload(0x40)\n      dup1\n      0x40\n      add\n      0x40\n      mstore\n      dup1\n        /* \"intelifactory.sol\":3885:3897  _userAddress */\n      dup6\n        /* \"intelifactory.sol\":3850:3935  Access({... */\n      0xffffffffffffffffffffffffffffffffffffffff\n      and\n      dup2\n      mstore\n      0x20\n      add\n        /* \"intelifactory.sol\":3918:3923  _time */\n      dup5\n        /* \"intelifactory.sol\":3850:3935  Access({... */\n      dup2\n      mstore\n      pop\n        /* \"intelifactory.sol\":3825:3935  Access memory checkOut = Access({... */\n      swap1\n      pop\n        /* \"intelifactory.sol\":3946:3955  checkOuts */\n      0x01\n        /* \"intelifactory.sol\":3956:3961  _date */\n      dup3\n        /* \"intelifactory.sol\":3946:3962  checkOuts[_date] */\n      mload(0x40)\n      tag_39\n      swap2\n      swap1\n      tag_26\n      jump\t// in\n    tag_39:\n      swap1\n      dup2\n      mstore\n      0x20\n      add\n      mload(0x40)\n      dup1\n      swap2\n      sub\n      swap1\n      keccak256\n        /* \"intelifactory.sol\":3968:3976  checkOut */\n      dup2\n        /* \"intelifactory.sol\":3946:3977  checkOuts[_date].push(checkOut) */\n      swap1\n      dup1\n      0x01\n      dup2\n      sload\n      add\n      dup1\n      dup3\n      sstore\n      dup1\n      swap2\n      pop\n      pop\n      0x01\n      swap1\n      sub\n      swap1\n      0x00\n      mstore\n      keccak256(0x00, 0x20)\n      swap1\n      0x02\n      mul\n      add\n      0x00\n      swap1\n      swap2\n      swap1\n      swap2\n      swap1\n      swap2\n      pop\n      0x00\n      dup3\n      add\n      mload\n      dup2\n      0x00\n      add\n      exp(0x0100, 0x00)\n      dup2\n      sload\n      dup2\n      0xffffffffffffffffffffffffffffffffffffffff\n      mul\n      not\n      and\n      swap1\n      dup4\n      0xffffffffffffffffffffffffffffffffffffffff\n      and\n      mul\n      or\n      swap1\n      sstore\n      pop\n      0x20\n      dup3\n      add\n      mload\n      dup2\n      0x01\n      add\n      sstore\n      pop\n      pop\n        /* \"intelifactory.sol\":3814:3985  {... */\n      pop\n        /* \"intelifactory.sol\":3691:3985  function createCheckOut(... */\n      pop\n      pop\n      pop\n      jump\t// out\n        /* \"#utility.yul\":7:82   */\n    tag_41:\n        /* \"#utility.yul\":40:46   */\n      0x00\n        /* \"#utility.yul\":73:75   */\n      0x40\n        /* \"#utility.yul\":67:76   */\n      mload\n        /* \"#utility.yul\":57:76   */\n      swap1\n      pop\n        /* \"#utility.yul\":7:82   */\n      swap1\n      jump\t// out\n        /* \"#utility.yul\":88:205   */\n    tag_42:\n        /* \"#utility.yul\":197:198   */\n      0x00\n        /* \"#utility.yul\":194:195   */\n      dup1\n        /* \"#utility.yul\":187:199   */\n      revert\n        /* \"#utility.yul\":211:328   */\n    tag_43:\n        /* \"#utility.yul\":320:321   */\n      0x00\n        /* \"#utility.yul\":317:318   */\n      dup1\n        /* \"#utility.yul\":310:322   */\n      revert\n        /* \"#utility.yul\":334:451   */\n    tag_44:\n        /* \"#utility.yul\":443:444   */\n      0x00\n        /* \"#utility.yul\":440:441   */\n      dup1\n        /* \"#utility.yul\":433:445   */\n      revert\n        /* \"#utility.yul\":457:574   */\n    tag_45:\n        /* \"#utility.yul\":566:567   */\n      0x00\n        /* \"#utility.yul\":563:564   */\n      dup1\n        /* \"#utility.yul\":556:568   */\n      revert\n        /* \"#utility.yul\":580:682   */\n    tag_46:\n        /* \"#utility.yul\":621:627   */\n      0x00\n        /* \"#utility.yul\":672:674   */\n      0x1f\n        /* \"#utility.yul\":668:675   */\n      not\n        /* \"#utility.yul\":663:665   */\n      0x1f\n        /* \"#utility.yul\":656:661   */\n      dup4\n        /* \"#utility.yul\":652:666   */\n      add\n        /* \"#utility.yul\":648:676   */\n      and\n        /* \"#utility.yul\":638:676   */\n      swap1\n      pop\n        /* \"#utility.yul\":580:682   */\n      swap2\n      swap1\n      pop\n      jump\t// out\n        /* \"#utility.yul\":688:868   */\n    tag_47:\n        /* \"#utility.yul\":736:813   */\n      0x4e487b7100000000000000000000000000000000000000000000000000000000\n        /* \"#utility.yul\":733:734   */\n      0x00\n        /* \"#utility.yul\":726:814   */\n      mstore\n        /* \"#utility.yul\":833:837   */\n      0x41\n        /* \"#utility.yul\":830:831   */\n      0x04\n        /* \"#utility.yul\":823:838   */\n      mstore\n        /* \"#utility.yul\":857:861   */\n      0x24\n        /* \"#utility.yul\":854:855   */\n      0x00\n        /* \"#utility.yul\":847:862   */\n      revert\n        /* \"#utility.yul\":874:1155   */\n    tag_48:\n        /* \"#utility.yul\":957:984   */\n      tag_83\n        /* \"#utility.yul\":979:983   */\n      dup3\n        /* \"#utility.yul\":957:984   */\n      tag_46\n      jump\t// in\n    tag_83:\n        /* \"#utility.yul\":949:955   */\n      dup2\n        /* \"#utility.yul\":945:985   */\n      add\n        /* \"#utility.yul\":1087:1093   */\n      dup2\n        /* \"#utility.yul\":1075:1085   */\n      dup2\n        /* \"#utility.yul\":1072:1094   */\n      lt\n        /* \"#utility.yul\":1051:1069   */\n      0xffffffffffffffff\n        /* \"#utility.yul\":1039:1049   */\n      dup3\n        /* \"#utility.yul\":1036:1070   */\n      gt\n        /* \"#utility.yul\":1033:1095   */\n      or\n        /* \"#utility.yul\":1030:1118   */\n      iszero\n      tag_84\n      jumpi\n        /* \"#utility.yul\":1098:1116   */\n      tag_85\n      tag_47\n      jump\t// in\n    tag_85:\n        /* \"#utility.yul\":1030:1118   */\n    tag_84:\n        /* \"#utility.yul\":1138:1148   */\n      dup1\n        /* \"#utility.yul\":1134:1136   */\n      0x40\n        /* \"#utility.yul\":1127:1149   */\n      mstore\n        /* \"#utility.yul\":917:1155   */\n      pop\n        /* \"#utility.yul\":874:1155   */\n      pop\n      pop\n      jump\t// out\n        /* \"#utility.yul\":1161:1290   */\n    tag_49:\n        /* \"#utility.yul\":1195:1201   */\n      0x00\n        /* \"#utility.yul\":1222:1242   */\n      tag_87\n      tag_41\n      jump\t// in\n    tag_87:\n        /* \"#utility.yul\":1212:1242   */\n      swap1\n      pop\n        /* \"#utility.yul\":1251:1284   */\n      tag_88\n        /* \"#utility.yul\":1279:1283   */\n      dup3\n        /* \"#utility.yul\":1271:1277   */\n      dup3\n        /* \"#utility.yul\":1251:1284   */\n      tag_48\n      jump\t// in\n    tag_88:\n        /* \"#utility.yul\":1161:1290   */\n      swap2\n      swap1\n      pop\n      jump\t// out\n        /* \"#utility.yul\":1296:1604   */\n    tag_50:\n        /* \"#utility.yul\":1358:1362   */\n      0x00\n        /* \"#utility.yul\":1448:1466   */\n      0xffffffffffffffff\n        /* \"#utility.yul\":1440:1446   */\n      dup3\n        /* \"#utility.yul\":1437:1467   */\n      gt\n        /* \"#utility.yul\":1434:1490   */\n      iszero\n      tag_90\n      jumpi\n        /* \"#utility.yul\":1470:1488   */\n      tag_91\n      tag_47\n      jump\t// in\n    tag_91:\n        /* \"#utility.yul\":1434:1490   */\n    tag_90:\n        /* \"#utility.yul\":1508:1537   */\n      tag_92\n        /* \"#utility.yul\":1530:1536   */\n      dup3\n        /* \"#utility.yul\":1508:1537   */\n      tag_46\n      jump\t// in\n    tag_92:\n        /* \"#utility.yul\":1500:1537   */\n      swap1\n      pop\n        /* \"#utility.yul\":1592:1596   */\n      0x20\n        /* \"#utility.yul\":1586:1590   */\n      dup2\n        /* \"#utility.yul\":1582:1597   */\n      add\n        /* \"#utility.yul\":1574:1597   */\n      swap1\n      pop\n        /* \"#utility.yul\":1296:1604   */\n      swap2\n      swap1\n      pop\n      jump\t// out\n        /* \"#utility.yul\":1610:1764   */\n    tag_51:\n        /* \"#utility.yul\":1694:1700   */\n      dup3\n        /* \"#utility.yul\":1689:1692   */\n      dup2\n        /* \"#utility.yul\":1684:1687   */\n      dup4\n        /* \"#utility.yul\":1671:1701   */\n      calldatacopy\n        /* \"#utility.yul\":1756:1757   */\n      0x00\n        /* \"#utility.yul\":1747:1753   */\n      dup4\n        /* \"#utility.yul\":1742:1745   */\n      dup4\n        /* \"#utility.yul\":1738:1754   */\n      add\n        /* \"#utility.yul\":1731:1758   */\n      mstore\n        /* \"#utility.yul\":1610:1764   */\n      pop\n      pop\n      pop\n      jump\t// out\n        /* \"#utility.yul\":1770:2182   */\n    tag_52:\n        /* \"#utility.yul\":1848:1853   */\n      0x00\n        /* \"#utility.yul\":1873:1939   */\n      tag_95\n        /* \"#utility.yul\":1889:1938   */\n      tag_96\n        /* \"#utility.yul\":1931:1937   */\n      dup5\n        /* \"#utility.yul\":1889:1938   */\n      tag_50\n      jump\t// in\n    tag_96:\n        /* \"#utility.yul\":1873:1939   */\n      tag_49\n      jump\t// in\n    tag_95:\n        /* \"#utility.yul\":1864:1939   */\n      swap1\n      pop\n        /* \"#utility.yul\":1962:1968   */\n      dup3\n        /* \"#utility.yul\":1955:1960   */\n      dup2\n        /* \"#utility.yul\":1948:1969   */\n      mstore\n        /* \"#utility.yul\":2000:2004   */\n      0x20\n        /* \"#utility.yul\":1993:1998   */\n      dup2\n        /* \"#utility.yul\":1989:2005   */\n      add\n        /* \"#utility.yul\":2038:2041   */\n      dup5\n        /* \"#utility.yul\":2029:2035   */\n      dup5\n        /* \"#utility.yul\":2024:2027   */\n      dup5\n        /* \"#utility.yul\":2020:2036   */\n      add\n        /* \"#utility.yul\":2017:2042   */\n      gt\n        /* \"#utility.yul\":2014:2126   */\n      iszero\n      tag_97\n      jumpi\n        /* \"#utility.yul\":2045:2124   */\n      tag_98\n      tag_45\n      jump\t// in\n    tag_98:\n        /* \"#utility.yul\":2014:2126   */\n    tag_97:\n        /* \"#utility.yul\":2135:2176   */\n      tag_99\n        /* \"#utility.yul\":2169:2175   */\n      dup5\n        /* \"#utility.yul\":2164:2167   */\n      dup3\n        /* \"#utility.yul\":2159:2162   */\n      dup6\n        /* \"#utility.yul\":2135:2176   */\n      tag_51\n      jump\t// in\n    tag_99:\n        /* \"#utility.yul\":1854:2182   */\n      pop\n        /* \"#utility.yul\":1770:2182   */\n      swap4\n      swap3\n      pop\n      pop\n      pop\n      jump\t// out\n        /* \"#utility.yul\":2202:2542   */\n    tag_53:\n        /* \"#utility.yul\":2258:2263   */\n      0x00\n        /* \"#utility.yul\":2307:2310   */\n      dup3\n        /* \"#utility.yul\":2300:2304   */\n      0x1f\n        /* \"#utility.yul\":2292:2298   */\n      dup4\n        /* \"#utility.yul\":2288:2305   */\n      add\n        /* \"#utility.yul\":2284:2311   */\n      slt\n        /* \"#utility.yul\":2274:2396   */\n      tag_101\n      jumpi\n        /* \"#utility.yul\":2315:2394   */\n      tag_102\n      tag_44\n      jump\t// in\n    tag_102:\n        /* \"#utility.yul\":2274:2396   */\n    tag_101:\n        /* \"#utility.yul\":2432:2438   */\n      dup2\n        /* \"#utility.yul\":2419:2439   */\n      calldataload\n        /* \"#utility.yul\":2457:2536   */\n      tag_103\n        /* \"#utility.yul\":2532:2535   */\n      dup5\n        /* \"#utility.yul\":2524:2530   */\n      dup3\n        /* \"#utility.yul\":2517:2521   */\n      0x20\n        /* \"#utility.yul\":2509:2515   */\n      dup7\n        /* \"#utility.yul\":2505:2522   */\n      add\n        /* \"#utility.yul\":2457:2536   */\n      tag_52\n      jump\t// in\n    tag_103:\n        /* \"#utility.yul\":2448:2536   */\n      swap2\n      pop\n        /* \"#utility.yul\":2264:2542   */\n      pop\n        /* \"#utility.yul\":2202:2542   */\n      swap3\n      swap2\n      pop\n      pop\n      jump\t// out\n        /* \"#utility.yul\":2548:3057   */\n    tag_9:\n        /* \"#utility.yul\":2617:2623   */\n      0x00\n        /* \"#utility.yul\":2666:2668   */\n      0x20\n        /* \"#utility.yul\":2654:2663   */\n      dup3\n        /* \"#utility.yul\":2645:2652   */\n      dup5\n        /* \"#utility.yul\":2641:2664   */\n      sub\n        /* \"#utility.yul\":2637:2669   */\n      slt\n        /* \"#utility.yul\":2634:2753   */\n      iszero\n      tag_105\n      jumpi\n        /* \"#utility.yul\":2672:2751   */\n      tag_106\n      tag_42\n      jump\t// in\n    tag_106:\n        /* \"#utility.yul\":2634:2753   */\n    tag_105:\n        /* \"#utility.yul\":2820:2821   */\n      0x00\n        /* \"#utility.yul\":2809:2818   */\n      dup3\n        /* \"#utility.yul\":2805:2822   */\n      add\n        /* \"#utility.yul\":2792:2823   */\n      calldataload\n        /* \"#utility.yul\":2850:2868   */\n      0xffffffffffffffff\n        /* \"#utility.yul\":2842:2848   */\n      dup2\n        /* \"#utility.yul\":2839:2869   */\n      gt\n        /* \"#utility.yul\":2836:2953   */\n      iszero\n      tag_107\n      jumpi\n        /* \"#utility.yul\":2872:2951   */\n      tag_108\n      tag_43\n      jump\t// in\n    tag_108:\n        /* \"#utility.yul\":2836:2953   */\n    tag_107:\n        /* \"#utility.yul\":2977:3040   */\n      tag_109\n        /* \"#utility.yul\":3032:3039   */\n      dup5\n        /* \"#utility.yul\":3023:3029   */\n      dup3\n        /* \"#utility.yul\":3012:3021   */\n      dup6\n        /* \"#utility.yul\":3008:3030   */\n      add\n        /* \"#utility.yul\":2977:3040   */\n      tag_53\n      jump\t// in\n    tag_109:\n        /* \"#utility.yul\":2967:3040   */\n      swap2\n      pop\n        /* \"#utility.yul\":2763:3050   */\n      pop\n        /* \"#utility.yul\":2548:3057   */\n      swap3\n      swap2\n      pop\n      pop\n      jump\t// out\n        /* \"#utility.yul\":3063:3200   */\n    tag_54:\n        /* \"#utility.yul\":3153:3159   */\n      0x00\n        /* \"#utility.yul\":3187:3192   */\n      dup2\n        /* \"#utility.yul\":3181:3193   */\n      mload\n        /* \"#utility.yul\":3171:3193   */\n      swap1\n      pop\n        /* \"#utility.yul\":3063:3200   */\n      swap2\n      swap1\n      pop\n      jump\t// out\n        /* \"#utility.yul\":3206:3413   */\n    tag_55:\n        /* \"#utility.yul\":3328:3339   */\n      0x00\n        /* \"#utility.yul\":3362:3368   */\n      dup3\n        /* \"#utility.yul\":3357:3360   */\n      dup3\n        /* \"#utility.yul\":3350:3369   */\n      mstore\n        /* \"#utility.yul\":3402:3406   */\n      0x20\n        /* \"#utility.yul\":3397:3400   */\n      dup3\n        /* \"#utility.yul\":3393:3407   */\n      add\n        /* \"#utility.yul\":3378:3407   */\n      swap1\n      pop\n        /* \"#utility.yul\":3206:3413   */\n      swap3\n      swap2\n      pop\n      pop\n      jump\t// out\n        /* \"#utility.yul\":3419:3574   */\n    tag_56:\n        /* \"#utility.yul\":3509:3513   */\n      0x00\n        /* \"#utility.yul\":3532:3535   */\n      dup2\n        /* \"#utility.yul\":3524:3535   */\n      swap1\n      pop\n        /* \"#utility.yul\":3562:3566   */\n      0x20\n        /* \"#utility.yul\":3557:3560   */\n      dup3\n        /* \"#utility.yul\":3553:3567   */\n      add\n        /* \"#utility.yul\":3545:3567   */\n      swap1\n      pop\n        /* \"#utility.yul\":3419:3574   */\n      swap2\n      swap1\n      pop\n      jump\t// out\n        /* \"#utility.yul\":3580:3706   */\n    tag_57:\n        /* \"#utility.yul\":3617:3624   */\n      0x00\n        /* \"#utility.yul\":3657:3699   */\n      0xffffffffffffffffffffffffffffffffffffffff\n        /* \"#utility.yul\":3650:3655   */\n      dup3\n        /* \"#utility.yul\":3646:3700   */\n      and\n        /* \"#utility.yul\":3635:3700   */\n      swap1\n      pop\n        /* \"#utility.yul\":3580:3706   */\n      swap2\n      swap1\n      pop\n      jump\t// out\n        /* \"#utility.yul\":3712:3808   */\n    tag_58:\n        /* \"#utility.yul\":3749:3756   */\n      0x00\n        /* \"#utility.yul\":3778:3802   */\n      tag_115\n        /* \"#utility.yul\":3796:3801   */\n      dup3\n        /* \"#utility.yul\":3778:3802   */\n      tag_57\n      jump\t// in\n    tag_115:\n        /* \"#utility.yul\":3767:3802   */\n      swap1\n      pop\n        /* \"#utility.yul\":3712:3808   */\n      swap2\n      swap1\n      pop\n      jump\t// out\n        /* \"#utility.yul\":3814:3922   */\n    tag_59:\n        /* \"#utility.yul\":3891:3915   */\n      tag_117\n        /* \"#utility.yul\":3909:3914   */\n      dup2\n        /* \"#utility.yul\":3891:3915   */\n      tag_58\n      jump\t// in\n    tag_117:\n        /* \"#utility.yul\":3886:3889   */\n      dup3\n        /* \"#utility.yul\":3879:3916   */\n      mstore\n        /* \"#utility.yul\":3814:3922   */\n      pop\n      pop\n      jump\t// out\n        /* \"#utility.yul\":3928:4005   */\n    tag_60:\n        /* \"#utility.yul\":3965:3972   */\n      0x00\n        /* \"#utility.yul\":3994:3999   */\n      dup2\n        /* \"#utility.yul\":3983:3999   */\n      swap1\n      pop\n        /* \"#utility.yul\":3928:4005   */\n      swap2\n      swap1\n      pop\n      jump\t// out\n        /* \"#utility.yul\":4011:4119   */\n    tag_61:\n        /* \"#utility.yul\":4088:4112   */\n      tag_120\n        /* \"#utility.yul\":4106:4111   */\n      dup2\n        /* \"#utility.yul\":4088:4112   */\n      tag_60\n      jump\t// in\n    tag_120:\n        /* \"#utility.yul\":4083:4086   */\n      dup3\n        /* \"#utility.yul\":4076:4113   */\n      mstore\n        /* \"#utility.yul\":4011:4119   */\n      pop\n      pop\n      jump\t// out\n        /* \"#utility.yul\":4189:4689   */\n    tag_62:\n        /* \"#utility.yul\":4322:4326   */\n      0x40\n        /* \"#utility.yul\":4317:4320   */\n      dup3\n        /* \"#utility.yul\":4313:4327   */\n      add\n        /* \"#utility.yul\":4416:4420   */\n      0x00\n        /* \"#utility.yul\":4409:4414   */\n      dup3\n        /* \"#utility.yul\":4405:4421   */\n      add\n        /* \"#utility.yul\":4399:4422   */\n      mload\n        /* \"#utility.yul\":4435:4498   */\n      tag_122\n        /* \"#utility.yul\":4492:4496   */\n      0x00\n        /* \"#utility.yul\":4487:4490   */\n      dup6\n        /* \"#utility.yul\":4483:4497   */\n      add\n        /* \"#utility.yul\":4469:4481   */\n      dup3\n        /* \"#utility.yul\":4435:4498   */\n      tag_59\n      jump\t// in\n    tag_122:\n        /* \"#utility.yul\":4337:4508   */\n      pop\n        /* \"#utility.yul\":4590:4594   */\n      0x20\n        /* \"#utility.yul\":4583:4588   */\n      dup3\n        /* \"#utility.yul\":4579:4595   */\n      add\n        /* \"#utility.yul\":4573:4596   */\n      mload\n        /* \"#utility.yul\":4609:4672   */\n      tag_123\n        /* \"#utility.yul\":4666:4670   */\n      0x20\n        /* \"#utility.yul\":4661:4664   */\n      dup6\n        /* \"#utility.yul\":4657:4671   */\n      add\n        /* \"#utility.yul\":4643:4655   */\n      dup3\n        /* \"#utility.yul\":4609:4672   */\n      tag_61\n      jump\t// in\n    tag_123:\n        /* \"#utility.yul\":4518:4682   */\n      pop\n        /* \"#utility.yul\":4291:4689   */\n      pop\n        /* \"#utility.yul\":4189:4689   */\n      pop\n      pop\n      jump\t// out\n        /* \"#utility.yul\":4695:4966   */\n    tag_63:\n        /* \"#utility.yul\":4810:4820   */\n      0x00\n        /* \"#utility.yul\":4831:4923   */\n      tag_125\n        /* \"#utility.yul\":4919:4922   */\n      dup4\n        /* \"#utility.yul\":4911:4917   */\n      dup4\n        /* \"#utility.yul\":4831:4923   */\n      tag_62\n      jump\t// in\n    tag_125:\n        /* \"#utility.yul\":4955:4959   */\n      0x40\n        /* \"#utility.yul\":4950:4953   */\n      dup4\n        /* \"#utility.yul\":4946:4960   */\n      add\n        /* \"#utility.yul\":4932:4960   */\n      swap1\n      pop\n        /* \"#utility.yul\":4695:4966   */\n      swap3\n      swap2\n      pop\n      pop\n      jump\t// out\n        /* \"#utility.yul\":4972:5108   */\n    tag_64:\n        /* \"#utility.yul\":5065:5069   */\n      0x00\n        /* \"#utility.yul\":5097:5101   */\n      0x20\n        /* \"#utility.yul\":5092:5095   */\n      dup3\n        /* \"#utility.yul\":5088:5102   */\n      add\n        /* \"#utility.yul\":5080:5102   */\n      swap1\n      pop\n        /* \"#utility.yul\":4972:5108   */\n      swap2\n      swap1\n      pop\n      jump\t// out\n        /* \"#utility.yul\":5182:6098   */\n    tag_65:\n        /* \"#utility.yul\":5347:5350   */\n      0x00\n        /* \"#utility.yul\":5376:5453   */\n      tag_128\n        /* \"#utility.yul\":5447:5452   */\n      dup3\n        /* \"#utility.yul\":5376:5453   */\n      tag_54\n      jump\t// in\n    tag_128:\n        /* \"#utility.yul\":5469:5578   */\n      tag_129\n        /* \"#utility.yul\":5571:5577   */\n      dup2\n        /* \"#utility.yul\":5566:5569   */\n      dup6\n        /* \"#utility.yul\":5469:5578   */\n      tag_55\n      jump\t// in\n    tag_129:\n        /* \"#utility.yul\":5462:5578   */\n      swap4\n      pop\n        /* \"#utility.yul\":5602:5681   */\n      tag_130\n        /* \"#utility.yul\":5675:5680   */\n      dup4\n        /* \"#utility.yul\":5602:5681   */\n      tag_56\n      jump\t// in\n    tag_130:\n        /* \"#utility.yul\":5704:5711   */\n      dup1\n        /* \"#utility.yul\":5735:5736   */\n      0x00\n        /* \"#utility.yul\":5720:6073   */\n    tag_131:\n        /* \"#utility.yul\":5745:5751   */\n      dup4\n        /* \"#utility.yul\":5742:5743   */\n      dup2\n        /* \"#utility.yul\":5739:5752   */\n      lt\n        /* \"#utility.yul\":5720:6073   */\n      iszero\n      tag_133\n      jumpi\n        /* \"#utility.yul\":5821:5827   */\n      dup2\n        /* \"#utility.yul\":5815:5828   */\n      mload\n        /* \"#utility.yul\":5848:5957   */\n      tag_134\n        /* \"#utility.yul\":5953:5956   */\n      dup9\n        /* \"#utility.yul\":5938:5951   */\n      dup3\n        /* \"#utility.yul\":5848:5957   */\n      tag_63\n      jump\t// in\n    tag_134:\n        /* \"#utility.yul\":5841:5957   */\n      swap8\n      pop\n        /* \"#utility.yul\":5980:6063   */\n      tag_135\n        /* \"#utility.yul\":6056:6062   */\n      dup4\n        /* \"#utility.yul\":5980:6063   */\n      tag_64\n      jump\t// in\n    tag_135:\n        /* \"#utility.yul\":5970:6063   */\n      swap3\n      pop\n        /* \"#utility.yul\":5780:6073   */\n      pop\n        /* \"#utility.yul\":5767:5768   */\n      0x01\n        /* \"#utility.yul\":5764:5765   */\n      dup2\n        /* \"#utility.yul\":5760:5769   */\n      add\n        /* \"#utility.yul\":5755:5769   */\n      swap1\n      pop\n        /* \"#utility.yul\":5720:6073   */\n      jump(tag_131)\n    tag_133:\n        /* \"#utility.yul\":5724:5738   */\n      pop\n        /* \"#utility.yul\":6089:6092   */\n      dup6\n        /* \"#utility.yul\":6082:6092   */\n      swap4\n      pop\n        /* \"#utility.yul\":5352:6098   */\n      pop\n      pop\n      pop\n        /* \"#utility.yul\":5182:6098   */\n      swap3\n      swap2\n      pop\n      pop\n      jump\t// out\n        /* \"#utility.yul\":6104:6569   */\n    tag_12:\n        /* \"#utility.yul\":6293:6297   */\n      0x00\n        /* \"#utility.yul\":6331:6333   */\n      0x20\n        /* \"#utility.yul\":6320:6329   */\n      dup3\n        /* \"#utility.yul\":6316:6334   */\n      add\n        /* \"#utility.yul\":6308:6334   */\n      swap1\n      pop\n        /* \"#utility.yul\":6380:6389   */\n      dup2\n        /* \"#utility.yul\":6374:6378   */\n      dup2\n        /* \"#utility.yul\":6370:6390   */\n      sub\n        /* \"#utility.yul\":6366:6367   */\n      0x00\n        /* \"#utility.yul\":6355:6364   */\n      dup4\n        /* \"#utility.yul\":6351:6368   */\n      add\n        /* \"#utility.yul\":6344:6391   */\n      mstore\n        /* \"#utility.yul\":6408:6562   */\n      tag_137\n        /* \"#utility.yul\":6557:6561   */\n      dup2\n        /* \"#utility.yul\":6548:6554   */\n      dup5\n        /* \"#utility.yul\":6408:6562   */\n      tag_65\n      jump\t// in\n    tag_137:\n        /* \"#utility.yul\":6400:6562   */\n      swap1\n      pop\n        /* \"#utility.yul\":6104:6569   */\n      swap3\n      swap2\n      pop\n      pop\n      jump\t// out\n        /* \"#utility.yul\":6575:6697   */\n    tag_66:\n        /* \"#utility.yul\":6648:6672   */\n      tag_139\n        /* \"#utility.yul\":6666:6671   */\n      dup2\n        /* \"#utility.yul\":6648:6672   */\n      tag_58\n      jump\t// in\n    tag_139:\n        /* \"#utility.yul\":6641:6646   */\n      dup2\n        /* \"#utility.yul\":6638:6673   */\n      eq\n        /* \"#utility.yul\":6628:6691   */\n      tag_140\n      jumpi\n        /* \"#utility.yul\":6687:6688   */\n      0x00\n        /* \"#utility.yul\":6684:6685   */\n      dup1\n        /* \"#utility.yul\":6677:6689   */\n      revert\n        /* \"#utility.yul\":6628:6691   */\n    tag_140:\n        /* \"#utility.yul\":6575:6697   */\n      pop\n      jump\t// out\n        /* \"#utility.yul\":6703:6842   */\n    tag_67:\n        /* \"#utility.yul\":6749:6754   */\n      0x00\n        /* \"#utility.yul\":6787:6793   */\n      dup2\n        /* \"#utility.yul\":6774:6794   */\n      calldataload\n        /* \"#utility.yul\":6765:6794   */\n      swap1\n      pop\n        /* \"#utility.yul\":6803:6836   */\n      tag_142\n        /* \"#utility.yul\":6830:6835   */\n      dup2\n        /* \"#utility.yul\":6803:6836   */\n      tag_66\n      jump\t// in\n    tag_142:\n        /* \"#utility.yul\":6703:6842   */\n      swap3\n      swap2\n      pop\n      pop\n      jump\t// out\n        /* \"#utility.yul\":6848:6970   */\n    tag_68:\n        /* \"#utility.yul\":6921:6945   */\n      tag_144\n        /* \"#utility.yul\":6939:6944   */\n      dup2\n        /* \"#utility.yul\":6921:6945   */\n      tag_60\n      jump\t// in\n    tag_144:\n        /* \"#utility.yul\":6914:6919   */\n      dup2\n        /* \"#utility.yul\":6911:6946   */\n      eq\n        /* \"#utility.yul\":6901:6964   */\n      tag_145\n      jumpi\n        /* \"#utility.yul\":6960:6961   */\n      0x00\n        /* \"#utility.yul\":6957:6958   */\n      dup1\n        /* \"#utility.yul\":6950:6962   */\n      revert\n        /* \"#utility.yul\":6901:6964   */\n    tag_145:\n        /* \"#utility.yul\":6848:6970   */\n      pop\n      jump\t// out\n        /* \"#utility.yul\":6976:7115   */\n    tag_69:\n        /* \"#utility.yul\":7022:7027   */\n      0x00\n        /* \"#utility.yul\":7060:7066   */\n      dup2\n        /* \"#utility.yul\":7047:7067   */\n      calldataload\n        /* \"#utility.yul\":7038:7067   */\n      swap1\n      pop\n        /* \"#utility.yul\":7076:7109   */\n      tag_147\n        /* \"#utility.yul\":7103:7108   */\n      dup2\n        /* \"#utility.yul\":7076:7109   */\n      tag_68\n      jump\t// in\n    tag_147:\n        /* \"#utility.yul\":6976:7115   */\n      swap3\n      swap2\n      pop\n      pop\n      jump\t// out\n        /* \"#utility.yul\":7121:7920   */\n    tag_19:\n        /* \"#utility.yul\":7208:7214   */\n      0x00\n        /* \"#utility.yul\":7216:7222   */\n      dup1\n        /* \"#utility.yul\":7224:7230   */\n      0x00\n        /* \"#utility.yul\":7273:7275   */\n      0x60\n        /* \"#utility.yul\":7261:7270   */\n      dup5\n        /* \"#utility.yul\":7252:7259   */\n      dup7\n        /* \"#utility.yul\":7248:7271   */\n      sub\n        /* \"#utility.yul\":7244:7276   */\n      slt\n        /* \"#utility.yul\":7241:7360   */\n      iszero\n      tag_149\n      jumpi\n        /* \"#utility.yul\":7279:7358   */\n      tag_150\n      tag_42\n      jump\t// in\n    tag_150:\n        /* \"#utility.yul\":7241:7360   */\n    tag_149:\n        /* \"#utility.yul\":7399:7400   */\n      0x00\n        /* \"#utility.yul\":7424:7477   */\n      tag_151\n        /* \"#utility.yul\":7469:7476   */\n      dup7\n        /* \"#utility.yul\":7460:7466   */\n      dup3\n        /* \"#utility.yul\":7449:7458   */\n      dup8\n        /* \"#utility.yul\":7445:7467   */\n      add\n        /* \"#utility.yul\":7424:7477   */\n      tag_67\n      jump\t// in\n    tag_151:\n        /* \"#utility.yul\":7414:7477   */\n      swap4\n      pop\n        /* \"#utility.yul\":7370:7487   */\n      pop\n        /* \"#utility.yul\":7526:7528   */\n      0x20\n        /* \"#utility.yul\":7552:7605   */\n      tag_152\n        /* \"#utility.yul\":7597:7604   */\n      dup7\n        /* \"#utility.yul\":7588:7594   */\n      dup3\n        /* \"#utility.yul\":7577:7586   */\n      dup8\n        /* \"#utility.yul\":7573:7595   */\n      add\n        /* \"#utility.yul\":7552:7605   */\n      tag_69\n      jump\t// in\n    tag_152:\n        /* \"#utility.yul\":7542:7605   */\n      swap3\n      pop\n        /* \"#utility.yul\":7497:7615   */\n      pop\n        /* \"#utility.yul\":7682:7684   */\n      0x40\n        /* \"#utility.yul\":7671:7680   */\n      dup5\n        /* \"#utility.yul\":7667:7685   */\n      add\n        /* \"#utility.yul\":7654:7686   */\n      calldataload\n        /* \"#utility.yul\":7713:7731   */\n      0xffffffffffffffff\n        /* \"#utility.yul\":7705:7711   */\n      dup2\n        /* \"#utility.yul\":7702:7732   */\n      gt\n        /* \"#utility.yul\":7699:7816   */\n      iszero\n      tag_153\n      jumpi\n        /* \"#utility.yul\":7735:7814   */\n      tag_154\n      tag_43\n      jump\t// in\n    tag_154:\n        /* \"#utility.yul\":7699:7816   */\n    tag_153:\n        /* \"#utility.yul\":7840:7903   */\n      tag_155\n        /* \"#utility.yul\":7895:7902   */\n      dup7\n        /* \"#utility.yul\":7886:7892   */\n      dup3\n        /* \"#utility.yul\":7875:7884   */\n      dup8\n        /* \"#utility.yul\":7871:7893   */\n      add\n        /* \"#utility.yul\":7840:7903   */\n      tag_53\n      jump\t// in\n    tag_155:\n        /* \"#utility.yul\":7830:7903   */\n      swap2\n      pop\n        /* \"#utility.yul\":7625:7913   */\n      pop\n        /* \"#utility.yul\":7121:7920   */\n      swap3\n      pop\n      swap3\n      pop\n      swap3\n      jump\t// out\n        /* \"#utility.yul\":7926:8025   */\n    tag_70:\n        /* \"#utility.yul\":7978:7984   */\n      0x00\n        /* \"#utility.yul\":8012:8017   */\n      dup2\n        /* \"#utility.yul\":8006:8018   */\n      mload\n        /* \"#utility.yul\":7996:8018   */\n      swap1\n      pop\n        /* \"#utility.yul\":7926:8025   */\n      swap2\n      swap1\n      pop\n      jump\t// out\n        /* \"#utility.yul\":8031:8179   */\n    tag_71:\n        /* \"#utility.yul\":8133:8144   */\n      0x00\n        /* \"#utility.yul\":8170:8173   */\n      dup2\n        /* \"#utility.yul\":8155:8173   */\n      swap1\n      pop\n        /* \"#utility.yul\":8031:8179   */\n      swap3\n      swap2\n      pop\n      pop\n      jump\t// out\n        /* \"#utility.yul\":8185:8492   */\n    tag_72:\n        /* \"#utility.yul\":8253:8254   */\n      0x00\n        /* \"#utility.yul\":8263:8376   */\n    tag_159:\n        /* \"#utility.yul\":8277:8283   */\n      dup4\n        /* \"#utility.yul\":8274:8275   */\n      dup2\n        /* \"#utility.yul\":8271:8284   */\n      lt\n        /* \"#utility.yul\":8263:8376   */\n      iszero\n      tag_161\n      jumpi\n        /* \"#utility.yul\":8362:8363   */\n      dup1\n        /* \"#utility.yul\":8357:8360   */\n      dup3\n        /* \"#utility.yul\":8353:8364   */\n      add\n        /* \"#utility.yul\":8347:8365   */\n      mload\n        /* \"#utility.yul\":8343:8344   */\n      dup2\n        /* \"#utility.yul\":8338:8341   */\n      dup5\n        /* \"#utility.yul\":8334:8345   */\n      add\n        /* \"#utility.yul\":8327:8366   */\n      mstore\n        /* \"#utility.yul\":8299:8301   */\n      0x20\n        /* \"#utility.yul\":8296:8297   */\n      dup2\n        /* \"#utility.yul\":8292:8302   */\n      add\n        /* \"#utility.yul\":8287:8302   */\n      swap1\n      pop\n        /* \"#utility.yul\":8263:8376   */\n      jump(tag_159)\n    tag_161:\n        /* \"#utility.yul\":8394:8400   */\n      dup4\n        /* \"#utility.yul\":8391:8392   */\n      dup2\n        /* \"#utility.yul\":8388:8401   */\n      gt\n        /* \"#utility.yul\":8385:8486   */\n      iszero\n      tag_162\n      jumpi\n        /* \"#utility.yul\":8474:8475   */\n      0x00\n        /* \"#utility.yul\":8465:8471   */\n      dup5\n        /* \"#utility.yul\":8460:8463   */\n      dup5\n        /* \"#utility.yul\":8456:8472   */\n      add\n        /* \"#utility.yul\":8449:8476   */\n      mstore\n        /* \"#utility.yul\":8385:8486   */\n    tag_162:\n        /* \"#utility.yul\":8234:8492   */\n      pop\n        /* \"#utility.yul\":8185:8492   */\n      pop\n      pop\n      pop\n      jump\t// out\n        /* \"#utility.yul\":8498:8875   */\n    tag_73:\n        /* \"#utility.yul\":8604:8607   */\n      0x00\n        /* \"#utility.yul\":8632:8671   */\n      tag_164\n        /* \"#utility.yul\":8665:8670   */\n      dup3\n        /* \"#utility.yul\":8632:8671   */\n      tag_70\n      jump\t// in\n    tag_164:\n        /* \"#utility.yul\":8687:8776   */\n      tag_165\n        /* \"#utility.yul\":8769:8775   */\n      dup2\n        /* \"#utility.yul\":8764:8767   */\n      dup6\n        /* \"#utility.yul\":8687:8776   */\n      tag_71\n      jump\t// in\n    tag_165:\n        /* \"#utility.yul\":8680:8776   */\n      swap4\n      pop\n        /* \"#utility.yul\":8785:8837   */\n      tag_166\n        /* \"#utility.yul\":8830:8836   */\n      dup2\n        /* \"#utility.yul\":8825:8828   */\n      dup6\n        /* \"#utility.yul\":8818:8822   */\n      0x20\n        /* \"#utility.yul\":8811:8816   */\n      dup7\n        /* \"#utility.yul\":8807:8823   */\n      add\n        /* \"#utility.yul\":8785:8837   */\n      tag_72\n      jump\t// in\n    tag_166:\n        /* \"#utility.yul\":8862:8868   */\n      dup1\n        /* \"#utility.yul\":8857:8860   */\n      dup5\n        /* \"#utility.yul\":8853:8869   */\n      add\n        /* \"#utility.yul\":8846:8869   */\n      swap2\n      pop\n        /* \"#utility.yul\":8608:8875   */\n      pop\n        /* \"#utility.yul\":8498:8875   */\n      swap3\n      swap2\n      pop\n      pop\n      jump\t// out\n        /* \"#utility.yul\":8881:9156   */\n    tag_26:\n        /* \"#utility.yul\":9013:9016   */\n      0x00\n        /* \"#utility.yul\":9035:9130   */\n      tag_168\n        /* \"#utility.yul\":9126:9129   */\n      dup3\n        /* \"#utility.yul\":9117:9123   */\n      dup5\n        /* \"#utility.yul\":9035:9130   */\n      tag_73\n      jump\t// in\n    tag_168:\n        /* \"#utility.yul\":9028:9130   */\n      swap2\n      pop\n        /* \"#utility.yul\":9147:9150   */\n      dup2\n        /* \"#utility.yul\":9140:9150   */\n      swap1\n      pop\n        /* \"#utility.yul\":8881:9156   */\n      swap3\n      swap2\n      pop\n      pop\n      jump\t// out\n\n    auxdata: 0xa2646970667358221220eee323c82999321c28685bb09712561c21c6dd55ec839e9bd158fd753bf5117864736f6c634300080f0033\n}\n","bytecode":{"linkReferences":{},"object":"608060405234801561001057600080fd5b506108ce806100206000396000f3fe608060405234801561001057600080fd5b506004361061004c5760003560e01c806331cb760e14610051578063785b40981461008157806381aee6b3146100b1578063f2f1be0a146100cd575b600080fd5b61006b6004803603810190610066919061059d565b6100e9565b604051610078919061071e565b60405180910390f35b61009b6004803603810190610096919061059d565b6101c6565b6040516100a8919061071e565b60405180910390f35b6100cb60048036038101906100c69190610798565b6102a3565b005b6100e760048036038101906100e29190610798565b610373565b005b60606001826040516100fb9190610881565b9081526020016040518091039020805480602002602001604051908101604052809291908181526020016000905b828210156101bb57838290600052602060002090600202016040518060400160405290816000820160009054906101000a900473ffffffffffffffffffffffffffffffffffffffff1673ffffffffffffffffffffffffffffffffffffffff1673ffffffffffffffffffffffffffffffffffffffff16815260200160018201548152505081526020019060010190610129565b505050509050919050565b60606000826040516101d89190610881565b9081526020016040518091039020805480602002602001604051908101604052809291908181526020016000905b8282101561029857838290600052602060002090600202016040518060400160405290816000820160009054906101000a900473ffffffffffffffffffffffffffffffffffffffff1673ffffffffffffffffffffffffffffffffffffffff1673ffffffffffffffffffffffffffffffffffffffff16815260200160018201548152505081526020019060010190610206565b505050509050919050565b600060405180604001604052808573ffffffffffffffffffffffffffffffffffffffff1681526020018481525090506000826040516102e29190610881565b908152602001604051809103902081908060018154018082558091505060019003906000526020600020906002020160009091909190915060008201518160000160006101000a81548173ffffffffffffffffffffffffffffffffffffffff021916908373ffffffffffffffffffffffffffffffffffffffff16021790555060208201518160010155505050505050565b600060405180604001604052808573ffffffffffffffffffffffffffffffffffffffff1681526020018481525090506001826040516103b29190610881565b908152602001604051809103902081908060018154018082558091505060019003906000526020600020906002020160009091909190915060008201518160000160006101000a81548173ffffffffffffffffffffffffffffffffffffffff021916908373ffffffffffffffffffffffffffffffffffffffff16021790555060208201518160010155505050505050565b6000604051905090565b600080fd5b600080fd5b600080fd5b600080fd5b6000601f19601f8301169050919050565b7f4e487b7100000000000000000000000000000000000000000000000000000000600052604160045260246000fd5b6104aa82610461565b810181811067ffffffffffffffff821117156104c9576104c8610472565b5b80604052505050565b60006104dc610443565b90506104e882826104a1565b919050565b600067ffffffffffffffff82111561050857610507610472565b5b61051182610461565b9050602081019050919050565b82818337600083830152505050565b600061054061053b846104ed565b6104d2565b90508281526020810184848401111561055c5761055b61045c565b5b61056784828561051e565b509392505050565b600082601f83011261058457610583610457565b5b813561059484826020860161052d565b91505092915050565b6000602082840312156105b3576105b261044d565b5b600082013567ffffffffffffffff8111156105d1576105d0610452565b5b6105dd8482850161056f565b91505092915050565b600081519050919050565b600082825260208201905092915050565b6000819050602082019050919050565b600073ffffffffffffffffffffffffffffffffffffffff82169050919050565b600061063d82610612565b9050919050565b61064d81610632565b82525050565b6000819050919050565b61066681610653565b82525050565b6040820160008201516106826000850182610644565b506020820151610695602085018261065d565b50505050565b60006106a7838361066c565b60408301905092915050565b6000602082019050919050565b60006106cb826105e6565b6106d581856105f1565b93506106e083610602565b8060005b838110156107115781516106f8888261069b565b9750610703836106b3565b9250506001810190506106e4565b5085935050505092915050565b6000602082019050818103600083015261073881846106c0565b905092915050565b61074981610632565b811461075457600080fd5b50565b60008135905061076681610740565b92915050565b61077581610653565b811461078057600080fd5b50565b6000813590506107928161076c565b92915050565b6000806000606084860312156107b1576107b061044d565b5b60006107bf86828701610757565b93505060206107d086828701610783565b925050604084013567ffffffffffffffff8111156107f1576107f0610452565b5b6107fd8682870161056f565b9150509250925092565b600081519050919050565b600081905092915050565b60005b8381101561083b578082015181840152602081019050610820565b8381111561084a576000848401525b50505050565b600061085b82610807565b6108658185610812565b935061087581856020860161081d565b80840191505092915050565b600061088d8284610850565b91508190509291505056fea2646970667358221220eee323c82999321c28685bb09712561c21c6dd55ec839e9bd158fd753bf5117864736f6c634300080f0033","opcodes":"PUSH1 0x80 PUSH1 0x40 MSTORE CALLVALUE DUP1 ISZERO PUSH2 0x10 JUMPI PUSH1 0x0 DUP1 REVERT JUMPDEST POP PUSH2 0x8CE DUP1 PUSH2 0x20 PUSH1 0x0 CODECOPY PUSH1 0x0 RETURN INVALID PUSH1 0x80 PUSH1 0x40 MSTORE CALLVALUE DUP1 ISZERO PUSH2 0x10 JUMPI PUSH1 0x0 DUP1 REVERT JUMPDEST POP PUSH1 0x4 CALLDATASIZE LT PUSH2 0x4C JUMPI PUSH1 0x0 CALLDATALOAD PUSH1 0xE0 SHR DUP1 PUSH4 0x31CB760E EQ PUSH2 0x51 JUMPI DUP1 PUSH4 0x785B4098 EQ PUSH2 0x81 JUMPI DUP1 PUSH4 0x81AEE6B3 EQ PUSH2 0xB1 JUMPI DUP1 PUSH4 0xF2F1BE0A EQ PUSH2 0xCD JUMPI JUMPDEST PUSH1 0x0 DUP1 REVERT JUMPDEST PUSH2 0x6B PUSH1 0x4 DUP1 CALLDATASIZE SUB DUP2 ADD SWAP1 PUSH2 0x66 SWAP2 SWAP1 PUSH2 0x59D JUMP JUMPDEST PUSH2 0xE9 JUMP JUMPDEST PUSH1 0x40 MLOAD PUSH2 0x78 SWAP2 SWAP1 PUSH2 0x71E JUMP JUMPDEST PUSH1 0x40 MLOAD DUP1 SWAP2 SUB SWAP1 RETURN JUMPDEST PUSH2 0x9B PUSH1 0x4 DUP1 CALLDATASIZE SUB DUP2 ADD SWAP1 PUSH2 0x96 SWAP2 SWAP1 PUSH2 0x59D JUMP JUMPDEST PUSH2 0x1C6 JUMP JUMPDEST PUSH1 0x40 MLOAD PUSH2 0xA8 SWAP2 SWAP1 PUSH2 0x71E JUMP JUMPDEST PUSH1 0x40 MLOAD DUP1 SWAP2 SUB SWAP1 RETURN JUMPDEST PUSH2 0xCB PUSH1 0x4 DUP1 CALLDATASIZE SUB DUP2 ADD SWAP1 PUSH2 0xC6 SWAP2 SWAP1 PUSH2 0x798 JUMP JUMPDEST PUSH2 0x2A3 JUMP JUMPDEST STOP JUMPDEST PUSH2 0xE7 PUSH1 0x4 DUP1 CALLDATASIZE SUB DUP2 ADD SWAP1 PUSH2 0xE2 SWAP2 SWAP1 PUSH2 0x798 JUMP JUMPDEST PUSH2 0x373 JUMP JUMPDEST STOP JUMPDEST PUSH1 0x60 PUSH1 0x1 DUP3 PUSH1 0x40 MLOAD PUSH2 0xFB SWAP2 SWAP1 PUSH2 0x881 JUMP JUMPDEST SWAP1 DUP2 MSTORE PUSH1 0x20 ADD PUSH1 0x40 MLOAD DUP1 SWAP2 SUB SWAP1 KECCAK256 DUP1 SLOAD DUP1 PUSH1 0x20 MUL PUSH1 0x20 ADD PUSH1 0x40 MLOAD SWAP1 DUP2 ADD PUSH1 0x40 MSTORE DUP1 SWAP3 SWAP2 SWAP1 DUP2 DUP2 MSTORE PUSH1 0x20 ADD PUSH1 0x0 SWAP1 JUMPDEST DUP3 DUP3 LT ISZERO PUSH2 0x1BB JUMPI DUP4 DUP3 SWAP1 PUSH1 0x0 MSTORE PUSH1 0x20 PUSH1 0x0 KECCAK256 SWAP1 PUSH1 0x2 MUL ADD PUSH1 0x40 MLOAD DUP1 PUSH1 0x40 ADD PUSH1 0x40 MSTORE SWAP1 DUP2 PUSH1 0x0 DUP3 ADD PUSH1 0x0 SWAP1 SLOAD SWAP1 PUSH2 0x100 EXP SWAP1 DIV PUSH20 0xFFFFFFFFFFFFFFFFFFFFFFFFFFFFFFFFFFFFFFFF AND PUSH20 0xFFFFFFFFFFFFFFFFFFFFFFFFFFFFFFFFFFFFFFFF AND PUSH20 0xFFFFFFFFFFFFFFFFFFFFFFFFFFFFFFFFFFFFFFFF AND DUP2 MSTORE PUSH1 0x20 ADD PUSH1 0x1 DUP3 ADD SLOAD DUP2 MSTORE POP POP DUP2 MSTORE PUSH1 0x20 ADD SWAP1 PUSH1 0x1 ADD SWAP1 PUSH2 0x129 JUMP JUMPDEST POP POP POP POP SWAP1 POP SWAP2 SWAP1 POP JUMP JUMPDEST PUSH1 0x60 PUSH1 0x0 DUP3 PUSH1 0x40 MLOAD PUSH2 0x1D8 SWAP2 SWAP1 PUSH2 0x881 JUMP JUMPDEST SWAP1 DUP2 MSTORE PUSH1 0x20 ADD PUSH1 0x40 MLOAD DUP1 SWAP2 SUB SWAP1 KECCAK256 DUP1 SLOAD DUP1 PUSH1 0x20 MUL PUSH1 0x20 ADD PUSH1 0x40 MLOAD SWAP1 DUP2 ADD PUSH1 0x40 MSTORE DUP1 SWAP3 SWAP2 SWAP1 DUP2 DUP2 MSTORE PUSH1 0x20 ADD PUSH1 0x0 SWAP1 JUMPDEST DUP3 DUP3 LT ISZERO PUSH2 0x298 JUMPI DUP4 DUP3 SWAP1 PUSH1 0x0 MSTORE PUSH1 0x20 PUSH1 0x0 KECCAK256 SWAP1 PUSH1 0x2 MUL ADD PUSH1 0x40 MLOAD DUP1 PUSH1 0x40 ADD PUSH1 0x40 MSTORE SWAP1 DUP2 PUSH1 0x0 DUP3 ADD PUSH1 0x0 SWAP1 SLOAD SWAP1 PUSH2 0x100 EXP SWAP1 DIV PUSH20 0xFFFFFFFFFFFFFFFFFFFFFFFFFFFFFFFFFFFFFFFF AND PUSH20 0xFFFFFFFFFFFFFFFFFFFFFFFFFFFFFFFFFFFFFFFF AND PUSH20 0xFFFFFFFFFFFFFFFFFFFFFFFFFFFFFFFFFFFFFFFF AND DUP2 MSTORE PUSH1 0x20 ADD PUSH1 0x1 DUP3 ADD SLOAD DUP2 MSTORE POP POP DUP2 MSTORE PUSH1 0x20 ADD SWAP1 PUSH1 0x1 ADD SWAP1 PUSH2 0x206 JUMP JUMPDEST POP POP POP POP SWAP1 POP SWAP2 SWAP1 POP JUMP JUMPDEST PUSH1 0x0 PUSH1 0x40 MLOAD DUP1 PUSH1 0x40 ADD PUSH1 0x40 MSTORE DUP1 DUP6 PUSH20 0xFFFFFFFFFFFFFFFFFFFFFFFFFFFFFFFFFFFFFFFF AND DUP2 MSTORE PUSH1 0x20 ADD DUP5 DUP2 MSTORE POP SWAP1 POP PUSH1 0x0 DUP3 PUSH1 0x40 MLOAD PUSH2 0x2E2 SWAP2 SWAP1 PUSH2 0x881 JUMP JUMPDEST SWAP1 DUP2 MSTORE PUSH1 0x20 ADD PUSH1 0x40 MLOAD DUP1 SWAP2 SUB SWAP1 KECCAK256 DUP2 SWAP1 DUP1 PUSH1 0x1 DUP2 SLOAD ADD DUP1 DUP3 SSTORE DUP1 SWAP2 POP POP PUSH1 0x1 SWAP1 SUB SWAP1 PUSH1 0x0 MSTORE PUSH1 0x20 PUSH1 0x0 KECCAK256 SWAP1 PUSH1 0x2 MUL ADD PUSH1 0x0 SWAP1 SWAP2 SWAP1 SWAP2 SWAP1 SWAP2 POP PUSH1 0x0 DUP3 ADD MLOAD DUP2 PUSH1 0x0 ADD PUSH1 0x0 PUSH2 0x100 EXP DUP2 SLOAD DUP2 PUSH20 0xFFFFFFFFFFFFFFFFFFFFFFFFFFFFFFFFFFFFFFFF MUL NOT AND SWAP1 DUP4 PUSH20 0xFFFFFFFFFFFFFFFFFFFFFFFFFFFFFFFFFFFFFFFF AND MUL OR SWAP1 SSTORE POP PUSH1 0x20 DUP3 ADD MLOAD DUP2 PUSH1 0x1 ADD SSTORE POP POP POP POP POP POP JUMP JUMPDEST PUSH1 0x0 PUSH1 0x40 MLOAD DUP1 PUSH1 0x40 ADD PUSH1 0x40 MSTORE DUP1 DUP6 PUSH20 0xFFFFFFFFFFFFFFFFFFFFFFFFFFFFFFFFFFFFFFFF AND DUP2 MSTORE PUSH1 0x20 ADD DUP5 DUP2 MSTORE POP SWAP1 POP PUSH1 0x1 DUP3 PUSH1 0x40 MLOAD PUSH2 0x3B2 SWAP2 SWAP1 PUSH2 0x881 JUMP JUMPDEST SWAP1 DUP2 MSTORE PUSH1 0x20 ADD PUSH1 0x40 MLOAD DUP1 SWAP2 SUB SWAP1 KECCAK256 DUP2 SWAP1 DUP1 PUSH1 0x1 DUP2 SLOAD ADD DUP1 DUP3 SSTORE DUP1 SWAP2 POP POP PUSH1 0x1 SWAP1 SUB SWAP1 PUSH1 0x0 MSTORE PUSH1 0x20 PUSH1 0x0 KECCAK256 SWAP1 PUSH1 0x2 MUL ADD PUSH1 0x0 SWAP1 SWAP2 SWAP1 SWAP2 SWAP1 SWAP2 POP PUSH1 0x0 DUP3 ADD MLOAD DUP2 PUSH1 0x0 ADD PUSH1 0x0 PUSH2 0x100 EXP DUP2 SLOAD DUP2 PUSH20 0xFFFFFFFFFFFFFFFFFFFFFFFFFFFFFFFFFFFFFFFF MUL NOT AND SWAP1 DUP4 PUSH20 0xFFFFFFFFFFFFFFFFFFFFFFFFFFFFFFFFFFFFFFFF AND MUL OR SWAP1 SSTORE POP PUSH1 0x20 DUP3 ADD MLOAD DUP2 PUSH1 0x1 ADD SSTORE POP POP POP POP POP POP JUMP JUMPDEST PUSH1 0x0 PUSH1 0x40 MLOAD SWAP1 POP SWAP1 JUMP JUMPDEST PUSH1 0x0 DUP1 REVERT JUMPDEST PUSH1 0x0 DUP1 REVERT JUMPDEST PUSH1 0x0 DUP1 REVERT JUMPDEST PUSH1 0x0 DUP1 REVERT JUMPDEST PUSH1 0x0 PUSH1 0x1F NOT PUSH1 0x1F DUP4 ADD AND SWAP1 POP SWAP2 SWAP1 POP JUMP JUMPDEST PUSH32 0x4E487B7100000000000000000000000000000000000000000000000000000000 PUSH1 0x0 MSTORE PUSH1 0x41 PUSH1 0x4 MSTORE PUSH1 0x24 PUSH1 0x0 REVERT JUMPDEST PUSH2 0x4AA DUP3 PUSH2 0x461 JUMP JUMPDEST DUP2 ADD DUP2 DUP2 LT PUSH8 0xFFFFFFFFFFFFFFFF DUP3 GT OR ISZERO PUSH2 0x4C9 JUMPI PUSH2 0x4C8 PUSH2 0x472 JUMP JUMPDEST JUMPDEST DUP1 PUSH1 0x40 MSTORE POP POP POP JUMP JUMPDEST PUSH1 0x0 PUSH2 0x4DC PUSH2 0x443 JUMP JUMPDEST SWAP1 POP PUSH2 0x4E8 DUP3 DUP3 PUSH2 0x4A1 JUMP JUMPDEST SWAP2 SWAP1 POP JUMP JUMPDEST PUSH1 0x0 PUSH8 0xFFFFFFFFFFFFFFFF DUP3 GT ISZERO PUSH2 0x508 JUMPI PUSH2 0x507 PUSH2 0x472 JUMP JUMPDEST JUMPDEST PUSH2 0x511 DUP3 PUSH2 0x461 JUMP JUMPDEST SWAP1 POP PUSH1 0x20 DUP2 ADD SWAP1 POP SWAP2 SWAP1 POP JUMP JUMPDEST DUP3 DUP2 DUP4 CALLDATACOPY PUSH1 0x0 DUP4 DUP4 ADD MSTORE POP POP POP JUMP JUMPDEST PUSH1 0x0 PUSH2 0x540 PUSH2 0x53B DUP5 PUSH2 0x4ED JUMP JUMPDEST PUSH2 0x4D2 JUMP JUMPDEST SWAP1 POP DUP3 DUP2 MSTORE PUSH1 0x20 DUP2 ADD DUP5 DUP5 DUP5 ADD GT ISZERO PUSH2 0x55C JUMPI PUSH2 0x55B PUSH2 0x45C JUMP JUMPDEST JUMPDEST PUSH2 0x567 DUP5 DUP3 DUP6 PUSH2 0x51E JUMP JUMPDEST POP SWAP4 SWAP3 POP POP POP JUMP JUMPDEST PUSH1 0x0 DUP3 PUSH1 0x1F DUP4 ADD SLT PUSH2 0x584 JUMPI PUSH2 0x583 PUSH2 0x457 JUMP JUMPDEST JUMPDEST DUP2 CALLDATALOAD PUSH2 0x594 DUP5 DUP3 PUSH1 0x20 DUP7 ADD PUSH2 0x52D JUMP JUMPDEST SWAP2 POP POP SWAP3 SWAP2 POP POP JUMP JUMPDEST PUSH1 0x0 PUSH1 0x20 DUP3 DUP5 SUB SLT ISZERO PUSH2 0x5B3 JUMPI PUSH2 0x5B2 PUSH2 0x44D JUMP JUMPDEST JUMPDEST PUSH1 0x0 DUP3 ADD CALLDATALOAD PUSH8 0xFFFFFFFFFFFFFFFF DUP2 GT ISZERO PUSH2 0x5D1 JUMPI PUSH2 0x5D0 PUSH2 0x452 JUMP JUMPDEST JUMPDEST PUSH2 0x5DD DUP5 DUP3 DUP6 ADD PUSH2 0x56F JUMP JUMPDEST SWAP2 POP POP SWAP3 SWAP2 POP POP JUMP JUMPDEST PUSH1 0x0 DUP2 MLOAD SWAP1 POP SWAP2 SWAP1 POP JUMP JUMPDEST PUSH1 0x0 DUP3 DUP3 MSTORE PUSH1 0x20 DUP3 ADD SWAP1 POP SWAP3 SWAP2 POP POP JUMP JUMPDEST PUSH1 0x0 DUP2 SWAP1 POP PUSH1 0x20 DUP3 ADD SWAP1 POP SWAP2 SWAP1 POP JUMP JUMPDEST PUSH1 0x0 PUSH20 0xFFFFFFFFFFFFFFFFFFFFFFFFFFFFFFFFFFFFFFFF DUP3 AND SWAP1 POP SWAP2 SWAP1 POP JUMP JUMPDEST PUSH1 0x0 PUSH2 0x63D DUP3 PUSH2 0x612 JUMP JUMPDEST SWAP1 POP SWAP2 SWAP1 POP JUMP JUMPDEST PUSH2 0x64D DUP2 PUSH2 0x632 JUMP JUMPDEST DUP3 MSTORE POP POP JUMP JUMPDEST PUSH1 0x0 DUP2 SWAP1 POP SWAP2 SWAP1 POP JUMP JUMPDEST PUSH2 0x666 DUP2 PUSH2 0x653 JUMP JUMPDEST DUP3 MSTORE POP POP JUMP JUMPDEST PUSH1 0x40 DUP3 ADD PUSH1 0x0 DUP3 ADD MLOAD PUSH2 0x682 PUSH1 0x0 DUP6 ADD DUP3 PUSH2 0x644 JUMP JUMPDEST POP PUSH1 0x20 DUP3 ADD MLOAD PUSH2 0x695 PUSH1 0x20 DUP6 ADD DUP3 PUSH2 0x65D JUMP JUMPDEST POP POP POP POP JUMP JUMPDEST PUSH1 0x0 PUSH2 0x6A7 DUP4 DUP4 PUSH2 0x66C JUMP JUMPDEST PUSH1 0x40 DUP4 ADD SWAP1 POP SWAP3 SWAP2 POP POP JUMP JUMPDEST PUSH1 0x0 PUSH1 0x20 DUP3 ADD SWAP1 POP SWAP2 SWAP1 POP JUMP JUMPDEST PUSH1 0x0 PUSH2 0x6CB DUP3 PUSH2 0x5E6 JUMP JUMPDEST PUSH2 0x6D5 DUP2 DUP6 PUSH2 0x5F1 JUMP JUMPDEST SWAP4 POP PUSH2 0x6E0 DUP4 PUSH2 0x602 JUMP JUMPDEST DUP1 PUSH1 0x0 JUMPDEST DUP4 DUP2 LT ISZERO PUSH2 0x711 JUMPI DUP2 MLOAD PUSH2 0x6F8 DUP9 DUP3 PUSH2 0x69B JUMP JUMPDEST SWAP8 POP PUSH2 0x703 DUP4 PUSH2 0x6B3 JUMP JUMPDEST SWAP3 POP POP PUSH1 0x1 DUP2 ADD SWAP1 POP PUSH2 0x6E4 JUMP JUMPDEST POP DUP6 SWAP4 POP POP POP POP SWAP3 SWAP2 POP POP JUMP JUMPDEST PUSH1 0x0 PUSH1 0x20 DUP3 ADD SWAP1 POP DUP2 DUP2 SUB PUSH1 0x0 DUP4 ADD MSTORE PUSH2 0x738 DUP2 DUP5 PUSH2 0x6C0 JUMP JUMPDEST SWAP1 POP SWAP3 SWAP2 POP POP JUMP JUMPDEST PUSH2 0x749 DUP2 PUSH2 0x632 JUMP JUMPDEST DUP2 EQ PUSH2 0x754 JUMPI PUSH1 0x0 DUP1 REVERT JUMPDEST POP JUMP JUMPDEST PUSH1 0x0 DUP2 CALLDATALOAD SWAP1 POP PUSH2 0x766 DUP2 PUSH2 0x740 JUMP JUMPDEST SWAP3 SWAP2 POP POP JUMP JUMPDEST PUSH2 0x775 DUP2 PUSH2 0x653 JUMP JUMPDEST DUP2 EQ PUSH2 0x780 JUMPI PUSH1 0x0 DUP1 REVERT JUMPDEST POP JUMP JUMPDEST PUSH1 0x0 DUP2 CALLDATALOAD SWAP1 POP PUSH2 0x792 DUP2 PUSH2 0x76C JUMP JUMPDEST SWAP3 SWAP2 POP POP JUMP JUMPDEST PUSH1 0x0 DUP1 PUSH1 0x0 PUSH1 0x60 DUP5 DUP7 SUB SLT ISZERO PUSH2 0x7B1 JUMPI PUSH2 0x7B0 PUSH2 0x44D JUMP JUMPDEST JUMPDEST PUSH1 0x0 PUSH2 0x7BF DUP7 DUP3 DUP8 ADD PUSH2 0x757 JUMP JUMPDEST SWAP4 POP POP PUSH1 0x20 PUSH2 0x7D0 DUP7 DUP3 DUP8 ADD PUSH2 0x783 JUMP JUMPDEST SWAP3 POP POP PUSH1 0x40 DUP5 ADD CALLDATALOAD PUSH8 0xFFFFFFFFFFFFFFFF DUP2 GT ISZERO PUSH2 0x7F1 JUMPI PUSH2 0x7F0 PUSH2 0x452 JUMP JUMPDEST JUMPDEST PUSH2 0x7FD DUP7 DUP3 DUP8 ADD PUSH2 0x56F JUMP JUMPDEST SWAP2 POP POP SWAP3 POP SWAP3 POP SWAP3 JUMP JUMPDEST PUSH1 0x0 DUP2 MLOAD SWAP1 POP SWAP2 SWAP1 POP JUMP JUMPDEST PUSH1 0x0 DUP2 SWAP1 POP SWAP3 SWAP2 POP POP JUMP JUMPDEST PUSH1 0x0 JUMPDEST DUP4 DUP2 LT ISZERO PUSH2 0x83B JUMPI DUP1 DUP3 ADD MLOAD DUP2 DUP5 ADD MSTORE PUSH1 0x20 DUP2 ADD SWAP1 POP PUSH2 0x820 JUMP JUMPDEST DUP4 DUP2 GT ISZERO PUSH2 0x84A JUMPI PUSH1 0x0 DUP5 DUP5 ADD MSTORE JUMPDEST POP POP POP POP JUMP JUMPDEST PUSH1 0x0 PUSH2 0x85B DUP3 PUSH2 0x807 JUMP JUMPDEST PUSH2 0x865 DUP2 DUP6 PUSH2 0x812 JUMP JUMPDEST SWAP4 POP PUSH2 0x875 DUP2 DUP6 PUSH1 0x20 DUP7 ADD PUSH2 0x81D JUMP JUMPDEST DUP1 DUP5 ADD SWAP2 POP POP SWAP3 SWAP2 POP POP JUMP JUMPDEST PUSH1 0x0 PUSH2 0x88D DUP3 DUP5 PUSH2 0x850 JUMP JUMPDEST SWAP2 POP DUP2 SWAP1 POP SWAP3 SWAP2 POP POP JUMP INVALID LOG2 PUSH5 0x6970667358 0x22 SLT KECCAK256 0xEE 0xE3 0x23 0xC8 0x29 SWAP10 ORIGIN SHR 0x28 PUSH9 0x5BB09712561C21C6DD SSTORE 0xEC DUP4 SWAP15 SWAP12 0xD1 PC REVERT PUSH22 0x3BF5117864736F6C634300080F003300000000000000 "},"gasEstimates":{"creation":{"codeDepositCost":"450800","executionCost":"486","totalCost":"451286"},"external":{"createCheckIn(address,uint256,string)":"infinite","createCheckOut(address,uint256,string)":"infinite","getCheckIns(string)":"infinite","getCheckOuts(string)":"infinite"}},"methodIdentifiers":{"createCheckIn(address,uint256,string)":"81aee6b3","createCheckOut(address,uint256,string)":"f2f1be0a","getCheckIns(string)":"785b4098","getCheckOuts(string)":"31cb760e"}},"storageLayout":{"storage":[{"astId":232,"contract":"intelifactory.sol:AccessCampus","label":"checkIns","offset":0,"slot":"0","type":"t_mapping(t_string_memory_ptr,t_array(t_struct(Access)226_storage)dyn_storage)"},{"astId":238,"contract":"intelifactory.sol:AccessCampus","label":"checkOuts","offset":0,"slot":"1","type":"t_mapping(t_string_memory_ptr,t_array(t_struct(Access)226_storage)dyn_storage)"}],"types":{"t_address":{"encoding":"inplace","label":"address","numberOfBytes":"20"},"t_array(t_struct(Access)226_storage)dyn_storage":{"base":"t_struct(Access)226_storage","encoding":"dynamic_array","label":"struct AccessCampus.Access[]","numberOfBytes":"32"},"t_mapping(t_string_memory_ptr,t_array(t_struct(Access)226_storage)dyn_storage)":{"encoding":"mapping","key":"t_string_memory_ptr","label":"mapping(string => struct AccessCampus.Access[])","numberOfBytes":"32","value":"t_array(t_struct(Access)226_storage)dyn_storage"},"t_string_memory_ptr":{"encoding":"bytes","label":"string","numberOfBytes":"32"},"t_struct(Access)226_storage":{"encoding":"inplace","label":"struct AccessCampus.Access","members":[{"astId":223,"contract":"intelifactory.sol:AccessCampus","label":"userAddress","offset":0,"slot":"0","type":"t_address"},{"astId":225,"contract":"intelifactory.sol:AccessCampus","label":"time","offset":0,"slot":"1","type":"t_uint256"}],"numberOfBytes":"64"},"t_uint256":{"encoding":"inplace","label":"uint256","numberOfBytes":"32"}}},"userdoc":{"kind":"user","methods":{},"version":1}}