{"abi":[{"inputs":[{"internalType":"address","name":"_owner","type":"address"}],"stateMutability":"nonpayable","type":"constructor"},{"inputs":[{"internalType":"string","name":"","type":"string"},{"internalType":"string","name":"","type":"string"},{"internalType":"uint256","name":"","type":"uint256"}],"name":"activities","outputs":[{"internalType":"address","name":"","type":"address"}],"stateMutability":"view","type":"function"},{"inputs":[{"internalType":"string","name":"_activityType","type":"string"},{"internalType":"string","name":"_date","type":"string"}],"name":"getActivity","outputs":[{"internalType":"address[]","name":"","type":"address[]"}],"stateMutability":"view","type":"function"},{"inputs":[{"internalType":"string","name":"_id","type":"string"}],"name":"getCheckIn","outputs":[{"internalType":"uint64[]","name":"","type":"uint64[]"}],"stateMutability":"view","type":"function"},{"inputs":[{"internalType":"string","name":"_id","type":"string"}],"name":"getCheckOut","outputs":[{"internalType":"uint64[]","name":"","type":"uint64[]"}],"stateMutability":"view","type":"function"},{"inputs":[{"internalType":"string","name":"_activityType","type":"string"},{"internalType":"string","name":"_date","type":"string"},{"internalType":"address","name":"_activityAdress","type":"address"}],"name":"newActivity","outputs":[],"stateMutability":"nonpayable","type":"function"},{"inputs":[{"internalType":"string","name":"_date","type":"string"},{"internalType":"uint64","name":"_unixTime","type":"uint64"}],"name":"newCheckIn","outputs":[],"stateMutability":"nonpayable","type":"function"},{"inputs":[{"internalType":"string","name":"_date","type":"string"},{"internalType":"uint64","name":"_unixTime","type":"uint64"}],"name":"newCheckOut","outputs":[],"stateMutability":"nonpayable","type":"function"},{"inputs":[],"name":"owner","outputs":[{"internalType":"address","name":"","type":"address"}],"stateMutability":"view","type":"function"}],"devdoc":{"kind":"dev","methods":{},"version":1},"evm":{"assembly":"    /* \"intelifactory.sol\":1414:2767  contract Person {... */\n  mstore(0x40, 0x80)\n    /* \"intelifactory.sol\":1639:1700  constructor(address _owner) {... */\n  callvalue\n  dup1\n  iszero\n  tag_1\n  jumpi\n  0x00\n  dup1\n  revert\ntag_1:\n  pop\n  mload(0x40)\n  sub(codesize, bytecodeSize)\n  dup1\n  bytecodeSize\n  dup4\n  codecopy\n  dup2\n  dup2\n  add\n  0x40\n  mstore\n  dup2\n  add\n  swap1\n  tag_2\n  swap2\n  swap1\n  tag_3\n  jump\t// in\ntag_2:\n    /* \"intelifactory.sol\":1686:1692  _owner */\n  dup1\n    /* \"intelifactory.sol\":1678:1683  owner */\n  0x00\n  dup1\n    /* \"intelifactory.sol\":1678:1692  owner = _owner */\n  0x0100\n  exp\n  dup2\n  sload\n  dup2\n  0xffffffffffffffffffffffffffffffffffffffff\n  mul\n  not\n  and\n  swap1\n  dup4\n  0xffffffffffffffffffffffffffffffffffffffff\n  and\n  mul\n  or\n  swap1\n  sstore\n  pop\n    /* \"intelifactory.sol\":1639:1700  constructor(address _owner) {... */\n  pop\n    /* \"intelifactory.sol\":1414:2767  contract Person {... */\n  jump(tag_6)\n    /* \"#utility.yul\":88:205   */\ntag_8:\n    /* \"#utility.yul\":197:198   */\n  0x00\n    /* \"#utility.yul\":194:195   */\n  dup1\n    /* \"#utility.yul\":187:199   */\n  revert\n    /* \"#utility.yul\":334:460   */\ntag_10:\n    /* \"#utility.yul\":371:378   */\n  0x00\n    /* \"#utility.yul\":411:453   */\n  0xffffffffffffffffffffffffffffffffffffffff\n    /* \"#utility.yul\":404:409   */\n  dup3\n    /* \"#utility.yul\":400:454   */\n  and\n    /* \"#utility.yul\":389:454   */\n  swap1\n  pop\n    /* \"#utility.yul\":334:460   */\n  swap2\n  swap1\n  pop\n  jump\t// out\n    /* \"#utility.yul\":466:562   */\ntag_11:\n    /* \"#utility.yul\":503:510   */\n  0x00\n    /* \"#utility.yul\":532:556   */\n  tag_20\n    /* \"#utility.yul\":550:555   */\n  dup3\n    /* \"#utility.yul\":532:556   */\n  tag_10\n  jump\t// in\ntag_20:\n    /* \"#utility.yul\":521:556   */\n  swap1\n  pop\n    /* \"#utility.yul\":466:562   */\n  swap2\n  swap1\n  pop\n  jump\t// out\n    /* \"#utility.yul\":568:690   */\ntag_12:\n    /* \"#utility.yul\":641:665   */\n  tag_22\n    /* \"#utility.yul\":659:664   */\n  dup2\n    /* \"#utility.yul\":641:665   */\n  tag_11\n  jump\t// in\ntag_22:\n    /* \"#utility.yul\":634:639   */\n  dup2\n    /* \"#utility.yul\":631:666   */\n  eq\n    /* \"#utility.yul\":621:684   */\n  tag_23\n  jumpi\n    /* \"#utility.yul\":680:681   */\n  0x00\n    /* \"#utility.yul\":677:678   */\n  dup1\n    /* \"#utility.yul\":670:682   */\n  revert\n    /* \"#utility.yul\":621:684   */\ntag_23:\n    /* \"#utility.yul\":568:690   */\n  pop\n  jump\t// out\n    /* \"#utility.yul\":696:839   */\ntag_13:\n    /* \"#utility.yul\":753:758   */\n  0x00\n    /* \"#utility.yul\":784:790   */\n  dup2\n    /* \"#utility.yul\":778:791   */\n  mload\n    /* \"#utility.yul\":769:791   */\n  swap1\n  pop\n    /* \"#utility.yul\":800:833   */\n  tag_25\n    /* \"#utility.yul\":827:832   */\n  dup2\n    /* \"#utility.yul\":800:833   */\n  tag_12\n  jump\t// in\ntag_25:\n    /* \"#utility.yul\":696:839   */\n  swap3\n  swap2\n  pop\n  pop\n  jump\t// out\n    /* \"#utility.yul\":845:1196   */\ntag_3:\n    /* \"#utility.yul\":915:921   */\n  0x00\n    /* \"#utility.yul\":964:966   */\n  0x20\n    /* \"#utility.yul\":952:961   */\n  dup3\n    /* \"#utility.yul\":943:950   */\n  dup5\n    /* \"#utility.yul\":939:962   */\n  sub\n    /* \"#utility.yul\":935:967   */\n  slt\n    /* \"#utility.yul\":932:1051   */\n  iszero\n  tag_27\n  jumpi\n    /* \"#utility.yul\":970:1049   */\n  tag_28\n  tag_8\n  jump\t// in\ntag_28:\n    /* \"#utility.yul\":932:1051   */\ntag_27:\n    /* \"#utility.yul\":1090:1091   */\n  0x00\n    /* \"#utility.yul\":1115:1179   */\n  tag_29\n    /* \"#utility.yul\":1171:1178   */\n  dup5\n    /* \"#utility.yul\":1162:1168   */\n  dup3\n    /* \"#utility.yul\":1151:1160   */\n  dup6\n    /* \"#utility.yul\":1147:1169   */\n  add\n    /* \"#utility.yul\":1115:1179   */\n  tag_13\n  jump\t// in\ntag_29:\n    /* \"#utility.yul\":1105:1179   */\n  swap2\n  pop\n    /* \"#utility.yul\":1061:1189   */\n  pop\n    /* \"#utility.yul\":845:1196   */\n  swap3\n  swap2\n  pop\n  pop\n  jump\t// out\n    /* \"intelifactory.sol\":1414:2767  contract Person {... */\ntag_6:\n  dataSize(sub_0)\n  dup1\n  dataOffset(sub_0)\n  0x00\n  codecopy\n  0x00\n  return\nstop\n\nsub_0: assembly {\n        /* \"intelifactory.sol\":1414:2767  contract Person {... */\n      mstore(0x40, 0x80)\n      callvalue\n      dup1\n      iszero\n      tag_1\n      jumpi\n      0x00\n      dup1\n      revert\n    tag_1:\n      pop\n      jumpi(tag_2, lt(calldatasize, 0x04))\n      shr(0xe0, calldataload(0x00))\n      dup1\n      0xc9629404\n      gt\n      tag_11\n      jumpi\n      dup1\n      0xc9629404\n      eq\n      tag_7\n      jumpi\n      dup1\n      0xcdede4fe\n      eq\n      tag_8\n      jumpi\n      dup1\n      0xe0ca4301\n      eq\n      tag_9\n      jumpi\n      dup1\n      0xed855a41\n      eq\n      tag_10\n      jumpi\n      jump(tag_2)\n    tag_11:\n      dup1\n      0x1961b32f\n      eq\n      tag_3\n      jumpi\n      dup1\n      0x1d3c7ff4\n      eq\n      tag_4\n      jumpi\n      dup1\n      0x87e12557\n      eq\n      tag_5\n      jumpi\n      dup1\n      0x8da5cb5b\n      eq\n      tag_6\n      jumpi\n    tag_2:\n      0x00\n      dup1\n      revert\n        /* \"intelifactory.sol\":1870:2017  function getCheckIn(string memory _id)... */\n    tag_3:\n      tag_12\n      0x04\n      dup1\n      calldatasize\n      sub\n      dup2\n      add\n      swap1\n      tag_13\n      swap2\n      swap1\n      tag_14\n      jump\t// in\n    tag_13:\n      tag_15\n      jump\t// in\n    tag_12:\n      mload(0x40)\n      tag_16\n      swap2\n      swap1\n      tag_17\n      jump\t// in\n    tag_16:\n      mload(0x40)\n      dup1\n      swap2\n      sub\n      swap1\n      return\n        /* \"intelifactory.sol\":1565:1630  mapping(string => mapping(string => address[])) public activities */\n    tag_4:\n      tag_18\n      0x04\n      dup1\n      calldatasize\n      sub\n      dup2\n      add\n      swap1\n      tag_19\n      swap2\n      swap1\n      tag_20\n      jump\t// in\n    tag_19:\n      tag_21\n      jump\t// in\n    tag_18:\n      mload(0x40)\n      tag_22\n      swap2\n      swap1\n      tag_23\n      jump\t// in\n    tag_22:\n      mload(0x40)\n      dup1\n      swap2\n      sub\n      swap1\n      return\n        /* \"intelifactory.sol\":2025:2181  function newCheckOut(string memory _date, uint64 _unixTime) public {... */\n    tag_5:\n      tag_24\n      0x04\n      dup1\n      calldatasize\n      sub\n      dup2\n      add\n      swap1\n      tag_25\n      swap2\n      swap1\n      tag_26\n      jump\t// in\n    tag_25:\n      tag_27\n      jump\t// in\n    tag_24:\n      stop\n        /* \"intelifactory.sol\":1437:1457  address public owner */\n    tag_6:\n      tag_28\n      tag_29\n      jump\t// in\n    tag_28:\n      mload(0x40)\n      tag_30\n      swap2\n      swap1\n      tag_23\n      jump\t// in\n    tag_30:\n      mload(0x40)\n      dup1\n      swap2\n      sub\n      swap1\n      return\n        /* \"intelifactory.sol\":2346:2556  function newActivity(... */\n    tag_7:\n      tag_31\n      0x04\n      dup1\n      calldatasize\n      sub\n      dup2\n      add\n      swap1\n      tag_32\n      swap2\n      swap1\n      tag_33\n      jump\t// in\n    tag_32:\n      tag_34\n      jump\t// in\n    tag_31:\n      stop\n        /* \"intelifactory.sol\":1708:1862  function newCheckIn(string memory _date, uint64 _unixTime) public {... */\n    tag_8:\n      tag_35\n      0x04\n      dup1\n      calldatasize\n      sub\n      dup2\n      add\n      swap1\n      tag_36\n      swap2\n      swap1\n      tag_26\n      jump\t// in\n    tag_36:\n      tag_37\n      jump\t// in\n    tag_35:\n      stop\n        /* \"intelifactory.sol\":2189:2338  function getCheckOut(string memory _id)... */\n    tag_9:\n      tag_38\n      0x04\n      dup1\n      calldatasize\n      sub\n      dup2\n      add\n      swap1\n      tag_39\n      swap2\n      swap1\n      tag_14\n      jump\t// in\n    tag_39:\n      tag_40\n      jump\t// in\n    tag_38:\n      mload(0x40)\n      tag_41\n      swap2\n      swap1\n      tag_17\n      jump\t// in\n    tag_41:\n      mload(0x40)\n      dup1\n      swap2\n      sub\n      swap1\n      return\n        /* \"intelifactory.sol\":2564:2764  function getActivity(string memory _activityType, string memory _date)... */\n    tag_10:\n      tag_42\n      0x04\n      dup1\n      calldatasize\n      sub\n      dup2\n      add\n      swap1\n      tag_43\n      swap2\n      swap1\n      tag_44\n      jump\t// in\n    tag_43:\n      tag_45\n      jump\t// in\n    tag_42:\n      mload(0x40)\n      tag_46\n      swap2\n      swap1\n      tag_47\n      jump\t// in\n    tag_46:\n      mload(0x40)\n      dup1\n      swap2\n      sub\n      swap1\n      return\n        /* \"intelifactory.sol\":1870:2017  function getCheckIn(string memory _id)... */\n    tag_15:\n        /* \"intelifactory.sol\":1957:1972  uint64[] memory */\n      0x60\n        /* \"intelifactory.sol\":1997:2004  checkIn */\n      0x01\n        /* \"intelifactory.sol\":2005:2008  _id */\n      dup3\n        /* \"intelifactory.sol\":1997:2009  checkIn[_id] */\n      mload(0x40)\n      tag_49\n      swap2\n      swap1\n      tag_50\n      jump\t// in\n    tag_49:\n      swap1\n      dup2\n      mstore\n      0x20\n      add\n      mload(0x40)\n      dup1\n      swap2\n      sub\n      swap1\n      keccak256\n        /* \"intelifactory.sol\":1990:2009  return checkIn[_id] */\n      dup1\n      sload\n      dup1\n      0x20\n      mul\n      0x20\n      add\n      mload(0x40)\n      swap1\n      dup2\n      add\n      0x40\n      mstore\n      dup1\n      swap3\n      swap2\n      swap1\n      dup2\n      dup2\n      mstore\n      0x20\n      add\n      dup3\n      dup1\n      sload\n      dup1\n      iszero\n      tag_51\n      jumpi\n      0x20\n      mul\n      dup3\n      add\n      swap2\n      swap1\n      0x00\n      mstore\n      keccak256(0x00, 0x20)\n      swap1\n      0x00\n      swap1\n    tag_52:\n      dup3\n      dup3\n      swap1\n      sload\n      swap1\n      0x0100\n      exp\n      swap1\n      div\n      0xffffffffffffffff\n      and\n      0xffffffffffffffff\n      and\n      dup2\n      mstore\n      0x20\n      add\n      swap1\n      0x08\n      add\n      swap1\n      0x20\n      dup3\n      0x07\n      add\n      div\n      swap3\n      dup4\n      add\n      swap3\n      0x01\n      sub\n      dup3\n      mul\n      swap2\n      pop\n      dup1\n      dup5\n      gt\n      tag_52\n      jumpi\n      swap1\n      pop\n    tag_51:\n      pop\n      pop\n      pop\n      pop\n      pop\n      swap1\n      pop\n        /* \"intelifactory.sol\":1870:2017  function getCheckIn(string memory _id)... */\n      swap2\n      swap1\n      pop\n      jump\t// out\n        /* \"intelifactory.sol\":1565:1630  mapping(string => mapping(string => address[])) public activities */\n    tag_21:\n      0x03\n      dup4\n      dup1\n      mload\n      0x20\n      dup2\n      add\n      dup3\n      add\n      dup1\n      mload\n      dup5\n      dup3\n      mstore\n      0x20\n      dup4\n      add\n      0x20\n      dup6\n      add\n      keccak256\n      dup2\n      dup4\n      mstore\n      dup1\n      swap6\n      pop\n      pop\n      pop\n      pop\n      pop\n      pop\n      dup3\n      dup1\n      mload\n      0x20\n      dup2\n      add\n      dup3\n      add\n      dup1\n      mload\n      dup5\n      dup3\n      mstore\n      0x20\n      dup4\n      add\n      0x20\n      dup6\n      add\n      keccak256\n      dup2\n      dup4\n      mstore\n      dup1\n      swap6\n      pop\n      pop\n      pop\n      pop\n      pop\n      pop\n      dup2\n      dup2\n      sload\n      dup2\n      lt\n      tag_53\n      jumpi\n      0x00\n      dup1\n      revert\n    tag_53:\n      swap1\n      0x00\n      mstore\n      keccak256(0x00, 0x20)\n      add\n      0x00\n      swap3\n      pop\n      swap3\n      pop\n      pop\n      swap1\n      sload\n      swap1\n      0x0100\n      exp\n      swap1\n      div\n      0xffffffffffffffffffffffffffffffffffffffff\n      and\n      dup2\n      jump\t// out\n        /* \"intelifactory.sol\":2025:2181  function newCheckOut(string memory _date, uint64 _unixTime) public {... */\n    tag_27:\n        /* \"intelifactory.sol\":2125:2130  owner */\n      0x00\n      dup1\n      sload\n      swap1\n      0x0100\n      exp\n      swap1\n      div\n      0xffffffffffffffffffffffffffffffffffffffff\n      and\n        /* \"intelifactory.sol\":2111:2130  msg.sender == owner */\n      0xffffffffffffffffffffffffffffffffffffffff\n      and\n        /* \"intelifactory.sol\":2111:2121  msg.sender */\n      caller\n        /* \"intelifactory.sol\":2111:2130  msg.sender == owner */\n      0xffffffffffffffffffffffffffffffffffffffff\n      and\n      eq\n        /* \"intelifactory.sol\":2103:2131  require(msg.sender == owner) */\n      tag_56\n      jumpi\n      0x00\n      dup1\n      revert\n    tag_56:\n        /* \"intelifactory.sol\":2142:2150  checkOut */\n      0x02\n        /* \"intelifactory.sol\":2151:2156  _date */\n      dup3\n        /* \"intelifactory.sol\":2142:2157  checkOut[_date] */\n      mload(0x40)\n      tag_57\n      swap2\n      swap1\n      tag_50\n      jump\t// in\n    tag_57:\n      swap1\n      dup2\n      mstore\n      0x20\n      add\n      mload(0x40)\n      dup1\n      swap2\n      sub\n      swap1\n      keccak256\n        /* \"intelifactory.sol\":2163:2172  _unixTime */\n      dup2\n        /* \"intelifactory.sol\":2142:2173  checkOut[_date].push(_unixTime) */\n      swap1\n      dup1\n      0x01\n      dup2\n      sload\n      add\n      dup1\n      dup3\n      sstore\n      dup1\n      swap2\n      pop\n      pop\n      0x01\n      swap1\n      sub\n      swap1\n      0x00\n      mstore\n      keccak256(0x00, 0x20)\n      swap1\n      0x04\n      swap2\n      dup3\n      dup3\n      div\n      add\n      swap2\n      swap1\n      mod\n      0x08\n      mul\n      swap1\n      swap2\n      swap1\n      swap2\n      swap1\n      swap2\n      0x0100\n      exp\n      dup2\n      sload\n      dup2\n      0xffffffffffffffff\n      mul\n      not\n      and\n      swap1\n      dup4\n      0xffffffffffffffff\n      and\n      mul\n      or\n      swap1\n      sstore\n      pop\n        /* \"intelifactory.sol\":2025:2181  function newCheckOut(string memory _date, uint64 _unixTime) public {... */\n      pop\n      pop\n      jump\t// out\n        /* \"intelifactory.sol\":1437:1457  address public owner */\n    tag_29:\n      0x00\n      dup1\n      sload\n      swap1\n      0x0100\n      exp\n      swap1\n      div\n      0xffffffffffffffffffffffffffffffffffffffff\n      and\n      dup2\n      jump\t// out\n        /* \"intelifactory.sol\":2346:2556  function newActivity(... */\n    tag_34:\n        /* \"intelifactory.sol\":2494:2504  activities */\n      0x03\n        /* \"intelifactory.sol\":2505:2518  _activityType */\n      dup4\n        /* \"intelifactory.sol\":2494:2519  activities[_activityType] */\n      mload(0x40)\n      tag_60\n      swap2\n      swap1\n      tag_50\n      jump\t// in\n    tag_60:\n      swap1\n      dup2\n      mstore\n      0x20\n      add\n      mload(0x40)\n      dup1\n      swap2\n      sub\n      swap1\n      keccak256\n        /* \"intelifactory.sol\":2520:2525  _date */\n      dup3\n        /* \"intelifactory.sol\":2494:2526  activities[_activityType][_date] */\n      mload(0x40)\n      tag_61\n      swap2\n      swap1\n      tag_50\n      jump\t// in\n    tag_61:\n      swap1\n      dup2\n      mstore\n      0x20\n      add\n      mload(0x40)\n      dup1\n      swap2\n      sub\n      swap1\n      keccak256\n        /* \"intelifactory.sol\":2532:2547  _activityAdress */\n      dup2\n        /* \"intelifactory.sol\":2494:2548  activities[_activityType][_date].push(_activityAdress) */\n      swap1\n      dup1\n      0x01\n      dup2\n      sload\n      add\n      dup1\n      dup3\n      sstore\n      dup1\n      swap2\n      pop\n      pop\n      0x01\n      swap1\n      sub\n      swap1\n      0x00\n      mstore\n      keccak256(0x00, 0x20)\n      add\n      0x00\n      swap1\n      swap2\n      swap1\n      swap2\n      swap1\n      swap2\n      0x0100\n      exp\n      dup2\n      sload\n      dup2\n      0xffffffffffffffffffffffffffffffffffffffff\n      mul\n      not\n      and\n      swap1\n      dup4\n      0xffffffffffffffffffffffffffffffffffffffff\n      and\n      mul\n      or\n      swap1\n      sstore\n      pop\n        /* \"intelifactory.sol\":2346:2556  function newActivity(... */\n      pop\n      pop\n      pop\n      jump\t// out\n        /* \"intelifactory.sol\":1708:1862  function newCheckIn(string memory _date, uint64 _unixTime) public {... */\n    tag_37:\n        /* \"intelifactory.sol\":1807:1812  owner */\n      0x00\n      dup1\n      sload\n      swap1\n      0x0100\n      exp\n      swap1\n      div\n      0xffffffffffffffffffffffffffffffffffffffff\n      and\n        /* \"intelifactory.sol\":1793:1812  msg.sender == owner */\n      0xffffffffffffffffffffffffffffffffffffffff\n      and\n        /* \"intelifactory.sol\":1793:1803  msg.sender */\n      caller\n        /* \"intelifactory.sol\":1793:1812  msg.sender == owner */\n      0xffffffffffffffffffffffffffffffffffffffff\n      and\n      eq\n        /* \"intelifactory.sol\":1785:1813  require(msg.sender == owner) */\n      tag_64\n      jumpi\n      0x00\n      dup1\n      revert\n    tag_64:\n        /* \"intelifactory.sol\":1824:1831  checkIn */\n      0x01\n        /* \"intelifactory.sol\":1832:1837  _date */\n      dup3\n        /* \"intelifactory.sol\":1824:1838  checkIn[_date] */\n      mload(0x40)\n      tag_65\n      swap2\n      swap1\n      tag_50\n      jump\t// in\n    tag_65:\n      swap1\n      dup2\n      mstore\n      0x20\n      add\n      mload(0x40)\n      dup1\n      swap2\n      sub\n      swap1\n      keccak256\n        /* \"intelifactory.sol\":1844:1853  _unixTime */\n      dup2\n        /* \"intelifactory.sol\":1824:1854  checkIn[_date].push(_unixTime) */\n      swap1\n      dup1\n      0x01\n      dup2\n      sload\n      add\n      dup1\n      dup3\n      sstore\n      dup1\n      swap2\n      pop\n      pop\n      0x01\n      swap1\n      sub\n      swap1\n      0x00\n      mstore\n      keccak256(0x00, 0x20)\n      swap1\n      0x04\n      swap2\n      dup3\n      dup3\n      div\n      add\n      swap2\n      swap1\n      mod\n      0x08\n      mul\n      swap1\n      swap2\n      swap1\n      swap2\n      swap1\n      swap2\n      0x0100\n      exp\n      dup2\n      sload\n      dup2\n      0xffffffffffffffff\n      mul\n      not\n      and\n      swap1\n      dup4\n      0xffffffffffffffff\n      and\n      mul\n      or\n      swap1\n      sstore\n      pop\n        /* \"intelifactory.sol\":1708:1862  function newCheckIn(string memory _date, uint64 _unixTime) public {... */\n      pop\n      pop\n      jump\t// out\n        /* \"intelifactory.sol\":2189:2338  function getCheckOut(string memory _id)... */\n    tag_40:\n        /* \"intelifactory.sol\":2277:2292  uint64[] memory */\n      0x60\n        /* \"intelifactory.sol\":2317:2325  checkOut */\n      0x02\n        /* \"intelifactory.sol\":2326:2329  _id */\n      dup3\n        /* \"intelifactory.sol\":2317:2330  checkOut[_id] */\n      mload(0x40)\n      tag_68\n      swap2\n      swap1\n      tag_50\n      jump\t// in\n    tag_68:\n      swap1\n      dup2\n      mstore\n      0x20\n      add\n      mload(0x40)\n      dup1\n      swap2\n      sub\n      swap1\n      keccak256\n        /* \"intelifactory.sol\":2310:2330  return checkOut[_id] */\n      dup1\n      sload\n      dup1\n      0x20\n      mul\n      0x20\n      add\n      mload(0x40)\n      swap1\n      dup2\n      add\n      0x40\n      mstore\n      dup1\n      swap3\n      swap2\n      swap1\n      dup2\n      dup2\n      mstore\n      0x20\n      add\n      dup3\n      dup1\n      sload\n      dup1\n      iszero\n      tag_69\n      jumpi\n      0x20\n      mul\n      dup3\n      add\n      swap2\n      swap1\n      0x00\n      mstore\n      keccak256(0x00, 0x20)\n      swap1\n      0x00\n      swap1\n    tag_70:\n      dup3\n      dup3\n      swap1\n      sload\n      swap1\n      0x0100\n      exp\n      swap1\n      div\n      0xffffffffffffffff\n      and\n      0xffffffffffffffff\n      and\n      dup2\n      mstore\n      0x20\n      add\n      swap1\n      0x08\n      add\n      swap1\n      0x20\n      dup3\n      0x07\n      add\n      div\n      swap3\n      dup4\n      add\n      swap3\n      0x01\n      sub\n      dup3\n      mul\n      swap2\n      pop\n      dup1\n      dup5\n      gt\n      tag_70\n      jumpi\n      swap1\n      pop\n    tag_69:\n      pop\n      pop\n      pop\n      pop\n      pop\n      swap1\n      pop\n        /* \"intelifactory.sol\":2189:2338  function getCheckOut(string memory _id)... */\n      swap2\n      swap1\n      pop\n      jump\t// out\n        /* \"intelifactory.sol\":2564:2764  function getActivity(string memory _activityType, string memory _date)... */\n    tag_45:\n        /* \"intelifactory.sol\":2683:2699  address[] memory */\n      0x60\n        /* \"intelifactory.sol\":2724:2734  activities */\n      0x03\n        /* \"intelifactory.sol\":2735:2748  _activityType */\n      dup4\n        /* \"intelifactory.sol\":2724:2749  activities[_activityType] */\n      mload(0x40)\n      tag_72\n      swap2\n      swap1\n      tag_50\n      jump\t// in\n    tag_72:\n      swap1\n      dup2\n      mstore\n      0x20\n      add\n      mload(0x40)\n      dup1\n      swap2\n      sub\n      swap1\n      keccak256\n        /* \"intelifactory.sol\":2750:2755  _date */\n      dup3\n        /* \"intelifactory.sol\":2724:2756  activities[_activityType][_date] */\n      mload(0x40)\n      tag_73\n      swap2\n      swap1\n      tag_50\n      jump\t// in\n    tag_73:\n      swap1\n      dup2\n      mstore\n      0x20\n      add\n      mload(0x40)\n      dup1\n      swap2\n      sub\n      swap1\n      keccak256\n        /* \"intelifactory.sol\":2717:2756  return activities[_activityType][_date] */\n      dup1\n      sload\n      dup1\n      0x20\n      mul\n      0x20\n      add\n      mload(0x40)\n      swap1\n      dup2\n      add\n      0x40\n      mstore\n      dup1\n      swap3\n      swap2\n      swap1\n      dup2\n      dup2\n      mstore\n      0x20\n      add\n      dup3\n      dup1\n      sload\n      dup1\n      iszero\n      tag_74\n      jumpi\n      0x20\n      mul\n      dup3\n      add\n      swap2\n      swap1\n      0x00\n      mstore\n      keccak256(0x00, 0x20)\n      swap1\n    tag_75:\n      dup2\n      0x00\n      swap1\n      sload\n      swap1\n      0x0100\n      exp\n      swap1\n      div\n      0xffffffffffffffffffffffffffffffffffffffff\n      and\n      0xffffffffffffffffffffffffffffffffffffffff\n      and\n      dup2\n      mstore\n      0x20\n      add\n      swap1\n      0x01\n      add\n      swap1\n      dup1\n      dup4\n      gt\n      tag_75\n      jumpi\n    tag_74:\n      pop\n      pop\n      pop\n      pop\n      pop\n      swap1\n      pop\n        /* \"intelifactory.sol\":2564:2764  function getActivity(string memory _activityType, string memory _date)... */\n      swap3\n      swap2\n      pop\n      pop\n      jump\t// out\n        /* \"#utility.yul\":7:82   */\n    tag_76:\n        /* \"#utility.yul\":40:46   */\n      0x00\n        /* \"#utility.yul\":73:75   */\n      0x40\n        /* \"#utility.yul\":67:76   */\n      mload\n        /* \"#utility.yul\":57:76   */\n      swap1\n      pop\n        /* \"#utility.yul\":7:82   */\n      swap1\n      jump\t// out\n        /* \"#utility.yul\":88:205   */\n    tag_77:\n        /* \"#utility.yul\":197:198   */\n      0x00\n        /* \"#utility.yul\":194:195   */\n      dup1\n        /* \"#utility.yul\":187:199   */\n      revert\n        /* \"#utility.yul\":211:328   */\n    tag_78:\n        /* \"#utility.yul\":320:321   */\n      0x00\n        /* \"#utility.yul\":317:318   */\n      dup1\n        /* \"#utility.yul\":310:322   */\n      revert\n        /* \"#utility.yul\":334:451   */\n    tag_79:\n        /* \"#utility.yul\":443:444   */\n      0x00\n        /* \"#utility.yul\":440:441   */\n      dup1\n        /* \"#utility.yul\":433:445   */\n      revert\n        /* \"#utility.yul\":457:574   */\n    tag_80:\n        /* \"#utility.yul\":566:567   */\n      0x00\n        /* \"#utility.yul\":563:564   */\n      dup1\n        /* \"#utility.yul\":556:568   */\n      revert\n        /* \"#utility.yul\":580:682   */\n    tag_81:\n        /* \"#utility.yul\":621:627   */\n      0x00\n        /* \"#utility.yul\":672:674   */\n      0x1f\n        /* \"#utility.yul\":668:675   */\n      not\n        /* \"#utility.yul\":663:665   */\n      0x1f\n        /* \"#utility.yul\":656:661   */\n      dup4\n        /* \"#utility.yul\":652:666   */\n      add\n        /* \"#utility.yul\":648:676   */\n      and\n        /* \"#utility.yul\":638:676   */\n      swap1\n      pop\n        /* \"#utility.yul\":580:682   */\n      swap2\n      swap1\n      pop\n      jump\t// out\n        /* \"#utility.yul\":688:868   */\n    tag_82:\n        /* \"#utility.yul\":736:813   */\n      0x4e487b7100000000000000000000000000000000000000000000000000000000\n        /* \"#utility.yul\":733:734   */\n      0x00\n        /* \"#utility.yul\":726:814   */\n      mstore\n        /* \"#utility.yul\":833:837   */\n      0x41\n        /* \"#utility.yul\":830:831   */\n      0x04\n        /* \"#utility.yul\":823:838   */\n      mstore\n        /* \"#utility.yul\":857:861   */\n      0x24\n        /* \"#utility.yul\":854:855   */\n      0x00\n        /* \"#utility.yul\":847:862   */\n      revert\n        /* \"#utility.yul\":874:1155   */\n    tag_83:\n        /* \"#utility.yul\":957:984   */\n      tag_127\n        /* \"#utility.yul\":979:983   */\n      dup3\n        /* \"#utility.yul\":957:984   */\n      tag_81\n      jump\t// in\n    tag_127:\n        /* \"#utility.yul\":949:955   */\n      dup2\n        /* \"#utility.yul\":945:985   */\n      add\n        /* \"#utility.yul\":1087:1093   */\n      dup2\n        /* \"#utility.yul\":1075:1085   */\n      dup2\n        /* \"#utility.yul\":1072:1094   */\n      lt\n        /* \"#utility.yul\":1051:1069   */\n      0xffffffffffffffff\n        /* \"#utility.yul\":1039:1049   */\n      dup3\n        /* \"#utility.yul\":1036:1070   */\n      gt\n        /* \"#utility.yul\":1033:1095   */\n      or\n        /* \"#utility.yul\":1030:1118   */\n      iszero\n      tag_128\n      jumpi\n        /* \"#utility.yul\":1098:1116   */\n      tag_129\n      tag_82\n      jump\t// in\n    tag_129:\n        /* \"#utility.yul\":1030:1118   */\n    tag_128:\n        /* \"#utility.yul\":1138:1148   */\n      dup1\n        /* \"#utility.yul\":1134:1136   */\n      0x40\n        /* \"#utility.yul\":1127:1149   */\n      mstore\n        /* \"#utility.yul\":917:1155   */\n      pop\n        /* \"#utility.yul\":874:1155   */\n      pop\n      pop\n      jump\t// out\n        /* \"#utility.yul\":1161:1290   */\n    tag_84:\n        /* \"#utility.yul\":1195:1201   */\n      0x00\n        /* \"#utility.yul\":1222:1242   */\n      tag_131\n      tag_76\n      jump\t// in\n    tag_131:\n        /* \"#utility.yul\":1212:1242   */\n      swap1\n      pop\n        /* \"#utility.yul\":1251:1284   */\n      tag_132\n        /* \"#utility.yul\":1279:1283   */\n      dup3\n        /* \"#utility.yul\":1271:1277   */\n      dup3\n        /* \"#utility.yul\":1251:1284   */\n      tag_83\n      jump\t// in\n    tag_132:\n        /* \"#utility.yul\":1161:1290   */\n      swap2\n      swap1\n      pop\n      jump\t// out\n        /* \"#utility.yul\":1296:1604   */\n    tag_85:\n        /* \"#utility.yul\":1358:1362   */\n      0x00\n        /* \"#utility.yul\":1448:1466   */\n      0xffffffffffffffff\n        /* \"#utility.yul\":1440:1446   */\n      dup3\n        /* \"#utility.yul\":1437:1467   */\n      gt\n        /* \"#utility.yul\":1434:1490   */\n      iszero\n      tag_134\n      jumpi\n        /* \"#utility.yul\":1470:1488   */\n      tag_135\n      tag_82\n      jump\t// in\n    tag_135:\n        /* \"#utility.yul\":1434:1490   */\n    tag_134:\n        /* \"#utility.yul\":1508:1537   */\n      tag_136\n        /* \"#utility.yul\":1530:1536   */\n      dup3\n        /* \"#utility.yul\":1508:1537   */\n      tag_81\n      jump\t// in\n    tag_136:\n        /* \"#utility.yul\":1500:1537   */\n      swap1\n      pop\n        /* \"#utility.yul\":1592:1596   */\n      0x20\n        /* \"#utility.yul\":1586:1590   */\n      dup2\n        /* \"#utility.yul\":1582:1597   */\n      add\n        /* \"#utility.yul\":1574:1597   */\n      swap1\n      pop\n        /* \"#utility.yul\":1296:1604   */\n      swap2\n      swap1\n      pop\n      jump\t// out\n        /* \"#utility.yul\":1610:1764   */\n    tag_86:\n        /* \"#utility.yul\":1694:1700   */\n      dup3\n        /* \"#utility.yul\":1689:1692   */\n      dup2\n        /* \"#utility.yul\":1684:1687   */\n      dup4\n        /* \"#utility.yul\":1671:1701   */\n      calldatacopy\n        /* \"#utility.yul\":1756:1757   */\n      0x00\n        /* \"#utility.yul\":1747:1753   */\n      dup4\n        /* \"#utility.yul\":1742:1745   */\n      dup4\n        /* \"#utility.yul\":1738:1754   */\n      add\n        /* \"#utility.yul\":1731:1758   */\n      mstore\n        /* \"#utility.yul\":1610:1764   */\n      pop\n      pop\n      pop\n      jump\t// out\n        /* \"#utility.yul\":1770:2182   */\n    tag_87:\n        /* \"#utility.yul\":1848:1853   */\n      0x00\n        /* \"#utility.yul\":1873:1939   */\n      tag_139\n        /* \"#utility.yul\":1889:1938   */\n      tag_140\n        /* \"#utility.yul\":1931:1937   */\n      dup5\n        /* \"#utility.yul\":1889:1938   */\n      tag_85\n      jump\t// in\n    tag_140:\n        /* \"#utility.yul\":1873:1939   */\n      tag_84\n      jump\t// in\n    tag_139:\n        /* \"#utility.yul\":1864:1939   */\n      swap1\n      pop\n        /* \"#utility.yul\":1962:1968   */\n      dup3\n        /* \"#utility.yul\":1955:1960   */\n      dup2\n        /* \"#utility.yul\":1948:1969   */\n      mstore\n        /* \"#utility.yul\":2000:2004   */\n      0x20\n        /* \"#utility.yul\":1993:1998   */\n      dup2\n        /* \"#utility.yul\":1989:2005   */\n      add\n        /* \"#utility.yul\":2038:2041   */\n      dup5\n        /* \"#utility.yul\":2029:2035   */\n      dup5\n        /* \"#utility.yul\":2024:2027   */\n      dup5\n        /* \"#utility.yul\":2020:2036   */\n      add\n        /* \"#utility.yul\":2017:2042   */\n      gt\n        /* \"#utility.yul\":2014:2126   */\n      iszero\n      tag_141\n      jumpi\n        /* \"#utility.yul\":2045:2124   */\n      tag_142\n      tag_80\n      jump\t// in\n    tag_142:\n        /* \"#utility.yul\":2014:2126   */\n    tag_141:\n        /* \"#utility.yul\":2135:2176   */\n      tag_143\n        /* \"#utility.yul\":2169:2175   */\n      dup5\n        /* \"#utility.yul\":2164:2167   */\n      dup3\n        /* \"#utility.yul\":2159:2162   */\n      dup6\n        /* \"#utility.yul\":2135:2176   */\n      tag_86\n      jump\t// in\n    tag_143:\n        /* \"#utility.yul\":1854:2182   */\n      pop\n        /* \"#utility.yul\":1770:2182   */\n      swap4\n      swap3\n      pop\n      pop\n      pop\n      jump\t// out\n        /* \"#utility.yul\":2202:2542   */\n    tag_88:\n        /* \"#utility.yul\":2258:2263   */\n      0x00\n        /* \"#utility.yul\":2307:2310   */\n      dup3\n        /* \"#utility.yul\":2300:2304   */\n      0x1f\n        /* \"#utility.yul\":2292:2298   */\n      dup4\n        /* \"#utility.yul\":2288:2305   */\n      add\n        /* \"#utility.yul\":2284:2311   */\n      slt\n        /* \"#utility.yul\":2274:2396   */\n      tag_145\n      jumpi\n        /* \"#utility.yul\":2315:2394   */\n      tag_146\n      tag_79\n      jump\t// in\n    tag_146:\n        /* \"#utility.yul\":2274:2396   */\n    tag_145:\n        /* \"#utility.yul\":2432:2438   */\n      dup2\n        /* \"#utility.yul\":2419:2439   */\n      calldataload\n        /* \"#utility.yul\":2457:2536   */\n      tag_147\n        /* \"#utility.yul\":2532:2535   */\n      dup5\n        /* \"#utility.yul\":2524:2530   */\n      dup3\n        /* \"#utility.yul\":2517:2521   */\n      0x20\n        /* \"#utility.yul\":2509:2515   */\n      dup7\n        /* \"#utility.yul\":2505:2522   */\n      add\n        /* \"#utility.yul\":2457:2536   */\n      tag_87\n      jump\t// in\n    tag_147:\n        /* \"#utility.yul\":2448:2536   */\n      swap2\n      pop\n        /* \"#utility.yul\":2264:2542   */\n      pop\n        /* \"#utility.yul\":2202:2542   */\n      swap3\n      swap2\n      pop\n      pop\n      jump\t// out\n        /* \"#utility.yul\":2548:3057   */\n    tag_14:\n        /* \"#utility.yul\":2617:2623   */\n      0x00\n        /* \"#utility.yul\":2666:2668   */\n      0x20\n        /* \"#utility.yul\":2654:2663   */\n      dup3\n        /* \"#utility.yul\":2645:2652   */\n      dup5\n        /* \"#utility.yul\":2641:2664   */\n      sub\n        /* \"#utility.yul\":2637:2669   */\n      slt\n        /* \"#utility.yul\":2634:2753   */\n      iszero\n      tag_149\n      jumpi\n        /* \"#utility.yul\":2672:2751   */\n      tag_150\n      tag_77\n      jump\t// in\n    tag_150:\n        /* \"#utility.yul\":2634:2753   */\n    tag_149:\n        /* \"#utility.yul\":2820:2821   */\n      0x00\n        /* \"#utility.yul\":2809:2818   */\n      dup3\n        /* \"#utility.yul\":2805:2822   */\n      add\n        /* \"#utility.yul\":2792:2823   */\n      calldataload\n        /* \"#utility.yul\":2850:2868   */\n      0xffffffffffffffff\n        /* \"#utility.yul\":2842:2848   */\n      dup2\n        /* \"#utility.yul\":2839:2869   */\n      gt\n        /* \"#utility.yul\":2836:2953   */\n      iszero\n      tag_151\n      jumpi\n        /* \"#utility.yul\":2872:2951   */\n      tag_152\n      tag_78\n      jump\t// in\n    tag_152:\n        /* \"#utility.yul\":2836:2953   */\n    tag_151:\n        /* \"#utility.yul\":2977:3040   */\n      tag_153\n        /* \"#utility.yul\":3032:3039   */\n      dup5\n        /* \"#utility.yul\":3023:3029   */\n      dup3\n        /* \"#utility.yul\":3012:3021   */\n      dup6\n        /* \"#utility.yul\":3008:3030   */\n      add\n        /* \"#utility.yul\":2977:3040   */\n      tag_88\n      jump\t// in\n    tag_153:\n        /* \"#utility.yul\":2967:3040   */\n      swap2\n      pop\n        /* \"#utility.yul\":2763:3050   */\n      pop\n        /* \"#utility.yul\":2548:3057   */\n      swap3\n      swap2\n      pop\n      pop\n      jump\t// out\n        /* \"#utility.yul\":3063:3176   */\n    tag_89:\n        /* \"#utility.yul\":3129:3135   */\n      0x00\n        /* \"#utility.yul\":3163:3168   */\n      dup2\n        /* \"#utility.yul\":3157:3169   */\n      mload\n        /* \"#utility.yul\":3147:3169   */\n      swap1\n      pop\n        /* \"#utility.yul\":3063:3176   */\n      swap2\n      swap1\n      pop\n      jump\t// out\n        /* \"#utility.yul\":3182:3365   */\n    tag_90:\n        /* \"#utility.yul\":3280:3291   */\n      0x00\n        /* \"#utility.yul\":3314:3320   */\n      dup3\n        /* \"#utility.yul\":3309:3312   */\n      dup3\n        /* \"#utility.yul\":3302:3321   */\n      mstore\n        /* \"#utility.yul\":3354:3358   */\n      0x20\n        /* \"#utility.yul\":3349:3352   */\n      dup3\n        /* \"#utility.yul\":3345:3359   */\n      add\n        /* \"#utility.yul\":3330:3359   */\n      swap1\n      pop\n        /* \"#utility.yul\":3182:3365   */\n      swap3\n      swap2\n      pop\n      pop\n      jump\t// out\n        /* \"#utility.yul\":3371:3502   */\n    tag_91:\n        /* \"#utility.yul\":3437:3441   */\n      0x00\n        /* \"#utility.yul\":3460:3463   */\n      dup2\n        /* \"#utility.yul\":3452:3463   */\n      swap1\n      pop\n        /* \"#utility.yul\":3490:3494   */\n      0x20\n        /* \"#utility.yul\":3485:3488   */\n      dup3\n        /* \"#utility.yul\":3481:3495   */\n      add\n        /* \"#utility.yul\":3473:3495   */\n      swap1\n      pop\n        /* \"#utility.yul\":3371:3502   */\n      swap2\n      swap1\n      pop\n      jump\t// out\n        /* \"#utility.yul\":3508:3609   */\n    tag_92:\n        /* \"#utility.yul\":3544:3551   */\n      0x00\n        /* \"#utility.yul\":3584:3602   */\n      0xffffffffffffffff\n        /* \"#utility.yul\":3577:3582   */\n      dup3\n        /* \"#utility.yul\":3573:3603   */\n      and\n        /* \"#utility.yul\":3562:3603   */\n      swap1\n      pop\n        /* \"#utility.yul\":3508:3609   */\n      swap2\n      swap1\n      pop\n      jump\t// out\n        /* \"#utility.yul\":3615:3720   */\n    tag_93:\n        /* \"#utility.yul\":3690:3713   */\n      tag_159\n        /* \"#utility.yul\":3707:3712   */\n      dup2\n        /* \"#utility.yul\":3690:3713   */\n      tag_92\n      jump\t// in\n    tag_159:\n        /* \"#utility.yul\":3685:3688   */\n      dup3\n        /* \"#utility.yul\":3678:3714   */\n      mstore\n        /* \"#utility.yul\":3615:3720   */\n      pop\n      pop\n      jump\t// out\n        /* \"#utility.yul\":3726:3901   */\n    tag_94:\n        /* \"#utility.yul\":3793:3803   */\n      0x00\n        /* \"#utility.yul\":3814:3858   */\n      tag_161\n        /* \"#utility.yul\":3854:3857   */\n      dup4\n        /* \"#utility.yul\":3846:3852   */\n      dup4\n        /* \"#utility.yul\":3814:3858   */\n      tag_93\n      jump\t// in\n    tag_161:\n        /* \"#utility.yul\":3890:3894   */\n      0x20\n        /* \"#utility.yul\":3885:3888   */\n      dup4\n        /* \"#utility.yul\":3881:3895   */\n      add\n        /* \"#utility.yul\":3867:3895   */\n      swap1\n      pop\n        /* \"#utility.yul\":3726:3901   */\n      swap3\n      swap2\n      pop\n      pop\n      jump\t// out\n        /* \"#utility.yul\":3907:4019   */\n    tag_95:\n        /* \"#utility.yul\":3976:3980   */\n      0x00\n        /* \"#utility.yul\":4008:4012   */\n      0x20\n        /* \"#utility.yul\":4003:4006   */\n      dup3\n        /* \"#utility.yul\":3999:4013   */\n      add\n        /* \"#utility.yul\":3991:4013   */\n      swap1\n      pop\n        /* \"#utility.yul\":3907:4019   */\n      swap2\n      swap1\n      pop\n      jump\t// out\n        /* \"#utility.yul\":4053:4777   */\n    tag_96:\n        /* \"#utility.yul\":4170:4173   */\n      0x00\n        /* \"#utility.yul\":4199:4252   */\n      tag_164\n        /* \"#utility.yul\":4246:4251   */\n      dup3\n        /* \"#utility.yul\":4199:4252   */\n      tag_89\n      jump\t// in\n    tag_164:\n        /* \"#utility.yul\":4268:4353   */\n      tag_165\n        /* \"#utility.yul\":4346:4352   */\n      dup2\n        /* \"#utility.yul\":4341:4344   */\n      dup6\n        /* \"#utility.yul\":4268:4353   */\n      tag_90\n      jump\t// in\n    tag_165:\n        /* \"#utility.yul\":4261:4353   */\n      swap4\n      pop\n        /* \"#utility.yul\":4377:4432   */\n      tag_166\n        /* \"#utility.yul\":4426:4431   */\n      dup4\n        /* \"#utility.yul\":4377:4432   */\n      tag_91\n      jump\t// in\n    tag_166:\n        /* \"#utility.yul\":4455:4462   */\n      dup1\n        /* \"#utility.yul\":4486:4487   */\n      0x00\n        /* \"#utility.yul\":4471:4752   */\n    tag_167:\n        /* \"#utility.yul\":4496:4502   */\n      dup4\n        /* \"#utility.yul\":4493:4494   */\n      dup2\n        /* \"#utility.yul\":4490:4503   */\n      lt\n        /* \"#utility.yul\":4471:4752   */\n      iszero\n      tag_169\n      jumpi\n        /* \"#utility.yul\":4572:4578   */\n      dup2\n        /* \"#utility.yul\":4566:4579   */\n      mload\n        /* \"#utility.yul\":4599:4660   */\n      tag_170\n        /* \"#utility.yul\":4656:4659   */\n      dup9\n        /* \"#utility.yul\":4641:4654   */\n      dup3\n        /* \"#utility.yul\":4599:4660   */\n      tag_94\n      jump\t// in\n    tag_170:\n        /* \"#utility.yul\":4592:4660   */\n      swap8\n      pop\n        /* \"#utility.yul\":4683:4742   */\n      tag_171\n        /* \"#utility.yul\":4735:4741   */\n      dup4\n        /* \"#utility.yul\":4683:4742   */\n      tag_95\n      jump\t// in\n    tag_171:\n        /* \"#utility.yul\":4673:4742   */\n      swap3\n      pop\n        /* \"#utility.yul\":4531:4752   */\n      pop\n        /* \"#utility.yul\":4518:4519   */\n      0x01\n        /* \"#utility.yul\":4515:4516   */\n      dup2\n        /* \"#utility.yul\":4511:4520   */\n      add\n        /* \"#utility.yul\":4506:4520   */\n      swap1\n      pop\n        /* \"#utility.yul\":4471:4752   */\n      jump(tag_167)\n    tag_169:\n        /* \"#utility.yul\":4475:4489   */\n      pop\n        /* \"#utility.yul\":4768:4771   */\n      dup6\n        /* \"#utility.yul\":4761:4771   */\n      swap4\n      pop\n        /* \"#utility.yul\":4175:4777   */\n      pop\n      pop\n      pop\n        /* \"#utility.yul\":4053:4777   */\n      swap3\n      swap2\n      pop\n      pop\n      jump\t// out\n        /* \"#utility.yul\":4783:5152   */\n    tag_17:\n        /* \"#utility.yul\":4924:4928   */\n      0x00\n        /* \"#utility.yul\":4962:4964   */\n      0x20\n        /* \"#utility.yul\":4951:4960   */\n      dup3\n        /* \"#utility.yul\":4947:4965   */\n      add\n        /* \"#utility.yul\":4939:4965   */\n      swap1\n      pop\n        /* \"#utility.yul\":5011:5020   */\n      dup2\n        /* \"#utility.yul\":5005:5009   */\n      dup2\n        /* \"#utility.yul\":5001:5021   */\n      sub\n        /* \"#utility.yul\":4997:4998   */\n      0x00\n        /* \"#utility.yul\":4986:4995   */\n      dup4\n        /* \"#utility.yul\":4982:4999   */\n      add\n        /* \"#utility.yul\":4975:5022   */\n      mstore\n        /* \"#utility.yul\":5039:5145   */\n      tag_173\n        /* \"#utility.yul\":5140:5144   */\n      dup2\n        /* \"#utility.yul\":5131:5137   */\n      dup5\n        /* \"#utility.yul\":5039:5145   */\n      tag_96\n      jump\t// in\n    tag_173:\n        /* \"#utility.yul\":5031:5145   */\n      swap1\n      pop\n        /* \"#utility.yul\":4783:5152   */\n      swap3\n      swap2\n      pop\n      pop\n      jump\t// out\n        /* \"#utility.yul\":5158:5235   */\n    tag_97:\n        /* \"#utility.yul\":5195:5202   */\n      0x00\n        /* \"#utility.yul\":5224:5229   */\n      dup2\n        /* \"#utility.yul\":5213:5229   */\n      swap1\n      pop\n        /* \"#utility.yul\":5158:5235   */\n      swap2\n      swap1\n      pop\n      jump\t// out\n        /* \"#utility.yul\":5241:5363   */\n    tag_98:\n        /* \"#utility.yul\":5314:5338   */\n      tag_176\n        /* \"#utility.yul\":5332:5337   */\n      dup2\n        /* \"#utility.yul\":5314:5338   */\n      tag_97\n      jump\t// in\n    tag_176:\n        /* \"#utility.yul\":5307:5312   */\n      dup2\n        /* \"#utility.yul\":5304:5339   */\n      eq\n        /* \"#utility.yul\":5294:5357   */\n      tag_177\n      jumpi\n        /* \"#utility.yul\":5353:5354   */\n      0x00\n        /* \"#utility.yul\":5350:5351   */\n      dup1\n        /* \"#utility.yul\":5343:5355   */\n      revert\n        /* \"#utility.yul\":5294:5357   */\n    tag_177:\n        /* \"#utility.yul\":5241:5363   */\n      pop\n      jump\t// out\n        /* \"#utility.yul\":5369:5508   */\n    tag_99:\n        /* \"#utility.yul\":5415:5420   */\n      0x00\n        /* \"#utility.yul\":5453:5459   */\n      dup2\n        /* \"#utility.yul\":5440:5460   */\n      calldataload\n        /* \"#utility.yul\":5431:5460   */\n      swap1\n      pop\n        /* \"#utility.yul\":5469:5502   */\n      tag_179\n        /* \"#utility.yul\":5496:5501   */\n      dup2\n        /* \"#utility.yul\":5469:5502   */\n      tag_98\n      jump\t// in\n    tag_179:\n        /* \"#utility.yul\":5369:5508   */\n      swap3\n      swap2\n      pop\n      pop\n      jump\t// out\n        /* \"#utility.yul\":5514:6493   */\n    tag_20:\n        /* \"#utility.yul\":5611:5617   */\n      0x00\n        /* \"#utility.yul\":5619:5625   */\n      dup1\n        /* \"#utility.yul\":5627:5633   */\n      0x00\n        /* \"#utility.yul\":5676:5678   */\n      0x60\n        /* \"#utility.yul\":5664:5673   */\n      dup5\n        /* \"#utility.yul\":5655:5662   */\n      dup7\n        /* \"#utility.yul\":5651:5674   */\n      sub\n        /* \"#utility.yul\":5647:5679   */\n      slt\n        /* \"#utility.yul\":5644:5763   */\n      iszero\n      tag_181\n      jumpi\n        /* \"#utility.yul\":5682:5761   */\n      tag_182\n      tag_77\n      jump\t// in\n    tag_182:\n        /* \"#utility.yul\":5644:5763   */\n    tag_181:\n        /* \"#utility.yul\":5830:5831   */\n      0x00\n        /* \"#utility.yul\":5819:5828   */\n      dup5\n        /* \"#utility.yul\":5815:5832   */\n      add\n        /* \"#utility.yul\":5802:5833   */\n      calldataload\n        /* \"#utility.yul\":5860:5878   */\n      0xffffffffffffffff\n        /* \"#utility.yul\":5852:5858   */\n      dup2\n        /* \"#utility.yul\":5849:5879   */\n      gt\n        /* \"#utility.yul\":5846:5963   */\n      iszero\n      tag_183\n      jumpi\n        /* \"#utility.yul\":5882:5961   */\n      tag_184\n      tag_78\n      jump\t// in\n    tag_184:\n        /* \"#utility.yul\":5846:5963   */\n    tag_183:\n        /* \"#utility.yul\":5987:6050   */\n      tag_185\n        /* \"#utility.yul\":6042:6049   */\n      dup7\n        /* \"#utility.yul\":6033:6039   */\n      dup3\n        /* \"#utility.yul\":6022:6031   */\n      dup8\n        /* \"#utility.yul\":6018:6040   */\n      add\n        /* \"#utility.yul\":5987:6050   */\n      tag_88\n      jump\t// in\n    tag_185:\n        /* \"#utility.yul\":5977:6050   */\n      swap4\n      pop\n        /* \"#utility.yul\":5773:6060   */\n      pop\n        /* \"#utility.yul\":6127:6129   */\n      0x20\n        /* \"#utility.yul\":6116:6125   */\n      dup5\n        /* \"#utility.yul\":6112:6130   */\n      add\n        /* \"#utility.yul\":6099:6131   */\n      calldataload\n        /* \"#utility.yul\":6158:6176   */\n      0xffffffffffffffff\n        /* \"#utility.yul\":6150:6156   */\n      dup2\n        /* \"#utility.yul\":6147:6177   */\n      gt\n        /* \"#utility.yul\":6144:6261   */\n      iszero\n      tag_186\n      jumpi\n        /* \"#utility.yul\":6180:6259   */\n      tag_187\n      tag_78\n      jump\t// in\n    tag_187:\n        /* \"#utility.yul\":6144:6261   */\n    tag_186:\n        /* \"#utility.yul\":6285:6348   */\n      tag_188\n        /* \"#utility.yul\":6340:6347   */\n      dup7\n        /* \"#utility.yul\":6331:6337   */\n      dup3\n        /* \"#utility.yul\":6320:6329   */\n      dup8\n        /* \"#utility.yul\":6316:6338   */\n      add\n        /* \"#utility.yul\":6285:6348   */\n      tag_88\n      jump\t// in\n    tag_188:\n        /* \"#utility.yul\":6275:6348   */\n      swap3\n      pop\n        /* \"#utility.yul\":6070:6358   */\n      pop\n        /* \"#utility.yul\":6397:6399   */\n      0x40\n        /* \"#utility.yul\":6423:6476   */\n      tag_189\n        /* \"#utility.yul\":6468:6475   */\n      dup7\n        /* \"#utility.yul\":6459:6465   */\n      dup3\n        /* \"#utility.yul\":6448:6457   */\n      dup8\n        /* \"#utility.yul\":6444:6466   */\n      add\n        /* \"#utility.yul\":6423:6476   */\n      tag_99\n      jump\t// in\n    tag_189:\n        /* \"#utility.yul\":6413:6476   */\n      swap2\n      pop\n        /* \"#utility.yul\":6368:6486   */\n      pop\n        /* \"#utility.yul\":5514:6493   */\n      swap3\n      pop\n      swap3\n      pop\n      swap3\n      jump\t// out\n        /* \"#utility.yul\":6499:6625   */\n    tag_100:\n        /* \"#utility.yul\":6536:6543   */\n      0x00\n        /* \"#utility.yul\":6576:6618   */\n      0xffffffffffffffffffffffffffffffffffffffff\n        /* \"#utility.yul\":6569:6574   */\n      dup3\n        /* \"#utility.yul\":6565:6619   */\n      and\n        /* \"#utility.yul\":6554:6619   */\n      swap1\n      pop\n        /* \"#utility.yul\":6499:6625   */\n      swap2\n      swap1\n      pop\n      jump\t// out\n        /* \"#utility.yul\":6631:6727   */\n    tag_101:\n        /* \"#utility.yul\":6668:6675   */\n      0x00\n        /* \"#utility.yul\":6697:6721   */\n      tag_192\n        /* \"#utility.yul\":6715:6720   */\n      dup3\n        /* \"#utility.yul\":6697:6721   */\n      tag_100\n      jump\t// in\n    tag_192:\n        /* \"#utility.yul\":6686:6721   */\n      swap1\n      pop\n        /* \"#utility.yul\":6631:6727   */\n      swap2\n      swap1\n      pop\n      jump\t// out\n        /* \"#utility.yul\":6733:6851   */\n    tag_102:\n        /* \"#utility.yul\":6820:6844   */\n      tag_194\n        /* \"#utility.yul\":6838:6843   */\n      dup2\n        /* \"#utility.yul\":6820:6844   */\n      tag_101\n      jump\t// in\n    tag_194:\n        /* \"#utility.yul\":6815:6818   */\n      dup3\n        /* \"#utility.yul\":6808:6845   */\n      mstore\n        /* \"#utility.yul\":6733:6851   */\n      pop\n      pop\n      jump\t// out\n        /* \"#utility.yul\":6857:7079   */\n    tag_23:\n        /* \"#utility.yul\":6950:6954   */\n      0x00\n        /* \"#utility.yul\":6988:6990   */\n      0x20\n        /* \"#utility.yul\":6977:6986   */\n      dup3\n        /* \"#utility.yul\":6973:6991   */\n      add\n        /* \"#utility.yul\":6965:6991   */\n      swap1\n      pop\n        /* \"#utility.yul\":7001:7072   */\n      tag_196\n        /* \"#utility.yul\":7069:7070   */\n      0x00\n        /* \"#utility.yul\":7058:7067   */\n      dup4\n        /* \"#utility.yul\":7054:7071   */\n      add\n        /* \"#utility.yul\":7045:7051   */\n      dup5\n        /* \"#utility.yul\":7001:7072   */\n      tag_102\n      jump\t// in\n    tag_196:\n        /* \"#utility.yul\":6857:7079   */\n      swap3\n      swap2\n      pop\n      pop\n      jump\t// out\n        /* \"#utility.yul\":7085:7205   */\n    tag_103:\n        /* \"#utility.yul\":7157:7180   */\n      tag_198\n        /* \"#utility.yul\":7174:7179   */\n      dup2\n        /* \"#utility.yul\":7157:7180   */\n      tag_92\n      jump\t// in\n    tag_198:\n        /* \"#utility.yul\":7150:7155   */\n      dup2\n        /* \"#utility.yul\":7147:7181   */\n      eq\n        /* \"#utility.yul\":7137:7199   */\n      tag_199\n      jumpi\n        /* \"#utility.yul\":7195:7196   */\n      0x00\n        /* \"#utility.yul\":7192:7193   */\n      dup1\n        /* \"#utility.yul\":7185:7197   */\n      revert\n        /* \"#utility.yul\":7137:7199   */\n    tag_199:\n        /* \"#utility.yul\":7085:7205   */\n      pop\n      jump\t// out\n        /* \"#utility.yul\":7211:7348   */\n    tag_104:\n        /* \"#utility.yul\":7256:7261   */\n      0x00\n        /* \"#utility.yul\":7294:7300   */\n      dup2\n        /* \"#utility.yul\":7281:7301   */\n      calldataload\n        /* \"#utility.yul\":7272:7301   */\n      swap1\n      pop\n        /* \"#utility.yul\":7310:7342   */\n      tag_201\n        /* \"#utility.yul\":7336:7341   */\n      dup2\n        /* \"#utility.yul\":7310:7342   */\n      tag_103\n      jump\t// in\n    tag_201:\n        /* \"#utility.yul\":7211:7348   */\n      swap3\n      swap2\n      pop\n      pop\n      jump\t// out\n        /* \"#utility.yul\":7354:8006   */\n    tag_26:\n        /* \"#utility.yul\":7431:7437   */\n      0x00\n        /* \"#utility.yul\":7439:7445   */\n      dup1\n        /* \"#utility.yul\":7488:7490   */\n      0x40\n        /* \"#utility.yul\":7476:7485   */\n      dup4\n        /* \"#utility.yul\":7467:7474   */\n      dup6\n        /* \"#utility.yul\":7463:7486   */\n      sub\n        /* \"#utility.yul\":7459:7491   */\n      slt\n        /* \"#utility.yul\":7456:7575   */\n      iszero\n      tag_203\n      jumpi\n        /* \"#utility.yul\":7494:7573   */\n      tag_204\n      tag_77\n      jump\t// in\n    tag_204:\n        /* \"#utility.yul\":7456:7575   */\n    tag_203:\n        /* \"#utility.yul\":7642:7643   */\n      0x00\n        /* \"#utility.yul\":7631:7640   */\n      dup4\n        /* \"#utility.yul\":7627:7644   */\n      add\n        /* \"#utility.yul\":7614:7645   */\n      calldataload\n        /* \"#utility.yul\":7672:7690   */\n      0xffffffffffffffff\n        /* \"#utility.yul\":7664:7670   */\n      dup2\n        /* \"#utility.yul\":7661:7691   */\n      gt\n        /* \"#utility.yul\":7658:7775   */\n      iszero\n      tag_205\n      jumpi\n        /* \"#utility.yul\":7694:7773   */\n      tag_206\n      tag_78\n      jump\t// in\n    tag_206:\n        /* \"#utility.yul\":7658:7775   */\n    tag_205:\n        /* \"#utility.yul\":7799:7862   */\n      tag_207\n        /* \"#utility.yul\":7854:7861   */\n      dup6\n        /* \"#utility.yul\":7845:7851   */\n      dup3\n        /* \"#utility.yul\":7834:7843   */\n      dup7\n        /* \"#utility.yul\":7830:7852   */\n      add\n        /* \"#utility.yul\":7799:7862   */\n      tag_88\n      jump\t// in\n    tag_207:\n        /* \"#utility.yul\":7789:7862   */\n      swap3\n      pop\n        /* \"#utility.yul\":7585:7872   */\n      pop\n        /* \"#utility.yul\":7911:7913   */\n      0x20\n        /* \"#utility.yul\":7937:7989   */\n      tag_208\n        /* \"#utility.yul\":7981:7988   */\n      dup6\n        /* \"#utility.yul\":7972:7978   */\n      dup3\n        /* \"#utility.yul\":7961:7970   */\n      dup7\n        /* \"#utility.yul\":7957:7979   */\n      add\n        /* \"#utility.yul\":7937:7989   */\n      tag_104\n      jump\t// in\n    tag_208:\n        /* \"#utility.yul\":7927:7989   */\n      swap2\n      pop\n        /* \"#utility.yul\":7882:7999   */\n      pop\n        /* \"#utility.yul\":7354:8006   */\n      swap3\n      pop\n      swap3\n      swap1\n      pop\n      jump\t// out\n        /* \"#utility.yul\":8012:8134   */\n    tag_105:\n        /* \"#utility.yul\":8085:8109   */\n      tag_210\n        /* \"#utility.yul\":8103:8108   */\n      dup2\n        /* \"#utility.yul\":8085:8109   */\n      tag_101\n      jump\t// in\n    tag_210:\n        /* \"#utility.yul\":8078:8083   */\n      dup2\n        /* \"#utility.yul\":8075:8110   */\n      eq\n        /* \"#utility.yul\":8065:8128   */\n      tag_211\n      jumpi\n        /* \"#utility.yul\":8124:8125   */\n      0x00\n        /* \"#utility.yul\":8121:8122   */\n      dup1\n        /* \"#utility.yul\":8114:8126   */\n      revert\n        /* \"#utility.yul\":8065:8128   */\n    tag_211:\n        /* \"#utility.yul\":8012:8134   */\n      pop\n      jump\t// out\n        /* \"#utility.yul\":8140:8279   */\n    tag_106:\n        /* \"#utility.yul\":8186:8191   */\n      0x00\n        /* \"#utility.yul\":8224:8230   */\n      dup2\n        /* \"#utility.yul\":8211:8231   */\n      calldataload\n        /* \"#utility.yul\":8202:8231   */\n      swap1\n      pop\n        /* \"#utility.yul\":8240:8273   */\n      tag_213\n        /* \"#utility.yul\":8267:8272   */\n      dup2\n        /* \"#utility.yul\":8240:8273   */\n      tag_105\n      jump\t// in\n    tag_213:\n        /* \"#utility.yul\":8140:8279   */\n      swap3\n      swap2\n      pop\n      pop\n      jump\t// out\n        /* \"#utility.yul\":8285:9264   */\n    tag_33:\n        /* \"#utility.yul\":8382:8388   */\n      0x00\n        /* \"#utility.yul\":8390:8396   */\n      dup1\n        /* \"#utility.yul\":8398:8404   */\n      0x00\n        /* \"#utility.yul\":8447:8449   */\n      0x60\n        /* \"#utility.yul\":8435:8444   */\n      dup5\n        /* \"#utility.yul\":8426:8433   */\n      dup7\n        /* \"#utility.yul\":8422:8445   */\n      sub\n        /* \"#utility.yul\":8418:8450   */\n      slt\n        /* \"#utility.yul\":8415:8534   */\n      iszero\n      tag_215\n      jumpi\n        /* \"#utility.yul\":8453:8532   */\n      tag_216\n      tag_77\n      jump\t// in\n    tag_216:\n        /* \"#utility.yul\":8415:8534   */\n    tag_215:\n        /* \"#utility.yul\":8601:8602   */\n      0x00\n        /* \"#utility.yul\":8590:8599   */\n      dup5\n        /* \"#utility.yul\":8586:8603   */\n      add\n        /* \"#utility.yul\":8573:8604   */\n      calldataload\n        /* \"#utility.yul\":8631:8649   */\n      0xffffffffffffffff\n        /* \"#utility.yul\":8623:8629   */\n      dup2\n        /* \"#utility.yul\":8620:8650   */\n      gt\n        /* \"#utility.yul\":8617:8734   */\n      iszero\n      tag_217\n      jumpi\n        /* \"#utility.yul\":8653:8732   */\n      tag_218\n      tag_78\n      jump\t// in\n    tag_218:\n        /* \"#utility.yul\":8617:8734   */\n    tag_217:\n        /* \"#utility.yul\":8758:8821   */\n      tag_219\n        /* \"#utility.yul\":8813:8820   */\n      dup7\n        /* \"#utility.yul\":8804:8810   */\n      dup3\n        /* \"#utility.yul\":8793:8802   */\n      dup8\n        /* \"#utility.yul\":8789:8811   */\n      add\n        /* \"#utility.yul\":8758:8821   */\n      tag_88\n      jump\t// in\n    tag_219:\n        /* \"#utility.yul\":8748:8821   */\n      swap4\n      pop\n        /* \"#utility.yul\":8544:8831   */\n      pop\n        /* \"#utility.yul\":8898:8900   */\n      0x20\n        /* \"#utility.yul\":8887:8896   */\n      dup5\n        /* \"#utility.yul\":8883:8901   */\n      add\n        /* \"#utility.yul\":8870:8902   */\n      calldataload\n        /* \"#utility.yul\":8929:8947   */\n      0xffffffffffffffff\n        /* \"#utility.yul\":8921:8927   */\n      dup2\n        /* \"#utility.yul\":8918:8948   */\n      gt\n        /* \"#utility.yul\":8915:9032   */\n      iszero\n      tag_220\n      jumpi\n        /* \"#utility.yul\":8951:9030   */\n      tag_221\n      tag_78\n      jump\t// in\n    tag_221:\n        /* \"#utility.yul\":8915:9032   */\n    tag_220:\n        /* \"#utility.yul\":9056:9119   */\n      tag_222\n        /* \"#utility.yul\":9111:9118   */\n      dup7\n        /* \"#utility.yul\":9102:9108   */\n      dup3\n        /* \"#utility.yul\":9091:9100   */\n      dup8\n        /* \"#utility.yul\":9087:9109   */\n      add\n        /* \"#utility.yul\":9056:9119   */\n      tag_88\n      jump\t// in\n    tag_222:\n        /* \"#utility.yul\":9046:9119   */\n      swap3\n      pop\n        /* \"#utility.yul\":8841:9129   */\n      pop\n        /* \"#utility.yul\":9168:9170   */\n      0x40\n        /* \"#utility.yul\":9194:9247   */\n      tag_223\n        /* \"#utility.yul\":9239:9246   */\n      dup7\n        /* \"#utility.yul\":9230:9236   */\n      dup3\n        /* \"#utility.yul\":9219:9228   */\n      dup8\n        /* \"#utility.yul\":9215:9237   */\n      add\n        /* \"#utility.yul\":9194:9247   */\n      tag_106\n      jump\t// in\n    tag_223:\n        /* \"#utility.yul\":9184:9247   */\n      swap2\n      pop\n        /* \"#utility.yul\":9139:9257   */\n      pop\n        /* \"#utility.yul\":8285:9264   */\n      swap3\n      pop\n      swap3\n      pop\n      swap3\n      jump\t// out\n        /* \"#utility.yul\":9270:10104   */\n    tag_44:\n        /* \"#utility.yul\":9358:9364   */\n      0x00\n        /* \"#utility.yul\":9366:9372   */\n      dup1\n        /* \"#utility.yul\":9415:9417   */\n      0x40\n        /* \"#utility.yul\":9403:9412   */\n      dup4\n        /* \"#utility.yul\":9394:9401   */\n      dup6\n        /* \"#utility.yul\":9390:9413   */\n      sub\n        /* \"#utility.yul\":9386:9418   */\n      slt\n        /* \"#utility.yul\":9383:9502   */\n      iszero\n      tag_225\n      jumpi\n        /* \"#utility.yul\":9421:9500   */\n      tag_226\n      tag_77\n      jump\t// in\n    tag_226:\n        /* \"#utility.yul\":9383:9502   */\n    tag_225:\n        /* \"#utility.yul\":9569:9570   */\n      0x00\n        /* \"#utility.yul\":9558:9567   */\n      dup4\n        /* \"#utility.yul\":9554:9571   */\n      add\n        /* \"#utility.yul\":9541:9572   */\n      calldataload\n        /* \"#utility.yul\":9599:9617   */\n      0xffffffffffffffff\n        /* \"#utility.yul\":9591:9597   */\n      dup2\n        /* \"#utility.yul\":9588:9618   */\n      gt\n        /* \"#utility.yul\":9585:9702   */\n      iszero\n      tag_227\n      jumpi\n        /* \"#utility.yul\":9621:9700   */\n      tag_228\n      tag_78\n      jump\t// in\n    tag_228:\n        /* \"#utility.yul\":9585:9702   */\n    tag_227:\n        /* \"#utility.yul\":9726:9789   */\n      tag_229\n        /* \"#utility.yul\":9781:9788   */\n      dup6\n        /* \"#utility.yul\":9772:9778   */\n      dup3\n        /* \"#utility.yul\":9761:9770   */\n      dup7\n        /* \"#utility.yul\":9757:9779   */\n      add\n        /* \"#utility.yul\":9726:9789   */\n      tag_88\n      jump\t// in\n    tag_229:\n        /* \"#utility.yul\":9716:9789   */\n      swap3\n      pop\n        /* \"#utility.yul\":9512:9799   */\n      pop\n        /* \"#utility.yul\":9866:9868   */\n      0x20\n        /* \"#utility.yul\":9855:9864   */\n      dup4\n        /* \"#utility.yul\":9851:9869   */\n      add\n        /* \"#utility.yul\":9838:9870   */\n      calldataload\n        /* \"#utility.yul\":9897:9915   */\n      0xffffffffffffffff\n        /* \"#utility.yul\":9889:9895   */\n      dup2\n        /* \"#utility.yul\":9886:9916   */\n      gt\n        /* \"#utility.yul\":9883:10000   */\n      iszero\n      tag_230\n      jumpi\n        /* \"#utility.yul\":9919:9998   */\n      tag_231\n      tag_78\n      jump\t// in\n    tag_231:\n        /* \"#utility.yul\":9883:10000   */\n    tag_230:\n        /* \"#utility.yul\":10024:10087   */\n      tag_232\n        /* \"#utility.yul\":10079:10086   */\n      dup6\n        /* \"#utility.yul\":10070:10076   */\n      dup3\n        /* \"#utility.yul\":10059:10068   */\n      dup7\n        /* \"#utility.yul\":10055:10077   */\n      add\n        /* \"#utility.yul\":10024:10087   */\n      tag_88\n      jump\t// in\n    tag_232:\n        /* \"#utility.yul\":10014:10087   */\n      swap2\n      pop\n        /* \"#utility.yul\":9809:10097   */\n      pop\n        /* \"#utility.yul\":9270:10104   */\n      swap3\n      pop\n      swap3\n      swap1\n      pop\n      jump\t// out\n        /* \"#utility.yul\":10110:10224   */\n    tag_107:\n        /* \"#utility.yul\":10177:10183   */\n      0x00\n        /* \"#utility.yul\":10211:10216   */\n      dup2\n        /* \"#utility.yul\":10205:10217   */\n      mload\n        /* \"#utility.yul\":10195:10217   */\n      swap1\n      pop\n        /* \"#utility.yul\":10110:10224   */\n      swap2\n      swap1\n      pop\n      jump\t// out\n        /* \"#utility.yul\":10230:10414   */\n    tag_108:\n        /* \"#utility.yul\":10329:10340   */\n      0x00\n        /* \"#utility.yul\":10363:10369   */\n      dup3\n        /* \"#utility.yul\":10358:10361   */\n      dup3\n        /* \"#utility.yul\":10351:10370   */\n      mstore\n        /* \"#utility.yul\":10403:10407   */\n      0x20\n        /* \"#utility.yul\":10398:10401   */\n      dup3\n        /* \"#utility.yul\":10394:10408   */\n      add\n        /* \"#utility.yul\":10379:10408   */\n      swap1\n      pop\n        /* \"#utility.yul\":10230:10414   */\n      swap3\n      swap2\n      pop\n      pop\n      jump\t// out\n        /* \"#utility.yul\":10420:10552   */\n    tag_109:\n        /* \"#utility.yul\":10487:10491   */\n      0x00\n        /* \"#utility.yul\":10510:10513   */\n      dup2\n        /* \"#utility.yul\":10502:10513   */\n      swap1\n      pop\n        /* \"#utility.yul\":10540:10544   */\n      0x20\n        /* \"#utility.yul\":10535:10538   */\n      dup3\n        /* \"#utility.yul\":10531:10545   */\n      add\n        /* \"#utility.yul\":10523:10545   */\n      swap1\n      pop\n        /* \"#utility.yul\":10420:10552   */\n      swap2\n      swap1\n      pop\n      jump\t// out\n        /* \"#utility.yul\":10558:10666   */\n    tag_110:\n        /* \"#utility.yul\":10635:10659   */\n      tag_237\n        /* \"#utility.yul\":10653:10658   */\n      dup2\n        /* \"#utility.yul\":10635:10659   */\n      tag_101\n      jump\t// in\n    tag_237:\n        /* \"#utility.yul\":10630:10633   */\n      dup3\n        /* \"#utility.yul\":10623:10660   */\n      mstore\n        /* \"#utility.yul\":10558:10666   */\n      pop\n      pop\n      jump\t// out\n        /* \"#utility.yul\":10672:10851   */\n    tag_111:\n        /* \"#utility.yul\":10741:10751   */\n      0x00\n        /* \"#utility.yul\":10762:10808   */\n      tag_239\n        /* \"#utility.yul\":10804:10807   */\n      dup4\n        /* \"#utility.yul\":10796:10802   */\n      dup4\n        /* \"#utility.yul\":10762:10808   */\n      tag_110\n      jump\t// in\n    tag_239:\n        /* \"#utility.yul\":10840:10844   */\n      0x20\n        /* \"#utility.yul\":10835:10838   */\n      dup4\n        /* \"#utility.yul\":10831:10845   */\n      add\n        /* \"#utility.yul\":10817:10845   */\n      swap1\n      pop\n        /* \"#utility.yul\":10672:10851   */\n      swap3\n      swap2\n      pop\n      pop\n      jump\t// out\n        /* \"#utility.yul\":10857:10970   */\n    tag_112:\n        /* \"#utility.yul\":10927:10931   */\n      0x00\n        /* \"#utility.yul\":10959:10963   */\n      0x20\n        /* \"#utility.yul\":10954:10957   */\n      dup3\n        /* \"#utility.yul\":10950:10964   */\n      add\n        /* \"#utility.yul\":10942:10964   */\n      swap1\n      pop\n        /* \"#utility.yul\":10857:10970   */\n      swap2\n      swap1\n      pop\n      jump\t// out\n        /* \"#utility.yul\":11006:11738   */\n    tag_113:\n        /* \"#utility.yul\":11125:11128   */\n      0x00\n        /* \"#utility.yul\":11154:11208   */\n      tag_242\n        /* \"#utility.yul\":11202:11207   */\n      dup3\n        /* \"#utility.yul\":11154:11208   */\n      tag_107\n      jump\t// in\n    tag_242:\n        /* \"#utility.yul\":11224:11310   */\n      tag_243\n        /* \"#utility.yul\":11303:11309   */\n      dup2\n        /* \"#utility.yul\":11298:11301   */\n      dup6\n        /* \"#utility.yul\":11224:11310   */\n      tag_108\n      jump\t// in\n    tag_243:\n        /* \"#utility.yul\":11217:11310   */\n      swap4\n      pop\n        /* \"#utility.yul\":11334:11390   */\n      tag_244\n        /* \"#utility.yul\":11384:11389   */\n      dup4\n        /* \"#utility.yul\":11334:11390   */\n      tag_109\n      jump\t// in\n    tag_244:\n        /* \"#utility.yul\":11413:11420   */\n      dup1\n        /* \"#utility.yul\":11444:11445   */\n      0x00\n        /* \"#utility.yul\":11429:11713   */\n    tag_245:\n        /* \"#utility.yul\":11454:11460   */\n      dup4\n        /* \"#utility.yul\":11451:11452   */\n      dup2\n        /* \"#utility.yul\":11448:11461   */\n      lt\n        /* \"#utility.yul\":11429:11713   */\n      iszero\n      tag_247\n      jumpi\n        /* \"#utility.yul\":11530:11536   */\n      dup2\n        /* \"#utility.yul\":11524:11537   */\n      mload\n        /* \"#utility.yul\":11557:11620   */\n      tag_248\n        /* \"#utility.yul\":11616:11619   */\n      dup9\n        /* \"#utility.yul\":11601:11614   */\n      dup3\n        /* \"#utility.yul\":11557:11620   */\n      tag_111\n      jump\t// in\n    tag_248:\n        /* \"#utility.yul\":11550:11620   */\n      swap8\n      pop\n        /* \"#utility.yul\":11643:11703   */\n      tag_249\n        /* \"#utility.yul\":11696:11702   */\n      dup4\n        /* \"#utility.yul\":11643:11703   */\n      tag_112\n      jump\t// in\n    tag_249:\n        /* \"#utility.yul\":11633:11703   */\n      swap3\n      pop\n        /* \"#utility.yul\":11489:11713   */\n      pop\n        /* \"#utility.yul\":11476:11477   */\n      0x01\n        /* \"#utility.yul\":11473:11474   */\n      dup2\n        /* \"#utility.yul\":11469:11478   */\n      add\n        /* \"#utility.yul\":11464:11478   */\n      swap1\n      pop\n        /* \"#utility.yul\":11429:11713   */\n      jump(tag_245)\n    tag_247:\n        /* \"#utility.yul\":11433:11447   */\n      pop\n        /* \"#utility.yul\":11729:11732   */\n      dup6\n        /* \"#utility.yul\":11722:11732   */\n      swap4\n      pop\n        /* \"#utility.yul\":11130:11738   */\n      pop\n      pop\n      pop\n        /* \"#utility.yul\":11006:11738   */\n      swap3\n      swap2\n      pop\n      pop\n      jump\t// out\n        /* \"#utility.yul\":11744:12117   */\n    tag_47:\n        /* \"#utility.yul\":11887:11891   */\n      0x00\n        /* \"#utility.yul\":11925:11927   */\n      0x20\n        /* \"#utility.yul\":11914:11923   */\n      dup3\n        /* \"#utility.yul\":11910:11928   */\n      add\n        /* \"#utility.yul\":11902:11928   */\n      swap1\n      pop\n        /* \"#utility.yul\":11974:11983   */\n      dup2\n        /* \"#utility.yul\":11968:11972   */\n      dup2\n        /* \"#utility.yul\":11964:11984   */\n      sub\n        /* \"#utility.yul\":11960:11961   */\n      0x00\n        /* \"#utility.yul\":11949:11958   */\n      dup4\n        /* \"#utility.yul\":11945:11962   */\n      add\n        /* \"#utility.yul\":11938:11985   */\n      mstore\n        /* \"#utility.yul\":12002:12110   */\n      tag_251\n        /* \"#utility.yul\":12105:12109   */\n      dup2\n        /* \"#utility.yul\":12096:12102   */\n      dup5\n        /* \"#utility.yul\":12002:12110   */\n      tag_113\n      jump\t// in\n    tag_251:\n        /* \"#utility.yul\":11994:12110   */\n      swap1\n      pop\n        /* \"#utility.yul\":11744:12117   */\n      swap3\n      swap2\n      pop\n      pop\n      jump\t// out\n        /* \"#utility.yul\":12123:12222   */\n    tag_114:\n        /* \"#utility.yul\":12175:12181   */\n      0x00\n        /* \"#utility.yul\":12209:12214   */\n      dup2\n        /* \"#utility.yul\":12203:12215   */\n      mload\n        /* \"#utility.yul\":12193:12215   */\n      swap1\n      pop\n        /* \"#utility.yul\":12123:12222   */\n      swap2\n      swap1\n      pop\n      jump\t// out\n        /* \"#utility.yul\":12228:12376   */\n    tag_115:\n        /* \"#utility.yul\":12330:12341   */\n      0x00\n        /* \"#utility.yul\":12367:12370   */\n      dup2\n        /* \"#utility.yul\":12352:12370   */\n      swap1\n      pop\n        /* \"#utility.yul\":12228:12376   */\n      swap3\n      swap2\n      pop\n      pop\n      jump\t// out\n        /* \"#utility.yul\":12382:12689   */\n    tag_116:\n        /* \"#utility.yul\":12450:12451   */\n      0x00\n        /* \"#utility.yul\":12460:12573   */\n    tag_255:\n        /* \"#utility.yul\":12474:12480   */\n      dup4\n        /* \"#utility.yul\":12471:12472   */\n      dup2\n        /* \"#utility.yul\":12468:12481   */\n      lt\n        /* \"#utility.yul\":12460:12573   */\n      iszero\n      tag_257\n      jumpi\n        /* \"#utility.yul\":12559:12560   */\n      dup1\n        /* \"#utility.yul\":12554:12557   */\n      dup3\n        /* \"#utility.yul\":12550:12561   */\n      add\n        /* \"#utility.yul\":12544:12562   */\n      mload\n        /* \"#utility.yul\":12540:12541   */\n      dup2\n        /* \"#utility.yul\":12535:12538   */\n      dup5\n        /* \"#utility.yul\":12531:12542   */\n      add\n        /* \"#utility.yul\":12524:12563   */\n      mstore\n        /* \"#utility.yul\":12496:12498   */\n      0x20\n        /* \"#utility.yul\":12493:12494   */\n      dup2\n        /* \"#utility.yul\":12489:12499   */\n      add\n        /* \"#utility.yul\":12484:12499   */\n      swap1\n      pop\n        /* \"#utility.yul\":12460:12573   */\n      jump(tag_255)\n    tag_257:\n        /* \"#utility.yul\":12591:12597   */\n      dup4\n        /* \"#utility.yul\":12588:12589   */\n      dup2\n        /* \"#utility.yul\":12585:12598   */\n      gt\n        /* \"#utility.yul\":12582:12683   */\n      iszero\n      tag_258\n      jumpi\n        /* \"#utility.yul\":12671:12672   */\n      0x00\n        /* \"#utility.yul\":12662:12668   */\n      dup5\n        /* \"#utility.yul\":12657:12660   */\n      dup5\n        /* \"#utility.yul\":12653:12669   */\n      add\n        /* \"#utility.yul\":12646:12673   */\n      mstore\n        /* \"#utility.yul\":12582:12683   */\n    tag_258:\n        /* \"#utility.yul\":12431:12689   */\n      pop\n        /* \"#utility.yul\":12382:12689   */\n      pop\n      pop\n      pop\n      jump\t// out\n        /* \"#utility.yul\":12695:13072   */\n    tag_117:\n        /* \"#utility.yul\":12801:12804   */\n      0x00\n        /* \"#utility.yul\":12829:12868   */\n      tag_260\n        /* \"#utility.yul\":12862:12867   */\n      dup3\n        /* \"#utility.yul\":12829:12868   */\n      tag_114\n      jump\t// in\n    tag_260:\n        /* \"#utility.yul\":12884:12973   */\n      tag_261\n        /* \"#utility.yul\":12966:12972   */\n      dup2\n        /* \"#utility.yul\":12961:12964   */\n      dup6\n        /* \"#utility.yul\":12884:12973   */\n      tag_115\n      jump\t// in\n    tag_261:\n        /* \"#utility.yul\":12877:12973   */\n      swap4\n      pop\n        /* \"#utility.yul\":12982:13034   */\n      tag_262\n        /* \"#utility.yul\":13027:13033   */\n      dup2\n        /* \"#utility.yul\":13022:13025   */\n      dup6\n        /* \"#utility.yul\":13015:13019   */\n      0x20\n        /* \"#utility.yul\":13008:13013   */\n      dup7\n        /* \"#utility.yul\":13004:13020   */\n      add\n        /* \"#utility.yul\":12982:13034   */\n      tag_116\n      jump\t// in\n    tag_262:\n        /* \"#utility.yul\":13059:13065   */\n      dup1\n        /* \"#utility.yul\":13054:13057   */\n      dup5\n        /* \"#utility.yul\":13050:13066   */\n      add\n        /* \"#utility.yul\":13043:13066   */\n      swap2\n      pop\n        /* \"#utility.yul\":12805:13072   */\n      pop\n        /* \"#utility.yul\":12695:13072   */\n      swap3\n      swap2\n      pop\n      pop\n      jump\t// out\n        /* \"#utility.yul\":13078:13353   */\n    tag_50:\n        /* \"#utility.yul\":13210:13213   */\n      0x00\n        /* \"#utility.yul\":13232:13327   */\n      tag_264\n        /* \"#utility.yul\":13323:13326   */\n      dup3\n        /* \"#utility.yul\":13314:13320   */\n      dup5\n        /* \"#utility.yul\":13232:13327   */\n      tag_117\n      jump\t// in\n    tag_264:\n        /* \"#utility.yul\":13225:13327   */\n      swap2\n      pop\n        /* \"#utility.yul\":13344:13347   */\n      dup2\n        /* \"#utility.yul\":13337:13347   */\n      swap1\n      pop\n        /* \"#utility.yul\":13078:13353   */\n      swap3\n      swap2\n      pop\n      pop\n      jump\t// out\n\n    auxdata: 0xa26469706673582212201e74e64701556d2948a9677de46541e73efd59d133efa45bbe3c76cb0ed96dc964736f6c634300080f0033\n}\n","bytecode":{"linkReferences":{},"object":"608060405234801561001057600080fd5b50604051610eec380380610eec833981810160405281019061003291906100db565b806000806101000a81548173ffffffffffffffffffffffffffffffffffffffff021916908373ffffffffffffffffffffffffffffffffffffffff16021790555050610108565b600080fd5b600073ffffffffffffffffffffffffffffffffffffffff82169050919050565b60006100a88261007d565b9050919050565b6100b88161009d565b81146100c357600080fd5b50565b6000815190506100d5816100af565b92915050565b6000602082840312156100f1576100f0610078565b5b60006100ff848285016100c6565b91505092915050565b610dd5806101176000396000f3fe608060405234801561001057600080fd5b50600436106100885760003560e01c8063c96294041161005b578063c962940414610127578063cdede4fe14610143578063e0ca43011461015f578063ed855a411461018f57610088565b80631961b32f1461008d5780631d3c7ff4146100bd57806387e12557146100ed5780638da5cb5b14610109575b600080fd5b6100a760048036038101906100a2919061081d565b6101bf565b6040516100b49190610938565b60405180910390f35b6100d760048036038101906100d29190610990565b610269565b6040516100e49190610a5c565b60405180910390f35b61010760048036038101906101029190610aa3565b6102f0565b005b6101116103be565b60405161011e9190610a5c565b60405180910390f35b610141600480360381019061013c9190610b2b565b6103e2565b005b61015d60048036038101906101589190610aa3565b610482565b005b6101796004803603810190610174919061081d565b610550565b6040516101869190610938565b60405180910390f35b6101a960048036038101906101a49190610bb6565b6105fa565b6040516101b69190610cec565b60405180910390f35b60606001826040516101d19190610d88565b908152602001604051809103902080548060200260200160405190810160405280929190818152602001828054801561025d57602002820191906000526020600020906000905b82829054906101000a900467ffffffffffffffff1667ffffffffffffffff16815260200190600801906020826007010492830192600103820291508084116102185790505b50505050509050919050565b6003838051602081018201805184825260208301602085012081835280955050505050508280516020810182018051848252602083016020850120818352809550505050505081815481106102bd57600080fd5b90600052602060002001600092509250509054906101000a900473ffffffffffffffffffffffffffffffffffffffff1681565b60008054906101000a900473ffffffffffffffffffffffffffffffffffffffff1673ffffffffffffffffffffffffffffffffffffffff163373ffffffffffffffffffffffffffffffffffffffff161461034857600080fd5b6002826040516103589190610d88565b90815260200160405180910390208190806001815401808255809150506001900390600052602060002090600491828204019190066008029091909190916101000a81548167ffffffffffffffff021916908367ffffffffffffffff1602179055505050565b60008054906101000a900473ffffffffffffffffffffffffffffffffffffffff1681565b6003836040516103f29190610d88565b90815260200160405180910390208260405161040e9190610d88565b9081526020016040518091039020819080600181540180825580915050600190039060005260206000200160009091909190916101000a81548173ffffffffffffffffffffffffffffffffffffffff021916908373ffffffffffffffffffffffffffffffffffffffff160217905550505050565b60008054906101000a900473ffffffffffffffffffffffffffffffffffffffff1673ffffffffffffffffffffffffffffffffffffffff163373ffffffffffffffffffffffffffffffffffffffff16146104da57600080fd5b6001826040516104ea9190610d88565b90815260200160405180910390208190806001815401808255809150506001900390600052602060002090600491828204019190066008029091909190916101000a81548167ffffffffffffffff021916908367ffffffffffffffff1602179055505050565b60606002826040516105629190610d88565b90815260200160405180910390208054806020026020016040519081016040528092919081815260200182805480156105ee57602002820191906000526020600020906000905b82829054906101000a900467ffffffffffffffff1667ffffffffffffffff16815260200190600801906020826007010492830192600103820291508084116105a95790505b50505050509050919050565b606060038360405161060c9190610d88565b9081526020016040518091039020826040516106289190610d88565b90815260200160405180910390208054806020026020016040519081016040528092919081815260200182805480156106b657602002820191906000526020600020905b8160009054906101000a900473ffffffffffffffffffffffffffffffffffffffff1673ffffffffffffffffffffffffffffffffffffffff168152602001906001019080831161066c575b5050505050905092915050565b6000604051905090565b600080fd5b600080fd5b600080fd5b600080fd5b6000601f19601f8301169050919050565b7f4e487b7100000000000000000000000000000000000000000000000000000000600052604160045260246000fd5b61072a826106e1565b810181811067ffffffffffffffff82111715610749576107486106f2565b5b80604052505050565b600061075c6106c3565b90506107688282610721565b919050565b600067ffffffffffffffff821115610788576107876106f2565b5b610791826106e1565b9050602081019050919050565b82818337600083830152505050565b60006107c06107bb8461076d565b610752565b9050828152602081018484840111156107dc576107db6106dc565b5b6107e784828561079e565b509392505050565b600082601f830112610804576108036106d7565b5b81356108148482602086016107ad565b91505092915050565b600060208284031215610833576108326106cd565b5b600082013567ffffffffffffffff811115610851576108506106d2565b5b61085d848285016107ef565b91505092915050565b600081519050919050565b600082825260208201905092915050565b6000819050602082019050919050565b600067ffffffffffffffff82169050919050565b6108af81610892565b82525050565b60006108c183836108a6565b60208301905092915050565b6000602082019050919050565b60006108e582610866565b6108ef8185610871565b93506108fa83610882565b8060005b8381101561092b57815161091288826108b5565b975061091d836108cd565b9250506001810190506108fe565b5085935050505092915050565b6000602082019050818103600083015261095281846108da565b905092915050565b6000819050919050565b61096d8161095a565b811461097857600080fd5b50565b60008135905061098a81610964565b92915050565b6000806000606084860312156109a9576109a86106cd565b5b600084013567ffffffffffffffff8111156109c7576109c66106d2565b5b6109d3868287016107ef565b935050602084013567ffffffffffffffff8111156109f4576109f36106d2565b5b610a00868287016107ef565b9250506040610a118682870161097b565b9150509250925092565b600073ffffffffffffffffffffffffffffffffffffffff82169050919050565b6000610a4682610a1b565b9050919050565b610a5681610a3b565b82525050565b6000602082019050610a716000830184610a4d565b92915050565b610a8081610892565b8114610a8b57600080fd5b50565b600081359050610a9d81610a77565b92915050565b60008060408385031215610aba57610ab96106cd565b5b600083013567ffffffffffffffff811115610ad857610ad76106d2565b5b610ae4858286016107ef565b9250506020610af585828601610a8e565b9150509250929050565b610b0881610a3b565b8114610b1357600080fd5b50565b600081359050610b2581610aff565b92915050565b600080600060608486031215610b4457610b436106cd565b5b600084013567ffffffffffffffff811115610b6257610b616106d2565b5b610b6e868287016107ef565b935050602084013567ffffffffffffffff811115610b8f57610b8e6106d2565b5b610b9b868287016107ef565b9250506040610bac86828701610b16565b9150509250925092565b60008060408385031215610bcd57610bcc6106cd565b5b600083013567ffffffffffffffff811115610beb57610bea6106d2565b5b610bf7858286016107ef565b925050602083013567ffffffffffffffff811115610c1857610c176106d2565b5b610c24858286016107ef565b9150509250929050565b600081519050919050565b600082825260208201905092915050565b6000819050602082019050919050565b610c6381610a3b565b82525050565b6000610c758383610c5a565b60208301905092915050565b6000602082019050919050565b6000610c9982610c2e565b610ca38185610c39565b9350610cae83610c4a565b8060005b83811015610cdf578151610cc68882610c69565b9750610cd183610c81565b925050600181019050610cb2565b5085935050505092915050565b60006020820190508181036000830152610d068184610c8e565b905092915050565b600081519050919050565b600081905092915050565b60005b83811015610d42578082015181840152602081019050610d27565b83811115610d51576000848401525b50505050565b6000610d6282610d0e565b610d6c8185610d19565b9350610d7c818560208601610d24565b80840191505092915050565b6000610d948284610d57565b91508190509291505056fea26469706673582212201e74e64701556d2948a9677de46541e73efd59d133efa45bbe3c76cb0ed96dc964736f6c634300080f0033","opcodes":"PUSH1 0x80 PUSH1 0x40 MSTORE CALLVALUE DUP1 ISZERO PUSH2 0x10 JUMPI PUSH1 0x0 DUP1 REVERT JUMPDEST POP PUSH1 0x40 MLOAD PUSH2 0xEEC CODESIZE SUB DUP1 PUSH2 0xEEC DUP4 CODECOPY DUP2 DUP2 ADD PUSH1 0x40 MSTORE DUP2 ADD SWAP1 PUSH2 0x32 SWAP2 SWAP1 PUSH2 0xDB JUMP JUMPDEST DUP1 PUSH1 0x0 DUP1 PUSH2 0x100 EXP DUP2 SLOAD DUP2 PUSH20 0xFFFFFFFFFFFFFFFFFFFFFFFFFFFFFFFFFFFFFFFF MUL NOT AND SWAP1 DUP4 PUSH20 0xFFFFFFFFFFFFFFFFFFFFFFFFFFFFFFFFFFFFFFFF AND MUL OR SWAP1 SSTORE POP POP PUSH2 0x108 JUMP JUMPDEST PUSH1 0x0 DUP1 REVERT JUMPDEST PUSH1 0x0 PUSH20 0xFFFFFFFFFFFFFFFFFFFFFFFFFFFFFFFFFFFFFFFF DUP3 AND SWAP1 POP SWAP2 SWAP1 POP JUMP JUMPDEST PUSH1 0x0 PUSH2 0xA8 DUP3 PUSH2 0x7D JUMP JUMPDEST SWAP1 POP SWAP2 SWAP1 POP JUMP JUMPDEST PUSH2 0xB8 DUP2 PUSH2 0x9D JUMP JUMPDEST DUP2 EQ PUSH2 0xC3 JUMPI PUSH1 0x0 DUP1 REVERT JUMPDEST POP JUMP JUMPDEST PUSH1 0x0 DUP2 MLOAD SWAP1 POP PUSH2 0xD5 DUP2 PUSH2 0xAF JUMP JUMPDEST SWAP3 SWAP2 POP POP JUMP JUMPDEST PUSH1 0x0 PUSH1 0x20 DUP3 DUP5 SUB SLT ISZERO PUSH2 0xF1 JUMPI PUSH2 0xF0 PUSH2 0x78 JUMP JUMPDEST JUMPDEST PUSH1 0x0 PUSH2 0xFF DUP5 DUP3 DUP6 ADD PUSH2 0xC6 JUMP JUMPDEST SWAP2 POP POP SWAP3 SWAP2 POP POP JUMP JUMPDEST PUSH2 0xDD5 DUP1 PUSH2 0x117 PUSH1 0x0 CODECOPY PUSH1 0x0 RETURN INVALID PUSH1 0x80 PUSH1 0x40 MSTORE CALLVALUE DUP1 ISZERO PUSH2 0x10 JUMPI PUSH1 0x0 DUP1 REVERT JUMPDEST POP PUSH1 0x4 CALLDATASIZE LT PUSH2 0x88 JUMPI PUSH1 0x0 CALLDATALOAD PUSH1 0xE0 SHR DUP1 PUSH4 0xC9629404 GT PUSH2 0x5B JUMPI DUP1 PUSH4 0xC9629404 EQ PUSH2 0x127 JUMPI DUP1 PUSH4 0xCDEDE4FE EQ PUSH2 0x143 JUMPI DUP1 PUSH4 0xE0CA4301 EQ PUSH2 0x15F JUMPI DUP1 PUSH4 0xED855A41 EQ PUSH2 0x18F JUMPI PUSH2 0x88 JUMP JUMPDEST DUP1 PUSH4 0x1961B32F EQ PUSH2 0x8D JUMPI DUP1 PUSH4 0x1D3C7FF4 EQ PUSH2 0xBD JUMPI DUP1 PUSH4 0x87E12557 EQ PUSH2 0xED JUMPI DUP1 PUSH4 0x8DA5CB5B EQ PUSH2 0x109 JUMPI JUMPDEST PUSH1 0x0 DUP1 REVERT JUMPDEST PUSH2 0xA7 PUSH1 0x4 DUP1 CALLDATASIZE SUB DUP2 ADD SWAP1 PUSH2 0xA2 SWAP2 SWAP1 PUSH2 0x81D JUMP JUMPDEST PUSH2 0x1BF JUMP JUMPDEST PUSH1 0x40 MLOAD PUSH2 0xB4 SWAP2 SWAP1 PUSH2 0x938 JUMP JUMPDEST PUSH1 0x40 MLOAD DUP1 SWAP2 SUB SWAP1 RETURN JUMPDEST PUSH2 0xD7 PUSH1 0x4 DUP1 CALLDATASIZE SUB DUP2 ADD SWAP1 PUSH2 0xD2 SWAP2 SWAP1 PUSH2 0x990 JUMP JUMPDEST PUSH2 0x269 JUMP JUMPDEST PUSH1 0x40 MLOAD PUSH2 0xE4 SWAP2 SWAP1 PUSH2 0xA5C JUMP JUMPDEST PUSH1 0x40 MLOAD DUP1 SWAP2 SUB SWAP1 RETURN JUMPDEST PUSH2 0x107 PUSH1 0x4 DUP1 CALLDATASIZE SUB DUP2 ADD SWAP1 PUSH2 0x102 SWAP2 SWAP1 PUSH2 0xAA3 JUMP JUMPDEST PUSH2 0x2F0 JUMP JUMPDEST STOP JUMPDEST PUSH2 0x111 PUSH2 0x3BE JUMP JUMPDEST PUSH1 0x40 MLOAD PUSH2 0x11E SWAP2 SWAP1 PUSH2 0xA5C JUMP JUMPDEST PUSH1 0x40 MLOAD DUP1 SWAP2 SUB SWAP1 RETURN JUMPDEST PUSH2 0x141 PUSH1 0x4 DUP1 CALLDATASIZE SUB DUP2 ADD SWAP1 PUSH2 0x13C SWAP2 SWAP1 PUSH2 0xB2B JUMP JUMPDEST PUSH2 0x3E2 JUMP JUMPDEST STOP JUMPDEST PUSH2 0x15D PUSH1 0x4 DUP1 CALLDATASIZE SUB DUP2 ADD SWAP1 PUSH2 0x158 SWAP2 SWAP1 PUSH2 0xAA3 JUMP JUMPDEST PUSH2 0x482 JUMP JUMPDEST STOP JUMPDEST PUSH2 0x179 PUSH1 0x4 DUP1 CALLDATASIZE SUB DUP2 ADD SWAP1 PUSH2 0x174 SWAP2 SWAP1 PUSH2 0x81D JUMP JUMPDEST PUSH2 0x550 JUMP JUMPDEST PUSH1 0x40 MLOAD PUSH2 0x186 SWAP2 SWAP1 PUSH2 0x938 JUMP JUMPDEST PUSH1 0x40 MLOAD DUP1 SWAP2 SUB SWAP1 RETURN JUMPDEST PUSH2 0x1A9 PUSH1 0x4 DUP1 CALLDATASIZE SUB DUP2 ADD SWAP1 PUSH2 0x1A4 SWAP2 SWAP1 PUSH2 0xBB6 JUMP JUMPDEST PUSH2 0x5FA JUMP JUMPDEST PUSH1 0x40 MLOAD PUSH2 0x1B6 SWAP2 SWAP1 PUSH2 0xCEC JUMP JUMPDEST PUSH1 0x40 MLOAD DUP1 SWAP2 SUB SWAP1 RETURN JUMPDEST PUSH1 0x60 PUSH1 0x1 DUP3 PUSH1 0x40 MLOAD PUSH2 0x1D1 SWAP2 SWAP1 PUSH2 0xD88 JUMP JUMPDEST SWAP1 DUP2 MSTORE PUSH1 0x20 ADD PUSH1 0x40 MLOAD DUP1 SWAP2 SUB SWAP1 KECCAK256 DUP1 SLOAD DUP1 PUSH1 0x20 MUL PUSH1 0x20 ADD PUSH1 0x40 MLOAD SWAP1 DUP2 ADD PUSH1 0x40 MSTORE DUP1 SWAP3 SWAP2 SWAP1 DUP2 DUP2 MSTORE PUSH1 0x20 ADD DUP3 DUP1 SLOAD DUP1 ISZERO PUSH2 0x25D JUMPI PUSH1 0x20 MUL DUP3 ADD SWAP2 SWAP1 PUSH1 0x0 MSTORE PUSH1 0x20 PUSH1 0x0 KECCAK256 SWAP1 PUSH1 0x0 SWAP1 JUMPDEST DUP3 DUP3 SWAP1 SLOAD SWAP1 PUSH2 0x100 EXP SWAP1 DIV PUSH8 0xFFFFFFFFFFFFFFFF AND PUSH8 0xFFFFFFFFFFFFFFFF AND DUP2 MSTORE PUSH1 0x20 ADD SWAP1 PUSH1 0x8 ADD SWAP1 PUSH1 0x20 DUP3 PUSH1 0x7 ADD DIV SWAP3 DUP4 ADD SWAP3 PUSH1 0x1 SUB DUP3 MUL SWAP2 POP DUP1 DUP5 GT PUSH2 0x218 JUMPI SWAP1 POP JUMPDEST POP POP POP POP POP SWAP1 POP SWAP2 SWAP1 POP JUMP JUMPDEST PUSH1 0x3 DUP4 DUP1 MLOAD PUSH1 0x20 DUP2 ADD DUP3 ADD DUP1 MLOAD DUP5 DUP3 MSTORE PUSH1 0x20 DUP4 ADD PUSH1 0x20 DUP6 ADD KECCAK256 DUP2 DUP4 MSTORE DUP1 SWAP6 POP POP POP POP POP POP DUP3 DUP1 MLOAD PUSH1 0x20 DUP2 ADD DUP3 ADD DUP1 MLOAD DUP5 DUP3 MSTORE PUSH1 0x20 DUP4 ADD PUSH1 0x20 DUP6 ADD KECCAK256 DUP2 DUP4 MSTORE DUP1 SWAP6 POP POP POP POP POP POP DUP2 DUP2 SLOAD DUP2 LT PUSH2 0x2BD JUMPI PUSH1 0x0 DUP1 REVERT JUMPDEST SWAP1 PUSH1 0x0 MSTORE PUSH1 0x20 PUSH1 0x0 KECCAK256 ADD PUSH1 0x0 SWAP3 POP SWAP3 POP POP SWAP1 SLOAD SWAP1 PUSH2 0x100 EXP SWAP1 DIV PUSH20 0xFFFFFFFFFFFFFFFFFFFFFFFFFFFFFFFFFFFFFFFF AND DUP2 JUMP JUMPDEST PUSH1 0x0 DUP1 SLOAD SWAP1 PUSH2 0x100 EXP SWAP1 DIV PUSH20 0xFFFFFFFFFFFFFFFFFFFFFFFFFFFFFFFFFFFFFFFF AND PUSH20 0xFFFFFFFFFFFFFFFFFFFFFFFFFFFFFFFFFFFFFFFF AND CALLER PUSH20 0xFFFFFFFFFFFFFFFFFFFFFFFFFFFFFFFFFFFFFFFF AND EQ PUSH2 0x348 JUMPI PUSH1 0x0 DUP1 REVERT JUMPDEST PUSH1 0x2 DUP3 PUSH1 0x40 MLOAD PUSH2 0x358 SWAP2 SWAP1 PUSH2 0xD88 JUMP JUMPDEST SWAP1 DUP2 MSTORE PUSH1 0x20 ADD PUSH1 0x40 MLOAD DUP1 SWAP2 SUB SWAP1 KECCAK256 DUP2 SWAP1 DUP1 PUSH1 0x1 DUP2 SLOAD ADD DUP1 DUP3 SSTORE DUP1 SWAP2 POP POP PUSH1 0x1 SWAP1 SUB SWAP1 PUSH1 0x0 MSTORE PUSH1 0x20 PUSH1 0x0 KECCAK256 SWAP1 PUSH1 0x4 SWAP2 DUP3 DUP3 DIV ADD SWAP2 SWAP1 MOD PUSH1 0x8 MUL SWAP1 SWAP2 SWAP1 SWAP2 SWAP1 SWAP2 PUSH2 0x100 EXP DUP2 SLOAD DUP2 PUSH8 0xFFFFFFFFFFFFFFFF MUL NOT AND SWAP1 DUP4 PUSH8 0xFFFFFFFFFFFFFFFF AND MUL OR SWAP1 SSTORE POP POP POP JUMP JUMPDEST PUSH1 0x0 DUP1 SLOAD SWAP1 PUSH2 0x100 EXP SWAP1 DIV PUSH20 0xFFFFFFFFFFFFFFFFFFFFFFFFFFFFFFFFFFFFFFFF AND DUP2 JUMP JUMPDEST PUSH1 0x3 DUP4 PUSH1 0x40 MLOAD PUSH2 0x3F2 SWAP2 SWAP1 PUSH2 0xD88 JUMP JUMPDEST SWAP1 DUP2 MSTORE PUSH1 0x20 ADD PUSH1 0x40 MLOAD DUP1 SWAP2 SUB SWAP1 KECCAK256 DUP3 PUSH1 0x40 MLOAD PUSH2 0x40E SWAP2 SWAP1 PUSH2 0xD88 JUMP JUMPDEST SWAP1 DUP2 MSTORE PUSH1 0x20 ADD PUSH1 0x40 MLOAD DUP1 SWAP2 SUB SWAP1 KECCAK256 DUP2 SWAP1 DUP1 PUSH1 0x1 DUP2 SLOAD ADD DUP1 DUP3 SSTORE DUP1 SWAP2 POP POP PUSH1 0x1 SWAP1 SUB SWAP1 PUSH1 0x0 MSTORE PUSH1 0x20 PUSH1 0x0 KECCAK256 ADD PUSH1 0x0 SWAP1 SWAP2 SWAP1 SWAP2 SWAP1 SWAP2 PUSH2 0x100 EXP DUP2 SLOAD DUP2 PUSH20 0xFFFFFFFFFFFFFFFFFFFFFFFFFFFFFFFFFFFFFFFF MUL NOT AND SWAP1 DUP4 PUSH20 0xFFFFFFFFFFFFFFFFFFFFFFFFFFFFFFFFFFFFFFFF AND MUL OR SWAP1 SSTORE POP POP POP POP JUMP JUMPDEST PUSH1 0x0 DUP1 SLOAD SWAP1 PUSH2 0x100 EXP SWAP1 DIV PUSH20 0xFFFFFFFFFFFFFFFFFFFFFFFFFFFFFFFFFFFFFFFF AND PUSH20 0xFFFFFFFFFFFFFFFFFFFFFFFFFFFFFFFFFFFFFFFF AND CALLER PUSH20 0xFFFFFFFFFFFFFFFFFFFFFFFFFFFFFFFFFFFFFFFF AND EQ PUSH2 0x4DA JUMPI PUSH1 0x0 DUP1 REVERT JUMPDEST PUSH1 0x1 DUP3 PUSH1 0x40 MLOAD PUSH2 0x4EA SWAP2 SWAP1 PUSH2 0xD88 JUMP JUMPDEST SWAP1 DUP2 MSTORE PUSH1 0x20 ADD PUSH1 0x40 MLOAD DUP1 SWAP2 SUB SWAP1 KECCAK256 DUP2 SWAP1 DUP1 PUSH1 0x1 DUP2 SLOAD ADD DUP1 DUP3 SSTORE DUP1 SWAP2 POP POP PUSH1 0x1 SWAP1 SUB SWAP1 PUSH1 0x0 MSTORE PUSH1 0x20 PUSH1 0x0 KECCAK256 SWAP1 PUSH1 0x4 SWAP2 DUP3 DUP3 DIV ADD SWAP2 SWAP1 MOD PUSH1 0x8 MUL SWAP1 SWAP2 SWAP1 SWAP2 SWAP1 SWAP2 PUSH2 0x100 EXP DUP2 SLOAD DUP2 PUSH8 0xFFFFFFFFFFFFFFFF MUL NOT AND SWAP1 DUP4 PUSH8 0xFFFFFFFFFFFFFFFF AND MUL OR SWAP1 SSTORE POP POP POP JUMP JUMPDEST PUSH1 0x60 PUSH1 0x2 DUP3 PUSH1 0x40 MLOAD PUSH2 0x562 SWAP2 SWAP1 PUSH2 0xD88 JUMP JUMPDEST SWAP1 DUP2 MSTORE PUSH1 0x20 ADD PUSH1 0x40 MLOAD DUP1 SWAP2 SUB SWAP1 KECCAK256 DUP1 SLOAD DUP1 PUSH1 0x20 MUL PUSH1 0x20 ADD PUSH1 0x40 MLOAD SWAP1 DUP2 ADD PUSH1 0x40 MSTORE DUP1 SWAP3 SWAP2 SWAP1 DUP2 DUP2 MSTORE PUSH1 0x20 ADD DUP3 DUP1 SLOAD DUP1 ISZERO PUSH2 0x5EE JUMPI PUSH1 0x20 MUL DUP3 ADD SWAP2 SWAP1 PUSH1 0x0 MSTORE PUSH1 0x20 PUSH1 0x0 KECCAK256 SWAP1 PUSH1 0x0 SWAP1 JUMPDEST DUP3 DUP3 SWAP1 SLOAD SWAP1 PUSH2 0x100 EXP SWAP1 DIV PUSH8 0xFFFFFFFFFFFFFFFF AND PUSH8 0xFFFFFFFFFFFFFFFF AND DUP2 MSTORE PUSH1 0x20 ADD SWAP1 PUSH1 0x8 ADD SWAP1 PUSH1 0x20 DUP3 PUSH1 0x7 ADD DIV SWAP3 DUP4 ADD SWAP3 PUSH1 0x1 SUB DUP3 MUL SWAP2 POP DUP1 DUP5 GT PUSH2 0x5A9 JUMPI SWAP1 POP JUMPDEST POP POP POP POP POP SWAP1 POP SWAP2 SWAP1 POP JUMP JUMPDEST PUSH1 0x60 PUSH1 0x3 DUP4 PUSH1 0x40 MLOAD PUSH2 0x60C SWAP2 SWAP1 PUSH2 0xD88 JUMP JUMPDEST SWAP1 DUP2 MSTORE PUSH1 0x20 ADD PUSH1 0x40 MLOAD DUP1 SWAP2 SUB SWAP1 KECCAK256 DUP3 PUSH1 0x40 MLOAD PUSH2 0x628 SWAP2 SWAP1 PUSH2 0xD88 JUMP JUMPDEST SWAP1 DUP2 MSTORE PUSH1 0x20 ADD PUSH1 0x40 MLOAD DUP1 SWAP2 SUB SWAP1 KECCAK256 DUP1 SLOAD DUP1 PUSH1 0x20 MUL PUSH1 0x20 ADD PUSH1 0x40 MLOAD SWAP1 DUP2 ADD PUSH1 0x40 MSTORE DUP1 SWAP3 SWAP2 SWAP1 DUP2 DUP2 MSTORE PUSH1 0x20 ADD DUP3 DUP1 SLOAD DUP1 ISZERO PUSH2 0x6B6 JUMPI PUSH1 0x20 MUL DUP3 ADD SWAP2 SWAP1 PUSH1 0x0 MSTORE PUSH1 0x20 PUSH1 0x0 KECCAK256 SWAP1 JUMPDEST DUP2 PUSH1 0x0 SWAP1 SLOAD SWAP1 PUSH2 0x100 EXP SWAP1 DIV PUSH20 0xFFFFFFFFFFFFFFFFFFFFFFFFFFFFFFFFFFFFFFFF AND PUSH20 0xFFFFFFFFFFFFFFFFFFFFFFFFFFFFFFFFFFFFFFFF AND DUP2 MSTORE PUSH1 0x20 ADD SWAP1 PUSH1 0x1 ADD SWAP1 DUP1 DUP4 GT PUSH2 0x66C JUMPI JUMPDEST POP POP POP POP POP SWAP1 POP SWAP3 SWAP2 POP POP JUMP JUMPDEST PUSH1 0x0 PUSH1 0x40 MLOAD SWAP1 POP SWAP1 JUMP JUMPDEST PUSH1 0x0 DUP1 REVERT JUMPDEST PUSH1 0x0 DUP1 REVERT JUMPDEST PUSH1 0x0 DUP1 REVERT JUMPDEST PUSH1 0x0 DUP1 REVERT JUMPDEST PUSH1 0x0 PUSH1 0x1F NOT PUSH1 0x1F DUP4 ADD AND SWAP1 POP SWAP2 SWAP1 POP JUMP JUMPDEST PUSH32 0x4E487B7100000000000000000000000000000000000000000000000000000000 PUSH1 0x0 MSTORE PUSH1 0x41 PUSH1 0x4 MSTORE PUSH1 0x24 PUSH1 0x0 REVERT JUMPDEST PUSH2 0x72A DUP3 PUSH2 0x6E1 JUMP JUMPDEST DUP2 ADD DUP2 DUP2 LT PUSH8 0xFFFFFFFFFFFFFFFF DUP3 GT OR ISZERO PUSH2 0x749 JUMPI PUSH2 0x748 PUSH2 0x6F2 JUMP JUMPDEST JUMPDEST DUP1 PUSH1 0x40 MSTORE POP POP POP JUMP JUMPDEST PUSH1 0x0 PUSH2 0x75C PUSH2 0x6C3 JUMP JUMPDEST SWAP1 POP PUSH2 0x768 DUP3 DUP3 PUSH2 0x721 JUMP JUMPDEST SWAP2 SWAP1 POP JUMP JUMPDEST PUSH1 0x0 PUSH8 0xFFFFFFFFFFFFFFFF DUP3 GT ISZERO PUSH2 0x788 JUMPI PUSH2 0x787 PUSH2 0x6F2 JUMP JUMPDEST JUMPDEST PUSH2 0x791 DUP3 PUSH2 0x6E1 JUMP JUMPDEST SWAP1 POP PUSH1 0x20 DUP2 ADD SWAP1 POP SWAP2 SWAP1 POP JUMP JUMPDEST DUP3 DUP2 DUP4 CALLDATACOPY PUSH1 0x0 DUP4 DUP4 ADD MSTORE POP POP POP JUMP JUMPDEST PUSH1 0x0 PUSH2 0x7C0 PUSH2 0x7BB DUP5 PUSH2 0x76D JUMP JUMPDEST PUSH2 0x752 JUMP JUMPDEST SWAP1 POP DUP3 DUP2 MSTORE PUSH1 0x20 DUP2 ADD DUP5 DUP5 DUP5 ADD GT ISZERO PUSH2 0x7DC JUMPI PUSH2 0x7DB PUSH2 0x6DC JUMP JUMPDEST JUMPDEST PUSH2 0x7E7 DUP5 DUP3 DUP6 PUSH2 0x79E JUMP JUMPDEST POP SWAP4 SWAP3 POP POP POP JUMP JUMPDEST PUSH1 0x0 DUP3 PUSH1 0x1F DUP4 ADD SLT PUSH2 0x804 JUMPI PUSH2 0x803 PUSH2 0x6D7 JUMP JUMPDEST JUMPDEST DUP2 CALLDATALOAD PUSH2 0x814 DUP5 DUP3 PUSH1 0x20 DUP7 ADD PUSH2 0x7AD JUMP JUMPDEST SWAP2 POP POP SWAP3 SWAP2 POP POP JUMP JUMPDEST PUSH1 0x0 PUSH1 0x20 DUP3 DUP5 SUB SLT ISZERO PUSH2 0x833 JUMPI PUSH2 0x832 PUSH2 0x6CD JUMP JUMPDEST JUMPDEST PUSH1 0x0 DUP3 ADD CALLDATALOAD PUSH8 0xFFFFFFFFFFFFFFFF DUP2 GT ISZERO PUSH2 0x851 JUMPI PUSH2 0x850 PUSH2 0x6D2 JUMP JUMPDEST JUMPDEST PUSH2 0x85D DUP5 DUP3 DUP6 ADD PUSH2 0x7EF JUMP JUMPDEST SWAP2 POP POP SWAP3 SWAP2 POP POP JUMP JUMPDEST PUSH1 0x0 DUP2 MLOAD SWAP1 POP SWAP2 SWAP1 POP JUMP JUMPDEST PUSH1 0x0 DUP3 DUP3 MSTORE PUSH1 0x20 DUP3 ADD SWAP1 POP SWAP3 SWAP2 POP POP JUMP JUMPDEST PUSH1 0x0 DUP2 SWAP1 POP PUSH1 0x20 DUP3 ADD SWAP1 POP SWAP2 SWAP1 POP JUMP JUMPDEST PUSH1 0x0 PUSH8 0xFFFFFFFFFFFFFFFF DUP3 AND SWAP1 POP SWAP2 SWAP1 POP JUMP JUMPDEST PUSH2 0x8AF DUP2 PUSH2 0x892 JUMP JUMPDEST DUP3 MSTORE POP POP JUMP JUMPDEST PUSH1 0x0 PUSH2 0x8C1 DUP4 DUP4 PUSH2 0x8A6 JUMP JUMPDEST PUSH1 0x20 DUP4 ADD SWAP1 POP SWAP3 SWAP2 POP POP JUMP JUMPDEST PUSH1 0x0 PUSH1 0x20 DUP3 ADD SWAP1 POP SWAP2 SWAP1 POP JUMP JUMPDEST PUSH1 0x0 PUSH2 0x8E5 DUP3 PUSH2 0x866 JUMP JUMPDEST PUSH2 0x8EF DUP2 DUP6 PUSH2 0x871 JUMP JUMPDEST SWAP4 POP PUSH2 0x8FA DUP4 PUSH2 0x882 JUMP JUMPDEST DUP1 PUSH1 0x0 JUMPDEST DUP4 DUP2 LT ISZERO PUSH2 0x92B JUMPI DUP2 MLOAD PUSH2 0x912 DUP9 DUP3 PUSH2 0x8B5 JUMP JUMPDEST SWAP8 POP PUSH2 0x91D DUP4 PUSH2 0x8CD JUMP JUMPDEST SWAP3 POP POP PUSH1 0x1 DUP2 ADD SWAP1 POP PUSH2 0x8FE JUMP JUMPDEST POP DUP6 SWAP4 POP POP POP POP SWAP3 SWAP2 POP POP JUMP JUMPDEST PUSH1 0x0 PUSH1 0x20 DUP3 ADD SWAP1 POP DUP2 DUP2 SUB PUSH1 0x0 DUP4 ADD MSTORE PUSH2 0x952 DUP2 DUP5 PUSH2 0x8DA JUMP JUMPDEST SWAP1 POP SWAP3 SWAP2 POP POP JUMP JUMPDEST PUSH1 0x0 DUP2 SWAP1 POP SWAP2 SWAP1 POP JUMP JUMPDEST PUSH2 0x96D DUP2 PUSH2 0x95A JUMP JUMPDEST DUP2 EQ PUSH2 0x978 JUMPI PUSH1 0x0 DUP1 REVERT JUMPDEST POP JUMP JUMPDEST PUSH1 0x0 DUP2 CALLDATALOAD SWAP1 POP PUSH2 0x98A DUP2 PUSH2 0x964 JUMP JUMPDEST SWAP3 SWAP2 POP POP JUMP JUMPDEST PUSH1 0x0 DUP1 PUSH1 0x0 PUSH1 0x60 DUP5 DUP7 SUB SLT ISZERO PUSH2 0x9A9 JUMPI PUSH2 0x9A8 PUSH2 0x6CD JUMP JUMPDEST JUMPDEST PUSH1 0x0 DUP5 ADD CALLDATALOAD PUSH8 0xFFFFFFFFFFFFFFFF DUP2 GT ISZERO PUSH2 0x9C7 JUMPI PUSH2 0x9C6 PUSH2 0x6D2 JUMP JUMPDEST JUMPDEST PUSH2 0x9D3 DUP7 DUP3 DUP8 ADD PUSH2 0x7EF JUMP JUMPDEST SWAP4 POP POP PUSH1 0x20 DUP5 ADD CALLDATALOAD PUSH8 0xFFFFFFFFFFFFFFFF DUP2 GT ISZERO PUSH2 0x9F4 JUMPI PUSH2 0x9F3 PUSH2 0x6D2 JUMP JUMPDEST JUMPDEST PUSH2 0xA00 DUP7 DUP3 DUP8 ADD PUSH2 0x7EF JUMP JUMPDEST SWAP3 POP POP PUSH1 0x40 PUSH2 0xA11 DUP7 DUP3 DUP8 ADD PUSH2 0x97B JUMP JUMPDEST SWAP2 POP POP SWAP3 POP SWAP3 POP SWAP3 JUMP JUMPDEST PUSH1 0x0 PUSH20 0xFFFFFFFFFFFFFFFFFFFFFFFFFFFFFFFFFFFFFFFF DUP3 AND SWAP1 POP SWAP2 SWAP1 POP JUMP JUMPDEST PUSH1 0x0 PUSH2 0xA46 DUP3 PUSH2 0xA1B JUMP JUMPDEST SWAP1 POP SWAP2 SWAP1 POP JUMP JUMPDEST PUSH2 0xA56 DUP2 PUSH2 0xA3B JUMP JUMPDEST DUP3 MSTORE POP POP JUMP JUMPDEST PUSH1 0x0 PUSH1 0x20 DUP3 ADD SWAP1 POP PUSH2 0xA71 PUSH1 0x0 DUP4 ADD DUP5 PUSH2 0xA4D JUMP JUMPDEST SWAP3 SWAP2 POP POP JUMP JUMPDEST PUSH2 0xA80 DUP2 PUSH2 0x892 JUMP JUMPDEST DUP2 EQ PUSH2 0xA8B JUMPI PUSH1 0x0 DUP1 REVERT JUMPDEST POP JUMP JUMPDEST PUSH1 0x0 DUP2 CALLDATALOAD SWAP1 POP PUSH2 0xA9D DUP2 PUSH2 0xA77 JUMP JUMPDEST SWAP3 SWAP2 POP POP JUMP JUMPDEST PUSH1 0x0 DUP1 PUSH1 0x40 DUP4 DUP6 SUB SLT ISZERO PUSH2 0xABA JUMPI PUSH2 0xAB9 PUSH2 0x6CD JUMP JUMPDEST JUMPDEST PUSH1 0x0 DUP4 ADD CALLDATALOAD PUSH8 0xFFFFFFFFFFFFFFFF DUP2 GT ISZERO PUSH2 0xAD8 JUMPI PUSH2 0xAD7 PUSH2 0x6D2 JUMP JUMPDEST JUMPDEST PUSH2 0xAE4 DUP6 DUP3 DUP7 ADD PUSH2 0x7EF JUMP JUMPDEST SWAP3 POP POP PUSH1 0x20 PUSH2 0xAF5 DUP6 DUP3 DUP7 ADD PUSH2 0xA8E JUMP JUMPDEST SWAP2 POP POP SWAP3 POP SWAP3 SWAP1 POP JUMP JUMPDEST PUSH2 0xB08 DUP2 PUSH2 0xA3B JUMP JUMPDEST DUP2 EQ PUSH2 0xB13 JUMPI PUSH1 0x0 DUP1 REVERT JUMPDEST POP JUMP JUMPDEST PUSH1 0x0 DUP2 CALLDATALOAD SWAP1 POP PUSH2 0xB25 DUP2 PUSH2 0xAFF JUMP JUMPDEST SWAP3 SWAP2 POP POP JUMP JUMPDEST PUSH1 0x0 DUP1 PUSH1 0x0 PUSH1 0x60 DUP5 DUP7 SUB SLT ISZERO PUSH2 0xB44 JUMPI PUSH2 0xB43 PUSH2 0x6CD JUMP JUMPDEST JUMPDEST PUSH1 0x0 DUP5 ADD CALLDATALOAD PUSH8 0xFFFFFFFFFFFFFFFF DUP2 GT ISZERO PUSH2 0xB62 JUMPI PUSH2 0xB61 PUSH2 0x6D2 JUMP JUMPDEST JUMPDEST PUSH2 0xB6E DUP7 DUP3 DUP8 ADD PUSH2 0x7EF JUMP JUMPDEST SWAP4 POP POP PUSH1 0x20 DUP5 ADD CALLDATALOAD PUSH8 0xFFFFFFFFFFFFFFFF DUP2 GT ISZERO PUSH2 0xB8F JUMPI PUSH2 0xB8E PUSH2 0x6D2 JUMP JUMPDEST JUMPDEST PUSH2 0xB9B DUP7 DUP3 DUP8 ADD PUSH2 0x7EF JUMP JUMPDEST SWAP3 POP POP PUSH1 0x40 PUSH2 0xBAC DUP7 DUP3 DUP8 ADD PUSH2 0xB16 JUMP JUMPDEST SWAP2 POP POP SWAP3 POP SWAP3 POP SWAP3 JUMP JUMPDEST PUSH1 0x0 DUP1 PUSH1 0x40 DUP4 DUP6 SUB SLT ISZERO PUSH2 0xBCD JUMPI PUSH2 0xBCC PUSH2 0x6CD JUMP JUMPDEST JUMPDEST PUSH1 0x0 DUP4 ADD CALLDATALOAD PUSH8 0xFFFFFFFFFFFFFFFF DUP2 GT ISZERO PUSH2 0xBEB JUMPI PUSH2 0xBEA PUSH2 0x6D2 JUMP JUMPDEST JUMPDEST PUSH2 0xBF7 DUP6 DUP3 DUP7 ADD PUSH2 0x7EF JUMP JUMPDEST SWAP3 POP POP PUSH1 0x20 DUP4 ADD CALLDATALOAD PUSH8 0xFFFFFFFFFFFFFFFF DUP2 GT ISZERO PUSH2 0xC18 JUMPI PUSH2 0xC17 PUSH2 0x6D2 JUMP JUMPDEST JUMPDEST PUSH2 0xC24 DUP6 DUP3 DUP7 ADD PUSH2 0x7EF JUMP JUMPDEST SWAP2 POP POP SWAP3 POP SWAP3 SWAP1 POP JUMP JUMPDEST PUSH1 0x0 DUP2 MLOAD SWAP1 POP SWAP2 SWAP1 POP JUMP JUMPDEST PUSH1 0x0 DUP3 DUP3 MSTORE PUSH1 0x20 DUP3 ADD SWAP1 POP SWAP3 SWAP2 POP POP JUMP JUMPDEST PUSH1 0x0 DUP2 SWAP1 POP PUSH1 0x20 DUP3 ADD SWAP1 POP SWAP2 SWAP1 POP JUMP JUMPDEST PUSH2 0xC63 DUP2 PUSH2 0xA3B JUMP JUMPDEST DUP3 MSTORE POP POP JUMP JUMPDEST PUSH1 0x0 PUSH2 0xC75 DUP4 DUP4 PUSH2 0xC5A JUMP JUMPDEST PUSH1 0x20 DUP4 ADD SWAP1 POP SWAP3 SWAP2 POP POP JUMP JUMPDEST PUSH1 0x0 PUSH1 0x20 DUP3 ADD SWAP1 POP SWAP2 SWAP1 POP JUMP JUMPDEST PUSH1 0x0 PUSH2 0xC99 DUP3 PUSH2 0xC2E JUMP JUMPDEST PUSH2 0xCA3 DUP2 DUP6 PUSH2 0xC39 JUMP JUMPDEST SWAP4 POP PUSH2 0xCAE DUP4 PUSH2 0xC4A JUMP JUMPDEST DUP1 PUSH1 0x0 JUMPDEST DUP4 DUP2 LT ISZERO PUSH2 0xCDF JUMPI DUP2 MLOAD PUSH2 0xCC6 DUP9 DUP3 PUSH2 0xC69 JUMP JUMPDEST SWAP8 POP PUSH2 0xCD1 DUP4 PUSH2 0xC81 JUMP JUMPDEST SWAP3 POP POP PUSH1 0x1 DUP2 ADD SWAP1 POP PUSH2 0xCB2 JUMP JUMPDEST POP DUP6 SWAP4 POP POP POP POP SWAP3 SWAP2 POP POP JUMP JUMPDEST PUSH1 0x0 PUSH1 0x20 DUP3 ADD SWAP1 POP DUP2 DUP2 SUB PUSH1 0x0 DUP4 ADD MSTORE PUSH2 0xD06 DUP2 DUP5 PUSH2 0xC8E JUMP JUMPDEST SWAP1 POP SWAP3 SWAP2 POP POP JUMP JUMPDEST PUSH1 0x0 DUP2 MLOAD SWAP1 POP SWAP2 SWAP1 POP JUMP JUMPDEST PUSH1 0x0 DUP2 SWAP1 POP SWAP3 SWAP2 POP POP JUMP JUMPDEST PUSH1 0x0 JUMPDEST DUP4 DUP2 LT ISZERO PUSH2 0xD42 JUMPI DUP1 DUP3 ADD MLOAD DUP2 DUP5 ADD MSTORE PUSH1 0x20 DUP2 ADD SWAP1 POP PUSH2 0xD27 JUMP JUMPDEST DUP4 DUP2 GT ISZERO PUSH2 0xD51 JUMPI PUSH1 0x0 DUP5 DUP5 ADD MSTORE JUMPDEST POP POP POP POP JUMP JUMPDEST PUSH1 0x0 PUSH2 0xD62 DUP3 PUSH2 0xD0E JUMP JUMPDEST PUSH2 0xD6C DUP2 DUP6 PUSH2 0xD19 JUMP JUMPDEST SWAP4 POP PUSH2 0xD7C DUP2 DUP6 PUSH1 0x20 DUP7 ADD PUSH2 0xD24 JUMP JUMPDEST DUP1 DUP5 ADD SWAP2 POP POP SWAP3 SWAP2 POP POP JUMP JUMPDEST PUSH1 0x0 PUSH2 0xD94 DUP3 DUP5 PUSH2 0xD57 JUMP JUMPDEST SWAP2 POP DUP2 SWAP1 POP SWAP3 SWAP2 POP POP JUMP INVALID LOG2 PUSH5 0x6970667358 0x22 SLT KECCAK256 0x1E PUSH21 0xE64701556D2948A9677DE46541E73EFD59D133EFA4 JUMPDEST 0xBE EXTCODECOPY PUSH23 0xCB0ED96DC964736F6C634300080F003300000000000000 "},"gasEstimates":{"creation":{"codeDepositCost":"708200","executionCost":"infinite","totalCost":"infinite"},"external":{"activities(string,string,uint256)":"infinite","getActivity(string,string)":"infinite","getCheckIn(string)":"infinite","getCheckOut(string)":"infinite","newActivity(string,string,address)":"infinite","newCheckIn(string,uint64)":"infinite","newCheckOut(string,uint64)":"infinite","owner()":"2578"}},"methodIdentifiers":{"activities(string,string,uint256)":"1d3c7ff4","getActivity(string,string)":"ed855a41","getCheckIn(string)":"1961b32f","getCheckOut(string)":"e0ca4301","newActivity(string,string,address)":"c9629404","newCheckIn(string,uint64)":"cdede4fe","newCheckOut(string,uint64)":"87e12557","owner()":"8da5cb5b"}},"storageLayout":{"storage":[{"astId":87,"contract":"intelifactory.sol:Person","label":"owner","offset":0,"slot":"0","type":"t_address"},{"astId":92,"contract":"intelifactory.sol:Person","label":"checkIn","offset":0,"slot":"1","type":"t_mapping(t_string_memory_ptr,t_array(t_uint64)dyn_storage)"},{"astId":97,"contract":"intelifactory.sol:Person","label":"checkOut","offset":0,"slot":"2","type":"t_mapping(t_string_memory_ptr,t_array(t_uint64)dyn_storage)"},{"astId":104,"contract":"intelifactory.sol:Person","label":"activities","offset":0,"slot":"3","type":"t_mapping(t_string_memory_ptr,t_mapping(t_string_memory_ptr,t_array(t_address)dyn_storage))"}],"types":{"t_address":{"encoding":"inplace","label":"address","numberOfBytes":"20"},"t_array(t_address)dyn_storage":{"base":"t_address","encoding":"dynamic_array","label":"address[]","numberOfBytes":"32"},"t_array(t_uint64)dyn_storage":{"base":"t_uint64","encoding":"dynamic_array","label":"uint64[]","numberOfBytes":"32"},"t_mapping(t_string_memory_ptr,t_array(t_address)dyn_storage)":{"encoding":"mapping","key":"t_string_memory_ptr","label":"mapping(string => address[])","numberOfBytes":"32","value":"t_array(t_address)dyn_storage"},"t_mapping(t_string_memory_ptr,t_array(t_uint64)dyn_storage)":{"encoding":"mapping","key":"t_string_memory_ptr","label":"mapping(string => uint64[])","numberOfBytes":"32","value":"t_array(t_uint64)dyn_storage"},"t_mapping(t_string_memory_ptr,t_mapping(t_string_memory_ptr,t_array(t_address)dyn_storage))":{"encoding":"mapping","key":"t_string_memory_ptr","label":"mapping(string => mapping(string => address[]))","numberOfBytes":"32","value":"t_mapping(t_string_memory_ptr,t_array(t_address)dyn_storage)"},"t_string_memory_ptr":{"encoding":"bytes","label":"string","numberOfBytes":"32"},"t_uint64":{"encoding":"inplace","label":"uint64","numberOfBytes":"8"}}},"userdoc":{"kind":"user","methods":{},"version":1}}