{"abi":[{"inputs":[],"stateMutability":"nonpayable","type":"constructor"},{"inputs":[{"internalType":"string","name":"","type":"string"},{"internalType":"string","name":"","type":"string"},{"internalType":"uint256","name":"","type":"uint256"}],"name":"activities","outputs":[{"internalType":"address","name":"","type":"address"}],"stateMutability":"view","type":"function"},{"inputs":[{"internalType":"string","name":"key","type":"string"}],"name":"getCheckIn","outputs":[{"internalType":"uint64[]","name":"","type":"uint64[]"}],"stateMutability":"view","type":"function"},{"inputs":[{"internalType":"string","name":"key","type":"string"}],"name":"getCheckOut","outputs":[{"internalType":"uint64[]","name":"","type":"uint64[]"}],"stateMutability":"view","type":"function"},{"inputs":[{"internalType":"string","name":"activityType","type":"string"},{"internalType":"string","name":"date","type":"string"},{"internalType":"address","name":"activityAdress","type":"address"}],"name":"newActivity","outputs":[],"stateMutability":"nonpayable","type":"function"},{"inputs":[{"internalType":"string","name":"date","type":"string"},{"internalType":"uint64","name":"unixTime","type":"uint64"}],"name":"newCheckIn","outputs":[],"stateMutability":"nonpayable","type":"function"},{"inputs":[{"internalType":"string","name":"date","type":"string"},{"internalType":"uint64","name":"unixTime","type":"uint64"}],"name":"newCheckOut","outputs":[],"stateMutability":"nonpayable","type":"function"},{"inputs":[],"name":"owner","outputs":[{"internalType":"address","name":"","type":"address"}],"stateMutability":"view","type":"function"},{"inputs":[{"internalType":"string","name":"activityType","type":"string"},{"internalType":"string","name":"date","type":"string"}],"name":"viewActivity","outputs":[{"internalType":"address[]","name":"","type":"address[]"}],"stateMutability":"view","type":"function"}],"devdoc":{"kind":"dev","methods":{},"version":1},"evm":{"assembly":"    /* \"intelifactory.sol\":743:2209  contract Person {... */\n  mstore(0x40, 0x80)\n    /* \"intelifactory.sol\":968:1019  constructor() {... */\n  callvalue\n  dup1\n  iszero\n  tag_1\n  jumpi\n  0x00\n  dup1\n  revert\ntag_1:\n  pop\n    /* \"intelifactory.sol\":1001:1011  msg.sender */\n  caller\n    /* \"intelifactory.sol\":993:998  owner */\n  0x00\n  dup1\n    /* \"intelifactory.sol\":993:1011  owner = msg.sender */\n  0x0100\n  exp\n  dup2\n  sload\n  dup2\n  0xffffffffffffffffffffffffffffffffffffffff\n  mul\n  not\n  and\n  swap1\n  dup4\n  0xffffffffffffffffffffffffffffffffffffffff\n  and\n  mul\n  or\n  swap1\n  sstore\n  pop\n    /* \"intelifactory.sol\":743:2209  contract Person {... */\n  dataSize(sub_0)\n  dup1\n  dataOffset(sub_0)\n  0x00\n  codecopy\n  0x00\n  return\nstop\n\nsub_0: assembly {\n        /* \"intelifactory.sol\":743:2209  contract Person {... */\n      mstore(0x40, 0x80)\n      callvalue\n      dup1\n      iszero\n      tag_1\n      jumpi\n      0x00\n      dup1\n      revert\n    tag_1:\n      pop\n      jumpi(tag_2, lt(calldatasize, 0x04))\n      shr(0xe0, calldataload(0x00))\n      dup1\n      0x8da5cb5b\n      gt\n      tag_11\n      jumpi\n      dup1\n      0x8da5cb5b\n      eq\n      tag_7\n      jumpi\n      dup1\n      0xc9629404\n      eq\n      tag_8\n      jumpi\n      dup1\n      0xcdede4fe\n      eq\n      tag_9\n      jumpi\n      dup1\n      0xe0ca4301\n      eq\n      tag_10\n      jumpi\n      jump(tag_2)\n    tag_11:\n      dup1\n      0x1961b32f\n      eq\n      tag_3\n      jumpi\n      dup1\n      0x1d3c7ff4\n      eq\n      tag_4\n      jumpi\n      dup1\n      0x715fe5f4\n      eq\n      tag_5\n      jumpi\n      dup1\n      0x87e12557\n      eq\n      tag_6\n      jumpi\n    tag_2:\n      0x00\n      dup1\n      revert\n        /* \"intelifactory.sol\":1256:1403  function getCheckIn(string memory key)... */\n    tag_3:\n      tag_12\n      0x04\n      dup1\n      calldatasize\n      sub\n      dup2\n      add\n      swap1\n      tag_13\n      swap2\n      swap1\n      tag_14\n      jump\t// in\n    tag_13:\n      tag_15\n      jump\t// in\n    tag_12:\n      mload(0x40)\n      tag_16\n      swap2\n      swap1\n      tag_17\n      jump\t// in\n    tag_16:\n      mload(0x40)\n      dup1\n      swap2\n      sub\n      swap1\n      return\n        /* \"intelifactory.sol\":894:959  mapping(string => mapping(string => address[])) public activities */\n    tag_4:\n      tag_18\n      0x04\n      dup1\n      calldatasize\n      sub\n      dup2\n      add\n      swap1\n      tag_19\n      swap2\n      swap1\n      tag_20\n      jump\t// in\n    tag_19:\n      tag_21\n      jump\t// in\n    tag_18:\n      mload(0x40)\n      tag_22\n      swap2\n      swap1\n      tag_23\n      jump\t// in\n    tag_22:\n      mload(0x40)\n      dup1\n      swap2\n      sub\n      swap1\n      return\n        /* \"intelifactory.sol\":2009:2206  function viewActivity(string memory activityType, string memory date)... */\n    tag_5:\n      tag_24\n      0x04\n      dup1\n      calldatasize\n      sub\n      dup2\n      add\n      swap1\n      tag_25\n      swap2\n      swap1\n      tag_26\n      jump\t// in\n    tag_25:\n      tag_27\n      jump\t// in\n    tag_24:\n      mload(0x40)\n      tag_28\n      swap2\n      swap1\n      tag_29\n      jump\t// in\n    tag_28:\n      mload(0x40)\n      dup1\n      swap2\n      sub\n      swap1\n      return\n        /* \"intelifactory.sol\":1480:1632  function newCheckOut(string memory date, uint64 unixTime) public {... */\n    tag_6:\n      tag_30\n      0x04\n      dup1\n      calldatasize\n      sub\n      dup2\n      add\n      swap1\n      tag_31\n      swap2\n      swap1\n      tag_32\n      jump\t// in\n    tag_31:\n      tag_33\n      jump\t// in\n    tag_30:\n      stop\n        /* \"intelifactory.sol\":766:786  address public owner */\n    tag_7:\n      tag_34\n      tag_35\n      jump\t// in\n    tag_34:\n      mload(0x40)\n      tag_36\n      swap2\n      swap1\n      tag_23\n      jump\t// in\n    tag_36:\n      mload(0x40)\n      dup1\n      swap2\n      sub\n      swap1\n      return\n        /* \"intelifactory.sol\":1797:2001  function newActivity(... */\n    tag_8:\n      tag_37\n      0x04\n      dup1\n      calldatasize\n      sub\n      dup2\n      add\n      swap1\n      tag_38\n      swap2\n      swap1\n      tag_39\n      jump\t// in\n    tag_38:\n      tag_40\n      jump\t// in\n    tag_37:\n      stop\n        /* \"intelifactory.sol\":1098:1248  function newCheckIn(string memory date, uint64 unixTime) public {... */\n    tag_9:\n      tag_41\n      0x04\n      dup1\n      calldatasize\n      sub\n      dup2\n      add\n      swap1\n      tag_42\n      swap2\n      swap1\n      tag_32\n      jump\t// in\n    tag_42:\n      tag_43\n      jump\t// in\n    tag_41:\n      stop\n        /* \"intelifactory.sol\":1640:1789  function getCheckOut(string memory key)... */\n    tag_10:\n      tag_44\n      0x04\n      dup1\n      calldatasize\n      sub\n      dup2\n      add\n      swap1\n      tag_45\n      swap2\n      swap1\n      tag_14\n      jump\t// in\n    tag_45:\n      tag_46\n      jump\t// in\n    tag_44:\n      mload(0x40)\n      tag_47\n      swap2\n      swap1\n      tag_17\n      jump\t// in\n    tag_47:\n      mload(0x40)\n      dup1\n      swap2\n      sub\n      swap1\n      return\n        /* \"intelifactory.sol\":1256:1403  function getCheckIn(string memory key)... */\n    tag_15:\n        /* \"intelifactory.sol\":1343:1358  uint64[] memory */\n      0x60\n        /* \"intelifactory.sol\":1383:1390  checkIn */\n      0x01\n        /* \"intelifactory.sol\":1391:1394  key */\n      dup3\n        /* \"intelifactory.sol\":1383:1395  checkIn[key] */\n      mload(0x40)\n      tag_49\n      swap2\n      swap1\n      tag_50\n      jump\t// in\n    tag_49:\n      swap1\n      dup2\n      mstore\n      0x20\n      add\n      mload(0x40)\n      dup1\n      swap2\n      sub\n      swap1\n      keccak256\n        /* \"intelifactory.sol\":1376:1395  return checkIn[key] */\n      dup1\n      sload\n      dup1\n      0x20\n      mul\n      0x20\n      add\n      mload(0x40)\n      swap1\n      dup2\n      add\n      0x40\n      mstore\n      dup1\n      swap3\n      swap2\n      swap1\n      dup2\n      dup2\n      mstore\n      0x20\n      add\n      dup3\n      dup1\n      sload\n      dup1\n      iszero\n      tag_51\n      jumpi\n      0x20\n      mul\n      dup3\n      add\n      swap2\n      swap1\n      0x00\n      mstore\n      keccak256(0x00, 0x20)\n      swap1\n      0x00\n      swap1\n    tag_52:\n      dup3\n      dup3\n      swap1\n      sload\n      swap1\n      0x0100\n      exp\n      swap1\n      div\n      0xffffffffffffffff\n      and\n      0xffffffffffffffff\n      and\n      dup2\n      mstore\n      0x20\n      add\n      swap1\n      0x08\n      add\n      swap1\n      0x20\n      dup3\n      0x07\n      add\n      div\n      swap3\n      dup4\n      add\n      swap3\n      0x01\n      sub\n      dup3\n      mul\n      swap2\n      pop\n      dup1\n      dup5\n      gt\n      tag_52\n      jumpi\n      swap1\n      pop\n    tag_51:\n      pop\n      pop\n      pop\n      pop\n      pop\n      swap1\n      pop\n        /* \"intelifactory.sol\":1256:1403  function getCheckIn(string memory key)... */\n      swap2\n      swap1\n      pop\n      jump\t// out\n        /* \"intelifactory.sol\":894:959  mapping(string => mapping(string => address[])) public activities */\n    tag_21:\n      0x03\n      dup4\n      dup1\n      mload\n      0x20\n      dup2\n      add\n      dup3\n      add\n      dup1\n      mload\n      dup5\n      dup3\n      mstore\n      0x20\n      dup4\n      add\n      0x20\n      dup6\n      add\n      keccak256\n      dup2\n      dup4\n      mstore\n      dup1\n      swap6\n      pop\n      pop\n      pop\n      pop\n      pop\n      pop\n      dup3\n      dup1\n      mload\n      0x20\n      dup2\n      add\n      dup3\n      add\n      dup1\n      mload\n      dup5\n      dup3\n      mstore\n      0x20\n      dup4\n      add\n      0x20\n      dup6\n      add\n      keccak256\n      dup2\n      dup4\n      mstore\n      dup1\n      swap6\n      pop\n      pop\n      pop\n      pop\n      pop\n      pop\n      dup2\n      dup2\n      sload\n      dup2\n      lt\n      tag_53\n      jumpi\n      0x00\n      dup1\n      revert\n    tag_53:\n      swap1\n      0x00\n      mstore\n      keccak256(0x00, 0x20)\n      add\n      0x00\n      swap3\n      pop\n      swap3\n      pop\n      pop\n      swap1\n      sload\n      swap1\n      0x0100\n      exp\n      swap1\n      div\n      0xffffffffffffffffffffffffffffffffffffffff\n      and\n      dup2\n      jump\t// out\n        /* \"intelifactory.sol\":2009:2206  function viewActivity(string memory activityType, string memory date)... */\n    tag_27:\n        /* \"intelifactory.sol\":2127:2143  address[] memory */\n      0x60\n        /* \"intelifactory.sol\":2168:2178  activities */\n      0x03\n        /* \"intelifactory.sol\":2179:2191  activityType */\n      dup4\n        /* \"intelifactory.sol\":2168:2192  activities[activityType] */\n      mload(0x40)\n      tag_56\n      swap2\n      swap1\n      tag_50\n      jump\t// in\n    tag_56:\n      swap1\n      dup2\n      mstore\n      0x20\n      add\n      mload(0x40)\n      dup1\n      swap2\n      sub\n      swap1\n      keccak256\n        /* \"intelifactory.sol\":2193:2197  date */\n      dup3\n        /* \"intelifactory.sol\":2168:2198  activities[activityType][date] */\n      mload(0x40)\n      tag_57\n      swap2\n      swap1\n      tag_50\n      jump\t// in\n    tag_57:\n      swap1\n      dup2\n      mstore\n      0x20\n      add\n      mload(0x40)\n      dup1\n      swap2\n      sub\n      swap1\n      keccak256\n        /* \"intelifactory.sol\":2161:2198  return activities[activityType][date] */\n      dup1\n      sload\n      dup1\n      0x20\n      mul\n      0x20\n      add\n      mload(0x40)\n      swap1\n      dup2\n      add\n      0x40\n      mstore\n      dup1\n      swap3\n      swap2\n      swap1\n      dup2\n      dup2\n      mstore\n      0x20\n      add\n      dup3\n      dup1\n      sload\n      dup1\n      iszero\n      tag_58\n      jumpi\n      0x20\n      mul\n      dup3\n      add\n      swap2\n      swap1\n      0x00\n      mstore\n      keccak256(0x00, 0x20)\n      swap1\n    tag_59:\n      dup2\n      0x00\n      swap1\n      sload\n      swap1\n      0x0100\n      exp\n      swap1\n      div\n      0xffffffffffffffffffffffffffffffffffffffff\n      and\n      0xffffffffffffffffffffffffffffffffffffffff\n      and\n      dup2\n      mstore\n      0x20\n      add\n      swap1\n      0x01\n      add\n      swap1\n      dup1\n      dup4\n      gt\n      tag_59\n      jumpi\n    tag_58:\n      pop\n      pop\n      pop\n      pop\n      pop\n      swap1\n      pop\n        /* \"intelifactory.sol\":2009:2206  function viewActivity(string memory activityType, string memory date)... */\n      swap3\n      swap2\n      pop\n      pop\n      jump\t// out\n        /* \"intelifactory.sol\":1480:1632  function newCheckOut(string memory date, uint64 unixTime) public {... */\n    tag_33:\n        /* \"intelifactory.sol\":1578:1583  owner */\n      0x00\n      dup1\n      sload\n      swap1\n      0x0100\n      exp\n      swap1\n      div\n      0xffffffffffffffffffffffffffffffffffffffff\n      and\n        /* \"intelifactory.sol\":1564:1583  msg.sender == owner */\n      0xffffffffffffffffffffffffffffffffffffffff\n      and\n        /* \"intelifactory.sol\":1564:1574  msg.sender */\n      caller\n        /* \"intelifactory.sol\":1564:1583  msg.sender == owner */\n      0xffffffffffffffffffffffffffffffffffffffff\n      and\n      eq\n        /* \"intelifactory.sol\":1556:1584  require(msg.sender == owner) */\n      tag_61\n      jumpi\n      0x00\n      dup1\n      revert\n    tag_61:\n        /* \"intelifactory.sol\":1595:1603  checkOut */\n      0x02\n        /* \"intelifactory.sol\":1604:1608  date */\n      dup3\n        /* \"intelifactory.sol\":1595:1609  checkOut[date] */\n      mload(0x40)\n      tag_62\n      swap2\n      swap1\n      tag_50\n      jump\t// in\n    tag_62:\n      swap1\n      dup2\n      mstore\n      0x20\n      add\n      mload(0x40)\n      dup1\n      swap2\n      sub\n      swap1\n      keccak256\n        /* \"intelifactory.sol\":1615:1623  unixTime */\n      dup2\n        /* \"intelifactory.sol\":1595:1624  checkOut[date].push(unixTime) */\n      swap1\n      dup1\n      0x01\n      dup2\n      sload\n      add\n      dup1\n      dup3\n      sstore\n      dup1\n      swap2\n      pop\n      pop\n      0x01\n      swap1\n      sub\n      swap1\n      0x00\n      mstore\n      keccak256(0x00, 0x20)\n      swap1\n      0x04\n      swap2\n      dup3\n      dup3\n      div\n      add\n      swap2\n      swap1\n      mod\n      0x08\n      mul\n      swap1\n      swap2\n      swap1\n      swap2\n      swap1\n      swap2\n      0x0100\n      exp\n      dup2\n      sload\n      dup2\n      0xffffffffffffffff\n      mul\n      not\n      and\n      swap1\n      dup4\n      0xffffffffffffffff\n      and\n      mul\n      or\n      swap1\n      sstore\n      pop\n        /* \"intelifactory.sol\":1480:1632  function newCheckOut(string memory date, uint64 unixTime) public {... */\n      pop\n      pop\n      jump\t// out\n        /* \"intelifactory.sol\":766:786  address public owner */\n    tag_35:\n      0x00\n      dup1\n      sload\n      swap1\n      0x0100\n      exp\n      swap1\n      div\n      0xffffffffffffffffffffffffffffffffffffffff\n      and\n      dup2\n      jump\t// out\n        /* \"intelifactory.sol\":1797:2001  function newActivity(... */\n    tag_40:\n        /* \"intelifactory.sol\":1942:1952  activities */\n      0x03\n        /* \"intelifactory.sol\":1953:1965  activityType */\n      dup4\n        /* \"intelifactory.sol\":1942:1966  activities[activityType] */\n      mload(0x40)\n      tag_65\n      swap2\n      swap1\n      tag_50\n      jump\t// in\n    tag_65:\n      swap1\n      dup2\n      mstore\n      0x20\n      add\n      mload(0x40)\n      dup1\n      swap2\n      sub\n      swap1\n      keccak256\n        /* \"intelifactory.sol\":1967:1971  date */\n      dup3\n        /* \"intelifactory.sol\":1942:1972  activities[activityType][date] */\n      mload(0x40)\n      tag_66\n      swap2\n      swap1\n      tag_50\n      jump\t// in\n    tag_66:\n      swap1\n      dup2\n      mstore\n      0x20\n      add\n      mload(0x40)\n      dup1\n      swap2\n      sub\n      swap1\n      keccak256\n        /* \"intelifactory.sol\":1978:1992  activityAdress */\n      dup2\n        /* \"intelifactory.sol\":1942:1993  activities[activityType][date].push(activityAdress) */\n      swap1\n      dup1\n      0x01\n      dup2\n      sload\n      add\n      dup1\n      dup3\n      sstore\n      dup1\n      swap2\n      pop\n      pop\n      0x01\n      swap1\n      sub\n      swap1\n      0x00\n      mstore\n      keccak256(0x00, 0x20)\n      add\n      0x00\n      swap1\n      swap2\n      swap1\n      swap2\n      swap1\n      swap2\n      0x0100\n      exp\n      dup2\n      sload\n      dup2\n      0xffffffffffffffffffffffffffffffffffffffff\n      mul\n      not\n      and\n      swap1\n      dup4\n      0xffffffffffffffffffffffffffffffffffffffff\n      and\n      mul\n      or\n      swap1\n      sstore\n      pop\n        /* \"intelifactory.sol\":1797:2001  function newActivity(... */\n      pop\n      pop\n      pop\n      jump\t// out\n        /* \"intelifactory.sol\":1098:1248  function newCheckIn(string memory date, uint64 unixTime) public {... */\n    tag_43:\n        /* \"intelifactory.sol\":1195:1200  owner */\n      0x00\n      dup1\n      sload\n      swap1\n      0x0100\n      exp\n      swap1\n      div\n      0xffffffffffffffffffffffffffffffffffffffff\n      and\n        /* \"intelifactory.sol\":1181:1200  msg.sender == owner */\n      0xffffffffffffffffffffffffffffffffffffffff\n      and\n        /* \"intelifactory.sol\":1181:1191  msg.sender */\n      caller\n        /* \"intelifactory.sol\":1181:1200  msg.sender == owner */\n      0xffffffffffffffffffffffffffffffffffffffff\n      and\n      eq\n        /* \"intelifactory.sol\":1173:1201  require(msg.sender == owner) */\n      tag_69\n      jumpi\n      0x00\n      dup1\n      revert\n    tag_69:\n        /* \"intelifactory.sol\":1212:1219  checkIn */\n      0x01\n        /* \"intelifactory.sol\":1220:1224  date */\n      dup3\n        /* \"intelifactory.sol\":1212:1225  checkIn[date] */\n      mload(0x40)\n      tag_70\n      swap2\n      swap1\n      tag_50\n      jump\t// in\n    tag_70:\n      swap1\n      dup2\n      mstore\n      0x20\n      add\n      mload(0x40)\n      dup1\n      swap2\n      sub\n      swap1\n      keccak256\n        /* \"intelifactory.sol\":1231:1239  unixTime */\n      dup2\n        /* \"intelifactory.sol\":1212:1240  checkIn[date].push(unixTime) */\n      swap1\n      dup1\n      0x01\n      dup2\n      sload\n      add\n      dup1\n      dup3\n      sstore\n      dup1\n      swap2\n      pop\n      pop\n      0x01\n      swap1\n      sub\n      swap1\n      0x00\n      mstore\n      keccak256(0x00, 0x20)\n      swap1\n      0x04\n      swap2\n      dup3\n      dup3\n      div\n      add\n      swap2\n      swap1\n      mod\n      0x08\n      mul\n      swap1\n      swap2\n      swap1\n      swap2\n      swap1\n      swap2\n      0x0100\n      exp\n      dup2\n      sload\n      dup2\n      0xffffffffffffffff\n      mul\n      not\n      and\n      swap1\n      dup4\n      0xffffffffffffffff\n      and\n      mul\n      or\n      swap1\n      sstore\n      pop\n        /* \"intelifactory.sol\":1098:1248  function newCheckIn(string memory date, uint64 unixTime) public {... */\n      pop\n      pop\n      jump\t// out\n        /* \"intelifactory.sol\":1640:1789  function getCheckOut(string memory key)... */\n    tag_46:\n        /* \"intelifactory.sol\":1728:1743  uint64[] memory */\n      0x60\n        /* \"intelifactory.sol\":1768:1776  checkOut */\n      0x02\n        /* \"intelifactory.sol\":1777:1780  key */\n      dup3\n        /* \"intelifactory.sol\":1768:1781  checkOut[key] */\n      mload(0x40)\n      tag_73\n      swap2\n      swap1\n      tag_50\n      jump\t// in\n    tag_73:\n      swap1\n      dup2\n      mstore\n      0x20\n      add\n      mload(0x40)\n      dup1\n      swap2\n      sub\n      swap1\n      keccak256\n        /* \"intelifactory.sol\":1761:1781  return checkOut[key] */\n      dup1\n      sload\n      dup1\n      0x20\n      mul\n      0x20\n      add\n      mload(0x40)\n      swap1\n      dup2\n      add\n      0x40\n      mstore\n      dup1\n      swap3\n      swap2\n      swap1\n      dup2\n      dup2\n      mstore\n      0x20\n      add\n      dup3\n      dup1\n      sload\n      dup1\n      iszero\n      tag_74\n      jumpi\n      0x20\n      mul\n      dup3\n      add\n      swap2\n      swap1\n      0x00\n      mstore\n      keccak256(0x00, 0x20)\n      swap1\n      0x00\n      swap1\n    tag_75:\n      dup3\n      dup3\n      swap1\n      sload\n      swap1\n      0x0100\n      exp\n      swap1\n      div\n      0xffffffffffffffff\n      and\n      0xffffffffffffffff\n      and\n      dup2\n      mstore\n      0x20\n      add\n      swap1\n      0x08\n      add\n      swap1\n      0x20\n      dup3\n      0x07\n      add\n      div\n      swap3\n      dup4\n      add\n      swap3\n      0x01\n      sub\n      dup3\n      mul\n      swap2\n      pop\n      dup1\n      dup5\n      gt\n      tag_75\n      jumpi\n      swap1\n      pop\n    tag_74:\n      pop\n      pop\n      pop\n      pop\n      pop\n      swap1\n      pop\n        /* \"intelifactory.sol\":1640:1789  function getCheckOut(string memory key)... */\n      swap2\n      swap1\n      pop\n      jump\t// out\n        /* \"#utility.yul\":7:82   */\n    tag_76:\n        /* \"#utility.yul\":40:46   */\n      0x00\n        /* \"#utility.yul\":73:75   */\n      0x40\n        /* \"#utility.yul\":67:76   */\n      mload\n        /* \"#utility.yul\":57:76   */\n      swap1\n      pop\n        /* \"#utility.yul\":7:82   */\n      swap1\n      jump\t// out\n        /* \"#utility.yul\":88:205   */\n    tag_77:\n        /* \"#utility.yul\":197:198   */\n      0x00\n        /* \"#utility.yul\":194:195   */\n      dup1\n        /* \"#utility.yul\":187:199   */\n      revert\n        /* \"#utility.yul\":211:328   */\n    tag_78:\n        /* \"#utility.yul\":320:321   */\n      0x00\n        /* \"#utility.yul\":317:318   */\n      dup1\n        /* \"#utility.yul\":310:322   */\n      revert\n        /* \"#utility.yul\":334:451   */\n    tag_79:\n        /* \"#utility.yul\":443:444   */\n      0x00\n        /* \"#utility.yul\":440:441   */\n      dup1\n        /* \"#utility.yul\":433:445   */\n      revert\n        /* \"#utility.yul\":457:574   */\n    tag_80:\n        /* \"#utility.yul\":566:567   */\n      0x00\n        /* \"#utility.yul\":563:564   */\n      dup1\n        /* \"#utility.yul\":556:568   */\n      revert\n        /* \"#utility.yul\":580:682   */\n    tag_81:\n        /* \"#utility.yul\":621:627   */\n      0x00\n        /* \"#utility.yul\":672:674   */\n      0x1f\n        /* \"#utility.yul\":668:675   */\n      not\n        /* \"#utility.yul\":663:665   */\n      0x1f\n        /* \"#utility.yul\":656:661   */\n      dup4\n        /* \"#utility.yul\":652:666   */\n      add\n        /* \"#utility.yul\":648:676   */\n      and\n        /* \"#utility.yul\":638:676   */\n      swap1\n      pop\n        /* \"#utility.yul\":580:682   */\n      swap2\n      swap1\n      pop\n      jump\t// out\n        /* \"#utility.yul\":688:868   */\n    tag_82:\n        /* \"#utility.yul\":736:813   */\n      0x4e487b7100000000000000000000000000000000000000000000000000000000\n        /* \"#utility.yul\":733:734   */\n      0x00\n        /* \"#utility.yul\":726:814   */\n      mstore\n        /* \"#utility.yul\":833:837   */\n      0x41\n        /* \"#utility.yul\":830:831   */\n      0x04\n        /* \"#utility.yul\":823:838   */\n      mstore\n        /* \"#utility.yul\":857:861   */\n      0x24\n        /* \"#utility.yul\":854:855   */\n      0x00\n        /* \"#utility.yul\":847:862   */\n      revert\n        /* \"#utility.yul\":874:1155   */\n    tag_83:\n        /* \"#utility.yul\":957:984   */\n      tag_127\n        /* \"#utility.yul\":979:983   */\n      dup3\n        /* \"#utility.yul\":957:984   */\n      tag_81\n      jump\t// in\n    tag_127:\n        /* \"#utility.yul\":949:955   */\n      dup2\n        /* \"#utility.yul\":945:985   */\n      add\n        /* \"#utility.yul\":1087:1093   */\n      dup2\n        /* \"#utility.yul\":1075:1085   */\n      dup2\n        /* \"#utility.yul\":1072:1094   */\n      lt\n        /* \"#utility.yul\":1051:1069   */\n      0xffffffffffffffff\n        /* \"#utility.yul\":1039:1049   */\n      dup3\n        /* \"#utility.yul\":1036:1070   */\n      gt\n        /* \"#utility.yul\":1033:1095   */\n      or\n        /* \"#utility.yul\":1030:1118   */\n      iszero\n      tag_128\n      jumpi\n        /* \"#utility.yul\":1098:1116   */\n      tag_129\n      tag_82\n      jump\t// in\n    tag_129:\n        /* \"#utility.yul\":1030:1118   */\n    tag_128:\n        /* \"#utility.yul\":1138:1148   */\n      dup1\n        /* \"#utility.yul\":1134:1136   */\n      0x40\n        /* \"#utility.yul\":1127:1149   */\n      mstore\n        /* \"#utility.yul\":917:1155   */\n      pop\n        /* \"#utility.yul\":874:1155   */\n      pop\n      pop\n      jump\t// out\n        /* \"#utility.yul\":1161:1290   */\n    tag_84:\n        /* \"#utility.yul\":1195:1201   */\n      0x00\n        /* \"#utility.yul\":1222:1242   */\n      tag_131\n      tag_76\n      jump\t// in\n    tag_131:\n        /* \"#utility.yul\":1212:1242   */\n      swap1\n      pop\n        /* \"#utility.yul\":1251:1284   */\n      tag_132\n        /* \"#utility.yul\":1279:1283   */\n      dup3\n        /* \"#utility.yul\":1271:1277   */\n      dup3\n        /* \"#utility.yul\":1251:1284   */\n      tag_83\n      jump\t// in\n    tag_132:\n        /* \"#utility.yul\":1161:1290   */\n      swap2\n      swap1\n      pop\n      jump\t// out\n        /* \"#utility.yul\":1296:1604   */\n    tag_85:\n        /* \"#utility.yul\":1358:1362   */\n      0x00\n        /* \"#utility.yul\":1448:1466   */\n      0xffffffffffffffff\n        /* \"#utility.yul\":1440:1446   */\n      dup3\n        /* \"#utility.yul\":1437:1467   */\n      gt\n        /* \"#utility.yul\":1434:1490   */\n      iszero\n      tag_134\n      jumpi\n        /* \"#utility.yul\":1470:1488   */\n      tag_135\n      tag_82\n      jump\t// in\n    tag_135:\n        /* \"#utility.yul\":1434:1490   */\n    tag_134:\n        /* \"#utility.yul\":1508:1537   */\n      tag_136\n        /* \"#utility.yul\":1530:1536   */\n      dup3\n        /* \"#utility.yul\":1508:1537   */\n      tag_81\n      jump\t// in\n    tag_136:\n        /* \"#utility.yul\":1500:1537   */\n      swap1\n      pop\n        /* \"#utility.yul\":1592:1596   */\n      0x20\n        /* \"#utility.yul\":1586:1590   */\n      dup2\n        /* \"#utility.yul\":1582:1597   */\n      add\n        /* \"#utility.yul\":1574:1597   */\n      swap1\n      pop\n        /* \"#utility.yul\":1296:1604   */\n      swap2\n      swap1\n      pop\n      jump\t// out\n        /* \"#utility.yul\":1610:1764   */\n    tag_86:\n        /* \"#utility.yul\":1694:1700   */\n      dup3\n        /* \"#utility.yul\":1689:1692   */\n      dup2\n        /* \"#utility.yul\":1684:1687   */\n      dup4\n        /* \"#utility.yul\":1671:1701   */\n      calldatacopy\n        /* \"#utility.yul\":1756:1757   */\n      0x00\n        /* \"#utility.yul\":1747:1753   */\n      dup4\n        /* \"#utility.yul\":1742:1745   */\n      dup4\n        /* \"#utility.yul\":1738:1754   */\n      add\n        /* \"#utility.yul\":1731:1758   */\n      mstore\n        /* \"#utility.yul\":1610:1764   */\n      pop\n      pop\n      pop\n      jump\t// out\n        /* \"#utility.yul\":1770:2182   */\n    tag_87:\n        /* \"#utility.yul\":1848:1853   */\n      0x00\n        /* \"#utility.yul\":1873:1939   */\n      tag_139\n        /* \"#utility.yul\":1889:1938   */\n      tag_140\n        /* \"#utility.yul\":1931:1937   */\n      dup5\n        /* \"#utility.yul\":1889:1938   */\n      tag_85\n      jump\t// in\n    tag_140:\n        /* \"#utility.yul\":1873:1939   */\n      tag_84\n      jump\t// in\n    tag_139:\n        /* \"#utility.yul\":1864:1939   */\n      swap1\n      pop\n        /* \"#utility.yul\":1962:1968   */\n      dup3\n        /* \"#utility.yul\":1955:1960   */\n      dup2\n        /* \"#utility.yul\":1948:1969   */\n      mstore\n        /* \"#utility.yul\":2000:2004   */\n      0x20\n        /* \"#utility.yul\":1993:1998   */\n      dup2\n        /* \"#utility.yul\":1989:2005   */\n      add\n        /* \"#utility.yul\":2038:2041   */\n      dup5\n        /* \"#utility.yul\":2029:2035   */\n      dup5\n        /* \"#utility.yul\":2024:2027   */\n      dup5\n        /* \"#utility.yul\":2020:2036   */\n      add\n        /* \"#utility.yul\":2017:2042   */\n      gt\n        /* \"#utility.yul\":2014:2126   */\n      iszero\n      tag_141\n      jumpi\n        /* \"#utility.yul\":2045:2124   */\n      tag_142\n      tag_80\n      jump\t// in\n    tag_142:\n        /* \"#utility.yul\":2014:2126   */\n    tag_141:\n        /* \"#utility.yul\":2135:2176   */\n      tag_143\n        /* \"#utility.yul\":2169:2175   */\n      dup5\n        /* \"#utility.yul\":2164:2167   */\n      dup3\n        /* \"#utility.yul\":2159:2162   */\n      dup6\n        /* \"#utility.yul\":2135:2176   */\n      tag_86\n      jump\t// in\n    tag_143:\n        /* \"#utility.yul\":1854:2182   */\n      pop\n        /* \"#utility.yul\":1770:2182   */\n      swap4\n      swap3\n      pop\n      pop\n      pop\n      jump\t// out\n        /* \"#utility.yul\":2202:2542   */\n    tag_88:\n        /* \"#utility.yul\":2258:2263   */\n      0x00\n        /* \"#utility.yul\":2307:2310   */\n      dup3\n        /* \"#utility.yul\":2300:2304   */\n      0x1f\n        /* \"#utility.yul\":2292:2298   */\n      dup4\n        /* \"#utility.yul\":2288:2305   */\n      add\n        /* \"#utility.yul\":2284:2311   */\n      slt\n        /* \"#utility.yul\":2274:2396   */\n      tag_145\n      jumpi\n        /* \"#utility.yul\":2315:2394   */\n      tag_146\n      tag_79\n      jump\t// in\n    tag_146:\n        /* \"#utility.yul\":2274:2396   */\n    tag_145:\n        /* \"#utility.yul\":2432:2438   */\n      dup2\n        /* \"#utility.yul\":2419:2439   */\n      calldataload\n        /* \"#utility.yul\":2457:2536   */\n      tag_147\n        /* \"#utility.yul\":2532:2535   */\n      dup5\n        /* \"#utility.yul\":2524:2530   */\n      dup3\n        /* \"#utility.yul\":2517:2521   */\n      0x20\n        /* \"#utility.yul\":2509:2515   */\n      dup7\n        /* \"#utility.yul\":2505:2522   */\n      add\n        /* \"#utility.yul\":2457:2536   */\n      tag_87\n      jump\t// in\n    tag_147:\n        /* \"#utility.yul\":2448:2536   */\n      swap2\n      pop\n        /* \"#utility.yul\":2264:2542   */\n      pop\n        /* \"#utility.yul\":2202:2542   */\n      swap3\n      swap2\n      pop\n      pop\n      jump\t// out\n        /* \"#utility.yul\":2548:3057   */\n    tag_14:\n        /* \"#utility.yul\":2617:2623   */\n      0x00\n        /* \"#utility.yul\":2666:2668   */\n      0x20\n        /* \"#utility.yul\":2654:2663   */\n      dup3\n        /* \"#utility.yul\":2645:2652   */\n      dup5\n        /* \"#utility.yul\":2641:2664   */\n      sub\n        /* \"#utility.yul\":2637:2669   */\n      slt\n        /* \"#utility.yul\":2634:2753   */\n      iszero\n      tag_149\n      jumpi\n        /* \"#utility.yul\":2672:2751   */\n      tag_150\n      tag_77\n      jump\t// in\n    tag_150:\n        /* \"#utility.yul\":2634:2753   */\n    tag_149:\n        /* \"#utility.yul\":2820:2821   */\n      0x00\n        /* \"#utility.yul\":2809:2818   */\n      dup3\n        /* \"#utility.yul\":2805:2822   */\n      add\n        /* \"#utility.yul\":2792:2823   */\n      calldataload\n        /* \"#utility.yul\":2850:2868   */\n      0xffffffffffffffff\n        /* \"#utility.yul\":2842:2848   */\n      dup2\n        /* \"#utility.yul\":2839:2869   */\n      gt\n        /* \"#utility.yul\":2836:2953   */\n      iszero\n      tag_151\n      jumpi\n        /* \"#utility.yul\":2872:2951   */\n      tag_152\n      tag_78\n      jump\t// in\n    tag_152:\n        /* \"#utility.yul\":2836:2953   */\n    tag_151:\n        /* \"#utility.yul\":2977:3040   */\n      tag_153\n        /* \"#utility.yul\":3032:3039   */\n      dup5\n        /* \"#utility.yul\":3023:3029   */\n      dup3\n        /* \"#utility.yul\":3012:3021   */\n      dup6\n        /* \"#utility.yul\":3008:3030   */\n      add\n        /* \"#utility.yul\":2977:3040   */\n      tag_88\n      jump\t// in\n    tag_153:\n        /* \"#utility.yul\":2967:3040   */\n      swap2\n      pop\n        /* \"#utility.yul\":2763:3050   */\n      pop\n        /* \"#utility.yul\":2548:3057   */\n      swap3\n      swap2\n      pop\n      pop\n      jump\t// out\n        /* \"#utility.yul\":3063:3176   */\n    tag_89:\n        /* \"#utility.yul\":3129:3135   */\n      0x00\n        /* \"#utility.yul\":3163:3168   */\n      dup2\n        /* \"#utility.yul\":3157:3169   */\n      mload\n        /* \"#utility.yul\":3147:3169   */\n      swap1\n      pop\n        /* \"#utility.yul\":3063:3176   */\n      swap2\n      swap1\n      pop\n      jump\t// out\n        /* \"#utility.yul\":3182:3365   */\n    tag_90:\n        /* \"#utility.yul\":3280:3291   */\n      0x00\n        /* \"#utility.yul\":3314:3320   */\n      dup3\n        /* \"#utility.yul\":3309:3312   */\n      dup3\n        /* \"#utility.yul\":3302:3321   */\n      mstore\n        /* \"#utility.yul\":3354:3358   */\n      0x20\n        /* \"#utility.yul\":3349:3352   */\n      dup3\n        /* \"#utility.yul\":3345:3359   */\n      add\n        /* \"#utility.yul\":3330:3359   */\n      swap1\n      pop\n        /* \"#utility.yul\":3182:3365   */\n      swap3\n      swap2\n      pop\n      pop\n      jump\t// out\n        /* \"#utility.yul\":3371:3502   */\n    tag_91:\n        /* \"#utility.yul\":3437:3441   */\n      0x00\n        /* \"#utility.yul\":3460:3463   */\n      dup2\n        /* \"#utility.yul\":3452:3463   */\n      swap1\n      pop\n        /* \"#utility.yul\":3490:3494   */\n      0x20\n        /* \"#utility.yul\":3485:3488   */\n      dup3\n        /* \"#utility.yul\":3481:3495   */\n      add\n        /* \"#utility.yul\":3473:3495   */\n      swap1\n      pop\n        /* \"#utility.yul\":3371:3502   */\n      swap2\n      swap1\n      pop\n      jump\t// out\n        /* \"#utility.yul\":3508:3609   */\n    tag_92:\n        /* \"#utility.yul\":3544:3551   */\n      0x00\n        /* \"#utility.yul\":3584:3602   */\n      0xffffffffffffffff\n        /* \"#utility.yul\":3577:3582   */\n      dup3\n        /* \"#utility.yul\":3573:3603   */\n      and\n        /* \"#utility.yul\":3562:3603   */\n      swap1\n      pop\n        /* \"#utility.yul\":3508:3609   */\n      swap2\n      swap1\n      pop\n      jump\t// out\n        /* \"#utility.yul\":3615:3720   */\n    tag_93:\n        /* \"#utility.yul\":3690:3713   */\n      tag_159\n        /* \"#utility.yul\":3707:3712   */\n      dup2\n        /* \"#utility.yul\":3690:3713   */\n      tag_92\n      jump\t// in\n    tag_159:\n        /* \"#utility.yul\":3685:3688   */\n      dup3\n        /* \"#utility.yul\":3678:3714   */\n      mstore\n        /* \"#utility.yul\":3615:3720   */\n      pop\n      pop\n      jump\t// out\n        /* \"#utility.yul\":3726:3901   */\n    tag_94:\n        /* \"#utility.yul\":3793:3803   */\n      0x00\n        /* \"#utility.yul\":3814:3858   */\n      tag_161\n        /* \"#utility.yul\":3854:3857   */\n      dup4\n        /* \"#utility.yul\":3846:3852   */\n      dup4\n        /* \"#utility.yul\":3814:3858   */\n      tag_93\n      jump\t// in\n    tag_161:\n        /* \"#utility.yul\":3890:3894   */\n      0x20\n        /* \"#utility.yul\":3885:3888   */\n      dup4\n        /* \"#utility.yul\":3881:3895   */\n      add\n        /* \"#utility.yul\":3867:3895   */\n      swap1\n      pop\n        /* \"#utility.yul\":3726:3901   */\n      swap3\n      swap2\n      pop\n      pop\n      jump\t// out\n        /* \"#utility.yul\":3907:4019   */\n    tag_95:\n        /* \"#utility.yul\":3976:3980   */\n      0x00\n        /* \"#utility.yul\":4008:4012   */\n      0x20\n        /* \"#utility.yul\":4003:4006   */\n      dup3\n        /* \"#utility.yul\":3999:4013   */\n      add\n        /* \"#utility.yul\":3991:4013   */\n      swap1\n      pop\n        /* \"#utility.yul\":3907:4019   */\n      swap2\n      swap1\n      pop\n      jump\t// out\n        /* \"#utility.yul\":4053:4777   */\n    tag_96:\n        /* \"#utility.yul\":4170:4173   */\n      0x00\n        /* \"#utility.yul\":4199:4252   */\n      tag_164\n        /* \"#utility.yul\":4246:4251   */\n      dup3\n        /* \"#utility.yul\":4199:4252   */\n      tag_89\n      jump\t// in\n    tag_164:\n        /* \"#utility.yul\":4268:4353   */\n      tag_165\n        /* \"#utility.yul\":4346:4352   */\n      dup2\n        /* \"#utility.yul\":4341:4344   */\n      dup6\n        /* \"#utility.yul\":4268:4353   */\n      tag_90\n      jump\t// in\n    tag_165:\n        /* \"#utility.yul\":4261:4353   */\n      swap4\n      pop\n        /* \"#utility.yul\":4377:4432   */\n      tag_166\n        /* \"#utility.yul\":4426:4431   */\n      dup4\n        /* \"#utility.yul\":4377:4432   */\n      tag_91\n      jump\t// in\n    tag_166:\n        /* \"#utility.yul\":4455:4462   */\n      dup1\n        /* \"#utility.yul\":4486:4487   */\n      0x00\n        /* \"#utility.yul\":4471:4752   */\n    tag_167:\n        /* \"#utility.yul\":4496:4502   */\n      dup4\n        /* \"#utility.yul\":4493:4494   */\n      dup2\n        /* \"#utility.yul\":4490:4503   */\n      lt\n        /* \"#utility.yul\":4471:4752   */\n      iszero\n      tag_169\n      jumpi\n        /* \"#utility.yul\":4572:4578   */\n      dup2\n        /* \"#utility.yul\":4566:4579   */\n      mload\n        /* \"#utility.yul\":4599:4660   */\n      tag_170\n        /* \"#utility.yul\":4656:4659   */\n      dup9\n        /* \"#utility.yul\":4641:4654   */\n      dup3\n        /* \"#utility.yul\":4599:4660   */\n      tag_94\n      jump\t// in\n    tag_170:\n        /* \"#utility.yul\":4592:4660   */\n      swap8\n      pop\n        /* \"#utility.yul\":4683:4742   */\n      tag_171\n        /* \"#utility.yul\":4735:4741   */\n      dup4\n        /* \"#utility.yul\":4683:4742   */\n      tag_95\n      jump\t// in\n    tag_171:\n        /* \"#utility.yul\":4673:4742   */\n      swap3\n      pop\n        /* \"#utility.yul\":4531:4752   */\n      pop\n        /* \"#utility.yul\":4518:4519   */\n      0x01\n        /* \"#utility.yul\":4515:4516   */\n      dup2\n        /* \"#utility.yul\":4511:4520   */\n      add\n        /* \"#utility.yul\":4506:4520   */\n      swap1\n      pop\n        /* \"#utility.yul\":4471:4752   */\n      jump(tag_167)\n    tag_169:\n        /* \"#utility.yul\":4475:4489   */\n      pop\n        /* \"#utility.yul\":4768:4771   */\n      dup6\n        /* \"#utility.yul\":4761:4771   */\n      swap4\n      pop\n        /* \"#utility.yul\":4175:4777   */\n      pop\n      pop\n      pop\n        /* \"#utility.yul\":4053:4777   */\n      swap3\n      swap2\n      pop\n      pop\n      jump\t// out\n        /* \"#utility.yul\":4783:5152   */\n    tag_17:\n        /* \"#utility.yul\":4924:4928   */\n      0x00\n        /* \"#utility.yul\":4962:4964   */\n      0x20\n        /* \"#utility.yul\":4951:4960   */\n      dup3\n        /* \"#utility.yul\":4947:4965   */\n      add\n        /* \"#utility.yul\":4939:4965   */\n      swap1\n      pop\n        /* \"#utility.yul\":5011:5020   */\n      dup2\n        /* \"#utility.yul\":5005:5009   */\n      dup2\n        /* \"#utility.yul\":5001:5021   */\n      sub\n        /* \"#utility.yul\":4997:4998   */\n      0x00\n        /* \"#utility.yul\":4986:4995   */\n      dup4\n        /* \"#utility.yul\":4982:4999   */\n      add\n        /* \"#utility.yul\":4975:5022   */\n      mstore\n        /* \"#utility.yul\":5039:5145   */\n      tag_173\n        /* \"#utility.yul\":5140:5144   */\n      dup2\n        /* \"#utility.yul\":5131:5137   */\n      dup5\n        /* \"#utility.yul\":5039:5145   */\n      tag_96\n      jump\t// in\n    tag_173:\n        /* \"#utility.yul\":5031:5145   */\n      swap1\n      pop\n        /* \"#utility.yul\":4783:5152   */\n      swap3\n      swap2\n      pop\n      pop\n      jump\t// out\n        /* \"#utility.yul\":5158:5235   */\n    tag_97:\n        /* \"#utility.yul\":5195:5202   */\n      0x00\n        /* \"#utility.yul\":5224:5229   */\n      dup2\n        /* \"#utility.yul\":5213:5229   */\n      swap1\n      pop\n        /* \"#utility.yul\":5158:5235   */\n      swap2\n      swap1\n      pop\n      jump\t// out\n        /* \"#utility.yul\":5241:5363   */\n    tag_98:\n        /* \"#utility.yul\":5314:5338   */\n      tag_176\n        /* \"#utility.yul\":5332:5337   */\n      dup2\n        /* \"#utility.yul\":5314:5338   */\n      tag_97\n      jump\t// in\n    tag_176:\n        /* \"#utility.yul\":5307:5312   */\n      dup2\n        /* \"#utility.yul\":5304:5339   */\n      eq\n        /* \"#utility.yul\":5294:5357   */\n      tag_177\n      jumpi\n        /* \"#utility.yul\":5353:5354   */\n      0x00\n        /* \"#utility.yul\":5350:5351   */\n      dup1\n        /* \"#utility.yul\":5343:5355   */\n      revert\n        /* \"#utility.yul\":5294:5357   */\n    tag_177:\n        /* \"#utility.yul\":5241:5363   */\n      pop\n      jump\t// out\n        /* \"#utility.yul\":5369:5508   */\n    tag_99:\n        /* \"#utility.yul\":5415:5420   */\n      0x00\n        /* \"#utility.yul\":5453:5459   */\n      dup2\n        /* \"#utility.yul\":5440:5460   */\n      calldataload\n        /* \"#utility.yul\":5431:5460   */\n      swap1\n      pop\n        /* \"#utility.yul\":5469:5502   */\n      tag_179\n        /* \"#utility.yul\":5496:5501   */\n      dup2\n        /* \"#utility.yul\":5469:5502   */\n      tag_98\n      jump\t// in\n    tag_179:\n        /* \"#utility.yul\":5369:5508   */\n      swap3\n      swap2\n      pop\n      pop\n      jump\t// out\n        /* \"#utility.yul\":5514:6493   */\n    tag_20:\n        /* \"#utility.yul\":5611:5617   */\n      0x00\n        /* \"#utility.yul\":5619:5625   */\n      dup1\n        /* \"#utility.yul\":5627:5633   */\n      0x00\n        /* \"#utility.yul\":5676:5678   */\n      0x60\n        /* \"#utility.yul\":5664:5673   */\n      dup5\n        /* \"#utility.yul\":5655:5662   */\n      dup7\n        /* \"#utility.yul\":5651:5674   */\n      sub\n        /* \"#utility.yul\":5647:5679   */\n      slt\n        /* \"#utility.yul\":5644:5763   */\n      iszero\n      tag_181\n      jumpi\n        /* \"#utility.yul\":5682:5761   */\n      tag_182\n      tag_77\n      jump\t// in\n    tag_182:\n        /* \"#utility.yul\":5644:5763   */\n    tag_181:\n        /* \"#utility.yul\":5830:5831   */\n      0x00\n        /* \"#utility.yul\":5819:5828   */\n      dup5\n        /* \"#utility.yul\":5815:5832   */\n      add\n        /* \"#utility.yul\":5802:5833   */\n      calldataload\n        /* \"#utility.yul\":5860:5878   */\n      0xffffffffffffffff\n        /* \"#utility.yul\":5852:5858   */\n      dup2\n        /* \"#utility.yul\":5849:5879   */\n      gt\n        /* \"#utility.yul\":5846:5963   */\n      iszero\n      tag_183\n      jumpi\n        /* \"#utility.yul\":5882:5961   */\n      tag_184\n      tag_78\n      jump\t// in\n    tag_184:\n        /* \"#utility.yul\":5846:5963   */\n    tag_183:\n        /* \"#utility.yul\":5987:6050   */\n      tag_185\n        /* \"#utility.yul\":6042:6049   */\n      dup7\n        /* \"#utility.yul\":6033:6039   */\n      dup3\n        /* \"#utility.yul\":6022:6031   */\n      dup8\n        /* \"#utility.yul\":6018:6040   */\n      add\n        /* \"#utility.yul\":5987:6050   */\n      tag_88\n      jump\t// in\n    tag_185:\n        /* \"#utility.yul\":5977:6050   */\n      swap4\n      pop\n        /* \"#utility.yul\":5773:6060   */\n      pop\n        /* \"#utility.yul\":6127:6129   */\n      0x20\n        /* \"#utility.yul\":6116:6125   */\n      dup5\n        /* \"#utility.yul\":6112:6130   */\n      add\n        /* \"#utility.yul\":6099:6131   */\n      calldataload\n        /* \"#utility.yul\":6158:6176   */\n      0xffffffffffffffff\n        /* \"#utility.yul\":6150:6156   */\n      dup2\n        /* \"#utility.yul\":6147:6177   */\n      gt\n        /* \"#utility.yul\":6144:6261   */\n      iszero\n      tag_186\n      jumpi\n        /* \"#utility.yul\":6180:6259   */\n      tag_187\n      tag_78\n      jump\t// in\n    tag_187:\n        /* \"#utility.yul\":6144:6261   */\n    tag_186:\n        /* \"#utility.yul\":6285:6348   */\n      tag_188\n        /* \"#utility.yul\":6340:6347   */\n      dup7\n        /* \"#utility.yul\":6331:6337   */\n      dup3\n        /* \"#utility.yul\":6320:6329   */\n      dup8\n        /* \"#utility.yul\":6316:6338   */\n      add\n        /* \"#utility.yul\":6285:6348   */\n      tag_88\n      jump\t// in\n    tag_188:\n        /* \"#utility.yul\":6275:6348   */\n      swap3\n      pop\n        /* \"#utility.yul\":6070:6358   */\n      pop\n        /* \"#utility.yul\":6397:6399   */\n      0x40\n        /* \"#utility.yul\":6423:6476   */\n      tag_189\n        /* \"#utility.yul\":6468:6475   */\n      dup7\n        /* \"#utility.yul\":6459:6465   */\n      dup3\n        /* \"#utility.yul\":6448:6457   */\n      dup8\n        /* \"#utility.yul\":6444:6466   */\n      add\n        /* \"#utility.yul\":6423:6476   */\n      tag_99\n      jump\t// in\n    tag_189:\n        /* \"#utility.yul\":6413:6476   */\n      swap2\n      pop\n        /* \"#utility.yul\":6368:6486   */\n      pop\n        /* \"#utility.yul\":5514:6493   */\n      swap3\n      pop\n      swap3\n      pop\n      swap3\n      jump\t// out\n        /* \"#utility.yul\":6499:6625   */\n    tag_100:\n        /* \"#utility.yul\":6536:6543   */\n      0x00\n        /* \"#utility.yul\":6576:6618   */\n      0xffffffffffffffffffffffffffffffffffffffff\n        /* \"#utility.yul\":6569:6574   */\n      dup3\n        /* \"#utility.yul\":6565:6619   */\n      and\n        /* \"#utility.yul\":6554:6619   */\n      swap1\n      pop\n        /* \"#utility.yul\":6499:6625   */\n      swap2\n      swap1\n      pop\n      jump\t// out\n        /* \"#utility.yul\":6631:6727   */\n    tag_101:\n        /* \"#utility.yul\":6668:6675   */\n      0x00\n        /* \"#utility.yul\":6697:6721   */\n      tag_192\n        /* \"#utility.yul\":6715:6720   */\n      dup3\n        /* \"#utility.yul\":6697:6721   */\n      tag_100\n      jump\t// in\n    tag_192:\n        /* \"#utility.yul\":6686:6721   */\n      swap1\n      pop\n        /* \"#utility.yul\":6631:6727   */\n      swap2\n      swap1\n      pop\n      jump\t// out\n        /* \"#utility.yul\":6733:6851   */\n    tag_102:\n        /* \"#utility.yul\":6820:6844   */\n      tag_194\n        /* \"#utility.yul\":6838:6843   */\n      dup2\n        /* \"#utility.yul\":6820:6844   */\n      tag_101\n      jump\t// in\n    tag_194:\n        /* \"#utility.yul\":6815:6818   */\n      dup3\n        /* \"#utility.yul\":6808:6845   */\n      mstore\n        /* \"#utility.yul\":6733:6851   */\n      pop\n      pop\n      jump\t// out\n        /* \"#utility.yul\":6857:7079   */\n    tag_23:\n        /* \"#utility.yul\":6950:6954   */\n      0x00\n        /* \"#utility.yul\":6988:6990   */\n      0x20\n        /* \"#utility.yul\":6977:6986   */\n      dup3\n        /* \"#utility.yul\":6973:6991   */\n      add\n        /* \"#utility.yul\":6965:6991   */\n      swap1\n      pop\n        /* \"#utility.yul\":7001:7072   */\n      tag_196\n        /* \"#utility.yul\":7069:7070   */\n      0x00\n        /* \"#utility.yul\":7058:7067   */\n      dup4\n        /* \"#utility.yul\":7054:7071   */\n      add\n        /* \"#utility.yul\":7045:7051   */\n      dup5\n        /* \"#utility.yul\":7001:7072   */\n      tag_102\n      jump\t// in\n    tag_196:\n        /* \"#utility.yul\":6857:7079   */\n      swap3\n      swap2\n      pop\n      pop\n      jump\t// out\n        /* \"#utility.yul\":7085:7919   */\n    tag_26:\n        /* \"#utility.yul\":7173:7179   */\n      0x00\n        /* \"#utility.yul\":7181:7187   */\n      dup1\n        /* \"#utility.yul\":7230:7232   */\n      0x40\n        /* \"#utility.yul\":7218:7227   */\n      dup4\n        /* \"#utility.yul\":7209:7216   */\n      dup6\n        /* \"#utility.yul\":7205:7228   */\n      sub\n        /* \"#utility.yul\":7201:7233   */\n      slt\n        /* \"#utility.yul\":7198:7317   */\n      iszero\n      tag_198\n      jumpi\n        /* \"#utility.yul\":7236:7315   */\n      tag_199\n      tag_77\n      jump\t// in\n    tag_199:\n        /* \"#utility.yul\":7198:7317   */\n    tag_198:\n        /* \"#utility.yul\":7384:7385   */\n      0x00\n        /* \"#utility.yul\":7373:7382   */\n      dup4\n        /* \"#utility.yul\":7369:7386   */\n      add\n        /* \"#utility.yul\":7356:7387   */\n      calldataload\n        /* \"#utility.yul\":7414:7432   */\n      0xffffffffffffffff\n        /* \"#utility.yul\":7406:7412   */\n      dup2\n        /* \"#utility.yul\":7403:7433   */\n      gt\n        /* \"#utility.yul\":7400:7517   */\n      iszero\n      tag_200\n      jumpi\n        /* \"#utility.yul\":7436:7515   */\n      tag_201\n      tag_78\n      jump\t// in\n    tag_201:\n        /* \"#utility.yul\":7400:7517   */\n    tag_200:\n        /* \"#utility.yul\":7541:7604   */\n      tag_202\n        /* \"#utility.yul\":7596:7603   */\n      dup6\n        /* \"#utility.yul\":7587:7593   */\n      dup3\n        /* \"#utility.yul\":7576:7585   */\n      dup7\n        /* \"#utility.yul\":7572:7594   */\n      add\n        /* \"#utility.yul\":7541:7604   */\n      tag_88\n      jump\t// in\n    tag_202:\n        /* \"#utility.yul\":7531:7604   */\n      swap3\n      pop\n        /* \"#utility.yul\":7327:7614   */\n      pop\n        /* \"#utility.yul\":7681:7683   */\n      0x20\n        /* \"#utility.yul\":7670:7679   */\n      dup4\n        /* \"#utility.yul\":7666:7684   */\n      add\n        /* \"#utility.yul\":7653:7685   */\n      calldataload\n        /* \"#utility.yul\":7712:7730   */\n      0xffffffffffffffff\n        /* \"#utility.yul\":7704:7710   */\n      dup2\n        /* \"#utility.yul\":7701:7731   */\n      gt\n        /* \"#utility.yul\":7698:7815   */\n      iszero\n      tag_203\n      jumpi\n        /* \"#utility.yul\":7734:7813   */\n      tag_204\n      tag_78\n      jump\t// in\n    tag_204:\n        /* \"#utility.yul\":7698:7815   */\n    tag_203:\n        /* \"#utility.yul\":7839:7902   */\n      tag_205\n        /* \"#utility.yul\":7894:7901   */\n      dup6\n        /* \"#utility.yul\":7885:7891   */\n      dup3\n        /* \"#utility.yul\":7874:7883   */\n      dup7\n        /* \"#utility.yul\":7870:7892   */\n      add\n        /* \"#utility.yul\":7839:7902   */\n      tag_88\n      jump\t// in\n    tag_205:\n        /* \"#utility.yul\":7829:7902   */\n      swap2\n      pop\n        /* \"#utility.yul\":7624:7912   */\n      pop\n        /* \"#utility.yul\":7085:7919   */\n      swap3\n      pop\n      swap3\n      swap1\n      pop\n      jump\t// out\n        /* \"#utility.yul\":7925:8039   */\n    tag_103:\n        /* \"#utility.yul\":7992:7998   */\n      0x00\n        /* \"#utility.yul\":8026:8031   */\n      dup2\n        /* \"#utility.yul\":8020:8032   */\n      mload\n        /* \"#utility.yul\":8010:8032   */\n      swap1\n      pop\n        /* \"#utility.yul\":7925:8039   */\n      swap2\n      swap1\n      pop\n      jump\t// out\n        /* \"#utility.yul\":8045:8229   */\n    tag_104:\n        /* \"#utility.yul\":8144:8155   */\n      0x00\n        /* \"#utility.yul\":8178:8184   */\n      dup3\n        /* \"#utility.yul\":8173:8176   */\n      dup3\n        /* \"#utility.yul\":8166:8185   */\n      mstore\n        /* \"#utility.yul\":8218:8222   */\n      0x20\n        /* \"#utility.yul\":8213:8216   */\n      dup3\n        /* \"#utility.yul\":8209:8223   */\n      add\n        /* \"#utility.yul\":8194:8223   */\n      swap1\n      pop\n        /* \"#utility.yul\":8045:8229   */\n      swap3\n      swap2\n      pop\n      pop\n      jump\t// out\n        /* \"#utility.yul\":8235:8367   */\n    tag_105:\n        /* \"#utility.yul\":8302:8306   */\n      0x00\n        /* \"#utility.yul\":8325:8328   */\n      dup2\n        /* \"#utility.yul\":8317:8328   */\n      swap1\n      pop\n        /* \"#utility.yul\":8355:8359   */\n      0x20\n        /* \"#utility.yul\":8350:8353   */\n      dup3\n        /* \"#utility.yul\":8346:8360   */\n      add\n        /* \"#utility.yul\":8338:8360   */\n      swap1\n      pop\n        /* \"#utility.yul\":8235:8367   */\n      swap2\n      swap1\n      pop\n      jump\t// out\n        /* \"#utility.yul\":8373:8481   */\n    tag_106:\n        /* \"#utility.yul\":8450:8474   */\n      tag_210\n        /* \"#utility.yul\":8468:8473   */\n      dup2\n        /* \"#utility.yul\":8450:8474   */\n      tag_101\n      jump\t// in\n    tag_210:\n        /* \"#utility.yul\":8445:8448   */\n      dup3\n        /* \"#utility.yul\":8438:8475   */\n      mstore\n        /* \"#utility.yul\":8373:8481   */\n      pop\n      pop\n      jump\t// out\n        /* \"#utility.yul\":8487:8666   */\n    tag_107:\n        /* \"#utility.yul\":8556:8566   */\n      0x00\n        /* \"#utility.yul\":8577:8623   */\n      tag_212\n        /* \"#utility.yul\":8619:8622   */\n      dup4\n        /* \"#utility.yul\":8611:8617   */\n      dup4\n        /* \"#utility.yul\":8577:8623   */\n      tag_106\n      jump\t// in\n    tag_212:\n        /* \"#utility.yul\":8655:8659   */\n      0x20\n        /* \"#utility.yul\":8650:8653   */\n      dup4\n        /* \"#utility.yul\":8646:8660   */\n      add\n        /* \"#utility.yul\":8632:8660   */\n      swap1\n      pop\n        /* \"#utility.yul\":8487:8666   */\n      swap3\n      swap2\n      pop\n      pop\n      jump\t// out\n        /* \"#utility.yul\":8672:8785   */\n    tag_108:\n        /* \"#utility.yul\":8742:8746   */\n      0x00\n        /* \"#utility.yul\":8774:8778   */\n      0x20\n        /* \"#utility.yul\":8769:8772   */\n      dup3\n        /* \"#utility.yul\":8765:8779   */\n      add\n        /* \"#utility.yul\":8757:8779   */\n      swap1\n      pop\n        /* \"#utility.yul\":8672:8785   */\n      swap2\n      swap1\n      pop\n      jump\t// out\n        /* \"#utility.yul\":8821:9553   */\n    tag_109:\n        /* \"#utility.yul\":8940:8943   */\n      0x00\n        /* \"#utility.yul\":8969:9023   */\n      tag_215\n        /* \"#utility.yul\":9017:9022   */\n      dup3\n        /* \"#utility.yul\":8969:9023   */\n      tag_103\n      jump\t// in\n    tag_215:\n        /* \"#utility.yul\":9039:9125   */\n      tag_216\n        /* \"#utility.yul\":9118:9124   */\n      dup2\n        /* \"#utility.yul\":9113:9116   */\n      dup6\n        /* \"#utility.yul\":9039:9125   */\n      tag_104\n      jump\t// in\n    tag_216:\n        /* \"#utility.yul\":9032:9125   */\n      swap4\n      pop\n        /* \"#utility.yul\":9149:9205   */\n      tag_217\n        /* \"#utility.yul\":9199:9204   */\n      dup4\n        /* \"#utility.yul\":9149:9205   */\n      tag_105\n      jump\t// in\n    tag_217:\n        /* \"#utility.yul\":9228:9235   */\n      dup1\n        /* \"#utility.yul\":9259:9260   */\n      0x00\n        /* \"#utility.yul\":9244:9528   */\n    tag_218:\n        /* \"#utility.yul\":9269:9275   */\n      dup4\n        /* \"#utility.yul\":9266:9267   */\n      dup2\n        /* \"#utility.yul\":9263:9276   */\n      lt\n        /* \"#utility.yul\":9244:9528   */\n      iszero\n      tag_220\n      jumpi\n        /* \"#utility.yul\":9345:9351   */\n      dup2\n        /* \"#utility.yul\":9339:9352   */\n      mload\n        /* \"#utility.yul\":9372:9435   */\n      tag_221\n        /* \"#utility.yul\":9431:9434   */\n      dup9\n        /* \"#utility.yul\":9416:9429   */\n      dup3\n        /* \"#utility.yul\":9372:9435   */\n      tag_107\n      jump\t// in\n    tag_221:\n        /* \"#utility.yul\":9365:9435   */\n      swap8\n      pop\n        /* \"#utility.yul\":9458:9518   */\n      tag_222\n        /* \"#utility.yul\":9511:9517   */\n      dup4\n        /* \"#utility.yul\":9458:9518   */\n      tag_108\n      jump\t// in\n    tag_222:\n        /* \"#utility.yul\":9448:9518   */\n      swap3\n      pop\n        /* \"#utility.yul\":9304:9528   */\n      pop\n        /* \"#utility.yul\":9291:9292   */\n      0x01\n        /* \"#utility.yul\":9288:9289   */\n      dup2\n        /* \"#utility.yul\":9284:9293   */\n      add\n        /* \"#utility.yul\":9279:9293   */\n      swap1\n      pop\n        /* \"#utility.yul\":9244:9528   */\n      jump(tag_218)\n    tag_220:\n        /* \"#utility.yul\":9248:9262   */\n      pop\n        /* \"#utility.yul\":9544:9547   */\n      dup6\n        /* \"#utility.yul\":9537:9547   */\n      swap4\n      pop\n        /* \"#utility.yul\":8945:9553   */\n      pop\n      pop\n      pop\n        /* \"#utility.yul\":8821:9553   */\n      swap3\n      swap2\n      pop\n      pop\n      jump\t// out\n        /* \"#utility.yul\":9559:9932   */\n    tag_29:\n        /* \"#utility.yul\":9702:9706   */\n      0x00\n        /* \"#utility.yul\":9740:9742   */\n      0x20\n        /* \"#utility.yul\":9729:9738   */\n      dup3\n        /* \"#utility.yul\":9725:9743   */\n      add\n        /* \"#utility.yul\":9717:9743   */\n      swap1\n      pop\n        /* \"#utility.yul\":9789:9798   */\n      dup2\n        /* \"#utility.yul\":9783:9787   */\n      dup2\n        /* \"#utility.yul\":9779:9799   */\n      sub\n        /* \"#utility.yul\":9775:9776   */\n      0x00\n        /* \"#utility.yul\":9764:9773   */\n      dup4\n        /* \"#utility.yul\":9760:9777   */\n      add\n        /* \"#utility.yul\":9753:9800   */\n      mstore\n        /* \"#utility.yul\":9817:9925   */\n      tag_224\n        /* \"#utility.yul\":9920:9924   */\n      dup2\n        /* \"#utility.yul\":9911:9917   */\n      dup5\n        /* \"#utility.yul\":9817:9925   */\n      tag_109\n      jump\t// in\n    tag_224:\n        /* \"#utility.yul\":9809:9925   */\n      swap1\n      pop\n        /* \"#utility.yul\":9559:9932   */\n      swap3\n      swap2\n      pop\n      pop\n      jump\t// out\n        /* \"#utility.yul\":9938:10058   */\n    tag_110:\n        /* \"#utility.yul\":10010:10033   */\n      tag_226\n        /* \"#utility.yul\":10027:10032   */\n      dup2\n        /* \"#utility.yul\":10010:10033   */\n      tag_92\n      jump\t// in\n    tag_226:\n        /* \"#utility.yul\":10003:10008   */\n      dup2\n        /* \"#utility.yul\":10000:10034   */\n      eq\n        /* \"#utility.yul\":9990:10052   */\n      tag_227\n      jumpi\n        /* \"#utility.yul\":10048:10049   */\n      0x00\n        /* \"#utility.yul\":10045:10046   */\n      dup1\n        /* \"#utility.yul\":10038:10050   */\n      revert\n        /* \"#utility.yul\":9990:10052   */\n    tag_227:\n        /* \"#utility.yul\":9938:10058   */\n      pop\n      jump\t// out\n        /* \"#utility.yul\":10064:10201   */\n    tag_111:\n        /* \"#utility.yul\":10109:10114   */\n      0x00\n        /* \"#utility.yul\":10147:10153   */\n      dup2\n        /* \"#utility.yul\":10134:10154   */\n      calldataload\n        /* \"#utility.yul\":10125:10154   */\n      swap1\n      pop\n        /* \"#utility.yul\":10163:10195   */\n      tag_229\n        /* \"#utility.yul\":10189:10194   */\n      dup2\n        /* \"#utility.yul\":10163:10195   */\n      tag_110\n      jump\t// in\n    tag_229:\n        /* \"#utility.yul\":10064:10201   */\n      swap3\n      swap2\n      pop\n      pop\n      jump\t// out\n        /* \"#utility.yul\":10207:10859   */\n    tag_32:\n        /* \"#utility.yul\":10284:10290   */\n      0x00\n        /* \"#utility.yul\":10292:10298   */\n      dup1\n        /* \"#utility.yul\":10341:10343   */\n      0x40\n        /* \"#utility.yul\":10329:10338   */\n      dup4\n        /* \"#utility.yul\":10320:10327   */\n      dup6\n        /* \"#utility.yul\":10316:10339   */\n      sub\n        /* \"#utility.yul\":10312:10344   */\n      slt\n        /* \"#utility.yul\":10309:10428   */\n      iszero\n      tag_231\n      jumpi\n        /* \"#utility.yul\":10347:10426   */\n      tag_232\n      tag_77\n      jump\t// in\n    tag_232:\n        /* \"#utility.yul\":10309:10428   */\n    tag_231:\n        /* \"#utility.yul\":10495:10496   */\n      0x00\n        /* \"#utility.yul\":10484:10493   */\n      dup4\n        /* \"#utility.yul\":10480:10497   */\n      add\n        /* \"#utility.yul\":10467:10498   */\n      calldataload\n        /* \"#utility.yul\":10525:10543   */\n      0xffffffffffffffff\n        /* \"#utility.yul\":10517:10523   */\n      dup2\n        /* \"#utility.yul\":10514:10544   */\n      gt\n        /* \"#utility.yul\":10511:10628   */\n      iszero\n      tag_233\n      jumpi\n        /* \"#utility.yul\":10547:10626   */\n      tag_234\n      tag_78\n      jump\t// in\n    tag_234:\n        /* \"#utility.yul\":10511:10628   */\n    tag_233:\n        /* \"#utility.yul\":10652:10715   */\n      tag_235\n        /* \"#utility.yul\":10707:10714   */\n      dup6\n        /* \"#utility.yul\":10698:10704   */\n      dup3\n        /* \"#utility.yul\":10687:10696   */\n      dup7\n        /* \"#utility.yul\":10683:10705   */\n      add\n        /* \"#utility.yul\":10652:10715   */\n      tag_88\n      jump\t// in\n    tag_235:\n        /* \"#utility.yul\":10642:10715   */\n      swap3\n      pop\n        /* \"#utility.yul\":10438:10725   */\n      pop\n        /* \"#utility.yul\":10764:10766   */\n      0x20\n        /* \"#utility.yul\":10790:10842   */\n      tag_236\n        /* \"#utility.yul\":10834:10841   */\n      dup6\n        /* \"#utility.yul\":10825:10831   */\n      dup3\n        /* \"#utility.yul\":10814:10823   */\n      dup7\n        /* \"#utility.yul\":10810:10832   */\n      add\n        /* \"#utility.yul\":10790:10842   */\n      tag_111\n      jump\t// in\n    tag_236:\n        /* \"#utility.yul\":10780:10842   */\n      swap2\n      pop\n        /* \"#utility.yul\":10735:10852   */\n      pop\n        /* \"#utility.yul\":10207:10859   */\n      swap3\n      pop\n      swap3\n      swap1\n      pop\n      jump\t// out\n        /* \"#utility.yul\":10865:10987   */\n    tag_112:\n        /* \"#utility.yul\":10938:10962   */\n      tag_238\n        /* \"#utility.yul\":10956:10961   */\n      dup2\n        /* \"#utility.yul\":10938:10962   */\n      tag_101\n      jump\t// in\n    tag_238:\n        /* \"#utility.yul\":10931:10936   */\n      dup2\n        /* \"#utility.yul\":10928:10963   */\n      eq\n        /* \"#utility.yul\":10918:10981   */\n      tag_239\n      jumpi\n        /* \"#utility.yul\":10977:10978   */\n      0x00\n        /* \"#utility.yul\":10974:10975   */\n      dup1\n        /* \"#utility.yul\":10967:10979   */\n      revert\n        /* \"#utility.yul\":10918:10981   */\n    tag_239:\n        /* \"#utility.yul\":10865:10987   */\n      pop\n      jump\t// out\n        /* \"#utility.yul\":10993:11132   */\n    tag_113:\n        /* \"#utility.yul\":11039:11044   */\n      0x00\n        /* \"#utility.yul\":11077:11083   */\n      dup2\n        /* \"#utility.yul\":11064:11084   */\n      calldataload\n        /* \"#utility.yul\":11055:11084   */\n      swap1\n      pop\n        /* \"#utility.yul\":11093:11126   */\n      tag_241\n        /* \"#utility.yul\":11120:11125   */\n      dup2\n        /* \"#utility.yul\":11093:11126   */\n      tag_112\n      jump\t// in\n    tag_241:\n        /* \"#utility.yul\":10993:11132   */\n      swap3\n      swap2\n      pop\n      pop\n      jump\t// out\n        /* \"#utility.yul\":11138:12117   */\n    tag_39:\n        /* \"#utility.yul\":11235:11241   */\n      0x00\n        /* \"#utility.yul\":11243:11249   */\n      dup1\n        /* \"#utility.yul\":11251:11257   */\n      0x00\n        /* \"#utility.yul\":11300:11302   */\n      0x60\n        /* \"#utility.yul\":11288:11297   */\n      dup5\n        /* \"#utility.yul\":11279:11286   */\n      dup7\n        /* \"#utility.yul\":11275:11298   */\n      sub\n        /* \"#utility.yul\":11271:11303   */\n      slt\n        /* \"#utility.yul\":11268:11387   */\n      iszero\n      tag_243\n      jumpi\n        /* \"#utility.yul\":11306:11385   */\n      tag_244\n      tag_77\n      jump\t// in\n    tag_244:\n        /* \"#utility.yul\":11268:11387   */\n    tag_243:\n        /* \"#utility.yul\":11454:11455   */\n      0x00\n        /* \"#utility.yul\":11443:11452   */\n      dup5\n        /* \"#utility.yul\":11439:11456   */\n      add\n        /* \"#utility.yul\":11426:11457   */\n      calldataload\n        /* \"#utility.yul\":11484:11502   */\n      0xffffffffffffffff\n        /* \"#utility.yul\":11476:11482   */\n      dup2\n        /* \"#utility.yul\":11473:11503   */\n      gt\n        /* \"#utility.yul\":11470:11587   */\n      iszero\n      tag_245\n      jumpi\n        /* \"#utility.yul\":11506:11585   */\n      tag_246\n      tag_78\n      jump\t// in\n    tag_246:\n        /* \"#utility.yul\":11470:11587   */\n    tag_245:\n        /* \"#utility.yul\":11611:11674   */\n      tag_247\n        /* \"#utility.yul\":11666:11673   */\n      dup7\n        /* \"#utility.yul\":11657:11663   */\n      dup3\n        /* \"#utility.yul\":11646:11655   */\n      dup8\n        /* \"#utility.yul\":11642:11664   */\n      add\n        /* \"#utility.yul\":11611:11674   */\n      tag_88\n      jump\t// in\n    tag_247:\n        /* \"#utility.yul\":11601:11674   */\n      swap4\n      pop\n        /* \"#utility.yul\":11397:11684   */\n      pop\n        /* \"#utility.yul\":11751:11753   */\n      0x20\n        /* \"#utility.yul\":11740:11749   */\n      dup5\n        /* \"#utility.yul\":11736:11754   */\n      add\n        /* \"#utility.yul\":11723:11755   */\n      calldataload\n        /* \"#utility.yul\":11782:11800   */\n      0xffffffffffffffff\n        /* \"#utility.yul\":11774:11780   */\n      dup2\n        /* \"#utility.yul\":11771:11801   */\n      gt\n        /* \"#utility.yul\":11768:11885   */\n      iszero\n      tag_248\n      jumpi\n        /* \"#utility.yul\":11804:11883   */\n      tag_249\n      tag_78\n      jump\t// in\n    tag_249:\n        /* \"#utility.yul\":11768:11885   */\n    tag_248:\n        /* \"#utility.yul\":11909:11972   */\n      tag_250\n        /* \"#utility.yul\":11964:11971   */\n      dup7\n        /* \"#utility.yul\":11955:11961   */\n      dup3\n        /* \"#utility.yul\":11944:11953   */\n      dup8\n        /* \"#utility.yul\":11940:11962   */\n      add\n        /* \"#utility.yul\":11909:11972   */\n      tag_88\n      jump\t// in\n    tag_250:\n        /* \"#utility.yul\":11899:11972   */\n      swap3\n      pop\n        /* \"#utility.yul\":11694:11982   */\n      pop\n        /* \"#utility.yul\":12021:12023   */\n      0x40\n        /* \"#utility.yul\":12047:12100   */\n      tag_251\n        /* \"#utility.yul\":12092:12099   */\n      dup7\n        /* \"#utility.yul\":12083:12089   */\n      dup3\n        /* \"#utility.yul\":12072:12081   */\n      dup8\n        /* \"#utility.yul\":12068:12090   */\n      add\n        /* \"#utility.yul\":12047:12100   */\n      tag_113\n      jump\t// in\n    tag_251:\n        /* \"#utility.yul\":12037:12100   */\n      swap2\n      pop\n        /* \"#utility.yul\":11992:12110   */\n      pop\n        /* \"#utility.yul\":11138:12117   */\n      swap3\n      pop\n      swap3\n      pop\n      swap3\n      jump\t// out\n        /* \"#utility.yul\":12123:12222   */\n    tag_114:\n        /* \"#utility.yul\":12175:12181   */\n      0x00\n        /* \"#utility.yul\":12209:12214   */\n      dup2\n        /* \"#utility.yul\":12203:12215   */\n      mload\n        /* \"#utility.yul\":12193:12215   */\n      swap1\n      pop\n        /* \"#utility.yul\":12123:12222   */\n      swap2\n      swap1\n      pop\n      jump\t// out\n        /* \"#utility.yul\":12228:12376   */\n    tag_115:\n        /* \"#utility.yul\":12330:12341   */\n      0x00\n        /* \"#utility.yul\":12367:12370   */\n      dup2\n        /* \"#utility.yul\":12352:12370   */\n      swap1\n      pop\n        /* \"#utility.yul\":12228:12376   */\n      swap3\n      swap2\n      pop\n      pop\n      jump\t// out\n        /* \"#utility.yul\":12382:12689   */\n    tag_116:\n        /* \"#utility.yul\":12450:12451   */\n      0x00\n        /* \"#utility.yul\":12460:12573   */\n    tag_255:\n        /* \"#utility.yul\":12474:12480   */\n      dup4\n        /* \"#utility.yul\":12471:12472   */\n      dup2\n        /* \"#utility.yul\":12468:12481   */\n      lt\n        /* \"#utility.yul\":12460:12573   */\n      iszero\n      tag_257\n      jumpi\n        /* \"#utility.yul\":12559:12560   */\n      dup1\n        /* \"#utility.yul\":12554:12557   */\n      dup3\n        /* \"#utility.yul\":12550:12561   */\n      add\n        /* \"#utility.yul\":12544:12562   */\n      mload\n        /* \"#utility.yul\":12540:12541   */\n      dup2\n        /* \"#utility.yul\":12535:12538   */\n      dup5\n        /* \"#utility.yul\":12531:12542   */\n      add\n        /* \"#utility.yul\":12524:12563   */\n      mstore\n        /* \"#utility.yul\":12496:12498   */\n      0x20\n        /* \"#utility.yul\":12493:12494   */\n      dup2\n        /* \"#utility.yul\":12489:12499   */\n      add\n        /* \"#utility.yul\":12484:12499   */\n      swap1\n      pop\n        /* \"#utility.yul\":12460:12573   */\n      jump(tag_255)\n    tag_257:\n        /* \"#utility.yul\":12591:12597   */\n      dup4\n        /* \"#utility.yul\":12588:12589   */\n      dup2\n        /* \"#utility.yul\":12585:12598   */\n      gt\n        /* \"#utility.yul\":12582:12683   */\n      iszero\n      tag_258\n      jumpi\n        /* \"#utility.yul\":12671:12672   */\n      0x00\n        /* \"#utility.yul\":12662:12668   */\n      dup5\n        /* \"#utility.yul\":12657:12660   */\n      dup5\n        /* \"#utility.yul\":12653:12669   */\n      add\n        /* \"#utility.yul\":12646:12673   */\n      mstore\n        /* \"#utility.yul\":12582:12683   */\n    tag_258:\n        /* \"#utility.yul\":12431:12689   */\n      pop\n        /* \"#utility.yul\":12382:12689   */\n      pop\n      pop\n      pop\n      jump\t// out\n        /* \"#utility.yul\":12695:13072   */\n    tag_117:\n        /* \"#utility.yul\":12801:12804   */\n      0x00\n        /* \"#utility.yul\":12829:12868   */\n      tag_260\n        /* \"#utility.yul\":12862:12867   */\n      dup3\n        /* \"#utility.yul\":12829:12868   */\n      tag_114\n      jump\t// in\n    tag_260:\n        /* \"#utility.yul\":12884:12973   */\n      tag_261\n        /* \"#utility.yul\":12966:12972   */\n      dup2\n        /* \"#utility.yul\":12961:12964   */\n      dup6\n        /* \"#utility.yul\":12884:12973   */\n      tag_115\n      jump\t// in\n    tag_261:\n        /* \"#utility.yul\":12877:12973   */\n      swap4\n      pop\n        /* \"#utility.yul\":12982:13034   */\n      tag_262\n        /* \"#utility.yul\":13027:13033   */\n      dup2\n        /* \"#utility.yul\":13022:13025   */\n      dup6\n        /* \"#utility.yul\":13015:13019   */\n      0x20\n        /* \"#utility.yul\":13008:13013   */\n      dup7\n        /* \"#utility.yul\":13004:13020   */\n      add\n        /* \"#utility.yul\":12982:13034   */\n      tag_116\n      jump\t// in\n    tag_262:\n        /* \"#utility.yul\":13059:13065   */\n      dup1\n        /* \"#utility.yul\":13054:13057   */\n      dup5\n        /* \"#utility.yul\":13050:13066   */\n      add\n        /* \"#utility.yul\":13043:13066   */\n      swap2\n      pop\n        /* \"#utility.yul\":12805:13072   */\n      pop\n        /* \"#utility.yul\":12695:13072   */\n      swap3\n      swap2\n      pop\n      pop\n      jump\t// out\n        /* \"#utility.yul\":13078:13353   */\n    tag_50:\n        /* \"#utility.yul\":13210:13213   */\n      0x00\n        /* \"#utility.yul\":13232:13327   */\n      tag_264\n        /* \"#utility.yul\":13323:13326   */\n      dup3\n        /* \"#utility.yul\":13314:13320   */\n      dup5\n        /* \"#utility.yul\":13232:13327   */\n      tag_117\n      jump\t// in\n    tag_264:\n        /* \"#utility.yul\":13225:13327   */\n      swap2\n      pop\n        /* \"#utility.yul\":13344:13347   */\n      dup2\n        /* \"#utility.yul\":13337:13347   */\n      swap1\n      pop\n        /* \"#utility.yul\":13078:13353   */\n      swap3\n      swap2\n      pop\n      pop\n      jump\t// out\n\n    auxdata: 0xa26469706673582212203e16502c4cd77d215b61a2ab13c0170efa52f4a824d388053f8c56f61aaac56764736f6c634300080f0033\n}\n","bytecode":{"linkReferences":{},"object":"608060405234801561001057600080fd5b50336000806101000a81548173ffffffffffffffffffffffffffffffffffffffff021916908373ffffffffffffffffffffffffffffffffffffffff160217905550610dd5806100606000396000f3fe608060405234801561001057600080fd5b50600436106100885760003560e01c80638da5cb5b1161005b5780638da5cb5b14610139578063c962940414610157578063cdede4fe14610173578063e0ca43011461018f57610088565b80631961b32f1461008d5780631d3c7ff4146100bd578063715fe5f4146100ed57806387e125571461011d575b600080fd5b6100a760048036038101906100a2919061081d565b6101bf565b6040516100b49190610938565b60405180910390f35b6100d760048036038101906100d29190610990565b610269565b6040516100e49190610a5c565b60405180910390f35b61010760048036038101906101029190610a77565b6102f0565b6040516101149190610bad565b60405180910390f35b61013760048036038101906101329190610bfb565b6103b9565b005b610141610487565b60405161014e9190610a5c565b60405180910390f35b610171600480360381019061016c9190610c83565b6104ab565b005b61018d60048036038101906101889190610bfb565b61054b565b005b6101a960048036038101906101a4919061081d565b610619565b6040516101b69190610938565b60405180910390f35b60606001826040516101d19190610d88565b908152602001604051809103902080548060200260200160405190810160405280929190818152602001828054801561025d57602002820191906000526020600020906000905b82829054906101000a900467ffffffffffffffff1667ffffffffffffffff16815260200190600801906020826007010492830192600103820291508084116102185790505b50505050509050919050565b6003838051602081018201805184825260208301602085012081835280955050505050508280516020810182018051848252602083016020850120818352809550505050505081815481106102bd57600080fd5b90600052602060002001600092509250509054906101000a900473ffffffffffffffffffffffffffffffffffffffff1681565b60606003836040516103029190610d88565b90815260200160405180910390208260405161031e9190610d88565b90815260200160405180910390208054806020026020016040519081016040528092919081815260200182805480156103ac57602002820191906000526020600020905b8160009054906101000a900473ffffffffffffffffffffffffffffffffffffffff1673ffffffffffffffffffffffffffffffffffffffff1681526020019060010190808311610362575b5050505050905092915050565b60008054906101000a900473ffffffffffffffffffffffffffffffffffffffff1673ffffffffffffffffffffffffffffffffffffffff163373ffffffffffffffffffffffffffffffffffffffff161461041157600080fd5b6002826040516104219190610d88565b90815260200160405180910390208190806001815401808255809150506001900390600052602060002090600491828204019190066008029091909190916101000a81548167ffffffffffffffff021916908367ffffffffffffffff1602179055505050565b60008054906101000a900473ffffffffffffffffffffffffffffffffffffffff1681565b6003836040516104bb9190610d88565b9081526020016040518091039020826040516104d79190610d88565b9081526020016040518091039020819080600181540180825580915050600190039060005260206000200160009091909190916101000a81548173ffffffffffffffffffffffffffffffffffffffff021916908373ffffffffffffffffffffffffffffffffffffffff160217905550505050565b60008054906101000a900473ffffffffffffffffffffffffffffffffffffffff1673ffffffffffffffffffffffffffffffffffffffff163373ffffffffffffffffffffffffffffffffffffffff16146105a357600080fd5b6001826040516105b39190610d88565b90815260200160405180910390208190806001815401808255809150506001900390600052602060002090600491828204019190066008029091909190916101000a81548167ffffffffffffffff021916908367ffffffffffffffff1602179055505050565b606060028260405161062b9190610d88565b90815260200160405180910390208054806020026020016040519081016040528092919081815260200182805480156106b757602002820191906000526020600020906000905b82829054906101000a900467ffffffffffffffff1667ffffffffffffffff16815260200190600801906020826007010492830192600103820291508084116106725790505b50505050509050919050565b6000604051905090565b600080fd5b600080fd5b600080fd5b600080fd5b6000601f19601f8301169050919050565b7f4e487b7100000000000000000000000000000000000000000000000000000000600052604160045260246000fd5b61072a826106e1565b810181811067ffffffffffffffff82111715610749576107486106f2565b5b80604052505050565b600061075c6106c3565b90506107688282610721565b919050565b600067ffffffffffffffff821115610788576107876106f2565b5b610791826106e1565b9050602081019050919050565b82818337600083830152505050565b60006107c06107bb8461076d565b610752565b9050828152602081018484840111156107dc576107db6106dc565b5b6107e784828561079e565b509392505050565b600082601f830112610804576108036106d7565b5b81356108148482602086016107ad565b91505092915050565b600060208284031215610833576108326106cd565b5b600082013567ffffffffffffffff811115610851576108506106d2565b5b61085d848285016107ef565b91505092915050565b600081519050919050565b600082825260208201905092915050565b6000819050602082019050919050565b600067ffffffffffffffff82169050919050565b6108af81610892565b82525050565b60006108c183836108a6565b60208301905092915050565b6000602082019050919050565b60006108e582610866565b6108ef8185610871565b93506108fa83610882565b8060005b8381101561092b57815161091288826108b5565b975061091d836108cd565b9250506001810190506108fe565b5085935050505092915050565b6000602082019050818103600083015261095281846108da565b905092915050565b6000819050919050565b61096d8161095a565b811461097857600080fd5b50565b60008135905061098a81610964565b92915050565b6000806000606084860312156109a9576109a86106cd565b5b600084013567ffffffffffffffff8111156109c7576109c66106d2565b5b6109d3868287016107ef565b935050602084013567ffffffffffffffff8111156109f4576109f36106d2565b5b610a00868287016107ef565b9250506040610a118682870161097b565b9150509250925092565b600073ffffffffffffffffffffffffffffffffffffffff82169050919050565b6000610a4682610a1b565b9050919050565b610a5681610a3b565b82525050565b6000602082019050610a716000830184610a4d565b92915050565b60008060408385031215610a8e57610a8d6106cd565b5b600083013567ffffffffffffffff811115610aac57610aab6106d2565b5b610ab8858286016107ef565b925050602083013567ffffffffffffffff811115610ad957610ad86106d2565b5b610ae5858286016107ef565b9150509250929050565b600081519050919050565b600082825260208201905092915050565b6000819050602082019050919050565b610b2481610a3b565b82525050565b6000610b368383610b1b565b60208301905092915050565b6000602082019050919050565b6000610b5a82610aef565b610b648185610afa565b9350610b6f83610b0b565b8060005b83811015610ba0578151610b878882610b2a565b9750610b9283610b42565b925050600181019050610b73565b5085935050505092915050565b60006020820190508181036000830152610bc78184610b4f565b905092915050565b610bd881610892565b8114610be357600080fd5b50565b600081359050610bf581610bcf565b92915050565b60008060408385031215610c1257610c116106cd565b5b600083013567ffffffffffffffff811115610c3057610c2f6106d2565b5b610c3c858286016107ef565b9250506020610c4d85828601610be6565b9150509250929050565b610c6081610a3b565b8114610c6b57600080fd5b50565b600081359050610c7d81610c57565b92915050565b600080600060608486031215610c9c57610c9b6106cd565b5b600084013567ffffffffffffffff811115610cba57610cb96106d2565b5b610cc6868287016107ef565b935050602084013567ffffffffffffffff811115610ce757610ce66106d2565b5b610cf3868287016107ef565b9250506040610d0486828701610c6e565b9150509250925092565b600081519050919050565b600081905092915050565b60005b83811015610d42578082015181840152602081019050610d27565b83811115610d51576000848401525b50505050565b6000610d6282610d0e565b610d6c8185610d19565b9350610d7c818560208601610d24565b80840191505092915050565b6000610d948284610d57565b91508190509291505056fea26469706673582212203e16502c4cd77d215b61a2ab13c0170efa52f4a824d388053f8c56f61aaac56764736f6c634300080f0033","opcodes":"PUSH1 0x80 PUSH1 0x40 MSTORE CALLVALUE DUP1 ISZERO PUSH2 0x10 JUMPI PUSH1 0x0 DUP1 REVERT JUMPDEST POP CALLER PUSH1 0x0 DUP1 PUSH2 0x100 EXP DUP2 SLOAD DUP2 PUSH20 0xFFFFFFFFFFFFFFFFFFFFFFFFFFFFFFFFFFFFFFFF MUL NOT AND SWAP1 DUP4 PUSH20 0xFFFFFFFFFFFFFFFFFFFFFFFFFFFFFFFFFFFFFFFF AND MUL OR SWAP1 SSTORE POP PUSH2 0xDD5 DUP1 PUSH2 0x60 PUSH1 0x0 CODECOPY PUSH1 0x0 RETURN INVALID PUSH1 0x80 PUSH1 0x40 MSTORE CALLVALUE DUP1 ISZERO PUSH2 0x10 JUMPI PUSH1 0x0 DUP1 REVERT JUMPDEST POP PUSH1 0x4 CALLDATASIZE LT PUSH2 0x88 JUMPI PUSH1 0x0 CALLDATALOAD PUSH1 0xE0 SHR DUP1 PUSH4 0x8DA5CB5B GT PUSH2 0x5B JUMPI DUP1 PUSH4 0x8DA5CB5B EQ PUSH2 0x139 JUMPI DUP1 PUSH4 0xC9629404 EQ PUSH2 0x157 JUMPI DUP1 PUSH4 0xCDEDE4FE EQ PUSH2 0x173 JUMPI DUP1 PUSH4 0xE0CA4301 EQ PUSH2 0x18F JUMPI PUSH2 0x88 JUMP JUMPDEST DUP1 PUSH4 0x1961B32F EQ PUSH2 0x8D JUMPI DUP1 PUSH4 0x1D3C7FF4 EQ PUSH2 0xBD JUMPI DUP1 PUSH4 0x715FE5F4 EQ PUSH2 0xED JUMPI DUP1 PUSH4 0x87E12557 EQ PUSH2 0x11D JUMPI JUMPDEST PUSH1 0x0 DUP1 REVERT JUMPDEST PUSH2 0xA7 PUSH1 0x4 DUP1 CALLDATASIZE SUB DUP2 ADD SWAP1 PUSH2 0xA2 SWAP2 SWAP1 PUSH2 0x81D JUMP JUMPDEST PUSH2 0x1BF JUMP JUMPDEST PUSH1 0x40 MLOAD PUSH2 0xB4 SWAP2 SWAP1 PUSH2 0x938 JUMP JUMPDEST PUSH1 0x40 MLOAD DUP1 SWAP2 SUB SWAP1 RETURN JUMPDEST PUSH2 0xD7 PUSH1 0x4 DUP1 CALLDATASIZE SUB DUP2 ADD SWAP1 PUSH2 0xD2 SWAP2 SWAP1 PUSH2 0x990 JUMP JUMPDEST PUSH2 0x269 JUMP JUMPDEST PUSH1 0x40 MLOAD PUSH2 0xE4 SWAP2 SWAP1 PUSH2 0xA5C JUMP JUMPDEST PUSH1 0x40 MLOAD DUP1 SWAP2 SUB SWAP1 RETURN JUMPDEST PUSH2 0x107 PUSH1 0x4 DUP1 CALLDATASIZE SUB DUP2 ADD SWAP1 PUSH2 0x102 SWAP2 SWAP1 PUSH2 0xA77 JUMP JUMPDEST PUSH2 0x2F0 JUMP JUMPDEST PUSH1 0x40 MLOAD PUSH2 0x114 SWAP2 SWAP1 PUSH2 0xBAD JUMP JUMPDEST PUSH1 0x40 MLOAD DUP1 SWAP2 SUB SWAP1 RETURN JUMPDEST PUSH2 0x137 PUSH1 0x4 DUP1 CALLDATASIZE SUB DUP2 ADD SWAP1 PUSH2 0x132 SWAP2 SWAP1 PUSH2 0xBFB JUMP JUMPDEST PUSH2 0x3B9 JUMP JUMPDEST STOP JUMPDEST PUSH2 0x141 PUSH2 0x487 JUMP JUMPDEST PUSH1 0x40 MLOAD PUSH2 0x14E SWAP2 SWAP1 PUSH2 0xA5C JUMP JUMPDEST PUSH1 0x40 MLOAD DUP1 SWAP2 SUB SWAP1 RETURN JUMPDEST PUSH2 0x171 PUSH1 0x4 DUP1 CALLDATASIZE SUB DUP2 ADD SWAP1 PUSH2 0x16C SWAP2 SWAP1 PUSH2 0xC83 JUMP JUMPDEST PUSH2 0x4AB JUMP JUMPDEST STOP JUMPDEST PUSH2 0x18D PUSH1 0x4 DUP1 CALLDATASIZE SUB DUP2 ADD SWAP1 PUSH2 0x188 SWAP2 SWAP1 PUSH2 0xBFB JUMP JUMPDEST PUSH2 0x54B JUMP JUMPDEST STOP JUMPDEST PUSH2 0x1A9 PUSH1 0x4 DUP1 CALLDATASIZE SUB DUP2 ADD SWAP1 PUSH2 0x1A4 SWAP2 SWAP1 PUSH2 0x81D JUMP JUMPDEST PUSH2 0x619 JUMP JUMPDEST PUSH1 0x40 MLOAD PUSH2 0x1B6 SWAP2 SWAP1 PUSH2 0x938 JUMP JUMPDEST PUSH1 0x40 MLOAD DUP1 SWAP2 SUB SWAP1 RETURN JUMPDEST PUSH1 0x60 PUSH1 0x1 DUP3 PUSH1 0x40 MLOAD PUSH2 0x1D1 SWAP2 SWAP1 PUSH2 0xD88 JUMP JUMPDEST SWAP1 DUP2 MSTORE PUSH1 0x20 ADD PUSH1 0x40 MLOAD DUP1 SWAP2 SUB SWAP1 KECCAK256 DUP1 SLOAD DUP1 PUSH1 0x20 MUL PUSH1 0x20 ADD PUSH1 0x40 MLOAD SWAP1 DUP2 ADD PUSH1 0x40 MSTORE DUP1 SWAP3 SWAP2 SWAP1 DUP2 DUP2 MSTORE PUSH1 0x20 ADD DUP3 DUP1 SLOAD DUP1 ISZERO PUSH2 0x25D JUMPI PUSH1 0x20 MUL DUP3 ADD SWAP2 SWAP1 PUSH1 0x0 MSTORE PUSH1 0x20 PUSH1 0x0 KECCAK256 SWAP1 PUSH1 0x0 SWAP1 JUMPDEST DUP3 DUP3 SWAP1 SLOAD SWAP1 PUSH2 0x100 EXP SWAP1 DIV PUSH8 0xFFFFFFFFFFFFFFFF AND PUSH8 0xFFFFFFFFFFFFFFFF AND DUP2 MSTORE PUSH1 0x20 ADD SWAP1 PUSH1 0x8 ADD SWAP1 PUSH1 0x20 DUP3 PUSH1 0x7 ADD DIV SWAP3 DUP4 ADD SWAP3 PUSH1 0x1 SUB DUP3 MUL SWAP2 POP DUP1 DUP5 GT PUSH2 0x218 JUMPI SWAP1 POP JUMPDEST POP POP POP POP POP SWAP1 POP SWAP2 SWAP1 POP JUMP JUMPDEST PUSH1 0x3 DUP4 DUP1 MLOAD PUSH1 0x20 DUP2 ADD DUP3 ADD DUP1 MLOAD DUP5 DUP3 MSTORE PUSH1 0x20 DUP4 ADD PUSH1 0x20 DUP6 ADD KECCAK256 DUP2 DUP4 MSTORE DUP1 SWAP6 POP POP POP POP POP POP DUP3 DUP1 MLOAD PUSH1 0x20 DUP2 ADD DUP3 ADD DUP1 MLOAD DUP5 DUP3 MSTORE PUSH1 0x20 DUP4 ADD PUSH1 0x20 DUP6 ADD KECCAK256 DUP2 DUP4 MSTORE DUP1 SWAP6 POP POP POP POP POP POP DUP2 DUP2 SLOAD DUP2 LT PUSH2 0x2BD JUMPI PUSH1 0x0 DUP1 REVERT JUMPDEST SWAP1 PUSH1 0x0 MSTORE PUSH1 0x20 PUSH1 0x0 KECCAK256 ADD PUSH1 0x0 SWAP3 POP SWAP3 POP POP SWAP1 SLOAD SWAP1 PUSH2 0x100 EXP SWAP1 DIV PUSH20 0xFFFFFFFFFFFFFFFFFFFFFFFFFFFFFFFFFFFFFFFF AND DUP2 JUMP JUMPDEST PUSH1 0x60 PUSH1 0x3 DUP4 PUSH1 0x40 MLOAD PUSH2 0x302 SWAP2 SWAP1 PUSH2 0xD88 JUMP JUMPDEST SWAP1 DUP2 MSTORE PUSH1 0x20 ADD PUSH1 0x40 MLOAD DUP1 SWAP2 SUB SWAP1 KECCAK256 DUP3 PUSH1 0x40 MLOAD PUSH2 0x31E SWAP2 SWAP1 PUSH2 0xD88 JUMP JUMPDEST SWAP1 DUP2 MSTORE PUSH1 0x20 ADD PUSH1 0x40 MLOAD DUP1 SWAP2 SUB SWAP1 KECCAK256 DUP1 SLOAD DUP1 PUSH1 0x20 MUL PUSH1 0x20 ADD PUSH1 0x40 MLOAD SWAP1 DUP2 ADD PUSH1 0x40 MSTORE DUP1 SWAP3 SWAP2 SWAP1 DUP2 DUP2 MSTORE PUSH1 0x20 ADD DUP3 DUP1 SLOAD DUP1 ISZERO PUSH2 0x3AC JUMPI PUSH1 0x20 MUL DUP3 ADD SWAP2 SWAP1 PUSH1 0x0 MSTORE PUSH1 0x20 PUSH1 0x0 KECCAK256 SWAP1 JUMPDEST DUP2 PUSH1 0x0 SWAP1 SLOAD SWAP1 PUSH2 0x100 EXP SWAP1 DIV PUSH20 0xFFFFFFFFFFFFFFFFFFFFFFFFFFFFFFFFFFFFFFFF AND PUSH20 0xFFFFFFFFFFFFFFFFFFFFFFFFFFFFFFFFFFFFFFFF AND DUP2 MSTORE PUSH1 0x20 ADD SWAP1 PUSH1 0x1 ADD SWAP1 DUP1 DUP4 GT PUSH2 0x362 JUMPI JUMPDEST POP POP POP POP POP SWAP1 POP SWAP3 SWAP2 POP POP JUMP JUMPDEST PUSH1 0x0 DUP1 SLOAD SWAP1 PUSH2 0x100 EXP SWAP1 DIV PUSH20 0xFFFFFFFFFFFFFFFFFFFFFFFFFFFFFFFFFFFFFFFF AND PUSH20 0xFFFFFFFFFFFFFFFFFFFFFFFFFFFFFFFFFFFFFFFF AND CALLER PUSH20 0xFFFFFFFFFFFFFFFFFFFFFFFFFFFFFFFFFFFFFFFF AND EQ PUSH2 0x411 JUMPI PUSH1 0x0 DUP1 REVERT JUMPDEST PUSH1 0x2 DUP3 PUSH1 0x40 MLOAD PUSH2 0x421 SWAP2 SWAP1 PUSH2 0xD88 JUMP JUMPDEST SWAP1 DUP2 MSTORE PUSH1 0x20 ADD PUSH1 0x40 MLOAD DUP1 SWAP2 SUB SWAP1 KECCAK256 DUP2 SWAP1 DUP1 PUSH1 0x1 DUP2 SLOAD ADD DUP1 DUP3 SSTORE DUP1 SWAP2 POP POP PUSH1 0x1 SWAP1 SUB SWAP1 PUSH1 0x0 MSTORE PUSH1 0x20 PUSH1 0x0 KECCAK256 SWAP1 PUSH1 0x4 SWAP2 DUP3 DUP3 DIV ADD SWAP2 SWAP1 MOD PUSH1 0x8 MUL SWAP1 SWAP2 SWAP1 SWAP2 SWAP1 SWAP2 PUSH2 0x100 EXP DUP2 SLOAD DUP2 PUSH8 0xFFFFFFFFFFFFFFFF MUL NOT AND SWAP1 DUP4 PUSH8 0xFFFFFFFFFFFFFFFF AND MUL OR SWAP1 SSTORE POP POP POP JUMP JUMPDEST PUSH1 0x0 DUP1 SLOAD SWAP1 PUSH2 0x100 EXP SWAP1 DIV PUSH20 0xFFFFFFFFFFFFFFFFFFFFFFFFFFFFFFFFFFFFFFFF AND DUP2 JUMP JUMPDEST PUSH1 0x3 DUP4 PUSH1 0x40 MLOAD PUSH2 0x4BB SWAP2 SWAP1 PUSH2 0xD88 JUMP JUMPDEST SWAP1 DUP2 MSTORE PUSH1 0x20 ADD PUSH1 0x40 MLOAD DUP1 SWAP2 SUB SWAP1 KECCAK256 DUP3 PUSH1 0x40 MLOAD PUSH2 0x4D7 SWAP2 SWAP1 PUSH2 0xD88 JUMP JUMPDEST SWAP1 DUP2 MSTORE PUSH1 0x20 ADD PUSH1 0x40 MLOAD DUP1 SWAP2 SUB SWAP1 KECCAK256 DUP2 SWAP1 DUP1 PUSH1 0x1 DUP2 SLOAD ADD DUP1 DUP3 SSTORE DUP1 SWAP2 POP POP PUSH1 0x1 SWAP1 SUB SWAP1 PUSH1 0x0 MSTORE PUSH1 0x20 PUSH1 0x0 KECCAK256 ADD PUSH1 0x0 SWAP1 SWAP2 SWAP1 SWAP2 SWAP1 SWAP2 PUSH2 0x100 EXP DUP2 SLOAD DUP2 PUSH20 0xFFFFFFFFFFFFFFFFFFFFFFFFFFFFFFFFFFFFFFFF MUL NOT AND SWAP1 DUP4 PUSH20 0xFFFFFFFFFFFFFFFFFFFFFFFFFFFFFFFFFFFFFFFF AND MUL OR SWAP1 SSTORE POP POP POP POP JUMP JUMPDEST PUSH1 0x0 DUP1 SLOAD SWAP1 PUSH2 0x100 EXP SWAP1 DIV PUSH20 0xFFFFFFFFFFFFFFFFFFFFFFFFFFFFFFFFFFFFFFFF AND PUSH20 0xFFFFFFFFFFFFFFFFFFFFFFFFFFFFFFFFFFFFFFFF AND CALLER PUSH20 0xFFFFFFFFFFFFFFFFFFFFFFFFFFFFFFFFFFFFFFFF AND EQ PUSH2 0x5A3 JUMPI PUSH1 0x0 DUP1 REVERT JUMPDEST PUSH1 0x1 DUP3 PUSH1 0x40 MLOAD PUSH2 0x5B3 SWAP2 SWAP1 PUSH2 0xD88 JUMP JUMPDEST SWAP1 DUP2 MSTORE PUSH1 0x20 ADD PUSH1 0x40 MLOAD DUP1 SWAP2 SUB SWAP1 KECCAK256 DUP2 SWAP1 DUP1 PUSH1 0x1 DUP2 SLOAD ADD DUP1 DUP3 SSTORE DUP1 SWAP2 POP POP PUSH1 0x1 SWAP1 SUB SWAP1 PUSH1 0x0 MSTORE PUSH1 0x20 PUSH1 0x0 KECCAK256 SWAP1 PUSH1 0x4 SWAP2 DUP3 DUP3 DIV ADD SWAP2 SWAP1 MOD PUSH1 0x8 MUL SWAP1 SWAP2 SWAP1 SWAP2 SWAP1 SWAP2 PUSH2 0x100 EXP DUP2 SLOAD DUP2 PUSH8 0xFFFFFFFFFFFFFFFF MUL NOT AND SWAP1 DUP4 PUSH8 0xFFFFFFFFFFFFFFFF AND MUL OR SWAP1 SSTORE POP POP POP JUMP JUMPDEST PUSH1 0x60 PUSH1 0x2 DUP3 PUSH1 0x40 MLOAD PUSH2 0x62B SWAP2 SWAP1 PUSH2 0xD88 JUMP JUMPDEST SWAP1 DUP2 MSTORE PUSH1 0x20 ADD PUSH1 0x40 MLOAD DUP1 SWAP2 SUB SWAP1 KECCAK256 DUP1 SLOAD DUP1 PUSH1 0x20 MUL PUSH1 0x20 ADD PUSH1 0x40 MLOAD SWAP1 DUP2 ADD PUSH1 0x40 MSTORE DUP1 SWAP3 SWAP2 SWAP1 DUP2 DUP2 MSTORE PUSH1 0x20 ADD DUP3 DUP1 SLOAD DUP1 ISZERO PUSH2 0x6B7 JUMPI PUSH1 0x20 MUL DUP3 ADD SWAP2 SWAP1 PUSH1 0x0 MSTORE PUSH1 0x20 PUSH1 0x0 KECCAK256 SWAP1 PUSH1 0x0 SWAP1 JUMPDEST DUP3 DUP3 SWAP1 SLOAD SWAP1 PUSH2 0x100 EXP SWAP1 DIV PUSH8 0xFFFFFFFFFFFFFFFF AND PUSH8 0xFFFFFFFFFFFFFFFF AND DUP2 MSTORE PUSH1 0x20 ADD SWAP1 PUSH1 0x8 ADD SWAP1 PUSH1 0x20 DUP3 PUSH1 0x7 ADD DIV SWAP3 DUP4 ADD SWAP3 PUSH1 0x1 SUB DUP3 MUL SWAP2 POP DUP1 DUP5 GT PUSH2 0x672 JUMPI SWAP1 POP JUMPDEST POP POP POP POP POP SWAP1 POP SWAP2 SWAP1 POP JUMP JUMPDEST PUSH1 0x0 PUSH1 0x40 MLOAD SWAP1 POP SWAP1 JUMP JUMPDEST PUSH1 0x0 DUP1 REVERT JUMPDEST PUSH1 0x0 DUP1 REVERT JUMPDEST PUSH1 0x0 DUP1 REVERT JUMPDEST PUSH1 0x0 DUP1 REVERT JUMPDEST PUSH1 0x0 PUSH1 0x1F NOT PUSH1 0x1F DUP4 ADD AND SWAP1 POP SWAP2 SWAP1 POP JUMP JUMPDEST PUSH32 0x4E487B7100000000000000000000000000000000000000000000000000000000 PUSH1 0x0 MSTORE PUSH1 0x41 PUSH1 0x4 MSTORE PUSH1 0x24 PUSH1 0x0 REVERT JUMPDEST PUSH2 0x72A DUP3 PUSH2 0x6E1 JUMP JUMPDEST DUP2 ADD DUP2 DUP2 LT PUSH8 0xFFFFFFFFFFFFFFFF DUP3 GT OR ISZERO PUSH2 0x749 JUMPI PUSH2 0x748 PUSH2 0x6F2 JUMP JUMPDEST JUMPDEST DUP1 PUSH1 0x40 MSTORE POP POP POP JUMP JUMPDEST PUSH1 0x0 PUSH2 0x75C PUSH2 0x6C3 JUMP JUMPDEST SWAP1 POP PUSH2 0x768 DUP3 DUP3 PUSH2 0x721 JUMP JUMPDEST SWAP2 SWAP1 POP JUMP JUMPDEST PUSH1 0x0 PUSH8 0xFFFFFFFFFFFFFFFF DUP3 GT ISZERO PUSH2 0x788 JUMPI PUSH2 0x787 PUSH2 0x6F2 JUMP JUMPDEST JUMPDEST PUSH2 0x791 DUP3 PUSH2 0x6E1 JUMP JUMPDEST SWAP1 POP PUSH1 0x20 DUP2 ADD SWAP1 POP SWAP2 SWAP1 POP JUMP JUMPDEST DUP3 DUP2 DUP4 CALLDATACOPY PUSH1 0x0 DUP4 DUP4 ADD MSTORE POP POP POP JUMP JUMPDEST PUSH1 0x0 PUSH2 0x7C0 PUSH2 0x7BB DUP5 PUSH2 0x76D JUMP JUMPDEST PUSH2 0x752 JUMP JUMPDEST SWAP1 POP DUP3 DUP2 MSTORE PUSH1 0x20 DUP2 ADD DUP5 DUP5 DUP5 ADD GT ISZERO PUSH2 0x7DC JUMPI PUSH2 0x7DB PUSH2 0x6DC JUMP JUMPDEST JUMPDEST PUSH2 0x7E7 DUP5 DUP3 DUP6 PUSH2 0x79E JUMP JUMPDEST POP SWAP4 SWAP3 POP POP POP JUMP JUMPDEST PUSH1 0x0 DUP3 PUSH1 0x1F DUP4 ADD SLT PUSH2 0x804 JUMPI PUSH2 0x803 PUSH2 0x6D7 JUMP JUMPDEST JUMPDEST DUP2 CALLDATALOAD PUSH2 0x814 DUP5 DUP3 PUSH1 0x20 DUP7 ADD PUSH2 0x7AD JUMP JUMPDEST SWAP2 POP POP SWAP3 SWAP2 POP POP JUMP JUMPDEST PUSH1 0x0 PUSH1 0x20 DUP3 DUP5 SUB SLT ISZERO PUSH2 0x833 JUMPI PUSH2 0x832 PUSH2 0x6CD JUMP JUMPDEST JUMPDEST PUSH1 0x0 DUP3 ADD CALLDATALOAD PUSH8 0xFFFFFFFFFFFFFFFF DUP2 GT ISZERO PUSH2 0x851 JUMPI PUSH2 0x850 PUSH2 0x6D2 JUMP JUMPDEST JUMPDEST PUSH2 0x85D DUP5 DUP3 DUP6 ADD PUSH2 0x7EF JUMP JUMPDEST SWAP2 POP POP SWAP3 SWAP2 POP POP JUMP JUMPDEST PUSH1 0x0 DUP2 MLOAD SWAP1 POP SWAP2 SWAP1 POP JUMP JUMPDEST PUSH1 0x0 DUP3 DUP3 MSTORE PUSH1 0x20 DUP3 ADD SWAP1 POP SWAP3 SWAP2 POP POP JUMP JUMPDEST PUSH1 0x0 DUP2 SWAP1 POP PUSH1 0x20 DUP3 ADD SWAP1 POP SWAP2 SWAP1 POP JUMP JUMPDEST PUSH1 0x0 PUSH8 0xFFFFFFFFFFFFFFFF DUP3 AND SWAP1 POP SWAP2 SWAP1 POP JUMP JUMPDEST PUSH2 0x8AF DUP2 PUSH2 0x892 JUMP JUMPDEST DUP3 MSTORE POP POP JUMP JUMPDEST PUSH1 0x0 PUSH2 0x8C1 DUP4 DUP4 PUSH2 0x8A6 JUMP JUMPDEST PUSH1 0x20 DUP4 ADD SWAP1 POP SWAP3 SWAP2 POP POP JUMP JUMPDEST PUSH1 0x0 PUSH1 0x20 DUP3 ADD SWAP1 POP SWAP2 SWAP1 POP JUMP JUMPDEST PUSH1 0x0 PUSH2 0x8E5 DUP3 PUSH2 0x866 JUMP JUMPDEST PUSH2 0x8EF DUP2 DUP6 PUSH2 0x871 JUMP JUMPDEST SWAP4 POP PUSH2 0x8FA DUP4 PUSH2 0x882 JUMP JUMPDEST DUP1 PUSH1 0x0 JUMPDEST DUP4 DUP2 LT ISZERO PUSH2 0x92B JUMPI DUP2 MLOAD PUSH2 0x912 DUP9 DUP3 PUSH2 0x8B5 JUMP JUMPDEST SWAP8 POP PUSH2 0x91D DUP4 PUSH2 0x8CD JUMP JUMPDEST SWAP3 POP POP PUSH1 0x1 DUP2 ADD SWAP1 POP PUSH2 0x8FE JUMP JUMPDEST POP DUP6 SWAP4 POP POP POP POP SWAP3 SWAP2 POP POP JUMP JUMPDEST PUSH1 0x0 PUSH1 0x20 DUP3 ADD SWAP1 POP DUP2 DUP2 SUB PUSH1 0x0 DUP4 ADD MSTORE PUSH2 0x952 DUP2 DUP5 PUSH2 0x8DA JUMP JUMPDEST SWAP1 POP SWAP3 SWAP2 POP POP JUMP JUMPDEST PUSH1 0x0 DUP2 SWAP1 POP SWAP2 SWAP1 POP JUMP JUMPDEST PUSH2 0x96D DUP2 PUSH2 0x95A JUMP JUMPDEST DUP2 EQ PUSH2 0x978 JUMPI PUSH1 0x0 DUP1 REVERT JUMPDEST POP JUMP JUMPDEST PUSH1 0x0 DUP2 CALLDATALOAD SWAP1 POP PUSH2 0x98A DUP2 PUSH2 0x964 JUMP JUMPDEST SWAP3 SWAP2 POP POP JUMP JUMPDEST PUSH1 0x0 DUP1 PUSH1 0x0 PUSH1 0x60 DUP5 DUP7 SUB SLT ISZERO PUSH2 0x9A9 JUMPI PUSH2 0x9A8 PUSH2 0x6CD JUMP JUMPDEST JUMPDEST PUSH1 0x0 DUP5 ADD CALLDATALOAD PUSH8 0xFFFFFFFFFFFFFFFF DUP2 GT ISZERO PUSH2 0x9C7 JUMPI PUSH2 0x9C6 PUSH2 0x6D2 JUMP JUMPDEST JUMPDEST PUSH2 0x9D3 DUP7 DUP3 DUP8 ADD PUSH2 0x7EF JUMP JUMPDEST SWAP4 POP POP PUSH1 0x20 DUP5 ADD CALLDATALOAD PUSH8 0xFFFFFFFFFFFFFFFF DUP2 GT ISZERO PUSH2 0x9F4 JUMPI PUSH2 0x9F3 PUSH2 0x6D2 JUMP JUMPDEST JUMPDEST PUSH2 0xA00 DUP7 DUP3 DUP8 ADD PUSH2 0x7EF JUMP JUMPDEST SWAP3 POP POP PUSH1 0x40 PUSH2 0xA11 DUP7 DUP3 DUP8 ADD PUSH2 0x97B JUMP JUMPDEST SWAP2 POP POP SWAP3 POP SWAP3 POP SWAP3 JUMP JUMPDEST PUSH1 0x0 PUSH20 0xFFFFFFFFFFFFFFFFFFFFFFFFFFFFFFFFFFFFFFFF DUP3 AND SWAP1 POP SWAP2 SWAP1 POP JUMP JUMPDEST PUSH1 0x0 PUSH2 0xA46 DUP3 PUSH2 0xA1B JUMP JUMPDEST SWAP1 POP SWAP2 SWAP1 POP JUMP JUMPDEST PUSH2 0xA56 DUP2 PUSH2 0xA3B JUMP JUMPDEST DUP3 MSTORE POP POP JUMP JUMPDEST PUSH1 0x0 PUSH1 0x20 DUP3 ADD SWAP1 POP PUSH2 0xA71 PUSH1 0x0 DUP4 ADD DUP5 PUSH2 0xA4D JUMP JUMPDEST SWAP3 SWAP2 POP POP JUMP JUMPDEST PUSH1 0x0 DUP1 PUSH1 0x40 DUP4 DUP6 SUB SLT ISZERO PUSH2 0xA8E JUMPI PUSH2 0xA8D PUSH2 0x6CD JUMP JUMPDEST JUMPDEST PUSH1 0x0 DUP4 ADD CALLDATALOAD PUSH8 0xFFFFFFFFFFFFFFFF DUP2 GT ISZERO PUSH2 0xAAC JUMPI PUSH2 0xAAB PUSH2 0x6D2 JUMP JUMPDEST JUMPDEST PUSH2 0xAB8 DUP6 DUP3 DUP7 ADD PUSH2 0x7EF JUMP JUMPDEST SWAP3 POP POP PUSH1 0x20 DUP4 ADD CALLDATALOAD PUSH8 0xFFFFFFFFFFFFFFFF DUP2 GT ISZERO PUSH2 0xAD9 JUMPI PUSH2 0xAD8 PUSH2 0x6D2 JUMP JUMPDEST JUMPDEST PUSH2 0xAE5 DUP6 DUP3 DUP7 ADD PUSH2 0x7EF JUMP JUMPDEST SWAP2 POP POP SWAP3 POP SWAP3 SWAP1 POP JUMP JUMPDEST PUSH1 0x0 DUP2 MLOAD SWAP1 POP SWAP2 SWAP1 POP JUMP JUMPDEST PUSH1 0x0 DUP3 DUP3 MSTORE PUSH1 0x20 DUP3 ADD SWAP1 POP SWAP3 SWAP2 POP POP JUMP JUMPDEST PUSH1 0x0 DUP2 SWAP1 POP PUSH1 0x20 DUP3 ADD SWAP1 POP SWAP2 SWAP1 POP JUMP JUMPDEST PUSH2 0xB24 DUP2 PUSH2 0xA3B JUMP JUMPDEST DUP3 MSTORE POP POP JUMP JUMPDEST PUSH1 0x0 PUSH2 0xB36 DUP4 DUP4 PUSH2 0xB1B JUMP JUMPDEST PUSH1 0x20 DUP4 ADD SWAP1 POP SWAP3 SWAP2 POP POP JUMP JUMPDEST PUSH1 0x0 PUSH1 0x20 DUP3 ADD SWAP1 POP SWAP2 SWAP1 POP JUMP JUMPDEST PUSH1 0x0 PUSH2 0xB5A DUP3 PUSH2 0xAEF JUMP JUMPDEST PUSH2 0xB64 DUP2 DUP6 PUSH2 0xAFA JUMP JUMPDEST SWAP4 POP PUSH2 0xB6F DUP4 PUSH2 0xB0B JUMP JUMPDEST DUP1 PUSH1 0x0 JUMPDEST DUP4 DUP2 LT ISZERO PUSH2 0xBA0 JUMPI DUP2 MLOAD PUSH2 0xB87 DUP9 DUP3 PUSH2 0xB2A JUMP JUMPDEST SWAP8 POP PUSH2 0xB92 DUP4 PUSH2 0xB42 JUMP JUMPDEST SWAP3 POP POP PUSH1 0x1 DUP2 ADD SWAP1 POP PUSH2 0xB73 JUMP JUMPDEST POP DUP6 SWAP4 POP POP POP POP SWAP3 SWAP2 POP POP JUMP JUMPDEST PUSH1 0x0 PUSH1 0x20 DUP3 ADD SWAP1 POP DUP2 DUP2 SUB PUSH1 0x0 DUP4 ADD MSTORE PUSH2 0xBC7 DUP2 DUP5 PUSH2 0xB4F JUMP JUMPDEST SWAP1 POP SWAP3 SWAP2 POP POP JUMP JUMPDEST PUSH2 0xBD8 DUP2 PUSH2 0x892 JUMP JUMPDEST DUP2 EQ PUSH2 0xBE3 JUMPI PUSH1 0x0 DUP1 REVERT JUMPDEST POP JUMP JUMPDEST PUSH1 0x0 DUP2 CALLDATALOAD SWAP1 POP PUSH2 0xBF5 DUP2 PUSH2 0xBCF JUMP JUMPDEST SWAP3 SWAP2 POP POP JUMP JUMPDEST PUSH1 0x0 DUP1 PUSH1 0x40 DUP4 DUP6 SUB SLT ISZERO PUSH2 0xC12 JUMPI PUSH2 0xC11 PUSH2 0x6CD JUMP JUMPDEST JUMPDEST PUSH1 0x0 DUP4 ADD CALLDATALOAD PUSH8 0xFFFFFFFFFFFFFFFF DUP2 GT ISZERO PUSH2 0xC30 JUMPI PUSH2 0xC2F PUSH2 0x6D2 JUMP JUMPDEST JUMPDEST PUSH2 0xC3C DUP6 DUP3 DUP7 ADD PUSH2 0x7EF JUMP JUMPDEST SWAP3 POP POP PUSH1 0x20 PUSH2 0xC4D DUP6 DUP3 DUP7 ADD PUSH2 0xBE6 JUMP JUMPDEST SWAP2 POP POP SWAP3 POP SWAP3 SWAP1 POP JUMP JUMPDEST PUSH2 0xC60 DUP2 PUSH2 0xA3B JUMP JUMPDEST DUP2 EQ PUSH2 0xC6B JUMPI PUSH1 0x0 DUP1 REVERT JUMPDEST POP JUMP JUMPDEST PUSH1 0x0 DUP2 CALLDATALOAD SWAP1 POP PUSH2 0xC7D DUP2 PUSH2 0xC57 JUMP JUMPDEST SWAP3 SWAP2 POP POP JUMP JUMPDEST PUSH1 0x0 DUP1 PUSH1 0x0 PUSH1 0x60 DUP5 DUP7 SUB SLT ISZERO PUSH2 0xC9C JUMPI PUSH2 0xC9B PUSH2 0x6CD JUMP JUMPDEST JUMPDEST PUSH1 0x0 DUP5 ADD CALLDATALOAD PUSH8 0xFFFFFFFFFFFFFFFF DUP2 GT ISZERO PUSH2 0xCBA JUMPI PUSH2 0xCB9 PUSH2 0x6D2 JUMP JUMPDEST JUMPDEST PUSH2 0xCC6 DUP7 DUP3 DUP8 ADD PUSH2 0x7EF JUMP JUMPDEST SWAP4 POP POP PUSH1 0x20 DUP5 ADD CALLDATALOAD PUSH8 0xFFFFFFFFFFFFFFFF DUP2 GT ISZERO PUSH2 0xCE7 JUMPI PUSH2 0xCE6 PUSH2 0x6D2 JUMP JUMPDEST JUMPDEST PUSH2 0xCF3 DUP7 DUP3 DUP8 ADD PUSH2 0x7EF JUMP JUMPDEST SWAP3 POP POP PUSH1 0x40 PUSH2 0xD04 DUP7 DUP3 DUP8 ADD PUSH2 0xC6E JUMP JUMPDEST SWAP2 POP POP SWAP3 POP SWAP3 POP SWAP3 JUMP JUMPDEST PUSH1 0x0 DUP2 MLOAD SWAP1 POP SWAP2 SWAP1 POP JUMP JUMPDEST PUSH1 0x0 DUP2 SWAP1 POP SWAP3 SWAP2 POP POP JUMP JUMPDEST PUSH1 0x0 JUMPDEST DUP4 DUP2 LT ISZERO PUSH2 0xD42 JUMPI DUP1 DUP3 ADD MLOAD DUP2 DUP5 ADD MSTORE PUSH1 0x20 DUP2 ADD SWAP1 POP PUSH2 0xD27 JUMP JUMPDEST DUP4 DUP2 GT ISZERO PUSH2 0xD51 JUMPI PUSH1 0x0 DUP5 DUP5 ADD MSTORE JUMPDEST POP POP POP POP JUMP JUMPDEST PUSH1 0x0 PUSH2 0xD62 DUP3 PUSH2 0xD0E JUMP JUMPDEST PUSH2 0xD6C DUP2 DUP6 PUSH2 0xD19 JUMP JUMPDEST SWAP4 POP PUSH2 0xD7C DUP2 DUP6 PUSH1 0x20 DUP7 ADD PUSH2 0xD24 JUMP JUMPDEST DUP1 DUP5 ADD SWAP2 POP POP SWAP3 SWAP2 POP POP JUMP JUMPDEST PUSH1 0x0 PUSH2 0xD94 DUP3 DUP5 PUSH2 0xD57 JUMP JUMPDEST SWAP2 POP DUP2 SWAP1 POP SWAP3 SWAP2 POP POP JUMP INVALID LOG2 PUSH5 0x6970667358 0x22 SLT KECCAK256 RETURNDATACOPY AND POP 0x2C 0x4C 0xD7 PUSH30 0x215B61A2AB13C0170EFA52F4A824D388053F8C56F61AAAC56764736F6C63 NUMBER STOP ADDMOD 0xF STOP CALLER "},"gasEstimates":{"creation":{"codeDepositCost":"708200","executionCost":"25007","totalCost":"733207"},"external":{"activities(string,string,uint256)":"infinite","getCheckIn(string)":"infinite","getCheckOut(string)":"infinite","newActivity(string,string,address)":"infinite","newCheckIn(string,uint64)":"infinite","newCheckOut(string,uint64)":"infinite","owner()":"2511","viewActivity(string,string)":"infinite"}},"methodIdentifiers":{"activities(string,string,uint256)":"1d3c7ff4","getCheckIn(string)":"1961b32f","getCheckOut(string)":"e0ca4301","newActivity(string,string,address)":"c9629404","newCheckIn(string,uint64)":"cdede4fe","newCheckOut(string,uint64)":"87e12557","owner()":"8da5cb5b","viewActivity(string,string)":"715fe5f4"}},"storageLayout":{"storage":[{"astId":86,"contract":"intelifactory.sol:Person","label":"owner","offset":0,"slot":"0","type":"t_address"},{"astId":91,"contract":"intelifactory.sol:Person","label":"checkIn","offset":0,"slot":"1","type":"t_mapping(t_string_memory_ptr,t_array(t_uint64)dyn_storage)"},{"astId":96,"contract":"intelifactory.sol:Person","label":"checkOut","offset":0,"slot":"2","type":"t_mapping(t_string_memory_ptr,t_array(t_uint64)dyn_storage)"},{"astId":103,"contract":"intelifactory.sol:Person","label":"activities","offset":0,"slot":"3","type":"t_mapping(t_string_memory_ptr,t_mapping(t_string_memory_ptr,t_array(t_address)dyn_storage))"}],"types":{"t_address":{"encoding":"inplace","label":"address","numberOfBytes":"20"},"t_array(t_address)dyn_storage":{"base":"t_address","encoding":"dynamic_array","label":"address[]","numberOfBytes":"32"},"t_array(t_uint64)dyn_storage":{"base":"t_uint64","encoding":"dynamic_array","label":"uint64[]","numberOfBytes":"32"},"t_mapping(t_string_memory_ptr,t_array(t_address)dyn_storage)":{"encoding":"mapping","key":"t_string_memory_ptr","label":"mapping(string => address[])","numberOfBytes":"32","value":"t_array(t_address)dyn_storage"},"t_mapping(t_string_memory_ptr,t_array(t_uint64)dyn_storage)":{"encoding":"mapping","key":"t_string_memory_ptr","label":"mapping(string => uint64[])","numberOfBytes":"32","value":"t_array(t_uint64)dyn_storage"},"t_mapping(t_string_memory_ptr,t_mapping(t_string_memory_ptr,t_array(t_address)dyn_storage))":{"encoding":"mapping","key":"t_string_memory_ptr","label":"mapping(string => mapping(string => address[]))","numberOfBytes":"32","value":"t_mapping(t_string_memory_ptr,t_array(t_address)dyn_storage)"},"t_string_memory_ptr":{"encoding":"bytes","label":"string","numberOfBytes":"32"},"t_uint64":{"encoding":"inplace","label":"uint64","numberOfBytes":"8"}}},"userdoc":{"kind":"user","methods":{},"version":1}}