{
  "_format": "hh-sol-artifact-1",
  "contractName": "LectureFactory",
  "sourceName": "ethereum/contracts/LectureFactory.sol",
  "abi": [
    {
      "inputs": [],
      "stateMutability": "nonpayable",
      "type": "constructor"
    },
    {
      "anonymous": false,
      "inputs": [
        {
          "indexed": false,
          "internalType": "address",
          "name": "",
          "type": "address"
        }
      ],
      "name": "NewLecture",
      "type": "event"
    },
    {
      "inputs": [
        {
          "internalType": "address[]",
          "name": "_arrayUsers",
          "type": "address[]"
        },
        {
          "internalType": "string",
          "name": "_ipfsAddress",
          "type": "string"
        }
      ],
      "name": "createLecture",
      "outputs": [],
      "stateMutability": "nonpayable",
      "type": "function"
    },
    {
      "inputs": [
        {
          "internalType": "uint256",
          "name": "",
          "type": "uint256"
        }
      ],
      "name": "lectures",
      "outputs": [
        {
          "internalType": "address",
          "name": "",
          "type": "address"
        }
      ],
      "stateMutability": "view",
      "type": "function"
    },
    {
      "inputs": [],
      "name": "viewLectures",
      "outputs": [
        {
          "internalType": "address[]",
          "name": "",
          "type": "address[]"
        }
      ],
      "stateMutability": "view",
      "type": "function"
    }
  ],
  "bytecode": "0x608060405234801561001057600080fd5b50336000806101000a81548173ffffffffffffffffffffffffffffffffffffffff021916908373ffffffffffffffffffffffffffffffffffffffff1602179055506145eb806100606000396000f3fe60806040523480156200001157600080fd5b5060043610620000465760003560e01c80631638a13d146200004b578063263bfbd6146200006d57806383cde3d2146200008d575b600080fd5b62000055620000c3565b60405162000064919062000457565b60405180910390f35b6200008b6004803603810190620000859190620006fd565b620001ac565b005b620000ab6004803603810190620000a59190620007bd565b62000307565b604051620000ba919062000800565b60405180910390f35b606060008054906101000a900473ffffffffffffffffffffffffffffffffffffffff1673ffffffffffffffffffffffffffffffffffffffff163373ffffffffffffffffffffffffffffffffffffffff16146200011e57600080fd5b6001805480602002602001604051908101604052809291908181526020018280548015620001a257602002820191906000526020600020905b8160009054906101000a900473ffffffffffffffffffffffffffffffffffffffff1673ffffffffffffffffffffffffffffffffffffffff168152602001906001019080831162000157575b5050505050905090565b60008054906101000a900473ffffffffffffffffffffffffffffffffffffffff1673ffffffffffffffffffffffffffffffffffffffff163373ffffffffffffffffffffffffffffffffffffffff16146200020557600080fd5b6000828260008054906101000a900473ffffffffffffffffffffffffffffffffffffffff16604051620002389062000347565b6200024693929190620008b0565b604051809103906000f08015801562000263573d6000803e3d6000fd5b5090506001819080600181540180825580915050600190039060005260206000200160009091909190916101000a81548173ffffffffffffffffffffffffffffffffffffffff021916908373ffffffffffffffffffffffffffffffffffffffff1602179055507fd48ab2d6d595142e0a191ece26abebda8ebcb4a9649dafadefd4f5b827f8638581604051620002fa919062000800565b60405180910390a1505050565b600181815481106200031857600080fd5b906000526020600020016000915054906101000a900473ffffffffffffffffffffffffffffffffffffffff1681565b613cba80620008fc83390190565b600081519050919050565b600082825260208201905092915050565b6000819050602082019050919050565b600073ffffffffffffffffffffffffffffffffffffffff82169050919050565b6000620003ae8262000381565b9050919050565b620003c081620003a1565b82525050565b6000620003d48383620003b5565b60208301905092915050565b6000602082019050919050565b6000620003fa8262000355565b62000406818562000360565b9350620004138362000371565b8060005b838110156200044a5781516200042e8882620003c6565b97506200043b83620003e0565b92505060018101905062000417565b5085935050505092915050565b60006020820190508181036000830152620004738184620003ed565b905092915050565b6000604051905090565b600080fd5b600080fd5b600080fd5b6000601f19601f8301169050919050565b7f4e487b7100000000000000000000000000000000000000000000000000000000600052604160045260246000fd5b620004df8262000494565b810181811067ffffffffffffffff82111715620005015762000500620004a5565b5b80604052505050565b6000620005166200047b565b9050620005248282620004d4565b919050565b600067ffffffffffffffff821115620005475762000546620004a5565b5b602082029050602081019050919050565b600080fd5b6200056881620003a1565b81146200057457600080fd5b50565b60008135905062000588816200055d565b92915050565b6000620005a56200059f8462000529565b6200050a565b90508083825260208201905060208402830185811115620005cb57620005ca62000558565b5b835b81811015620005f85780620005e3888262000577565b845260208401935050602081019050620005cd565b5050509392505050565b600082601f8301126200061a57620006196200048f565b5b81356200062c8482602086016200058e565b91505092915050565b600080fd5b600067ffffffffffffffff821115620006585762000657620004a5565b5b620006638262000494565b9050602081019050919050565b82818337600083830152505050565b60006200069662000690846200063a565b6200050a565b905082815260208101848484011115620006b557620006b462000635565b5b620006c284828562000670565b509392505050565b600082601f830112620006e257620006e16200048f565b5b8135620006f48482602086016200067f565b91505092915050565b6000806040838503121562000717576200071662000485565b5b600083013567ffffffffffffffff8111156200073857620007376200048a565b5b620007468582860162000602565b925050602083013567ffffffffffffffff8111156200076a57620007696200048a565b5b6200077885828601620006ca565b9150509250929050565b6000819050919050565b620007978162000782565b8114620007a357600080fd5b50565b600081359050620007b7816200078c565b92915050565b600060208284031215620007d657620007d562000485565b5b6000620007e684828501620007a6565b91505092915050565b620007fa81620003a1565b82525050565b6000602082019050620008176000830184620007ef565b92915050565b600081519050919050565b600082825260208201905092915050565b60005b83811015620008595780820151818401526020810190506200083c565b8381111562000869576000848401525b50505050565b60006200087c826200081d565b62000888818562000828565b93506200089a81856020860162000839565b620008a58162000494565b840191505092915050565b60006060820190508181036000830152620008cc8186620003ed565b90508181036020830152620008e281856200086f565b9050620008f36040830184620007ef565b94935050505056fe60806040523480156200001157600080fd5b5060405162003cba38038062003cba83398181016040528101906200003791906200094e565b8162000049816200011260201b60201c565b5080600360006101000a81548173ffffffffffffffffffffffffffffffffffffffff021916908373ffffffffffffffffffffffffffffffffffffffff1602179055508260049080519060200190620000a3929190620005c3565b5060005b83518110156200010857620000f2848281518110620000cb57620000ca620009e8565b5b6020026020010151600180604051806020016040528060008152506200012760201b60201c565b8080620000ff9062000a50565b915050620000a7565b50505050620012cc565b806002908162000123919062000cde565b5050565b600073ffffffffffffffffffffffffffffffffffffffff168473ffffffffffffffffffffffffffffffffffffffff160362000199576040517f08c379a0000000000000000000000000000000000000000000000000000000008152600401620001909062000e4c565b60405180910390fd5b6000620001ab6200030e60201b60201c565b90506000620001c0856200031660201b60201c565b90506000620001d5856200031660201b60201c565b9050620001ee836000898585896200039760201b60201c565b8460008088815260200190815260200160002060008973ffffffffffffffffffffffffffffffffffffffff1673ffffffffffffffffffffffffffffffffffffffff16815260200190815260200160002060008282546200024f919062000e6e565b925050819055508673ffffffffffffffffffffffffffffffffffffffff16600073ffffffffffffffffffffffffffffffffffffffff168473ffffffffffffffffffffffffffffffffffffffff167fc3d58168c5ae7397731d063d5bbf3d657854427343f4c083240f7aacaa2d0f628989604051620002cf92919062000edc565b60405180910390a4620002ee836000898585896200039f60201b60201c565b6200030583600089898989620003a760201b60201c565b50505050505050565b600033905090565b60606000600167ffffffffffffffff8111156200033857620003376200069b565b5b604051908082528060200260200182016040528015620003675781602001602082028036833780820191505090505b5090508281600081518110620003825762000381620009e8565b5b60200260200101818152505080915050919050565b505050505050565b505050505050565b620003d38473ffffffffffffffffffffffffffffffffffffffff16620005a060201b6200081d1760201c565b1562000598578373ffffffffffffffffffffffffffffffffffffffff1663f23a6e6187878686866040518663ffffffff1660e01b81526004016200041c95949392919062000f77565b6020604051808303816000875af19250505080156200045b57506040513d601f19601f8201168201806040525081019062000458919062001038565b60015b6200050c576200046a62001077565b806308c379a003620004cd5750620004816200109c565b806200048e5750620004cf565b806040517f08c379a0000000000000000000000000000000000000000000000000000000008152600401620004c4919062001178565b60405180910390fd5b505b6040517f08c379a0000000000000000000000000000000000000000000000000000000008152600401620005039062001212565b60405180910390fd5b63f23a6e6160e01b7bffffffffffffffffffffffffffffffffffffffffffffffffffffffff1916817bffffffffffffffffffffffffffffffffffffffffffffffffffffffff19161462000596576040517f08c379a00000000000000000000000000000000000000000000000000000000081526004016200058d90620012aa565b60405180910390fd5b505b505050505050565b6000808273ffffffffffffffffffffffffffffffffffffffff163b119050919050565b8280548282559060005260206000209081019282156200063f579160200282015b828111156200063e5782518260006101000a81548173ffffffffffffffffffffffffffffffffffffffff021916908373ffffffffffffffffffffffffffffffffffffffff16021790555091602001919060010190620005e4565b5b5090506200064e919062000652565b5090565b5b808211156200066d57600081600090555060010162000653565b5090565b6000604051905090565b600080fd5b600080fd5b600080fd5b6000601f19601f8301169050919050565b7f4e487b7100000000000000000000000000000000000000000000000000000000600052604160045260246000fd5b620006d5826200068a565b810181811067ffffffffffffffff82111715620006f757620006f66200069b565b5b80604052505050565b60006200070c62000671565b90506200071a8282620006ca565b919050565b600067ffffffffffffffff8211156200073d576200073c6200069b565b5b602082029050602081019050919050565b600080fd5b600073ffffffffffffffffffffffffffffffffffffffff82169050919050565b6000620007808262000753565b9050919050565b620007928162000773565b81146200079e57600080fd5b50565b600081519050620007b28162000787565b92915050565b6000620007cf620007c9846200071f565b62000700565b90508083825260208201905060208402830185811115620007f557620007f46200074e565b5b835b818110156200082257806200080d8882620007a1565b845260208401935050602081019050620007f7565b5050509392505050565b600082601f83011262000844576200084362000685565b5b815162000856848260208601620007b8565b91505092915050565b600080fd5b600067ffffffffffffffff8211156200088257620008816200069b565b5b6200088d826200068a565b9050602081019050919050565b60005b83811015620008ba5780820151818401526020810190506200089d565b83811115620008ca576000848401525b50505050565b6000620008e7620008e18462000864565b62000700565b9050828152602081018484840111156200090657620009056200085f565b5b620009138482856200089a565b509392505050565b600082601f83011262000933576200093262000685565b5b815162000945848260208601620008d0565b91505092915050565b6000806000606084860312156200096a57620009696200067b565b5b600084015167ffffffffffffffff8111156200098b576200098a62000680565b5b62000999868287016200082c565b935050602084015167ffffffffffffffff811115620009bd57620009bc62000680565b5b620009cb868287016200091b565b9250506040620009de86828701620007a1565b9150509250925092565b7f4e487b7100000000000000000000000000000000000000000000000000000000600052603260045260246000fd5b7f4e487b7100000000000000000000000000000000000000000000000000000000600052601160045260246000fd5b6000819050919050565b600062000a5d8262000a46565b91507fffffffffffffffffffffffffffffffffffffffffffffffffffffffffffffffff820362000a925762000a9162000a17565b5b600182019050919050565b600081519050919050565b7f4e487b7100000000000000000000000000000000000000000000000000000000600052602260045260246000fd5b6000600282049050600182168062000af057607f821691505b60208210810362000b065762000b0562000aa8565b5b50919050565b60008190508160005260206000209050919050565b60006020601f8301049050919050565b600082821b905092915050565b60006008830262000b707fffffffffffffffffffffffffffffffffffffffffffffffffffffffffffffffff8262000b31565b62000b7c868362000b31565b95508019841693508086168417925050509392505050565b6000819050919050565b600062000bbf62000bb962000bb38462000a46565b62000b94565b62000a46565b9050919050565b6000819050919050565b62000bdb8362000b9e565b62000bf362000bea8262000bc6565b84845462000b3e565b825550505050565b600090565b62000c0a62000bfb565b62000c1781848462000bd0565b505050565b5b8181101562000c3f5762000c3360008262000c00565b60018101905062000c1d565b5050565b601f82111562000c8e5762000c588162000b0c565b62000c638462000b21565b8101602085101562000c73578190505b62000c8b62000c828562000b21565b83018262000c1c565b50505b505050565b600082821c905092915050565b600062000cb36000198460080262000c93565b1980831691505092915050565b600062000cce838362000ca0565b9150826002028217905092915050565b62000ce98262000a9d565b67ffffffffffffffff81111562000d055762000d046200069b565b5b62000d11825462000ad7565b62000d1e82828562000c43565b600060209050601f83116001811462000d56576000841562000d41578287015190505b62000d4d858262000cc0565b86555062000dbd565b601f19841662000d668662000b0c565b60005b8281101562000d905784890151825560018201915060208501945060208101905062000d69565b8683101562000db0578489015162000dac601f89168262000ca0565b8355505b6001600288020188555050505b505050505050565b600082825260208201905092915050565b7f455243313135353a206d696e7420746f20746865207a65726f2061646472657360008201527f7300000000000000000000000000000000000000000000000000000000000000602082015250565b600062000e3460218362000dc5565b915062000e418262000dd6565b604082019050919050565b6000602082019050818103600083015262000e678162000e25565b9050919050565b600062000e7b8262000a46565b915062000e888362000a46565b9250827fffffffffffffffffffffffffffffffffffffffffffffffffffffffffffffffff0382111562000ec05762000ebf62000a17565b5b828201905092915050565b62000ed68162000a46565b82525050565b600060408201905062000ef3600083018562000ecb565b62000f02602083018462000ecb565b9392505050565b62000f148162000773565b82525050565b600081519050919050565b600082825260208201905092915050565b600062000f438262000f1a565b62000f4f818562000f25565b935062000f618185602086016200089a565b62000f6c816200068a565b840191505092915050565b600060a08201905062000f8e600083018862000f09565b62000f9d602083018762000f09565b62000fac604083018662000ecb565b62000fbb606083018562000ecb565b818103608083015262000fcf818462000f36565b90509695505050505050565b60007fffffffff0000000000000000000000000000000000000000000000000000000082169050919050565b620010128162000fdb565b81146200101e57600080fd5b50565b600081519050620010328162001007565b92915050565b6000602082840312156200105157620010506200067b565b5b6000620010618482850162001021565b91505092915050565b60008160e01c9050919050565b600060033d1115620010995760046000803e620010966000516200106a565b90505b90565b600060443d106200113457620010b162000671565b60043d036004823e80513d602482011167ffffffffffffffff82111715620010db57505062001134565b808201805167ffffffffffffffff811115620010fb575050505062001134565b80602083010160043d0385018111156200111a57505050505062001134565b6200112b82602001850186620006ca565b82955050505050505b90565b6000620011448262000a9d565b62001150818562000dc5565b9350620011628185602086016200089a565b6200116d816200068a565b840191505092915050565b6000602082019050818103600083015262001194818462001137565b905092915050565b7f455243313135353a207472616e7366657220746f206e6f6e204552433131353560008201527f526563656976657220696d706c656d656e746572000000000000000000000000602082015250565b6000620011fa60348362000dc5565b915062001207826200119c565b604082019050919050565b600060208201905081810360008301526200122d81620011eb565b9050919050565b7f455243313135353a204552433131353552656365697665722072656a6563746560008201527f6420746f6b656e73000000000000000000000000000000000000000000000000602082015250565b60006200129260288362000dc5565b91506200129f8262001234565b604082019050919050565b60006020820190508181036000830152620012c58162001283565b9050919050565b6129de80620012dc6000396000f3fe608060405234801561001057600080fd5b506004361061009d5760003560e01c80639e7a13ad116100665780639e7a13ad1461017e578063a22cb465146101ae578063e985e9c5146101ca578063f242432a146101fa578063f83efec8146102165761009d565b8062fdd58e146100a257806301ffc9a7146100d25780630e89341c146101025780632eb2c2d6146101325780634e1273f41461014e575b600080fd5b6100bc60048036038101906100b79190611700565b610232565b6040516100c9919061174f565b60405180910390f35b6100ec60048036038101906100e791906117c2565b6102fa565b6040516100f9919061180a565b60405180910390f35b61011c60048036038101906101179190611825565b6103dc565b60405161012991906118eb565b60405180910390f35b61014c60048036038101906101479190611b0a565b610470565b005b61016860048036038101906101639190611c9c565b610511565b6040516101759190611dd2565b60405180910390f35b61019860048036038101906101939190611825565b61062a565b6040516101a59190611e03565b60405180910390f35b6101c860048036038101906101c39190611e4a565b610669565b005b6101e460048036038101906101df9190611e8a565b61067f565b6040516101f1919061180a565b60405180910390f35b610214600480360381019061020f9190611eca565b610713565b005b610230600480360381019061022b9190611f61565b6107b4565b005b60008073ffffffffffffffffffffffffffffffffffffffff168373ffffffffffffffffffffffffffffffffffffffff16036102a2576040517f08c379a000000000000000000000000000000000000000000000000000000000815260040161029990612000565b60405180910390fd5b60008083815260200190815260200160002060008473ffffffffffffffffffffffffffffffffffffffff1673ffffffffffffffffffffffffffffffffffffffff16815260200190815260200160002054905092915050565b60007fd9b67a26000000000000000000000000000000000000000000000000000000007bffffffffffffffffffffffffffffffffffffffffffffffffffffffff1916827bffffffffffffffffffffffffffffffffffffffffffffffffffffffff191614806103c557507f0e89341c000000000000000000000000000000000000000000000000000000007bffffffffffffffffffffffffffffffffffffffffffffffffffffffff1916827bffffffffffffffffffffffffffffffffffffffffffffffffffffffff1916145b806103d557506103d482610840565b5b9050919050565b6060600280546103eb9061204f565b80601f01602080910402602001604051908101604052809291908181526020018280546104179061204f565b80156104645780601f1061043957610100808354040283529160200191610464565b820191906000526020600020905b81548152906001019060200180831161044757829003601f168201915b50505050509050919050565b6104786108aa565b73ffffffffffffffffffffffffffffffffffffffff168573ffffffffffffffffffffffffffffffffffffffff1614806104be57506104bd856104b86108aa565b61067f565b5b6104fd576040517f08c379a00000000000000000000000000000000000000000000000000000000081526004016104f4906120f2565b60405180910390fd5b61050a85858585856108b2565b5050505050565b60608151835114610557576040517f08c379a000000000000000000000000000000000000000000000000000000000815260040161054e90612184565b60405180910390fd5b6000835167ffffffffffffffff81111561057457610573611912565b5b6040519080825280602002602001820160405280156105a25781602001602082028036833780820191505090505b50905060005b845181101561061f576105ef8582815181106105c7576105c66121a4565b5b60200260200101518583815181106105e2576105e16121a4565b5b6020026020010151610232565b828281518110610602576106016121a4565b5b6020026020010181815250508061061890612202565b90506105a8565b508091505092915050565b6004818154811061063a57600080fd5b906000526020600020016000915054906101000a900473ffffffffffffffffffffffffffffffffffffffff1681565b61067b6106746108aa565b8383610bd3565b5050565b6000600160008473ffffffffffffffffffffffffffffffffffffffff1673ffffffffffffffffffffffffffffffffffffffff16815260200190815260200160002060008373ffffffffffffffffffffffffffffffffffffffff1673ffffffffffffffffffffffffffffffffffffffff16815260200190815260200160002060009054906101000a900460ff16905092915050565b61071b6108aa565b73ffffffffffffffffffffffffffffffffffffffff168573ffffffffffffffffffffffffffffffffffffffff16148061076157506107608561075b6108aa565b61067f565b5b6107a0576040517f08c379a0000000000000000000000000000000000000000000000000000000008152600401610797906120f2565b60405180910390fd5b6107ad8585858585610d3f565b5050505050565b600360009054906101000a900473ffffffffffffffffffffffffffffffffffffffff1673ffffffffffffffffffffffffffffffffffffffff163373ffffffffffffffffffffffffffffffffffffffff161461080e57600080fd5b61081a81600180610fda565b50565b6000808273ffffffffffffffffffffffffffffffffffffffff163b119050919050565b60007f01ffc9a7000000000000000000000000000000000000000000000000000000007bffffffffffffffffffffffffffffffffffffffffffffffffffffffff1916827bffffffffffffffffffffffffffffffffffffffffffffffffffffffff1916149050919050565b600033905090565b81518351146108f6576040517f08c379a00000000000000000000000000000000000000000000000000000000081526004016108ed906122bc565b60405180910390fd5b600073ffffffffffffffffffffffffffffffffffffffff168473ffffffffffffffffffffffffffffffffffffffff1603610965576040517f08c379a000000000000000000000000000000000000000000000000000000000815260040161095c9061234e565b60405180910390fd5b600061096f6108aa565b905061097f818787878787611220565b60005b8451811015610b305760008582815181106109a05761099f6121a4565b5b6020026020010151905060008583815181106109bf576109be6121a4565b5b60200260200101519050600080600084815260200190815260200160002060008b73ffffffffffffffffffffffffffffffffffffffff1673ffffffffffffffffffffffffffffffffffffffff16815260200190815260200160002054905081811015610a60576040517f08c379a0000000000000000000000000000000000000000000000000000000008152600401610a57906123e0565b60405180910390fd5b81810360008085815260200190815260200160002060008c73ffffffffffffffffffffffffffffffffffffffff1673ffffffffffffffffffffffffffffffffffffffff168152602001908152602001600020819055508160008085815260200190815260200160002060008b73ffffffffffffffffffffffffffffffffffffffff1673ffffffffffffffffffffffffffffffffffffffff1681526020019081526020016000206000828254610b159190612400565b9250508190555050505080610b2990612202565b9050610982565b508473ffffffffffffffffffffffffffffffffffffffff168673ffffffffffffffffffffffffffffffffffffffff168273ffffffffffffffffffffffffffffffffffffffff167f4a39dc06d4c0dbc64b70af90fd698a233a518aa5d07e595d983b8c0526c8f7fb8787604051610ba7929190612456565b60405180910390a4610bbd818787878787611228565b610bcb818787878787611230565b505050505050565b8173ffffffffffffffffffffffffffffffffffffffff168373ffffffffffffffffffffffffffffffffffffffff1603610c41576040517f08c379a0000000000000000000000000000000000000000000000000000000008152600401610c38906124ff565b60405180910390fd5b80600160008573ffffffffffffffffffffffffffffffffffffffff1673ffffffffffffffffffffffffffffffffffffffff16815260200190815260200160002060008473ffffffffffffffffffffffffffffffffffffffff1673ffffffffffffffffffffffffffffffffffffffff16815260200190815260200160002060006101000a81548160ff0219169083151502179055508173ffffffffffffffffffffffffffffffffffffffff168373ffffffffffffffffffffffffffffffffffffffff167f17307eab39ab6107e8899845ad3d59bd9653f200f220920489ca2b5937696c3183604051610d32919061180a565b60405180910390a3505050565b600073ffffffffffffffffffffffffffffffffffffffff168473ffffffffffffffffffffffffffffffffffffffff1603610dae576040517f08c379a0000000000000000000000000000000000000000000000000000000008152600401610da59061234e565b60405180910390fd5b6000610db86108aa565b90506000610dc585611407565b90506000610dd285611407565b9050610de2838989858589611220565b600080600088815260200190815260200160002060008a73ffffffffffffffffffffffffffffffffffffffff1673ffffffffffffffffffffffffffffffffffffffff16815260200190815260200160002054905085811015610e79576040517f08c379a0000000000000000000000000000000000000000000000000000000008152600401610e70906123e0565b60405180910390fd5b85810360008089815260200190815260200160002060008b73ffffffffffffffffffffffffffffffffffffffff1673ffffffffffffffffffffffffffffffffffffffff168152602001908152602001600020819055508560008089815260200190815260200160002060008a73ffffffffffffffffffffffffffffffffffffffff1673ffffffffffffffffffffffffffffffffffffffff1681526020019081526020016000206000828254610f2e9190612400565b925050819055508773ffffffffffffffffffffffffffffffffffffffff168973ffffffffffffffffffffffffffffffffffffffff168573ffffffffffffffffffffffffffffffffffffffff167fc3d58168c5ae7397731d063d5bbf3d657854427343f4c083240f7aacaa2d0f628a8a604051610fab92919061251f565b60405180910390a4610fc1848a8a86868a611228565b610fcf848a8a8a8a8a611481565b505050505050505050565b600073ffffffffffffffffffffffffffffffffffffffff168373ffffffffffffffffffffffffffffffffffffffff1603611049576040517f08c379a0000000000000000000000000000000000000000000000000000000008152600401611040906125ba565b60405180910390fd5b60006110536108aa565b9050600061106084611407565b9050600061106d84611407565b905061108d83876000858560405180602001604052806000815250611220565b600080600087815260200190815260200160002060008873ffffffffffffffffffffffffffffffffffffffff1673ffffffffffffffffffffffffffffffffffffffff16815260200190815260200160002054905084811015611124576040517f08c379a000000000000000000000000000000000000000000000000000000000815260040161111b9061264c565b60405180910390fd5b84810360008088815260200190815260200160002060008973ffffffffffffffffffffffffffffffffffffffff1673ffffffffffffffffffffffffffffffffffffffff16815260200190815260200160002081905550600073ffffffffffffffffffffffffffffffffffffffff168773ffffffffffffffffffffffffffffffffffffffff168573ffffffffffffffffffffffffffffffffffffffff167fc3d58168c5ae7397731d063d5bbf3d657854427343f4c083240f7aacaa2d0f6289896040516111f192919061251f565b60405180910390a461121784886000868660405180602001604052806000815250611228565b50505050505050565b505050505050565b505050505050565b61124f8473ffffffffffffffffffffffffffffffffffffffff1661081d565b156113ff578373ffffffffffffffffffffffffffffffffffffffff1663bc197c8187878686866040518663ffffffff1660e01b81526004016112959594939291906126c1565b6020604051808303816000875af19250505080156112d157506040513d601f19601f820116820180604052508101906112ce919061273e565b60015b611376576112dd612778565b806308c379a00361133957506112f161279a565b806112fc575061133b565b806040517f08c379a000000000000000000000000000000000000000000000000000000000815260040161133091906118eb565b60405180910390fd5b505b6040517f08c379a000000000000000000000000000000000000000000000000000000000815260040161136d9061289c565b60405180910390fd5b63bc197c8160e01b7bffffffffffffffffffffffffffffffffffffffffffffffffffffffff1916817bffffffffffffffffffffffffffffffffffffffffffffffffffffffff1916146113fd576040517f08c379a00000000000000000000000000000000000000000000000000000000081526004016113f49061292e565b60405180910390fd5b505b505050505050565b60606000600167ffffffffffffffff81111561142657611425611912565b5b6040519080825280602002602001820160405280156114545781602001602082028036833780820191505090505b509050828160008151811061146c5761146b6121a4565b5b60200260200101818152505080915050919050565b6114a08473ffffffffffffffffffffffffffffffffffffffff1661081d565b15611650578373ffffffffffffffffffffffffffffffffffffffff1663f23a6e6187878686866040518663ffffffff1660e01b81526004016114e695949392919061294e565b6020604051808303816000875af192505050801561152257506040513d601f19601f8201168201806040525081019061151f919061273e565b60015b6115c75761152e612778565b806308c379a00361158a575061154261279a565b8061154d575061158c565b806040517f08c379a000000000000000000000000000000000000000000000000000000000815260040161158191906118eb565b60405180910390fd5b505b6040517f08c379a00000000000000000000000000000000000000000000000000000000081526004016115be9061289c565b60405180910390fd5b63f23a6e6160e01b7bffffffffffffffffffffffffffffffffffffffffffffffffffffffff1916817bffffffffffffffffffffffffffffffffffffffffffffffffffffffff19161461164e576040517f08c379a00000000000000000000000000000000000000000000000000000000081526004016116459061292e565b60405180910390fd5b505b505050505050565b6000604051905090565b600080fd5b600080fd5b600073ffffffffffffffffffffffffffffffffffffffff82169050919050565b60006116978261166c565b9050919050565b6116a78161168c565b81146116b257600080fd5b50565b6000813590506116c48161169e565b92915050565b6000819050919050565b6116dd816116ca565b81146116e857600080fd5b50565b6000813590506116fa816116d4565b92915050565b6000806040838503121561171757611716611662565b5b6000611725858286016116b5565b9250506020611736858286016116eb565b9150509250929050565b611749816116ca565b82525050565b60006020820190506117646000830184611740565b92915050565b60007fffffffff0000000000000000000000000000000000000000000000000000000082169050919050565b61179f8161176a565b81146117aa57600080fd5b50565b6000813590506117bc81611796565b92915050565b6000602082840312156117d8576117d7611662565b5b60006117e6848285016117ad565b91505092915050565b60008115159050919050565b611804816117ef565b82525050565b600060208201905061181f60008301846117fb565b92915050565b60006020828403121561183b5761183a611662565b5b6000611849848285016116eb565b91505092915050565b600081519050919050565b600082825260208201905092915050565b60005b8381101561188c578082015181840152602081019050611871565b8381111561189b576000848401525b50505050565b6000601f19601f8301169050919050565b60006118bd82611852565b6118c7818561185d565b93506118d781856020860161186e565b6118e0816118a1565b840191505092915050565b6000602082019050818103600083015261190581846118b2565b905092915050565b600080fd5b7f4e487b7100000000000000000000000000000000000000000000000000000000600052604160045260246000fd5b61194a826118a1565b810181811067ffffffffffffffff8211171561196957611968611912565b5b80604052505050565b600061197c611658565b90506119888282611941565b919050565b600067ffffffffffffffff8211156119a8576119a7611912565b5b602082029050602081019050919050565b600080fd5b60006119d16119cc8461198d565b611972565b905080838252602082019050602084028301858111156119f4576119f36119b9565b5b835b81811015611a1d5780611a0988826116eb565b8452602084019350506020810190506119f6565b5050509392505050565b600082601f830112611a3c57611a3b61190d565b5b8135611a4c8482602086016119be565b91505092915050565b600080fd5b600067ffffffffffffffff821115611a7557611a74611912565b5b611a7e826118a1565b9050602081019050919050565b82818337600083830152505050565b6000611aad611aa884611a5a565b611972565b905082815260208101848484011115611ac957611ac8611a55565b5b611ad4848285611a8b565b509392505050565b600082601f830112611af157611af061190d565b5b8135611b01848260208601611a9a565b91505092915050565b600080600080600060a08688031215611b2657611b25611662565b5b6000611b34888289016116b5565b9550506020611b45888289016116b5565b945050604086013567ffffffffffffffff811115611b6657611b65611667565b5b611b7288828901611a27565b935050606086013567ffffffffffffffff811115611b9357611b92611667565b5b611b9f88828901611a27565b925050608086013567ffffffffffffffff811115611bc057611bbf611667565b5b611bcc88828901611adc565b9150509295509295909350565b600067ffffffffffffffff821115611bf457611bf3611912565b5b602082029050602081019050919050565b6000611c18611c1384611bd9565b611972565b90508083825260208201905060208402830185811115611c3b57611c3a6119b9565b5b835b81811015611c645780611c5088826116b5565b845260208401935050602081019050611c3d565b5050509392505050565b600082601f830112611c8357611c8261190d565b5b8135611c93848260208601611c05565b91505092915050565b60008060408385031215611cb357611cb2611662565b5b600083013567ffffffffffffffff811115611cd157611cd0611667565b5b611cdd85828601611c6e565b925050602083013567ffffffffffffffff811115611cfe57611cfd611667565b5b611d0a85828601611a27565b9150509250929050565b600081519050919050565b600082825260208201905092915050565b6000819050602082019050919050565b611d49816116ca565b82525050565b6000611d5b8383611d40565b60208301905092915050565b6000602082019050919050565b6000611d7f82611d14565b611d898185611d1f565b9350611d9483611d30565b8060005b83811015611dc5578151611dac8882611d4f565b9750611db783611d67565b925050600181019050611d98565b5085935050505092915050565b60006020820190508181036000830152611dec8184611d74565b905092915050565b611dfd8161168c565b82525050565b6000602082019050611e186000830184611df4565b92915050565b611e27816117ef565b8114611e3257600080fd5b50565b600081359050611e4481611e1e565b92915050565b60008060408385031215611e6157611e60611662565b5b6000611e6f858286016116b5565b9250506020611e8085828601611e35565b9150509250929050565b60008060408385031215611ea157611ea0611662565b5b6000611eaf858286016116b5565b9250506020611ec0858286016116b5565b9150509250929050565b600080600080600060a08688031215611ee657611ee5611662565b5b6000611ef4888289016116b5565b9550506020611f05888289016116b5565b9450506040611f16888289016116eb565b9350506060611f27888289016116eb565b925050608086013567ffffffffffffffff811115611f4857611f47611667565b5b611f5488828901611adc565b9150509295509295909350565b600060208284031215611f7757611f76611662565b5b6000611f85848285016116b5565b91505092915050565b7f455243313135353a2061646472657373207a65726f206973206e6f742061207660008201527f616c6964206f776e657200000000000000000000000000000000000000000000602082015250565b6000611fea602a8361185d565b9150611ff582611f8e565b604082019050919050565b6000602082019050818103600083015261201981611fdd565b9050919050565b7f4e487b7100000000000000000000000000000000000000000000000000000000600052602260045260246000fd5b6000600282049050600182168061206757607f821691505b60208210810361207a57612079612020565b5b50919050565b7f455243313135353a2063616c6c6572206973206e6f7420746f6b656e206f776e60008201527f6572206e6f7220617070726f7665640000000000000000000000000000000000602082015250565b60006120dc602f8361185d565b91506120e782612080565b604082019050919050565b6000602082019050818103600083015261210b816120cf565b9050919050565b7f455243313135353a206163636f756e747320616e6420696473206c656e67746860008201527f206d69736d617463680000000000000000000000000000000000000000000000602082015250565b600061216e60298361185d565b915061217982612112565b604082019050919050565b6000602082019050818103600083015261219d81612161565b9050919050565b7f4e487b7100000000000000000000000000000000000000000000000000000000600052603260045260246000fd5b7f4e487b7100000000000000000000000000000000000000000000000000000000600052601160045260246000fd5b600061220d826116ca565b91507fffffffffffffffffffffffffffffffffffffffffffffffffffffffffffffffff820361223f5761223e6121d3565b5b600182019050919050565b7f455243313135353a2069647320616e6420616d6f756e7473206c656e6774682060008201527f6d69736d61746368000000000000000000000000000000000000000000000000602082015250565b60006122a660288361185d565b91506122b18261224a565b604082019050919050565b600060208201905081810360008301526122d581612299565b9050919050565b7f455243313135353a207472616e7366657220746f20746865207a65726f20616460008201527f6472657373000000000000000000000000000000000000000000000000000000602082015250565b600061233860258361185d565b9150612343826122dc565b604082019050919050565b600060208201905081810360008301526123678161232b565b9050919050565b7f455243313135353a20696e73756666696369656e742062616c616e636520666f60008201527f72207472616e7366657200000000000000000000000000000000000000000000602082015250565b60006123ca602a8361185d565b91506123d58261236e565b604082019050919050565b600060208201905081810360008301526123f9816123bd565b9050919050565b600061240b826116ca565b9150612416836116ca565b9250827fffffffffffffffffffffffffffffffffffffffffffffffffffffffffffffffff0382111561244b5761244a6121d3565b5b828201905092915050565b600060408201905081810360008301526124708185611d74565b905081810360208301526124848184611d74565b90509392505050565b7f455243313135353a2073657474696e6720617070726f76616c2073746174757360008201527f20666f722073656c660000000000000000000000000000000000000000000000602082015250565b60006124e960298361185d565b91506124f48261248d565b604082019050919050565b60006020820190508181036000830152612518816124dc565b9050919050565b60006040820190506125346000830185611740565b6125416020830184611740565b9392505050565b7f455243313135353a206275726e2066726f6d20746865207a65726f206164647260008201527f6573730000000000000000000000000000000000000000000000000000000000602082015250565b60006125a460238361185d565b91506125af82612548565b604082019050919050565b600060208201905081810360008301526125d381612597565b9050919050565b7f455243313135353a206275726e20616d6f756e7420657863656564732062616c60008201527f616e636500000000000000000000000000000000000000000000000000000000602082015250565b600061263660248361185d565b9150612641826125da565b604082019050919050565b6000602082019050818103600083015261266581612629565b9050919050565b600081519050919050565b600082825260208201905092915050565b60006126938261266c565b61269d8185612677565b93506126ad81856020860161186e565b6126b6816118a1565b840191505092915050565b600060a0820190506126d66000830188611df4565b6126e36020830187611df4565b81810360408301526126f58186611d74565b905081810360608301526127098185611d74565b9050818103608083015261271d8184612688565b90509695505050505050565b60008151905061273881611796565b92915050565b60006020828403121561275457612753611662565b5b600061276284828501612729565b91505092915050565b60008160e01c9050919050565b600060033d11156127975760046000803e61279460005161276b565b90505b90565b600060443d10612827576127ac611658565b60043d036004823e80513d602482011167ffffffffffffffff821117156127d4575050612827565b808201805167ffffffffffffffff8111156127f25750505050612827565b80602083010160043d03850181111561280f575050505050612827565b61281e82602001850186611941565b82955050505050505b90565b7f455243313135353a207472616e7366657220746f206e6f6e204552433131353560008201527f526563656976657220696d706c656d656e746572000000000000000000000000602082015250565b600061288660348361185d565b91506128918261282a565b604082019050919050565b600060208201905081810360008301526128b581612879565b9050919050565b7f455243313135353a204552433131353552656365697665722072656a6563746560008201527f6420746f6b656e73000000000000000000000000000000000000000000000000602082015250565b600061291860288361185d565b9150612923826128bc565b604082019050919050565b600060208201905081810360008301526129478161290b565b9050919050565b600060a0820190506129636000830188611df4565b6129706020830187611df4565b61297d6040830186611740565b61298a6060830185611740565b818103608083015261299c8184612688565b9050969550505050505056fea26469706673582212205b89b83c1f6e9da1cf329650ef16d892cb4dcebe2786ed3df161ad5de364a00164736f6c634300080f0033a2646970667358221220af06a1be57c3a730afd3b4bd1fd34c23ade76901f3346de2c53a3b9f8f317e6664736f6c634300080f0033",
  "linkReferences": {},
  "deployedLinkReferences": {}
}