{
  "_format": "hh-sol-artifact-1",
  "contractName": "Person",
  "sourceName": "ethereum/contracts/Person.sol",
  "abi": [
    {
      "inputs": [
        {
          "internalType": "address",
          "name": "_owner",
          "type": "address"
        }
      ],
      "stateMutability": "nonpayable",
      "type": "constructor"
    },
    {
      "inputs": [
        {
          "internalType": "string",
          "name": "",
          "type": "string"
        },
        {
          "internalType": "uint256",
          "name": "",
          "type": "uint256"
        }
      ],
      "name": "activities",
      "outputs": [
        {
          "internalType": "address",
          "name": "",
          "type": "address"
        }
      ],
      "stateMutability": "view",
      "type": "function"
    },
    {
      "inputs": [],
      "name": "eraseMe",
      "outputs": [],
      "stateMutability": "nonpayable",
      "type": "function"
    },
    {
      "inputs": [
        {
          "internalType": "string",
          "name": "_activityType",
          "type": "string"
        }
      ],
      "name": "getActivities",
      "outputs": [
        {
          "internalType": "address[]",
          "name": "",
          "type": "address[]"
        }
      ],
      "stateMutability": "view",
      "type": "function"
    },
    {
      "inputs": [
        {
          "internalType": "string",
          "name": "_id",
          "type": "string"
        }
      ],
      "name": "getCheckIn",
      "outputs": [
        {
          "internalType": "string[]",
          "name": "",
          "type": "string[]"
        }
      ],
      "stateMutability": "view",
      "type": "function"
    },
    {
      "inputs": [
        {
          "internalType": "string",
          "name": "_id",
          "type": "string"
        }
      ],
      "name": "getCheckOut",
      "outputs": [
        {
          "internalType": "string[]",
          "name": "",
          "type": "string[]"
        }
      ],
      "stateMutability": "view",
      "type": "function"
    },
    {
      "inputs": [
        {
          "internalType": "string",
          "name": "_activityType",
          "type": "string"
        },
        {
          "internalType": "address",
          "name": "_activityAddress",
          "type": "address"
        }
      ],
      "name": "newActivity",
      "outputs": [],
      "stateMutability": "nonpayable",
      "type": "function"
    },
    {
      "inputs": [
        {
          "internalType": "address",
          "name": "",
          "type": "address"
        },
        {
          "internalType": "address",
          "name": "",
          "type": "address"
        },
        {
          "internalType": "uint256[]",
          "name": "",
          "type": "uint256[]"
        },
        {
          "internalType": "uint256[]",
          "name": "",
          "type": "uint256[]"
        },
        {
          "internalType": "bytes",
          "name": "",
          "type": "bytes"
        }
      ],
      "name": "onERC1155BatchReceived",
      "outputs": [
        {
          "internalType": "bytes4",
          "name": "",
          "type": "bytes4"
        }
      ],
      "stateMutability": "nonpayable",
      "type": "function"
    },
    {
      "inputs": [
        {
          "internalType": "address",
          "name": "",
          "type": "address"
        },
        {
          "internalType": "address",
          "name": "",
          "type": "address"
        },
        {
          "internalType": "uint256",
          "name": "",
          "type": "uint256"
        },
        {
          "internalType": "uint256",
          "name": "",
          "type": "uint256"
        },
        {
          "internalType": "bytes",
          "name": "",
          "type": "bytes"
        }
      ],
      "name": "onERC1155Received",
      "outputs": [
        {
          "internalType": "bytes4",
          "name": "",
          "type": "bytes4"
        }
      ],
      "stateMutability": "nonpayable",
      "type": "function"
    },
    {
      "inputs": [
        {
          "internalType": "string",
          "name": "_date",
          "type": "string"
        },
        {
          "internalType": "string",
          "name": "_time",
          "type": "string"
        }
      ],
      "name": "registerCheckIn",
      "outputs": [],
      "stateMutability": "nonpayable",
      "type": "function"
    },
    {
      "inputs": [
        {
          "internalType": "string",
          "name": "_date",
          "type": "string"
        },
        {
          "internalType": "string",
          "name": "_time",
          "type": "string"
        }
      ],
      "name": "registerCheckOut",
      "outputs": [],
      "stateMutability": "nonpayable",
      "type": "function"
    },
    {
      "inputs": [
        {
          "internalType": "bytes4",
          "name": "interfaceId",
          "type": "bytes4"
        }
      ],
      "name": "supportsInterface",
      "outputs": [
        {
          "internalType": "bool",
          "name": "",
          "type": "bool"
        }
      ],
      "stateMutability": "view",
      "type": "function"
    }
  ],
  "bytecode": "0x60806040523480156200001157600080fd5b5060405162001857380380620018578339818101604052810190620000379190620000e8565b806000806101000a81548173ffffffffffffffffffffffffffffffffffffffff021916908373ffffffffffffffffffffffffffffffffffffffff160217905550506200011a565b600080fd5b600073ffffffffffffffffffffffffffffffffffffffff82169050919050565b6000620000b08262000083565b9050919050565b620000c281620000a3565b8114620000ce57600080fd5b50565b600081519050620000e281620000b7565b92915050565b6000602082840312156200010157620001006200007e565b5b60006200011184828501620000d1565b91505092915050565b61172d806200012a6000396000f3fe608060405234801561001057600080fd5b50600436106100a85760003560e01c8063bc197c8111610071578063bc197c8114610189578063bdeb5fc4146101b9578063cf704b3c146101c3578063db43775a146101df578063e0ca4301146101fb578063f23a6e611461022b576100a8565b8062b91f1a146100ad57806301ffc9a7146100dd5780631961b32f1461010d57806330683f521461013d578063ac53d83d1461016d575b600080fd5b6100c760048036038101906100c29190610b8f565b61025b565b6040516100d49190610cc8565b60405180910390f35b6100f760048036038101906100f29190610d42565b61035f565b6040516101049190610d8a565b60405180910390f35b61012760048036038101906101229190610b8f565b6103d9565b6040516101349190610eef565b60405180910390f35b61015760048036038101906101529190610f47565b610528565b6040516101649190610fb2565b60405180910390f35b61018760048036038101906101829190610fcd565b61058c565b005b6101a3600480360381019061019e91906111da565b610639565b6040516101b091906112b8565b60405180910390f35b6101c161064e565b005b6101dd60048036038101906101d89190610fcd565b6106df565b005b6101f960048036038101906101f491906112d3565b61078c565b005b61021560048036038101906102109190610b8f565b610867565b6040516102229190610eef565b60405180910390f35b6102456004803603810190610240919061132f565b6109b6565b60405161025291906112b8565b60405180910390f35b606060008054906101000a900473ffffffffffffffffffffffffffffffffffffffff1673ffffffffffffffffffffffffffffffffffffffff163373ffffffffffffffffffffffffffffffffffffffff16146102b557600080fd5b6003826040516102c59190611402565b908152602001604051809103902080548060200260200160405190810160405280929190818152602001828054801561035357602002820191906000526020600020905b8160009054906101000a900473ffffffffffffffffffffffffffffffffffffffff1673ffffffffffffffffffffffffffffffffffffffff1681526020019060010190808311610309575b50505050509050919050565b60007f4e2312e0000000000000000000000000000000000000000000000000000000007bffffffffffffffffffffffffffffffffffffffffffffffffffffffff1916827bffffffffffffffffffffffffffffffffffffffffffffffffffffffff191614806103d257506103d1826109cb565b5b9050919050565b606060008054906101000a900473ffffffffffffffffffffffffffffffffffffffff1673ffffffffffffffffffffffffffffffffffffffff163373ffffffffffffffffffffffffffffffffffffffff161461043357600080fd5b6001826040516104439190611402565b9081526020016040518091039020805480602002602001604051908101604052809291908181526020016000905b8282101561051d57838290600052602060002001805461049090611448565b80601f01602080910402602001604051908101604052809291908181526020018280546104bc90611448565b80156105095780601f106104de57610100808354040283529160200191610509565b820191906000526020600020905b8154815290600101906020018083116104ec57829003601f168201915b505050505081526020019060010190610471565b505050509050919050565b600382805160208101820180518482526020830160208501208183528095505050505050818154811061055a57600080fd5b906000526020600020016000915091509054906101000a900473ffffffffffffffffffffffffffffffffffffffff1681565b60008054906101000a900473ffffffffffffffffffffffffffffffffffffffff1673ffffffffffffffffffffffffffffffffffffffff163373ffffffffffffffffffffffffffffffffffffffff16146105e457600080fd5b6002826040516105f49190611402565b9081526020016040518091039020819080600181540180825580915050600190039060005260206000200160009091909190915090816106349190611625565b505050565b600063bc197c8160e01b905095945050505050565b60008054906101000a900473ffffffffffffffffffffffffffffffffffffffff1673ffffffffffffffffffffffffffffffffffffffff163373ffffffffffffffffffffffffffffffffffffffff16146106a657600080fd5b60008054906101000a900473ffffffffffffffffffffffffffffffffffffffff1673ffffffffffffffffffffffffffffffffffffffff16ff5b60008054906101000a900473ffffffffffffffffffffffffffffffffffffffff1673ffffffffffffffffffffffffffffffffffffffff163373ffffffffffffffffffffffffffffffffffffffff161461073757600080fd5b6001826040516107479190611402565b9081526020016040518091039020819080600181540180825580915050600190039060005260206000200160009091909190915090816107879190611625565b505050565b60008054906101000a900473ffffffffffffffffffffffffffffffffffffffff1673ffffffffffffffffffffffffffffffffffffffff163373ffffffffffffffffffffffffffffffffffffffff16146107e457600080fd5b6003826040516107f49190611402565b9081526020016040518091039020819080600181540180825580915050600190039060005260206000200160009091909190916101000a81548173ffffffffffffffffffffffffffffffffffffffff021916908373ffffffffffffffffffffffffffffffffffffffff1602179055505050565b606060008054906101000a900473ffffffffffffffffffffffffffffffffffffffff1673ffffffffffffffffffffffffffffffffffffffff163373ffffffffffffffffffffffffffffffffffffffff16146108c157600080fd5b6002826040516108d19190611402565b9081526020016040518091039020805480602002602001604051908101604052809291908181526020016000905b828210156109ab57838290600052602060002001805461091e90611448565b80601f016020809104026020016040519081016040528092919081815260200182805461094a90611448565b80156109975780601f1061096c57610100808354040283529160200191610997565b820191906000526020600020905b81548152906001019060200180831161097a57829003601f168201915b5050505050815260200190600101906108ff565b505050509050919050565b600063f23a6e6160e01b905095945050505050565b60007f01ffc9a7000000000000000000000000000000000000000000000000000000007bffffffffffffffffffffffffffffffffffffffffffffffffffffffff1916827bffffffffffffffffffffffffffffffffffffffffffffffffffffffff1916149050919050565b6000604051905090565b600080fd5b600080fd5b600080fd5b600080fd5b6000601f19601f8301169050919050565b7f4e487b7100000000000000000000000000000000000000000000000000000000600052604160045260246000fd5b610a9c82610a53565b810181811067ffffffffffffffff82111715610abb57610aba610a64565b5b80604052505050565b6000610ace610a35565b9050610ada8282610a93565b919050565b600067ffffffffffffffff821115610afa57610af9610a64565b5b610b0382610a53565b9050602081019050919050565b82818337600083830152505050565b6000610b32610b2d84610adf565b610ac4565b905082815260208101848484011115610b4e57610b4d610a4e565b5b610b59848285610b10565b509392505050565b600082601f830112610b7657610b75610a49565b5b8135610b86848260208601610b1f565b91505092915050565b600060208284031215610ba557610ba4610a3f565b5b600082013567ffffffffffffffff811115610bc357610bc2610a44565b5b610bcf84828501610b61565b91505092915050565b600081519050919050565b600082825260208201905092915050565b6000819050602082019050919050565b600073ffffffffffffffffffffffffffffffffffffffff82169050919050565b6000610c2f82610c04565b9050919050565b610c3f81610c24565b82525050565b6000610c518383610c36565b60208301905092915050565b6000602082019050919050565b6000610c7582610bd8565b610c7f8185610be3565b9350610c8a83610bf4565b8060005b83811015610cbb578151610ca28882610c45565b9750610cad83610c5d565b925050600181019050610c8e565b5085935050505092915050565b60006020820190508181036000830152610ce28184610c6a565b905092915050565b60007fffffffff0000000000000000000000000000000000000000000000000000000082169050919050565b610d1f81610cea565b8114610d2a57600080fd5b50565b600081359050610d3c81610d16565b92915050565b600060208284031215610d5857610d57610a3f565b5b6000610d6684828501610d2d565b91505092915050565b60008115159050919050565b610d8481610d6f565b82525050565b6000602082019050610d9f6000830184610d7b565b92915050565b600081519050919050565b600082825260208201905092915050565b6000819050602082019050919050565b600081519050919050565b600082825260208201905092915050565b60005b83811015610e0b578082015181840152602081019050610df0565b83811115610e1a576000848401525b50505050565b6000610e2b82610dd1565b610e358185610ddc565b9350610e45818560208601610ded565b610e4e81610a53565b840191505092915050565b6000610e658383610e20565b905092915050565b6000602082019050919050565b6000610e8582610da5565b610e8f8185610db0565b935083602082028501610ea185610dc1565b8060005b85811015610edd5784840389528151610ebe8582610e59565b9450610ec983610e6d565b925060208a01995050600181019050610ea5565b50829750879550505050505092915050565b60006020820190508181036000830152610f098184610e7a565b905092915050565b6000819050919050565b610f2481610f11565b8114610f2f57600080fd5b50565b600081359050610f4181610f1b565b92915050565b60008060408385031215610f5e57610f5d610a3f565b5b600083013567ffffffffffffffff811115610f7c57610f7b610a44565b5b610f8885828601610b61565b9250506020610f9985828601610f32565b9150509250929050565b610fac81610c24565b82525050565b6000602082019050610fc76000830184610fa3565b92915050565b60008060408385031215610fe457610fe3610a3f565b5b600083013567ffffffffffffffff81111561100257611001610a44565b5b61100e85828601610b61565b925050602083013567ffffffffffffffff81111561102f5761102e610a44565b5b61103b85828601610b61565b9150509250929050565b61104e81610c24565b811461105957600080fd5b50565b60008135905061106b81611045565b92915050565b600067ffffffffffffffff82111561108c5761108b610a64565b5b602082029050602081019050919050565b600080fd5b60006110b56110b084611071565b610ac4565b905080838252602082019050602084028301858111156110d8576110d761109d565b5b835b8181101561110157806110ed8882610f32565b8452602084019350506020810190506110da565b5050509392505050565b600082601f8301126111205761111f610a49565b5b81356111308482602086016110a2565b91505092915050565b600067ffffffffffffffff82111561115457611153610a64565b5b61115d82610a53565b9050602081019050919050565b600061117d61117884611139565b610ac4565b90508281526020810184848401111561119957611198610a4e565b5b6111a4848285610b10565b509392505050565b600082601f8301126111c1576111c0610a49565b5b81356111d184826020860161116a565b91505092915050565b600080600080600060a086880312156111f6576111f5610a3f565b5b60006112048882890161105c565b95505060206112158882890161105c565b945050604086013567ffffffffffffffff81111561123657611235610a44565b5b6112428882890161110b565b935050606086013567ffffffffffffffff81111561126357611262610a44565b5b61126f8882890161110b565b925050608086013567ffffffffffffffff8111156112905761128f610a44565b5b61129c888289016111ac565b9150509295509295909350565b6112b281610cea565b82525050565b60006020820190506112cd60008301846112a9565b92915050565b600080604083850312156112ea576112e9610a3f565b5b600083013567ffffffffffffffff81111561130857611307610a44565b5b61131485828601610b61565b92505060206113258582860161105c565b9150509250929050565b600080600080600060a0868803121561134b5761134a610a3f565b5b60006113598882890161105c565b955050602061136a8882890161105c565b945050604061137b88828901610f32565b935050606061138c88828901610f32565b925050608086013567ffffffffffffffff8111156113ad576113ac610a44565b5b6113b9888289016111ac565b9150509295509295909350565b600081905092915050565b60006113dc82610dd1565b6113e681856113c6565b93506113f6818560208601610ded565b80840191505092915050565b600061140e82846113d1565b915081905092915050565b7f4e487b7100000000000000000000000000000000000000000000000000000000600052602260045260246000fd5b6000600282049050600182168061146057607f821691505b60208210810361147357611472611419565b5b50919050565b60008190508160005260206000209050919050565b60006020601f8301049050919050565b600082821b905092915050565b6000600883026114db7fffffffffffffffffffffffffffffffffffffffffffffffffffffffffffffffff8261149e565b6114e5868361149e565b95508019841693508086168417925050509392505050565b6000819050919050565b600061152261151d61151884610f11565b6114fd565b610f11565b9050919050565b6000819050919050565b61153c83611507565b61155061154882611529565b8484546114ab565b825550505050565b600090565b611565611558565b611570818484611533565b505050565b5b818110156115945761158960008261155d565b600181019050611576565b5050565b601f8211156115d9576115aa81611479565b6115b38461148e565b810160208510156115c2578190505b6115d66115ce8561148e565b830182611575565b50505b505050565b600082821c905092915050565b60006115fc600019846008026115de565b1980831691505092915050565b600061161583836115eb565b9150826002028217905092915050565b61162e82610dd1565b67ffffffffffffffff81111561164757611646610a64565b5b6116518254611448565b61165c828285611598565b600060209050601f83116001811461168f576000841561167d578287015190505b6116878582611609565b8655506116ef565b601f19841661169d86611479565b60005b828110156116c5578489015182556001820191506020850194506020810190506116a0565b868310156116e257848901516116de601f8916826115eb565b8355505b6001600288020188555050505b50505050505056fea264697066735822122037b74567ede1b142f529e1ab8e004e1d97072521c80c2a49cd5d1386f323457064736f6c634300080f0033",
  "linkReferences": {},
  "deployedLinkReferences": {}
}