{
  "_format": "hh-sol-artifact-1",
  "contractName": "Person",
  "sourceName": "ethereum/contracts/Person.sol",
  "abi": [
    {
      "inputs": [
        {
          "internalType": "address",
          "name": "_owner",
          "type": "address"
        }
      ],
      "stateMutability": "nonpayable",
      "type": "constructor"
    },
    {
      "inputs": [
        {
          "internalType": "string",
          "name": "",
          "type": "string"
        },
        {
          "internalType": "uint256",
          "name": "",
          "type": "uint256"
        }
      ],
      "name": "activities",
      "outputs": [
        {
          "internalType": "address",
          "name": "",
          "type": "address"
        }
      ],
      "stateMutability": "view",
      "type": "function"
    },
    {
      "inputs": [],
      "name": "eraseMe",
      "outputs": [],
      "stateMutability": "nonpayable",
      "type": "function"
    },
    {
      "inputs": [
        {
          "internalType": "string",
          "name": "_activityType",
          "type": "string"
        }
      ],
      "name": "getActivities",
      "outputs": [
        {
          "internalType": "address[]",
          "name": "",
          "type": "address[]"
        }
      ],
      "stateMutability": "view",
      "type": "function"
    },
    {
      "inputs": [
        {
          "internalType": "string",
          "name": "_id",
          "type": "string"
        }
      ],
      "name": "getCheckIn",
      "outputs": [
        {
          "internalType": "uint64[]",
          "name": "",
          "type": "uint64[]"
        }
      ],
      "stateMutability": "view",
      "type": "function"
    },
    {
      "inputs": [
        {
          "internalType": "string",
          "name": "_id",
          "type": "string"
        }
      ],
      "name": "getCheckOut",
      "outputs": [
        {
          "internalType": "uint64[]",
          "name": "",
          "type": "uint64[]"
        }
      ],
      "stateMutability": "view",
      "type": "function"
    },
    {
      "inputs": [
        {
          "internalType": "string",
          "name": "_activityType",
          "type": "string"
        },
        {
          "internalType": "address",
          "name": "_activityAddress",
          "type": "address"
        }
      ],
      "name": "newActivity",
      "outputs": [],
      "stateMutability": "nonpayable",
      "type": "function"
    },
    {
      "inputs": [
        {
          "internalType": "address",
          "name": "",
          "type": "address"
        },
        {
          "internalType": "address",
          "name": "",
          "type": "address"
        },
        {
          "internalType": "uint256[]",
          "name": "",
          "type": "uint256[]"
        },
        {
          "internalType": "uint256[]",
          "name": "",
          "type": "uint256[]"
        },
        {
          "internalType": "bytes",
          "name": "",
          "type": "bytes"
        }
      ],
      "name": "onERC1155BatchReceived",
      "outputs": [
        {
          "internalType": "bytes4",
          "name": "",
          "type": "bytes4"
        }
      ],
      "stateMutability": "nonpayable",
      "type": "function"
    },
    {
      "inputs": [
        {
          "internalType": "address",
          "name": "",
          "type": "address"
        },
        {
          "internalType": "address",
          "name": "",
          "type": "address"
        },
        {
          "internalType": "uint256",
          "name": "",
          "type": "uint256"
        },
        {
          "internalType": "uint256",
          "name": "",
          "type": "uint256"
        },
        {
          "internalType": "bytes",
          "name": "",
          "type": "bytes"
        }
      ],
      "name": "onERC1155Received",
      "outputs": [
        {
          "internalType": "bytes4",
          "name": "",
          "type": "bytes4"
        }
      ],
      "stateMutability": "nonpayable",
      "type": "function"
    },
    {
      "inputs": [],
      "name": "owner",
      "outputs": [
        {
          "internalType": "address",
          "name": "",
          "type": "address"
        }
      ],
      "stateMutability": "view",
      "type": "function"
    },
    {
      "inputs": [
        {
          "internalType": "string",
          "name": "_date",
          "type": "string"
        },
        {
          "internalType": "uint64",
          "name": "_unixTime",
          "type": "uint64"
        }
      ],
      "name": "registerCheckIn",
      "outputs": [],
      "stateMutability": "nonpayable",
      "type": "function"
    },
    {
      "inputs": [
        {
          "internalType": "string",
          "name": "_date",
          "type": "string"
        },
        {
          "internalType": "uint64",
          "name": "_unixTime",
          "type": "uint64"
        }
      ],
      "name": "registerCheckOut",
      "outputs": [],
      "stateMutability": "nonpayable",
      "type": "function"
    },
    {
      "inputs": [
        {
          "internalType": "bytes4",
          "name": "interfaceId",
          "type": "bytes4"
        }
      ],
      "name": "supportsInterface",
      "outputs": [
        {
          "internalType": "bool",
          "name": "",
          "type": "bool"
        }
      ],
      "stateMutability": "view",
      "type": "function"
    }
  ],
  "bytecode": "0x60806040523480156200001157600080fd5b506040516200173b3803806200173b8339818101604052810190620000379190620000e8565b806000806101000a81548173ffffffffffffffffffffffffffffffffffffffff021916908373ffffffffffffffffffffffffffffffffffffffff160217905550506200011a565b600080fd5b600073ffffffffffffffffffffffffffffffffffffffff82169050919050565b6000620000b08262000083565b9050919050565b620000c281620000a3565b8114620000ce57600080fd5b50565b600081519050620000e281620000b7565b92915050565b6000602082840312156200010157620001006200007e565b5b60006200011184828501620000d1565b91505092915050565b611611806200012a6000396000f3fe608060405234801561001057600080fd5b50600436106100b35760003560e01c8063bc197c8111610071578063bc197c81146101b2578063bdeb5fc4146101e2578063bf3c80c5146101ec578063db43775a14610208578063e0ca430114610224578063f23a6e6114610254576100b3565b8062b91f1a146100b857806301ffc9a7146100e85780631961b32f1461011857806330683f52146101485780638da5cb5b14610178578063a10d0b0914610196575b600080fd5b6100d260048036038101906100cd9190610cfe565b610284565b6040516100df9190610e37565b60405180910390f35b61010260048036038101906100fd9190610eb1565b6103be565b60405161010f9190610ef9565b60405180910390f35b610132600480360381019061012d9190610cfe565b610438565b60405161013f9190610fe6565b60405180910390f35b610162600480360381019061015d919061103e565b610570565b60405161016f91906110a9565b60405180910390f35b6101806105d4565b60405161018d91906110a9565b60405180910390f35b6101b060048036038101906101ab91906110f0565b6105f8565b005b6101cc60048036038101906101c791906112e1565b6106fc565b6040516101d991906113bf565b60405180910390f35b6101ea610711565b005b610206600480360381019061020191906110f0565b6107d8565b005b610222600480360381019061021d91906113da565b6108dc565b005b61023e60048036038101906102399190610cfe565b6109ed565b60405161024b9190610fe6565b60405180910390f35b61026e60048036038101906102699190611436565b610b25565b60405161027b91906113bf565b60405180910390f35b60603373ffffffffffffffffffffffffffffffffffffffff1660008054906101000a900473ffffffffffffffffffffffffffffffffffffffff1673ffffffffffffffffffffffffffffffffffffffff1614610314576040517f08c379a000000000000000000000000000000000000000000000000000000000815260040161030b9061152a565b60405180910390fd5b60038260405161032491906115c4565b90815260200160405180910390208054806020026020016040519081016040528092919081815260200182805480156103b257602002820191906000526020600020905b8160009054906101000a900473ffffffffffffffffffffffffffffffffffffffff1673ffffffffffffffffffffffffffffffffffffffff1681526020019060010190808311610368575b50505050509050919050565b60007f4e2312e0000000000000000000000000000000000000000000000000000000007bffffffffffffffffffffffffffffffffffffffffffffffffffffffff1916827bffffffffffffffffffffffffffffffffffffffffffffffffffffffff19161480610431575061043082610b3a565b5b9050919050565b60603373ffffffffffffffffffffffffffffffffffffffff1660008054906101000a900473ffffffffffffffffffffffffffffffffffffffff1673ffffffffffffffffffffffffffffffffffffffff16146104c8576040517f08c379a00000000000000000000000000000000000000000000000000000000081526004016104bf9061152a565b60405180910390fd5b6001826040516104d891906115c4565b908152602001604051809103902080548060200260200160405190810160405280929190818152602001828054801561056457602002820191906000526020600020906000905b82829054906101000a900467ffffffffffffffff1667ffffffffffffffff168152602001906008019060208260070104928301926001038202915080841161051f5790505b50505050509050919050565b60038280516020810182018051848252602083016020850120818352809550505050505081815481106105a257600080fd5b906000526020600020016000915091509054906101000a900473ffffffffffffffffffffffffffffffffffffffff1681565b60008054906101000a900473ffffffffffffffffffffffffffffffffffffffff1681565b3373ffffffffffffffffffffffffffffffffffffffff1660008054906101000a900473ffffffffffffffffffffffffffffffffffffffff1673ffffffffffffffffffffffffffffffffffffffff1614610686576040517f08c379a000000000000000000000000000000000000000000000000000000000815260040161067d9061152a565b60405180910390fd5b60028260405161069691906115c4565b90815260200160405180910390208190806001815401808255809150506001900390600052602060002090600491828204019190066008029091909190916101000a81548167ffffffffffffffff021916908367ffffffffffffffff1602179055505050565b600063bc197c8160e01b905095945050505050565b3373ffffffffffffffffffffffffffffffffffffffff1660008054906101000a900473ffffffffffffffffffffffffffffffffffffffff1673ffffffffffffffffffffffffffffffffffffffff161461079f576040517f08c379a00000000000000000000000000000000000000000000000000000000081526004016107969061152a565b60405180910390fd5b60008054906101000a900473ffffffffffffffffffffffffffffffffffffffff1673ffffffffffffffffffffffffffffffffffffffff16ff5b3373ffffffffffffffffffffffffffffffffffffffff1660008054906101000a900473ffffffffffffffffffffffffffffffffffffffff1673ffffffffffffffffffffffffffffffffffffffff1614610866576040517f08c379a000000000000000000000000000000000000000000000000000000000815260040161085d9061152a565b60405180910390fd5b60018260405161087691906115c4565b90815260200160405180910390208190806001815401808255809150506001900390600052602060002090600491828204019190066008029091909190916101000a81548167ffffffffffffffff021916908367ffffffffffffffff1602179055505050565b3373ffffffffffffffffffffffffffffffffffffffff1660008054906101000a900473ffffffffffffffffffffffffffffffffffffffff1673ffffffffffffffffffffffffffffffffffffffff161461096a576040517f08c379a00000000000000000000000000000000000000000000000000000000081526004016109619061152a565b60405180910390fd5b60038260405161097a91906115c4565b9081526020016040518091039020819080600181540180825580915050600190039060005260206000200160009091909190916101000a81548173ffffffffffffffffffffffffffffffffffffffff021916908373ffffffffffffffffffffffffffffffffffffffff1602179055505050565b60603373ffffffffffffffffffffffffffffffffffffffff1660008054906101000a900473ffffffffffffffffffffffffffffffffffffffff1673ffffffffffffffffffffffffffffffffffffffff1614610a7d576040517f08c379a0000000000000000000000000000000000000000000000000000000008152600401610a749061152a565b60405180910390fd5b600282604051610a8d91906115c4565b9081526020016040518091039020805480602002602001604051908101604052809291908181526020018280548015610b1957602002820191906000526020600020906000905b82829054906101000a900467ffffffffffffffff1667ffffffffffffffff1681526020019060080190602082600701049283019260010382029150808411610ad45790505b50505050509050919050565b600063f23a6e6160e01b905095945050505050565b60007f01ffc9a7000000000000000000000000000000000000000000000000000000007bffffffffffffffffffffffffffffffffffffffffffffffffffffffff1916827bffffffffffffffffffffffffffffffffffffffffffffffffffffffff1916149050919050565b6000604051905090565b600080fd5b600080fd5b600080fd5b600080fd5b6000601f19601f8301169050919050565b7f4e487b7100000000000000000000000000000000000000000000000000000000600052604160045260246000fd5b610c0b82610bc2565b810181811067ffffffffffffffff82111715610c2a57610c29610bd3565b5b80604052505050565b6000610c3d610ba4565b9050610c498282610c02565b919050565b600067ffffffffffffffff821115610c6957610c68610bd3565b5b610c7282610bc2565b9050602081019050919050565b82818337600083830152505050565b6000610ca1610c9c84610c4e565b610c33565b905082815260208101848484011115610cbd57610cbc610bbd565b5b610cc8848285610c7f565b509392505050565b600082601f830112610ce557610ce4610bb8565b5b8135610cf5848260208601610c8e565b91505092915050565b600060208284031215610d1457610d13610bae565b5b600082013567ffffffffffffffff811115610d3257610d31610bb3565b5b610d3e84828501610cd0565b91505092915050565b600081519050919050565b600082825260208201905092915050565b6000819050602082019050919050565b600073ffffffffffffffffffffffffffffffffffffffff82169050919050565b6000610d9e82610d73565b9050919050565b610dae81610d93565b82525050565b6000610dc08383610da5565b60208301905092915050565b6000602082019050919050565b6000610de482610d47565b610dee8185610d52565b9350610df983610d63565b8060005b83811015610e2a578151610e118882610db4565b9750610e1c83610dcc565b925050600181019050610dfd565b5085935050505092915050565b60006020820190508181036000830152610e518184610dd9565b905092915050565b60007fffffffff0000000000000000000000000000000000000000000000000000000082169050919050565b610e8e81610e59565b8114610e9957600080fd5b50565b600081359050610eab81610e85565b92915050565b600060208284031215610ec757610ec6610bae565b5b6000610ed584828501610e9c565b91505092915050565b60008115159050919050565b610ef381610ede565b82525050565b6000602082019050610f0e6000830184610eea565b92915050565b600081519050919050565b600082825260208201905092915050565b6000819050602082019050919050565b600067ffffffffffffffff82169050919050565b610f5d81610f40565b82525050565b6000610f6f8383610f54565b60208301905092915050565b6000602082019050919050565b6000610f9382610f14565b610f9d8185610f1f565b9350610fa883610f30565b8060005b83811015610fd9578151610fc08882610f63565b9750610fcb83610f7b565b925050600181019050610fac565b5085935050505092915050565b600060208201905081810360008301526110008184610f88565b905092915050565b6000819050919050565b61101b81611008565b811461102657600080fd5b50565b60008135905061103881611012565b92915050565b6000806040838503121561105557611054610bae565b5b600083013567ffffffffffffffff81111561107357611072610bb3565b5b61107f85828601610cd0565b925050602061109085828601611029565b9150509250929050565b6110a381610d93565b82525050565b60006020820190506110be600083018461109a565b92915050565b6110cd81610f40565b81146110d857600080fd5b50565b6000813590506110ea816110c4565b92915050565b6000806040838503121561110757611106610bae565b5b600083013567ffffffffffffffff81111561112557611124610bb3565b5b61113185828601610cd0565b9250506020611142858286016110db565b9150509250929050565b61115581610d93565b811461116057600080fd5b50565b6000813590506111728161114c565b92915050565b600067ffffffffffffffff82111561119357611192610bd3565b5b602082029050602081019050919050565b600080fd5b60006111bc6111b784611178565b610c33565b905080838252602082019050602084028301858111156111df576111de6111a4565b5b835b8181101561120857806111f48882611029565b8452602084019350506020810190506111e1565b5050509392505050565b600082601f83011261122757611226610bb8565b5b81356112378482602086016111a9565b91505092915050565b600067ffffffffffffffff82111561125b5761125a610bd3565b5b61126482610bc2565b9050602081019050919050565b600061128461127f84611240565b610c33565b9050828152602081018484840111156112a05761129f610bbd565b5b6112ab848285610c7f565b509392505050565b600082601f8301126112c8576112c7610bb8565b5b81356112d8848260208601611271565b91505092915050565b600080600080600060a086880312156112fd576112fc610bae565b5b600061130b88828901611163565b955050602061131c88828901611163565b945050604086013567ffffffffffffffff81111561133d5761133c610bb3565b5b61134988828901611212565b935050606086013567ffffffffffffffff81111561136a57611369610bb3565b5b61137688828901611212565b925050608086013567ffffffffffffffff81111561139757611396610bb3565b5b6113a3888289016112b3565b9150509295509295909350565b6113b981610e59565b82525050565b60006020820190506113d460008301846113b0565b92915050565b600080604083850312156113f1576113f0610bae565b5b600083013567ffffffffffffffff81111561140f5761140e610bb3565b5b61141b85828601610cd0565b925050602061142c85828601611163565b9150509250929050565b600080600080600060a0868803121561145257611451610bae565b5b600061146088828901611163565b955050602061147188828901611163565b945050604061148288828901611029565b935050606061149388828901611029565b925050608086013567ffffffffffffffff8111156114b4576114b3610bb3565b5b6114c0888289016112b3565b9150509295509295909350565b600082825260208201905092915050565b7f4e6f74206f776e65720000000000000000000000000000000000000000000000600082015250565b60006115146009836114cd565b915061151f826114de565b602082019050919050565b6000602082019050818103600083015261154381611507565b9050919050565b600081519050919050565b600081905092915050565b60005b8381101561157e578082015181840152602081019050611563565b8381111561158d576000848401525b50505050565b600061159e8261154a565b6115a88185611555565b93506115b8818560208601611560565b80840191505092915050565b60006115d08284611593565b91508190509291505056fea264697066735822122008cd3ef0a942bc367ff3c8a61cc107825103499feb9b8ace5748eba7cf25c3f464736f6c634300080f0033",
  "linkReferences": {},
  "deployedLinkReferences": {}
}