{
  "contractName": "AccessCampus",
  "abi": [
    {
      "inputs": [],
      "stateMutability": "nonpayable",
      "type": "constructor"
    },
    {
      "inputs": [],
      "name": "owner",
      "outputs": [
        {
          "internalType": "address",
          "name": "",
          "type": "address"
        }
      ],
      "stateMutability": "view",
      "type": "function",
      "constant": true
    },
    {
      "inputs": [
        {
          "internalType": "address",
          "name": "_userAddress",
          "type": "address"
        },
        {
          "internalType": "uint256",
          "name": "_time",
          "type": "uint256"
        },
        {
          "internalType": "string",
          "name": "_date",
          "type": "string"
        }
      ],
      "name": "registerCheckIn",
      "outputs": [],
      "stateMutability": "nonpayable",
      "type": "function"
    },
    {
      "inputs": [
        {
          "internalType": "address",
          "name": "_userAddress",
          "type": "address"
        },
        {
          "internalType": "uint256",
          "name": "_time",
          "type": "uint256"
        },
        {
          "internalType": "string",
          "name": "_date",
          "type": "string"
        }
      ],
      "name": "registerCheckOut",
      "outputs": [],
      "stateMutability": "nonpayable",
      "type": "function"
    },
    {
      "inputs": [
        {
          "internalType": "string",
          "name": "_date",
          "type": "string"
        }
      ],
      "name": "getCheckIns",
      "outputs": [
        {
          "components": [
            {
              "internalType": "address",
              "name": "userAddress",
              "type": "address"
            },
            {
              "internalType": "uint256",
              "name": "time",
              "type": "uint256"
            }
          ],
          "internalType": "struct AccessCampus.Access[]",
          "name": "",
          "type": "tuple[]"
        }
      ],
      "stateMutability": "view",
      "type": "function",
      "constant": true
    },
    {
      "inputs": [
        {
          "internalType": "string",
          "name": "_date",
          "type": "string"
        }
      ],
      "name": "getCheckOuts",
      "outputs": [
        {
          "components": [
            {
              "internalType": "address",
              "name": "userAddress",
              "type": "address"
            },
            {
              "internalType": "uint256",
              "name": "time",
              "type": "uint256"
            }
          ],
          "internalType": "struct AccessCampus.Access[]",
          "name": "",
          "type": "tuple[]"
        }
      ],
      "stateMutability": "view",
      "type": "function",
      "constant": true
    }
  ],
  "bytecode": "0x608060405234801561001057600080fd5b50336000806101000a81548173ffffffffffffffffffffffffffffffffffffffff021916908373ffffffffffffffffffffffffffffffffffffffff160217905550610bf1806100606000396000f3fe608060405234801561001057600080fd5b50600436106100575760003560e01c806331cb760e1461005c5780636d0e620c1461008c578063785b4098146100a85780638da5cb5b146100d8578063c6ea3ab0146100f6575b600080fd5b61007660048036038101906100719190610822565b610112565b60405161008391906109a3565b60405180910390f35b6100a660048036038101906100a19190610a1d565b61027d565b005b6100c260048036038101906100bd9190610822565b6103db565b6040516100cf91906109a3565b60405180910390f35b6100e0610546565b6040516100ed9190610a9b565b60405180910390f35b610110600480360381019061010b9190610a1d565b61056a565b005b606060008054906101000a900473ffffffffffffffffffffffffffffffffffffffff1673ffffffffffffffffffffffffffffffffffffffff163373ffffffffffffffffffffffffffffffffffffffff16146101a2576040517f08c379a000000000000000000000000000000000000000000000000000000000815260040161019990610b13565b60405180910390fd5b6002826040516101b29190610ba4565b9081526020016040518091039020805480602002602001604051908101604052809291908181526020016000905b8282101561027257838290600052602060002090600202016040518060400160405290816000820160009054906101000a900473ffffffffffffffffffffffffffffffffffffffff1673ffffffffffffffffffffffffffffffffffffffff1673ffffffffffffffffffffffffffffffffffffffff168152602001600182015481525050815260200190600101906101e0565b505050509050919050565b60008054906101000a900473ffffffffffffffffffffffffffffffffffffffff1673ffffffffffffffffffffffffffffffffffffffff163373ffffffffffffffffffffffffffffffffffffffff161461030b576040517f08c379a000000000000000000000000000000000000000000000000000000000815260040161030290610b13565b60405180910390fd5b600060405180604001604052808573ffffffffffffffffffffffffffffffffffffffff16815260200184815250905060018260405161034a9190610ba4565b908152602001604051809103902081908060018154018082558091505060019003906000526020600020906002020160009091909190915060008201518160000160006101000a81548173ffffffffffffffffffffffffffffffffffffffff021916908373ffffffffffffffffffffffffffffffffffffffff16021790555060208201518160010155505050505050565b606060008054906101000a900473ffffffffffffffffffffffffffffffffffffffff1673ffffffffffffffffffffffffffffffffffffffff163373ffffffffffffffffffffffffffffffffffffffff161461046b576040517f08c379a000000000000000000000000000000000000000000000000000000000815260040161046290610b13565b60405180910390fd5b60018260405161047b9190610ba4565b9081526020016040518091039020805480602002602001604051908101604052809291908181526020016000905b8282101561053b57838290600052602060002090600202016040518060400160405290816000820160009054906101000a900473ffffffffffffffffffffffffffffffffffffffff1673ffffffffffffffffffffffffffffffffffffffff1673ffffffffffffffffffffffffffffffffffffffff168152602001600182015481525050815260200190600101906104a9565b505050509050919050565b60008054906101000a900473ffffffffffffffffffffffffffffffffffffffff1681565b60008054906101000a900473ffffffffffffffffffffffffffffffffffffffff1673ffffffffffffffffffffffffffffffffffffffff163373ffffffffffffffffffffffffffffffffffffffff16146105f8576040517f08c379a00000000000000000000000000000000000000000000000000000000081526004016105ef90610b13565b60405180910390fd5b600060405180604001604052808573ffffffffffffffffffffffffffffffffffffffff1681526020018481525090506002826040516106379190610ba4565b908152602001604051809103902081908060018154018082558091505060019003906000526020600020906002020160009091909190915060008201518160000160006101000a81548173ffffffffffffffffffffffffffffffffffffffff021916908373ffffffffffffffffffffffffffffffffffffffff16021790555060208201518160010155505050505050565b6000604051905090565b600080fd5b600080fd5b600080fd5b600080fd5b6000601f19601f8301169050919050565b7f4e487b7100000000000000000000000000000000000000000000000000000000600052604160045260246000fd5b61072f826106e6565b810181811067ffffffffffffffff8211171561074e5761074d6106f7565b5b80604052505050565b60006107616106c8565b905061076d8282610726565b919050565b600067ffffffffffffffff82111561078d5761078c6106f7565b5b610796826106e6565b9050602081019050919050565b82818337600083830152505050565b60006107c56107c084610772565b610757565b9050828152602081018484840111156107e1576107e06106e1565b5b6107ec8482856107a3565b509392505050565b600082601f830112610809576108086106dc565b5b81356108198482602086016107b2565b91505092915050565b600060208284031215610838576108376106d2565b5b600082013567ffffffffffffffff811115610856576108556106d7565b5b610862848285016107f4565b91505092915050565b600081519050919050565b600082825260208201905092915050565b6000819050602082019050919050565b600073ffffffffffffffffffffffffffffffffffffffff82169050919050565b60006108c282610897565b9050919050565b6108d2816108b7565b82525050565b6000819050919050565b6108eb816108d8565b82525050565b60408201600082015161090760008501826108c9565b50602082015161091a60208501826108e2565b50505050565b600061092c83836108f1565b60408301905092915050565b6000602082019050919050565b60006109508261086b565b61095a8185610876565b935061096583610887565b8060005b8381101561099657815161097d8882610920565b975061098883610938565b925050600181019050610969565b5085935050505092915050565b600060208201905081810360008301526109bd8184610945565b905092915050565b6109ce816108b7565b81146109d957600080fd5b50565b6000813590506109eb816109c5565b92915050565b6109fa816108d8565b8114610a0557600080fd5b50565b600081359050610a17816109f1565b92915050565b600080600060608486031215610a3657610a356106d2565b5b6000610a44868287016109dc565b9350506020610a5586828701610a08565b925050604084013567ffffffffffffffff811115610a7657610a756106d7565b5b610a82868287016107f4565b9150509250925092565b610a95816108b7565b82525050565b6000602082019050610ab06000830184610a8c565b92915050565b600082825260208201905092915050565b7f4e6f74206f776e65720000000000000000000000000000000000000000000000600082015250565b6000610afd600983610ab6565b9150610b0882610ac7565b602082019050919050565b60006020820190508181036000830152610b2c81610af0565b9050919050565b600081519050919050565b600081905092915050565b60005b83811015610b67578082015181840152602081019050610b4c565b60008484015250505050565b6000610b7e82610b33565b610b888185610b3e565b9350610b98818560208601610b49565b80840191505092915050565b6000610bb08284610b73565b91508190509291505056fea2646970667358221220aa0b47fc5e16f17c3afe928c6834611553d94825d32f73d4146dd0a044b7692b64736f6c63430008110033",
  "immutableReferences": {},
  "source": "// SPDX-License-Identifier: MIT\r\npragma solidity ^0.8.15;\r\n\r\n/*\r\nAccessCampus contract: consolidation of Person IDs checking in *OR* out in a given day\r\n    . state variables\r\n        - owner: EOA == Inteli mngmt\r\n        - Access: .sol object = Person ID and moment of entry/exit\r\n        - entries: log of check-ins in a given day\r\n        - exits: log of check-outs in a given day\r\n    . methods: create and retrieve events and register in state variable\r\n*/\r\ncontract AccessCampus {\r\n    address public owner;\r\n    struct Access {\r\n        address userAddress;\r\n        uint256 time;\r\n    }\r\n\r\n    mapping(string => Access[]) checkIns;\r\n    mapping(string => Access[]) checkOuts;\r\n\r\n    modifier isOwner() {\r\n        require(msg.sender == owner, \"Not owner\");\r\n        _;\r\n    }\r\n\r\n    constructor() {\r\n        owner = msg.sender;\r\n    }\r\n\r\n    function registerCheckIn(\r\n        address _userAddress,\r\n        uint256 _time,\r\n        string memory _date\r\n    ) public isOwner {\r\n        Access memory checkIn = Access({\r\n            userAddress: _userAddress,\r\n            time: _time\r\n        });\r\n        checkIns[_date].push(checkIn);\r\n    }\r\n\r\n    function registerCheckOut(\r\n        address _userAddress,\r\n        uint256 _time,\r\n        string memory _date\r\n    ) public isOwner {\r\n        Access memory checkOut = Access({\r\n            userAddress: _userAddress,\r\n            time: _time\r\n        });\r\n        checkOuts[_date].push(checkOut);\r\n    }\r\n\r\n    function getCheckIns(string memory _date)\r\n        public\r\n        view\r\n        isOwner\r\n        returns (Access[] memory)\r\n    {\r\n        return checkIns[_date];\r\n    }\r\n\r\n    function getCheckOuts(string memory _date)\r\n        public\r\n        view\r\n        isOwner\r\n        returns (Access[] memory)\r\n    {\r\n        return checkOuts[_date];\r\n    }\r\n}\r\n",
  "sourcePath": "C:\\Users\\reish\\Documents\\GitHub\\projeto_inteli\\contracts\\AccessCampus.sol",
  "compiler": {
    "name": "solc",
    "version": "0.8.17+commit.8df45f5f.Emscripten.clang"
  },
  "schemaVersion": "3.4.10",
  "updatedAt": "2022-09-24T22:19:10.164Z",
  "networkType": "ethereum",
  "devdoc": {
    "kind": "dev",
    "methods": {},
    "version": 1
  },
  "userdoc": {
    "kind": "user",
    "methods": {},
    "version": 1
  }
}