{
  "contractName": "AccessCampus",
  "abi": [
    {
      "inputs": [],
      "stateMutability": "nonpayable",
      "type": "constructor"
    },
    {
      "inputs": [],
      "name": "token",
      "outputs": [
        {
          "internalType": "contract AccessERC20",
          "name": "",
          "type": "address"
        }
      ],
      "stateMutability": "view",
      "type": "function",
      "constant": true
    },
    {
      "inputs": [
        {
          "internalType": "uint256",
          "name": "_tokenAmount",
          "type": "uint256"
        }
      ],
      "name": "createToken",
      "outputs": [
        {
          "internalType": "bool",
          "name": "",
          "type": "bool"
        }
      ],
      "stateMutability": "nonpayable",
      "type": "function"
    },
    {
      "inputs": [
        {
          "internalType": "address",
          "name": "_to",
          "type": "address"
        }
      ],
      "name": "givePresence",
      "outputs": [
        {
          "internalType": "bool",
          "name": "",
          "type": "bool"
        }
      ],
      "stateMutability": "nonpayable",
      "type": "function"
    },
    {
      "inputs": [
        {
          "internalType": "address",
          "name": "_student",
          "type": "address"
        },
        {
          "internalType": "uint256",
          "name": "_times",
          "type": "uint256"
        }
      ],
      "name": "removePresence",
      "outputs": [
        {
          "internalType": "bool",
          "name": "",
          "type": "bool"
        }
      ],
      "stateMutability": "nonpayable",
      "type": "function"
    },
    {
      "inputs": [
        {
          "internalType": "address",
          "name": "_student",
          "type": "address"
        }
      ],
      "name": "seePresences",
      "outputs": [
        {
          "internalType": "uint256",
          "name": "",
          "type": "uint256"
        }
      ],
      "stateMutability": "view",
      "type": "function",
      "constant": true
    },
    {
      "inputs": [],
      "name": "totalSupply",
      "outputs": [
        {
          "internalType": "uint256",
          "name": "",
          "type": "uint256"
        }
      ],
      "stateMutability": "view",
      "type": "function",
      "constant": true
    }
  ],
  "bytecode": "0x608060405234801561001057600080fd5b5033600160006101000a81548173ffffffffffffffffffffffffffffffffffffffff021916908373ffffffffffffffffffffffffffffffffffffffff1602179055503060405161005f906100ca565b6100699190610118565b604051809103906000f080158015610085573d6000803e3d6000fd5b506000806101000a81548173ffffffffffffffffffffffffffffffffffffffff021916908373ffffffffffffffffffffffffffffffffffffffff160217905550610133565b611cb080610bd883390190565b600073ffffffffffffffffffffffffffffffffffffffff82169050919050565b6000610102826100d7565b9050919050565b610112816100f7565b82525050565b600060208201905061012d6000830184610109565b92915050565b610a96806101426000396000f3fe608060405234801561001057600080fd5b50600436106100625760003560e01c806318160ddd146100675780632d571cc4146100855780637188f116146100b55780639f126739146100e5578063e898a6d614610115578063fc0c546a14610145575b600080fd5b61006f610163565b60405161007c919061068f565b60405180910390f35b61009f600480360381019061009a91906106db565b6101fa565b6040516100ac9190610723565b60405180910390f35b6100cf60048036038101906100ca919061079c565b610332565b6040516100dc919061068f565b60405180910390f35b6100ff60048036038101906100fa91906107c9565b6103da565b60405161010c9190610723565b60405180910390f35b61012f600480360381019061012a919061079c565b610515565b60405161013c9190610723565b60405180910390f35b61014d610652565b60405161015a9190610868565b60405180910390f35b60008060009054906101000a900473ffffffffffffffffffffffffffffffffffffffff1673ffffffffffffffffffffffffffffffffffffffff166318160ddd6040518163ffffffff1660e01b8152600401602060405180830381865afa1580156101d1573d6000803e3d6000fd5b505050506040513d601f19601f820116820180604052508101906101f59190610898565b905090565b6000600160009054906101000a900473ffffffffffffffffffffffffffffffffffffffff1673ffffffffffffffffffffffffffffffffffffffff163373ffffffffffffffffffffffffffffffffffffffff161461028c576040517f08c379a000000000000000000000000000000000000000000000000000000000815260040161028390610922565b60405180910390fd5b60008054906101000a900473ffffffffffffffffffffffffffffffffffffffff1673ffffffffffffffffffffffffffffffffffffffff16632d571cc4836040518263ffffffff1660e01b81526004016102e5919061068f565b6020604051808303816000875af1158015610304573d6000803e3d6000fd5b505050506040513d601f19601f82011682018060405250810190610328919061096e565b5060019050919050565b60008060008054906101000a900473ffffffffffffffffffffffffffffffffffffffff1673ffffffffffffffffffffffffffffffffffffffff166370a08231846040518263ffffffff1660e01b815260040161038e91906109aa565b602060405180830381865afa1580156103ab573d6000803e3d6000fd5b505050506040513d601f19601f820116820180604052508101906103cf9190610898565b905080915050919050565b6000600160009054906101000a900473ffffffffffffffffffffffffffffffffffffffff1673ffffffffffffffffffffffffffffffffffffffff163373ffffffffffffffffffffffffffffffffffffffff161461046c576040517f08c379a000000000000000000000000000000000000000000000000000000000815260040161046390610922565b60405180910390fd5b60008054906101000a900473ffffffffffffffffffffffffffffffffffffffff1673ffffffffffffffffffffffffffffffffffffffff1663d1df306c84846040518363ffffffff1660e01b81526004016104c79291906109c5565b6020604051808303816000875af11580156104e6573d6000803e3d6000fd5b505050506040513d601f19601f8201168201806040525081019061050a919061096e565b506001905092915050565b6000600160009054906101000a900473ffffffffffffffffffffffffffffffffffffffff1673ffffffffffffffffffffffffffffffffffffffff163373ffffffffffffffffffffffffffffffffffffffff16146105a7576040517f08c379a000000000000000000000000000000000000000000000000000000000815260040161059e90610922565b60405180910390fd5b60008054906101000a900473ffffffffffffffffffffffffffffffffffffffff1673ffffffffffffffffffffffffffffffffffffffff166323b872dd308460016040518463ffffffff1660e01b815260040161060593929190610a29565b6020604051808303816000875af1158015610624573d6000803e3d6000fd5b505050506040513d601f19601f82011682018060405250810190610648919061096e565b5060019050919050565b60008054906101000a900473ffffffffffffffffffffffffffffffffffffffff1681565b6000819050919050565b61068981610676565b82525050565b60006020820190506106a46000830184610680565b92915050565b600080fd5b6106b881610676565b81146106c357600080fd5b50565b6000813590506106d5816106af565b92915050565b6000602082840312156106f1576106f06106aa565b5b60006106ff848285016106c6565b91505092915050565b60008115159050919050565b61071d81610708565b82525050565b60006020820190506107386000830184610714565b92915050565b600073ffffffffffffffffffffffffffffffffffffffff82169050919050565b60006107698261073e565b9050919050565b6107798161075e565b811461078457600080fd5b50565b60008135905061079681610770565b92915050565b6000602082840312156107b2576107b16106aa565b5b60006107c084828501610787565b91505092915050565b600080604083850312156107e0576107df6106aa565b5b60006107ee85828601610787565b92505060206107ff858286016106c6565b9150509250929050565b6000819050919050565b600061082e6108296108248461073e565b610809565b61073e565b9050919050565b600061084082610813565b9050919050565b600061085282610835565b9050919050565b61086281610847565b82525050565b600060208201905061087d6000830184610859565b92915050565b600081519050610892816106af565b92915050565b6000602082840312156108ae576108ad6106aa565b5b60006108bc84828501610883565b91505092915050565b600082825260208201905092915050565b7f4e6f74206f776e65720000000000000000000000000000000000000000000000600082015250565b600061090c6009836108c5565b9150610917826108d6565b602082019050919050565b6000602082019050818103600083015261093b816108ff565b9050919050565b61094b81610708565b811461095657600080fd5b50565b60008151905061096881610942565b92915050565b600060208284031215610984576109836106aa565b5b600061099284828501610959565b91505092915050565b6109a48161075e565b82525050565b60006020820190506109bf600083018461099b565b92915050565b60006040820190506109da600083018561099b565b6109e76020830184610680565b9392505050565b6000819050919050565b6000610a13610a0e610a09846109ee565b610809565b610676565b9050919050565b610a23816109f8565b82525050565b6000606082019050610a3e600083018661099b565b610a4b602083018561099b565b610a586040830184610a1a565b94935050505056fea2646970667358221220f7208e157e4dd7af58802744539c5ff2468763102491471f00f0106a3f141aac64736f6c6343000811003360806040523480156200001157600080fd5b5060405162001cb038038062001cb083398181016040528101906200003791906200017b565b6040518060400160405280600681526020017f41636365737300000000000000000000000000000000000000000000000000008152506040518060400160405280600381526020017f41434300000000000000000000000000000000000000000000000000000000008152508160039081620000b4919062000427565b508060049081620000c6919062000427565b50505080600560006101000a81548173ffffffffffffffffffffffffffffffffffffffff021916908373ffffffffffffffffffffffffffffffffffffffff160217905550506200050e565b600080fd5b600073ffffffffffffffffffffffffffffffffffffffff82169050919050565b6000620001438262000116565b9050919050565b620001558162000136565b81146200016157600080fd5b50565b60008151905062000175816200014a565b92915050565b60006020828403121562000194576200019362000111565b5b6000620001a48482850162000164565b91505092915050565b600081519050919050565b7f4e487b7100000000000000000000000000000000000000000000000000000000600052604160045260246000fd5b7f4e487b7100000000000000000000000000000000000000000000000000000000600052602260045260246000fd5b600060028204905060018216806200022f57607f821691505b602082108103620002455762000244620001e7565b5b50919050565b60008190508160005260206000209050919050565b60006020601f8301049050919050565b600082821b905092915050565b600060088302620002af7fffffffffffffffffffffffffffffffffffffffffffffffffffffffffffffffff8262000270565b620002bb868362000270565b95508019841693508086168417925050509392505050565b6000819050919050565b6000819050919050565b60006200030862000302620002fc84620002d3565b620002dd565b620002d3565b9050919050565b6000819050919050565b6200032483620002e7565b6200033c62000333826200030f565b8484546200027d565b825550505050565b600090565b6200035362000344565b6200036081848462000319565b505050565b5b8181101562000388576200037c60008262000349565b60018101905062000366565b5050565b601f821115620003d757620003a1816200024b565b620003ac8462000260565b81016020851015620003bc578190505b620003d4620003cb8562000260565b83018262000365565b50505b505050565b600082821c905092915050565b6000620003fc60001984600802620003dc565b1980831691505092915050565b6000620004178383620003e9565b9150826002028217905092915050565b6200043282620001ad565b67ffffffffffffffff8111156200044e576200044d620001b8565b5b6200045a825462000216565b620004678282856200038c565b600060209050601f8311600181146200049f57600084156200048a578287015190505b62000496858262000409565b86555062000506565b601f198416620004af866200024b565b60005b82811015620004d957848901518255600182019150602085019450602081019050620004b2565b86831015620004f95784890151620004f5601f891682620003e9565b8355505b6001600288020188555050505b505050505050565b611792806200051e6000396000f3fe608060405234801561001057600080fd5b50600436106100cf5760003560e01c8063395093511161008c578063a457c2d711610066578063a457c2d71461023c578063a9059cbb1461026c578063d1df306c1461029c578063dd62ed3e146102cc576100cf565b806339509351146101be57806370a08231146101ee57806395d89b411461021e576100cf565b806306fdde03146100d4578063095ea7b3146100f257806318160ddd1461012257806323b872dd146101405780632d571cc414610170578063313ce567146101a0575b600080fd5b6100dc6102fc565b6040516100e99190611034565b60405180910390f35b61010c600480360381019061010791906110ef565b61038e565b604051610119919061114a565b60405180910390f35b61012a610432565b6040516101379190611174565b60405180910390f35b61015a6004803603810190610155919061118f565b61043c565b604051610167919061114a565b60405180910390f35b61018a600480360381019061018591906111e2565b6104f0565b604051610197919061114a565b60405180910390f35b6101a86105a1565b6040516101b5919061122b565b60405180910390f35b6101d860048036038101906101d391906110ef565b6105a6565b6040516101e5919061114a565b60405180910390f35b61020860048036038101906102039190611246565b61064a565b6040516102159190611174565b60405180910390f35b610226610692565b6040516102339190611034565b60405180910390f35b610256600480360381019061025191906110ef565b610724565b604051610263919061114a565b60405180910390f35b610286600480360381019061028191906110ef565b6107c8565b604051610293919061114a565b60405180910390f35b6102b660048036038101906102b191906110ef565b610888565b6040516102c3919061114a565b60405180910390f35b6102e660048036038101906102e19190611273565b61093a565b6040516102f39190611174565b60405180910390f35b60606003805461030b906112e2565b80601f0160208091040260200160405190810160405280929190818152602001828054610337906112e2565b80156103845780601f1061035957610100808354040283529160200191610384565b820191906000526020600020905b81548152906001019060200180831161036757829003601f168201915b5050505050905090565b6000806103996109de565b90508073ffffffffffffffffffffffffffffffffffffffff16600560009054906101000a900473ffffffffffffffffffffffffffffffffffffffff1673ffffffffffffffffffffffffffffffffffffffff161461042b576040517f08c379a00000000000000000000000000000000000000000000000000000000081526004016104229061135f565b60405180910390fd5b5092915050565b6000600254905090565b6000806104476109de565b90508073ffffffffffffffffffffffffffffffffffffffff16600560009054906101000a900473ffffffffffffffffffffffffffffffffffffffff1673ffffffffffffffffffffffffffffffffffffffff16146104d9576040517f08c379a00000000000000000000000000000000000000000000000000000000081526004016104d09061135f565b60405180910390fd5b6104e48585856109e6565b60019150509392505050565b6000806104fb6109de565b90508073ffffffffffffffffffffffffffffffffffffffff16600560009054906101000a900473ffffffffffffffffffffffffffffffffffffffff1673ffffffffffffffffffffffffffffffffffffffff161461058d576040517f08c379a00000000000000000000000000000000000000000000000000000000081526004016105849061135f565b60405180910390fd5b6105973384610c65565b6001915050919050565b600090565b6000806105b16109de565b90508073ffffffffffffffffffffffffffffffffffffffff16600560009054906101000a900473ffffffffffffffffffffffffffffffffffffffff1673ffffffffffffffffffffffffffffffffffffffff1614610643576040517f08c379a000000000000000000000000000000000000000000000000000000000815260040161063a9061135f565b60405180910390fd5b5092915050565b60008060008373ffffffffffffffffffffffffffffffffffffffff1673ffffffffffffffffffffffffffffffffffffffff168152602001908152602001600020549050919050565b6060600480546106a1906112e2565b80601f01602080910402602001604051908101604052809291908181526020018280546106cd906112e2565b801561071a5780601f106106ef5761010080835404028352916020019161071a565b820191906000526020600020905b8154815290600101906020018083116106fd57829003601f168201915b5050505050905090565b60008061072f6109de565b90508073ffffffffffffffffffffffffffffffffffffffff16600560009054906101000a900473ffffffffffffffffffffffffffffffffffffffff1673ffffffffffffffffffffffffffffffffffffffff16146107c1576040517f08c379a00000000000000000000000000000000000000000000000000000000081526004016107b89061135f565b60405180910390fd5b5092915050565b6000806107d36109de565b90508073ffffffffffffffffffffffffffffffffffffffff16600560009054906101000a900473ffffffffffffffffffffffffffffffffffffffff1673ffffffffffffffffffffffffffffffffffffffff1614610865576040517f08c379a000000000000000000000000000000000000000000000000000000000815260040161085c9061135f565b60405180910390fd5b600061086f6109de565b905061087c8186866109e6565b60019250505092915050565b6000806108936109de565b90508073ffffffffffffffffffffffffffffffffffffffff16600560009054906101000a900473ffffffffffffffffffffffffffffffffffffffff1673ffffffffffffffffffffffffffffffffffffffff1614610925576040517f08c379a000000000000000000000000000000000000000000000000000000000815260040161091c9061135f565b60405180910390fd5b61092f8484610dc4565b600191505092915050565b6000806109456109de565b90508073ffffffffffffffffffffffffffffffffffffffff16600560009054906101000a900473ffffffffffffffffffffffffffffffffffffffff1673ffffffffffffffffffffffffffffffffffffffff16146109d7576040517f08c379a00000000000000000000000000000000000000000000000000000000081526004016109ce9061135f565b60405180910390fd5b5092915050565b600033905090565b600073ffffffffffffffffffffffffffffffffffffffff168373ffffffffffffffffffffffffffffffffffffffff1603610a55576040517f08c379a0000000000000000000000000000000000000000000000000000000008152600401610a4c906113f1565b60405180910390fd5b600073ffffffffffffffffffffffffffffffffffffffff168273ffffffffffffffffffffffffffffffffffffffff1603610ac4576040517f08c379a0000000000000000000000000000000000000000000000000000000008152600401610abb90611483565b60405180910390fd5b610acf838383610f9a565b60008060008573ffffffffffffffffffffffffffffffffffffffff1673ffffffffffffffffffffffffffffffffffffffff16815260200190815260200160002054905081811015610b55576040517f08c379a0000000000000000000000000000000000000000000000000000000008152600401610b4c90611515565b60405180910390fd5b8181036000808673ffffffffffffffffffffffffffffffffffffffff1673ffffffffffffffffffffffffffffffffffffffff16815260200190815260200160002081905550816000808573ffffffffffffffffffffffffffffffffffffffff1673ffffffffffffffffffffffffffffffffffffffff1681526020019081526020016000206000828254610be89190611564565b925050819055508273ffffffffffffffffffffffffffffffffffffffff168473ffffffffffffffffffffffffffffffffffffffff167fddf252ad1be2c89b69c2b068fc378daa952ba7f163c4a11628f55a4df523b3ef84604051610c4c9190611174565b60405180910390a3610c5f848484610f9f565b50505050565b600073ffffffffffffffffffffffffffffffffffffffff168273ffffffffffffffffffffffffffffffffffffffff1603610cd4576040517f08c379a0000000000000000000000000000000000000000000000000000000008152600401610ccb906115e4565b60405180910390fd5b610ce060008383610f9a565b8060026000828254610cf29190611564565b92505081905550806000808473ffffffffffffffffffffffffffffffffffffffff1673ffffffffffffffffffffffffffffffffffffffff1681526020019081526020016000206000828254610d479190611564565b925050819055508173ffffffffffffffffffffffffffffffffffffffff16600073ffffffffffffffffffffffffffffffffffffffff167fddf252ad1be2c89b69c2b068fc378daa952ba7f163c4a11628f55a4df523b3ef83604051610dac9190611174565b60405180910390a3610dc060008383610f9f565b5050565b600073ffffffffffffffffffffffffffffffffffffffff168273ffffffffffffffffffffffffffffffffffffffff1603610e33576040517f08c379a0000000000000000000000000000000000000000000000000000000008152600401610e2a90611676565b60405180910390fd5b610e3f82600083610f9a565b60008060008473ffffffffffffffffffffffffffffffffffffffff1673ffffffffffffffffffffffffffffffffffffffff16815260200190815260200160002054905081811015610ec5576040517f08c379a0000000000000000000000000000000000000000000000000000000008152600401610ebc90611708565b60405180910390fd5b8181036000808573ffffffffffffffffffffffffffffffffffffffff1673ffffffffffffffffffffffffffffffffffffffff168152602001908152602001600020819055508160026000828254610f1c9190611728565b92505081905550600073ffffffffffffffffffffffffffffffffffffffff168373ffffffffffffffffffffffffffffffffffffffff167fddf252ad1be2c89b69c2b068fc378daa952ba7f163c4a11628f55a4df523b3ef84604051610f819190611174565b60405180910390a3610f9583600084610f9f565b505050565b505050565b505050565b600081519050919050565b600082825260208201905092915050565b60005b83811015610fde578082015181840152602081019050610fc3565b60008484015250505050565b6000601f19601f8301169050919050565b600061100682610fa4565b6110108185610faf565b9350611020818560208601610fc0565b61102981610fea565b840191505092915050565b6000602082019050818103600083015261104e8184610ffb565b905092915050565b600080fd5b600073ffffffffffffffffffffffffffffffffffffffff82169050919050565b60006110868261105b565b9050919050565b6110968161107b565b81146110a157600080fd5b50565b6000813590506110b38161108d565b92915050565b6000819050919050565b6110cc816110b9565b81146110d757600080fd5b50565b6000813590506110e9816110c3565b92915050565b6000806040838503121561110657611105611056565b5b6000611114858286016110a4565b9250506020611125858286016110da565b9150509250929050565b60008115159050919050565b6111448161112f565b82525050565b600060208201905061115f600083018461113b565b92915050565b61116e816110b9565b82525050565b60006020820190506111896000830184611165565b92915050565b6000806000606084860312156111a8576111a7611056565b5b60006111b6868287016110a4565b93505060206111c7868287016110a4565b92505060406111d8868287016110da565b9150509250925092565b6000602082840312156111f8576111f7611056565b5b6000611206848285016110da565b91505092915050565b600060ff82169050919050565b6112258161120f565b82525050565b6000602082019050611240600083018461121c565b92915050565b60006020828403121561125c5761125b611056565b5b600061126a848285016110a4565b91505092915050565b6000806040838503121561128a57611289611056565b5b6000611298858286016110a4565b92505060206112a9858286016110a4565b9150509250929050565b7f4e487b7100000000000000000000000000000000000000000000000000000000600052602260045260246000fd5b600060028204905060018216806112fa57607f821691505b60208210810361130d5761130c6112b3565b5b50919050565b7f4e6f74206f776e65720000000000000000000000000000000000000000000000600082015250565b6000611349600983610faf565b915061135482611313565b602082019050919050565b600060208201905081810360008301526113788161133c565b9050919050565b7f45524332303a207472616e736665722066726f6d20746865207a65726f20616460008201527f6472657373000000000000000000000000000000000000000000000000000000602082015250565b60006113db602583610faf565b91506113e68261137f565b604082019050919050565b6000602082019050818103600083015261140a816113ce565b9050919050565b7f45524332303a207472616e7366657220746f20746865207a65726f206164647260008201527f6573730000000000000000000000000000000000000000000000000000000000602082015250565b600061146d602383610faf565b915061147882611411565b604082019050919050565b6000602082019050818103600083015261149c81611460565b9050919050565b7f45524332303a207472616e7366657220616d6f756e742065786365656473206260008201527f616c616e63650000000000000000000000000000000000000000000000000000602082015250565b60006114ff602683610faf565b915061150a826114a3565b604082019050919050565b6000602082019050818103600083015261152e816114f2565b9050919050565b7f4e487b7100000000000000000000000000000000000000000000000000000000600052601160045260246000fd5b600061156f826110b9565b915061157a836110b9565b925082820190508082111561159257611591611535565b5b92915050565b7f45524332303a206d696e7420746f20746865207a65726f206164647265737300600082015250565b60006115ce601f83610faf565b91506115d982611598565b602082019050919050565b600060208201905081810360008301526115fd816115c1565b9050919050565b7f45524332303a206275726e2066726f6d20746865207a65726f2061646472657360008201527f7300000000000000000000000000000000000000000000000000000000000000602082015250565b6000611660602183610faf565b915061166b82611604565b604082019050919050565b6000602082019050818103600083015261168f81611653565b9050919050565b7f45524332303a206275726e20616d6f756e7420657863656564732062616c616e60008201527f6365000000000000000000000000000000000000000000000000000000000000602082015250565b60006116f2602283610faf565b91506116fd82611696565b604082019050919050565b60006020820190508181036000830152611721816116e5565b9050919050565b6000611733826110b9565b915061173e836110b9565b925082820390508181111561175657611755611535565b5b9291505056fea2646970667358221220277ee67224614cac94fbcb683fe867f0a6865de1de4358259d14671357cec04864736f6c63430008110033",
  "immutableReferences": {},
  "source": "// SPDX-License-Identifier: MIT\r\npragma solidity ^0.8.15;\r\n\r\nimport \"./ERC20AccessCampus.sol\";\r\n\r\ncontract AccessCampus {\r\n    AccessERC20 public token;\r\n\r\n    address owner;\r\n\r\n    modifier isOwner() {\r\n        require(msg.sender == owner, \"Not owner\");\r\n        _;\r\n    }\r\n\r\n    constructor() {\r\n        owner = msg.sender;\r\n        token = new AccessERC20(address(this));\r\n    }\r\n\r\n    function createToken(uint _tokenAmount) public isOwner returns (bool) {\r\n        token.createToken(_tokenAmount); \r\n        return true;\r\n    }\r\n\r\n    function givePresence(address _to) public isOwner returns (bool) {\r\n        token.transferFrom(address(this), _to, 1);\r\n        return true;\r\n    }\r\n\r\n    function removePresence(address _student, uint256 _times)\r\n        public\r\n        isOwner\r\n        returns (bool)\r\n    {\r\n        token.burnToken(_student, _times);\r\n        return true;\r\n    }\r\n\r\n    function seePresences(address _student) public view returns (uint256) {\r\n        uint256 presences = token.balanceOf(_student);\r\n        return presences;\r\n    }\r\n\r\n    function totalSupply() public view returns (uint256) {\r\n        return token.totalSupply();\r\n    }\r\n}\r\n",
  "sourcePath": "C:\\Users\\reish\\Documents\\GitHub\\projeto_inteli\\contracts\\AccessCampusERC20.sol",
  "compiler": {
    "name": "solc",
    "version": "0.8.17+commit.8df45f5f.Emscripten.clang"
  },
  "schemaVersion": "3.4.10",
  "updatedAt": "2022-11-23T13:53:06.490Z",
  "networkType": "ethereum",
  "devdoc": {
    "kind": "dev",
    "methods": {},
    "version": 1
  },
  "userdoc": {
    "kind": "user",
    "methods": {},
    "version": 1
  }
}