{
  "contractName": "InteliFactory",
  "abi": [
    {
      "inputs": [],
      "stateMutability": "nonpayable",
      "type": "constructor"
    },
    {
      "anonymous": false,
      "inputs": [
        {
          "indexed": false,
          "internalType": "address",
          "name": "",
          "type": "address"
        },
        {
          "indexed": false,
          "internalType": "uint256",
          "name": "",
          "type": "uint256"
        }
      ],
      "name": "Received",
      "type": "event"
    },
    {
      "inputs": [],
      "name": "owner",
      "outputs": [
        {
          "internalType": "address",
          "name": "",
          "type": "address"
        }
      ],
      "stateMutability": "view",
      "type": "function",
      "constant": true
    },
    {
      "stateMutability": "payable",
      "type": "receive",
      "payable": true
    },
    {
      "inputs": [
        {
          "internalType": "string",
          "name": "_id",
          "type": "string"
        }
      ],
      "name": "createStudent",
      "outputs": [],
      "stateMutability": "nonpayable",
      "type": "function"
    },
    {
      "inputs": [
        {
          "internalType": "string",
          "name": "_ra",
          "type": "string"
        }
      ],
      "name": "getWallet",
      "outputs": [
        {
          "internalType": "address",
          "name": "",
          "type": "address"
        }
      ],
      "stateMutability": "view",
      "type": "function",
      "constant": true
    },
    {
      "inputs": [
        {
          "internalType": "address",
          "name": "_id",
          "type": "address"
        }
      ],
      "name": "getStudent",
      "outputs": [
        {
          "internalType": "string",
          "name": "",
          "type": "string"
        }
      ],
      "stateMutability": "view",
      "type": "function",
      "constant": true
    },
    {
      "inputs": [],
      "name": "getArrStudent",
      "outputs": [
        {
          "internalType": "address[]",
          "name": "",
          "type": "address[]"
        }
      ],
      "stateMutability": "view",
      "type": "function",
      "constant": true
    },
    {
      "inputs": [
        {
          "internalType": "string",
          "name": "_ra",
          "type": "string"
        }
      ],
      "name": "removeStudent",
      "outputs": [],
      "stateMutability": "nonpayable",
      "type": "function"
    },
    {
      "inputs": [
        {
          "internalType": "address payable",
          "name": "_id",
          "type": "address"
        },
        {
          "internalType": "uint256",
          "name": "_amount",
          "type": "uint256"
        }
      ],
      "name": "transferMoney",
      "outputs": [],
      "stateMutability": "payable",
      "type": "function",
      "payable": true
    },
    {
      "inputs": [],
      "name": "getBalance",
      "outputs": [
        {
          "internalType": "uint256",
          "name": "",
          "type": "uint256"
        }
      ],
      "stateMutability": "view",
      "type": "function",
      "constant": true
    }
  ],
  "bytecode": "0x608060405234801561001057600080fd5b50336000806101000a81548173ffffffffffffffffffffffffffffffffffffffff021916908373ffffffffffffffffffffffffffffffffffffffff1602179055506132e4806100606000396000f3fe6080604052600436106200008b5760003560e01c8063a4e2df661162000055578063a4e2df6614620001a7578063edd6cfb114620001eb578063f80bc6641462000219578063fee666ad146200024757620000ce565b8063082b48ac14620000d357806312065fe014620001035780636b7b44d714620001335780638da5cb5b146200017757620000ce565b36620000ce577f88a5966d370b9919b20f3e2c13ff65706f196a4e32cc2c12bf57088f885258743334604051620000c492919062000e28565b60405180910390a1005b600080fd5b348015620000e057600080fd5b50620000eb62000267565b604051620000fa919062000f23565b60405180910390f35b3480156200011057600080fd5b506200011b62000388565b6040516200012a919062000f47565b60405180910390f35b3480156200014057600080fd5b506200015f600480360381019062000159919062000fa9565b62000421565b6040516200016e919062001075565b60405180910390f35b3480156200018457600080fd5b506200018f6200058b565b6040516200019e919062001099565b60405180910390f35b348015620001b457600080fd5b50620001d36004803603810190620001cd919062001207565b620005af565b604051620001e2919062001099565b60405180910390f35b348015620001f857600080fd5b5062000217600480360381019062000211919062001207565b6200068a565b005b3480156200022657600080fd5b506200024560048036038101906200023f919062001207565b620009c2565b005b6200026560048036038101906200025f9190620012ce565b62000c78565b005b60603373ffffffffffffffffffffffffffffffffffffffff1660008054906101000a900473ffffffffffffffffffffffffffffffffffffffff1673ffffffffffffffffffffffffffffffffffffffff1614620002fa576040517f08c379a0000000000000000000000000000000000000000000000000000000008152600401620002f19062001365565b60405180910390fd5b60038054806020026020016040519081016040528092919081815260200182805480156200037e57602002820191906000526020600020905b8160009054906101000a900473ffffffffffffffffffffffffffffffffffffffff1673ffffffffffffffffffffffffffffffffffffffff168152602001906001019080831162000333575b5050505050905090565b60003373ffffffffffffffffffffffffffffffffffffffff1660008054906101000a900473ffffffffffffffffffffffffffffffffffffffff1673ffffffffffffffffffffffffffffffffffffffff16146200041b576040517f08c379a0000000000000000000000000000000000000000000000000000000008152600401620004129062001365565b60405180910390fd5b47905090565b60603373ffffffffffffffffffffffffffffffffffffffff1660008054906101000a900473ffffffffffffffffffffffffffffffffffffffff1673ffffffffffffffffffffffffffffffffffffffff1614620004b4576040517f08c379a0000000000000000000000000000000000000000000000000000000008152600401620004ab9062001365565b60405180910390fd5b600260008373ffffffffffffffffffffffffffffffffffffffff1673ffffffffffffffffffffffffffffffffffffffff16815260200190815260200160002080546200050090620013b6565b80601f01602080910402602001604051908101604052809291908181526020018280546200052e90620013b6565b80156200057f5780601f1062000553576101008083540402835291602001916200057f565b820191906000526020600020905b8154815290600101906020018083116200056157829003601f168201915b50505050509050919050565b60008054906101000a900473ffffffffffffffffffffffffffffffffffffffff1681565b60003373ffffffffffffffffffffffffffffffffffffffff1660008054906101000a900473ffffffffffffffffffffffffffffffffffffffff1673ffffffffffffffffffffffffffffffffffffffff161462000642576040517f08c379a0000000000000000000000000000000000000000000000000000000008152600401620006399062001365565b60405180910390fd5b6001826040516200065491906200142d565b908152602001604051809103902060009054906101000a900473ffffffffffffffffffffffffffffffffffffffff169050919050565b3373ffffffffffffffffffffffffffffffffffffffff1660008054906101000a900473ffffffffffffffffffffffffffffffffffffffff1673ffffffffffffffffffffffffffffffffffffffff16146200071b576040517f08c379a0000000000000000000000000000000000000000000000000000000008152600401620007129062001365565b60405180910390fd5b600073ffffffffffffffffffffffffffffffffffffffff166001826040516200074591906200142d565b908152602001604051809103902060009054906101000a900473ffffffffffffffffffffffffffffffffffffffff1673ffffffffffffffffffffffffffffffffffffffff1603620007cd576040517f08c379a0000000000000000000000000000000000000000000000000000000008152600401620007c49062001496565b60405180910390fd5b60005b600380549050811015620008ee57600182604051620007f091906200142d565b908152602001604051809103902060009054906101000a900473ffffffffffffffffffffffffffffffffffffffff1673ffffffffffffffffffffffffffffffffffffffff16600382815481106200084c576200084b620014b8565b5b9060005260206000200160009054906101000a900473ffffffffffffffffffffffffffffffffffffffff1673ffffffffffffffffffffffffffffffffffffffff1603620008d85760038181548110620008aa57620008a9620014b8565b5b9060005260206000200160006101000a81549073ffffffffffffffffffffffffffffffffffffffff02191690555b8080620008e59062001516565b915050620007d0565b50600260006001836040516200090591906200142d565b908152602001604051809103902060009054906101000a900473ffffffffffffffffffffffffffffffffffffffff1673ffffffffffffffffffffffffffffffffffffffff1673ffffffffffffffffffffffffffffffffffffffff16815260200190815260200160002060006200097c919062000d55565b6001816040516200098e91906200142d565b908152602001604051809103902060006101000a81549073ffffffffffffffffffffffffffffffffffffffff021916905550565b3373ffffffffffffffffffffffffffffffffffffffff1660008054906101000a900473ffffffffffffffffffffffffffffffffffffffff1673ffffffffffffffffffffffffffffffffffffffff161462000a53576040517f08c379a000000000000000000000000000000000000000000000000000000000815260040162000a4a9062001365565b60405180910390fd5b600073ffffffffffffffffffffffffffffffffffffffff1660018260405162000a7d91906200142d565b908152602001604051809103902060009054906101000a900473ffffffffffffffffffffffffffffffffffffffff1673ffffffffffffffffffffffffffffffffffffffff161462000b05576040517f08c379a000000000000000000000000000000000000000000000000000000000815260040162000afc90620015b3565b60405180910390fd5b60008060009054906101000a900473ffffffffffffffffffffffffffffffffffffffff1660405162000b379062000d9b565b62000b43919062001099565b604051809103906000f08015801562000b60573d6000803e3d6000fd5b5090508060018360405162000b7691906200142d565b908152602001604051809103902060006101000a81548173ffffffffffffffffffffffffffffffffffffffff021916908373ffffffffffffffffffffffffffffffffffffffff16021790555081600260008373ffffffffffffffffffffffffffffffffffffffff1673ffffffffffffffffffffffffffffffffffffffff168152602001908152602001600020908162000c109190620017a7565b506003819080600181540180825580915050600190039060005260206000200160009091909190916101000a81548173ffffffffffffffffffffffffffffffffffffffff021916908373ffffffffffffffffffffffffffffffffffffffff1602179055505050565b3373ffffffffffffffffffffffffffffffffffffffff1660008054906101000a900473ffffffffffffffffffffffffffffffffffffffff1673ffffffffffffffffffffffffffffffffffffffff161462000d09576040517f08c379a000000000000000000000000000000000000000000000000000000000815260040162000d009062001365565b60405180910390fd5b8173ffffffffffffffffffffffffffffffffffffffff166108fc829081150290604051600060405180830381858888f1935050505015801562000d50573d6000803e3d6000fd5b505050565b50805462000d6390620013b6565b6000825580601f1062000d77575062000d98565b601f01602090049060005260206000209081019062000d97919062000da9565b5b50565b611a20806200188f83390190565b5b8082111562000dc457600081600090555060010162000daa565b5090565b600073ffffffffffffffffffffffffffffffffffffffff82169050919050565b600062000df58262000dc8565b9050919050565b62000e078162000de8565b82525050565b6000819050919050565b62000e228162000e0d565b82525050565b600060408201905062000e3f600083018562000dfc565b62000e4e602083018462000e17565b9392505050565b600081519050919050565b600082825260208201905092915050565b6000819050602082019050919050565b62000e8c8162000de8565b82525050565b600062000ea0838362000e81565b60208301905092915050565b6000602082019050919050565b600062000ec68262000e55565b62000ed2818562000e60565b935062000edf8362000e71565b8060005b8381101562000f1657815162000efa888262000e92565b975062000f078362000eac565b92505060018101905062000ee3565b5085935050505092915050565b6000602082019050818103600083015262000f3f818462000eb9565b905092915050565b600060208201905062000f5e600083018462000e17565b92915050565b6000604051905090565b600080fd5b600080fd5b62000f838162000de8565b811462000f8f57600080fd5b50565b60008135905062000fa38162000f78565b92915050565b60006020828403121562000fc25762000fc162000f6e565b5b600062000fd28482850162000f92565b91505092915050565b600081519050919050565b600082825260208201905092915050565b60005b838110156200101757808201518184015260208101905062000ffa565b60008484015250505050565b6000601f19601f8301169050919050565b6000620010418262000fdb565b6200104d818562000fe6565b93506200105f81856020860162000ff7565b6200106a8162001023565b840191505092915050565b6000602082019050818103600083015262001091818462001034565b905092915050565b6000602082019050620010b0600083018462000dfc565b92915050565b600080fd5b600080fd5b7f4e487b7100000000000000000000000000000000000000000000000000000000600052604160045260246000fd5b620010fa8262001023565b810181811067ffffffffffffffff821117156200111c576200111b620010c0565b5b80604052505050565b60006200113162000f64565b90506200113f8282620010ef565b919050565b600067ffffffffffffffff821115620011625762001161620010c0565b5b6200116d8262001023565b9050602081019050919050565b82818337600083830152505050565b6000620011a06200119a8462001144565b62001125565b905082815260208101848484011115620011bf57620011be620010bb565b5b620011cc8482856200117a565b509392505050565b600082601f830112620011ec57620011eb620010b6565b5b8135620011fe84826020860162001189565b91505092915050565b60006020828403121562001220576200121f62000f6e565b5b600082013567ffffffffffffffff81111562001241576200124062000f73565b5b6200124f84828501620011d4565b91505092915050565b6000620012658262000dc8565b9050919050565b620012778162001258565b81146200128357600080fd5b50565b60008135905062001297816200126c565b92915050565b620012a88162000e0d565b8114620012b457600080fd5b50565b600081359050620012c8816200129d565b92915050565b60008060408385031215620012e857620012e762000f6e565b5b6000620012f88582860162001286565b92505060206200130b85828601620012b7565b9150509250929050565b7f4e6f74206f776e65720000000000000000000000000000000000000000000000600082015250565b60006200134d60098362000fe6565b91506200135a8262001315565b602082019050919050565b6000602082019050818103600083015262001380816200133e565b9050919050565b7f4e487b7100000000000000000000000000000000000000000000000000000000600052602260045260246000fd5b60006002820490506001821680620013cf57607f821691505b602082108103620013e557620013e462001387565b5b50919050565b600081905092915050565b6000620014038262000fdb565b6200140f8185620013eb565b93506200142181856020860162000ff7565b80840191505092915050565b60006200143b8284620013f6565b915081905092915050565b7f53747564656e7420646f6573206e6f7420657869737400000000000000000000600082015250565b60006200147e60168362000fe6565b91506200148b8262001446565b602082019050919050565b60006020820190508181036000830152620014b1816200146f565b9050919050565b7f4e487b7100000000000000000000000000000000000000000000000000000000600052603260045260246000fd5b7f4e487b7100000000000000000000000000000000000000000000000000000000600052601160045260246000fd5b6000620015238262000e0d565b91507fffffffffffffffffffffffffffffffffffffffffffffffffffffffffffffffff8203620015585762001557620014e7565b5b600182019050919050565b7f53747564656e7420616c72656164792065786973747300000000000000000000600082015250565b60006200159b60168362000fe6565b9150620015a88262001563565b602082019050919050565b60006020820190508181036000830152620015ce816200158c565b9050919050565b60008190508160005260206000209050919050565b60006020601f8301049050919050565b600082821b905092915050565b600060088302620016397fffffffffffffffffffffffffffffffffffffffffffffffffffffffffffffffff82620015fa565b620016458683620015fa565b95508019841693508086168417925050509392505050565b6000819050919050565b600062001688620016826200167c8462000e0d565b6200165d565b62000e0d565b9050919050565b6000819050919050565b620016a48362001667565b620016bc620016b3826200168f565b84845462001607565b825550505050565b600090565b620016d3620016c4565b620016e081848462001699565b505050565b5b818110156200170857620016fc600082620016c9565b600181019050620016e6565b5050565b601f82111562001757576200172181620015d5565b6200172c84620015ea565b810160208510156200173c578190505b620017546200174b85620015ea565b830182620016e5565b50505b505050565b600082821c905092915050565b60006200177c600019846008026200175c565b1980831691505092915050565b600062001797838362001769565b9150826002028217905092915050565b620017b28262000fdb565b67ffffffffffffffff811115620017ce57620017cd620010c0565b5b620017da8254620013b6565b620017e78282856200170c565b600060209050601f8311600181146200181f57600084156200180a578287015190505b62001816858262001789565b86555062001886565b601f1984166200182f86620015d5565b60005b82811015620018595784890151825560018201915060208501945060208101905062001832565b8683101562001879578489015162001875601f89168262001769565b8355505b6001600288020188555050505b50505050505056fe60806040523480156200001157600080fd5b5060405162001a2038038062001a208339818101604052810190620000379190620000e8565b806000806101000a81548173ffffffffffffffffffffffffffffffffffffffff021916908373ffffffffffffffffffffffffffffffffffffffff160217905550506200011a565b600080fd5b600073ffffffffffffffffffffffffffffffffffffffff82169050919050565b6000620000b08262000083565b9050919050565b620000c281620000a3565b8114620000ce57600080fd5b50565b600081519050620000e281620000b7565b92915050565b6000602082840312156200010157620001006200007e565b5b60006200011184828501620000d1565b91505092915050565b6118f6806200012a6000396000f3fe6080604052600436106100e05760003560e01c8063a10d0b091161007f578063bf3c80c511610059578063bf3c80c514610308578063db43775a14610331578063e0ca43011461035a578063f23a6e611461039757610120565b8063a10d0b091461028b578063bc197c81146102b4578063bdeb5fc4146102f157610120565b80631961b32f116100bb5780631961b32f146101ca57806330683f521461020757806386ce9835146102445780638da5cb5b1461026057610120565b8062b91f1a1461012557806301ffc9a71461016257806312065fe01461019f57610120565b36610120577f88a5966d370b9919b20f3e2c13ff65706f196a4e32cc2c12bf57088f885258743334604051610116929190610e2e565b60405180910390a1005b600080fd5b34801561013157600080fd5b5061014c60048036038101906101479190610fb1565b6103d4565b60405161015991906110b8565b60405180910390f35b34801561016e57600080fd5b5061018960048036038101906101849190611132565b61050e565b604051610196919061117a565b60405180910390f35b3480156101ab57600080fd5b506101b4610588565b6040516101c19190611195565b60405180910390f35b3480156101d657600080fd5b506101f160048036038101906101ec9190610fb1565b610590565b6040516101fe9190611282565b60405180910390f35b34801561021357600080fd5b5061022e600480360381019061022991906112d0565b6106c8565b60405161023b919061132c565b60405180910390f35b61025e60048036038101906102599190611385565b61072c565b005b34801561026c57600080fd5b50610275610804565b604051610282919061132c565b60405180910390f35b34801561029757600080fd5b506102b260048036038101906102ad91906113de565b610828565b005b3480156102c057600080fd5b506102db60048036038101906102d691906115cf565b61092c565b6040516102e891906116ad565b60405180910390f35b3480156102fd57600080fd5b50610306610941565b005b34801561031457600080fd5b5061032f600480360381019061032a91906113de565b610a08565b005b34801561033d57600080fd5b50610358600480360381019061035391906116c8565b610b0c565b005b34801561036657600080fd5b50610381600480360381019061037c9190610fb1565b610c1d565b60405161038e9190611282565b60405180910390f35b3480156103a357600080fd5b506103be60048036038101906103b99190611724565b610d55565b6040516103cb91906116ad565b60405180910390f35b60603373ffffffffffffffffffffffffffffffffffffffff1660008054906101000a900473ffffffffffffffffffffffffffffffffffffffff1673ffffffffffffffffffffffffffffffffffffffff1614610464576040517f08c379a000000000000000000000000000000000000000000000000000000000815260040161045b90611818565b60405180910390fd5b60038260405161047491906118a9565b908152602001604051809103902080548060200260200160405190810160405280929190818152602001828054801561050257602002820191906000526020600020905b8160009054906101000a900473ffffffffffffffffffffffffffffffffffffffff1673ffffffffffffffffffffffffffffffffffffffff16815260200190600101908083116104b8575b50505050509050919050565b60007f4e2312e0000000000000000000000000000000000000000000000000000000007bffffffffffffffffffffffffffffffffffffffffffffffffffffffff1916827bffffffffffffffffffffffffffffffffffffffffffffffffffffffff19161480610581575061058082610d6a565b5b9050919050565b600047905090565b60603373ffffffffffffffffffffffffffffffffffffffff1660008054906101000a900473ffffffffffffffffffffffffffffffffffffffff1673ffffffffffffffffffffffffffffffffffffffff1614610620576040517f08c379a000000000000000000000000000000000000000000000000000000000815260040161061790611818565b60405180910390fd5b60018260405161063091906118a9565b90815260200160405180910390208054806020026020016040519081016040528092919081815260200182805480156106bc57602002820191906000526020600020906000905b82829054906101000a900467ffffffffffffffff1667ffffffffffffffff16815260200190600801906020826007010492830192600103820291508084116106775790505b50505050509050919050565b60038280516020810182018051848252602083016020850120818352809550505050505081815481106106fa57600080fd5b906000526020600020016000915091509054906101000a900473ffffffffffffffffffffffffffffffffffffffff1681565b3373ffffffffffffffffffffffffffffffffffffffff1660008054906101000a900473ffffffffffffffffffffffffffffffffffffffff1673ffffffffffffffffffffffffffffffffffffffff16146107ba576040517f08c379a00000000000000000000000000000000000000000000000000000000081526004016107b190611818565b60405180910390fd5b8073ffffffffffffffffffffffffffffffffffffffff166108fc349081150290604051600060405180830381858888f19350505050158015610800573d6000803e3d6000fd5b5050565b60008054906101000a900473ffffffffffffffffffffffffffffffffffffffff1681565b3373ffffffffffffffffffffffffffffffffffffffff1660008054906101000a900473ffffffffffffffffffffffffffffffffffffffff1673ffffffffffffffffffffffffffffffffffffffff16146108b6576040517f08c379a00000000000000000000000000000000000000000000000000000000081526004016108ad90611818565b60405180910390fd5b6002826040516108c691906118a9565b90815260200160405180910390208190806001815401808255809150506001900390600052602060002090600491828204019190066008029091909190916101000a81548167ffffffffffffffff021916908367ffffffffffffffff1602179055505050565b600063bc197c8160e01b905095945050505050565b3373ffffffffffffffffffffffffffffffffffffffff1660008054906101000a900473ffffffffffffffffffffffffffffffffffffffff1673ffffffffffffffffffffffffffffffffffffffff16146109cf576040517f08c379a00000000000000000000000000000000000000000000000000000000081526004016109c690611818565b60405180910390fd5b60008054906101000a900473ffffffffffffffffffffffffffffffffffffffff1673ffffffffffffffffffffffffffffffffffffffff16ff5b3373ffffffffffffffffffffffffffffffffffffffff1660008054906101000a900473ffffffffffffffffffffffffffffffffffffffff1673ffffffffffffffffffffffffffffffffffffffff1614610a96576040517f08c379a0000000000000000000000000000000000000000000000000000000008152600401610a8d90611818565b60405180910390fd5b600182604051610aa691906118a9565b90815260200160405180910390208190806001815401808255809150506001900390600052602060002090600491828204019190066008029091909190916101000a81548167ffffffffffffffff021916908367ffffffffffffffff1602179055505050565b3373ffffffffffffffffffffffffffffffffffffffff1660008054906101000a900473ffffffffffffffffffffffffffffffffffffffff1673ffffffffffffffffffffffffffffffffffffffff1614610b9a576040517f08c379a0000000000000000000000000000000000000000000000000000000008152600401610b9190611818565b60405180910390fd5b600382604051610baa91906118a9565b9081526020016040518091039020819080600181540180825580915050600190039060005260206000200160009091909190916101000a81548173ffffffffffffffffffffffffffffffffffffffff021916908373ffffffffffffffffffffffffffffffffffffffff1602179055505050565b60603373ffffffffffffffffffffffffffffffffffffffff1660008054906101000a900473ffffffffffffffffffffffffffffffffffffffff1673ffffffffffffffffffffffffffffffffffffffff1614610cad576040517f08c379a0000000000000000000000000000000000000000000000000000000008152600401610ca490611818565b60405180910390fd5b600282604051610cbd91906118a9565b9081526020016040518091039020805480602002602001604051908101604052809291908181526020018280548015610d4957602002820191906000526020600020906000905b82829054906101000a900467ffffffffffffffff1667ffffffffffffffff1681526020019060080190602082600701049283019260010382029150808411610d045790505b50505050509050919050565b600063f23a6e6160e01b905095945050505050565b60007f01ffc9a7000000000000000000000000000000000000000000000000000000007bffffffffffffffffffffffffffffffffffffffffffffffffffffffff1916827bffffffffffffffffffffffffffffffffffffffffffffffffffffffff1916149050919050565b600073ffffffffffffffffffffffffffffffffffffffff82169050919050565b6000610dff82610dd4565b9050919050565b610e0f81610df4565b82525050565b6000819050919050565b610e2881610e15565b82525050565b6000604082019050610e436000830185610e06565b610e506020830184610e1f565b9392505050565b6000604051905090565b600080fd5b600080fd5b600080fd5b600080fd5b6000601f19601f8301169050919050565b7f4e487b7100000000000000000000000000000000000000000000000000000000600052604160045260246000fd5b610ebe82610e75565b810181811067ffffffffffffffff82111715610edd57610edc610e86565b5b80604052505050565b6000610ef0610e57565b9050610efc8282610eb5565b919050565b600067ffffffffffffffff821115610f1c57610f1b610e86565b5b610f2582610e75565b9050602081019050919050565b82818337600083830152505050565b6000610f54610f4f84610f01565b610ee6565b905082815260208101848484011115610f7057610f6f610e70565b5b610f7b848285610f32565b509392505050565b600082601f830112610f9857610f97610e6b565b5b8135610fa8848260208601610f41565b91505092915050565b600060208284031215610fc757610fc6610e61565b5b600082013567ffffffffffffffff811115610fe557610fe4610e66565b5b610ff184828501610f83565b91505092915050565b600081519050919050565b600082825260208201905092915050565b6000819050602082019050919050565b61102f81610df4565b82525050565b60006110418383611026565b60208301905092915050565b6000602082019050919050565b600061106582610ffa565b61106f8185611005565b935061107a83611016565b8060005b838110156110ab5781516110928882611035565b975061109d8361104d565b92505060018101905061107e565b5085935050505092915050565b600060208201905081810360008301526110d2818461105a565b905092915050565b60007fffffffff0000000000000000000000000000000000000000000000000000000082169050919050565b61110f816110da565b811461111a57600080fd5b50565b60008135905061112c81611106565b92915050565b60006020828403121561114857611147610e61565b5b60006111568482850161111d565b91505092915050565b60008115159050919050565b6111748161115f565b82525050565b600060208201905061118f600083018461116b565b92915050565b60006020820190506111aa6000830184610e1f565b92915050565b600081519050919050565b600082825260208201905092915050565b6000819050602082019050919050565b600067ffffffffffffffff82169050919050565b6111f9816111dc565b82525050565b600061120b83836111f0565b60208301905092915050565b6000602082019050919050565b600061122f826111b0565b61123981856111bb565b9350611244836111cc565b8060005b8381101561127557815161125c88826111ff565b975061126783611217565b925050600181019050611248565b5085935050505092915050565b6000602082019050818103600083015261129c8184611224565b905092915050565b6112ad81610e15565b81146112b857600080fd5b50565b6000813590506112ca816112a4565b92915050565b600080604083850312156112e7576112e6610e61565b5b600083013567ffffffffffffffff81111561130557611304610e66565b5b61131185828601610f83565b9250506020611322858286016112bb565b9150509250929050565b60006020820190506113416000830184610e06565b92915050565b600061135282610dd4565b9050919050565b61136281611347565b811461136d57600080fd5b50565b60008135905061137f81611359565b92915050565b60006020828403121561139b5761139a610e61565b5b60006113a984828501611370565b91505092915050565b6113bb816111dc565b81146113c657600080fd5b50565b6000813590506113d8816113b2565b92915050565b600080604083850312156113f5576113f4610e61565b5b600083013567ffffffffffffffff81111561141357611412610e66565b5b61141f85828601610f83565b9250506020611430858286016113c9565b9150509250929050565b61144381610df4565b811461144e57600080fd5b50565b6000813590506114608161143a565b92915050565b600067ffffffffffffffff82111561148157611480610e86565b5b602082029050602081019050919050565b600080fd5b60006114aa6114a584611466565b610ee6565b905080838252602082019050602084028301858111156114cd576114cc611492565b5b835b818110156114f657806114e288826112bb565b8452602084019350506020810190506114cf565b5050509392505050565b600082601f83011261151557611514610e6b565b5b8135611525848260208601611497565b91505092915050565b600067ffffffffffffffff82111561154957611548610e86565b5b61155282610e75565b9050602081019050919050565b600061157261156d8461152e565b610ee6565b90508281526020810184848401111561158e5761158d610e70565b5b611599848285610f32565b509392505050565b600082601f8301126115b6576115b5610e6b565b5b81356115c684826020860161155f565b91505092915050565b600080600080600060a086880312156115eb576115ea610e61565b5b60006115f988828901611451565b955050602061160a88828901611451565b945050604086013567ffffffffffffffff81111561162b5761162a610e66565b5b61163788828901611500565b935050606086013567ffffffffffffffff81111561165857611657610e66565b5b61166488828901611500565b925050608086013567ffffffffffffffff81111561168557611684610e66565b5b611691888289016115a1565b9150509295509295909350565b6116a7816110da565b82525050565b60006020820190506116c2600083018461169e565b92915050565b600080604083850312156116df576116de610e61565b5b600083013567ffffffffffffffff8111156116fd576116fc610e66565b5b61170985828601610f83565b925050602061171a85828601611451565b9150509250929050565b600080600080600060a086880312156117405761173f610e61565b5b600061174e88828901611451565b955050602061175f88828901611451565b9450506040611770888289016112bb565b9350506060611781888289016112bb565b925050608086013567ffffffffffffffff8111156117a2576117a1610e66565b5b6117ae888289016115a1565b9150509295509295909350565b600082825260208201905092915050565b7f4e6f74206f776e65720000000000000000000000000000000000000000000000600082015250565b60006118026009836117bb565b915061180d826117cc565b602082019050919050565b60006020820190508181036000830152611831816117f5565b9050919050565b600081519050919050565b600081905092915050565b60005b8381101561186c578082015181840152602081019050611851565b60008484015250505050565b600061188382611838565b61188d8185611843565b935061189d81856020860161184e565b80840191505092915050565b60006118b58284611878565b91508190509291505056fea26469706673582212207c36f1ec65c8a3c91d466874c7d6e6452aa6604ad8130d399e9e9a914bb89c3d64736f6c63430008110033a26469706673582212209898d28b488cc799af5d4ae874b3b61771126740852be74d60d2c2de84a79cf164736f6c63430008110033",
  "immutableReferences": {},
  "source": "// SPDX-License-Identifier: MIT\r\npragma solidity ^0.8.9;\r\n\r\nimport \"./Person.sol\";\r\n\r\n/*\r\nInteliFactory contract: master contract of the project. handle deployment of other\r\ncontracts and consolidate data\r\n    . state variables\r\n        - owner: EOA, represents Inteli mngmt\r\n        - students: maps students ID to their hashed ID on the blockchain\r\n    . methods: create, retrieve and remove Persons\r\n*/\r\n\r\ncontract InteliFactory {\r\n    address public owner;\r\n    mapping(string => address) students;\r\n    mapping(address => string) wallets;\r\n    address[] arrStudents;\r\n\r\n    event Received(address, uint256);\r\n\r\n    constructor() {\r\n        owner = msg.sender;\r\n    }\r\n\r\n    modifier isOwner() {\r\n        require(owner == msg.sender, \"Not owner\");\r\n        _;\r\n    }\r\n\r\n    function createStudent(string memory _id) public isOwner {\r\n        require(students[_id] == address(0), \"Student already exists\");\r\n        Person person = new Person(owner);\r\n        students[_id] = address(person);\r\n        wallets[address(person)] = _id;\r\n        arrStudents.push(address(person));\r\n    }\r\n\r\n    function getWallet(string memory _ra)\r\n        public\r\n        view\r\n        isOwner\r\n        returns (address)\r\n    {\r\n        return students[_ra];\r\n    }\r\n\r\n    function getStudent(address _id)\r\n        public\r\n        view\r\n        isOwner\r\n        returns (string memory)\r\n    {\r\n        return wallets[_id];\r\n    }\r\n\r\n    function getArrStudent() public view isOwner returns (address[] memory) {\r\n        return arrStudents;\r\n    }\r\n\r\n    function removeStudent(string memory _ra) public isOwner {\r\n        require(students[_ra] != address(0), \"Student does not exist\");\r\n        for (uint256 i = 0; i < arrStudents.length; i++) {\r\n            if (arrStudents[i] == students[_ra]) {\r\n                delete arrStudents[i];\r\n            }\r\n        }\r\n        delete wallets[students[_ra]];\r\n        delete students[_ra];\r\n    }\r\n\r\n    function transferMoney(address payable _id, uint256 _amount)\r\n        external\r\n        payable\r\n        isOwner\r\n    {\r\n        _id.transfer(_amount);\r\n    }\r\n\r\n    receive() external payable {\r\n        emit Received(msg.sender, msg.value);\r\n    }\r\n\r\n    function getBalance() public view isOwner returns (uint256) {\r\n        return address(this).balance;\r\n    }\r\n}\r\n",
  "sourcePath": "C:\\Users\\reish\\Documents\\GitHub\\projeto_inteli\\contracts\\InteliFactory.sol",
  "compiler": {
    "name": "solc",
    "version": "0.8.17+commit.8df45f5f.Emscripten.clang"
  },
  "schemaVersion": "3.4.10",
  "updatedAt": "2022-11-23T13:53:06.434Z",
  "networkType": "ethereum",
  "devdoc": {
    "kind": "dev",
    "methods": {},
    "version": 1
  },
  "userdoc": {
    "kind": "user",
    "methods": {},
    "version": 1
  }
}