{
  "contractName": "Lecture",
  "abi": [
    {
      "inputs": [
        {
          "internalType": "address[]",
          "name": "_arrayUsers",
          "type": "address[]"
        },
        {
          "internalType": "string",
          "name": "_ipfsLink",
          "type": "string"
        },
        {
          "internalType": "address",
          "name": "_owner",
          "type": "address"
        }
      ],
      "stateMutability": "nonpayable",
      "type": "constructor"
    },
    {
      "anonymous": false,
      "inputs": [
        {
          "indexed": true,
          "internalType": "address",
          "name": "account",
          "type": "address"
        },
        {
          "indexed": true,
          "internalType": "address",
          "name": "operator",
          "type": "address"
        },
        {
          "indexed": false,
          "internalType": "bool",
          "name": "approved",
          "type": "bool"
        }
      ],
      "name": "ApprovalForAll",
      "type": "event"
    },
    {
      "anonymous": false,
      "inputs": [
        {
          "indexed": true,
          "internalType": "address",
          "name": "operator",
          "type": "address"
        },
        {
          "indexed": true,
          "internalType": "address",
          "name": "from",
          "type": "address"
        },
        {
          "indexed": true,
          "internalType": "address",
          "name": "to",
          "type": "address"
        },
        {
          "indexed": false,
          "internalType": "uint256[]",
          "name": "ids",
          "type": "uint256[]"
        },
        {
          "indexed": false,
          "internalType": "uint256[]",
          "name": "values",
          "type": "uint256[]"
        }
      ],
      "name": "TransferBatch",
      "type": "event"
    },
    {
      "anonymous": false,
      "inputs": [
        {
          "indexed": true,
          "internalType": "address",
          "name": "operator",
          "type": "address"
        },
        {
          "indexed": true,
          "internalType": "address",
          "name": "from",
          "type": "address"
        },
        {
          "indexed": true,
          "internalType": "address",
          "name": "to",
          "type": "address"
        },
        {
          "indexed": false,
          "internalType": "uint256",
          "name": "id",
          "type": "uint256"
        },
        {
          "indexed": false,
          "internalType": "uint256",
          "name": "value",
          "type": "uint256"
        }
      ],
      "name": "TransferSingle",
      "type": "event"
    },
    {
      "anonymous": false,
      "inputs": [
        {
          "indexed": false,
          "internalType": "string",
          "name": "value",
          "type": "string"
        },
        {
          "indexed": true,
          "internalType": "uint256",
          "name": "id",
          "type": "uint256"
        }
      ],
      "name": "URI",
      "type": "event"
    },
    {
      "inputs": [
        {
          "internalType": "address",
          "name": "account",
          "type": "address"
        },
        {
          "internalType": "uint256",
          "name": "id",
          "type": "uint256"
        }
      ],
      "name": "balanceOf",
      "outputs": [
        {
          "internalType": "uint256",
          "name": "",
          "type": "uint256"
        }
      ],
      "stateMutability": "view",
      "type": "function"
    },
    {
      "inputs": [
        {
          "internalType": "address[]",
          "name": "accounts",
          "type": "address[]"
        },
        {
          "internalType": "uint256[]",
          "name": "ids",
          "type": "uint256[]"
        }
      ],
      "name": "balanceOfBatch",
      "outputs": [
        {
          "internalType": "uint256[]",
          "name": "",
          "type": "uint256[]"
        }
      ],
      "stateMutability": "view",
      "type": "function"
    },
    {
      "inputs": [
        {
          "internalType": "address",
          "name": "account",
          "type": "address"
        },
        {
          "internalType": "address",
          "name": "operator",
          "type": "address"
        }
      ],
      "name": "isApprovedForAll",
      "outputs": [
        {
          "internalType": "bool",
          "name": "",
          "type": "bool"
        }
      ],
      "stateMutability": "view",
      "type": "function"
    },
    {
      "inputs": [],
      "name": "owner",
      "outputs": [
        {
          "internalType": "address",
          "name": "",
          "type": "address"
        }
      ],
      "stateMutability": "view",
      "type": "function"
    },
    {
      "inputs": [
        {
          "internalType": "uint256",
          "name": "",
          "type": "uint256"
        }
      ],
      "name": "people",
      "outputs": [
        {
          "internalType": "address",
          "name": "",
          "type": "address"
        }
      ],
      "stateMutability": "view",
      "type": "function"
    },
    {
      "inputs": [
        {
          "internalType": "address",
          "name": "from",
          "type": "address"
        },
        {
          "internalType": "address",
          "name": "to",
          "type": "address"
        },
        {
          "internalType": "uint256[]",
          "name": "ids",
          "type": "uint256[]"
        },
        {
          "internalType": "uint256[]",
          "name": "amounts",
          "type": "uint256[]"
        },
        {
          "internalType": "bytes",
          "name": "data",
          "type": "bytes"
        }
      ],
      "name": "safeBatchTransferFrom",
      "outputs": [],
      "stateMutability": "nonpayable",
      "type": "function"
    },
    {
      "inputs": [
        {
          "internalType": "address",
          "name": "from",
          "type": "address"
        },
        {
          "internalType": "address",
          "name": "to",
          "type": "address"
        },
        {
          "internalType": "uint256",
          "name": "id",
          "type": "uint256"
        },
        {
          "internalType": "uint256",
          "name": "amount",
          "type": "uint256"
        },
        {
          "internalType": "bytes",
          "name": "data",
          "type": "bytes"
        }
      ],
      "name": "safeTransferFrom",
      "outputs": [],
      "stateMutability": "nonpayable",
      "type": "function"
    },
    {
      "inputs": [
        {
          "internalType": "address",
          "name": "operator",
          "type": "address"
        },
        {
          "internalType": "bool",
          "name": "approved",
          "type": "bool"
        }
      ],
      "name": "setApprovalForAll",
      "outputs": [],
      "stateMutability": "nonpayable",
      "type": "function"
    },
    {
      "inputs": [
        {
          "internalType": "bytes4",
          "name": "interfaceId",
          "type": "bytes4"
        }
      ],
      "name": "supportsInterface",
      "outputs": [
        {
          "internalType": "bool",
          "name": "",
          "type": "bool"
        }
      ],
      "stateMutability": "view",
      "type": "function"
    },
    {
      "inputs": [
        {
          "internalType": "uint256",
          "name": "",
          "type": "uint256"
        }
      ],
      "name": "uri",
      "outputs": [
        {
          "internalType": "string",
          "name": "",
          "type": "string"
        }
      ],
      "stateMutability": "view",
      "type": "function"
    },
    {
      "inputs": [
        {
          "internalType": "address",
          "name": "_address",
          "type": "address"
        }
      ],
      "name": "burnNFT",
      "outputs": [],
      "stateMutability": "nonpayable",
      "type": "function"
    },
    {
      "inputs": [],
      "name": "returnPeople",
      "outputs": [
        {
          "internalType": "address[]",
          "name": "",
          "type": "address[]"
        }
      ],
      "stateMutability": "view",
      "type": "function"
    }
  ],
  "bytecode": "0x60806040523480156200001157600080fd5b5060405162003f7b38038062003f7b833981810160405281019062000037919062000944565b8162000049816200011260201b60201c565b5080600360006101000a81548173ffffffffffffffffffffffffffffffffffffffff021916908373ffffffffffffffffffffffffffffffffffffffff1602179055508260049080519060200190620000a3929190620005c3565b5060005b83518110156200010857620000f2848281518110620000cb57620000ca620009de565b5b6020026020010151600180604051806020016040528060008152506200012760201b60201c565b8080620000ff9062000a46565b915050620000a7565b50505050620012a0565b806002908162000123919062000cd4565b5050565b600073ffffffffffffffffffffffffffffffffffffffff168473ffffffffffffffffffffffffffffffffffffffff160362000199576040517f08c379a0000000000000000000000000000000000000000000000000000000008152600401620001909062000e42565b60405180910390fd5b6000620001ab6200030e60201b60201c565b90506000620001c0856200031660201b60201c565b90506000620001d5856200031660201b60201c565b9050620001ee836000898585896200039760201b60201c565b8460008088815260200190815260200160002060008973ffffffffffffffffffffffffffffffffffffffff1673ffffffffffffffffffffffffffffffffffffffff16815260200190815260200160002060008282546200024f919062000e64565b925050819055508673ffffffffffffffffffffffffffffffffffffffff16600073ffffffffffffffffffffffffffffffffffffffff168473ffffffffffffffffffffffffffffffffffffffff167fc3d58168c5ae7397731d063d5bbf3d657854427343f4c083240f7aacaa2d0f628989604051620002cf92919062000eb0565b60405180910390a4620002ee836000898585896200039f60201b60201c565b6200030583600089898989620003a760201b60201c565b50505050505050565b600033905090565b60606000600167ffffffffffffffff8111156200033857620003376200069b565b5b604051908082528060200260200182016040528015620003675781602001602082028036833780820191505090505b5090508281600081518110620003825762000381620009de565b5b60200260200101818152505080915050919050565b505050505050565b505050505050565b620003d38473ffffffffffffffffffffffffffffffffffffffff16620005a060201b620009e91760201c565b1562000598578373ffffffffffffffffffffffffffffffffffffffff1663f23a6e6187878686866040518663ffffffff1660e01b81526004016200041c95949392919062000f4b565b6020604051808303816000875af19250505080156200045b57506040513d601f19601f820116820180604052508101906200045891906200100c565b60015b6200050c576200046a6200104b565b806308c379a003620004cd57506200048162001070565b806200048e5750620004cf565b806040517f08c379a0000000000000000000000000000000000000000000000000000000008152600401620004c491906200114c565b60405180910390fd5b505b6040517f08c379a00000000000000000000000000000000000000000000000000000000081526004016200050390620011e6565b60405180910390fd5b63f23a6e6160e01b7bffffffffffffffffffffffffffffffffffffffffffffffffffffffff1916817bffffffffffffffffffffffffffffffffffffffffffffffffffffffff19161462000596576040517f08c379a00000000000000000000000000000000000000000000000000000000081526004016200058d906200127e565b60405180910390fd5b505b505050505050565b6000808273ffffffffffffffffffffffffffffffffffffffff163b119050919050565b8280548282559060005260206000209081019282156200063f579160200282015b828111156200063e5782518260006101000a81548173ffffffffffffffffffffffffffffffffffffffff021916908373ffffffffffffffffffffffffffffffffffffffff16021790555091602001919060010190620005e4565b5b5090506200064e919062000652565b5090565b5b808211156200066d57600081600090555060010162000653565b5090565b6000604051905090565b600080fd5b600080fd5b600080fd5b6000601f19601f8301169050919050565b7f4e487b7100000000000000000000000000000000000000000000000000000000600052604160045260246000fd5b620006d5826200068a565b810181811067ffffffffffffffff82111715620006f757620006f66200069b565b5b80604052505050565b60006200070c62000671565b90506200071a8282620006ca565b919050565b600067ffffffffffffffff8211156200073d576200073c6200069b565b5b602082029050602081019050919050565b600080fd5b600073ffffffffffffffffffffffffffffffffffffffff82169050919050565b6000620007808262000753565b9050919050565b620007928162000773565b81146200079e57600080fd5b50565b600081519050620007b28162000787565b92915050565b6000620007cf620007c9846200071f565b62000700565b90508083825260208201905060208402830185811115620007f557620007f46200074e565b5b835b818110156200082257806200080d8882620007a1565b845260208401935050602081019050620007f7565b5050509392505050565b600082601f83011262000844576200084362000685565b5b815162000856848260208601620007b8565b91505092915050565b600080fd5b600067ffffffffffffffff8211156200088257620008816200069b565b5b6200088d826200068a565b9050602081019050919050565b60005b83811015620008ba5780820151818401526020810190506200089d565b60008484015250505050565b6000620008dd620008d78462000864565b62000700565b905082815260208101848484011115620008fc57620008fb6200085f565b5b620009098482856200089a565b509392505050565b600082601f83011262000929576200092862000685565b5b81516200093b848260208601620008c6565b91505092915050565b60008060006060848603121562000960576200095f6200067b565b5b600084015167ffffffffffffffff81111562000981576200098062000680565b5b6200098f868287016200082c565b935050602084015167ffffffffffffffff811115620009b357620009b262000680565b5b620009c18682870162000911565b9250506040620009d486828701620007a1565b9150509250925092565b7f4e487b7100000000000000000000000000000000000000000000000000000000600052603260045260246000fd5b7f4e487b7100000000000000000000000000000000000000000000000000000000600052601160045260246000fd5b6000819050919050565b600062000a538262000a3c565b91507fffffffffffffffffffffffffffffffffffffffffffffffffffffffffffffffff820362000a885762000a8762000a0d565b5b600182019050919050565b600081519050919050565b7f4e487b7100000000000000000000000000000000000000000000000000000000600052602260045260246000fd5b6000600282049050600182168062000ae657607f821691505b60208210810362000afc5762000afb62000a9e565b5b50919050565b60008190508160005260206000209050919050565b60006020601f8301049050919050565b600082821b905092915050565b60006008830262000b667fffffffffffffffffffffffffffffffffffffffffffffffffffffffffffffffff8262000b27565b62000b72868362000b27565b95508019841693508086168417925050509392505050565b6000819050919050565b600062000bb562000baf62000ba98462000a3c565b62000b8a565b62000a3c565b9050919050565b6000819050919050565b62000bd18362000b94565b62000be962000be08262000bbc565b84845462000b34565b825550505050565b600090565b62000c0062000bf1565b62000c0d81848462000bc6565b505050565b5b8181101562000c355762000c2960008262000bf6565b60018101905062000c13565b5050565b601f82111562000c845762000c4e8162000b02565b62000c598462000b17565b8101602085101562000c69578190505b62000c8162000c788562000b17565b83018262000c12565b50505b505050565b600082821c905092915050565b600062000ca96000198460080262000c89565b1980831691505092915050565b600062000cc4838362000c96565b9150826002028217905092915050565b62000cdf8262000a93565b67ffffffffffffffff81111562000cfb5762000cfa6200069b565b5b62000d07825462000acd565b62000d1482828562000c39565b600060209050601f83116001811462000d4c576000841562000d37578287015190505b62000d43858262000cb6565b86555062000db3565b601f19841662000d5c8662000b02565b60005b8281101562000d865784890151825560018201915060208501945060208101905062000d5f565b8683101562000da6578489015162000da2601f89168262000c96565b8355505b6001600288020188555050505b505050505050565b600082825260208201905092915050565b7f455243313135353a206d696e7420746f20746865207a65726f2061646472657360008201527f7300000000000000000000000000000000000000000000000000000000000000602082015250565b600062000e2a60218362000dbb565b915062000e378262000dcc565b604082019050919050565b6000602082019050818103600083015262000e5d8162000e1b565b9050919050565b600062000e718262000a3c565b915062000e7e8362000a3c565b925082820190508082111562000e995762000e9862000a0d565b5b92915050565b62000eaa8162000a3c565b82525050565b600060408201905062000ec7600083018562000e9f565b62000ed6602083018462000e9f565b9392505050565b62000ee88162000773565b82525050565b600081519050919050565b600082825260208201905092915050565b600062000f178262000eee565b62000f23818562000ef9565b935062000f358185602086016200089a565b62000f40816200068a565b840191505092915050565b600060a08201905062000f62600083018862000edd565b62000f71602083018762000edd565b62000f80604083018662000e9f565b62000f8f606083018562000e9f565b818103608083015262000fa3818462000f0a565b90509695505050505050565b60007fffffffff0000000000000000000000000000000000000000000000000000000082169050919050565b62000fe68162000faf565b811462000ff257600080fd5b50565b600081519050620010068162000fdb565b92915050565b6000602082840312156200102557620010246200067b565b5b6000620010358482850162000ff5565b91505092915050565b60008160e01c9050919050565b600060033d11156200106d5760046000803e6200106a6000516200103e565b90505b90565b600060443d1062001108576200108562000671565b60043d036004823e80513d602482011167ffffffffffffffff82111715620010af57505062001108565b808201805167ffffffffffffffff811115620010cf575050505062001108565b80602083010160043d038501811115620010ee57505050505062001108565b620010ff82602001850186620006ca565b82955050505050505b90565b6000620011188262000a93565b62001124818562000dbb565b9350620011368185602086016200089a565b62001141816200068a565b840191505092915050565b600060208201905081810360008301526200116881846200110b565b905092915050565b7f455243313135353a207472616e7366657220746f206e6f6e204552433131353560008201527f526563656976657220696d706c656d656e746572000000000000000000000000602082015250565b6000620011ce60348362000dbb565b9150620011db8262001170565b604082019050919050565b600060208201905081810360008301526200120181620011bf565b9050919050565b7f455243313135353a204552433131353552656365697665722072656a6563746560008201527f6420746f6b656e73000000000000000000000000000000000000000000000000602082015250565b60006200126660288362000dbb565b9150620012738262001208565b604082019050919050565b60006020820190508181036000830152620012998162001257565b9050919050565b612ccb80620012b06000396000f3fe608060405234801561001057600080fd5b50600436106100b35760003560e01c80639e7a13ad116100715780639e7a13ad146101b2578063a22cb465146101e2578063e985e9c5146101fe578063f0150ce51461022e578063f242432a1461024c578063f83efec814610268576100b3565b8062fdd58e146100b857806301ffc9a7146100e85780630e89341c146101185780632eb2c2d6146101485780634e1273f4146101645780638da5cb5b14610194575b600080fd5b6100d260048036038101906100cd91906118cc565b610284565b6040516100df919061191b565b60405180910390f35b61010260048036038101906100fd919061198e565b61034c565b60405161010f91906119d6565b60405180910390f35b610132600480360381019061012d91906119f1565b61042e565b60405161013f9190611aae565b60405180910390f35b610162600480360381019061015d9190611ccd565b6104c2565b005b61017e60048036038101906101799190611e5f565b610563565b60405161018b9190611f95565b60405180910390f35b61019c61067c565b6040516101a99190611fc6565b60405180910390f35b6101cc60048036038101906101c791906119f1565b6106a2565b6040516101d99190611fc6565b60405180910390f35b6101fc60048036038101906101f7919061200d565b6106e1565b005b6102186004803603810190610213919061204d565b6106f7565b60405161022591906119d6565b60405180910390f35b61023661078b565b604051610243919061214b565b60405180910390f35b6102666004803603810190610261919061216d565b6108a9565b005b610282600480360381019061027d9190612204565b61094a565b005b60008073ffffffffffffffffffffffffffffffffffffffff168373ffffffffffffffffffffffffffffffffffffffff16036102f4576040517f08c379a00000000000000000000000000000000000000000000000000000000081526004016102eb906122a3565b60405180910390fd5b60008083815260200190815260200160002060008473ffffffffffffffffffffffffffffffffffffffff1673ffffffffffffffffffffffffffffffffffffffff16815260200190815260200160002054905092915050565b60007fd9b67a26000000000000000000000000000000000000000000000000000000007bffffffffffffffffffffffffffffffffffffffffffffffffffffffff1916827bffffffffffffffffffffffffffffffffffffffffffffffffffffffff1916148061041757507f0e89341c000000000000000000000000000000000000000000000000000000007bffffffffffffffffffffffffffffffffffffffffffffffffffffffff1916827bffffffffffffffffffffffffffffffffffffffffffffffffffffffff1916145b80610427575061042682610a0c565b5b9050919050565b60606002805461043d906122f2565b80601f0160208091040260200160405190810160405280929190818152602001828054610469906122f2565b80156104b65780601f1061048b576101008083540402835291602001916104b6565b820191906000526020600020905b81548152906001019060200180831161049957829003601f168201915b50505050509050919050565b6104ca610a76565b73ffffffffffffffffffffffffffffffffffffffff168573ffffffffffffffffffffffffffffffffffffffff161480610510575061050f8561050a610a76565b6106f7565b5b61054f576040517f08c379a000000000000000000000000000000000000000000000000000000000815260040161054690612395565b60405180910390fd5b61055c8585858585610a7e565b5050505050565b606081518351146105a9576040517f08c379a00000000000000000000000000000000000000000000000000000000081526004016105a090612427565b60405180910390fd5b6000835167ffffffffffffffff8111156105c6576105c5611ad5565b5b6040519080825280602002602001820160405280156105f45781602001602082028036833780820191505090505b50905060005b84518110156106715761064185828151811061061957610618612447565b5b602002602001015185838151811061063457610633612447565b5b6020026020010151610284565b82828151811061065457610653612447565b5b6020026020010181815250508061066a906124a5565b90506105fa565b508091505092915050565b600360009054906101000a900473ffffffffffffffffffffffffffffffffffffffff1681565b600481815481106106b257600080fd5b906000526020600020016000915054906101000a900473ffffffffffffffffffffffffffffffffffffffff1681565b6106f36106ec610a76565b8383610d9f565b5050565b6000600160008473ffffffffffffffffffffffffffffffffffffffff1673ffffffffffffffffffffffffffffffffffffffff16815260200190815260200160002060008373ffffffffffffffffffffffffffffffffffffffff1673ffffffffffffffffffffffffffffffffffffffff16815260200190815260200160002060009054906101000a900460ff16905092915050565b60603373ffffffffffffffffffffffffffffffffffffffff16600360009054906101000a900473ffffffffffffffffffffffffffffffffffffffff1673ffffffffffffffffffffffffffffffffffffffff161461081d576040517f08c379a000000000000000000000000000000000000000000000000000000000815260040161081490612539565b60405180910390fd5b600480548060200260200160405190810160405280929190818152602001828054801561089f57602002820191906000526020600020905b8160009054906101000a900473ffffffffffffffffffffffffffffffffffffffff1673ffffffffffffffffffffffffffffffffffffffff1681526020019060010190808311610855575b5050505050905090565b6108b1610a76565b73ffffffffffffffffffffffffffffffffffffffff168573ffffffffffffffffffffffffffffffffffffffff1614806108f757506108f6856108f1610a76565b6106f7565b5b610936576040517f08c379a000000000000000000000000000000000000000000000000000000000815260040161092d90612395565b60405180910390fd5b6109438585858585610f0b565b5050505050565b3373ffffffffffffffffffffffffffffffffffffffff16600360009054906101000a900473ffffffffffffffffffffffffffffffffffffffff1673ffffffffffffffffffffffffffffffffffffffff16146109da576040517f08c379a00000000000000000000000000000000000000000000000000000000081526004016109d190612539565b60405180910390fd5b6109e6816001806111a6565b50565b6000808273ffffffffffffffffffffffffffffffffffffffff163b119050919050565b60007f01ffc9a7000000000000000000000000000000000000000000000000000000007bffffffffffffffffffffffffffffffffffffffffffffffffffffffff1916827bffffffffffffffffffffffffffffffffffffffffffffffffffffffff1916149050919050565b600033905090565b8151835114610ac2576040517f08c379a0000000000000000000000000000000000000000000000000000000008152600401610ab9906125cb565b60405180910390fd5b600073ffffffffffffffffffffffffffffffffffffffff168473ffffffffffffffffffffffffffffffffffffffff1603610b31576040517f08c379a0000000000000000000000000000000000000000000000000000000008152600401610b289061265d565b60405180910390fd5b6000610b3b610a76565b9050610b4b8187878787876113ec565b60005b8451811015610cfc576000858281518110610b6c57610b6b612447565b5b602002602001015190506000858381518110610b8b57610b8a612447565b5b60200260200101519050600080600084815260200190815260200160002060008b73ffffffffffffffffffffffffffffffffffffffff1673ffffffffffffffffffffffffffffffffffffffff16815260200190815260200160002054905081811015610c2c576040517f08c379a0000000000000000000000000000000000000000000000000000000008152600401610c23906126ef565b60405180910390fd5b81810360008085815260200190815260200160002060008c73ffffffffffffffffffffffffffffffffffffffff1673ffffffffffffffffffffffffffffffffffffffff168152602001908152602001600020819055508160008085815260200190815260200160002060008b73ffffffffffffffffffffffffffffffffffffffff1673ffffffffffffffffffffffffffffffffffffffff1681526020019081526020016000206000828254610ce1919061270f565b9250508190555050505080610cf5906124a5565b9050610b4e565b508473ffffffffffffffffffffffffffffffffffffffff168673ffffffffffffffffffffffffffffffffffffffff168273ffffffffffffffffffffffffffffffffffffffff167f4a39dc06d4c0dbc64b70af90fd698a233a518aa5d07e595d983b8c0526c8f7fb8787604051610d73929190612743565b60405180910390a4610d898187878787876113f4565b610d978187878787876113fc565b505050505050565b8173ffffffffffffffffffffffffffffffffffffffff168373ffffffffffffffffffffffffffffffffffffffff1603610e0d576040517f08c379a0000000000000000000000000000000000000000000000000000000008152600401610e04906127ec565b60405180910390fd5b80600160008573ffffffffffffffffffffffffffffffffffffffff1673ffffffffffffffffffffffffffffffffffffffff16815260200190815260200160002060008473ffffffffffffffffffffffffffffffffffffffff1673ffffffffffffffffffffffffffffffffffffffff16815260200190815260200160002060006101000a81548160ff0219169083151502179055508173ffffffffffffffffffffffffffffffffffffffff168373ffffffffffffffffffffffffffffffffffffffff167f17307eab39ab6107e8899845ad3d59bd9653f200f220920489ca2b5937696c3183604051610efe91906119d6565b60405180910390a3505050565b600073ffffffffffffffffffffffffffffffffffffffff168473ffffffffffffffffffffffffffffffffffffffff1603610f7a576040517f08c379a0000000000000000000000000000000000000000000000000000000008152600401610f719061265d565b60405180910390fd5b6000610f84610a76565b90506000610f91856115d3565b90506000610f9e856115d3565b9050610fae8389898585896113ec565b600080600088815260200190815260200160002060008a73ffffffffffffffffffffffffffffffffffffffff1673ffffffffffffffffffffffffffffffffffffffff16815260200190815260200160002054905085811015611045576040517f08c379a000000000000000000000000000000000000000000000000000000000815260040161103c906126ef565b60405180910390fd5b85810360008089815260200190815260200160002060008b73ffffffffffffffffffffffffffffffffffffffff1673ffffffffffffffffffffffffffffffffffffffff168152602001908152602001600020819055508560008089815260200190815260200160002060008a73ffffffffffffffffffffffffffffffffffffffff1673ffffffffffffffffffffffffffffffffffffffff16815260200190815260200160002060008282546110fa919061270f565b925050819055508773ffffffffffffffffffffffffffffffffffffffff168973ffffffffffffffffffffffffffffffffffffffff168573ffffffffffffffffffffffffffffffffffffffff167fc3d58168c5ae7397731d063d5bbf3d657854427343f4c083240f7aacaa2d0f628a8a60405161117792919061280c565b60405180910390a461118d848a8a86868a6113f4565b61119b848a8a8a8a8a61164d565b505050505050505050565b600073ffffffffffffffffffffffffffffffffffffffff168373ffffffffffffffffffffffffffffffffffffffff1603611215576040517f08c379a000000000000000000000000000000000000000000000000000000000815260040161120c906128a7565b60405180910390fd5b600061121f610a76565b9050600061122c846115d3565b90506000611239846115d3565b9050611259838760008585604051806020016040528060008152506113ec565b600080600087815260200190815260200160002060008873ffffffffffffffffffffffffffffffffffffffff1673ffffffffffffffffffffffffffffffffffffffff168152602001908152602001600020549050848110156112f0576040517f08c379a00000000000000000000000000000000000000000000000000000000081526004016112e790612939565b60405180910390fd5b84810360008088815260200190815260200160002060008973ffffffffffffffffffffffffffffffffffffffff1673ffffffffffffffffffffffffffffffffffffffff16815260200190815260200160002081905550600073ffffffffffffffffffffffffffffffffffffffff168773ffffffffffffffffffffffffffffffffffffffff168573ffffffffffffffffffffffffffffffffffffffff167fc3d58168c5ae7397731d063d5bbf3d657854427343f4c083240f7aacaa2d0f6289896040516113bd92919061280c565b60405180910390a46113e3848860008686604051806020016040528060008152506113f4565b50505050505050565b505050505050565b505050505050565b61141b8473ffffffffffffffffffffffffffffffffffffffff166109e9565b156115cb578373ffffffffffffffffffffffffffffffffffffffff1663bc197c8187878686866040518663ffffffff1660e01b81526004016114619594939291906129ae565b6020604051808303816000875af192505050801561149d57506040513d601f19601f8201168201806040525081019061149a9190612a2b565b60015b611542576114a9612a65565b806308c379a00361150557506114bd612a87565b806114c85750611507565b806040517f08c379a00000000000000000000000000000000000000000000000000000000081526004016114fc9190611aae565b60405180910390fd5b505b6040517f08c379a000000000000000000000000000000000000000000000000000000000815260040161153990612b89565b60405180910390fd5b63bc197c8160e01b7bffffffffffffffffffffffffffffffffffffffffffffffffffffffff1916817bffffffffffffffffffffffffffffffffffffffffffffffffffffffff1916146115c9576040517f08c379a00000000000000000000000000000000000000000000000000000000081526004016115c090612c1b565b60405180910390fd5b505b505050505050565b60606000600167ffffffffffffffff8111156115f2576115f1611ad5565b5b6040519080825280602002602001820160405280156116205781602001602082028036833780820191505090505b509050828160008151811061163857611637612447565b5b60200260200101818152505080915050919050565b61166c8473ffffffffffffffffffffffffffffffffffffffff166109e9565b1561181c578373ffffffffffffffffffffffffffffffffffffffff1663f23a6e6187878686866040518663ffffffff1660e01b81526004016116b2959493929190612c3b565b6020604051808303816000875af19250505080156116ee57506040513d601f19601f820116820180604052508101906116eb9190612a2b565b60015b611793576116fa612a65565b806308c379a003611756575061170e612a87565b806117195750611758565b806040517f08c379a000000000000000000000000000000000000000000000000000000000815260040161174d9190611aae565b60405180910390fd5b505b6040517f08c379a000000000000000000000000000000000000000000000000000000000815260040161178a90612b89565b60405180910390fd5b63f23a6e6160e01b7bffffffffffffffffffffffffffffffffffffffffffffffffffffffff1916817bffffffffffffffffffffffffffffffffffffffffffffffffffffffff19161461181a576040517f08c379a000000000000000000000000000000000000000000000000000000000815260040161181190612c1b565b60405180910390fd5b505b505050505050565b6000604051905090565b600080fd5b600080fd5b600073ffffffffffffffffffffffffffffffffffffffff82169050919050565b600061186382611838565b9050919050565b61187381611858565b811461187e57600080fd5b50565b6000813590506118908161186a565b92915050565b6000819050919050565b6118a981611896565b81146118b457600080fd5b50565b6000813590506118c6816118a0565b92915050565b600080604083850312156118e3576118e261182e565b5b60006118f185828601611881565b9250506020611902858286016118b7565b9150509250929050565b61191581611896565b82525050565b6000602082019050611930600083018461190c565b92915050565b60007fffffffff0000000000000000000000000000000000000000000000000000000082169050919050565b61196b81611936565b811461197657600080fd5b50565b60008135905061198881611962565b92915050565b6000602082840312156119a4576119a361182e565b5b60006119b284828501611979565b91505092915050565b60008115159050919050565b6119d0816119bb565b82525050565b60006020820190506119eb60008301846119c7565b92915050565b600060208284031215611a0757611a0661182e565b5b6000611a15848285016118b7565b91505092915050565b600081519050919050565b600082825260208201905092915050565b60005b83811015611a58578082015181840152602081019050611a3d565b60008484015250505050565b6000601f19601f8301169050919050565b6000611a8082611a1e565b611a8a8185611a29565b9350611a9a818560208601611a3a565b611aa381611a64565b840191505092915050565b60006020820190508181036000830152611ac88184611a75565b905092915050565b600080fd5b7f4e487b7100000000000000000000000000000000000000000000000000000000600052604160045260246000fd5b611b0d82611a64565b810181811067ffffffffffffffff82111715611b2c57611b2b611ad5565b5b80604052505050565b6000611b3f611824565b9050611b4b8282611b04565b919050565b600067ffffffffffffffff821115611b6b57611b6a611ad5565b5b602082029050602081019050919050565b600080fd5b6000611b94611b8f84611b50565b611b35565b90508083825260208201905060208402830185811115611bb757611bb6611b7c565b5b835b81811015611be05780611bcc88826118b7565b845260208401935050602081019050611bb9565b5050509392505050565b600082601f830112611bff57611bfe611ad0565b5b8135611c0f848260208601611b81565b91505092915050565b600080fd5b600067ffffffffffffffff821115611c3857611c37611ad5565b5b611c4182611a64565b9050602081019050919050565b82818337600083830152505050565b6000611c70611c6b84611c1d565b611b35565b905082815260208101848484011115611c8c57611c8b611c18565b5b611c97848285611c4e565b509392505050565b600082601f830112611cb457611cb3611ad0565b5b8135611cc4848260208601611c5d565b91505092915050565b600080600080600060a08688031215611ce957611ce861182e565b5b6000611cf788828901611881565b9550506020611d0888828901611881565b945050604086013567ffffffffffffffff811115611d2957611d28611833565b5b611d3588828901611bea565b935050606086013567ffffffffffffffff811115611d5657611d55611833565b5b611d6288828901611bea565b925050608086013567ffffffffffffffff811115611d8357611d82611833565b5b611d8f88828901611c9f565b9150509295509295909350565b600067ffffffffffffffff821115611db757611db6611ad5565b5b602082029050602081019050919050565b6000611ddb611dd684611d9c565b611b35565b90508083825260208201905060208402830185811115611dfe57611dfd611b7c565b5b835b81811015611e275780611e138882611881565b845260208401935050602081019050611e00565b5050509392505050565b600082601f830112611e4657611e45611ad0565b5b8135611e56848260208601611dc8565b91505092915050565b60008060408385031215611e7657611e7561182e565b5b600083013567ffffffffffffffff811115611e9457611e93611833565b5b611ea085828601611e31565b925050602083013567ffffffffffffffff811115611ec157611ec0611833565b5b611ecd85828601611bea565b9150509250929050565b600081519050919050565b600082825260208201905092915050565b6000819050602082019050919050565b611f0c81611896565b82525050565b6000611f1e8383611f03565b60208301905092915050565b6000602082019050919050565b6000611f4282611ed7565b611f4c8185611ee2565b9350611f5783611ef3565b8060005b83811015611f88578151611f6f8882611f12565b9750611f7a83611f2a565b925050600181019050611f5b565b5085935050505092915050565b60006020820190508181036000830152611faf8184611f37565b905092915050565b611fc081611858565b82525050565b6000602082019050611fdb6000830184611fb7565b92915050565b611fea816119bb565b8114611ff557600080fd5b50565b60008135905061200781611fe1565b92915050565b600080604083850312156120245761202361182e565b5b600061203285828601611881565b925050602061204385828601611ff8565b9150509250929050565b600080604083850312156120645761206361182e565b5b600061207285828601611881565b925050602061208385828601611881565b9150509250929050565b600081519050919050565b600082825260208201905092915050565b6000819050602082019050919050565b6120c281611858565b82525050565b60006120d483836120b9565b60208301905092915050565b6000602082019050919050565b60006120f88261208d565b6121028185612098565b935061210d836120a9565b8060005b8381101561213e57815161212588826120c8565b9750612130836120e0565b925050600181019050612111565b5085935050505092915050565b6000602082019050818103600083015261216581846120ed565b905092915050565b600080600080600060a086880312156121895761218861182e565b5b600061219788828901611881565b95505060206121a888828901611881565b94505060406121b9888289016118b7565b93505060606121ca888289016118b7565b925050608086013567ffffffffffffffff8111156121eb576121ea611833565b5b6121f788828901611c9f565b9150509295509295909350565b60006020828403121561221a5761221961182e565b5b600061222884828501611881565b91505092915050565b7f455243313135353a2061646472657373207a65726f206973206e6f742061207660008201527f616c6964206f776e657200000000000000000000000000000000000000000000602082015250565b600061228d602a83611a29565b915061229882612231565b604082019050919050565b600060208201905081810360008301526122bc81612280565b9050919050565b7f4e487b7100000000000000000000000000000000000000000000000000000000600052602260045260246000fd5b6000600282049050600182168061230a57607f821691505b60208210810361231d5761231c6122c3565b5b50919050565b7f455243313135353a2063616c6c6572206973206e6f7420746f6b656e206f776e60008201527f6572206e6f7220617070726f7665640000000000000000000000000000000000602082015250565b600061237f602f83611a29565b915061238a82612323565b604082019050919050565b600060208201905081810360008301526123ae81612372565b9050919050565b7f455243313135353a206163636f756e747320616e6420696473206c656e67746860008201527f206d69736d617463680000000000000000000000000000000000000000000000602082015250565b6000612411602983611a29565b915061241c826123b5565b604082019050919050565b6000602082019050818103600083015261244081612404565b9050919050565b7f4e487b7100000000000000000000000000000000000000000000000000000000600052603260045260246000fd5b7f4e487b7100000000000000000000000000000000000000000000000000000000600052601160045260246000fd5b60006124b082611896565b91507fffffffffffffffffffffffffffffffffffffffffffffffffffffffffffffffff82036124e2576124e1612476565b5b600182019050919050565b7f4e6f74206f776e65720000000000000000000000000000000000000000000000600082015250565b6000612523600983611a29565b915061252e826124ed565b602082019050919050565b6000602082019050818103600083015261255281612516565b9050919050565b7f455243313135353a2069647320616e6420616d6f756e7473206c656e6774682060008201527f6d69736d61746368000000000000000000000000000000000000000000000000602082015250565b60006125b5602883611a29565b91506125c082612559565b604082019050919050565b600060208201905081810360008301526125e4816125a8565b9050919050565b7f455243313135353a207472616e7366657220746f20746865207a65726f20616460008201527f6472657373000000000000000000000000000000000000000000000000000000602082015250565b6000612647602583611a29565b9150612652826125eb565b604082019050919050565b600060208201905081810360008301526126768161263a565b9050919050565b7f455243313135353a20696e73756666696369656e742062616c616e636520666f60008201527f72207472616e7366657200000000000000000000000000000000000000000000602082015250565b60006126d9602a83611a29565b91506126e48261267d565b604082019050919050565b60006020820190508181036000830152612708816126cc565b9050919050565b600061271a82611896565b915061272583611896565b925082820190508082111561273d5761273c612476565b5b92915050565b6000604082019050818103600083015261275d8185611f37565b905081810360208301526127718184611f37565b90509392505050565b7f455243313135353a2073657474696e6720617070726f76616c2073746174757360008201527f20666f722073656c660000000000000000000000000000000000000000000000602082015250565b60006127d6602983611a29565b91506127e18261277a565b604082019050919050565b60006020820190508181036000830152612805816127c9565b9050919050565b6000604082019050612821600083018561190c565b61282e602083018461190c565b9392505050565b7f455243313135353a206275726e2066726f6d20746865207a65726f206164647260008201527f6573730000000000000000000000000000000000000000000000000000000000602082015250565b6000612891602383611a29565b915061289c82612835565b604082019050919050565b600060208201905081810360008301526128c081612884565b9050919050565b7f455243313135353a206275726e20616d6f756e7420657863656564732062616c60008201527f616e636500000000000000000000000000000000000000000000000000000000602082015250565b6000612923602483611a29565b915061292e826128c7565b604082019050919050565b6000602082019050818103600083015261295281612916565b9050919050565b600081519050919050565b600082825260208201905092915050565b600061298082612959565b61298a8185612964565b935061299a818560208601611a3a565b6129a381611a64565b840191505092915050565b600060a0820190506129c36000830188611fb7565b6129d06020830187611fb7565b81810360408301526129e28186611f37565b905081810360608301526129f68185611f37565b90508181036080830152612a0a8184612975565b90509695505050505050565b600081519050612a2581611962565b92915050565b600060208284031215612a4157612a4061182e565b5b6000612a4f84828501612a16565b91505092915050565b60008160e01c9050919050565b600060033d1115612a845760046000803e612a81600051612a58565b90505b90565b600060443d10612b1457612a99611824565b60043d036004823e80513d602482011167ffffffffffffffff82111715612ac1575050612b14565b808201805167ffffffffffffffff811115612adf5750505050612b14565b80602083010160043d038501811115612afc575050505050612b14565b612b0b82602001850186611b04565b82955050505050505b90565b7f455243313135353a207472616e7366657220746f206e6f6e204552433131353560008201527f526563656976657220696d706c656d656e746572000000000000000000000000602082015250565b6000612b73603483611a29565b9150612b7e82612b17565b604082019050919050565b60006020820190508181036000830152612ba281612b66565b9050919050565b7f455243313135353a204552433131353552656365697665722072656a6563746560008201527f6420746f6b656e73000000000000000000000000000000000000000000000000602082015250565b6000612c05602883611a29565b9150612c1082612ba9565b604082019050919050565b60006020820190508181036000830152612c3481612bf8565b9050919050565b600060a082019050612c506000830188611fb7565b612c5d6020830187611fb7565b612c6a604083018661190c565b612c77606083018561190c565b8181036080830152612c898184612975565b9050969550505050505056fea2646970667358221220b8b0080930fc430c0636988e968765e4838a40a7398d54490e853290c2c23c4464736f6c63430008110033",
  "immutableReferences": {},
  "source": "// SPDX-License-Identifier: MIT\r\n\r\npragma solidity ^0.8.15;\r\n\r\nimport \"@openzeppelin/contracts/token/ERC1155/ERC1155.sol\";\r\n\r\ncontract Lecture is ERC1155 {\r\n    address public owner;\r\n    address[] public people;\r\n\r\n    modifier isOwner() {\r\n        require(owner == msg.sender, \"Not owner\");\r\n        _;\r\n    }\r\n\r\n    constructor(\r\n        address[] memory _arrayUsers,\r\n        string memory _ipfsLink,\r\n        address _owner\r\n    ) ERC1155(_ipfsLink) {\r\n        owner = _owner;\r\n        people = _arrayUsers;\r\n        for (uint256 i = 0; i < _arrayUsers.length; i++) {\r\n            _mint(_arrayUsers[i], 1, 1, \"\");\r\n        }\r\n    }\r\n\r\n    function burnNFT(address _address) public isOwner {\r\n        _burn(_address, 1, 1);\r\n    }\r\n\r\n    function returnPeople() view public isOwner returns (address[] memory) {\r\n        return people;\r\n    }\r\n}\r\n",
  "sourcePath": "C:\\Users\\reish\\Documents\\GitHub\\projeto_inteli\\contracts\\Lecture.sol",
  "compiler": {
    "name": "solc",
    "version": "0.8.17+commit.8df45f5f.Emscripten.clang"
  },
  "schemaVersion": "3.4.10",
  "updatedAt": "2022-09-24T22:58:26.559Z",
  "devdoc": {
    "kind": "dev",
    "methods": {
      "balanceOf(address,uint256)": {
        "details": "See {IERC1155-balanceOf}. Requirements: - `account` cannot be the zero address."
      },
      "balanceOfBatch(address[],uint256[])": {
        "details": "See {IERC1155-balanceOfBatch}. Requirements: - `accounts` and `ids` must have the same length."
      },
      "isApprovedForAll(address,address)": {
        "details": "See {IERC1155-isApprovedForAll}."
      },
      "safeBatchTransferFrom(address,address,uint256[],uint256[],bytes)": {
        "details": "See {IERC1155-safeBatchTransferFrom}."
      },
      "safeTransferFrom(address,address,uint256,uint256,bytes)": {
        "details": "See {IERC1155-safeTransferFrom}."
      },
      "setApprovalForAll(address,bool)": {
        "details": "See {IERC1155-setApprovalForAll}."
      },
      "supportsInterface(bytes4)": {
        "details": "See {IERC165-supportsInterface}."
      },
      "uri(uint256)": {
        "details": "See {IERC1155MetadataURI-uri}. This implementation returns the same URI for *all* token types. It relies on the token type ID substitution mechanism https://eips.ethereum.org/EIPS/eip-1155#metadata[defined in the EIP]. Clients calling this function must replace the `\\{id\\}` substring with the actual token type ID."
      }
    },
    "version": 1
  },
  "userdoc": {
    "kind": "user",
    "methods": {},
    "version": 1
  }
}