{
  "contractName": "LectureFactory",
  "abi": [
    {
      "inputs": [],
      "stateMutability": "nonpayable",
      "type": "constructor"
    },
    {
      "anonymous": false,
      "inputs": [
        {
          "indexed": true,
          "internalType": "address",
          "name": "account",
          "type": "address"
        },
        {
          "indexed": true,
          "internalType": "address",
          "name": "operator",
          "type": "address"
        },
        {
          "indexed": false,
          "internalType": "bool",
          "name": "approved",
          "type": "bool"
        }
      ],
      "name": "ApprovalForAll",
      "type": "event"
    },
    {
      "anonymous": false,
      "inputs": [
        {
          "indexed": true,
          "internalType": "address",
          "name": "operator",
          "type": "address"
        },
        {
          "indexed": true,
          "internalType": "address",
          "name": "from",
          "type": "address"
        },
        {
          "indexed": true,
          "internalType": "address",
          "name": "to",
          "type": "address"
        },
        {
          "indexed": false,
          "internalType": "uint256[]",
          "name": "ids",
          "type": "uint256[]"
        },
        {
          "indexed": false,
          "internalType": "uint256[]",
          "name": "values",
          "type": "uint256[]"
        }
      ],
      "name": "TransferBatch",
      "type": "event"
    },
    {
      "anonymous": false,
      "inputs": [
        {
          "indexed": true,
          "internalType": "address",
          "name": "operator",
          "type": "address"
        },
        {
          "indexed": true,
          "internalType": "address",
          "name": "from",
          "type": "address"
        },
        {
          "indexed": true,
          "internalType": "address",
          "name": "to",
          "type": "address"
        },
        {
          "indexed": false,
          "internalType": "uint256",
          "name": "id",
          "type": "uint256"
        },
        {
          "indexed": false,
          "internalType": "uint256",
          "name": "value",
          "type": "uint256"
        }
      ],
      "name": "TransferSingle",
      "type": "event"
    },
    {
      "anonymous": false,
      "inputs": [
        {
          "indexed": false,
          "internalType": "string",
          "name": "value",
          "type": "string"
        },
        {
          "indexed": true,
          "internalType": "uint256",
          "name": "id",
          "type": "uint256"
        }
      ],
      "name": "URI",
      "type": "event"
    },
    {
      "inputs": [],
      "name": "_tokenIds",
      "outputs": [
        {
          "internalType": "uint256",
          "name": "_value",
          "type": "uint256"
        }
      ],
      "stateMutability": "view",
      "type": "function",
      "constant": true
    },
    {
      "inputs": [
        {
          "internalType": "address",
          "name": "account",
          "type": "address"
        },
        {
          "internalType": "uint256",
          "name": "id",
          "type": "uint256"
        }
      ],
      "name": "balanceOf",
      "outputs": [
        {
          "internalType": "uint256",
          "name": "",
          "type": "uint256"
        }
      ],
      "stateMutability": "view",
      "type": "function",
      "constant": true
    },
    {
      "inputs": [
        {
          "internalType": "address[]",
          "name": "accounts",
          "type": "address[]"
        },
        {
          "internalType": "uint256[]",
          "name": "ids",
          "type": "uint256[]"
        }
      ],
      "name": "balanceOfBatch",
      "outputs": [
        {
          "internalType": "uint256[]",
          "name": "",
          "type": "uint256[]"
        }
      ],
      "stateMutability": "view",
      "type": "function",
      "constant": true
    },
    {
      "inputs": [
        {
          "internalType": "address",
          "name": "account",
          "type": "address"
        },
        {
          "internalType": "address",
          "name": "operator",
          "type": "address"
        }
      ],
      "name": "isApprovedForAll",
      "outputs": [
        {
          "internalType": "bool",
          "name": "",
          "type": "bool"
        }
      ],
      "stateMutability": "view",
      "type": "function",
      "constant": true
    },
    {
      "inputs": [],
      "name": "owner",
      "outputs": [
        {
          "internalType": "address",
          "name": "",
          "type": "address"
        }
      ],
      "stateMutability": "view",
      "type": "function",
      "constant": true
    },
    {
      "inputs": [
        {
          "internalType": "address",
          "name": "from",
          "type": "address"
        },
        {
          "internalType": "address",
          "name": "to",
          "type": "address"
        },
        {
          "internalType": "uint256[]",
          "name": "ids",
          "type": "uint256[]"
        },
        {
          "internalType": "uint256[]",
          "name": "amounts",
          "type": "uint256[]"
        },
        {
          "internalType": "bytes",
          "name": "data",
          "type": "bytes"
        }
      ],
      "name": "safeBatchTransferFrom",
      "outputs": [],
      "stateMutability": "nonpayable",
      "type": "function"
    },
    {
      "inputs": [
        {
          "internalType": "address",
          "name": "from",
          "type": "address"
        },
        {
          "internalType": "address",
          "name": "to",
          "type": "address"
        },
        {
          "internalType": "uint256",
          "name": "id",
          "type": "uint256"
        },
        {
          "internalType": "uint256",
          "name": "amount",
          "type": "uint256"
        },
        {
          "internalType": "bytes",
          "name": "data",
          "type": "bytes"
        }
      ],
      "name": "safeTransferFrom",
      "outputs": [],
      "stateMutability": "nonpayable",
      "type": "function"
    },
    {
      "inputs": [
        {
          "internalType": "address",
          "name": "operator",
          "type": "address"
        },
        {
          "internalType": "bool",
          "name": "approved",
          "type": "bool"
        }
      ],
      "name": "setApprovalForAll",
      "outputs": [],
      "stateMutability": "nonpayable",
      "type": "function"
    },
    {
      "inputs": [
        {
          "internalType": "bytes4",
          "name": "interfaceId",
          "type": "bytes4"
        }
      ],
      "name": "supportsInterface",
      "outputs": [
        {
          "internalType": "bool",
          "name": "",
          "type": "bool"
        }
      ],
      "stateMutability": "view",
      "type": "function",
      "constant": true
    },
    {
      "inputs": [
        {
          "internalType": "address[]",
          "name": "_arrayUsers",
          "type": "address[]"
        },
        {
          "internalType": "string",
          "name": "tokenURI",
          "type": "string"
        }
      ],
      "name": "createLecture",
      "outputs": [],
      "stateMutability": "nonpayable",
      "type": "function"
    },
    {
      "inputs": [
        {
          "internalType": "uint256",
          "name": "tokenId",
          "type": "uint256"
        }
      ],
      "name": "uri",
      "outputs": [
        {
          "internalType": "string",
          "name": "",
          "type": "string"
        }
      ],
      "stateMutability": "view",
      "type": "function",
      "constant": true
    },
    {
      "inputs": [
        {
          "internalType": "address",
          "name": "_address",
          "type": "address"
        },
        {
          "internalType": "uint256",
          "name": "_id",
          "type": "uint256"
        }
      ],
      "name": "burnNFT",
      "outputs": [],
      "stateMutability": "nonpayable",
      "type": "function"
    },
    {
      "inputs": [
        {
          "internalType": "uint256",
          "name": "_id",
          "type": "uint256"
        }
      ],
      "name": "viewLectureOwners",
      "outputs": [
        {
          "internalType": "address[]",
          "name": "",
          "type": "address[]"
        }
      ],
      "stateMutability": "view",
      "type": "function",
      "constant": true
    }
  ],
  "bytecode": "0x60806040523480156200001157600080fd5b506040518060200160405280600081525062000033816200007b60201b60201c565b5033600360006101000a81548173ffffffffffffffffffffffffffffffffffffffff021916908373ffffffffffffffffffffffffffffffffffffffff160217905550620003f1565b80600290816200008c91906200030a565b5050565b600081519050919050565b7f4e487b7100000000000000000000000000000000000000000000000000000000600052604160045260246000fd5b7f4e487b7100000000000000000000000000000000000000000000000000000000600052602260045260246000fd5b600060028204905060018216806200011257607f821691505b602082108103620001285762000127620000ca565b5b50919050565b60008190508160005260206000209050919050565b60006020601f8301049050919050565b600082821b905092915050565b600060088302620001927fffffffffffffffffffffffffffffffffffffffffffffffffffffffffffffffff8262000153565b6200019e868362000153565b95508019841693508086168417925050509392505050565b6000819050919050565b6000819050919050565b6000620001eb620001e5620001df84620001b6565b620001c0565b620001b6565b9050919050565b6000819050919050565b6200020783620001ca565b6200021f6200021682620001f2565b84845462000160565b825550505050565b600090565b6200023662000227565b62000243818484620001fc565b505050565b5b818110156200026b576200025f6000826200022c565b60018101905062000249565b5050565b601f821115620002ba5762000284816200012e565b6200028f8462000143565b810160208510156200029f578190505b620002b7620002ae8562000143565b83018262000248565b50505b505050565b600082821c905092915050565b6000620002df60001984600802620002bf565b1980831691505092915050565b6000620002fa8383620002cc565b9150826002028217905092915050565b620003158262000090565b67ffffffffffffffff8111156200033157620003306200009b565b5b6200033d8254620000f9565b6200034a8282856200026f565b600060209050601f8311600181146200038257600084156200036d578287015190505b620003798582620002ec565b865550620003e9565b601f19841662000392866200012e565b60005b82811015620003bc5784890151825560018201915060208501945060208101905062000395565b86831015620003dc5784890151620003d8601f891682620002cc565b8355505b6001600288020188555050505b505050505050565b6136a880620004016000396000f3fe608060405234801561001057600080fd5b50600436106100ce5760003560e01c80634e1273f41161008c578063aa46a40011610066578063aa46a40014610221578063ab2580671461023f578063e985e9c51461026f578063f242432a1461029f576100ce565b80634e1273f4146101b75780638da5cb5b146101e7578063a22cb46514610205576100ce565b8062fdd58e146100d357806301ffc9a7146101035780630e89341c14610133578063263bfbd6146101635780632eb2c2d61461017f57806347fcf0181461019b575b600080fd5b6100ed60048036038101906100e89190611e4a565b6102bb565b6040516100fa9190611e99565b60405180910390f35b61011d60048036038101906101189190611f0c565b610383565b60405161012a9190611f54565b60405180910390f35b61014d60048036038101906101489190611f6f565b610465565b60405161015a919061202c565b60405180910390f35b61017d6004803603810190610178919061224b565b61050a565b005b61019960048036038101906101949190612427565b61063f565b005b6101b560048036038101906101b09190611e4a565b6106e0565b005b6101d160048036038101906101cc91906124f6565b61093e565b6040516101de919061262c565b60405180910390f35b6101ef610a57565b6040516101fc919061265d565b60405180910390f35b61021f600480360381019061021a91906126a4565b610a7d565b005b610229610a93565b6040516102369190611e99565b60405180910390f35b61025960048036038101906102549190611f6f565b610a9f565b60405161026691906127a2565b60405180910390f35b610289600480360381019061028491906127c4565b610b40565b6040516102969190611f54565b60405180910390f35b6102b960048036038101906102b49190612804565b610bd4565b005b60008073ffffffffffffffffffffffffffffffffffffffff168373ffffffffffffffffffffffffffffffffffffffff160361032b576040517f08c379a00000000000000000000000000000000000000000000000000000000081526004016103229061290d565b60405180910390fd5b60008083815260200190815260200160002060008473ffffffffffffffffffffffffffffffffffffffff1673ffffffffffffffffffffffffffffffffffffffff16815260200190815260200160002054905092915050565b60007fd9b67a26000000000000000000000000000000000000000000000000000000007bffffffffffffffffffffffffffffffffffffffffffffffffffffffff1916827bffffffffffffffffffffffffffffffffffffffffffffffffffffffff1916148061044e57507f0e89341c000000000000000000000000000000000000000000000000000000007bffffffffffffffffffffffffffffffffffffffffffffffffffffffff1916827bffffffffffffffffffffffffffffffffffffffffffffffffffffffff1916145b8061045e575061045d82610c75565b5b9050919050565b60606004600083815260200190815260200160002080546104859061295c565b80601f01602080910402602001604051908101604052809291908181526020018280546104b19061295c565b80156104fe5780601f106104d3576101008083540402835291602001916104fe565b820191906000526020600020905b8154815290600101906020018083116104e157829003601f168201915b50505050509050919050565b3373ffffffffffffffffffffffffffffffffffffffff16600360009054906101000a900473ffffffffffffffffffffffffffffffffffffffff1673ffffffffffffffffffffffffffffffffffffffff161461059a576040517f08c379a0000000000000000000000000000000000000000000000000000000008152600401610591906129d9565b60405180910390fd5b60006105a66005610cdf565b905060005b8351811015610625576105ea8482815181106105ca576105c96129f9565b5b602002602001015183600160405180602001604052806000815250610ced565b83600660008481526020019081526020016000209080519060200190610611929190611ca9565b50808061061d90612a57565b9150506105ab565b506106308183610e9d565b61063a6005610ec2565b505050565b610647610ed8565b73ffffffffffffffffffffffffffffffffffffffff168573ffffffffffffffffffffffffffffffffffffffff16148061068d575061068c85610687610ed8565b610b40565b5b6106cc576040517f08c379a00000000000000000000000000000000000000000000000000000000081526004016106c390612b11565b60405180910390fd5b6106d98585858585610ee0565b5050505050565b3373ffffffffffffffffffffffffffffffffffffffff16600360009054906101000a900473ffffffffffffffffffffffffffffffffffffffff1673ffffffffffffffffffffffffffffffffffffffff1614610770576040517f08c379a0000000000000000000000000000000000000000000000000000000008152600401610767906129d9565b60405180910390fd5b61077c82826001611201565b600060066000838152602001908152602001600020905060005b8180549050811015610915578373ffffffffffffffffffffffffffffffffffffffff168282815481106107cc576107cb6129f9565b5b9060005260206000200160009054906101000a900473ffffffffffffffffffffffffffffffffffffffff1673ffffffffffffffffffffffffffffffffffffffff16036109025781600183805490506108249190612b31565b81548110610835576108346129f9565b5b9060005260206000200160009054906101000a900473ffffffffffffffffffffffffffffffffffffffff16828281548110610873576108726129f9565b5b9060005260206000200160006101000a81548173ffffffffffffffffffffffffffffffffffffffff021916908373ffffffffffffffffffffffffffffffffffffffff160217905550818054806108cc576108cb612b65565b5b6001900381819060005260206000200160006101000a81549073ffffffffffffffffffffffffffffffffffffffff021916905590555b808061090d90612a57565b915050610796565b508060066000848152602001908152602001600020908054610938929190611d33565b50505050565b60608151835114610984576040517f08c379a000000000000000000000000000000000000000000000000000000000815260040161097b90612c06565b60405180910390fd5b6000835167ffffffffffffffff8111156109a1576109a0612053565b5b6040519080825280602002602001820160405280156109cf5781602001602082028036833780820191505090505b50905060005b8451811015610a4c57610a1c8582815181106109f4576109f36129f9565b5b6020026020010151858381518110610a0f57610a0e6129f9565b5b60200260200101516102bb565b828281518110610a2f57610a2e6129f9565b5b60200260200101818152505080610a4590612a57565b90506109d5565b508091505092915050565b600360009054906101000a900473ffffffffffffffffffffffffffffffffffffffff1681565b610a8f610a88610ed8565b8383611447565b5050565b60058060000154905081565b606060066000838152602001908152602001600020805480602002602001604051908101604052809291908181526020018280548015610b3457602002820191906000526020600020905b8160009054906101000a900473ffffffffffffffffffffffffffffffffffffffff1673ffffffffffffffffffffffffffffffffffffffff1681526020019060010190808311610aea575b50505050509050919050565b6000600160008473ffffffffffffffffffffffffffffffffffffffff1673ffffffffffffffffffffffffffffffffffffffff16815260200190815260200160002060008373ffffffffffffffffffffffffffffffffffffffff1673ffffffffffffffffffffffffffffffffffffffff16815260200190815260200160002060009054906101000a900460ff16905092915050565b610bdc610ed8565b73ffffffffffffffffffffffffffffffffffffffff168573ffffffffffffffffffffffffffffffffffffffff161480610c225750610c2185610c1c610ed8565b610b40565b5b610c61576040517f08c379a0000000000000000000000000000000000000000000000000000000008152600401610c5890612b11565b60405180910390fd5b610c6e85858585856115b3565b5050505050565b60007f01ffc9a7000000000000000000000000000000000000000000000000000000007bffffffffffffffffffffffffffffffffffffffffffffffffffffffff1916827bffffffffffffffffffffffffffffffffffffffffffffffffffffffff1916149050919050565b600081600001549050919050565b600073ffffffffffffffffffffffffffffffffffffffff168473ffffffffffffffffffffffffffffffffffffffff1603610d5c576040517f08c379a0000000000000000000000000000000000000000000000000000000008152600401610d5390612c98565b60405180910390fd5b6000610d66610ed8565b90506000610d738561184e565b90506000610d808561184e565b9050610d91836000898585896118c8565b8460008088815260200190815260200160002060008973ffffffffffffffffffffffffffffffffffffffff1673ffffffffffffffffffffffffffffffffffffffff1681526020019081526020016000206000828254610df09190612cb8565b925050819055508673ffffffffffffffffffffffffffffffffffffffff16600073ffffffffffffffffffffffffffffffffffffffff168473ffffffffffffffffffffffffffffffffffffffff167fc3d58168c5ae7397731d063d5bbf3d657854427343f4c083240f7aacaa2d0f628989604051610e6e929190612cec565b60405180910390a4610e85836000898585896118d0565b610e94836000898989896118d8565b50505050505050565b80600460008481526020019081526020016000209081610ebd9190612ec1565b505050565b6001816000016000828254019250508190555050565b600033905090565b8151835114610f24576040517f08c379a0000000000000000000000000000000000000000000000000000000008152600401610f1b90613005565b60405180910390fd5b600073ffffffffffffffffffffffffffffffffffffffff168473ffffffffffffffffffffffffffffffffffffffff1603610f93576040517f08c379a0000000000000000000000000000000000000000000000000000000008152600401610f8a90613097565b60405180910390fd5b6000610f9d610ed8565b9050610fad8187878787876118c8565b60005b845181101561115e576000858281518110610fce57610fcd6129f9565b5b602002602001015190506000858381518110610fed57610fec6129f9565b5b60200260200101519050600080600084815260200190815260200160002060008b73ffffffffffffffffffffffffffffffffffffffff1673ffffffffffffffffffffffffffffffffffffffff1681526020019081526020016000205490508181101561108e576040517f08c379a000000000000000000000000000000000000000000000000000000000815260040161108590613129565b60405180910390fd5b81810360008085815260200190815260200160002060008c73ffffffffffffffffffffffffffffffffffffffff1673ffffffffffffffffffffffffffffffffffffffff168152602001908152602001600020819055508160008085815260200190815260200160002060008b73ffffffffffffffffffffffffffffffffffffffff1673ffffffffffffffffffffffffffffffffffffffff16815260200190815260200160002060008282546111439190612cb8565b925050819055505050508061115790612a57565b9050610fb0565b508473ffffffffffffffffffffffffffffffffffffffff168673ffffffffffffffffffffffffffffffffffffffff168273ffffffffffffffffffffffffffffffffffffffff167f4a39dc06d4c0dbc64b70af90fd698a233a518aa5d07e595d983b8c0526c8f7fb87876040516111d5929190613149565b60405180910390a46111eb8187878787876118d0565b6111f9818787878787611aaf565b505050505050565b600073ffffffffffffffffffffffffffffffffffffffff168373ffffffffffffffffffffffffffffffffffffffff1603611270576040517f08c379a0000000000000000000000000000000000000000000000000000000008152600401611267906131f2565b60405180910390fd5b600061127a610ed8565b905060006112878461184e565b905060006112948461184e565b90506112b4838760008585604051806020016040528060008152506118c8565b600080600087815260200190815260200160002060008873ffffffffffffffffffffffffffffffffffffffff1673ffffffffffffffffffffffffffffffffffffffff1681526020019081526020016000205490508481101561134b576040517f08c379a000000000000000000000000000000000000000000000000000000000815260040161134290613284565b60405180910390fd5b84810360008088815260200190815260200160002060008973ffffffffffffffffffffffffffffffffffffffff1673ffffffffffffffffffffffffffffffffffffffff16815260200190815260200160002081905550600073ffffffffffffffffffffffffffffffffffffffff168773ffffffffffffffffffffffffffffffffffffffff168573ffffffffffffffffffffffffffffffffffffffff167fc3d58168c5ae7397731d063d5bbf3d657854427343f4c083240f7aacaa2d0f628989604051611418929190612cec565b60405180910390a461143e848860008686604051806020016040528060008152506118d0565b50505050505050565b8173ffffffffffffffffffffffffffffffffffffffff168373ffffffffffffffffffffffffffffffffffffffff16036114b5576040517f08c379a00000000000000000000000000000000000000000000000000000000081526004016114ac90613316565b60405180910390fd5b80600160008573ffffffffffffffffffffffffffffffffffffffff1673ffffffffffffffffffffffffffffffffffffffff16815260200190815260200160002060008473ffffffffffffffffffffffffffffffffffffffff1673ffffffffffffffffffffffffffffffffffffffff16815260200190815260200160002060006101000a81548160ff0219169083151502179055508173ffffffffffffffffffffffffffffffffffffffff168373ffffffffffffffffffffffffffffffffffffffff167f17307eab39ab6107e8899845ad3d59bd9653f200f220920489ca2b5937696c31836040516115a69190611f54565b60405180910390a3505050565b600073ffffffffffffffffffffffffffffffffffffffff168473ffffffffffffffffffffffffffffffffffffffff1603611622576040517f08c379a000000000000000000000000000000000000000000000000000000000815260040161161990613097565b60405180910390fd5b600061162c610ed8565b905060006116398561184e565b905060006116468561184e565b90506116568389898585896118c8565b600080600088815260200190815260200160002060008a73ffffffffffffffffffffffffffffffffffffffff1673ffffffffffffffffffffffffffffffffffffffff168152602001908152602001600020549050858110156116ed576040517f08c379a00000000000000000000000000000000000000000000000000000000081526004016116e490613129565b60405180910390fd5b85810360008089815260200190815260200160002060008b73ffffffffffffffffffffffffffffffffffffffff1673ffffffffffffffffffffffffffffffffffffffff168152602001908152602001600020819055508560008089815260200190815260200160002060008a73ffffffffffffffffffffffffffffffffffffffff1673ffffffffffffffffffffffffffffffffffffffff16815260200190815260200160002060008282546117a29190612cb8565b925050819055508773ffffffffffffffffffffffffffffffffffffffff168973ffffffffffffffffffffffffffffffffffffffff168573ffffffffffffffffffffffffffffffffffffffff167fc3d58168c5ae7397731d063d5bbf3d657854427343f4c083240f7aacaa2d0f628a8a60405161181f929190612cec565b60405180910390a4611835848a8a86868a6118d0565b611843848a8a8a8a8a6118d8565b505050505050505050565b60606000600167ffffffffffffffff81111561186d5761186c612053565b5b60405190808252806020026020018201604052801561189b5781602001602082028036833780820191505090505b50905082816000815181106118b3576118b26129f9565b5b60200260200101818152505080915050919050565b505050505050565b505050505050565b6118f78473ffffffffffffffffffffffffffffffffffffffff16611c86565b15611aa7578373ffffffffffffffffffffffffffffffffffffffff1663f23a6e6187878686866040518663ffffffff1660e01b815260040161193d95949392919061338b565b6020604051808303816000875af192505050801561197957506040513d601f19601f8201168201806040525081019061197691906133fa565b60015b611a1e57611985613434565b806308c379a0036119e15750611999613456565b806119a457506119e3565b806040517f08c379a00000000000000000000000000000000000000000000000000000000081526004016119d8919061202c565b60405180910390fd5b505b6040517f08c379a0000000000000000000000000000000000000000000000000000000008152600401611a1590613558565b60405180910390fd5b63f23a6e6160e01b7bffffffffffffffffffffffffffffffffffffffffffffffffffffffff1916817bffffffffffffffffffffffffffffffffffffffffffffffffffffffff191614611aa5576040517f08c379a0000000000000000000000000000000000000000000000000000000008152600401611a9c906135ea565b60405180910390fd5b505b505050505050565b611ace8473ffffffffffffffffffffffffffffffffffffffff16611c86565b15611c7e578373ffffffffffffffffffffffffffffffffffffffff1663bc197c8187878686866040518663ffffffff1660e01b8152600401611b1495949392919061360a565b6020604051808303816000875af1925050508015611b5057506040513d601f19601f82011682018060405250810190611b4d91906133fa565b60015b611bf557611b5c613434565b806308c379a003611bb85750611b70613456565b80611b7b5750611bba565b806040517f08c379a0000000000000000000000000000000000000000000000000000000008152600401611baf919061202c565b60405180910390fd5b505b6040517f08c379a0000000000000000000000000000000000000000000000000000000008152600401611bec90613558565b60405180910390fd5b63bc197c8160e01b7bffffffffffffffffffffffffffffffffffffffffffffffffffffffff1916817bffffffffffffffffffffffffffffffffffffffffffffffffffffffff191614611c7c576040517f08c379a0000000000000000000000000000000000000000000000000000000008152600401611c73906135ea565b60405180910390fd5b505b505050505050565b6000808273ffffffffffffffffffffffffffffffffffffffff163b119050919050565b828054828255906000526020600020908101928215611d22579160200282015b82811115611d215782518260006101000a81548173ffffffffffffffffffffffffffffffffffffffff021916908373ffffffffffffffffffffffffffffffffffffffff16021790555091602001919060010190611cc9565b5b509050611d2f9190611d85565b5090565b828054828255906000526020600020908101928215611d745760005260206000209182015b82811115611d73578254825591600101919060010190611d58565b5b509050611d819190611d85565b5090565b5b80821115611d9e576000816000905550600101611d86565b5090565b6000604051905090565b600080fd5b600080fd5b600073ffffffffffffffffffffffffffffffffffffffff82169050919050565b6000611de182611db6565b9050919050565b611df181611dd6565b8114611dfc57600080fd5b50565b600081359050611e0e81611de8565b92915050565b6000819050919050565b611e2781611e14565b8114611e3257600080fd5b50565b600081359050611e4481611e1e565b92915050565b60008060408385031215611e6157611e60611dac565b5b6000611e6f85828601611dff565b9250506020611e8085828601611e35565b9150509250929050565b611e9381611e14565b82525050565b6000602082019050611eae6000830184611e8a565b92915050565b60007fffffffff0000000000000000000000000000000000000000000000000000000082169050919050565b611ee981611eb4565b8114611ef457600080fd5b50565b600081359050611f0681611ee0565b92915050565b600060208284031215611f2257611f21611dac565b5b6000611f3084828501611ef7565b91505092915050565b60008115159050919050565b611f4e81611f39565b82525050565b6000602082019050611f696000830184611f45565b92915050565b600060208284031215611f8557611f84611dac565b5b6000611f9384828501611e35565b91505092915050565b600081519050919050565b600082825260208201905092915050565b60005b83811015611fd6578082015181840152602081019050611fbb565b60008484015250505050565b6000601f19601f8301169050919050565b6000611ffe82611f9c565b6120088185611fa7565b9350612018818560208601611fb8565b61202181611fe2565b840191505092915050565b600060208201905081810360008301526120468184611ff3565b905092915050565b600080fd5b7f4e487b7100000000000000000000000000000000000000000000000000000000600052604160045260246000fd5b61208b82611fe2565b810181811067ffffffffffffffff821117156120aa576120a9612053565b5b80604052505050565b60006120bd611da2565b90506120c98282612082565b919050565b600067ffffffffffffffff8211156120e9576120e8612053565b5b602082029050602081019050919050565b600080fd5b600061211261210d846120ce565b6120b3565b90508083825260208201905060208402830185811115612135576121346120fa565b5b835b8181101561215e578061214a8882611dff565b845260208401935050602081019050612137565b5050509392505050565b600082601f83011261217d5761217c61204e565b5b813561218d8482602086016120ff565b91505092915050565b600080fd5b600067ffffffffffffffff8211156121b6576121b5612053565b5b6121bf82611fe2565b9050602081019050919050565b82818337600083830152505050565b60006121ee6121e98461219b565b6120b3565b90508281526020810184848401111561220a57612209612196565b5b6122158482856121cc565b509392505050565b600082601f8301126122325761223161204e565b5b81356122428482602086016121db565b91505092915050565b6000806040838503121561226257612261611dac565b5b600083013567ffffffffffffffff8111156122805761227f611db1565b5b61228c85828601612168565b925050602083013567ffffffffffffffff8111156122ad576122ac611db1565b5b6122b98582860161221d565b9150509250929050565b600067ffffffffffffffff8211156122de576122dd612053565b5b602082029050602081019050919050565b60006123026122fd846122c3565b6120b3565b90508083825260208201905060208402830185811115612325576123246120fa565b5b835b8181101561234e578061233a8882611e35565b845260208401935050602081019050612327565b5050509392505050565b600082601f83011261236d5761236c61204e565b5b813561237d8482602086016122ef565b91505092915050565b600067ffffffffffffffff8211156123a1576123a0612053565b5b6123aa82611fe2565b9050602081019050919050565b60006123ca6123c584612386565b6120b3565b9050828152602081018484840111156123e6576123e5612196565b5b6123f18482856121cc565b509392505050565b600082601f83011261240e5761240d61204e565b5b813561241e8482602086016123b7565b91505092915050565b600080600080600060a0868803121561244357612442611dac565b5b600061245188828901611dff565b955050602061246288828901611dff565b945050604086013567ffffffffffffffff81111561248357612482611db1565b5b61248f88828901612358565b935050606086013567ffffffffffffffff8111156124b0576124af611db1565b5b6124bc88828901612358565b925050608086013567ffffffffffffffff8111156124dd576124dc611db1565b5b6124e9888289016123f9565b9150509295509295909350565b6000806040838503121561250d5761250c611dac565b5b600083013567ffffffffffffffff81111561252b5761252a611db1565b5b61253785828601612168565b925050602083013567ffffffffffffffff81111561255857612557611db1565b5b61256485828601612358565b9150509250929050565b600081519050919050565b600082825260208201905092915050565b6000819050602082019050919050565b6125a381611e14565b82525050565b60006125b5838361259a565b60208301905092915050565b6000602082019050919050565b60006125d98261256e565b6125e38185612579565b93506125ee8361258a565b8060005b8381101561261f57815161260688826125a9565b9750612611836125c1565b9250506001810190506125f2565b5085935050505092915050565b6000602082019050818103600083015261264681846125ce565b905092915050565b61265781611dd6565b82525050565b6000602082019050612672600083018461264e565b92915050565b61268181611f39565b811461268c57600080fd5b50565b60008135905061269e81612678565b92915050565b600080604083850312156126bb576126ba611dac565b5b60006126c985828601611dff565b92505060206126da8582860161268f565b9150509250929050565b600081519050919050565b600082825260208201905092915050565b6000819050602082019050919050565b61271981611dd6565b82525050565b600061272b8383612710565b60208301905092915050565b6000602082019050919050565b600061274f826126e4565b61275981856126ef565b935061276483612700565b8060005b8381101561279557815161277c888261271f565b975061278783612737565b925050600181019050612768565b5085935050505092915050565b600060208201905081810360008301526127bc8184612744565b905092915050565b600080604083850312156127db576127da611dac565b5b60006127e985828601611dff565b92505060206127fa85828601611dff565b9150509250929050565b600080600080600060a086880312156128205761281f611dac565b5b600061282e88828901611dff565b955050602061283f88828901611dff565b945050604061285088828901611e35565b935050606061286188828901611e35565b925050608086013567ffffffffffffffff81111561288257612881611db1565b5b61288e888289016123f9565b9150509295509295909350565b7f455243313135353a2061646472657373207a65726f206973206e6f742061207660008201527f616c6964206f776e657200000000000000000000000000000000000000000000602082015250565b60006128f7602a83611fa7565b91506129028261289b565b604082019050919050565b60006020820190508181036000830152612926816128ea565b9050919050565b7f4e487b7100000000000000000000000000000000000000000000000000000000600052602260045260246000fd5b6000600282049050600182168061297457607f821691505b6020821081036129875761298661292d565b5b50919050565b7f4e6f74206f776e65720000000000000000000000000000000000000000000000600082015250565b60006129c3600983611fa7565b91506129ce8261298d565b602082019050919050565b600060208201905081810360008301526129f2816129b6565b9050919050565b7f4e487b7100000000000000000000000000000000000000000000000000000000600052603260045260246000fd5b7f4e487b7100000000000000000000000000000000000000000000000000000000600052601160045260246000fd5b6000612a6282611e14565b91507fffffffffffffffffffffffffffffffffffffffffffffffffffffffffffffffff8203612a9457612a93612a28565b5b600182019050919050565b7f455243313135353a2063616c6c6572206973206e6f7420746f6b656e206f776e60008201527f6572206e6f7220617070726f7665640000000000000000000000000000000000602082015250565b6000612afb602f83611fa7565b9150612b0682612a9f565b604082019050919050565b60006020820190508181036000830152612b2a81612aee565b9050919050565b6000612b3c82611e14565b9150612b4783611e14565b9250828203905081811115612b5f57612b5e612a28565b5b92915050565b7f4e487b7100000000000000000000000000000000000000000000000000000000600052603160045260246000fd5b7f455243313135353a206163636f756e747320616e6420696473206c656e67746860008201527f206d69736d617463680000000000000000000000000000000000000000000000602082015250565b6000612bf0602983611fa7565b9150612bfb82612b94565b604082019050919050565b60006020820190508181036000830152612c1f81612be3565b9050919050565b7f455243313135353a206d696e7420746f20746865207a65726f2061646472657360008201527f7300000000000000000000000000000000000000000000000000000000000000602082015250565b6000612c82602183611fa7565b9150612c8d82612c26565b604082019050919050565b60006020820190508181036000830152612cb181612c75565b9050919050565b6000612cc382611e14565b9150612cce83611e14565b9250828201905080821115612ce657612ce5612a28565b5b92915050565b6000604082019050612d016000830185611e8a565b612d0e6020830184611e8a565b9392505050565b60008190508160005260206000209050919050565b60006020601f8301049050919050565b600082821b905092915050565b600060088302612d777fffffffffffffffffffffffffffffffffffffffffffffffffffffffffffffffff82612d3a565b612d818683612d3a565b95508019841693508086168417925050509392505050565b6000819050919050565b6000612dbe612db9612db484611e14565b612d99565b611e14565b9050919050565b6000819050919050565b612dd883612da3565b612dec612de482612dc5565b848454612d47565b825550505050565b600090565b612e01612df4565b612e0c818484612dcf565b505050565b5b81811015612e3057612e25600082612df9565b600181019050612e12565b5050565b601f821115612e7557612e4681612d15565b612e4f84612d2a565b81016020851015612e5e578190505b612e72612e6a85612d2a565b830182612e11565b50505b505050565b600082821c905092915050565b6000612e9860001984600802612e7a565b1980831691505092915050565b6000612eb18383612e87565b9150826002028217905092915050565b612eca82611f9c565b67ffffffffffffffff811115612ee357612ee2612053565b5b612eed825461295c565b612ef8828285612e34565b600060209050601f831160018114612f2b5760008415612f19578287015190505b612f238582612ea5565b865550612f8b565b601f198416612f3986612d15565b60005b82811015612f6157848901518255600182019150602085019450602081019050612f3c565b86831015612f7e5784890151612f7a601f891682612e87565b8355505b6001600288020188555050505b505050505050565b7f455243313135353a2069647320616e6420616d6f756e7473206c656e6774682060008201527f6d69736d61746368000000000000000000000000000000000000000000000000602082015250565b6000612fef602883611fa7565b9150612ffa82612f93565b604082019050919050565b6000602082019050818103600083015261301e81612fe2565b9050919050565b7f455243313135353a207472616e7366657220746f20746865207a65726f20616460008201527f6472657373000000000000000000000000000000000000000000000000000000602082015250565b6000613081602583611fa7565b915061308c82613025565b604082019050919050565b600060208201905081810360008301526130b081613074565b9050919050565b7f455243313135353a20696e73756666696369656e742062616c616e636520666f60008201527f72207472616e7366657200000000000000000000000000000000000000000000602082015250565b6000613113602a83611fa7565b915061311e826130b7565b604082019050919050565b6000602082019050818103600083015261314281613106565b9050919050565b6000604082019050818103600083015261316381856125ce565b9050818103602083015261317781846125ce565b90509392505050565b7f455243313135353a206275726e2066726f6d20746865207a65726f206164647260008201527f6573730000000000000000000000000000000000000000000000000000000000602082015250565b60006131dc602383611fa7565b91506131e782613180565b604082019050919050565b6000602082019050818103600083015261320b816131cf565b9050919050565b7f455243313135353a206275726e20616d6f756e7420657863656564732062616c60008201527f616e636500000000000000000000000000000000000000000000000000000000602082015250565b600061326e602483611fa7565b915061327982613212565b604082019050919050565b6000602082019050818103600083015261329d81613261565b9050919050565b7f455243313135353a2073657474696e6720617070726f76616c2073746174757360008201527f20666f722073656c660000000000000000000000000000000000000000000000602082015250565b6000613300602983611fa7565b915061330b826132a4565b604082019050919050565b6000602082019050818103600083015261332f816132f3565b9050919050565b600081519050919050565b600082825260208201905092915050565b600061335d82613336565b6133678185613341565b9350613377818560208601611fb8565b61338081611fe2565b840191505092915050565b600060a0820190506133a0600083018861264e565b6133ad602083018761264e565b6133ba6040830186611e8a565b6133c76060830185611e8a565b81810360808301526133d98184613352565b90509695505050505050565b6000815190506133f481611ee0565b92915050565b6000602082840312156134105761340f611dac565b5b600061341e848285016133e5565b91505092915050565b60008160e01c9050919050565b600060033d11156134535760046000803e613450600051613427565b90505b90565b600060443d106134e357613468611da2565b60043d036004823e80513d602482011167ffffffffffffffff821117156134905750506134e3565b808201805167ffffffffffffffff8111156134ae57505050506134e3565b80602083010160043d0385018111156134cb5750505050506134e3565b6134da82602001850186612082565b82955050505050505b90565b7f455243313135353a207472616e7366657220746f206e6f6e204552433131353560008201527f526563656976657220696d706c656d656e746572000000000000000000000000602082015250565b6000613542603483611fa7565b915061354d826134e6565b604082019050919050565b6000602082019050818103600083015261357181613535565b9050919050565b7f455243313135353a204552433131353552656365697665722072656a6563746560008201527f6420746f6b656e73000000000000000000000000000000000000000000000000602082015250565b60006135d4602883611fa7565b91506135df82613578565b604082019050919050565b60006020820190508181036000830152613603816135c7565b9050919050565b600060a08201905061361f600083018861264e565b61362c602083018761264e565b818103604083015261363e81866125ce565b9050818103606083015261365281856125ce565b905081810360808301526136668184613352565b9050969550505050505056fea2646970667358221220bf7989a971ec8dec58ab8c3dc2e16af163aa2a4e8c1972d698946e7223a8b97964736f6c63430008110033",
  "immutableReferences": {},
  "source": "//SPDX-License-Identifier: GPL-3.0\r\npragma solidity ^0.8.0;\r\n\r\nimport \"@openzeppelin/contracts/token/ERC1155/ERC1155.sol\";\r\nimport \"@openzeppelin/contracts/utils/Counters.sol\"; \r\n\r\ncontract LectureFactory is ERC1155 {\r\n    address public owner;\r\n\r\n    mapping (uint256 => string) private _tokenURIs;\r\n    using Counters for Counters.Counter; \r\n    Counters.Counter public _tokenIds; \r\n\r\n    mapping(uint256 => address[]) owners;\r\n\r\n    modifier isOwner() {\r\n        require(owner == msg.sender, \"Not owner\");\r\n        _;\r\n    }\r\n\r\n    constructor() ERC1155(\"\") {\r\n        owner = msg.sender;\r\n    }\r\n\r\n    function createLecture(address[] memory _arrayUsers, string memory tokenURI) public isOwner {\r\n        uint256 newItemId = _tokenIds.current(); \r\n        for (uint256 i = 0; i < _arrayUsers.length; i++) {\r\n            _mint(_arrayUsers[i], newItemId, 1, \"\");\r\n            owners[newItemId] = _arrayUsers;\r\n        }\r\n        _setTokenUri(newItemId, tokenURI); \r\n        _tokenIds.increment();\r\n    }\r\n\r\n    function uri(uint256 tokenId) override public view returns (string memory) { \r\n        return(_tokenURIs[tokenId]); \r\n    } \r\n\r\n    function _setTokenUri(uint256 tokenId, string memory tokenURI) private {\r\n         _tokenURIs[tokenId] = tokenURI; \r\n    } \r\n\r\n    function burnNFT(address _address, uint256 _id) public isOwner {\r\n        _burn(_address, _id, 1);\r\n        address[] storage NFTowners = owners[_id];\r\n        for (uint256 i = 0; i < NFTowners.length; i++) {\r\n            if (NFTowners[i] == _address) {\r\n                NFTowners[i] = NFTowners[NFTowners.length - 1];\r\n                NFTowners.pop();\r\n            }\r\n        }\r\n        owners[_id] = NFTowners;\r\n    }\r\n\r\n    function viewLectureOwners(uint256 _id)\r\n        public\r\n        view\r\n        returns (address[] memory)\r\n    {\r\n        return (owners[_id]);\r\n    }\r\n}\r\n",
  "sourcePath": "C:\\Users\\reish\\Documents\\GitHub\\projeto_inteli\\contracts\\LectureFactory.sol",
  "compiler": {
    "name": "solc",
    "version": "0.8.17+commit.8df45f5f.Emscripten.clang"
  },
  "schemaVersion": "3.4.10",
  "updatedAt": "2022-09-27T16:56:13.533Z",
  "networkType": "ethereum",
  "devdoc": {
    "kind": "dev",
    "methods": {
      "balanceOf(address,uint256)": {
        "details": "See {IERC1155-balanceOf}. Requirements: - `account` cannot be the zero address."
      },
      "balanceOfBatch(address[],uint256[])": {
        "details": "See {IERC1155-balanceOfBatch}. Requirements: - `accounts` and `ids` must have the same length."
      },
      "isApprovedForAll(address,address)": {
        "details": "See {IERC1155-isApprovedForAll}."
      },
      "safeBatchTransferFrom(address,address,uint256[],uint256[],bytes)": {
        "details": "See {IERC1155-safeBatchTransferFrom}."
      },
      "safeTransferFrom(address,address,uint256,uint256,bytes)": {
        "details": "See {IERC1155-safeTransferFrom}."
      },
      "setApprovalForAll(address,bool)": {
        "details": "See {IERC1155-setApprovalForAll}."
      },
      "supportsInterface(bytes4)": {
        "details": "See {IERC165-supportsInterface}."
      }
    },
    "version": 1
  },
  "userdoc": {
    "kind": "user",
    "methods": {},
    "version": 1
  }
}