{
  "contractName": "LectureFactory",
  "abi": [
    {
      "inputs": [],
      "stateMutability": "nonpayable",
      "type": "constructor"
    },
    {
      "anonymous": false,
      "inputs": [
        {
          "indexed": true,
          "internalType": "address",
          "name": "account",
          "type": "address"
        },
        {
          "indexed": true,
          "internalType": "address",
          "name": "operator",
          "type": "address"
        },
        {
          "indexed": false,
          "internalType": "bool",
          "name": "approved",
          "type": "bool"
        }
      ],
      "name": "ApprovalForAll",
      "type": "event"
    },
    {
      "anonymous": false,
      "inputs": [
        {
          "indexed": true,
          "internalType": "address",
          "name": "operator",
          "type": "address"
        },
        {
          "indexed": true,
          "internalType": "address",
          "name": "from",
          "type": "address"
        },
        {
          "indexed": true,
          "internalType": "address",
          "name": "to",
          "type": "address"
        },
        {
          "indexed": false,
          "internalType": "uint256[]",
          "name": "ids",
          "type": "uint256[]"
        },
        {
          "indexed": false,
          "internalType": "uint256[]",
          "name": "values",
          "type": "uint256[]"
        }
      ],
      "name": "TransferBatch",
      "type": "event"
    },
    {
      "anonymous": false,
      "inputs": [
        {
          "indexed": true,
          "internalType": "address",
          "name": "operator",
          "type": "address"
        },
        {
          "indexed": true,
          "internalType": "address",
          "name": "from",
          "type": "address"
        },
        {
          "indexed": true,
          "internalType": "address",
          "name": "to",
          "type": "address"
        },
        {
          "indexed": false,
          "internalType": "uint256",
          "name": "id",
          "type": "uint256"
        },
        {
          "indexed": false,
          "internalType": "uint256",
          "name": "value",
          "type": "uint256"
        }
      ],
      "name": "TransferSingle",
      "type": "event"
    },
    {
      "anonymous": false,
      "inputs": [
        {
          "indexed": false,
          "internalType": "string",
          "name": "value",
          "type": "string"
        },
        {
          "indexed": true,
          "internalType": "uint256",
          "name": "id",
          "type": "uint256"
        }
      ],
      "name": "URI",
      "type": "event"
    },
    {
      "inputs": [],
      "name": "_tokenIds",
      "outputs": [
        {
          "internalType": "uint256",
          "name": "_value",
          "type": "uint256"
        }
      ],
      "stateMutability": "view",
      "type": "function",
      "constant": true
    },
    {
      "inputs": [
        {
          "internalType": "address",
          "name": "account",
          "type": "address"
        },
        {
          "internalType": "uint256",
          "name": "id",
          "type": "uint256"
        }
      ],
      "name": "balanceOf",
      "outputs": [
        {
          "internalType": "uint256",
          "name": "",
          "type": "uint256"
        }
      ],
      "stateMutability": "view",
      "type": "function",
      "constant": true
    },
    {
      "inputs": [
        {
          "internalType": "address[]",
          "name": "accounts",
          "type": "address[]"
        },
        {
          "internalType": "uint256[]",
          "name": "ids",
          "type": "uint256[]"
        }
      ],
      "name": "balanceOfBatch",
      "outputs": [
        {
          "internalType": "uint256[]",
          "name": "",
          "type": "uint256[]"
        }
      ],
      "stateMutability": "view",
      "type": "function",
      "constant": true
    },
    {
      "inputs": [
        {
          "internalType": "address",
          "name": "account",
          "type": "address"
        },
        {
          "internalType": "address",
          "name": "operator",
          "type": "address"
        }
      ],
      "name": "isApprovedForAll",
      "outputs": [
        {
          "internalType": "bool",
          "name": "",
          "type": "bool"
        }
      ],
      "stateMutability": "view",
      "type": "function",
      "constant": true
    },
    {
      "inputs": [],
      "name": "owner",
      "outputs": [
        {
          "internalType": "address",
          "name": "",
          "type": "address"
        }
      ],
      "stateMutability": "view",
      "type": "function",
      "constant": true
    },
    {
      "inputs": [
        {
          "internalType": "uint256",
          "name": "",
          "type": "uint256"
        },
        {
          "internalType": "uint256",
          "name": "",
          "type": "uint256"
        }
      ],
      "name": "owners",
      "outputs": [
        {
          "internalType": "address",
          "name": "",
          "type": "address"
        }
      ],
      "stateMutability": "view",
      "type": "function",
      "constant": true
    },
    {
      "inputs": [
        {
          "internalType": "address",
          "name": "from",
          "type": "address"
        },
        {
          "internalType": "address",
          "name": "to",
          "type": "address"
        },
        {
          "internalType": "uint256[]",
          "name": "ids",
          "type": "uint256[]"
        },
        {
          "internalType": "uint256[]",
          "name": "amounts",
          "type": "uint256[]"
        },
        {
          "internalType": "bytes",
          "name": "data",
          "type": "bytes"
        }
      ],
      "name": "safeBatchTransferFrom",
      "outputs": [],
      "stateMutability": "nonpayable",
      "type": "function"
    },
    {
      "inputs": [
        {
          "internalType": "address",
          "name": "from",
          "type": "address"
        },
        {
          "internalType": "address",
          "name": "to",
          "type": "address"
        },
        {
          "internalType": "uint256",
          "name": "id",
          "type": "uint256"
        },
        {
          "internalType": "uint256",
          "name": "amount",
          "type": "uint256"
        },
        {
          "internalType": "bytes",
          "name": "data",
          "type": "bytes"
        }
      ],
      "name": "safeTransferFrom",
      "outputs": [],
      "stateMutability": "nonpayable",
      "type": "function"
    },
    {
      "inputs": [
        {
          "internalType": "address",
          "name": "operator",
          "type": "address"
        },
        {
          "internalType": "bool",
          "name": "approved",
          "type": "bool"
        }
      ],
      "name": "setApprovalForAll",
      "outputs": [],
      "stateMutability": "nonpayable",
      "type": "function"
    },
    {
      "inputs": [
        {
          "internalType": "bytes4",
          "name": "interfaceId",
          "type": "bytes4"
        }
      ],
      "name": "supportsInterface",
      "outputs": [
        {
          "internalType": "bool",
          "name": "",
          "type": "bool"
        }
      ],
      "stateMutability": "view",
      "type": "function",
      "constant": true
    },
    {
      "inputs": [
        {
          "internalType": "address[]",
          "name": "_arrayUsers",
          "type": "address[]"
        },
        {
          "internalType": "string",
          "name": "tokenURI",
          "type": "string"
        }
      ],
      "name": "createLecture",
      "outputs": [],
      "stateMutability": "nonpayable",
      "type": "function"
    },
    {
      "inputs": [
        {
          "internalType": "uint256",
          "name": "tokenId",
          "type": "uint256"
        }
      ],
      "name": "uri",
      "outputs": [
        {
          "internalType": "string",
          "name": "",
          "type": "string"
        }
      ],
      "stateMutability": "view",
      "type": "function",
      "constant": true
    },
    {
      "inputs": [
        {
          "internalType": "address",
          "name": "_address",
          "type": "address"
        },
        {
          "internalType": "uint256",
          "name": "_id",
          "type": "uint256"
        }
      ],
      "name": "burnNFT",
      "outputs": [],
      "stateMutability": "nonpayable",
      "type": "function"
    }
  ],
  "bytecode": "0x60806040523480156200001157600080fd5b506040518060200160405280600081525062000033816200007b60201b60201c565b5033600360006101000a81548173ffffffffffffffffffffffffffffffffffffffff021916908373ffffffffffffffffffffffffffffffffffffffff160217905550620003f1565b80600290816200008c91906200030a565b5050565b600081519050919050565b7f4e487b7100000000000000000000000000000000000000000000000000000000600052604160045260246000fd5b7f4e487b7100000000000000000000000000000000000000000000000000000000600052602260045260246000fd5b600060028204905060018216806200011257607f821691505b602082108103620001285762000127620000ca565b5b50919050565b60008190508160005260206000209050919050565b60006020601f8301049050919050565b600082821b905092915050565b600060088302620001927fffffffffffffffffffffffffffffffffffffffffffffffffffffffffffffffff8262000153565b6200019e868362000153565b95508019841693508086168417925050509392505050565b6000819050919050565b6000819050919050565b6000620001eb620001e5620001df84620001b6565b620001c0565b620001b6565b9050919050565b6000819050919050565b6200020783620001ca565b6200021f6200021682620001f2565b84845462000160565b825550505050565b600090565b6200023662000227565b62000243818484620001fc565b505050565b5b818110156200026b576200025f6000826200022c565b60018101905062000249565b5050565b601f821115620002ba5762000284816200012e565b6200028f8462000143565b810160208510156200029f578190505b620002b7620002ae8562000143565b83018262000248565b50505b505050565b600082821c905092915050565b6000620002df60001984600802620002bf565b1980831691505092915050565b6000620002fa8383620002cc565b9150826002028217905092915050565b620003158262000090565b67ffffffffffffffff8111156200033157620003306200009b565b5b6200033d8254620000f9565b6200034a8282856200026f565b600060209050601f8311600181146200038257600084156200036d578287015190505b620003798582620002ec565b865550620003e9565b601f19841662000392866200012e565b60005b82811015620003bc5784890151825560018201915060208501945060208101905062000395565b86831015620003dc5784890151620003d8601f891682620002cc565b8355505b6001600288020188555050505b505050505050565b6135b580620004016000396000f3fe608060405234801561001057600080fd5b50600436106100ce5760003560e01c806347fcf0181161008c578063a22cb46511610066578063a22cb46514610235578063aa46a40014610251578063e985e9c51461026f578063f242432a1461029f576100ce565b806347fcf018146101cb5780634e1273f4146101e75780638da5cb5b14610217576100ce565b8062fdd58e146100d357806301ffc9a7146101035780630e89341c14610133578063263bfbd6146101635780632eb2c2d61461017f57806333764f531461019b575b600080fd5b6100ed60048036038101906100e89190611df7565b6102bb565b6040516100fa9190611e46565b60405180910390f35b61011d60048036038101906101189190611eb9565b610383565b60405161012a9190611f01565b60405180910390f35b61014d60048036038101906101489190611f1c565b610465565b60405161015a9190611fd9565b60405180910390f35b61017d600480360381019061017891906121f8565b61050a565b005b610199600480360381019061019491906123d4565b61063f565b005b6101b560048036038101906101b091906124a3565b6106e0565b6040516101c291906124f2565b60405180910390f35b6101e560048036038101906101e09190611df7565b61072e565b005b61020160048036038101906101fc919061250d565b61098c565b60405161020e9190612643565b60405180910390f35b61021f610aa5565b60405161022c91906124f2565b60405180910390f35b61024f600480360381019061024a9190612691565b610acb565b005b610259610ae1565b6040516102669190611e46565b60405180910390f35b610289600480360381019061028491906126d1565b610aed565b6040516102969190611f01565b60405180910390f35b6102b960048036038101906102b49190612711565b610b81565b005b60008073ffffffffffffffffffffffffffffffffffffffff168373ffffffffffffffffffffffffffffffffffffffff160361032b576040517f08c379a00000000000000000000000000000000000000000000000000000000081526004016103229061281a565b60405180910390fd5b60008083815260200190815260200160002060008473ffffffffffffffffffffffffffffffffffffffff1673ffffffffffffffffffffffffffffffffffffffff16815260200190815260200160002054905092915050565b60007fd9b67a26000000000000000000000000000000000000000000000000000000007bffffffffffffffffffffffffffffffffffffffffffffffffffffffff1916827bffffffffffffffffffffffffffffffffffffffffffffffffffffffff1916148061044e57507f0e89341c000000000000000000000000000000000000000000000000000000007bffffffffffffffffffffffffffffffffffffffffffffffffffffffff1916827bffffffffffffffffffffffffffffffffffffffffffffffffffffffff1916145b8061045e575061045d82610c22565b5b9050919050565b606060046000838152602001908152602001600020805461048590612869565b80601f01602080910402602001604051908101604052809291908181526020018280546104b190612869565b80156104fe5780601f106104d3576101008083540402835291602001916104fe565b820191906000526020600020905b8154815290600101906020018083116104e157829003601f168201915b50505050509050919050565b3373ffffffffffffffffffffffffffffffffffffffff16600360009054906101000a900473ffffffffffffffffffffffffffffffffffffffff1673ffffffffffffffffffffffffffffffffffffffff161461059a576040517f08c379a0000000000000000000000000000000000000000000000000000000008152600401610591906128e6565b60405180910390fd5b60006105a66005610c8c565b905060005b8351811015610625576105ea8482815181106105ca576105c9612906565b5b602002602001015183600160405180602001604052806000815250610c9a565b83600660008481526020019081526020016000209080519060200190610611929190611c56565b50808061061d90612964565b9150506105ab565b506106308183610e4a565b61063a6005610e6f565b505050565b610647610e85565b73ffffffffffffffffffffffffffffffffffffffff168573ffffffffffffffffffffffffffffffffffffffff16148061068d575061068c85610687610e85565b610aed565b5b6106cc576040517f08c379a00000000000000000000000000000000000000000000000000000000081526004016106c390612a1e565b60405180910390fd5b6106d98585858585610e8d565b5050505050565b600660205281600052604060002081815481106106fc57600080fd5b906000526020600020016000915091509054906101000a900473ffffffffffffffffffffffffffffffffffffffff1681565b3373ffffffffffffffffffffffffffffffffffffffff16600360009054906101000a900473ffffffffffffffffffffffffffffffffffffffff1673ffffffffffffffffffffffffffffffffffffffff16146107be576040517f08c379a00000000000000000000000000000000000000000000000000000000081526004016107b5906128e6565b60405180910390fd5b6107ca828260016111ae565b600060066000838152602001908152602001600020905060005b8180549050811015610963578373ffffffffffffffffffffffffffffffffffffffff1682828154811061081a57610819612906565b5b9060005260206000200160009054906101000a900473ffffffffffffffffffffffffffffffffffffffff1673ffffffffffffffffffffffffffffffffffffffff16036109505781600183805490506108729190612a3e565b8154811061088357610882612906565b5b9060005260206000200160009054906101000a900473ffffffffffffffffffffffffffffffffffffffff168282815481106108c1576108c0612906565b5b9060005260206000200160006101000a81548173ffffffffffffffffffffffffffffffffffffffff021916908373ffffffffffffffffffffffffffffffffffffffff1602179055508180548061091a57610919612a72565b5b6001900381819060005260206000200160006101000a81549073ffffffffffffffffffffffffffffffffffffffff021916905590555b808061095b90612964565b9150506107e4565b508060066000848152602001908152602001600020908054610986929190611ce0565b50505050565b606081518351146109d2576040517f08c379a00000000000000000000000000000000000000000000000000000000081526004016109c990612b13565b60405180910390fd5b6000835167ffffffffffffffff8111156109ef576109ee612000565b5b604051908082528060200260200182016040528015610a1d5781602001602082028036833780820191505090505b50905060005b8451811015610a9a57610a6a858281518110610a4257610a41612906565b5b6020026020010151858381518110610a5d57610a5c612906565b5b60200260200101516102bb565b828281518110610a7d57610a7c612906565b5b60200260200101818152505080610a9390612964565b9050610a23565b508091505092915050565b600360009054906101000a900473ffffffffffffffffffffffffffffffffffffffff1681565b610add610ad6610e85565b83836113f4565b5050565b60058060000154905081565b6000600160008473ffffffffffffffffffffffffffffffffffffffff1673ffffffffffffffffffffffffffffffffffffffff16815260200190815260200160002060008373ffffffffffffffffffffffffffffffffffffffff1673ffffffffffffffffffffffffffffffffffffffff16815260200190815260200160002060009054906101000a900460ff16905092915050565b610b89610e85565b73ffffffffffffffffffffffffffffffffffffffff168573ffffffffffffffffffffffffffffffffffffffff161480610bcf5750610bce85610bc9610e85565b610aed565b5b610c0e576040517f08c379a0000000000000000000000000000000000000000000000000000000008152600401610c0590612a1e565b60405180910390fd5b610c1b8585858585611560565b5050505050565b60007f01ffc9a7000000000000000000000000000000000000000000000000000000007bffffffffffffffffffffffffffffffffffffffffffffffffffffffff1916827bffffffffffffffffffffffffffffffffffffffffffffffffffffffff1916149050919050565b600081600001549050919050565b600073ffffffffffffffffffffffffffffffffffffffff168473ffffffffffffffffffffffffffffffffffffffff1603610d09576040517f08c379a0000000000000000000000000000000000000000000000000000000008152600401610d0090612ba5565b60405180910390fd5b6000610d13610e85565b90506000610d20856117fb565b90506000610d2d856117fb565b9050610d3e83600089858589611875565b8460008088815260200190815260200160002060008973ffffffffffffffffffffffffffffffffffffffff1673ffffffffffffffffffffffffffffffffffffffff1681526020019081526020016000206000828254610d9d9190612bc5565b925050819055508673ffffffffffffffffffffffffffffffffffffffff16600073ffffffffffffffffffffffffffffffffffffffff168473ffffffffffffffffffffffffffffffffffffffff167fc3d58168c5ae7397731d063d5bbf3d657854427343f4c083240f7aacaa2d0f628989604051610e1b929190612bf9565b60405180910390a4610e328360008985858961187d565b610e4183600089898989611885565b50505050505050565b80600460008481526020019081526020016000209081610e6a9190612dce565b505050565b6001816000016000828254019250508190555050565b600033905090565b8151835114610ed1576040517f08c379a0000000000000000000000000000000000000000000000000000000008152600401610ec890612f12565b60405180910390fd5b600073ffffffffffffffffffffffffffffffffffffffff168473ffffffffffffffffffffffffffffffffffffffff1603610f40576040517f08c379a0000000000000000000000000000000000000000000000000000000008152600401610f3790612fa4565b60405180910390fd5b6000610f4a610e85565b9050610f5a818787878787611875565b60005b845181101561110b576000858281518110610f7b57610f7a612906565b5b602002602001015190506000858381518110610f9a57610f99612906565b5b60200260200101519050600080600084815260200190815260200160002060008b73ffffffffffffffffffffffffffffffffffffffff1673ffffffffffffffffffffffffffffffffffffffff1681526020019081526020016000205490508181101561103b576040517f08c379a000000000000000000000000000000000000000000000000000000000815260040161103290613036565b60405180910390fd5b81810360008085815260200190815260200160002060008c73ffffffffffffffffffffffffffffffffffffffff1673ffffffffffffffffffffffffffffffffffffffff168152602001908152602001600020819055508160008085815260200190815260200160002060008b73ffffffffffffffffffffffffffffffffffffffff1673ffffffffffffffffffffffffffffffffffffffff16815260200190815260200160002060008282546110f09190612bc5565b925050819055505050508061110490612964565b9050610f5d565b508473ffffffffffffffffffffffffffffffffffffffff168673ffffffffffffffffffffffffffffffffffffffff168273ffffffffffffffffffffffffffffffffffffffff167f4a39dc06d4c0dbc64b70af90fd698a233a518aa5d07e595d983b8c0526c8f7fb8787604051611182929190613056565b60405180910390a461119881878787878761187d565b6111a6818787878787611a5c565b505050505050565b600073ffffffffffffffffffffffffffffffffffffffff168373ffffffffffffffffffffffffffffffffffffffff160361121d576040517f08c379a0000000000000000000000000000000000000000000000000000000008152600401611214906130ff565b60405180910390fd5b6000611227610e85565b90506000611234846117fb565b90506000611241846117fb565b905061126183876000858560405180602001604052806000815250611875565b600080600087815260200190815260200160002060008873ffffffffffffffffffffffffffffffffffffffff1673ffffffffffffffffffffffffffffffffffffffff168152602001908152602001600020549050848110156112f8576040517f08c379a00000000000000000000000000000000000000000000000000000000081526004016112ef90613191565b60405180910390fd5b84810360008088815260200190815260200160002060008973ffffffffffffffffffffffffffffffffffffffff1673ffffffffffffffffffffffffffffffffffffffff16815260200190815260200160002081905550600073ffffffffffffffffffffffffffffffffffffffff168773ffffffffffffffffffffffffffffffffffffffff168573ffffffffffffffffffffffffffffffffffffffff167fc3d58168c5ae7397731d063d5bbf3d657854427343f4c083240f7aacaa2d0f6289896040516113c5929190612bf9565b60405180910390a46113eb8488600086866040518060200160405280600081525061187d565b50505050505050565b8173ffffffffffffffffffffffffffffffffffffffff168373ffffffffffffffffffffffffffffffffffffffff1603611462576040517f08c379a000000000000000000000000000000000000000000000000000000000815260040161145990613223565b60405180910390fd5b80600160008573ffffffffffffffffffffffffffffffffffffffff1673ffffffffffffffffffffffffffffffffffffffff16815260200190815260200160002060008473ffffffffffffffffffffffffffffffffffffffff1673ffffffffffffffffffffffffffffffffffffffff16815260200190815260200160002060006101000a81548160ff0219169083151502179055508173ffffffffffffffffffffffffffffffffffffffff168373ffffffffffffffffffffffffffffffffffffffff167f17307eab39ab6107e8899845ad3d59bd9653f200f220920489ca2b5937696c31836040516115539190611f01565b60405180910390a3505050565b600073ffffffffffffffffffffffffffffffffffffffff168473ffffffffffffffffffffffffffffffffffffffff16036115cf576040517f08c379a00000000000000000000000000000000000000000000000000000000081526004016115c690612fa4565b60405180910390fd5b60006115d9610e85565b905060006115e6856117fb565b905060006115f3856117fb565b9050611603838989858589611875565b600080600088815260200190815260200160002060008a73ffffffffffffffffffffffffffffffffffffffff1673ffffffffffffffffffffffffffffffffffffffff1681526020019081526020016000205490508581101561169a576040517f08c379a000000000000000000000000000000000000000000000000000000000815260040161169190613036565b60405180910390fd5b85810360008089815260200190815260200160002060008b73ffffffffffffffffffffffffffffffffffffffff1673ffffffffffffffffffffffffffffffffffffffff168152602001908152602001600020819055508560008089815260200190815260200160002060008a73ffffffffffffffffffffffffffffffffffffffff1673ffffffffffffffffffffffffffffffffffffffff168152602001908152602001600020600082825461174f9190612bc5565b925050819055508773ffffffffffffffffffffffffffffffffffffffff168973ffffffffffffffffffffffffffffffffffffffff168573ffffffffffffffffffffffffffffffffffffffff167fc3d58168c5ae7397731d063d5bbf3d657854427343f4c083240f7aacaa2d0f628a8a6040516117cc929190612bf9565b60405180910390a46117e2848a8a86868a61187d565b6117f0848a8a8a8a8a611885565b505050505050505050565b60606000600167ffffffffffffffff81111561181a57611819612000565b5b6040519080825280602002602001820160405280156118485781602001602082028036833780820191505090505b50905082816000815181106118605761185f612906565b5b60200260200101818152505080915050919050565b505050505050565b505050505050565b6118a48473ffffffffffffffffffffffffffffffffffffffff16611c33565b15611a54578373ffffffffffffffffffffffffffffffffffffffff1663f23a6e6187878686866040518663ffffffff1660e01b81526004016118ea959493929190613298565b6020604051808303816000875af192505050801561192657506040513d601f19601f820116820180604052508101906119239190613307565b60015b6119cb57611932613341565b806308c379a00361198e5750611946613363565b806119515750611990565b806040517f08c379a00000000000000000000000000000000000000000000000000000000081526004016119859190611fd9565b60405180910390fd5b505b6040517f08c379a00000000000000000000000000000000000000000000000000000000081526004016119c290613465565b60405180910390fd5b63f23a6e6160e01b7bffffffffffffffffffffffffffffffffffffffffffffffffffffffff1916817bffffffffffffffffffffffffffffffffffffffffffffffffffffffff191614611a52576040517f08c379a0000000000000000000000000000000000000000000000000000000008152600401611a49906134f7565b60405180910390fd5b505b505050505050565b611a7b8473ffffffffffffffffffffffffffffffffffffffff16611c33565b15611c2b578373ffffffffffffffffffffffffffffffffffffffff1663bc197c8187878686866040518663ffffffff1660e01b8152600401611ac1959493929190613517565b6020604051808303816000875af1925050508015611afd57506040513d601f19601f82011682018060405250810190611afa9190613307565b60015b611ba257611b09613341565b806308c379a003611b655750611b1d613363565b80611b285750611b67565b806040517f08c379a0000000000000000000000000000000000000000000000000000000008152600401611b5c9190611fd9565b60405180910390fd5b505b6040517f08c379a0000000000000000000000000000000000000000000000000000000008152600401611b9990613465565b60405180910390fd5b63bc197c8160e01b7bffffffffffffffffffffffffffffffffffffffffffffffffffffffff1916817bffffffffffffffffffffffffffffffffffffffffffffffffffffffff191614611c29576040517f08c379a0000000000000000000000000000000000000000000000000000000008152600401611c20906134f7565b60405180910390fd5b505b505050505050565b6000808273ffffffffffffffffffffffffffffffffffffffff163b119050919050565b828054828255906000526020600020908101928215611ccf579160200282015b82811115611cce5782518260006101000a81548173ffffffffffffffffffffffffffffffffffffffff021916908373ffffffffffffffffffffffffffffffffffffffff16021790555091602001919060010190611c76565b5b509050611cdc9190611d32565b5090565b828054828255906000526020600020908101928215611d215760005260206000209182015b82811115611d20578254825591600101919060010190611d05565b5b509050611d2e9190611d32565b5090565b5b80821115611d4b576000816000905550600101611d33565b5090565b6000604051905090565b600080fd5b600080fd5b600073ffffffffffffffffffffffffffffffffffffffff82169050919050565b6000611d8e82611d63565b9050919050565b611d9e81611d83565b8114611da957600080fd5b50565b600081359050611dbb81611d95565b92915050565b6000819050919050565b611dd481611dc1565b8114611ddf57600080fd5b50565b600081359050611df181611dcb565b92915050565b60008060408385031215611e0e57611e0d611d59565b5b6000611e1c85828601611dac565b9250506020611e2d85828601611de2565b9150509250929050565b611e4081611dc1565b82525050565b6000602082019050611e5b6000830184611e37565b92915050565b60007fffffffff0000000000000000000000000000000000000000000000000000000082169050919050565b611e9681611e61565b8114611ea157600080fd5b50565b600081359050611eb381611e8d565b92915050565b600060208284031215611ecf57611ece611d59565b5b6000611edd84828501611ea4565b91505092915050565b60008115159050919050565b611efb81611ee6565b82525050565b6000602082019050611f166000830184611ef2565b92915050565b600060208284031215611f3257611f31611d59565b5b6000611f4084828501611de2565b91505092915050565b600081519050919050565b600082825260208201905092915050565b60005b83811015611f83578082015181840152602081019050611f68565b60008484015250505050565b6000601f19601f8301169050919050565b6000611fab82611f49565b611fb58185611f54565b9350611fc5818560208601611f65565b611fce81611f8f565b840191505092915050565b60006020820190508181036000830152611ff38184611fa0565b905092915050565b600080fd5b7f4e487b7100000000000000000000000000000000000000000000000000000000600052604160045260246000fd5b61203882611f8f565b810181811067ffffffffffffffff8211171561205757612056612000565b5b80604052505050565b600061206a611d4f565b9050612076828261202f565b919050565b600067ffffffffffffffff82111561209657612095612000565b5b602082029050602081019050919050565b600080fd5b60006120bf6120ba8461207b565b612060565b905080838252602082019050602084028301858111156120e2576120e16120a7565b5b835b8181101561210b57806120f78882611dac565b8452602084019350506020810190506120e4565b5050509392505050565b600082601f83011261212a57612129611ffb565b5b813561213a8482602086016120ac565b91505092915050565b600080fd5b600067ffffffffffffffff82111561216357612162612000565b5b61216c82611f8f565b9050602081019050919050565b82818337600083830152505050565b600061219b61219684612148565b612060565b9050828152602081018484840111156121b7576121b6612143565b5b6121c2848285612179565b509392505050565b600082601f8301126121df576121de611ffb565b5b81356121ef848260208601612188565b91505092915050565b6000806040838503121561220f5761220e611d59565b5b600083013567ffffffffffffffff81111561222d5761222c611d5e565b5b61223985828601612115565b925050602083013567ffffffffffffffff81111561225a57612259611d5e565b5b612266858286016121ca565b9150509250929050565b600067ffffffffffffffff82111561228b5761228a612000565b5b602082029050602081019050919050565b60006122af6122aa84612270565b612060565b905080838252602082019050602084028301858111156122d2576122d16120a7565b5b835b818110156122fb57806122e78882611de2565b8452602084019350506020810190506122d4565b5050509392505050565b600082601f83011261231a57612319611ffb565b5b813561232a84826020860161229c565b91505092915050565b600067ffffffffffffffff82111561234e5761234d612000565b5b61235782611f8f565b9050602081019050919050565b600061237761237284612333565b612060565b90508281526020810184848401111561239357612392612143565b5b61239e848285612179565b509392505050565b600082601f8301126123bb576123ba611ffb565b5b81356123cb848260208601612364565b91505092915050565b600080600080600060a086880312156123f0576123ef611d59565b5b60006123fe88828901611dac565b955050602061240f88828901611dac565b945050604086013567ffffffffffffffff8111156124305761242f611d5e565b5b61243c88828901612305565b935050606086013567ffffffffffffffff81111561245d5761245c611d5e565b5b61246988828901612305565b925050608086013567ffffffffffffffff81111561248a57612489611d5e565b5b612496888289016123a6565b9150509295509295909350565b600080604083850312156124ba576124b9611d59565b5b60006124c885828601611de2565b92505060206124d985828601611de2565b9150509250929050565b6124ec81611d83565b82525050565b600060208201905061250760008301846124e3565b92915050565b6000806040838503121561252457612523611d59565b5b600083013567ffffffffffffffff81111561254257612541611d5e565b5b61254e85828601612115565b925050602083013567ffffffffffffffff81111561256f5761256e611d5e565b5b61257b85828601612305565b9150509250929050565b600081519050919050565b600082825260208201905092915050565b6000819050602082019050919050565b6125ba81611dc1565b82525050565b60006125cc83836125b1565b60208301905092915050565b6000602082019050919050565b60006125f082612585565b6125fa8185612590565b9350612605836125a1565b8060005b8381101561263657815161261d88826125c0565b9750612628836125d8565b925050600181019050612609565b5085935050505092915050565b6000602082019050818103600083015261265d81846125e5565b905092915050565b61266e81611ee6565b811461267957600080fd5b50565b60008135905061268b81612665565b92915050565b600080604083850312156126a8576126a7611d59565b5b60006126b685828601611dac565b92505060206126c78582860161267c565b9150509250929050565b600080604083850312156126e8576126e7611d59565b5b60006126f685828601611dac565b925050602061270785828601611dac565b9150509250929050565b600080600080600060a0868803121561272d5761272c611d59565b5b600061273b88828901611dac565b955050602061274c88828901611dac565b945050604061275d88828901611de2565b935050606061276e88828901611de2565b925050608086013567ffffffffffffffff81111561278f5761278e611d5e565b5b61279b888289016123a6565b9150509295509295909350565b7f455243313135353a2061646472657373207a65726f206973206e6f742061207660008201527f616c6964206f776e657200000000000000000000000000000000000000000000602082015250565b6000612804602a83611f54565b915061280f826127a8565b604082019050919050565b60006020820190508181036000830152612833816127f7565b9050919050565b7f4e487b7100000000000000000000000000000000000000000000000000000000600052602260045260246000fd5b6000600282049050600182168061288157607f821691505b6020821081036128945761289361283a565b5b50919050565b7f4e6f74206f776e65720000000000000000000000000000000000000000000000600082015250565b60006128d0600983611f54565b91506128db8261289a565b602082019050919050565b600060208201905081810360008301526128ff816128c3565b9050919050565b7f4e487b7100000000000000000000000000000000000000000000000000000000600052603260045260246000fd5b7f4e487b7100000000000000000000000000000000000000000000000000000000600052601160045260246000fd5b600061296f82611dc1565b91507fffffffffffffffffffffffffffffffffffffffffffffffffffffffffffffffff82036129a1576129a0612935565b5b600182019050919050565b7f455243313135353a2063616c6c6572206973206e6f7420746f6b656e206f776e60008201527f6572206e6f7220617070726f7665640000000000000000000000000000000000602082015250565b6000612a08602f83611f54565b9150612a13826129ac565b604082019050919050565b60006020820190508181036000830152612a37816129fb565b9050919050565b6000612a4982611dc1565b9150612a5483611dc1565b9250828203905081811115612a6c57612a6b612935565b5b92915050565b7f4e487b7100000000000000000000000000000000000000000000000000000000600052603160045260246000fd5b7f455243313135353a206163636f756e747320616e6420696473206c656e67746860008201527f206d69736d617463680000000000000000000000000000000000000000000000602082015250565b6000612afd602983611f54565b9150612b0882612aa1565b604082019050919050565b60006020820190508181036000830152612b2c81612af0565b9050919050565b7f455243313135353a206d696e7420746f20746865207a65726f2061646472657360008201527f7300000000000000000000000000000000000000000000000000000000000000602082015250565b6000612b8f602183611f54565b9150612b9a82612b33565b604082019050919050565b60006020820190508181036000830152612bbe81612b82565b9050919050565b6000612bd082611dc1565b9150612bdb83611dc1565b9250828201905080821115612bf357612bf2612935565b5b92915050565b6000604082019050612c0e6000830185611e37565b612c1b6020830184611e37565b9392505050565b60008190508160005260206000209050919050565b60006020601f8301049050919050565b600082821b905092915050565b600060088302612c847fffffffffffffffffffffffffffffffffffffffffffffffffffffffffffffffff82612c47565b612c8e8683612c47565b95508019841693508086168417925050509392505050565b6000819050919050565b6000612ccb612cc6612cc184611dc1565b612ca6565b611dc1565b9050919050565b6000819050919050565b612ce583612cb0565b612cf9612cf182612cd2565b848454612c54565b825550505050565b600090565b612d0e612d01565b612d19818484612cdc565b505050565b5b81811015612d3d57612d32600082612d06565b600181019050612d1f565b5050565b601f821115612d8257612d5381612c22565b612d5c84612c37565b81016020851015612d6b578190505b612d7f612d7785612c37565b830182612d1e565b50505b505050565b600082821c905092915050565b6000612da560001984600802612d87565b1980831691505092915050565b6000612dbe8383612d94565b9150826002028217905092915050565b612dd782611f49565b67ffffffffffffffff811115612df057612def612000565b5b612dfa8254612869565b612e05828285612d41565b600060209050601f831160018114612e385760008415612e26578287015190505b612e308582612db2565b865550612e98565b601f198416612e4686612c22565b60005b82811015612e6e57848901518255600182019150602085019450602081019050612e49565b86831015612e8b5784890151612e87601f891682612d94565b8355505b6001600288020188555050505b505050505050565b7f455243313135353a2069647320616e6420616d6f756e7473206c656e6774682060008201527f6d69736d61746368000000000000000000000000000000000000000000000000602082015250565b6000612efc602883611f54565b9150612f0782612ea0565b604082019050919050565b60006020820190508181036000830152612f2b81612eef565b9050919050565b7f455243313135353a207472616e7366657220746f20746865207a65726f20616460008201527f6472657373000000000000000000000000000000000000000000000000000000602082015250565b6000612f8e602583611f54565b9150612f9982612f32565b604082019050919050565b60006020820190508181036000830152612fbd81612f81565b9050919050565b7f455243313135353a20696e73756666696369656e742062616c616e636520666f60008201527f72207472616e7366657200000000000000000000000000000000000000000000602082015250565b6000613020602a83611f54565b915061302b82612fc4565b604082019050919050565b6000602082019050818103600083015261304f81613013565b9050919050565b6000604082019050818103600083015261307081856125e5565b9050818103602083015261308481846125e5565b90509392505050565b7f455243313135353a206275726e2066726f6d20746865207a65726f206164647260008201527f6573730000000000000000000000000000000000000000000000000000000000602082015250565b60006130e9602383611f54565b91506130f48261308d565b604082019050919050565b60006020820190508181036000830152613118816130dc565b9050919050565b7f455243313135353a206275726e20616d6f756e7420657863656564732062616c60008201527f616e636500000000000000000000000000000000000000000000000000000000602082015250565b600061317b602483611f54565b91506131868261311f565b604082019050919050565b600060208201905081810360008301526131aa8161316e565b9050919050565b7f455243313135353a2073657474696e6720617070726f76616c2073746174757360008201527f20666f722073656c660000000000000000000000000000000000000000000000602082015250565b600061320d602983611f54565b9150613218826131b1565b604082019050919050565b6000602082019050818103600083015261323c81613200565b9050919050565b600081519050919050565b600082825260208201905092915050565b600061326a82613243565b613274818561324e565b9350613284818560208601611f65565b61328d81611f8f565b840191505092915050565b600060a0820190506132ad60008301886124e3565b6132ba60208301876124e3565b6132c76040830186611e37565b6132d46060830185611e37565b81810360808301526132e6818461325f565b90509695505050505050565b60008151905061330181611e8d565b92915050565b60006020828403121561331d5761331c611d59565b5b600061332b848285016132f2565b91505092915050565b60008160e01c9050919050565b600060033d11156133605760046000803e61335d600051613334565b90505b90565b600060443d106133f057613375611d4f565b60043d036004823e80513d602482011167ffffffffffffffff8211171561339d5750506133f0565b808201805167ffffffffffffffff8111156133bb57505050506133f0565b80602083010160043d0385018111156133d85750505050506133f0565b6133e78260200185018661202f565b82955050505050505b90565b7f455243313135353a207472616e7366657220746f206e6f6e204552433131353560008201527f526563656976657220696d706c656d656e746572000000000000000000000000602082015250565b600061344f603483611f54565b915061345a826133f3565b604082019050919050565b6000602082019050818103600083015261347e81613442565b9050919050565b7f455243313135353a204552433131353552656365697665722072656a6563746560008201527f6420746f6b656e73000000000000000000000000000000000000000000000000602082015250565b60006134e1602883611f54565b91506134ec82613485565b604082019050919050565b60006020820190508181036000830152613510816134d4565b9050919050565b600060a08201905061352c60008301886124e3565b61353960208301876124e3565b818103604083015261354b81866125e5565b9050818103606083015261355f81856125e5565b90508181036080830152613573818461325f565b9050969550505050505056fea2646970667358221220f4d8d762c8c603d1c5cf1237d0014383ff2c18593141372c71500794163a98a564736f6c63430008110033",
  "immutableReferences": {},
  "source": "//SPDX-License-Identifier: GPL-3.0\r\npragma solidity ^0.8.0;\r\n\r\nimport \"@openzeppelin/contracts/token/ERC1155/ERC1155.sol\";\r\nimport \"@openzeppelin/contracts/utils/Counters.sol\"; \r\n\r\ncontract LectureFactory is ERC1155 {\r\n    address public owner;\r\n\r\n    mapping (uint256 => string) private _tokenURIs;\r\n    using Counters for Counters.Counter; \r\n    Counters.Counter public _tokenIds; \r\n\r\n    mapping(uint256 => address[]) public owners;\r\n\r\n    modifier isOwner() {\r\n        require(owner == msg.sender, \"Not owner\");\r\n        _;\r\n    }\r\n\r\n    constructor() ERC1155(\"\") {\r\n        owner = msg.sender;\r\n    }\r\n\r\n    function createLecture(address[] memory _arrayUsers, string memory tokenURI) public isOwner {\r\n        uint256 newItemId = _tokenIds.current(); \r\n        for (uint256 i = 0; i < _arrayUsers.length; i++) {\r\n            _mint(_arrayUsers[i], newItemId, 1, \"\");\r\n            owners[newItemId] = _arrayUsers;\r\n        }\r\n        _setTokenUri(newItemId, tokenURI); \r\n        _tokenIds.increment();\r\n    }\r\n\r\n    function uri(uint256 tokenId) override public view returns (string memory) { \r\n        return(_tokenURIs[tokenId]); \r\n    } \r\n\r\n    function _setTokenUri(uint256 tokenId, string memory tokenURI) private {\r\n         _tokenURIs[tokenId] = tokenURI; \r\n    } \r\n\r\n    function burnNFT(address _address, uint256 _id) public isOwner {\r\n        _burn(_address, _id, 1);\r\n        address[] storage NFTowners = owners[_id];\r\n        for (uint256 i = 0; i < NFTowners.length; i++) {\r\n            if (NFTowners[i] == _address) {\r\n                NFTowners[i] = NFTowners[NFTowners.length - 1];\r\n                NFTowners.pop();\r\n            }\r\n        }\r\n        owners[_id] = NFTowners;\r\n    }\r\n}\r\n",
  "sourcePath": "C:\\Users\\reish\\Documents\\GitHub\\projeto_inteli\\contracts\\LectureFactory.sol",
  "compiler": {
    "name": "solc",
    "version": "0.8.17+commit.8df45f5f.Emscripten.clang"
  },
  "schemaVersion": "3.4.10",
  "updatedAt": "2022-09-29T01:46:52.652Z",
  "networkType": "ethereum",
  "devdoc": {
    "kind": "dev",
    "methods": {
      "balanceOf(address,uint256)": {
        "details": "See {IERC1155-balanceOf}. Requirements: - `account` cannot be the zero address."
      },
      "balanceOfBatch(address[],uint256[])": {
        "details": "See {IERC1155-balanceOfBatch}. Requirements: - `accounts` and `ids` must have the same length."
      },
      "isApprovedForAll(address,address)": {
        "details": "See {IERC1155-isApprovedForAll}."
      },
      "safeBatchTransferFrom(address,address,uint256[],uint256[],bytes)": {
        "details": "See {IERC1155-safeBatchTransferFrom}."
      },
      "safeTransferFrom(address,address,uint256,uint256,bytes)": {
        "details": "See {IERC1155-safeTransferFrom}."
      },
      "setApprovalForAll(address,bool)": {
        "details": "See {IERC1155-setApprovalForAll}."
      },
      "supportsInterface(bytes4)": {
        "details": "See {IERC165-supportsInterface}."
      }
    },
    "version": 1
  },
  "userdoc": {
    "kind": "user",
    "methods": {},
    "version": 1
  }
}