{
  "contractName": "Person",
  "abi": [
    {
      "inputs": [
        {
          "internalType": "address",
          "name": "_owner",
          "type": "address"
        }
      ],
      "stateMutability": "nonpayable",
      "type": "constructor"
    },
    {
      "anonymous": false,
      "inputs": [
        {
          "indexed": false,
          "internalType": "address",
          "name": "",
          "type": "address"
        },
        {
          "indexed": false,
          "internalType": "uint256",
          "name": "",
          "type": "uint256"
        }
      ],
      "name": "Received",
      "type": "event"
    },
    {
      "inputs": [
        {
          "internalType": "string",
          "name": "",
          "type": "string"
        },
        {
          "internalType": "uint256",
          "name": "",
          "type": "uint256"
        }
      ],
      "name": "activities",
      "outputs": [
        {
          "internalType": "address",
          "name": "",
          "type": "address"
        }
      ],
      "stateMutability": "view",
      "type": "function"
    },
    {
      "inputs": [
        {
          "internalType": "address",
          "name": "",
          "type": "address"
        },
        {
          "internalType": "address",
          "name": "",
          "type": "address"
        },
        {
          "internalType": "uint256[]",
          "name": "",
          "type": "uint256[]"
        },
        {
          "internalType": "uint256[]",
          "name": "",
          "type": "uint256[]"
        },
        {
          "internalType": "bytes",
          "name": "",
          "type": "bytes"
        }
      ],
      "name": "onERC1155BatchReceived",
      "outputs": [
        {
          "internalType": "bytes4",
          "name": "",
          "type": "bytes4"
        }
      ],
      "stateMutability": "nonpayable",
      "type": "function"
    },
    {
      "inputs": [
        {
          "internalType": "address",
          "name": "",
          "type": "address"
        },
        {
          "internalType": "address",
          "name": "",
          "type": "address"
        },
        {
          "internalType": "uint256",
          "name": "",
          "type": "uint256"
        },
        {
          "internalType": "uint256",
          "name": "",
          "type": "uint256"
        },
        {
          "internalType": "bytes",
          "name": "",
          "type": "bytes"
        }
      ],
      "name": "onERC1155Received",
      "outputs": [
        {
          "internalType": "bytes4",
          "name": "",
          "type": "bytes4"
        }
      ],
      "stateMutability": "nonpayable",
      "type": "function"
    },
    {
      "inputs": [],
      "name": "owner",
      "outputs": [
        {
          "internalType": "address",
          "name": "",
          "type": "address"
        }
      ],
      "stateMutability": "view",
      "type": "function"
    },
    {
      "inputs": [
        {
          "internalType": "bytes4",
          "name": "interfaceId",
          "type": "bytes4"
        }
      ],
      "name": "supportsInterface",
      "outputs": [
        {
          "internalType": "bool",
          "name": "",
          "type": "bool"
        }
      ],
      "stateMutability": "view",
      "type": "function"
    },
    {
      "stateMutability": "payable",
      "type": "receive"
    },
    {
      "inputs": [],
      "name": "getBalance",
      "outputs": [
        {
          "internalType": "uint256",
          "name": "",
          "type": "uint256"
        }
      ],
      "stateMutability": "view",
      "type": "function"
    },
    {
      "inputs": [
        {
          "internalType": "address payable",
          "name": "_to",
          "type": "address"
        }
      ],
      "name": "transferMoney",
      "outputs": [],
      "stateMutability": "payable",
      "type": "function"
    },
    {
      "inputs": [
        {
          "internalType": "string",
          "name": "_date",
          "type": "string"
        },
        {
          "internalType": "uint64",
          "name": "_time",
          "type": "uint64"
        }
      ],
      "name": "registerCheckIn",
      "outputs": [],
      "stateMutability": "nonpayable",
      "type": "function"
    },
    {
      "inputs": [
        {
          "internalType": "string",
          "name": "_date",
          "type": "string"
        }
      ],
      "name": "getCheckIn",
      "outputs": [
        {
          "internalType": "uint64[]",
          "name": "",
          "type": "uint64[]"
        }
      ],
      "stateMutability": "view",
      "type": "function"
    },
    {
      "inputs": [
        {
          "internalType": "string",
          "name": "_date",
          "type": "string"
        },
        {
          "internalType": "uint64",
          "name": "_unixTime",
          "type": "uint64"
        }
      ],
      "name": "registerCheckOut",
      "outputs": [],
      "stateMutability": "nonpayable",
      "type": "function"
    },
    {
      "inputs": [
        {
          "internalType": "string",
          "name": "_date",
          "type": "string"
        }
      ],
      "name": "getCheckOut",
      "outputs": [
        {
          "internalType": "uint64[]",
          "name": "",
          "type": "uint64[]"
        }
      ],
      "stateMutability": "view",
      "type": "function"
    },
    {
      "inputs": [
        {
          "internalType": "string",
          "name": "_activityType",
          "type": "string"
        },
        {
          "internalType": "address",
          "name": "_activityAddress",
          "type": "address"
        }
      ],
      "name": "newActivity",
      "outputs": [],
      "stateMutability": "nonpayable",
      "type": "function"
    },
    {
      "inputs": [
        {
          "internalType": "string",
          "name": "_activityType",
          "type": "string"
        }
      ],
      "name": "getActivities",
      "outputs": [
        {
          "internalType": "address[]",
          "name": "",
          "type": "address[]"
        }
      ],
      "stateMutability": "view",
      "type": "function"
    },
    {
      "inputs": [],
      "name": "eraseMe",
      "outputs": [],
      "stateMutability": "nonpayable",
      "type": "function"
    }
  ],
  "bytecode": "0x60806040523480156200001157600080fd5b5060405162001a2038038062001a208339818101604052810190620000379190620000e8565b806000806101000a81548173ffffffffffffffffffffffffffffffffffffffff021916908373ffffffffffffffffffffffffffffffffffffffff160217905550506200011a565b600080fd5b600073ffffffffffffffffffffffffffffffffffffffff82169050919050565b6000620000b08262000083565b9050919050565b620000c281620000a3565b8114620000ce57600080fd5b50565b600081519050620000e281620000b7565b92915050565b6000602082840312156200010157620001006200007e565b5b60006200011184828501620000d1565b91505092915050565b6118f6806200012a6000396000f3fe6080604052600436106100e05760003560e01c8063a10d0b091161007f578063bf3c80c511610059578063bf3c80c514610308578063db43775a14610331578063e0ca43011461035a578063f23a6e611461039757610120565b8063a10d0b091461028b578063bc197c81146102b4578063bdeb5fc4146102f157610120565b80631961b32f116100bb5780631961b32f146101ca57806330683f521461020757806386ce9835146102445780638da5cb5b1461026057610120565b8062b91f1a1461012557806301ffc9a71461016257806312065fe01461019f57610120565b36610120577f88a5966d370b9919b20f3e2c13ff65706f196a4e32cc2c12bf57088f885258743334604051610116929190610e2e565b60405180910390a1005b600080fd5b34801561013157600080fd5b5061014c60048036038101906101479190610fb1565b6103d4565b60405161015991906110b8565b60405180910390f35b34801561016e57600080fd5b5061018960048036038101906101849190611132565b61050e565b604051610196919061117a565b60405180910390f35b3480156101ab57600080fd5b506101b4610588565b6040516101c19190611195565b60405180910390f35b3480156101d657600080fd5b506101f160048036038101906101ec9190610fb1565b610590565b6040516101fe9190611282565b60405180910390f35b34801561021357600080fd5b5061022e600480360381019061022991906112d0565b6106c8565b60405161023b919061132c565b60405180910390f35b61025e60048036038101906102599190611385565b61072c565b005b34801561026c57600080fd5b50610275610804565b604051610282919061132c565b60405180910390f35b34801561029757600080fd5b506102b260048036038101906102ad91906113de565b610828565b005b3480156102c057600080fd5b506102db60048036038101906102d691906115cf565b61092c565b6040516102e891906116ad565b60405180910390f35b3480156102fd57600080fd5b50610306610941565b005b34801561031457600080fd5b5061032f600480360381019061032a91906113de565b610a08565b005b34801561033d57600080fd5b50610358600480360381019061035391906116c8565b610b0c565b005b34801561036657600080fd5b50610381600480360381019061037c9190610fb1565b610c1d565b60405161038e9190611282565b60405180910390f35b3480156103a357600080fd5b506103be60048036038101906103b99190611724565b610d55565b6040516103cb91906116ad565b60405180910390f35b60603373ffffffffffffffffffffffffffffffffffffffff1660008054906101000a900473ffffffffffffffffffffffffffffffffffffffff1673ffffffffffffffffffffffffffffffffffffffff1614610464576040517f08c379a000000000000000000000000000000000000000000000000000000000815260040161045b90611818565b60405180910390fd5b60038260405161047491906118a9565b908152602001604051809103902080548060200260200160405190810160405280929190818152602001828054801561050257602002820191906000526020600020905b8160009054906101000a900473ffffffffffffffffffffffffffffffffffffffff1673ffffffffffffffffffffffffffffffffffffffff16815260200190600101908083116104b8575b50505050509050919050565b60007f4e2312e0000000000000000000000000000000000000000000000000000000007bffffffffffffffffffffffffffffffffffffffffffffffffffffffff1916827bffffffffffffffffffffffffffffffffffffffffffffffffffffffff19161480610581575061058082610d6a565b5b9050919050565b600047905090565b60603373ffffffffffffffffffffffffffffffffffffffff1660008054906101000a900473ffffffffffffffffffffffffffffffffffffffff1673ffffffffffffffffffffffffffffffffffffffff1614610620576040517f08c379a000000000000000000000000000000000000000000000000000000000815260040161061790611818565b60405180910390fd5b60018260405161063091906118a9565b90815260200160405180910390208054806020026020016040519081016040528092919081815260200182805480156106bc57602002820191906000526020600020906000905b82829054906101000a900467ffffffffffffffff1667ffffffffffffffff16815260200190600801906020826007010492830192600103820291508084116106775790505b50505050509050919050565b60038280516020810182018051848252602083016020850120818352809550505050505081815481106106fa57600080fd5b906000526020600020016000915091509054906101000a900473ffffffffffffffffffffffffffffffffffffffff1681565b3373ffffffffffffffffffffffffffffffffffffffff1660008054906101000a900473ffffffffffffffffffffffffffffffffffffffff1673ffffffffffffffffffffffffffffffffffffffff16146107ba576040517f08c379a00000000000000000000000000000000000000000000000000000000081526004016107b190611818565b60405180910390fd5b8073ffffffffffffffffffffffffffffffffffffffff166108fc349081150290604051600060405180830381858888f19350505050158015610800573d6000803e3d6000fd5b5050565b60008054906101000a900473ffffffffffffffffffffffffffffffffffffffff1681565b3373ffffffffffffffffffffffffffffffffffffffff1660008054906101000a900473ffffffffffffffffffffffffffffffffffffffff1673ffffffffffffffffffffffffffffffffffffffff16146108b6576040517f08c379a00000000000000000000000000000000000000000000000000000000081526004016108ad90611818565b60405180910390fd5b6002826040516108c691906118a9565b90815260200160405180910390208190806001815401808255809150506001900390600052602060002090600491828204019190066008029091909190916101000a81548167ffffffffffffffff021916908367ffffffffffffffff1602179055505050565b600063bc197c8160e01b905095945050505050565b3373ffffffffffffffffffffffffffffffffffffffff1660008054906101000a900473ffffffffffffffffffffffffffffffffffffffff1673ffffffffffffffffffffffffffffffffffffffff16146109cf576040517f08c379a00000000000000000000000000000000000000000000000000000000081526004016109c690611818565b60405180910390fd5b60008054906101000a900473ffffffffffffffffffffffffffffffffffffffff1673ffffffffffffffffffffffffffffffffffffffff16ff5b3373ffffffffffffffffffffffffffffffffffffffff1660008054906101000a900473ffffffffffffffffffffffffffffffffffffffff1673ffffffffffffffffffffffffffffffffffffffff1614610a96576040517f08c379a0000000000000000000000000000000000000000000000000000000008152600401610a8d90611818565b60405180910390fd5b600182604051610aa691906118a9565b90815260200160405180910390208190806001815401808255809150506001900390600052602060002090600491828204019190066008029091909190916101000a81548167ffffffffffffffff021916908367ffffffffffffffff1602179055505050565b3373ffffffffffffffffffffffffffffffffffffffff1660008054906101000a900473ffffffffffffffffffffffffffffffffffffffff1673ffffffffffffffffffffffffffffffffffffffff1614610b9a576040517f08c379a0000000000000000000000000000000000000000000000000000000008152600401610b9190611818565b60405180910390fd5b600382604051610baa91906118a9565b9081526020016040518091039020819080600181540180825580915050600190039060005260206000200160009091909190916101000a81548173ffffffffffffffffffffffffffffffffffffffff021916908373ffffffffffffffffffffffffffffffffffffffff1602179055505050565b60603373ffffffffffffffffffffffffffffffffffffffff1660008054906101000a900473ffffffffffffffffffffffffffffffffffffffff1673ffffffffffffffffffffffffffffffffffffffff1614610cad576040517f08c379a0000000000000000000000000000000000000000000000000000000008152600401610ca490611818565b60405180910390fd5b600282604051610cbd91906118a9565b9081526020016040518091039020805480602002602001604051908101604052809291908181526020018280548015610d4957602002820191906000526020600020906000905b82829054906101000a900467ffffffffffffffff1667ffffffffffffffff1681526020019060080190602082600701049283019260010382029150808411610d045790505b50505050509050919050565b600063f23a6e6160e01b905095945050505050565b60007f01ffc9a7000000000000000000000000000000000000000000000000000000007bffffffffffffffffffffffffffffffffffffffffffffffffffffffff1916827bffffffffffffffffffffffffffffffffffffffffffffffffffffffff1916149050919050565b600073ffffffffffffffffffffffffffffffffffffffff82169050919050565b6000610dff82610dd4565b9050919050565b610e0f81610df4565b82525050565b6000819050919050565b610e2881610e15565b82525050565b6000604082019050610e436000830185610e06565b610e506020830184610e1f565b9392505050565b6000604051905090565b600080fd5b600080fd5b600080fd5b600080fd5b6000601f19601f8301169050919050565b7f4e487b7100000000000000000000000000000000000000000000000000000000600052604160045260246000fd5b610ebe82610e75565b810181811067ffffffffffffffff82111715610edd57610edc610e86565b5b80604052505050565b6000610ef0610e57565b9050610efc8282610eb5565b919050565b600067ffffffffffffffff821115610f1c57610f1b610e86565b5b610f2582610e75565b9050602081019050919050565b82818337600083830152505050565b6000610f54610f4f84610f01565b610ee6565b905082815260208101848484011115610f7057610f6f610e70565b5b610f7b848285610f32565b509392505050565b600082601f830112610f9857610f97610e6b565b5b8135610fa8848260208601610f41565b91505092915050565b600060208284031215610fc757610fc6610e61565b5b600082013567ffffffffffffffff811115610fe557610fe4610e66565b5b610ff184828501610f83565b91505092915050565b600081519050919050565b600082825260208201905092915050565b6000819050602082019050919050565b61102f81610df4565b82525050565b60006110418383611026565b60208301905092915050565b6000602082019050919050565b600061106582610ffa565b61106f8185611005565b935061107a83611016565b8060005b838110156110ab5781516110928882611035565b975061109d8361104d565b92505060018101905061107e565b5085935050505092915050565b600060208201905081810360008301526110d2818461105a565b905092915050565b60007fffffffff0000000000000000000000000000000000000000000000000000000082169050919050565b61110f816110da565b811461111a57600080fd5b50565b60008135905061112c81611106565b92915050565b60006020828403121561114857611147610e61565b5b60006111568482850161111d565b91505092915050565b60008115159050919050565b6111748161115f565b82525050565b600060208201905061118f600083018461116b565b92915050565b60006020820190506111aa6000830184610e1f565b92915050565b600081519050919050565b600082825260208201905092915050565b6000819050602082019050919050565b600067ffffffffffffffff82169050919050565b6111f9816111dc565b82525050565b600061120b83836111f0565b60208301905092915050565b6000602082019050919050565b600061122f826111b0565b61123981856111bb565b9350611244836111cc565b8060005b8381101561127557815161125c88826111ff565b975061126783611217565b925050600181019050611248565b5085935050505092915050565b6000602082019050818103600083015261129c8184611224565b905092915050565b6112ad81610e15565b81146112b857600080fd5b50565b6000813590506112ca816112a4565b92915050565b600080604083850312156112e7576112e6610e61565b5b600083013567ffffffffffffffff81111561130557611304610e66565b5b61131185828601610f83565b9250506020611322858286016112bb565b9150509250929050565b60006020820190506113416000830184610e06565b92915050565b600061135282610dd4565b9050919050565b61136281611347565b811461136d57600080fd5b50565b60008135905061137f81611359565b92915050565b60006020828403121561139b5761139a610e61565b5b60006113a984828501611370565b91505092915050565b6113bb816111dc565b81146113c657600080fd5b50565b6000813590506113d8816113b2565b92915050565b600080604083850312156113f5576113f4610e61565b5b600083013567ffffffffffffffff81111561141357611412610e66565b5b61141f85828601610f83565b9250506020611430858286016113c9565b9150509250929050565b61144381610df4565b811461144e57600080fd5b50565b6000813590506114608161143a565b92915050565b600067ffffffffffffffff82111561148157611480610e86565b5b602082029050602081019050919050565b600080fd5b60006114aa6114a584611466565b610ee6565b905080838252602082019050602084028301858111156114cd576114cc611492565b5b835b818110156114f657806114e288826112bb565b8452602084019350506020810190506114cf565b5050509392505050565b600082601f83011261151557611514610e6b565b5b8135611525848260208601611497565b91505092915050565b600067ffffffffffffffff82111561154957611548610e86565b5b61155282610e75565b9050602081019050919050565b600061157261156d8461152e565b610ee6565b90508281526020810184848401111561158e5761158d610e70565b5b611599848285610f32565b509392505050565b600082601f8301126115b6576115b5610e6b565b5b81356115c684826020860161155f565b91505092915050565b600080600080600060a086880312156115eb576115ea610e61565b5b60006115f988828901611451565b955050602061160a88828901611451565b945050604086013567ffffffffffffffff81111561162b5761162a610e66565b5b61163788828901611500565b935050606086013567ffffffffffffffff81111561165857611657610e66565b5b61166488828901611500565b925050608086013567ffffffffffffffff81111561168557611684610e66565b5b611691888289016115a1565b9150509295509295909350565b6116a7816110da565b82525050565b60006020820190506116c2600083018461169e565b92915050565b600080604083850312156116df576116de610e61565b5b600083013567ffffffffffffffff8111156116fd576116fc610e66565b5b61170985828601610f83565b925050602061171a85828601611451565b9150509250929050565b600080600080600060a086880312156117405761173f610e61565b5b600061174e88828901611451565b955050602061175f88828901611451565b9450506040611770888289016112bb565b9350506060611781888289016112bb565b925050608086013567ffffffffffffffff8111156117a2576117a1610e66565b5b6117ae888289016115a1565b9150509295509295909350565b600082825260208201905092915050565b7f4e6f74206f776e65720000000000000000000000000000000000000000000000600082015250565b60006118026009836117bb565b915061180d826117cc565b602082019050919050565b60006020820190508181036000830152611831816117f5565b9050919050565b600081519050919050565b600081905092915050565b60005b8381101561186c578082015181840152602081019050611851565b60008484015250505050565b600061188382611838565b61188d8185611843565b935061189d81856020860161184e565b80840191505092915050565b60006118b58284611878565b91508190509291505056fea26469706673582212207c36f1ec65c8a3c91d466874c7d6e6452aa6604ad8130d399e9e9a914bb89c3d64736f6c63430008110033",
  "immutableReferences": {},
  "source": "// SPDX-License-Identifier: MIT\r\npragma solidity ^0.8.15;\r\n\r\nimport \"@openzeppelin/contracts/token/ERC1155/utils/ERC1155Holder.sol\";\r\n\r\n/*\r\nPerson contract: manage person profile and track activities\r\n    . state variables\r\n        - owner: EOA == Inteli mngmt\r\n        - checkIn: log check-ins in a given day\r\n        - checkOut: log check-outs in a given day\r\n        - activities: log activities done by person\r\n    . methods: create and retrieve events and register in state variable\r\n*/\r\ncontract Person is ERC1155Holder {\r\n    address public owner;\r\n\r\n    event Received(address, uint256);\r\n\r\n    modifier isOwner() {\r\n        require(owner == msg.sender, \"Not owner\");\r\n        _;\r\n    }\r\n\r\n    mapping(string => uint64[]) private campusCheckIn;\r\n    mapping(string => uint64[]) private campusCheckOut;\r\n    mapping(string => address[]) public activities;\r\n\r\n    constructor(address _owner) {\r\n        owner = _owner;\r\n    }\r\n\r\n    function getBalance() public view returns (uint256) {\r\n        return address(this).balance;\r\n    }\r\n\r\n    function transferMoney(address payable _to)\r\n        external\r\n        isOwner\r\n        payable\r\n    {\r\n        _to.transfer(msg.value);\r\n    }\r\n\r\n    receive() external payable {\r\n        emit Received(msg.sender, msg.value);\r\n    }\r\n\r\n    function registerCheckIn(string memory _date, uint64 _time) public isOwner {\r\n        campusCheckIn[_date].push(_time);\r\n    }\r\n\r\n    function getCheckIn(string memory _date)\r\n        public\r\n        view\r\n        isOwner\r\n        returns (uint64[] memory)\r\n    {\r\n        return campusCheckIn[_date];\r\n    }\r\n\r\n    function registerCheckOut(string memory _date, uint64 _unixTime)\r\n        public\r\n        isOwner\r\n    {\r\n        campusCheckOut[_date].push(_unixTime);\r\n    }\r\n\r\n    function getCheckOut(string memory _date)\r\n        public\r\n        view\r\n        isOwner\r\n        returns (uint64[] memory)\r\n    {\r\n        return campusCheckOut[_date];\r\n    }\r\n\r\n    function newActivity(string memory _activityType, address _activityAddress)\r\n        public\r\n        isOwner\r\n    {\r\n        activities[_activityType].push(_activityAddress);\r\n    }\r\n\r\n    function getActivities(string memory _activityType)\r\n        public\r\n        view\r\n        isOwner\r\n        returns (address[] memory)\r\n    {\r\n        return activities[_activityType];\r\n    }\r\n\r\n    function eraseMe() public isOwner {\r\n        selfdestruct(payable(owner));\r\n    }\r\n}\r\n",
  "sourcePath": "C:\\Users\\reish\\Documents\\GitHub\\projeto_inteli\\contracts\\Person.sol",
  "compiler": {
    "name": "solc",
    "version": "0.8.17+commit.8df45f5f.Emscripten.clang"
  },
  "schemaVersion": "3.4.10",
  "updatedAt": "2022-11-23T13:52:53.384Z",
  "devdoc": {
    "kind": "dev",
    "methods": {
      "supportsInterface(bytes4)": {
        "details": "See {IERC165-supportsInterface}."
      }
    },
    "version": 1
  },
  "userdoc": {
    "kind": "user",
    "methods": {},
    "version": 1
  }
}