{
  "contractName": "Person",
  "abi": [
    {
      "inputs": [
        {
          "internalType": "address",
          "name": "_owner",
          "type": "address"
        }
      ],
      "stateMutability": "nonpayable",
      "type": "constructor"
    },
    {
      "anonymous": false,
      "inputs": [
        {
          "indexed": false,
          "internalType": "address",
          "name": "",
          "type": "address"
        },
        {
          "indexed": false,
          "internalType": "uint256",
          "name": "",
          "type": "uint256"
        }
      ],
      "name": "Received",
      "type": "event"
    },
    {
      "inputs": [
        {
          "internalType": "string",
          "name": "",
          "type": "string"
        },
        {
          "internalType": "uint256",
          "name": "",
          "type": "uint256"
        }
      ],
      "name": "activities",
      "outputs": [
        {
          "internalType": "address",
          "name": "",
          "type": "address"
        }
      ],
      "stateMutability": "view",
      "type": "function"
    },
    {
      "inputs": [
        {
          "internalType": "address",
          "name": "",
          "type": "address"
        },
        {
          "internalType": "address",
          "name": "",
          "type": "address"
        },
        {
          "internalType": "uint256[]",
          "name": "",
          "type": "uint256[]"
        },
        {
          "internalType": "uint256[]",
          "name": "",
          "type": "uint256[]"
        },
        {
          "internalType": "bytes",
          "name": "",
          "type": "bytes"
        }
      ],
      "name": "onERC1155BatchReceived",
      "outputs": [
        {
          "internalType": "bytes4",
          "name": "",
          "type": "bytes4"
        }
      ],
      "stateMutability": "nonpayable",
      "type": "function"
    },
    {
      "inputs": [
        {
          "internalType": "address",
          "name": "",
          "type": "address"
        },
        {
          "internalType": "address",
          "name": "",
          "type": "address"
        },
        {
          "internalType": "uint256",
          "name": "",
          "type": "uint256"
        },
        {
          "internalType": "uint256",
          "name": "",
          "type": "uint256"
        },
        {
          "internalType": "bytes",
          "name": "",
          "type": "bytes"
        }
      ],
      "name": "onERC1155Received",
      "outputs": [
        {
          "internalType": "bytes4",
          "name": "",
          "type": "bytes4"
        }
      ],
      "stateMutability": "nonpayable",
      "type": "function"
    },
    {
      "inputs": [],
      "name": "owner",
      "outputs": [
        {
          "internalType": "address",
          "name": "",
          "type": "address"
        }
      ],
      "stateMutability": "view",
      "type": "function"
    },
    {
      "inputs": [
        {
          "internalType": "bytes4",
          "name": "interfaceId",
          "type": "bytes4"
        }
      ],
      "name": "supportsInterface",
      "outputs": [
        {
          "internalType": "bool",
          "name": "",
          "type": "bool"
        }
      ],
      "stateMutability": "view",
      "type": "function"
    },
    {
      "inputs": [],
      "name": "getBalance",
      "outputs": [
        {
          "internalType": "uint256",
          "name": "",
          "type": "uint256"
        }
      ],
      "stateMutability": "view",
      "type": "function"
    },
    {
      "inputs": [
        {
          "internalType": "address payable",
          "name": "_to",
          "type": "address"
        },
        {
          "internalType": "uint256",
          "name": "_value",
          "type": "uint256"
        }
      ],
      "name": "transferMoney",
      "outputs": [],
      "stateMutability": "payable",
      "type": "function"
    },
    {
      "inputs": [
        {
          "internalType": "string",
          "name": "_date",
          "type": "string"
        },
        {
          "internalType": "uint64",
          "name": "_time",
          "type": "uint64"
        }
      ],
      "name": "registerCheckIn",
      "outputs": [],
      "stateMutability": "nonpayable",
      "type": "function"
    },
    {
      "inputs": [
        {
          "internalType": "string",
          "name": "_date",
          "type": "string"
        }
      ],
      "name": "getCheckIn",
      "outputs": [
        {
          "internalType": "uint64[]",
          "name": "",
          "type": "uint64[]"
        }
      ],
      "stateMutability": "view",
      "type": "function"
    },
    {
      "inputs": [
        {
          "internalType": "string",
          "name": "_date",
          "type": "string"
        },
        {
          "internalType": "uint64",
          "name": "_unixTime",
          "type": "uint64"
        }
      ],
      "name": "registerCheckOut",
      "outputs": [],
      "stateMutability": "nonpayable",
      "type": "function"
    },
    {
      "inputs": [
        {
          "internalType": "string",
          "name": "_date",
          "type": "string"
        }
      ],
      "name": "getCheckOut",
      "outputs": [
        {
          "internalType": "uint64[]",
          "name": "",
          "type": "uint64[]"
        }
      ],
      "stateMutability": "view",
      "type": "function"
    },
    {
      "inputs": [
        {
          "internalType": "string",
          "name": "_activityType",
          "type": "string"
        },
        {
          "internalType": "address",
          "name": "_activityAddress",
          "type": "address"
        }
      ],
      "name": "newActivity",
      "outputs": [],
      "stateMutability": "nonpayable",
      "type": "function"
    },
    {
      "inputs": [
        {
          "internalType": "string",
          "name": "_activityType",
          "type": "string"
        }
      ],
      "name": "getActivities",
      "outputs": [
        {
          "internalType": "address[]",
          "name": "",
          "type": "address[]"
        }
      ],
      "stateMutability": "view",
      "type": "function"
    },
    {
      "inputs": [],
      "name": "eraseMe",
      "outputs": [],
      "stateMutability": "nonpayable",
      "type": "function"
    }
  ],
  "bytecode": "0x60806040523480156200001157600080fd5b50604051620019c7380380620019c78339818101604052810190620000379190620000e8565b806000806101000a81548173ffffffffffffffffffffffffffffffffffffffff021916908373ffffffffffffffffffffffffffffffffffffffff160217905550506200011a565b600080fd5b600073ffffffffffffffffffffffffffffffffffffffff82169050919050565b6000620000b08262000083565b9050919050565b620000c281620000a3565b8114620000ce57600080fd5b50565b600081519050620000e281620000b7565b92915050565b6000602082840312156200010157620001006200007e565b5b60006200011184828501620000d1565b91505092915050565b61189d806200012a6000396000f3fe6080604052600436106100dc5760003560e01c8063bc197c811161007f578063db43775a11610059578063db43775a146102d1578063e0ca4301146102fa578063f23a6e6114610337578063fee666ad14610374576100dc565b8063bc197c8114610254578063bdeb5fc414610291578063bf3c80c5146102a8576100dc565b80631961b32f116100bb5780631961b32f1461018657806330683f52146101c35780638da5cb5b14610200578063a10d0b091461022b576100dc565b8062b91f1a146100e157806301ffc9a71461011e57806312065fe01461015b575b600080fd5b3480156100ed57600080fd5b5061010860048036038101906101039190610eeb565b610390565b6040516101159190611024565b60405180910390f35b34801561012a57600080fd5b506101456004803603810190610140919061109e565b6104ca565b60405161015291906110e6565b60405180910390f35b34801561016757600080fd5b50610170610544565b60405161017d919061111a565b60405180910390f35b34801561019257600080fd5b506101ad60048036038101906101a89190610eeb565b61054c565b6040516101ba9190611207565b60405180910390f35b3480156101cf57600080fd5b506101ea60048036038101906101e59190611255565b610684565b6040516101f791906112c0565b60405180910390f35b34801561020c57600080fd5b506102156106e8565b60405161022291906112c0565b60405180910390f35b34801561023757600080fd5b50610252600480360381019061024d9190611307565b61070c565b005b34801561026057600080fd5b5061027b600480360381019061027691906114f8565b610810565b60405161028891906115d6565b60405180910390f35b34801561029d57600080fd5b506102a6610825565b005b3480156102b457600080fd5b506102cf60048036038101906102ca9190611307565b6108ec565b005b3480156102dd57600080fd5b506102f860048036038101906102f391906115f1565b6109f0565b005b34801561030657600080fd5b50610321600480360381019061031c9190610eeb565b610b01565b60405161032e9190611207565b60405180910390f35b34801561034357600080fd5b5061035e6004803603810190610359919061164d565b610c39565b60405161036b91906115d6565b60405180910390f35b61038e60048036038101906103899190611722565b610c4e565b005b60603373ffffffffffffffffffffffffffffffffffffffff1660008054906101000a900473ffffffffffffffffffffffffffffffffffffffff1673ffffffffffffffffffffffffffffffffffffffff1614610420576040517f08c379a0000000000000000000000000000000000000000000000000000000008152600401610417906117bf565b60405180910390fd5b6003826040516104309190611850565b90815260200160405180910390208054806020026020016040519081016040528092919081815260200182805480156104be57602002820191906000526020600020905b8160009054906101000a900473ffffffffffffffffffffffffffffffffffffffff1673ffffffffffffffffffffffffffffffffffffffff1681526020019060010190808311610474575b50505050509050919050565b60007f4e2312e0000000000000000000000000000000000000000000000000000000007bffffffffffffffffffffffffffffffffffffffffffffffffffffffff1916827bffffffffffffffffffffffffffffffffffffffffffffffffffffffff1916148061053d575061053c82610d27565b5b9050919050565b600047905090565b60603373ffffffffffffffffffffffffffffffffffffffff1660008054906101000a900473ffffffffffffffffffffffffffffffffffffffff1673ffffffffffffffffffffffffffffffffffffffff16146105dc576040517f08c379a00000000000000000000000000000000000000000000000000000000081526004016105d3906117bf565b60405180910390fd5b6001826040516105ec9190611850565b908152602001604051809103902080548060200260200160405190810160405280929190818152602001828054801561067857602002820191906000526020600020906000905b82829054906101000a900467ffffffffffffffff1667ffffffffffffffff16815260200190600801906020826007010492830192600103820291508084116106335790505b50505050509050919050565b60038280516020810182018051848252602083016020850120818352809550505050505081815481106106b657600080fd5b906000526020600020016000915091509054906101000a900473ffffffffffffffffffffffffffffffffffffffff1681565b60008054906101000a900473ffffffffffffffffffffffffffffffffffffffff1681565b3373ffffffffffffffffffffffffffffffffffffffff1660008054906101000a900473ffffffffffffffffffffffffffffffffffffffff1673ffffffffffffffffffffffffffffffffffffffff161461079a576040517f08c379a0000000000000000000000000000000000000000000000000000000008152600401610791906117bf565b60405180910390fd5b6002826040516107aa9190611850565b90815260200160405180910390208190806001815401808255809150506001900390600052602060002090600491828204019190066008029091909190916101000a81548167ffffffffffffffff021916908367ffffffffffffffff1602179055505050565b600063bc197c8160e01b905095945050505050565b3373ffffffffffffffffffffffffffffffffffffffff1660008054906101000a900473ffffffffffffffffffffffffffffffffffffffff1673ffffffffffffffffffffffffffffffffffffffff16146108b3576040517f08c379a00000000000000000000000000000000000000000000000000000000081526004016108aa906117bf565b60405180910390fd5b60008054906101000a900473ffffffffffffffffffffffffffffffffffffffff1673ffffffffffffffffffffffffffffffffffffffff16ff5b3373ffffffffffffffffffffffffffffffffffffffff1660008054906101000a900473ffffffffffffffffffffffffffffffffffffffff1673ffffffffffffffffffffffffffffffffffffffff161461097a576040517f08c379a0000000000000000000000000000000000000000000000000000000008152600401610971906117bf565b60405180910390fd5b60018260405161098a9190611850565b90815260200160405180910390208190806001815401808255809150506001900390600052602060002090600491828204019190066008029091909190916101000a81548167ffffffffffffffff021916908367ffffffffffffffff1602179055505050565b3373ffffffffffffffffffffffffffffffffffffffff1660008054906101000a900473ffffffffffffffffffffffffffffffffffffffff1673ffffffffffffffffffffffffffffffffffffffff1614610a7e576040517f08c379a0000000000000000000000000000000000000000000000000000000008152600401610a75906117bf565b60405180910390fd5b600382604051610a8e9190611850565b9081526020016040518091039020819080600181540180825580915050600190039060005260206000200160009091909190916101000a81548173ffffffffffffffffffffffffffffffffffffffff021916908373ffffffffffffffffffffffffffffffffffffffff1602179055505050565b60603373ffffffffffffffffffffffffffffffffffffffff1660008054906101000a900473ffffffffffffffffffffffffffffffffffffffff1673ffffffffffffffffffffffffffffffffffffffff1614610b91576040517f08c379a0000000000000000000000000000000000000000000000000000000008152600401610b88906117bf565b60405180910390fd5b600282604051610ba19190611850565b9081526020016040518091039020805480602002602001604051908101604052809291908181526020018280548015610c2d57602002820191906000526020600020906000905b82829054906101000a900467ffffffffffffffff1667ffffffffffffffff1681526020019060080190602082600701049283019260010382029150808411610be85790505b50505050509050919050565b600063f23a6e6160e01b905095945050505050565b3373ffffffffffffffffffffffffffffffffffffffff1660008054906101000a900473ffffffffffffffffffffffffffffffffffffffff1673ffffffffffffffffffffffffffffffffffffffff1614610cdc576040517f08c379a0000000000000000000000000000000000000000000000000000000008152600401610cd3906117bf565b60405180910390fd5b8173ffffffffffffffffffffffffffffffffffffffff166108fc829081150290604051600060405180830381858888f19350505050158015610d22573d6000803e3d6000fd5b505050565b60007f01ffc9a7000000000000000000000000000000000000000000000000000000007bffffffffffffffffffffffffffffffffffffffffffffffffffffffff1916827bffffffffffffffffffffffffffffffffffffffffffffffffffffffff1916149050919050565b6000604051905090565b600080fd5b600080fd5b600080fd5b600080fd5b6000601f19601f8301169050919050565b7f4e487b7100000000000000000000000000000000000000000000000000000000600052604160045260246000fd5b610df882610daf565b810181811067ffffffffffffffff82111715610e1757610e16610dc0565b5b80604052505050565b6000610e2a610d91565b9050610e368282610def565b919050565b600067ffffffffffffffff821115610e5657610e55610dc0565b5b610e5f82610daf565b9050602081019050919050565b82818337600083830152505050565b6000610e8e610e8984610e3b565b610e20565b905082815260208101848484011115610eaa57610ea9610daa565b5b610eb5848285610e6c565b509392505050565b600082601f830112610ed257610ed1610da5565b5b8135610ee2848260208601610e7b565b91505092915050565b600060208284031215610f0157610f00610d9b565b5b600082013567ffffffffffffffff811115610f1f57610f1e610da0565b5b610f2b84828501610ebd565b91505092915050565b600081519050919050565b600082825260208201905092915050565b6000819050602082019050919050565b600073ffffffffffffffffffffffffffffffffffffffff82169050919050565b6000610f8b82610f60565b9050919050565b610f9b81610f80565b82525050565b6000610fad8383610f92565b60208301905092915050565b6000602082019050919050565b6000610fd182610f34565b610fdb8185610f3f565b9350610fe683610f50565b8060005b83811015611017578151610ffe8882610fa1565b975061100983610fb9565b925050600181019050610fea565b5085935050505092915050565b6000602082019050818103600083015261103e8184610fc6565b905092915050565b60007fffffffff0000000000000000000000000000000000000000000000000000000082169050919050565b61107b81611046565b811461108657600080fd5b50565b60008135905061109881611072565b92915050565b6000602082840312156110b4576110b3610d9b565b5b60006110c284828501611089565b91505092915050565b60008115159050919050565b6110e0816110cb565b82525050565b60006020820190506110fb60008301846110d7565b92915050565b6000819050919050565b61111481611101565b82525050565b600060208201905061112f600083018461110b565b92915050565b600081519050919050565b600082825260208201905092915050565b6000819050602082019050919050565b600067ffffffffffffffff82169050919050565b61117e81611161565b82525050565b60006111908383611175565b60208301905092915050565b6000602082019050919050565b60006111b482611135565b6111be8185611140565b93506111c983611151565b8060005b838110156111fa5781516111e18882611184565b97506111ec8361119c565b9250506001810190506111cd565b5085935050505092915050565b6000602082019050818103600083015261122181846111a9565b905092915050565b61123281611101565b811461123d57600080fd5b50565b60008135905061124f81611229565b92915050565b6000806040838503121561126c5761126b610d9b565b5b600083013567ffffffffffffffff81111561128a57611289610da0565b5b61129685828601610ebd565b92505060206112a785828601611240565b9150509250929050565b6112ba81610f80565b82525050565b60006020820190506112d560008301846112b1565b92915050565b6112e481611161565b81146112ef57600080fd5b50565b600081359050611301816112db565b92915050565b6000806040838503121561131e5761131d610d9b565b5b600083013567ffffffffffffffff81111561133c5761133b610da0565b5b61134885828601610ebd565b9250506020611359858286016112f2565b9150509250929050565b61136c81610f80565b811461137757600080fd5b50565b60008135905061138981611363565b92915050565b600067ffffffffffffffff8211156113aa576113a9610dc0565b5b602082029050602081019050919050565b600080fd5b60006113d36113ce8461138f565b610e20565b905080838252602082019050602084028301858111156113f6576113f56113bb565b5b835b8181101561141f578061140b8882611240565b8452602084019350506020810190506113f8565b5050509392505050565b600082601f83011261143e5761143d610da5565b5b813561144e8482602086016113c0565b91505092915050565b600067ffffffffffffffff82111561147257611471610dc0565b5b61147b82610daf565b9050602081019050919050565b600061149b61149684611457565b610e20565b9050828152602081018484840111156114b7576114b6610daa565b5b6114c2848285610e6c565b509392505050565b600082601f8301126114df576114de610da5565b5b81356114ef848260208601611488565b91505092915050565b600080600080600060a0868803121561151457611513610d9b565b5b60006115228882890161137a565b95505060206115338882890161137a565b945050604086013567ffffffffffffffff81111561155457611553610da0565b5b61156088828901611429565b935050606086013567ffffffffffffffff81111561158157611580610da0565b5b61158d88828901611429565b925050608086013567ffffffffffffffff8111156115ae576115ad610da0565b5b6115ba888289016114ca565b9150509295509295909350565b6115d081611046565b82525050565b60006020820190506115eb60008301846115c7565b92915050565b6000806040838503121561160857611607610d9b565b5b600083013567ffffffffffffffff81111561162657611625610da0565b5b61163285828601610ebd565b92505060206116438582860161137a565b9150509250929050565b600080600080600060a0868803121561166957611668610d9b565b5b60006116778882890161137a565b95505060206116888882890161137a565b945050604061169988828901611240565b93505060606116aa88828901611240565b925050608086013567ffffffffffffffff8111156116cb576116ca610da0565b5b6116d7888289016114ca565b9150509295509295909350565b60006116ef82610f60565b9050919050565b6116ff816116e4565b811461170a57600080fd5b50565b60008135905061171c816116f6565b92915050565b6000806040838503121561173957611738610d9b565b5b60006117478582860161170d565b925050602061175885828601611240565b9150509250929050565b600082825260208201905092915050565b7f4e6f74206f776e65720000000000000000000000000000000000000000000000600082015250565b60006117a9600983611762565b91506117b482611773565b602082019050919050565b600060208201905081810360008301526117d88161179c565b9050919050565b600081519050919050565b600081905092915050565b60005b838110156118135780820151818401526020810190506117f8565b60008484015250505050565b600061182a826117df565b61183481856117ea565b93506118448185602086016117f5565b80840191505092915050565b600061185c828461181f565b91508190509291505056fea2646970667358221220f25bb684af3763155bdb1832a75a0469fd691e395762ef3af63f421ed0af1b8d64736f6c63430008110033",
  "immutableReferences": {},
  "source": "// SPDX-License-Identifier: MIT\r\npragma solidity ^0.8.15;\r\n\r\nimport \"@openzeppelin/contracts/token/ERC1155/utils/ERC1155Holder.sol\";\r\n\r\n/*\r\nPerson contract: manage person profile and track activities\r\n    . state variables\r\n        - owner: EOA == Inteli mngmt\r\n        - checkIn: log check-ins in a given day\r\n        - checkOut: log check-outs in a given day\r\n        - activities: log activities done by person\r\n    . methods: create and retrieve events and register in state variable\r\n*/\r\ncontract Person is ERC1155Holder {\r\n    address public owner;\r\n\r\n    event Received(address, uint256);\r\n\r\n    modifier isOwner() {\r\n        require(owner == msg.sender, \"Not owner\");\r\n        _;\r\n    }\r\n\r\n    mapping(string => uint64[]) private campusCheckIn;\r\n    mapping(string => uint64[]) private campusCheckOut;\r\n    mapping(string => address[]) public activities;\r\n\r\n    constructor(address _owner) {\r\n        owner = _owner;\r\n    }\r\n\r\n    function getBalance() public view returns (uint256) {\r\n        return address(this).balance;\r\n    }\r\n\r\n    function transferMoney(address payable _to, uint256 _value)\r\n        external\r\n        isOwner\r\n        payable\r\n    {\r\n        _to.transfer(_value);\r\n    }\r\n\r\n    // receive() external payable {\r\n    //     emit Received(msg.sender, msg.value);\r\n    // }\r\n\r\n    function registerCheckIn(string memory _date, uint64 _time) public isOwner {\r\n        campusCheckIn[_date].push(_time);\r\n    }\r\n\r\n    function getCheckIn(string memory _date)\r\n        public\r\n        view\r\n        isOwner\r\n        returns (uint64[] memory)\r\n    {\r\n        return campusCheckIn[_date];\r\n    }\r\n\r\n    function registerCheckOut(string memory _date, uint64 _unixTime)\r\n        public\r\n        isOwner\r\n    {\r\n        campusCheckOut[_date].push(_unixTime);\r\n    }\r\n\r\n    function getCheckOut(string memory _date)\r\n        public\r\n        view\r\n        isOwner\r\n        returns (uint64[] memory)\r\n    {\r\n        return campusCheckOut[_date];\r\n    }\r\n\r\n    function newActivity(string memory _activityType, address _activityAddress)\r\n        public\r\n        isOwner\r\n    {\r\n        activities[_activityType].push(_activityAddress);\r\n    }\r\n\r\n    function getActivities(string memory _activityType)\r\n        public\r\n        view\r\n        isOwner\r\n        returns (address[] memory)\r\n    {\r\n        return activities[_activityType];\r\n    }\r\n\r\n    function eraseMe() public isOwner {\r\n        selfdestruct(payable(owner));\r\n    }\r\n}\r\n",
  "sourcePath": "C:\\Users\\reish\\Documents\\GitHub\\projeto_inteli\\contracts\\Person.sol",
  "compiler": {
    "name": "solc",
    "version": "0.8.17+commit.8df45f5f.Emscripten.clang"
  },
  "schemaVersion": "3.4.10",
  "updatedAt": "2022-09-24T22:18:48.864Z",
  "devdoc": {
    "kind": "dev",
    "methods": {
      "supportsInterface(bytes4)": {
        "details": "See {IERC165-supportsInterface}."
      }
    },
    "version": 1
  },
  "userdoc": {
    "kind": "user",
    "methods": {},
    "version": 1
  }
}