{
  "contractName": "Person",
  "abi": [
    {
      "inputs": [
        {
          "internalType": "address",
          "name": "_owner",
          "type": "address"
        }
      ],
      "stateMutability": "nonpayable",
      "type": "constructor"
    },
    {
      "anonymous": false,
      "inputs": [
        {
          "indexed": false,
          "internalType": "address",
          "name": "",
          "type": "address"
        },
        {
          "indexed": false,
          "internalType": "uint256",
          "name": "",
          "type": "uint256"
        }
      ],
      "name": "Received",
      "type": "event"
    },
    {
      "inputs": [
        {
          "internalType": "string",
          "name": "",
          "type": "string"
        },
        {
          "internalType": "uint256",
          "name": "",
          "type": "uint256"
        }
      ],
      "name": "activities",
      "outputs": [
        {
          "internalType": "address",
          "name": "",
          "type": "address"
        }
      ],
      "stateMutability": "view",
      "type": "function"
    },
    {
      "inputs": [
        {
          "internalType": "address",
          "name": "",
          "type": "address"
        },
        {
          "internalType": "address",
          "name": "",
          "type": "address"
        },
        {
          "internalType": "uint256[]",
          "name": "",
          "type": "uint256[]"
        },
        {
          "internalType": "uint256[]",
          "name": "",
          "type": "uint256[]"
        },
        {
          "internalType": "bytes",
          "name": "",
          "type": "bytes"
        }
      ],
      "name": "onERC1155BatchReceived",
      "outputs": [
        {
          "internalType": "bytes4",
          "name": "",
          "type": "bytes4"
        }
      ],
      "stateMutability": "nonpayable",
      "type": "function"
    },
    {
      "inputs": [
        {
          "internalType": "address",
          "name": "",
          "type": "address"
        },
        {
          "internalType": "address",
          "name": "",
          "type": "address"
        },
        {
          "internalType": "uint256",
          "name": "",
          "type": "uint256"
        },
        {
          "internalType": "uint256",
          "name": "",
          "type": "uint256"
        },
        {
          "internalType": "bytes",
          "name": "",
          "type": "bytes"
        }
      ],
      "name": "onERC1155Received",
      "outputs": [
        {
          "internalType": "bytes4",
          "name": "",
          "type": "bytes4"
        }
      ],
      "stateMutability": "nonpayable",
      "type": "function"
    },
    {
      "inputs": [],
      "name": "owner",
      "outputs": [
        {
          "internalType": "address",
          "name": "",
          "type": "address"
        }
      ],
      "stateMutability": "view",
      "type": "function"
    },
    {
      "inputs": [
        {
          "internalType": "bytes4",
          "name": "interfaceId",
          "type": "bytes4"
        }
      ],
      "name": "supportsInterface",
      "outputs": [
        {
          "internalType": "bool",
          "name": "",
          "type": "bool"
        }
      ],
      "stateMutability": "view",
      "type": "function"
    },
    {
      "stateMutability": "payable",
      "type": "receive"
    },
    {
      "inputs": [],
      "name": "getBalance",
      "outputs": [
        {
          "internalType": "uint256",
          "name": "",
          "type": "uint256"
        }
      ],
      "stateMutability": "view",
      "type": "function"
    },
    {
      "inputs": [
        {
          "internalType": "address payable",
          "name": "_to",
          "type": "address"
        },
        {
          "internalType": "uint256",
          "name": "_value",
          "type": "uint256"
        }
      ],
      "name": "transferMoney",
      "outputs": [],
      "stateMutability": "payable",
      "type": "function"
    },
    {
      "inputs": [
        {
          "internalType": "string",
          "name": "_date",
          "type": "string"
        },
        {
          "internalType": "uint64",
          "name": "_time",
          "type": "uint64"
        }
      ],
      "name": "registerCheckIn",
      "outputs": [],
      "stateMutability": "nonpayable",
      "type": "function"
    },
    {
      "inputs": [
        {
          "internalType": "string",
          "name": "_date",
          "type": "string"
        }
      ],
      "name": "getCheckIn",
      "outputs": [
        {
          "internalType": "uint64[]",
          "name": "",
          "type": "uint64[]"
        }
      ],
      "stateMutability": "view",
      "type": "function"
    },
    {
      "inputs": [
        {
          "internalType": "string",
          "name": "_date",
          "type": "string"
        },
        {
          "internalType": "uint64",
          "name": "_unixTime",
          "type": "uint64"
        }
      ],
      "name": "registerCheckOut",
      "outputs": [],
      "stateMutability": "nonpayable",
      "type": "function"
    },
    {
      "inputs": [
        {
          "internalType": "string",
          "name": "_date",
          "type": "string"
        }
      ],
      "name": "getCheckOut",
      "outputs": [
        {
          "internalType": "uint64[]",
          "name": "",
          "type": "uint64[]"
        }
      ],
      "stateMutability": "view",
      "type": "function"
    },
    {
      "inputs": [
        {
          "internalType": "string",
          "name": "_activityType",
          "type": "string"
        },
        {
          "internalType": "address",
          "name": "_activityAddress",
          "type": "address"
        }
      ],
      "name": "newActivity",
      "outputs": [],
      "stateMutability": "nonpayable",
      "type": "function"
    },
    {
      "inputs": [
        {
          "internalType": "string",
          "name": "_activityType",
          "type": "string"
        }
      ],
      "name": "getActivities",
      "outputs": [
        {
          "internalType": "address[]",
          "name": "",
          "type": "address[]"
        }
      ],
      "stateMutability": "view",
      "type": "function"
    },
    {
      "inputs": [],
      "name": "eraseMe",
      "outputs": [],
      "stateMutability": "nonpayable",
      "type": "function"
    }
  ],
  "bytecode": "0x60806040523480156200001157600080fd5b5060405162001a3438038062001a348339818101604052810190620000379190620000e8565b806000806101000a81548173ffffffffffffffffffffffffffffffffffffffff021916908373ffffffffffffffffffffffffffffffffffffffff160217905550506200011a565b600080fd5b600073ffffffffffffffffffffffffffffffffffffffff82169050919050565b6000620000b08262000083565b9050919050565b620000c281620000a3565b8114620000ce57600080fd5b50565b600081519050620000e281620000b7565b92915050565b6000602082840312156200010157620001006200007e565b5b60006200011184828501620000d1565b91505092915050565b61190a806200012a6000396000f3fe6080604052600436106100e05760003560e01c8063bc197c811161007f578063db43775a11610059578063db43775a14610315578063e0ca43011461033e578063f23a6e611461037b578063fee666ad146103b857610120565b8063bc197c8114610298578063bdeb5fc4146102d5578063bf3c80c5146102ec57610120565b80631961b32f116100bb5780631961b32f146101ca57806330683f52146102075780638da5cb5b14610244578063a10d0b091461026f57610120565b8062b91f1a1461012557806301ffc9a71461016257806312065fe01461019f57610120565b36610120577f88a5966d370b9919b20f3e2c13ff65706f196a4e32cc2c12bf57088f885258743334604051610116929190610e2f565b60405180910390a1005b600080fd5b34801561013157600080fd5b5061014c60048036038101906101479190610fb2565b6103d4565b60405161015991906110b9565b60405180910390f35b34801561016e57600080fd5b5061018960048036038101906101849190611133565b61050e565b604051610196919061117b565b60405180910390f35b3480156101ab57600080fd5b506101b4610588565b6040516101c19190611196565b60405180910390f35b3480156101d657600080fd5b506101f160048036038101906101ec9190610fb2565b610590565b6040516101fe9190611283565b60405180910390f35b34801561021357600080fd5b5061022e600480360381019061022991906112d1565b6106c8565b60405161023b919061132d565b60405180910390f35b34801561025057600080fd5b5061025961072c565b604051610266919061132d565b60405180910390f35b34801561027b57600080fd5b5061029660048036038101906102919190611374565b610750565b005b3480156102a457600080fd5b506102bf60048036038101906102ba9190611565565b610854565b6040516102cc9190611643565b60405180910390f35b3480156102e157600080fd5b506102ea610869565b005b3480156102f857600080fd5b50610313600480360381019061030e9190611374565b610930565b005b34801561032157600080fd5b5061033c6004803603810190610337919061165e565b610a34565b005b34801561034a57600080fd5b5061036560048036038101906103609190610fb2565b610b45565b6040516103729190611283565b60405180910390f35b34801561038757600080fd5b506103a2600480360381019061039d91906116ba565b610c7d565b6040516103af9190611643565b60405180910390f35b6103d260048036038101906103cd919061178f565b610c92565b005b60603373ffffffffffffffffffffffffffffffffffffffff1660008054906101000a900473ffffffffffffffffffffffffffffffffffffffff1673ffffffffffffffffffffffffffffffffffffffff1614610464576040517f08c379a000000000000000000000000000000000000000000000000000000000815260040161045b9061182c565b60405180910390fd5b60038260405161047491906118bd565b908152602001604051809103902080548060200260200160405190810160405280929190818152602001828054801561050257602002820191906000526020600020905b8160009054906101000a900473ffffffffffffffffffffffffffffffffffffffff1673ffffffffffffffffffffffffffffffffffffffff16815260200190600101908083116104b8575b50505050509050919050565b60007f4e2312e0000000000000000000000000000000000000000000000000000000007bffffffffffffffffffffffffffffffffffffffffffffffffffffffff1916827bffffffffffffffffffffffffffffffffffffffffffffffffffffffff19161480610581575061058082610d6b565b5b9050919050565b600047905090565b60603373ffffffffffffffffffffffffffffffffffffffff1660008054906101000a900473ffffffffffffffffffffffffffffffffffffffff1673ffffffffffffffffffffffffffffffffffffffff1614610620576040517f08c379a00000000000000000000000000000000000000000000000000000000081526004016106179061182c565b60405180910390fd5b60018260405161063091906118bd565b90815260200160405180910390208054806020026020016040519081016040528092919081815260200182805480156106bc57602002820191906000526020600020906000905b82829054906101000a900467ffffffffffffffff1667ffffffffffffffff16815260200190600801906020826007010492830192600103820291508084116106775790505b50505050509050919050565b60038280516020810182018051848252602083016020850120818352809550505050505081815481106106fa57600080fd5b906000526020600020016000915091509054906101000a900473ffffffffffffffffffffffffffffffffffffffff1681565b60008054906101000a900473ffffffffffffffffffffffffffffffffffffffff1681565b3373ffffffffffffffffffffffffffffffffffffffff1660008054906101000a900473ffffffffffffffffffffffffffffffffffffffff1673ffffffffffffffffffffffffffffffffffffffff16146107de576040517f08c379a00000000000000000000000000000000000000000000000000000000081526004016107d59061182c565b60405180910390fd5b6002826040516107ee91906118bd565b90815260200160405180910390208190806001815401808255809150506001900390600052602060002090600491828204019190066008029091909190916101000a81548167ffffffffffffffff021916908367ffffffffffffffff1602179055505050565b600063bc197c8160e01b905095945050505050565b3373ffffffffffffffffffffffffffffffffffffffff1660008054906101000a900473ffffffffffffffffffffffffffffffffffffffff1673ffffffffffffffffffffffffffffffffffffffff16146108f7576040517f08c379a00000000000000000000000000000000000000000000000000000000081526004016108ee9061182c565b60405180910390fd5b60008054906101000a900473ffffffffffffffffffffffffffffffffffffffff1673ffffffffffffffffffffffffffffffffffffffff16ff5b3373ffffffffffffffffffffffffffffffffffffffff1660008054906101000a900473ffffffffffffffffffffffffffffffffffffffff1673ffffffffffffffffffffffffffffffffffffffff16146109be576040517f08c379a00000000000000000000000000000000000000000000000000000000081526004016109b59061182c565b60405180910390fd5b6001826040516109ce91906118bd565b90815260200160405180910390208190806001815401808255809150506001900390600052602060002090600491828204019190066008029091909190916101000a81548167ffffffffffffffff021916908367ffffffffffffffff1602179055505050565b3373ffffffffffffffffffffffffffffffffffffffff1660008054906101000a900473ffffffffffffffffffffffffffffffffffffffff1673ffffffffffffffffffffffffffffffffffffffff1614610ac2576040517f08c379a0000000000000000000000000000000000000000000000000000000008152600401610ab99061182c565b60405180910390fd5b600382604051610ad291906118bd565b9081526020016040518091039020819080600181540180825580915050600190039060005260206000200160009091909190916101000a81548173ffffffffffffffffffffffffffffffffffffffff021916908373ffffffffffffffffffffffffffffffffffffffff1602179055505050565b60603373ffffffffffffffffffffffffffffffffffffffff1660008054906101000a900473ffffffffffffffffffffffffffffffffffffffff1673ffffffffffffffffffffffffffffffffffffffff1614610bd5576040517f08c379a0000000000000000000000000000000000000000000000000000000008152600401610bcc9061182c565b60405180910390fd5b600282604051610be591906118bd565b9081526020016040518091039020805480602002602001604051908101604052809291908181526020018280548015610c7157602002820191906000526020600020906000905b82829054906101000a900467ffffffffffffffff1667ffffffffffffffff1681526020019060080190602082600701049283019260010382029150808411610c2c5790505b50505050509050919050565b600063f23a6e6160e01b905095945050505050565b3373ffffffffffffffffffffffffffffffffffffffff1660008054906101000a900473ffffffffffffffffffffffffffffffffffffffff1673ffffffffffffffffffffffffffffffffffffffff1614610d20576040517f08c379a0000000000000000000000000000000000000000000000000000000008152600401610d179061182c565b60405180910390fd5b8173ffffffffffffffffffffffffffffffffffffffff166108fc829081150290604051600060405180830381858888f19350505050158015610d66573d6000803e3d6000fd5b505050565b60007f01ffc9a7000000000000000000000000000000000000000000000000000000007bffffffffffffffffffffffffffffffffffffffffffffffffffffffff1916827bffffffffffffffffffffffffffffffffffffffffffffffffffffffff1916149050919050565b600073ffffffffffffffffffffffffffffffffffffffff82169050919050565b6000610e0082610dd5565b9050919050565b610e1081610df5565b82525050565b6000819050919050565b610e2981610e16565b82525050565b6000604082019050610e446000830185610e07565b610e516020830184610e20565b9392505050565b6000604051905090565b600080fd5b600080fd5b600080fd5b600080fd5b6000601f19601f8301169050919050565b7f4e487b7100000000000000000000000000000000000000000000000000000000600052604160045260246000fd5b610ebf82610e76565b810181811067ffffffffffffffff82111715610ede57610edd610e87565b5b80604052505050565b6000610ef1610e58565b9050610efd8282610eb6565b919050565b600067ffffffffffffffff821115610f1d57610f1c610e87565b5b610f2682610e76565b9050602081019050919050565b82818337600083830152505050565b6000610f55610f5084610f02565b610ee7565b905082815260208101848484011115610f7157610f70610e71565b5b610f7c848285610f33565b509392505050565b600082601f830112610f9957610f98610e6c565b5b8135610fa9848260208601610f42565b91505092915050565b600060208284031215610fc857610fc7610e62565b5b600082013567ffffffffffffffff811115610fe657610fe5610e67565b5b610ff284828501610f84565b91505092915050565b600081519050919050565b600082825260208201905092915050565b6000819050602082019050919050565b61103081610df5565b82525050565b60006110428383611027565b60208301905092915050565b6000602082019050919050565b600061106682610ffb565b6110708185611006565b935061107b83611017565b8060005b838110156110ac5781516110938882611036565b975061109e8361104e565b92505060018101905061107f565b5085935050505092915050565b600060208201905081810360008301526110d3818461105b565b905092915050565b60007fffffffff0000000000000000000000000000000000000000000000000000000082169050919050565b611110816110db565b811461111b57600080fd5b50565b60008135905061112d81611107565b92915050565b60006020828403121561114957611148610e62565b5b60006111578482850161111e565b91505092915050565b60008115159050919050565b61117581611160565b82525050565b6000602082019050611190600083018461116c565b92915050565b60006020820190506111ab6000830184610e20565b92915050565b600081519050919050565b600082825260208201905092915050565b6000819050602082019050919050565b600067ffffffffffffffff82169050919050565b6111fa816111dd565b82525050565b600061120c83836111f1565b60208301905092915050565b6000602082019050919050565b6000611230826111b1565b61123a81856111bc565b9350611245836111cd565b8060005b8381101561127657815161125d8882611200565b975061126883611218565b925050600181019050611249565b5085935050505092915050565b6000602082019050818103600083015261129d8184611225565b905092915050565b6112ae81610e16565b81146112b957600080fd5b50565b6000813590506112cb816112a5565b92915050565b600080604083850312156112e8576112e7610e62565b5b600083013567ffffffffffffffff81111561130657611305610e67565b5b61131285828601610f84565b9250506020611323858286016112bc565b9150509250929050565b60006020820190506113426000830184610e07565b92915050565b611351816111dd565b811461135c57600080fd5b50565b60008135905061136e81611348565b92915050565b6000806040838503121561138b5761138a610e62565b5b600083013567ffffffffffffffff8111156113a9576113a8610e67565b5b6113b585828601610f84565b92505060206113c68582860161135f565b9150509250929050565b6113d981610df5565b81146113e457600080fd5b50565b6000813590506113f6816113d0565b92915050565b600067ffffffffffffffff82111561141757611416610e87565b5b602082029050602081019050919050565b600080fd5b600061144061143b846113fc565b610ee7565b9050808382526020820190506020840283018581111561146357611462611428565b5b835b8181101561148c578061147888826112bc565b845260208401935050602081019050611465565b5050509392505050565b600082601f8301126114ab576114aa610e6c565b5b81356114bb84826020860161142d565b91505092915050565b600067ffffffffffffffff8211156114df576114de610e87565b5b6114e882610e76565b9050602081019050919050565b6000611508611503846114c4565b610ee7565b90508281526020810184848401111561152457611523610e71565b5b61152f848285610f33565b509392505050565b600082601f83011261154c5761154b610e6c565b5b813561155c8482602086016114f5565b91505092915050565b600080600080600060a0868803121561158157611580610e62565b5b600061158f888289016113e7565b95505060206115a0888289016113e7565b945050604086013567ffffffffffffffff8111156115c1576115c0610e67565b5b6115cd88828901611496565b935050606086013567ffffffffffffffff8111156115ee576115ed610e67565b5b6115fa88828901611496565b925050608086013567ffffffffffffffff81111561161b5761161a610e67565b5b61162788828901611537565b9150509295509295909350565b61163d816110db565b82525050565b60006020820190506116586000830184611634565b92915050565b6000806040838503121561167557611674610e62565b5b600083013567ffffffffffffffff81111561169357611692610e67565b5b61169f85828601610f84565b92505060206116b0858286016113e7565b9150509250929050565b600080600080600060a086880312156116d6576116d5610e62565b5b60006116e4888289016113e7565b95505060206116f5888289016113e7565b9450506040611706888289016112bc565b9350506060611717888289016112bc565b925050608086013567ffffffffffffffff81111561173857611737610e67565b5b61174488828901611537565b9150509295509295909350565b600061175c82610dd5565b9050919050565b61176c81611751565b811461177757600080fd5b50565b60008135905061178981611763565b92915050565b600080604083850312156117a6576117a5610e62565b5b60006117b48582860161177a565b92505060206117c5858286016112bc565b9150509250929050565b600082825260208201905092915050565b7f4e6f74206f776e65720000000000000000000000000000000000000000000000600082015250565b60006118166009836117cf565b9150611821826117e0565b602082019050919050565b6000602082019050818103600083015261184581611809565b9050919050565b600081519050919050565b600081905092915050565b60005b83811015611880578082015181840152602081019050611865565b60008484015250505050565b60006118978261184c565b6118a18185611857565b93506118b1818560208601611862565b80840191505092915050565b60006118c9828461188c565b91508190509291505056fea264697066735822122070cd8c75e399745a87e4462b5a4fb8d1e28a171f1f4e54d0ad7a9fbbe2490a1164736f6c63430008110033",
  "immutableReferences": {},
  "source": "// SPDX-License-Identifier: MIT\r\npragma solidity ^0.8.15;\r\n\r\nimport \"@openzeppelin/contracts/token/ERC1155/utils/ERC1155Holder.sol\";\r\n\r\n/*\r\nPerson contract: manage person profile and track activities\r\n    . state variables\r\n        - owner: EOA == Inteli mngmt\r\n        - checkIn: log check-ins in a given day\r\n        - checkOut: log check-outs in a given day\r\n        - activities: log activities done by person\r\n    . methods: create and retrieve events and register in state variable\r\n*/\r\ncontract Person is ERC1155Holder {\r\n    address public owner;\r\n\r\n    event Received(address, uint256);\r\n\r\n    modifier isOwner() {\r\n        require(owner == msg.sender, \"Not owner\");\r\n        _;\r\n    }\r\n\r\n    mapping(string => uint64[]) private campusCheckIn;\r\n    mapping(string => uint64[]) private campusCheckOut;\r\n    mapping(string => address[]) public activities;\r\n\r\n    constructor(address _owner) {\r\n        owner = _owner;\r\n    }\r\n\r\n    function getBalance() public view returns (uint256) {\r\n        return address(this).balance;\r\n    }\r\n\r\n    function transferMoney(address payable _to, uint256 _value)\r\n        external\r\n        isOwner\r\n        payable\r\n    {\r\n        _to.transfer(_value);\r\n    }\r\n\r\n    receive() external payable {\r\n        emit Received(msg.sender, msg.value);\r\n    }\r\n\r\n    function registerCheckIn(string memory _date, uint64 _time) public isOwner {\r\n        campusCheckIn[_date].push(_time);\r\n    }\r\n\r\n    function getCheckIn(string memory _date)\r\n        public\r\n        view\r\n        isOwner\r\n        returns (uint64[] memory)\r\n    {\r\n        return campusCheckIn[_date];\r\n    }\r\n\r\n    function registerCheckOut(string memory _date, uint64 _unixTime)\r\n        public\r\n        isOwner\r\n    {\r\n        campusCheckOut[_date].push(_unixTime);\r\n    }\r\n\r\n    function getCheckOut(string memory _date)\r\n        public\r\n        view\r\n        isOwner\r\n        returns (uint64[] memory)\r\n    {\r\n        return campusCheckOut[_date];\r\n    }\r\n\r\n    function newActivity(string memory _activityType, address _activityAddress)\r\n        public\r\n        isOwner\r\n    {\r\n        activities[_activityType].push(_activityAddress);\r\n    }\r\n\r\n    function getActivities(string memory _activityType)\r\n        public\r\n        view\r\n        isOwner\r\n        returns (address[] memory)\r\n    {\r\n        return activities[_activityType];\r\n    }\r\n\r\n    function eraseMe() public isOwner {\r\n        selfdestruct(payable(owner));\r\n    }\r\n}\r\n",
  "sourcePath": "C:\\Users\\reish\\Documents\\GitHub\\projeto_inteli\\contracts\\Person.sol",
  "compiler": {
    "name": "solc",
    "version": "0.8.17+commit.8df45f5f.Emscripten.clang"
  },
  "schemaVersion": "3.4.10",
  "updatedAt": "2022-09-21T13:24:20.874Z",
  "devdoc": {
    "kind": "dev",
    "methods": {
      "supportsInterface(bytes4)": {
        "details": "See {IERC165-supportsInterface}."
      }
    },
    "version": 1
  },
  "userdoc": {
    "kind": "user",
    "methods": {},
    "version": 1
  }
}